{
  "_format": "hh-sol-artifact-1",
  "contractName": "Division",
  "sourceName": "contracts/Division.sol",
  "abi": [
    {
      "inputs": [
        {
          "internalType": "uint256",
          "name": "decimalPlaces",
          "type": "uint256"
        },
        {
          "internalType": "uint256",
          "name": "numerator",
          "type": "uint256"
        },
        {
          "internalType": "uint256",
          "name": "denominator",
          "type": "uint256"
        }
      ],
      "name": "division",
      "outputs": [
        {
          "internalType": "uint256",
          "name": "quotient",
          "type": "uint256"
        },
        {
          "internalType": "uint256",
          "name": "remainder",
          "type": "uint256"
        },
        {
          "internalType": "string",
          "name": "result",
          "type": "string"
        }
      ],
      "stateMutability": "pure",
      "type": "function"
    }
  ],
  "bytecode": "0x608060405234801561001057600080fd5b50610954806100206000396000f3fe608060405234801561001057600080fd5b506004361061002b5760003560e01c80632336b59114610030575b600080fd5b61004a6004803603810190610045919061033e565b610062565b60405161005993929190610430565b60405180910390f35b6000806060600086600a61007691906105d0565b90508486610084919061064a565b9350600085868389610096919061067b565b6100a091906106bd565b60026100ac919061067b565b10159050818683896100be919061067b565b6100c8919061064a565b6100d291906106bd565b935080156100ea576001846100e791906106ee565b93505b6100f38561012a565b6100fd898661028a565b60405160200161010e9291906107aa565b6040516020818303038152906040529250505093509350939050565b606060008203610171576040518060400160405280600181526020017f30000000000000000000000000000000000000000000000000000000000000008152509050610285565b600082905060005b600082146101a357808061018c906107d9565b915050600a8261019c919061064a565b9150610179565b60008167ffffffffffffffff8111156101bf576101be610821565b5b6040519080825280601f01601f1916602001820160405280156101f15781602001600182028036833780820191505090505b5090505b6000851461027e5760018261020a9190610850565b9150600a8561021991906106bd565b603061022591906106ee565b60f81b81838151811061023b5761023a610884565b5b60200101907effffffffffffffffffffffffffffffffffffffffffffffffffffffffffffff1916908160001a905350600a85610277919061064a565b94506101f5565b8093505050505b919050565b60608060005b848110156102f8576000600a856102a791906106bd565b90506102b28161012a565b836040516020016102c49291906108fa565b6040516020818303038152906040529250600a856102e2919061064a565b94505080806102f0906107d9565b915050610290565b508091505092915050565b600080fd5b6000819050919050565b61031b81610308565b811461032657600080fd5b50565b60008135905061033881610312565b92915050565b60008060006060848603121561035757610356610303565b5b600061036586828701610329565b935050602061037686828701610329565b925050604061038786828701610329565b9150509250925092565b61039a81610308565b82525050565b600081519050919050565b600082825260208201905092915050565b60005b838110156103da5780820151818401526020810190506103bf565b60008484015250505050565b6000601f19601f8301169050919050565b6000610402826103a0565b61040c81856103ab565b935061041c8185602086016103bc565b610425816103e6565b840191505092915050565b60006060820190506104456000830186610391565b6104526020830185610391565b818103604083015261046481846103f7565b9050949350505050565b7f4e487b7100000000000000000000000000000000000000000000000000000000600052601160045260246000fd5b60008160011c9050919050565b6000808291508390505b60018511156104f4578086048111156104d0576104cf61046e565b5b60018516156104df5780820291505b80810290506104ed8561049d565b94506104b4565b94509492505050565b60008261050d57600190506105c9565b8161051b57600090506105c9565b8160018114610531576002811461053b5761056a565b60019150506105c9565b60ff84111561054d5761054c61046e565b5b8360020a9150848211156105645761056361046e565b5b506105c9565b5060208310610133831016604e8410600b841016171561059f5782820a90508381111561059a5761059961046e565b5b6105c9565b6105ac84848460016104aa565b925090508184048111156105c3576105c261046e565b5b81810290505b9392505050565b60006105db82610308565b91506105e683610308565b92506106137fffffffffffffffffffffffffffffffffffffffffffffffffffffffffffffffff84846104fd565b905092915050565b7f4e487b7100000000000000000000000000000000000000000000000000000000600052601260045260246000fd5b600061065582610308565b915061066083610308565b9250826106705761066f61061b565b5b828204905092915050565b600061068682610308565b915061069183610308565b925082820261069f81610308565b915082820484148315176106b6576106b561046e565b5b5092915050565b60006106c882610308565b91506106d383610308565b9250826106e3576106e261061b565b5b828206905092915050565b60006106f982610308565b915061070483610308565b925082820190508082111561071c5761071b61046e565b5b92915050565b600081905092915050565b6000610738826103a0565b6107428185610722565b93506107528185602086016103bc565b80840191505092915050565b7f2e00000000000000000000000000000000000000000000000000000000000000600082015250565b6000610794600183610722565b915061079f8261075e565b600182019050919050565b60006107b6828561072d565b91506107c182610787565b91506107cd828461072d565b91508190509392505050565b60006107e482610308565b91507fffffffffffffffffffffffffffffffffffffffffffffffffffffffffffffffff82036108165761081561046e565b5b600182019050919050565b7f4e487b7100000000000000000000000000000000000000000000000000000000600052604160045260246000fd5b600061085b82610308565b915061086683610308565b925082820390508181111561087e5761087d61046e565b5b92915050565b7f4e487b7100000000000000000000000000000000000000000000000000000000600052603260045260246000fd5b600081519050919050565b600081905092915050565b60006108d4826108b3565b6108de81856108be565b93506108ee8185602086016103bc565b80840191505092915050565b6000610906828561072d565b915061091282846108c9565b9150819050939250505056fea2646970667358221220d9b79fbd217ffa51df9b7d6e0824a70a50afeab19c15693c52dd262b957cbfe264736f6c63430008110033",
  "linkReferences": {},
  "deployedLinkReferences": {}
}