{
  "_format": "hh-sol-artifact-1",
  "contractName": "UserService",
  "sourceName": "contracts/UserService.sol",
  "abi": [
    {
      "inputs": [
        {
          "internalType": "address",
          "name": "_mainSystemAddress",
          "type": "address"
        }
      ],
      "stateMutability": "nonpayable",
      "type": "constructor"
    },
    {
      "inputs": [
        {
          "internalType": "address",
          "name": "_user",
          "type": "address"
        },
        {
          "internalType": "uint256",
          "name": "_units",
          "type": "uint256"
        }
      ],
      "name": "addAvailableElecUnits",
      "outputs": [],
      "stateMutability": "nonpayable",
      "type": "function"
    },
    {
      "inputs": [
        {
          "internalType": "address",
          "name": "_user",
          "type": "address"
        },
        {
          "internalType": "contract PostResponseMessage",
          "name": "message",
          "type": "address"
        }
      ],
      "name": "addResponse",
      "outputs": [],
      "stateMutability": "nonpayable",
      "type": "function"
    },
    {
      "inputs": [
        {
          "internalType": "address",
          "name": "_user",
          "type": "address"
        }
      ],
      "name": "getAvailableElecUnits",
      "outputs": [
        {
          "internalType": "uint256",
          "name": "",
          "type": "uint256"
        }
      ],
      "stateMutability": "view",
      "type": "function"
    },
    {
      "inputs": [
        {
          "internalType": "address",
          "name": "_user",
          "type": "address"
        }
      ],
      "name": "getPurchasePostKeys",
      "outputs": [
        {
          "internalType": "uint256[]",
          "name": "",
          "type": "uint256[]"
        }
      ],
      "stateMutability": "view",
      "type": "function"
    },
    {
      "inputs": [
        {
          "internalType": "address",
          "name": "_user",
          "type": "address"
        }
      ],
      "name": "getSellingPostKeys",
      "outputs": [
        {
          "internalType": "uint256[]",
          "name": "",
          "type": "uint256[]"
        }
      ],
      "stateMutability": "view",
      "type": "function"
    },
    {
      "inputs": [
        {
          "internalType": "address",
          "name": "_user",
          "type": "address"
        }
      ],
      "name": "getUsername",
      "outputs": [
        {
          "internalType": "string",
          "name": "",
          "type": "string"
        }
      ],
      "stateMutability": "view",
      "type": "function"
    },
    {
      "inputs": [
        {
          "internalType": "address",
          "name": "_buyerServiceAddress",
          "type": "address"
        },
        {
          "internalType": "address",
          "name": "_sellerServiceAddress",
          "type": "address"
        },
        {
          "internalType": "address",
          "name": "_adminAddress",
          "type": "address"
        }
      ],
      "name": "initializeContractAddresses",
      "outputs": [],
      "stateMutability": "nonpayable",
      "type": "function"
    },
    {
      "inputs": [
        {
          "internalType": "address",
          "name": "_user",
          "type": "address"
        }
      ],
      "name": "returnAllResponses",
      "outputs": [
        {
          "internalType": "contract PostResponseMessage[]",
          "name": "",
          "type": "address[]"
        }
      ],
      "stateMutability": "view",
      "type": "function"
    },
    {
      "inputs": [
        {
          "internalType": "address",
          "name": "_user",
          "type": "address"
        },
        {
          "internalType": "uint256",
          "name": "_purchasePostKey",
          "type": "uint256"
        }
      ],
      "name": "savePurchasePostKey",
      "outputs": [],
      "stateMutability": "nonpayable",
      "type": "function"
    },
    {
      "inputs": [
        {
          "internalType": "address",
          "name": "_user",
          "type": "address"
        },
        {
          "internalType": "uint256",
          "name": "_sellingPostKey",
          "type": "uint256"
        }
      ],
      "name": "saveSellingPostKey",
      "outputs": [],
      "stateMutability": "nonpayable",
      "type": "function"
    },
    {
      "inputs": [
        {
          "internalType": "address",
          "name": "_user",
          "type": "address"
        },
        {
          "internalType": "uint256",
          "name": "_units",
          "type": "uint256"
        }
      ],
      "name": "setAvailableElecUnits",
      "outputs": [],
      "stateMutability": "nonpayable",
      "type": "function"
    },
    {
      "inputs": [
        {
          "internalType": "address",
          "name": "_user",
          "type": "address"
        },
        {
          "internalType": "string",
          "name": "_username",
          "type": "string"
        }
      ],
      "name": "setUsername",
      "outputs": [],
      "stateMutability": "nonpayable",
      "type": "function"
    }
  ],
  "bytecode": "0x60806040523480156200001157600080fd5b5060405162001b5838038062001b5883398181016040528101906200003791906200014a565b80600160006101000a81548173ffffffffffffffffffffffffffffffffffffffff021916908373ffffffffffffffffffffffffffffffffffffffff16021790555060007396c1ce80ab24e9aa360c702a4026cae725b0f31a905060646000808373ffffffffffffffffffffffffffffffffffffffff1673ffffffffffffffffffffffffffffffffffffffff1681526020019081526020016000206001018190555050506200017c565b600080fd5b600073ffffffffffffffffffffffffffffffffffffffff82169050919050565b60006200011282620000e5565b9050919050565b620001248162000105565b81146200013057600080fd5b50565b600081519050620001448162000119565b92915050565b600060208284031215620001635762000162620000e0565b5b6000620001738482850162000133565b91505092915050565b6119cc806200018c6000396000f3fe608060405234801561001057600080fd5b50600436106100b45760003560e01c8063ce43c03211610071578063ce43c0321461019d578063d4093bdb146101cd578063e2045452146101e9578063e267097114610205578063ebe0b87714610221578063f03b5e9d14610251576100b4565b80631d036d7d146100b95780631fe43704146100e957806384dc965a14610119578063b5f7850c14610135578063c331d84214610151578063cb8ab15b1461016d575b600080fd5b6100d360048036038101906100ce9190610d16565b61026d565b6040516100e09190610e0b565b60405180910390f35b61010360048036038101906100fe9190610d16565b610306565b6040516101109190610f3b565b60405180910390f35b610133600480360381019061012e9190610fad565b6103d5565b005b61014f600480360381019061014a9190611019565b61047b565b005b61016b60048036038101906101669190611019565b6105aa565b005b61018760048036038101906101829190610d16565b6106a6565b6040516101949190611068565b60405180910390f35b6101b760048036038101906101b29190610d16565b6106f1565b6040516101c49190611113565b60405180910390f35b6101e760048036038101906101e29190611135565b6107c4565b005b61020360048036038101906101fe91906112bd565b61091c565b005b61021f600480360381019061021a9190611019565b6109dd565b005b61023b60048036038101906102369190610d16565b610b0f565b6040516102489190610e0b565b60405180910390f35b61026b60048036038101906102669190611019565b610ba8565b005b60606000808373ffffffffffffffffffffffffffffffffffffffff1673ffffffffffffffffffffffffffffffffffffffff1681526020019081526020016000206003018054806020026020016040519081016040528092919081815260200182805480156102fa57602002820191906000526020600020905b8154815260200190600101908083116102e6575b50505050509050919050565b60606000808373ffffffffffffffffffffffffffffffffffffffff1673ffffffffffffffffffffffffffffffffffffffff1681526020019081526020016000206004018054806020026020016040519081016040528092919081815260200182805480156103c957602002820191906000526020600020905b8160009054906101000a900473ffffffffffffffffffffffffffffffffffffffff1673ffffffffffffffffffffffffffffffffffffffff168152602001906001019080831161037f575b50505050509050919050565b6000808373ffffffffffffffffffffffffffffffffffffffff1673ffffffffffffffffffffffffffffffffffffffff168152602001908152602001600020600401819080600181540180825580915050600190039060005260206000200160009091909190916101000a81548173ffffffffffffffffffffffffffffffffffffffff021916908373ffffffffffffffffffffffffffffffffffffffff1602179055505050565b600460009054906101000a900473ffffffffffffffffffffffffffffffffffffffff1673ffffffffffffffffffffffffffffffffffffffff163273ffffffffffffffffffffffffffffffffffffffff161461050b576040517f08c379a00000000000000000000000000000000000000000000000000000000081526004016105029061138b565b60405180910390fd5b6000811161054e576040517f08c379a00000000000000000000000000000000000000000000000000000000081526004016105459061141d565b60405180910390fd5b806000808473ffffffffffffffffffffffffffffffffffffffff1673ffffffffffffffffffffffffffffffffffffffff168152602001908152602001600020600101600082825461059f919061146c565b925050819055505050565b600360009054906101000a900473ffffffffffffffffffffffffffffffffffffffff1673ffffffffffffffffffffffffffffffffffffffff163373ffffffffffffffffffffffffffffffffffffffff161461063a576040517f08c379a0000000000000000000000000000000000000000000000000000000008152600401610631906114ec565b60405180910390fd5b6000808373ffffffffffffffffffffffffffffffffffffffff1673ffffffffffffffffffffffffffffffffffffffff1681526020019081526020016000206003018190806001815401808255809150506001900390600052602060002001600090919091909150555050565b60008060008373ffffffffffffffffffffffffffffffffffffffff1673ffffffffffffffffffffffffffffffffffffffff168152602001908152602001600020600101549050919050565b60606000808373ffffffffffffffffffffffffffffffffffffffff1673ffffffffffffffffffffffffffffffffffffffff168152602001908152602001600020600001805461073f9061153b565b80601f016020809104026020016040519081016040528092919081815260200182805461076b9061153b565b80156107b85780601f1061078d576101008083540402835291602001916107b8565b820191906000526020600020905b81548152906001019060200180831161079b57829003601f168201915b50505050509050919050565b600160009054906101000a900473ffffffffffffffffffffffffffffffffffffffff1673ffffffffffffffffffffffffffffffffffffffff163373ffffffffffffffffffffffffffffffffffffffff1614610854576040517f08c379a000000000000000000000000000000000000000000000000000000000815260040161084b906115de565b60405180910390fd5b82600260006101000a81548173ffffffffffffffffffffffffffffffffffffffff021916908373ffffffffffffffffffffffffffffffffffffffff16021790555081600360006101000a81548173ffffffffffffffffffffffffffffffffffffffff021916908373ffffffffffffffffffffffffffffffffffffffff16021790555080600460006101000a81548173ffffffffffffffffffffffffffffffffffffffff021916908373ffffffffffffffffffffffffffffffffffffffff160217905550505050565b8173ffffffffffffffffffffffffffffffffffffffff163273ffffffffffffffffffffffffffffffffffffffff161461098a576040517f08c379a000000000000000000000000000000000000000000000000000000000815260040161098190611670565b60405180910390fd5b806000808473ffffffffffffffffffffffffffffffffffffffff1673ffffffffffffffffffffffffffffffffffffffff16815260200190815260200160002060000190816109d89190611832565b505050565b600260009054906101000a900473ffffffffffffffffffffffffffffffffffffffff1673ffffffffffffffffffffffffffffffffffffffff163373ffffffffffffffffffffffffffffffffffffffff161480610a865750600360009054906101000a900473ffffffffffffffffffffffffffffffffffffffff1673ffffffffffffffffffffffffffffffffffffffff163373ffffffffffffffffffffffffffffffffffffffff16145b610ac5576040517f08c379a0000000000000000000000000000000000000000000000000000000008152600401610abc90611976565b60405180910390fd5b806000808473ffffffffffffffffffffffffffffffffffffffff1673ffffffffffffffffffffffffffffffffffffffff168152602001908152602001600020600101819055505050565b60606000808373ffffffffffffffffffffffffffffffffffffffff1673ffffffffffffffffffffffffffffffffffffffff168152602001908152602001600020600201805480602002602001604051908101604052809291908181526020018280548015610b9c57602002820191906000526020600020905b815481526020019060010190808311610b88575b50505050509050919050565b600260009054906101000a900473ffffffffffffffffffffffffffffffffffffffff1673ffffffffffffffffffffffffffffffffffffffff163373ffffffffffffffffffffffffffffffffffffffff1614610c38576040517f08c379a0000000000000000000000000000000000000000000000000000000008152600401610c2f906114ec565b60405180910390fd5b6000808373ffffffffffffffffffffffffffffffffffffffff1673ffffffffffffffffffffffffffffffffffffffff1681526020019081526020016000206002018190806001815401808255809150506001900390600052602060002001600090919091909150555050565b6000604051905090565b600080fd5b600080fd5b600073ffffffffffffffffffffffffffffffffffffffff82169050919050565b6000610ce382610cb8565b9050919050565b610cf381610cd8565b8114610cfe57600080fd5b50565b600081359050610d1081610cea565b92915050565b600060208284031215610d2c57610d2b610cae565b5b6000610d3a84828501610d01565b91505092915050565b600081519050919050565b600082825260208201905092915050565b6000819050602082019050919050565b6000819050919050565b610d8281610d6f565b82525050565b6000610d948383610d79565b60208301905092915050565b6000602082019050919050565b6000610db882610d43565b610dc28185610d4e565b9350610dcd83610d5f565b8060005b83811015610dfe578151610de58882610d88565b9750610df083610da0565b925050600181019050610dd1565b5085935050505092915050565b60006020820190508181036000830152610e258184610dad565b905092915050565b600081519050919050565b600082825260208201905092915050565b6000819050602082019050919050565b6000819050919050565b6000610e7e610e79610e7484610cb8565b610e59565b610cb8565b9050919050565b6000610e9082610e63565b9050919050565b6000610ea282610e85565b9050919050565b610eb281610e97565b82525050565b6000610ec48383610ea9565b60208301905092915050565b6000602082019050919050565b6000610ee882610e2d565b610ef28185610e38565b9350610efd83610e49565b8060005b83811015610f2e578151610f158882610eb8565b9750610f2083610ed0565b925050600181019050610f01565b5085935050505092915050565b60006020820190508181036000830152610f558184610edd565b905092915050565b6000610f6882610cb8565b9050919050565b6000610f7a82610f5d565b9050919050565b610f8a81610f6f565b8114610f9557600080fd5b50565b600081359050610fa781610f81565b92915050565b60008060408385031215610fc457610fc3610cae565b5b6000610fd285828601610d01565b9250506020610fe385828601610f98565b9150509250929050565b610ff681610d6f565b811461100157600080fd5b50565b60008135905061101381610fed565b92915050565b600080604083850312156110305761102f610cae565b5b600061103e85828601610d01565b925050602061104f85828601611004565b9150509250929050565b61106281610d6f565b82525050565b600060208201905061107d6000830184611059565b92915050565b600081519050919050565b600082825260208201905092915050565b60005b838110156110bd5780820151818401526020810190506110a2565b60008484015250505050565b6000601f19601f8301169050919050565b60006110e582611083565b6110ef818561108e565b93506110ff81856020860161109f565b611108816110c9565b840191505092915050565b6000602082019050818103600083015261112d81846110da565b905092915050565b60008060006060848603121561114e5761114d610cae565b5b600061115c86828701610d01565b935050602061116d86828701610d01565b925050604061117e86828701610d01565b9150509250925092565b600080fd5b600080fd5b7f4e487b7100000000000000000000000000000000000000000000000000000000600052604160045260246000fd5b6111ca826110c9565b810181811067ffffffffffffffff821117156111e9576111e8611192565b5b80604052505050565b60006111fc610ca4565b905061120882826111c1565b919050565b600067ffffffffffffffff82111561122857611227611192565b5b611231826110c9565b9050602081019050919050565b82818337600083830152505050565b600061126061125b8461120d565b6111f2565b90508281526020810184848401111561127c5761127b61118d565b5b61128784828561123e565b509392505050565b600082601f8301126112a4576112a3611188565b5b81356112b484826020860161124d565b91505092915050565b600080604083850312156112d4576112d3610cae565b5b60006112e285828601610d01565b925050602083013567ffffffffffffffff81111561130357611302610cb3565b5b61130f8582860161128f565b9150509250929050565b7f616363657373207265737472696374656420746f2041646d696e2c206163636560008201527f73732064656e6965640000000000000000000000000000000000000000000000602082015250565b600061137560298361108e565b915061138082611319565b604082019050919050565b600060208201905081810360008301526113a481611368565b9050919050565b7f656c65637472696369747920756e697473206d7573742062652067726561746560008201527f72207468616e2030000000000000000000000000000000000000000000000000602082015250565b600061140760288361108e565b9150611412826113ab565b604082019050919050565b60006020820190508181036000830152611436816113fa565b9050919050565b7f4e487b7100000000000000000000000000000000000000000000000000000000600052601160045260246000fd5b600061147782610d6f565b915061148283610d6f565b925082820190508082111561149a5761149961143d565b5b92915050565b7f6163636573732064656e69656400000000000000000000000000000000000000600082015250565b60006114d6600d8361108e565b91506114e1826114a0565b602082019050919050565b60006020820190508181036000830152611505816114c9565b9050919050565b7f4e487b7100000000000000000000000000000000000000000000000000000000600052602260045260246000fd5b6000600282049050600182168061155357607f821691505b6020821081036115665761156561150c565b5b50919050565b7f696e7465726e616c20696e697469616c697a6174696f6e2066756e6374696f6e60008201527f2c206163636573732064656e6965640000000000000000000000000000000000602082015250565b60006115c8602f8361108e565b91506115d38261156c565b604082019050919050565b600060208201905081810360008301526115f7816115bb565b9050919050565b7f596f752063616e6e6f74206368616e6765206f7468657220757365722773206960008201527f6e666f726d6174696f6e00000000000000000000000000000000000000000000602082015250565b600061165a602a8361108e565b9150611665826115fe565b604082019050919050565b600060208201905081810360008301526116898161164d565b9050919050565b60008190508160005260206000209050919050565b60006020601f8301049050919050565b600082821b905092915050565b6000600883026116f27fffffffffffffffffffffffffffffffffffffffffffffffffffffffffffffffff826116b5565b6116fc86836116b5565b95508019841693508086168417925050509392505050565b600061172f61172a61172584610d6f565b610e59565b610d6f565b9050919050565b6000819050919050565b61174983611714565b61175d61175582611736565b8484546116c2565b825550505050565b600090565b611772611765565b61177d818484611740565b505050565b5b818110156117a15761179660008261176a565b600181019050611783565b5050565b601f8211156117e6576117b781611690565b6117c0846116a5565b810160208510156117cf578190505b6117e36117db856116a5565b830182611782565b50505b505050565b600082821c905092915050565b6000611809600019846008026117eb565b1980831691505092915050565b600061182283836117f8565b9150826002028217905092915050565b61183b82611083565b67ffffffffffffffff81111561185457611853611192565b5b61185e825461153b565b6118698282856117a5565b600060209050601f83116001811461189c576000841561188a578287015190505b6118948582611816565b8655506118fc565b601f1984166118aa86611690565b60005b828110156118d2578489015182556001820191506020850194506020810190506118ad565b868310156118ef57848901516118eb601f8916826117f8565b8355505b6001600288020188555050505b505050505050565b7f616363657373207265737472696374656420746f2062757965722f73656c6c6560008201527f7220736572766963652c206163636573732064656e6965640000000000000000602082015250565b600061196060388361108e565b915061196b82611904565b604082019050919050565b6000602082019050818103600083015261198f81611953565b905091905056fea26469706673582212209269b11442d568c780a46fdc5eff3d4eedbdf61d431bc7b4fafceef6a14ce2a764736f6c63430008110033",
  "linkReferences": {},
  "deployedLinkReferences": {}
}