{
  "_format": "hh-sol-artifact-1",
  "contractName": "BuyerService",
  "sourceName": "contracts/BuyerService.sol",
  "abi": [
    {
      "inputs": [
        {
          "internalType": "contract StatisticsService",
          "name": "_statisticsService",
          "type": "address"
        },
        {
          "internalType": "contract UserService",
          "name": "_userService",
          "type": "address"
        },
        {
          "internalType": "contract Division",
          "name": "_divisionUtils",
          "type": "address"
        }
      ],
      "stateMutability": "nonpayable",
      "type": "constructor"
    },
    {
      "anonymous": false,
      "inputs": [
        {
          "indexed": false,
          "internalType": "address",
          "name": "creator",
          "type": "address"
        },
        {
          "indexed": false,
          "internalType": "uint256",
          "name": "postKey",
          "type": "uint256"
        },
        {
          "indexed": false,
          "internalType": "uint256",
          "name": "_priceToBuy",
          "type": "uint256"
        },
        {
          "indexed": false,
          "internalType": "uint256",
          "name": "_amountToBuy",
          "type": "uint256"
        }
      ],
      "name": "PurchasePostCreated",
      "type": "event"
    },
    {
      "anonymous": false,
      "inputs": [
        {
          "indexed": false,
          "internalType": "uint256",
          "name": "paymentAmount",
          "type": "uint256"
        },
        {
          "indexed": false,
          "internalType": "uint256",
          "name": "purchasePostKey",
          "type": "uint256"
        },
        {
          "indexed": false,
          "internalType": "address",
          "name": "responseMessageAddress",
          "type": "address"
        }
      ],
      "name": "PurchasePostPaymentSuccess",
      "type": "event"
    },
    {
      "anonymous": false,
      "inputs": [
        {
          "indexed": false,
          "internalType": "address",
          "name": "creator",
          "type": "address"
        },
        {
          "indexed": false,
          "internalType": "address",
          "name": "responseMessageAddress",
          "type": "address"
        }
      ],
      "name": "PurchasePostResponseMessageCreated",
      "type": "event"
    },
    {
      "inputs": [
        {
          "internalType": "uint256",
          "name": "",
          "type": "uint256"
        }
      ],
      "name": "averagePriceforBuy",
      "outputs": [
        {
          "internalType": "uint256",
          "name": "",
          "type": "uint256"
        }
      ],
      "stateMutability": "view",
      "type": "function"
    },
    {
      "inputs": [],
      "name": "averagePriceforBuyKey",
      "outputs": [
        {
          "internalType": "uint256",
          "name": "",
          "type": "uint256"
        }
      ],
      "stateMutability": "view",
      "type": "function"
    },
    {
      "inputs": [
        {
          "internalType": "uint256",
          "name": "_priceToBuy",
          "type": "uint256"
        },
        {
          "internalType": "uint256",
          "name": "_amountToBuy",
          "type": "uint256"
        },
        {
          "internalType": "address",
          "name": "_msgSender",
          "type": "address"
        }
      ],
      "name": "createPurchasePost",
      "outputs": [],
      "stateMutability": "nonpayable",
      "type": "function"
    },
    {
      "inputs": [
        {
          "internalType": "uint256",
          "name": "_amountToSell",
          "type": "uint256"
        },
        {
          "internalType": "uint256",
          "name": "_quotationInWei",
          "type": "uint256"
        },
        {
          "internalType": "uint256",
          "name": "_purchasePostKey",
          "type": "uint256"
        },
        {
          "internalType": "address",
          "name": "_msgSender",
          "type": "address"
        }
      ],
      "name": "createResponseMessageToPurchasePost",
      "outputs": [],
      "stateMutability": "nonpayable",
      "type": "function"
    },
    {
      "inputs": [
        {
          "internalType": "uint256",
          "name": "_postKey",
          "type": "uint256"
        }
      ],
      "name": "getPurchasePostByKey",
      "outputs": [
        {
          "components": [
            {
              "internalType": "uint256",
              "name": "priceToBuy",
              "type": "uint256"
            },
            {
              "internalType": "uint256",
              "name": "amountToBuy",
              "type": "uint256"
            },
            {
              "internalType": "address",
              "name": "buyer",
              "type": "address"
            },
            {
              "internalType": "bool",
              "name": "enabled",
              "type": "bool"
            },
            {
              "internalType": "uint256",
              "name": "createdAt",
              "type": "uint256"
            },
            {
              "internalType": "contract PostResponseMessage[]",
              "name": "responseMessages",
              "type": "address[]"
            }
          ],
          "internalType": "struct BeanStructs.PurchasePost",
          "name": "",
          "type": "tuple"
        }
      ],
      "stateMutability": "view",
      "type": "function"
    },
    {
      "inputs": [
        {
          "internalType": "uint256",
          "name": "_purchasePostKey",
          "type": "uint256"
        },
        {
          "internalType": "uint256",
          "name": "_responseMessageIndex",
          "type": "uint256"
        }
      ],
      "name": "handlePurchasePostPostPayment",
      "outputs": [
        {
          "internalType": "string",
          "name": "",
          "type": "string"
        }
      ],
      "stateMutability": "payable",
      "type": "function"
    },
    {
      "inputs": [],
      "name": "purchasePostCounter",
      "outputs": [
        {
          "internalType": "uint256",
          "name": "",
          "type": "uint256"
        }
      ],
      "stateMutability": "view",
      "type": "function"
    },
    {
      "inputs": [],
      "name": "recentAveragePriceforBuy",
      "outputs": [
        {
          "internalType": "string",
          "name": "",
          "type": "string"
        }
      ],
      "stateMutability": "view",
      "type": "function"
    },
    {
      "inputs": [
        {
          "internalType": "address",
          "name": "_account",
          "type": "address"
        }
      ],
      "name": "returnAllPurchasePostsByAddress",
      "outputs": [
        {
          "components": [
            {
              "internalType": "uint256",
              "name": "priceToBuy",
              "type": "uint256"
            },
            {
              "internalType": "uint256",
              "name": "amountToBuy",
              "type": "uint256"
            },
            {
              "internalType": "address",
              "name": "buyer",
              "type": "address"
            },
            {
              "internalType": "bool",
              "name": "enabled",
              "type": "bool"
            },
            {
              "internalType": "uint256",
              "name": "createdAt",
              "type": "uint256"
            },
            {
              "internalType": "contract PostResponseMessage[]",
              "name": "responseMessages",
              "type": "address[]"
            }
          ],
          "internalType": "struct BeanStructs.PurchasePost[]",
          "name": "",
          "type": "tuple[]"
        }
      ],
      "stateMutability": "view",
      "type": "function"
    },
    {
      "inputs": [],
      "name": "returnPurchasePostMapSize",
      "outputs": [
        {
          "internalType": "uint256",
          "name": "",
          "type": "uint256"
        }
      ],
      "stateMutability": "view",
      "type": "function"
    },
    {
      "inputs": [
        {
          "internalType": "uint256",
          "name": "_postKey",
          "type": "uint256"
        }
      ],
      "name": "returnPurchasePostResponseMessagesByKey",
      "outputs": [
        {
          "internalType": "contract PostResponseMessage[]",
          "name": "",
          "type": "address[]"
        }
      ],
      "stateMutability": "view",
      "type": "function"
    },
    {
      "inputs": [],
      "name": "returnRecentAveragePriceforBuy",
      "outputs": [
        {
          "internalType": "string",
          "name": "",
          "type": "string"
        }
      ],
      "stateMutability": "view",
      "type": "function"
    },
    {
      "inputs": [],
      "name": "updateRecentAveragePriceforBuy",
      "outputs": [],
      "stateMutability": "nonpayable",
      "type": "function"
    }
  ],
  "bytecode": "0x6080604052606467ffffffffffffffff811115620000225762000021620001da565b5b604051908082528060200260200182016040528015620000515781602001602082028036833780820191505090505b50600590805190602001906200006992919062000169565b503480156200007757600080fd5b50604051620053303803806200533083398181016040528101906200009d919062000311565b82600760016101000a81548173ffffffffffffffffffffffffffffffffffffffff021916908373ffffffffffffffffffffffffffffffffffffffff16021790555081600860006101000a81548173ffffffffffffffffffffffffffffffffffffffff021916908373ffffffffffffffffffffffffffffffffffffffff16021790555080600960006101000a81548173ffffffffffffffffffffffffffffffffffffffff021916908373ffffffffffffffffffffffffffffffffffffffff1602179055505050506200036d565b828054828255906000526020600020908101928215620001a8579160200282015b82811115620001a75782518255916020019190600101906200018a565b5b509050620001b79190620001bb565b5090565b5b80821115620001d6576000816000905550600101620001bc565b5090565b7f4e487b7100000000000000000000000000000000000000000000000000000000600052604160045260246000fd5b600080fd5b600073ffffffffffffffffffffffffffffffffffffffff82169050919050565b60006200023b826200020e565b9050919050565b60006200024f826200022e565b9050919050565b620002618162000242565b81146200026d57600080fd5b50565b600081519050620002818162000256565b92915050565b600062000294826200022e565b9050919050565b620002a68162000287565b8114620002b257600080fd5b50565b600081519050620002c6816200029b565b92915050565b6000620002d9826200022e565b9050919050565b620002eb81620002cc565b8114620002f757600080fd5b50565b6000815190506200030b81620002e0565b92915050565b6000806000606084860312156200032d576200032c62000209565b5b60006200033d8682870162000270565b93505060206200035086828701620002b5565b92505060406200036386828701620002fa565b9150509250925092565b614fb3806200037d6000396000f3fe608060405260043610620000d45760003560e01c806347f39ced116200008b578063951b3de81162000061578063951b3de814620002b3578063bca73eb214620002e3578063ced8d5301462000311578063d77cf115146200035557620000d4565b806347f39ced1462000211578063620c503a146200022b5780637b7e76b8146200026f57620000d4565b80630aeadded14620000d95780630d9035f514620001075780631488e66014620001375780631b1341c5146200017b5780633d480db514620001ab5780634659d79f14620001e1575b600080fd5b348015620000e657600080fd5b50620001056004803603810190620000ff91906200217d565b62000385565b005b3480156200011457600080fd5b506200011f620006a9565b6040516200012e919062002200565b60405180910390f35b3480156200014457600080fd5b506200016360048036038101906200015d91906200221d565b620006af565b60405162000172919062002200565b60405180910390f35b3480156200018857600080fd5b5062000193620006d4565b604051620001a29190620022e9565b60405180910390f35b620001c96004803603810190620001c391906200230d565b6200076e565b604051620001d89190620022e9565b60405180910390f35b348015620001ee57600080fd5b50620001f962001645565b60405162000208919062002200565b60405180910390f35b3480156200021e57600080fd5b50620002296200164b565b005b3480156200023857600080fd5b506200025760048036038101906200025191906200221d565b62001858565b6040516200026691906200247c565b60405180910390f35b3480156200027c57600080fd5b506200029b6004803603810190620002959190620024a0565b62001944565b604051620002aa9190620026f1565b60405180910390f35b348015620002c057600080fd5b50620002cb62001bf8565b604051620002da919062002200565b60405180910390f35b348015620002f057600080fd5b506200030f600480360381019062000309919062002715565b62001c02565b005b3480156200031e57600080fd5b506200033d60048036038101906200033791906200221d565b62001e8a565b6040516200034c919062002806565b60405180910390f35b3480156200036257600080fd5b506200036d62001fd7565b6040516200037c9190620022e9565b60405180910390f35b60008411620003cb576040517f08c379a0000000000000000000000000000000000000000000000000000000008152600401620003c2906200287a565b60405180910390fd5b6000831162000411576040517f08c379a00000000000000000000000000000000000000000000000000000000081526004016200040890620028ec565b60405180910390fd5b600082101562000458576040517f08c379a00000000000000000000000000000000000000000000000000000000081526004016200044f906200295e565b60405180910390fd5b60008083815260200190815260200160002060020160009054906101000a900473ffffffffffffffffffffffffffffffffffffffff1673ffffffffffffffffffffffffffffffffffffffff168173ffffffffffffffffffffffffffffffffffffffff1603620004fe576040517f08c379a0000000000000000000000000000000000000000000000000000000008152600401620004f590620029f6565b60405180910390fd5b60008060008481526020019081526020016000206004018054905090506000308387876000888760405162000533906200206d565b62000545979695949392919062002a79565b604051809103906000f08015801562000562573d6000803e3d6000fd5b50905080600080868152602001908152602001600020600401600181600181540180825580915050039060005260206000200160006101000a81548173ffffffffffffffffffffffffffffffffffffffff021916908373ffffffffffffffffffffffffffffffffffffffff160217905550600860009054906101000a900473ffffffffffffffffffffffffffffffffffffffff1673ffffffffffffffffffffffffffffffffffffffff166384dc965a84836040518363ffffffff1660e01b81526004016200063292919062002b07565b600060405180830381600087803b1580156200064d57600080fd5b505af115801562000662573d6000803e3d6000fd5b505050507f83c1d63a3e3cd3d3a92a899ed2f341bd373a5326ebf67b9bd646543e55081ebc83826040516200069992919062002b34565b60405180910390a1505050505050565b60065481565b60058181548110620006c057600080fd5b906000526020600020016000915090505481565b606060048054620006e59062002b90565b80601f0160208091040260200160405190810160405280929190818152602001828054620007139062002b90565b8015620007645780601f10620007385761010080835404028352916020019162000764565b820191906000526020600020905b8154815290600101906020018083116200074657829003601f168201915b5050505050905090565b6060600080600085815260200190815260200160002060040183815481106200079c576200079b62002bc5565b5b9060005260206000200160009054906101000a900473ffffffffffffffffffffffffffffffffffffffff1690503373ffffffffffffffffffffffffffffffffffffffff168173ffffffffffffffffffffffffffffffffffffffff16146200083a576040517f08c379a0000000000000000000000000000000000000000000000000000000008152600401620008319062002c90565b60405180910390fd5b600042905060008273ffffffffffffffffffffffffffffffffffffffff1663d67bdd256040518163ffffffff1660e01b8152600401602060405180830381865afa1580156200088d573d6000803e3d6000fd5b505050506040513d601f19601f82011682018060405250810190620008b3919062002cc9565b90508273ffffffffffffffffffffffffffffffffffffffff1663aa8c217c6040518163ffffffff1660e01b8152600401602060405180830381865afa15801562000901573d6000803e3d6000fd5b505050506040513d601f19601f8201168201806040525081019062000927919062002d12565b600860009054906101000a900473ffffffffffffffffffffffffffffffffffffffff1673ffffffffffffffffffffffffffffffffffffffff1663cb8ab15b836040518263ffffffff1660e01b815260040162000984919062002d44565b602060405180830381865afa158015620009a2573d6000803e3d6000fd5b505050506040513d601f19601f82011682018060405250810190620009c8919062002d12565b101562000a0c576040517f08c379a000000000000000000000000000000000000000000000000000000000815260040162000a039062002dd7565b60405180910390fd5b600860009054906101000a900473ffffffffffffffffffffffffffffffffffffffff1673ffffffffffffffffffffffffffffffffffffffff1663e2670971828573ffffffffffffffffffffffffffffffffffffffff1663aa8c217c6040518163ffffffff1660e01b8152600401602060405180830381865afa15801562000a97573d6000803e3d6000fd5b505050506040513d601f19601f8201168201806040525081019062000abd919062002d12565b600860009054906101000a900473ffffffffffffffffffffffffffffffffffffffff1673ffffffffffffffffffffffffffffffffffffffff1663cb8ab15b866040518263ffffffff1660e01b815260040162000b1a919062002d44565b602060405180830381865afa15801562000b38573d6000803e3d6000fd5b505050506040513d601f19601f8201168201806040525081019062000b5e919062002d12565b62000b6a919062002e28565b6040518363ffffffff1660e01b815260040162000b8992919062002e63565b600060405180830381600087803b15801562000ba457600080fd5b505af115801562000bb9573d6000803e3d6000fd5b50505050600760019054906101000a900473ffffffffffffffffffffffffffffffffffffffff1673ffffffffffffffffffffffffffffffffffffffff1663e8b8530f828573ffffffffffffffffffffffffffffffffffffffff1663aa8c217c6040518163ffffffff1660e01b8152600401602060405180830381865afa15801562000c48573d6000803e3d6000fd5b505050506040513d601f19601f8201168201806040525081019062000c6e919062002d12565b6040518363ffffffff1660e01b815260040162000c8d92919062002e63565b600060405180830381600087803b15801562000ca857600080fd5b505af115801562000cbd573d6000803e3d6000fd5b50505050600760019054906101000a900473ffffffffffffffffffffffffffffffffffffffff1673ffffffffffffffffffffffffffffffffffffffff16631e7ba9cd82848673ffffffffffffffffffffffffffffffffffffffff1663aa8c217c6040518163ffffffff1660e01b8152600401602060405180830381865afa15801562000d4d573d6000803e3d6000fd5b505050506040513d601f19601f8201168201806040525081019062000d73919062002d12565b6040518463ffffffff1660e01b815260040162000d939392919062002e90565b600060405180830381600087803b15801562000dae57600080fd5b505af115801562000dc3573d6000803e3d6000fd5b50505050600760019054906101000a900473ffffffffffffffffffffffffffffffffffffffff1673ffffffffffffffffffffffffffffffffffffffff1663e6b02333826001856040518463ffffffff1660e01b815260040162000e299392919062002f10565b600060405180830381600087803b15801562000e4457600080fd5b505af115801562000e59573d6000803e3d6000fd5b50505050600080600088815260200190815260200160002060020160009054906101000a900473ffffffffffffffffffffffffffffffffffffffff169050600860009054906101000a900473ffffffffffffffffffffffffffffffffffffffff1673ffffffffffffffffffffffffffffffffffffffff1663e2670971828673ffffffffffffffffffffffffffffffffffffffff1663aa8c217c6040518163ffffffff1660e01b8152600401602060405180830381865afa15801562000f22573d6000803e3d6000fd5b505050506040513d601f19601f8201168201806040525081019062000f48919062002d12565b600860009054906101000a900473ffffffffffffffffffffffffffffffffffffffff1673ffffffffffffffffffffffffffffffffffffffff1663cb8ab15b866040518263ffffffff1660e01b815260040162000fa5919062002d44565b602060405180830381865afa15801562000fc3573d6000803e3d6000fd5b505050506040513d601f19601f8201168201806040525081019062000fe9919062002d12565b62000ff5919062002f4d565b6040518363ffffffff1660e01b81526004016200101492919062002e63565b600060405180830381600087803b1580156200102f57600080fd5b505af115801562001044573d6000803e3d6000fd5b50505050600760019054906101000a900473ffffffffffffffffffffffffffffffffffffffff1673ffffffffffffffffffffffffffffffffffffffff16633f9b696c828673ffffffffffffffffffffffffffffffffffffffff1663aa8c217c6040518163ffffffff1660e01b8152600401602060405180830381865afa158015620010d3573d6000803e3d6000fd5b505050506040513d601f19601f82011682018060405250810190620010f9919062002d12565b6040518363ffffffff1660e01b81526004016200111892919062002e63565b600060405180830381600087803b1580156200113357600080fd5b505af115801562001148573d6000803e3d6000fd5b50505050600760019054906101000a900473ffffffffffffffffffffffffffffffffffffffff1673ffffffffffffffffffffffffffffffffffffffff16632f0a323e82858773ffffffffffffffffffffffffffffffffffffffff1663aa8c217c6040518163ffffffff1660e01b8152600401602060405180830381865afa158015620011d8573d6000803e3d6000fd5b505050506040513d601f19601f82011682018060405250810190620011fe919062002d12565b6040518463ffffffff1660e01b81526004016200121e9392919062002e90565b600060405180830381600087803b1580156200123957600080fd5b505af11580156200124e573d6000803e3d6000fd5b50505050600760019054906101000a900473ffffffffffffffffffffffffffffffffffffffff1673ffffffffffffffffffffffffffffffffffffffff1663e6b02333826000866040518463ffffffff1660e01b8152600401620012b49392919062002fc1565b600060405180830381600087803b158015620012cf57600080fd5b505af1158015620012e4573d6000803e3d6000fd5b505050508373ffffffffffffffffffffffffffffffffffffffff1663aa8c217c6040518163ffffffff1660e01b8152600401602060405180830381865afa15801562001334573d6000803e3d6000fd5b505050506040513d601f19601f820116820180604052508101906200135a919062002d12565b600080898152602001908152602001600020600101541015620013b4576040517f08c379a0000000000000000000000000000000000000000000000000000000008152600401620013ab906200309a565b60405180910390fd5b8373ffffffffffffffffffffffffffffffffffffffff1663aa8c217c6040518163ffffffff1660e01b8152600401602060405180830381865afa15801562001400573d6000803e3d6000fd5b505050506040513d601f19601f8201168201806040525081019062001426919062002d12565b60008089815260200190815260200160002060010160008282546200144c919062002e28565b9250508190555060008060008981526020019081526020016000206001015403620014a057600080600089815260200190815260200160002060020160146101000a81548160ff0219169083151502179055505b606460065403620014cf576001600760006101000a81548160ff02191690831515021790555060006006819055505b8373ffffffffffffffffffffffffffffffffffffffff1663a03a202e6040518163ffffffff1660e01b8152600401602060405180830381865afa1580156200151b573d6000803e3d6000fd5b505050506040513d601f19601f8201168201806040525081019062001541919062002d12565b6005600660008154809291906200155890620030bc565b919050558154811062001570576200156f62002bc5565b5b90600052602060002001819055508173ffffffffffffffffffffffffffffffffffffffff166108fc349081150290604051600060405180830381858888f19350505050158015620015c5573d6000803e3d6000fd5b507faa5ef240d12945dacdcfd9ecc9a86ba7fa61f117ef9e9626465aa252e6dd5b66348886604051620015fb9392919062003109565b60405180910390a16040518060400160405280600781526020017f737563636573730000000000000000000000000000000000000000000000000081525094505050505092915050565b60035481565b6000805b600580549050811015620016a4576005818154811062001674576200167362002bc5565b5b9060005260206000200154826200168c919062002f4d565b915080806200169b90620030bc565b9150506200164f565b50600760009054906101000a900460ff16156200178a57600960009054906101000a900473ffffffffffffffffffffffffffffffffffffffff1673ffffffffffffffffffffffffffffffffffffffff16632336b59160038360646040518463ffffffff1660e01b81526004016200171e93929190620031cc565b600060405180830381865afa1580156200173c573d6000803e3d6000fd5b505050506040513d6000823e3d601f19601f820116820180604052508101906200176791906200334b565b9091509050600460008291905090816200178291906200358e565b505062001855565b600960009054906101000a900473ffffffffffffffffffffffffffffffffffffffff1673ffffffffffffffffffffffffffffffffffffffff16632336b5916003836006546040518463ffffffff1660e01b8152600401620017ee9392919062003675565b600060405180830381865afa1580156200180c573d6000803e3d6000fd5b505050506040513d6000823e3d601f19601f820116820180604052508101906200183791906200334b565b9091509050600460008291905090816200185291906200358e565b50505b50565b60606000821015620018a1576040517f08c379a000000000000000000000000000000000000000000000000000000000815260040162001898906200295e565b60405180910390fd5b6000808381526020019081526020016000206004018054806020026020016040519081016040528092919081815260200182805480156200193857602002820191906000526020600020905b8160009054906101000a900473ffffffffffffffffffffffffffffffffffffffff1673ffffffffffffffffffffffffffffffffffffffff1681526020019060010190808311620018ed575b50505050509050919050565b60606000600860009054906101000a900473ffffffffffffffffffffffffffffffffffffffff1673ffffffffffffffffffffffffffffffffffffffff1663ebe0b877846040518263ffffffff1660e01b8152600401620019a5919062002d44565b600060405180830381865afa158015620019c3573d6000803e3d6000fd5b505050506040513d6000823e3d601f19601f82011682018060405250810190620019ee91906200378d565b90506000815167ffffffffffffffff81111562001a105762001a0f62003213565b5b60405190808252806020026020018201604052801562001a4d57816020015b62001a396200207b565b81526020019060019003908162001a2f5790505b50905060005b825181101562001bed5760008084838151811062001a765762001a7562002bc5565b5b602002602001015181526020019081526020016000206040518060c001604052908160008201548152602001600182015481526020016002820160009054906101000a900473ffffffffffffffffffffffffffffffffffffffff1673ffffffffffffffffffffffffffffffffffffffff1673ffffffffffffffffffffffffffffffffffffffff1681526020016002820160149054906101000a900460ff16151515158152602001600382015481526020016004820180548060200260200160405190810160405280929190818152602001828054801562001bad57602002820191906000526020600020905b8160009054906101000a900473ffffffffffffffffffffffffffffffffffffffff1673ffffffffffffffffffffffffffffffffffffffff168152602001906001019080831162001b62575b50505050508152505082828151811062001bcc5762001bcb62002bc5565b5b6020026020010181905250808062001be490620030bc565b91505062001a53565b508092505050919050565b6000600354905090565b6000831162001c48576040517f08c379a000000000000000000000000000000000000000000000000000000000815260040162001c3f9062003854565b60405180910390fd5b6000821162001c8e576040517f08c379a000000000000000000000000000000000000000000000000000000000815260040162001c8590620038ec565b60405180910390fd5b826000806003548152602001908152602001600020600001819055508160008060035481526020019081526020016000206001018190555080600080600354815260200190815260200160002060020160006101000a81548173ffffffffffffffffffffffffffffffffffffffff021916908373ffffffffffffffffffffffffffffffffffffffff1602179055506001600080600354815260200190815260200160002060020160146101000a81548160ff021916908315150217905550426000806003548152602001908152602001600020600301819055506001806000600354815260200190815260200160002060006101000a81548160ff021916908315150217905550600860009054906101000a900473ffffffffffffffffffffffffffffffffffffffff1673ffffffffffffffffffffffffffffffffffffffff1663f03b5e9d826003546040518363ffffffff1660e01b815260040162001df692919062002e63565b600060405180830381600087803b15801562001e1157600080fd5b505af115801562001e26573d6000803e3d6000fd5b505050507fb327665b1bbfd6560701e012c966f02c9abe3e3b1afa5c084bfa31ed1e70107181600354858560405162001e6394939291906200390e565b60405180910390a16003600081548092919062001e8090620030bc565b9190505550505050565b62001e946200207b565b6000808381526020019081526020016000206040518060c001604052908160008201548152602001600182015481526020016002820160009054906101000a900473ffffffffffffffffffffffffffffffffffffffff1673ffffffffffffffffffffffffffffffffffffffff1673ffffffffffffffffffffffffffffffffffffffff1681526020016002820160149054906101000a900460ff16151515158152602001600382015481526020016004820180548060200260200160405190810160405280929190818152602001828054801562001fc757602002820191906000526020600020905b8160009054906101000a900473ffffffffffffffffffffffffffffffffffffffff1673ffffffffffffffffffffffffffffffffffffffff168152602001906001019080831162001f7c575b5050505050815250509050919050565b6004805462001fe69062002b90565b80601f0160208091040260200160405190810160405280929190818152602001828054620020149062002b90565b8015620020655780601f10620020395761010080835404028352916020019162002065565b820191906000526020600020905b8154815290600101906020018083116200204757829003601f168201915b505050505081565b611622806200395c83390190565b6040518060c001604052806000815260200160008152602001600073ffffffffffffffffffffffffffffffffffffffff16815260200160001515815260200160008152602001606081525090565b6000604051905090565b600080fd5b600080fd5b6000819050919050565b620020f281620020dd565b8114620020fe57600080fd5b50565b6000813590506200211281620020e7565b92915050565b600073ffffffffffffffffffffffffffffffffffffffff82169050919050565b6000620021458262002118565b9050919050565b620021578162002138565b81146200216357600080fd5b50565b60008135905062002177816200214c565b92915050565b600080600080608085870312156200219a5762002199620020d3565b5b6000620021aa8782880162002101565b9450506020620021bd8782880162002101565b9350506040620021d08782880162002101565b9250506060620021e38782880162002166565b91505092959194509250565b620021fa81620020dd565b82525050565b6000602082019050620022176000830184620021ef565b92915050565b600060208284031215620022365762002235620020d3565b5b6000620022468482850162002101565b91505092915050565b600081519050919050565b600082825260208201905092915050565b60005b838110156200228b5780820151818401526020810190506200226e565b60008484015250505050565b6000601f19601f8301169050919050565b6000620022b5826200224f565b620022c181856200225a565b9350620022d38185602086016200226b565b620022de8162002297565b840191505092915050565b60006020820190508181036000830152620023058184620022a8565b905092915050565b60008060408385031215620023275762002326620020d3565b5b6000620023378582860162002101565b92505060206200234a8582860162002101565b9150509250929050565b600081519050919050565b600082825260208201905092915050565b6000819050602082019050919050565b6000819050919050565b6000620023ab620023a56200239f8462002118565b62002380565b62002118565b9050919050565b6000620023bf826200238a565b9050919050565b6000620023d382620023b2565b9050919050565b620023e581620023c6565b82525050565b6000620023f98383620023da565b60208301905092915050565b6000602082019050919050565b60006200241f8262002354565b6200242b81856200235f565b9350620024388362002370565b8060005b838110156200246f578151620024538882620023eb565b9750620024608362002405565b9250506001810190506200243c565b5085935050505092915050565b6000602082019050818103600083015262002498818462002412565b905092915050565b600060208284031215620024b957620024b8620020d3565b5b6000620024c98482850162002166565b91505092915050565b600081519050919050565b600082825260208201905092915050565b6000819050602082019050919050565b6200250981620020dd565b82525050565b6200251a8162002138565b82525050565b60008115159050919050565b620025378162002520565b82525050565b600082825260208201905092915050565b60006200255b8262002354565b6200256781856200253d565b9350620025748362002370565b8060005b83811015620025ab5781516200258f8882620023eb565b97506200259c8362002405565b92505060018101905062002578565b5085935050505092915050565b600060c083016000830151620025d26000860182620024fe565b506020830151620025e76020860182620024fe565b506040830151620025fc60408601826200250f565b5060608301516200261160608601826200252c565b506080830151620026266080860182620024fe565b5060a083015184820360a08601526200264082826200254e565b9150508091505092915050565b60006200265b8383620025b8565b905092915050565b6000602082019050919050565b60006200267d82620024d2565b620026898185620024dd565b9350836020820285016200269d85620024ee565b8060005b85811015620026df5784840389528151620026bd85826200264d565b9450620026ca8362002663565b925060208a01995050600181019050620026a1565b50829750879550505050505092915050565b600060208201905081810360008301526200270d818462002670565b905092915050565b600080600060608486031215620027315762002730620020d3565b5b6000620027418682870162002101565b9350506020620027548682870162002101565b9250506040620027678682870162002166565b9150509250925092565b600060c0830160008301516200278b6000860182620024fe565b506020830151620027a06020860182620024fe565b506040830151620027b560408601826200250f565b506060830151620027ca60608601826200252c565b506080830151620027df6080860182620024fe565b5060a083015184820360a0860152620027f982826200254e565b9150508091505092915050565b6000602082019050818103600083015262002822818462002771565b905092915050565b7f616d6f756e74206d7573742062652067726561746572207468616e2030000000600082015250565b600062002862601d836200225a565b91506200286f826200282a565b602082019050919050565b60006020820190508181036000830152620028958162002853565b9050919050565b7f71756f746174696f6e206d7573742062652067726561746572207468616e2030600082015250565b6000620028d46020836200225a565b9150620028e1826200289c565b602082019050919050565b600060208201905081810360008301526200290781620028c5565b9050919050565b7f706f7374206b6579207374617274732066726f6d203000000000000000000000600082015250565b6000620029466016836200225a565b915062002953826200290e565b602082019050919050565b60006020820190508181036000830152620029798162002937565b9050919050565b7f596f752063616e6e6f74207265706c7920746f20796f7572206f776e2070757260008201527f636861736520706f737400000000000000000000000000000000000000000000602082015250565b6000620029de602a836200225a565b9150620029eb8262002980565b604082019050919050565b6000602082019050818103600083015262002a1181620029cf565b9050919050565b62002a238162002138565b82525050565b6000819050919050565b600060ff82169050919050565b600062002a6162002a5b62002a558462002a29565b62002380565b62002a33565b9050919050565b62002a738162002a40565b82525050565b600060e08201905062002a90600083018a62002a18565b62002a9f602083018962002a18565b62002aae6040830188620021ef565b62002abd6060830187620021ef565b62002acc608083018662002a68565b62002adb60a0830185620021ef565b62002aea60c0830184620021ef565b98975050505050505050565b62002b0181620023c6565b82525050565b600060408201905062002b1e600083018562002a18565b62002b2d602083018462002af6565b9392505050565b600060408201905062002b4b600083018562002a18565b62002b5a602083018462002a18565b9392505050565b7f4e487b7100000000000000000000000000000000000000000000000000000000600052602260045260246000fd5b6000600282049050600182168062002ba957607f821691505b60208210810362002bbf5762002bbe62002b61565b5b50919050565b7f4e487b7100000000000000000000000000000000000000000000000000000000600052603260045260246000fd5b7f6d6573736167652073656e6465722073686f756c64206f6e6c7920626520746860008201527f6520726573706f6e7365206d657373616765207468617420747269676765727360208201527f207061796d656e742070726f6365737300000000000000000000000000000000604082015250565b600062002c786050836200225a565b915062002c858262002bf4565b606082019050919050565b6000602082019050818103600083015262002cab8162002c69565b9050919050565b60008151905062002cc3816200214c565b92915050565b60006020828403121562002ce25762002ce1620020d3565b5b600062002cf28482850162002cb2565b91505092915050565b60008151905062002d0c81620020e7565b92915050565b60006020828403121562002d2b5762002d2a620020d3565b5b600062002d3b8482850162002cfb565b91505092915050565b600060208201905062002d5b600083018462002a18565b92915050565b7f496e73756666696369656e7420656c65637472696369747920756e697473206960008201527f6e206163636f756e740000000000000000000000000000000000000000000000602082015250565b600062002dbf6029836200225a565b915062002dcc8262002d61565b604082019050919050565b6000602082019050818103600083015262002df28162002db0565b9050919050565b7f4e487b7100000000000000000000000000000000000000000000000000000000600052601160045260246000fd5b600062002e3582620020dd565b915062002e4283620020dd565b925082820390508181111562002e5d5762002e5c62002df9565b5b92915050565b600060408201905062002e7a600083018562002a18565b62002e896020830184620021ef565b9392505050565b600060608201905062002ea7600083018662002a18565b62002eb66020830185620021ef565b62002ec56040830184620021ef565b949350505050565b6000819050919050565b600062002ef862002ef262002eec8462002ecd565b62002380565b620020dd565b9050919050565b62002f0a8162002ed7565b82525050565b600060608201905062002f27600083018662002a18565b62002f36602083018562002eff565b62002f456040830184620021ef565b949350505050565b600062002f5a82620020dd565b915062002f6783620020dd565b925082820190508082111562002f825762002f8162002df9565b5b92915050565b600062002fa962002fa362002f9d8462002a29565b62002380565b620020dd565b9050919050565b62002fbb8162002f88565b82525050565b600060608201905062002fd8600083018662002a18565b62002fe7602083018562002fb0565b62002ff66040830184620021ef565b949350505050565b7f5468652073616c6573207175616e746974792073686f756c64206265206c657360008201527f73207468616e206f7220657175616c20746f207468652070757263686173652060208201527f64656d616e640000000000000000000000000000000000000000000000000000604082015250565b6000620030826046836200225a565b91506200308f8262002ffe565b606082019050919050565b60006020820190508181036000830152620030b58162003073565b9050919050565b6000620030c982620020dd565b91507fffffffffffffffffffffffffffffffffffffffffffffffffffffffffffffffff8203620030fe57620030fd62002df9565b5b600182019050919050565b6000606082019050620031206000830186620021ef565b6200312f6020830185620021ef565b6200313e604083018462002a18565b949350505050565b6000819050919050565b6000620031716200316b620031658462003146565b62002380565b620020dd565b9050919050565b620031838162003150565b82525050565b6000819050919050565b6000620031b4620031ae620031a88462003189565b62002380565b620020dd565b9050919050565b620031c68162003193565b82525050565b6000606082019050620031e3600083018662003178565b620031f26020830185620021ef565b620032016040830184620031bb565b949350505050565b600080fd5b600080fd5b7f4e487b7100000000000000000000000000000000000000000000000000000000600052604160045260246000fd5b6200324d8262002297565b810181811067ffffffffffffffff821117156200326f576200326e62003213565b5b80604052505050565b600062003284620020c9565b905062003292828262003242565b919050565b600067ffffffffffffffff821115620032b557620032b462003213565b5b620032c08262002297565b9050602081019050919050565b6000620032e4620032de8462003297565b62003278565b9050828152602081018484840111156200330357620033026200320e565b5b620033108482856200226b565b509392505050565b600082601f83011262003330576200332f62003209565b5b815162003342848260208601620032cd565b91505092915050565b600080600060608486031215620033675762003366620020d3565b5b6000620033778682870162002cfb565b93505060206200338a8682870162002cfb565b925050604084015167ffffffffffffffff811115620033ae57620033ad620020d8565b5b620033bc8682870162003318565b9150509250925092565b60008190508160005260206000209050919050565b60006020601f8301049050919050565b600082821b905092915050565b6000600883026200342a7fffffffffffffffffffffffffffffffffffffffffffffffffffffffffffffffff82620033eb565b620034368683620033eb565b95508019841693508086168417925050509392505050565b60006200346f620034696200346384620020dd565b62002380565b620020dd565b9050919050565b6000819050919050565b6200348b836200344e565b620034a36200349a8262003476565b848454620033f8565b825550505050565b600090565b620034ba620034ab565b620034c781848462003480565b505050565b5b81811015620034ef57620034e3600082620034b0565b600181019050620034cd565b5050565b601f8211156200353e576200350881620033c6565b6200351384620033db565b8101602085101562003523578190505b6200353b6200353285620033db565b830182620034cc565b50505b505050565b600082821c905092915050565b6000620035636000198460080262003543565b1980831691505092915050565b60006200357e838362003550565b9150826002028217905092915050565b62003599826200224f565b67ffffffffffffffff811115620035b557620035b462003213565b5b620035c1825462002b90565b620035ce828285620034f3565b600060209050601f831160018114620036065760008415620035f1578287015190505b620035fd858262003570565b8655506200366d565b601f1984166200361686620033c6565b60005b82811015620036405784890151825560018201915060208501945060208101905062003619565b868310156200366057848901516200365c601f89168262003550565b8355505b6001600288020188555050505b505050505050565b60006060820190506200368c600083018662003178565b6200369b6020830185620021ef565b620036aa6040830184620021ef565b949350505050565b600067ffffffffffffffff821115620036d057620036cf62003213565b5b602082029050602081019050919050565b600080fd5b6000620036fd620036f784620036b2565b62003278565b90508083825260208201905060208402830185811115620037235762003722620036e1565b5b835b818110156200375057806200373b888262002cfb565b84526020840193505060208101905062003725565b5050509392505050565b600082601f83011262003772576200377162003209565b5b815162003784848260208601620036e6565b91505092915050565b600060208284031215620037a657620037a5620020d3565b5b600082015167ffffffffffffffff811115620037c757620037c6620020d8565b5b620037d5848285016200375a565b91505092915050565b7f7075726368617365207072696365206d7573742062652067726561746572207460008201527f68616e2030000000000000000000000000000000000000000000000000000000602082015250565b60006200383c6025836200225a565b91506200384982620037de565b604082019050919050565b600060208201905081810360008301526200386f816200382d565b9050919050565b7f616d6f756e7420746f20627579206d757374206265206772656174657220746860008201527f616e203000000000000000000000000000000000000000000000000000000000602082015250565b6000620038d46024836200225a565b9150620038e18262003876565b604082019050919050565b600060208201905081810360008301526200390781620038c5565b9050919050565b600060808201905062003925600083018762002a18565b620039346020830186620021ef565b620039436040830185620021ef565b620039526060830184620021ef565b9594505050505056fe60806040523480156200001157600080fd5b50604051620016223803806200162283398181016040528101906200003791906200021c565b86600860006101000a81548173ffffffffffffffffffffffffffffffffffffffff021916908373ffffffffffffffffffffffffffffffffffffffff160217905550856000806101000a81548173ffffffffffffffffffffffffffffffffffffffff021916908373ffffffffffffffffffffffffffffffffffffffff160217905550846001819055508360028190555082600360006101000a81548160ff021916908360ff16021790555081600481905550806005819055506000600660006101000a81548160ff0219169083151502179055506000600660016101000a81548160ff0219169083151502179055504260078190555050505050505050620002cf565b600080fd5b600073ffffffffffffffffffffffffffffffffffffffff82169050919050565b60006200016b826200013e565b9050919050565b6200017d816200015e565b81146200018957600080fd5b50565b6000815190506200019d8162000172565b92915050565b6000819050919050565b620001b881620001a3565b8114620001c457600080fd5b50565b600081519050620001d881620001ad565b92915050565b600060ff82169050919050565b620001f681620001de565b81146200020257600080fd5b50565b6000815190506200021681620001eb565b92915050565b600080600080600080600060e0888a0312156200023e576200023d62000139565b5b60006200024e8a828b016200018c565b9750506020620002618a828b016200018c565b9650506040620002748a828b01620001c7565b9550506060620002878a828b01620001c7565b94505060806200029a8a828b0162000205565b93505060a0620002ad8a828b01620001c7565b92505060c0620002c08a828b01620001c7565b91505092959891949750929550565b61134380620002df6000396000f3fe6080604052600436106100c65760003560e01c806382fa096a1161007f578063abf4d6c411610059578063abf4d6c414610424578063c32b9b531461042e578063cf09e0d014610438578063d67bdd25146104635761029e565b806382fa096a146103a3578063a03a202e146103ce578063aa8c217c146103f95761029e565b806304dc4cda146102a3578063209ebc08146102ce5780633013aa25146102f95780633d855485146103225780633e784e631461034d5780635051a5ec146103785761029e565b3661029e576000341161010e576040517f08c379a000000000000000000000000000000000000000000000000000000000815260040161010590610b63565b60405180910390fd5b60011515600660009054906101000a900460ff16151514610164576040517f08c379a000000000000000000000000000000000000000000000000000000000815260040161015b90610bf5565b60405180910390fd5b346002546001546101759190610c4e565b146101b5576040517f08c379a00000000000000000000000000000000000000000000000000000000081526004016101ac90610cdc565b60405180910390fd5b60001515600660019054906101000a900460ff1615151461020b576040517f08c379a000000000000000000000000000000000000000000000000000000000815260040161020290610d48565b60405180910390fd5b6000600360009054906101000a900460ff1660ff16036102325761022d61048e565b61029c565b6001600360009054906101000a900460ff1660ff16036102595761025461069d565b61029b565b600061029a576040517f08c379a000000000000000000000000000000000000000000000000000000000815260040161029190610db4565b60405180910390fd5b5b5b005b600080fd5b3480156102af57600080fd5b506102b86108ac565b6040516102c59190610df0565b60405180910390f35b3480156102da57600080fd5b506102e36108bf565b6040516102f09190610e26565b60405180910390f35b34801561030557600080fd5b50610320600480360381019061031b9190610e72565b6108d2565b005b34801561032e57600080fd5b5061033761093d565b6040516103449190610eae565b60405180910390f35b34801561035957600080fd5b50610362610943565b60405161036f9190610eae565b60405180910390f35b34801561038457600080fd5b5061038d610949565b60405161039a9190610e26565b60405180910390f35b3480156103af57600080fd5b506103b861095c565b6040516103c59190610fee565b60405180910390f35b3480156103da57600080fd5b506103e3610a67565b6040516103f09190610eae565b60405180910390f35b34801561040557600080fd5b5061040e610a6d565b60405161041b9190610eae565b60405180910390f35b61042c61048e565b005b61043661069d565b005b34801561044457600080fd5b5061044d610a73565b60405161045a9190610eae565b60405180910390f35b34801561046f57600080fd5b50610478610a79565b6040516104859190611019565b60405180910390f35b60008054906101000a900473ffffffffffffffffffffffffffffffffffffffff1673ffffffffffffffffffffffffffffffffffffffff163373ffffffffffffffffffffffffffffffffffffffff160361051c576040517f08c379a0000000000000000000000000000000000000000000000000000000008152600401610513906110a6565b60405180910390fd5b6000600860009054906101000a900473ffffffffffffffffffffffffffffffffffffffff1673ffffffffffffffffffffffffffffffffffffffff163460045460055460405160240161056f9291906110c6565b6040516020818303038152906040527f3d480db5000000000000000000000000000000000000000000000000000000007bffffffffffffffffffffffffffffffffffffffffffffffffffffffff19166020820180517bffffffffffffffffffffffffffffffffffffffffffffffffffffffff83818316178352505050506040516105f99190611160565b60006040518083038185875af1925050503d8060008114610636576040519150601f19603f3d011682016040523d82523d6000602084013e61063b565b606091505b505090508061067f576040517f08c379a0000000000000000000000000000000000000000000000000000000008152600401610676906111c3565b60405180910390fd5b6001600660016101000a81548160ff02191690831515021790555050565b60008054906101000a900473ffffffffffffffffffffffffffffffffffffffff1673ffffffffffffffffffffffffffffffffffffffff163373ffffffffffffffffffffffffffffffffffffffff161461072b576040517f08c379a00000000000000000000000000000000000000000000000000000000081526004016107229061127b565b60405180910390fd5b6000600860009054906101000a900473ffffffffffffffffffffffffffffffffffffffff1673ffffffffffffffffffffffffffffffffffffffff163460045460055460405160240161077e9291906110c6565b6040516020818303038152906040527f0876290a000000000000000000000000000000000000000000000000000000007bffffffffffffffffffffffffffffffffffffffffffffffffffffffff19166020820180517bffffffffffffffffffffffffffffffffffffffffffffffffffffffff83818316178352505050506040516108089190611160565b60006040518083038185875af1925050503d8060008114610845576040519150601f19603f3d011682016040523d82523d6000602084013e61084a565b606091505b505090508061088e576040517f08c379a0000000000000000000000000000000000000000000000000000000008152600401610885906111c3565b60405180910390fd5b6001600660016101000a81548160ff02191690831515021790555050565b600360009054906101000a900460ff1681565b600660019054906101000a900460ff1681565b80600660006101000a81548160ff0219169083151502179055507f9161e5ec70df4a8ef9f6085e3435135f3da64c7ec32c271912e1ca8d4afbd7c3600360009054906101000a900460ff16600454600554604051610932939291906112d6565b60405180910390a150565b60045481565b60055481565b600660009054906101000a900460ff1681565b610964610a9d565b61096c610a9d565b60008054906101000a900473ffffffffffffffffffffffffffffffffffffffff16816000019073ffffffffffffffffffffffffffffffffffffffff16908173ffffffffffffffffffffffffffffffffffffffff1681525050600154816020018181525050600254816040018181525050600360009054906101000a900460ff16816060019060ff16908160ff16815250506004548160800181815250506005548160a0018181525050600660009054906101000a900460ff168160c0019015159081151581525050600660019054906101000a900460ff168160e0019015159081151581525050600754816101000181815250508091505090565b60025481565b60015481565b60075481565b60008054906101000a900473ffffffffffffffffffffffffffffffffffffffff1681565b604051806101200160405280600073ffffffffffffffffffffffffffffffffffffffff1681526020016000815260200160008152602001600060ff1681526020016000815260200160008152602001600015158152602001600015158152602001600081525090565b600082825260208201905092915050565b7f696e76616c6964207061796d656e740000000000000000000000000000000000600082015250565b6000610b4d600f83610b06565b9150610b5882610b17565b602082019050919050565b60006020820190508181036000830152610b7c81610b40565b9050919050565b7f796f757220726573706f6e736520686173206e6f74206265656e20616363657060008201527f7465642062792073656c6c657220796574000000000000000000000000000000602082015250565b6000610bdf603183610b06565b9150610bea82610b83565b604082019050919050565b60006020820190508181036000830152610c0e81610bd2565b9050919050565b6000819050919050565b7f4e487b7100000000000000000000000000000000000000000000000000000000600052601160045260246000fd5b6000610c5982610c15565b9150610c6483610c15565b9250828202610c7281610c15565b91508282048414831517610c8957610c88610c1f565b5b5092915050565b7f4e6f742066756c6c792070616964207965740000000000000000000000000000600082015250565b6000610cc6601283610b06565b9150610cd182610c90565b602082019050919050565b60006020820190508181036000830152610cf581610cb9565b9050919050565b7f4f7264657220697320616c726561647920706169642100000000000000000000600082015250565b6000610d32601683610b06565b9150610d3d82610cfc565b602082019050919050565b60006020820190508181036000830152610d6181610d25565b9050919050565b7f696e76616c696420726573706f6e7365206d6573736167652074797065000000600082015250565b6000610d9e601d83610b06565b9150610da982610d68565b602082019050919050565b60006020820190508181036000830152610dcd81610d91565b9050919050565b600060ff82169050919050565b610dea81610dd4565b82525050565b6000602082019050610e056000830184610de1565b92915050565b60008115159050919050565b610e2081610e0b565b82525050565b6000602082019050610e3b6000830184610e17565b92915050565b600080fd5b610e4f81610e0b565b8114610e5a57600080fd5b50565b600081359050610e6c81610e46565b92915050565b600060208284031215610e8857610e87610e41565b5b6000610e9684828501610e5d565b91505092915050565b610ea881610c15565b82525050565b6000602082019050610ec36000830184610e9f565b92915050565b600073ffffffffffffffffffffffffffffffffffffffff82169050919050565b6000610ef482610ec9565b9050919050565b610f0481610ee9565b82525050565b610f1381610c15565b82525050565b610f2281610dd4565b82525050565b610f3181610e0b565b82525050565b61012082016000820151610f4e6000850182610efb565b506020820151610f616020850182610f0a565b506040820151610f746040850182610f0a565b506060820151610f876060850182610f19565b506080820151610f9a6080850182610f0a565b5060a0820151610fad60a0850182610f0a565b5060c0820151610fc060c0850182610f28565b5060e0820151610fd360e0850182610f28565b50610100820151610fe8610100850182610f0a565b50505050565b6000610120820190506110046000830184610f37565b92915050565b61101381610ee9565b82525050565b600060208201905061102e600083018461100a565b92915050565b7f596f752063616e6e6f74206d616b652061207061796d656e7420746f20796f7560008201527f72206f776e2073656c6c696e6720726573706f6e7365206d6573736167650000602082015250565b6000611090603e83610b06565b915061109b82611034565b604082019050919050565b600060208201905081810360008301526110bf81611083565b9050919050565b60006040820190506110db6000830185610e9f565b6110e86020830184610e9f565b9392505050565b600081519050919050565b600081905092915050565b60005b83811015611123578082015181840152602081019050611108565b60008484015250505050565b600061113a826110ef565b61114481856110fa565b9350611154818560208601611105565b80840191505092915050565b600061116c828461112f565b915081905092915050565b7f7061796d656e74206661696c6564000000000000000000000000000000000000600082015250565b60006111ad600e83610b06565b91506111b882611177565b602082019050919050565b600060208201905081810360008301526111dc816111a0565b9050919050565b7f4f6e6c7920746865206d6573736167652073656e6465722077686f2073656e7460008201527f207468697320726573706f6e736520746f206163717569726520656c6563747260208201527f696369747920756e6974732063616e206d616b652061207061796d656e740000604082015250565b6000611265605e83610b06565b9150611270826111e3565b606082019050919050565b6000602082019050818103600083015261129481611258565b9050919050565b6000819050919050565b60006112c06112bb6112b684610dd4565b61129b565b610c15565b9050919050565b6112d0816112a5565b82525050565b60006060820190506112eb60008301866112c7565b6112f86020830185610e9f565b6113056040830184610e9f565b94935050505056fea26469706673582212204bd04fa32a08615cb56cf713a47107ee40715beadf1b959304a93e8debda1b4e64736f6c63430008110033a26469706673582212209f1d1ec6884001d220a598e42e3df172409903bdd0360e4d384aa2dc9fc426fb64736f6c63430008110033",
  "linkReferences": {},
  "deployedLinkReferences": {}
}