{
  "_format": "hh-sol-artifact-1",
  "contractName": "StatisticsService",
  "sourceName": "contracts/StatisticsService.sol",
  "abi": [
    {
      "inputs": [],
      "stateMutability": "nonpayable",
      "type": "constructor"
    },
    {
      "inputs": [
        {
          "internalType": "address",
          "name": "_user",
          "type": "address"
        },
        {
          "internalType": "uint256",
          "name": "_transactionTime",
          "type": "uint256"
        },
        {
          "internalType": "uint256",
          "name": "_transactionAmount",
          "type": "uint256"
        }
      ],
      "name": "addOneElectricBuyTransaction",
      "outputs": [],
      "stateMutability": "nonpayable",
      "type": "function"
    },
    {
      "inputs": [
        {
          "internalType": "address",
          "name": "_user",
          "type": "address"
        },
        {
          "internalType": "uint256",
          "name": "_transactionTime",
          "type": "uint256"
        },
        {
          "internalType": "uint256",
          "name": "_transactionAmount",
          "type": "uint256"
        }
      ],
      "name": "addOneElectricSellTransaction",
      "outputs": [],
      "stateMutability": "nonpayable",
      "type": "function"
    },
    {
      "inputs": [
        {
          "internalType": "address",
          "name": "_user",
          "type": "address"
        },
        {
          "internalType": "uint256",
          "name": "_transactionType",
          "type": "uint256"
        },
        {
          "internalType": "uint256",
          "name": "_transactionTime",
          "type": "uint256"
        }
      ],
      "name": "addTransactionToSequenceMap",
      "outputs": [],
      "stateMutability": "nonpayable",
      "type": "function"
    },
    {
      "inputs": [
        {
          "internalType": "address",
          "name": "_account",
          "type": "address"
        }
      ],
      "name": "returnRecentTransactions",
      "outputs": [
        {
          "components": [
            {
              "internalType": "uint256",
              "name": "createdAt",
              "type": "uint256"
            },
            {
              "internalType": "uint256",
              "name": "transactionType",
              "type": "uint256"
            },
            {
              "internalType": "uint256",
              "name": "transactionValue",
              "type": "uint256"
            }
          ],
          "internalType": "struct BeanStructs.TransactionBean[]",
          "name": "",
          "type": "tuple[]"
        }
      ],
      "stateMutability": "view",
      "type": "function"
    },
    {
      "inputs": [
        {
          "internalType": "address",
          "name": "_accountAdress",
          "type": "address"
        }
      ],
      "name": "returnTotalBuyByAddress",
      "outputs": [
        {
          "internalType": "uint256",
          "name": "",
          "type": "uint256"
        }
      ],
      "stateMutability": "view",
      "type": "function"
    },
    {
      "inputs": [
        {
          "internalType": "address",
          "name": "_accountAdress",
          "type": "address"
        }
      ],
      "name": "returnTotalSellByAddress",
      "outputs": [
        {
          "internalType": "uint256",
          "name": "",
          "type": "uint256"
        }
      ],
      "stateMutability": "view",
      "type": "function"
    },
    {
      "inputs": [
        {
          "internalType": "address",
          "name": "_user",
          "type": "address"
        },
        {
          "internalType": "uint256",
          "name": "_prevWeekNum",
          "type": "uint256"
        },
        {
          "internalType": "uint8",
          "name": "_txType",
          "type": "uint8"
        }
      ],
      "name": "returnWeeklyStatistics",
      "outputs": [
        {
          "internalType": "uint256[]",
          "name": "",
          "type": "uint256[]"
        }
      ],
      "stateMutability": "view",
      "type": "function"
    },
    {
      "inputs": [
        {
          "internalType": "address",
          "name": "_user",
          "type": "address"
        },
        {
          "internalType": "uint256",
          "name": "_prevWeekNum",
          "type": "uint256"
        },
        {
          "internalType": "uint8",
          "name": "_txType",
          "type": "uint8"
        }
      ],
      "name": "returnWeeklyTotalBuyOrSell",
      "outputs": [
        {
          "internalType": "uint256",
          "name": "",
          "type": "uint256"
        }
      ],
      "stateMutability": "view",
      "type": "function"
    },
    {
      "inputs": [
        {
          "internalType": "address",
          "name": "_user",
          "type": "address"
        },
        {
          "internalType": "uint256",
          "name": "_addVal",
          "type": "uint256"
        }
      ],
      "name": "updateTotalBuy",
      "outputs": [],
      "stateMutability": "nonpayable",
      "type": "function"
    },
    {
      "inputs": [
        {
          "internalType": "address",
          "name": "_user",
          "type": "address"
        },
        {
          "internalType": "uint256",
          "name": "_addVal",
          "type": "uint256"
        }
      ],
      "name": "updateTotalSell",
      "outputs": [],
      "stateMutability": "nonpayable",
      "type": "function"
    },
    {
      "inputs": [
        {
          "internalType": "address",
          "name": "",
          "type": "address"
        }
      ],
      "name": "userStatisticsMap",
      "outputs": [
        {
          "internalType": "uint256",
          "name": "totalBuy",
          "type": "uint256"
        },
        {
          "internalType": "uint256",
          "name": "totalSell",
          "type": "uint256"
        },
        {
          "internalType": "uint256",
          "name": "transactionCounter",
          "type": "uint256"
        }
      ],
      "stateMutability": "view",
      "type": "function"
    }
  ],
  "bytecode": "0x60806040523480156200001157600080fd5b506200003e735b38da6a701c568545dcfcb03fcb875f56beddc463635b95c06005620001d060201b60201c565b6200006a735b38da6a701c568545dcfcb03fcb875f56beddc463635b95c16005620001d060201b60201c565b62000096735b38da6a701c568545dcfcb03fcb875f56beddc463635b95c26005620001d060201b60201c565b620000c2735b38da6a701c568545dcfcb03fcb875f56beddc463635b95c36005620001d060201b60201c565b620000ee735b38da6a701c568545dcfcb03fcb875f56beddc463635b95e06005620001d060201b60201c565b6200011a735b38da6a701c568545dcfcb03fcb875f56beddc463635b95e1600a620001d060201b60201c565b62000146735b38da6a701c568545dcfcb03fcb875f56beddc463635b95d960056200029460201b60201c565b62000172735b38da6a701c568545dcfcb03fcb875f56beddc463635b95da600a6200029460201b60201c565b6200019e735b38da6a701c568545dcfcb03fcb875f56beddc463635b95db600a6200029460201b60201c565b620001ca735b38da6a701c568545dcfcb03fcb875f56beddc463635b95dc60056200029460201b60201c565b62000358565b806000808573ffffffffffffffffffffffffffffffffffffffff1673ffffffffffffffffffffffffffffffffffffffff1681526020019081526020016000206003016000848152602001908152602001600020819055506000808473ffffffffffffffffffffffffffffffffffffffff1673ffffffffffffffffffffffffffffffffffffffff168152602001908152602001600020600401829080600181540180825580915050600190039060005260206000200160009091909190915055505050565b806000808573ffffffffffffffffffffffffffffffffffffffff1673ffffffffffffffffffffffffffffffffffffffff1681526020019081526020016000206005016000848152602001908152602001600020819055506000808473ffffffffffffffffffffffffffffffffffffffff1673ffffffffffffffffffffffffffffffffffffffff168152602001908152602001600020600601829080600181540180825580915050600190039060005260206000200160009091909190915055505050565b611c5080620003686000396000f3fe608060405234801561001057600080fd5b50600436106100a95760003560e01c806377c82cc91161007157806377c82cc9146101625780638b5ccc6e14610192578063b5387dc5146101c4578063e6b02333146101f4578063e8b8530f14610210578063fc3698181461022c576100a9565b80631363b936146100ae5780631e7ba9cd146100de5780632f0a323e146100fa57806333bdb8f9146101165780633f9b696c14610146575b600080fd5b6100c860048036038101906100c3919061141e565b61025c565b6040516100d59190611480565b60405180910390f35b6100f860048036038101906100f3919061149b565b6102c1565b005b610114600480360381019061010f919061149b565b610385565b005b610130600480360381019061012b91906114ee565b610449565b60405161013d9190611480565b60405180910390f35b610160600480360381019061015b919061151b565b610494565b005b61017c600480360381019061017791906114ee565b6104f0565b604051610189919061165b565b60405180910390f35b6101ac60048036038101906101a791906114ee565b610846565b6040516101bb9392919061167d565b60405180910390f35b6101de60048036038101906101d991906114ee565b610870565b6040516101eb9190611480565b60405180910390f35b61020e6004803603810190610209919061149b565b6108bb565b005b61022a6004803603810190610225919061151b565b610a12565b005b6102466004803603810190610241919061141e565b610a6e565b6040516102539190611763565b60405180910390f35b60008061026a858585610a6e565b90506000805b82518110156102b45782818151811061028c5761028b611785565b5b60200260200101518261029f91906117e3565b915080806102ac90611817565b915050610270565b5080925050509392505050565b806000808573ffffffffffffffffffffffffffffffffffffffff1673ffffffffffffffffffffffffffffffffffffffff1681526020019081526020016000206005016000848152602001908152602001600020819055506000808473ffffffffffffffffffffffffffffffffffffffff1673ffffffffffffffffffffffffffffffffffffffff168152602001908152602001600020600601829080600181540180825580915050600190039060005260206000200160009091909190915055505050565b806000808573ffffffffffffffffffffffffffffffffffffffff1673ffffffffffffffffffffffffffffffffffffffff1681526020019081526020016000206003016000848152602001908152602001600020819055506000808473ffffffffffffffffffffffffffffffffffffffff1673ffffffffffffffffffffffffffffffffffffffff168152602001908152602001600020600401829080600181540180825580915050600190039060005260206000200160009091909190915055505050565b60008060008373ffffffffffffffffffffffffffffffffffffffff1673ffffffffffffffffffffffffffffffffffffffff168152602001908152602001600020600101549050919050565b806000808473ffffffffffffffffffffffffffffffffffffffff1673ffffffffffffffffffffffffffffffffffffffff16815260200190815260200160002060000160008282546104e591906117e3565b925050819055505050565b606060008060008473ffffffffffffffffffffffffffffffffffffffff1673ffffffffffffffffffffffffffffffffffffffff1681526020019081526020016000206002015490506000808211156105525760018261054f919061185f565b90505b600061055f83600a610f55565b67ffffffffffffffff81111561057857610577611893565b5b6040519080825280602002602001820160405280156105b157816020015b61059e611303565b8152602001906001900390816105965790505b50905060005b6105c284600a610f55565b81101561083a576000808773ffffffffffffffffffffffffffffffffffffffff1673ffffffffffffffffffffffffffffffffffffffff16815260200190815260200160002060070160008481526020019081526020016000206001015482828151811061063257610631611785565b5b602002602001015160000181815250506000808773ffffffffffffffffffffffffffffffffffffffff1673ffffffffffffffffffffffffffffffffffffffff1681526020019081526020016000206007016000848152602001908152602001600020600001548282815181106106ab576106aa611785565b5b6020026020010151602001818152505060008282815181106106d0576106cf611785565b5b6020026020010151602001510361077a576000808773ffffffffffffffffffffffffffffffffffffffff1673ffffffffffffffffffffffffffffffffffffffff168152602001908152602001600020600301600083838151811061073757610736611785565b5b60200260200101516000015181526020019081526020016000205482828151811061076557610764611785565b5b6020026020010151604001818152505061080f565b6000808773ffffffffffffffffffffffffffffffffffffffff1673ffffffffffffffffffffffffffffffffffffffff16815260200190815260200160002060050160008383815181106107d0576107cf611785565b5b6020026020010151600001518152602001908152602001600020548282815181106107fe576107fd611785565b5b602002602001015160400181815250505b6000831115610827578280610823906118c2565b9350505b808061083290611817565b9150506105b7565b50809350505050919050565b60006020528060005260406000206000915090508060000154908060010154908060020154905083565b60008060008373ffffffffffffffffffffffffffffffffffffffff1673ffffffffffffffffffffffffffffffffffffffff168152602001908152602001600020600001549050919050565b60008060008573ffffffffffffffffffffffffffffffffffffffff1673ffffffffffffffffffffffffffffffffffffffff168152602001908152602001600020600201549050826000808673ffffffffffffffffffffffffffffffffffffffff1673ffffffffffffffffffffffffffffffffffffffff168152602001908152602001600020600701600083815260200190815260200160002060000181905550816000808673ffffffffffffffffffffffffffffffffffffffff1673ffffffffffffffffffffffffffffffffffffffff1681526020019081526020016000206007016000838152602001908152602001600020600101819055506000808573ffffffffffffffffffffffffffffffffffffffff1673ffffffffffffffffffffffffffffffffffffffff1681526020019081526020016000206002016000815480929190610a0790611817565b919050555050505050565b806000808473ffffffffffffffffffffffffffffffffffffffff1673ffffffffffffffffffffffffffffffffffffffff1681526020019081526020016000206001016000828254610a6391906117e3565b925050819055505050565b60606000831015610ab4576040517f08c379a0000000000000000000000000000000000000000000000000000000008152600401610aab90611948565b60405180910390fd5b610abc611324565b600767ffffffffffffffff811115610ad757610ad6611893565b5b604051908082528060200260200182016040528015610b055781602001602082028036833780820191505090505b5081606001819052508362093a80610b1d9190611968565b8160000181815250506000806000610b3442610f71565b9250925092506000610b47848484610fa0565b90506000610b5442610fc4565b9050600062015180600183610b69919061185f565b610b739190611968565b83610b7e919061185f565b9050866000015181610b90919061185f565b87602001818152505062093a808760200151610bac91906117e3565b876040018181525050606060008a60ff1603610c59576000808d73ffffffffffffffffffffffffffffffffffffffff1673ffffffffffffffffffffffffffffffffffffffff168152602001908152602001600020600401805480602002602001604051908101604052809291908181526020018280548015610c4d57602002820191906000526020600020905b815481526020019060010190808311610c39575b50505050509050610d3e565b60018a60ff1603610cfb576000808d73ffffffffffffffffffffffffffffffffffffffff1673ffffffffffffffffffffffffffffffffffffffff168152602001908152602001600020600601805480602002602001604051908101604052809291908181526020018280548015610cef57602002820191906000526020600020905b815481526020019060010190808311610cdb575b50505050509050610d3d565b6000610d3c576040517f08c379a0000000000000000000000000000000000000000000000000000000008152600401610d33906119f6565b60405180910390fd5b5b5b60005b8151811015610f3e578860200151828281518110610d6257610d61611785565b5b602002602001015110158015610d9657508860400151828281518110610d8b57610d8a611785565b5b602002602001015111155b15610f2b576000610dc0838381518110610db357610db2611785565b5b6020026020010151610fc4565b905060008c60ff1603610e7d576000808f73ffffffffffffffffffffffffffffffffffffffff1673ffffffffffffffffffffffffffffffffffffffff1681526020019081526020016000206003016000848481518110610e2357610e22611785565b5b60200260200101518152602001908152602001600020548a60600151600183610e4c919061185f565b81518110610e5d57610e5c611785565b5b60200260200101818151610e7191906117e3565b91508181525050610f29565b6000808f73ffffffffffffffffffffffffffffffffffffffff1673ffffffffffffffffffffffffffffffffffffffff1681526020019081526020016000206005016000848481518110610ed357610ed2611785565b5b60200260200101518152602001908152602001600020548a60600151600183610efc919061185f565b81518110610f0d57610f0c611785565b5b60200260200101818151610f2191906117e3565b915081815250505b505b8080610f3690611817565b915050610d41565b508760600151985050505050505050509392505050565b600081831015610f6757829050610f6b565b8190505b92915050565b6000806000610f8d6201518085610f889190611a45565b611005565b8093508194508295505050509193909250565b600062015180610fb18585856111a4565b610fbb9190611968565b90509392505050565b6000806201518083610fd69190611a45565b905060016007600383610fe991906117e3565b610ff39190611a76565b610ffd91906117e3565b915050919050565b600080600080849050600062253d8c62010bd9836110239190611ab1565b61102d9190611ab1565b9050600062023ab18260046110429190611af5565b61104c9190611b6d565b9050600460038262023ab16110619190611af5565b61106b9190611ab1565b6110759190611b6d565b826110809190611bd7565b9150600062164b096001846110959190611ab1565b610fa06110a29190611af5565b6110ac9190611b6d565b9050601f6004826105b56110c09190611af5565b6110ca9190611b6d565b846110d59190611bd7565b6110df9190611ab1565b9250600061098f8460506110f39190611af5565b6110fd9190611b6d565b9050600060508261098f6111119190611af5565b61111b9190611b6d565b856111269190611bd7565b9050600b826111359190611b6d565b945084600c6111449190611af5565b6002836111519190611ab1565b61115b9190611bd7565b9150848360318661116c9190611bd7565b60646111789190611af5565b6111829190611ab1565b61118c9190611ab1565b92508298508197508096505050505050509193909250565b60006107b28410156111b557600080fd5b600084905060008490506000849050600062253d8c60046064600c600e876111dd9190611bd7565b6111e79190611b6d565b611324886111f59190611ab1565b6111ff9190611ab1565b6112099190611b6d565b60036112159190611af5565b61121f9190611b6d565b600c80600c600e886112319190611bd7565b61123b9190611b6d565b6112459190611af5565b6002876112529190611bd7565b61125c9190611bd7565b61016f6112699190611af5565b6112739190611b6d565b6004600c600e886112849190611bd7565b61128e9190611b6d565b6112c08961129c9190611ab1565b6112a69190611ab1565b6105b56112b39190611af5565b6112bd9190611b6d565b617d4b866112cb9190611bd7565b6112d59190611ab1565b6112df9190611ab1565b6112e99190611bd7565b6112f39190611bd7565b9050809450505050509392505050565b60405180606001604052806000815260200160008152602001600081525090565b6040518060800160405280600081526020016000815260200160008152602001606081525090565b600080fd5b600073ffffffffffffffffffffffffffffffffffffffff82169050919050565b600061137c82611351565b9050919050565b61138c81611371565b811461139757600080fd5b50565b6000813590506113a981611383565b92915050565b6000819050919050565b6113c2816113af565b81146113cd57600080fd5b50565b6000813590506113df816113b9565b92915050565b600060ff82169050919050565b6113fb816113e5565b811461140657600080fd5b50565b600081359050611418816113f2565b92915050565b6000806000606084860312156114375761143661134c565b5b60006114458682870161139a565b9350506020611456868287016113d0565b925050604061146786828701611409565b9150509250925092565b61147a816113af565b82525050565b60006020820190506114956000830184611471565b92915050565b6000806000606084860312156114b4576114b361134c565b5b60006114c28682870161139a565b93505060206114d3868287016113d0565b92505060406114e4868287016113d0565b9150509250925092565b6000602082840312156115045761150361134c565b5b60006115128482850161139a565b91505092915050565b600080604083850312156115325761153161134c565b5b60006115408582860161139a565b9250506020611551858286016113d0565b9150509250929050565b600081519050919050565b600082825260208201905092915050565b6000819050602082019050919050565b611590816113af565b82525050565b6060820160008201516115ac6000850182611587565b5060208201516115bf6020850182611587565b5060408201516115d26040850182611587565b50505050565b60006115e48383611596565b60608301905092915050565b6000602082019050919050565b60006116088261155b565b6116128185611566565b935061161d83611577565b8060005b8381101561164e57815161163588826115d8565b9750611640836115f0565b925050600181019050611621565b5085935050505092915050565b6000602082019050818103600083015261167581846115fd565b905092915050565b60006060820190506116926000830186611471565b61169f6020830185611471565b6116ac6040830184611471565b949350505050565b600081519050919050565b600082825260208201905092915050565b6000819050602082019050919050565b60006116ec8383611587565b60208301905092915050565b6000602082019050919050565b6000611710826116b4565b61171a81856116bf565b9350611725836116d0565b8060005b8381101561175657815161173d88826116e0565b9750611748836116f8565b925050600181019050611729565b5085935050505092915050565b6000602082019050818103600083015261177d8184611705565b905092915050565b7f4e487b7100000000000000000000000000000000000000000000000000000000600052603260045260246000fd5b7f4e487b7100000000000000000000000000000000000000000000000000000000600052601160045260246000fd5b60006117ee826113af565b91506117f9836113af565b9250828201905080821115611811576118106117b4565b5b92915050565b6000611822826113af565b91507fffffffffffffffffffffffffffffffffffffffffffffffffffffffffffffffff8203611854576118536117b4565b5b600182019050919050565b600061186a826113af565b9150611875836113af565b925082820390508181111561188d5761188c6117b4565b5b92915050565b7f4e487b7100000000000000000000000000000000000000000000000000000000600052604160045260246000fd5b60006118cd826113af565b9150600082036118e0576118df6117b4565b5b600182039050919050565b600082825260208201905092915050565b7f7765656b206e756d626572207374617274732066726f6d203000000000000000600082015250565b60006119326019836118eb565b915061193d826118fc565b602082019050919050565b6000602082019050818103600083015261196181611925565b9050919050565b6000611973826113af565b915061197e836113af565b925082820261198c816113af565b915082820484148315176119a3576119a26117b4565b5b5092915050565b7f696e76616c6964207472616e73616374696f6e20747970650000000000000000600082015250565b60006119e06018836118eb565b91506119eb826119aa565b602082019050919050565b60006020820190508181036000830152611a0f816119d3565b9050919050565b7f4e487b7100000000000000000000000000000000000000000000000000000000600052601260045260246000fd5b6000611a50826113af565b9150611a5b836113af565b925082611a6b57611a6a611a16565b5b828204905092915050565b6000611a81826113af565b9150611a8c836113af565b925082611a9c57611a9b611a16565b5b828206905092915050565b6000819050919050565b6000611abc82611aa7565b9150611ac783611aa7565b925082820190508281121560008312168382126000841215161715611aef57611aee6117b4565b5b92915050565b6000611b0082611aa7565b9150611b0b83611aa7565b9250828202611b1981611aa7565b91507f80000000000000000000000000000000000000000000000000000000000000008414600084121615611b5157611b506117b4565b5b8282058414831517611b6657611b656117b4565b5b5092915050565b6000611b7882611aa7565b9150611b8383611aa7565b925082611b9357611b92611a16565b5b600160000383147f800000000000000000000000000000000000000000000000000000000000000083141615611bcc57611bcb6117b4565b5b828205905092915050565b6000611be282611aa7565b9150611bed83611aa7565b9250828203905081811260008412168282136000851215161715611c1457611c136117b4565b5b9291505056fea264697066735822122081228f15b7d5acc24cf739c28885d92129349f49a993775a1b860869d698977864736f6c63430008110033",
  "linkReferences": {},
  "deployedLinkReferences": {}
}