{
  "contractName": "BasicModule",
  "abi": [
    {
      "anonymous": false,
      "inputs": [
        {
          "indexed": false,
          "internalType": "address",
          "name": "creator",
          "type": "address"
        },
        {
          "indexed": false,
          "internalType": "uint256",
          "name": "postKey",
          "type": "uint256"
        },
        {
          "indexed": false,
          "internalType": "uint256",
          "name": "_priceToBuy",
          "type": "uint256"
        },
        {
          "indexed": false,
          "internalType": "uint256",
          "name": "_amountToBuy",
          "type": "uint256"
        }
      ],
      "name": "PurchasePostCreated",
      "type": "event"
    },
    {
      "anonymous": false,
      "inputs": [
        {
          "indexed": false,
          "internalType": "uint256",
          "name": "paymentAmount",
          "type": "uint256"
        },
        {
          "indexed": false,
          "internalType": "uint256",
          "name": "purchasePostKey",
          "type": "uint256"
        },
        {
          "indexed": false,
          "internalType": "address",
          "name": "responseMessageAddress",
          "type": "address"
        }
      ],
      "name": "PurchasePostPaymentSuccess",
      "type": "event"
    },
    {
      "anonymous": false,
      "inputs": [
        {
          "indexed": false,
          "internalType": "address",
          "name": "creator",
          "type": "address"
        },
        {
          "indexed": false,
          "internalType": "address",
          "name": "responseMessageAddress",
          "type": "address"
        }
      ],
      "name": "PurchasePostResponseMessageCreated",
      "type": "event"
    },
    {
      "anonymous": false,
      "inputs": [
        {
          "indexed": false,
          "internalType": "address",
          "name": "creator",
          "type": "address"
        },
        {
          "indexed": false,
          "internalType": "uint256",
          "name": "postKey",
          "type": "uint256"
        },
        {
          "indexed": false,
          "internalType": "uint256",
          "name": "_priceToBuy",
          "type": "uint256"
        },
        {
          "indexed": false,
          "internalType": "uint256",
          "name": "_amountToBuy",
          "type": "uint256"
        }
      ],
      "name": "SellingPostCreated",
      "type": "event"
    },
    {
      "anonymous": false,
      "inputs": [
        {
          "indexed": false,
          "internalType": "uint256",
          "name": "paymentAmount",
          "type": "uint256"
        },
        {
          "indexed": false,
          "internalType": "uint256",
          "name": "sellingPostKey",
          "type": "uint256"
        },
        {
          "indexed": false,
          "internalType": "address",
          "name": "responseMessageAddress",
          "type": "address"
        }
      ],
      "name": "SellingPostPaymentSuccess",
      "type": "event"
    },
    {
      "anonymous": false,
      "inputs": [
        {
          "indexed": false,
          "internalType": "address",
          "name": "creator",
          "type": "address"
        },
        {
          "indexed": false,
          "internalType": "address",
          "name": "responseMessageAddress",
          "type": "address"
        }
      ],
      "name": "SellingPostResponseMessageCreated",
      "type": "event"
    },
    {
      "inputs": [
        {
          "internalType": "address",
          "name": "",
          "type": "address"
        }
      ],
      "name": "userMap",
      "outputs": [
        {
          "internalType": "string",
          "name": "username",
          "type": "string"
        },
        {
          "internalType": "uint256",
          "name": "availableElecUnits",
          "type": "uint256"
        }
      ],
      "stateMutability": "view",
      "type": "function"
    }
  ],
  "bytecode": "0x608060405234801561001057600080fd5b5061030c806100206000396000f3fe608060405234801561001057600080fd5b506004361061002b5760003560e01c80632bcc23f814610030575b600080fd5b61004a60048036038101906100459190610170565b610061565b604051610058929190610246565b60405180910390f35b6000602052806000526040600020600091509050806000018054610084906102a5565b80601f01602080910402602001604051908101604052809291908181526020018280546100b0906102a5565b80156100fd5780601f106100d2576101008083540402835291602001916100fd565b820191906000526020600020905b8154815290600101906020018083116100e057829003601f168201915b5050505050908060010154905082565b600080fd5b600073ffffffffffffffffffffffffffffffffffffffff82169050919050565b600061013d82610112565b9050919050565b61014d81610132565b811461015857600080fd5b50565b60008135905061016a81610144565b92915050565b6000602082840312156101865761018561010d565b5b60006101948482850161015b565b91505092915050565b600081519050919050565b600082825260208201905092915050565b60005b838110156101d75780820151818401526020810190506101bc565b60008484015250505050565b6000601f19601f8301169050919050565b60006101ff8261019d565b61020981856101a8565b93506102198185602086016101b9565b610222816101e3565b840191505092915050565b6000819050919050565b6102408161022d565b82525050565b6000604082019050818103600083015261026081856101f4565b905061026f6020830184610237565b9392505050565b7f4e487b7100000000000000000000000000000000000000000000000000000000600052602260045260246000fd5b600060028204905060018216806102bd57607f821691505b6020821081036102d0576102cf610276565b5b5091905056fea264697066735822122004718c001dfcf00f73f4fc1a60a37e4f725670229708ac27bd9c89ed139a5f9264736f6c63430008110033",
  "immutableReferences": {},
  "source": "//SPDX-License-Identifier: MIT\n\npragma solidity ^0.8.0;\n\ncontract BasicModule {\n\n    // To-do\n    // uint public suggestedPriceInWei = 1000; \n\n    // map account address to the user information in the system\n    mapping(address => User) public userMap;\n    struct User{\n        string username;      // nickname\n        uint availableElecUnits; // units of electricity available\n        uint[] purchasePostKeys; // indexes of purchase posts published by user\n        uint[] sellingPostsKeys;  // indexes of selling posts published by user\n    }\n\n    // events\n    event PurchasePostCreated(address creator, uint postKey, uint _priceToBuy, uint _amountToBuy);\n    event SellingPostCreated(address creator, uint postKey, uint _priceToBuy, uint _amountToBuy);\n    event PurchasePostResponseMessageCreated(address creator, address responseMessageAddress);\n    event SellingPostResponseMessageCreated(address creator, address responseMessageAddress);\n    event PurchasePostPaymentSuccess(uint paymentAmount, uint purchasePostKey, address responseMessageAddress);\n    event SellingPostPaymentSuccess(uint paymentAmount, uint sellingPostKey, address responseMessageAddress);\n\n\n\n}",
  "sourcePath": "/Users/richard/Doc//sydney_study/22s2/5703/vue-web3-5703/truffle/contracts/BasicModule.sol",
  "compiler": {
    "name": "solc",
    "version": "0.8.17+commit.8df45f5f.Emscripten.clang"
  },
  "schemaVersion": "3.4.9",
  "updatedAt": "2022-09-15T06:50:59.170Z",
  "devdoc": {
    "kind": "dev",
    "methods": {},
    "version": 1
  },
  "userdoc": {
    "kind": "user",
    "methods": {},
    "version": 1
  }
}