{
  "contractName": "BuyerService",
  "abi": [
    {
      "inputs": [
        {
          "internalType": "contract StatisticsService",
          "name": "_statisticsService",
          "type": "address"
        },
        {
          "internalType": "contract UserService",
          "name": "_userService",
          "type": "address"
        },
        {
          "internalType": "contract Division",
          "name": "_divisionUtils",
          "type": "address"
        }
      ],
      "stateMutability": "nonpayable",
      "type": "constructor"
    },
    {
      "anonymous": false,
      "inputs": [
        {
          "indexed": false,
          "internalType": "address",
          "name": "creator",
          "type": "address"
        },
        {
          "indexed": false,
          "internalType": "uint256",
          "name": "postKey",
          "type": "uint256"
        },
        {
          "indexed": false,
          "internalType": "uint256",
          "name": "_priceToBuy",
          "type": "uint256"
        },
        {
          "indexed": false,
          "internalType": "uint256",
          "name": "_amountToBuy",
          "type": "uint256"
        }
      ],
      "name": "PurchasePostCreated",
      "type": "event"
    },
    {
      "anonymous": false,
      "inputs": [
        {
          "indexed": false,
          "internalType": "uint256",
          "name": "paymentAmount",
          "type": "uint256"
        },
        {
          "indexed": false,
          "internalType": "uint256",
          "name": "purchasePostKey",
          "type": "uint256"
        },
        {
          "indexed": false,
          "internalType": "address",
          "name": "responseMessageAddress",
          "type": "address"
        }
      ],
      "name": "PurchasePostPaymentSuccess",
      "type": "event"
    },
    {
      "anonymous": false,
      "inputs": [
        {
          "indexed": false,
          "internalType": "address",
          "name": "creator",
          "type": "address"
        },
        {
          "indexed": false,
          "internalType": "address",
          "name": "responseMessageAddress",
          "type": "address"
        }
      ],
      "name": "PurchasePostResponseMessageCreated",
      "type": "event"
    },
    {
      "inputs": [
        {
          "internalType": "uint256",
          "name": "",
          "type": "uint256"
        }
      ],
      "name": "averagePriceforBuy",
      "outputs": [
        {
          "internalType": "uint256",
          "name": "",
          "type": "uint256"
        }
      ],
      "stateMutability": "view",
      "type": "function"
    },
    {
      "inputs": [],
      "name": "averagePriceforBuyKey",
      "outputs": [
        {
          "internalType": "uint256",
          "name": "",
          "type": "uint256"
        }
      ],
      "stateMutability": "view",
      "type": "function"
    },
    {
      "inputs": [],
      "name": "purchasePostCounter",
      "outputs": [
        {
          "internalType": "uint256",
          "name": "",
          "type": "uint256"
        }
      ],
      "stateMutability": "view",
      "type": "function"
    },
    {
      "inputs": [],
      "name": "recentAveragePriceforBuy",
      "outputs": [
        {
          "internalType": "string",
          "name": "",
          "type": "string"
        }
      ],
      "stateMutability": "view",
      "type": "function"
    },
    {
      "inputs": [
        {
          "internalType": "uint256",
          "name": "_priceToBuy",
          "type": "uint256"
        },
        {
          "internalType": "uint256",
          "name": "_amountToBuy",
          "type": "uint256"
        },
        {
          "internalType": "address",
          "name": "_msgSender",
          "type": "address"
        }
      ],
      "name": "createPurchasePost",
      "outputs": [],
      "stateMutability": "nonpayable",
      "type": "function"
    },
    {
      "inputs": [
        {
          "internalType": "uint256",
          "name": "_amountToSell",
          "type": "uint256"
        },
        {
          "internalType": "uint256",
          "name": "_quotationInWei",
          "type": "uint256"
        },
        {
          "internalType": "uint256",
          "name": "_purchasePostKey",
          "type": "uint256"
        },
        {
          "internalType": "address",
          "name": "_msgSender",
          "type": "address"
        }
      ],
      "name": "createResponseMessageToPurchasePost",
      "outputs": [],
      "stateMutability": "nonpayable",
      "type": "function"
    },
    {
      "inputs": [
        {
          "internalType": "uint256",
          "name": "_purchasePostKey",
          "type": "uint256"
        },
        {
          "internalType": "uint256",
          "name": "_responseMessageIndex",
          "type": "uint256"
        }
      ],
      "name": "handlePurchasePostPostPayment",
      "outputs": [
        {
          "internalType": "string",
          "name": "",
          "type": "string"
        }
      ],
      "stateMutability": "payable",
      "type": "function"
    },
    {
      "inputs": [],
      "name": "updateRecentAveragePriceforBuy",
      "outputs": [],
      "stateMutability": "nonpayable",
      "type": "function"
    },
    {
      "inputs": [
        {
          "internalType": "address",
          "name": "_account",
          "type": "address"
        }
      ],
      "name": "returnAllPurchasePostsByAddress",
      "outputs": [
        {
          "components": [
            {
              "internalType": "uint256",
              "name": "priceToBuy",
              "type": "uint256"
            },
            {
              "internalType": "uint256",
              "name": "initialAmountToBuy",
              "type": "uint256"
            },
            {
              "internalType": "uint256",
              "name": "amountToBuy",
              "type": "uint256"
            },
            {
              "internalType": "address",
              "name": "buyer",
              "type": "address"
            },
            {
              "internalType": "bool",
              "name": "enabled",
              "type": "bool"
            },
            {
              "internalType": "uint256",
              "name": "createdAt",
              "type": "uint256"
            },
            {
              "internalType": "contract PostResponseMessage[]",
              "name": "responseMessages",
              "type": "address[]"
            }
          ],
          "internalType": "struct BeanStructs.PurchasePost[]",
          "name": "",
          "type": "tuple[]"
        }
      ],
      "stateMutability": "view",
      "type": "function"
    },
    {
      "inputs": [],
      "name": "returnPurchasePostMapSize",
      "outputs": [
        {
          "internalType": "uint256",
          "name": "",
          "type": "uint256"
        }
      ],
      "stateMutability": "view",
      "type": "function"
    },
    {
      "inputs": [
        {
          "internalType": "uint256",
          "name": "_postKey",
          "type": "uint256"
        }
      ],
      "name": "getPurchasePostByKey",
      "outputs": [
        {
          "components": [
            {
              "internalType": "uint256",
              "name": "priceToBuy",
              "type": "uint256"
            },
            {
              "internalType": "uint256",
              "name": "initialAmountToBuy",
              "type": "uint256"
            },
            {
              "internalType": "uint256",
              "name": "amountToBuy",
              "type": "uint256"
            },
            {
              "internalType": "address",
              "name": "buyer",
              "type": "address"
            },
            {
              "internalType": "bool",
              "name": "enabled",
              "type": "bool"
            },
            {
              "internalType": "uint256",
              "name": "createdAt",
              "type": "uint256"
            },
            {
              "internalType": "contract PostResponseMessage[]",
              "name": "responseMessages",
              "type": "address[]"
            }
          ],
          "internalType": "struct BeanStructs.PurchasePost",
          "name": "",
          "type": "tuple"
        }
      ],
      "stateMutability": "view",
      "type": "function"
    },
    {
      "inputs": [
        {
          "internalType": "uint256",
          "name": "_postKey",
          "type": "uint256"
        }
      ],
      "name": "returnPurchasePostResponseMessagesByKey",
      "outputs": [
        {
          "internalType": "contract PostResponseMessage[]",
          "name": "",
          "type": "address[]"
        }
      ],
      "stateMutability": "view",
      "type": "function"
    },
    {
      "inputs": [],
      "name": "returnRecentAveragePriceforBuy",
      "outputs": [
        {
          "internalType": "string",
          "name": "",
          "type": "string"
        }
      ],
      "stateMutability": "view",
      "type": "function"
    }
  ],
  "bytecode": "0x6080604052606467ffffffffffffffff811115620000225762000021620001da565b5b604051908082528060200260200182016040528015620000515781602001602082028036833780820191505090505b50600590805190602001906200006992919062000169565b503480156200007757600080fd5b50604051620053e6380380620053e683398181016040528101906200009d919062000311565b82600760016101000a81548173ffffffffffffffffffffffffffffffffffffffff021916908373ffffffffffffffffffffffffffffffffffffffff16021790555081600860006101000a81548173ffffffffffffffffffffffffffffffffffffffff021916908373ffffffffffffffffffffffffffffffffffffffff16021790555080600960006101000a81548173ffffffffffffffffffffffffffffffffffffffff021916908373ffffffffffffffffffffffffffffffffffffffff1602179055505050506200036d565b828054828255906000526020600020908101928215620001a8579160200282015b82811115620001a75782518255916020019190600101906200018a565b5b509050620001b79190620001bb565b5090565b5b80821115620001d6576000816000905550600101620001bc565b5090565b7f4e487b7100000000000000000000000000000000000000000000000000000000600052604160045260246000fd5b600080fd5b600073ffffffffffffffffffffffffffffffffffffffff82169050919050565b60006200023b826200020e565b9050919050565b60006200024f826200022e565b9050919050565b620002618162000242565b81146200026d57600080fd5b50565b600081519050620002818162000256565b92915050565b600062000294826200022e565b9050919050565b620002a68162000287565b8114620002b257600080fd5b50565b600081519050620002c6816200029b565b92915050565b6000620002d9826200022e565b9050919050565b620002eb81620002cc565b8114620002f757600080fd5b50565b6000815190506200030b81620002e0565b92915050565b6000806000606084860312156200032d576200032c62000209565b5b60006200033d8682870162000270565b93505060206200035086828701620002b5565b92505060406200036386828701620002fa565b9150509250925092565b615069806200037d6000396000f3fe608060405260043610620000d45760003560e01c806347f39ced116200008b578063951b3de81162000061578063951b3de814620002b3578063bca73eb214620002e3578063ced8d5301462000311578063d77cf115146200035557620000d4565b806347f39ced1462000211578063620c503a146200022b5780637b7e76b8146200026f57620000d4565b80630aeadded14620000d95780630d9035f514620001075780631488e66014620001375780631b1341c5146200017b5780633d480db514620001ab5780634659d79f14620001e1575b600080fd5b348015620000e657600080fd5b50620001056004803603810190620000ff9190620021b4565b62000385565b005b3480156200011457600080fd5b506200011f620006a9565b6040516200012e919062002237565b60405180910390f35b3480156200014457600080fd5b506200016360048036038101906200015d919062002254565b620006af565b60405162000172919062002237565b60405180910390f35b3480156200018857600080fd5b5062000193620006d4565b604051620001a2919062002320565b60405180910390f35b620001c96004803603810190620001c3919062002344565b6200076e565b604051620001d8919062002320565b60405180910390f35b348015620001ee57600080fd5b50620001f962001645565b60405162000208919062002237565b60405180910390f35b3480156200021e57600080fd5b50620002296200164b565b005b3480156200023857600080fd5b5062000257600480360381019062000251919062002254565b62001858565b604051620002669190620024b3565b60405180910390f35b3480156200027c57600080fd5b506200029b6004803603810190620002959190620024d7565b62001944565b604051620002aa91906200273d565b60405180910390f35b348015620002c057600080fd5b50620002cb62001c02565b604051620002da919062002237565b60405180910390f35b348015620002f057600080fd5b506200030f600480360381019062000309919062002761565b62001c0c565b005b3480156200031e57600080fd5b506200033d600480360381019062000337919062002254565b62001eb0565b6040516200034c919062002867565b60405180910390f35b3480156200036257600080fd5b506200036d62002007565b6040516200037c919062002320565b60405180910390f35b60008411620003cb576040517f08c379a0000000000000000000000000000000000000000000000000000000008152600401620003c290620028db565b60405180910390fd5b6000831162000411576040517f08c379a000000000000000000000000000000000000000000000000000000000815260040162000408906200294d565b60405180910390fd5b600082101562000458576040517f08c379a00000000000000000000000000000000000000000000000000000000081526004016200044f90620029bf565b60405180910390fd5b60008083815260200190815260200160002060030160009054906101000a900473ffffffffffffffffffffffffffffffffffffffff1673ffffffffffffffffffffffffffffffffffffffff168173ffffffffffffffffffffffffffffffffffffffff1603620004fe576040517f08c379a0000000000000000000000000000000000000000000000000000000008152600401620004f59062002a57565b60405180910390fd5b60008060008481526020019081526020016000206005018054905090506000308387876000888760405162000533906200209d565b62000545979695949392919062002ada565b604051809103906000f08015801562000562573d6000803e3d6000fd5b50905080600080868152602001908152602001600020600501600181600181540180825580915050039060005260206000200160006101000a81548173ffffffffffffffffffffffffffffffffffffffff021916908373ffffffffffffffffffffffffffffffffffffffff160217905550600860009054906101000a900473ffffffffffffffffffffffffffffffffffffffff1673ffffffffffffffffffffffffffffffffffffffff166384dc965a84836040518363ffffffff1660e01b81526004016200063292919062002b68565b600060405180830381600087803b1580156200064d57600080fd5b505af115801562000662573d6000803e3d6000fd5b505050507f83c1d63a3e3cd3d3a92a899ed2f341bd373a5326ebf67b9bd646543e55081ebc83826040516200069992919062002b95565b60405180910390a1505050505050565b60065481565b60058181548110620006c057600080fd5b906000526020600020016000915090505481565b606060048054620006e59062002bf1565b80601f0160208091040260200160405190810160405280929190818152602001828054620007139062002bf1565b8015620007645780601f10620007385761010080835404028352916020019162000764565b820191906000526020600020905b8154815290600101906020018083116200074657829003601f168201915b5050505050905090565b6060600080600085815260200190815260200160002060050183815481106200079c576200079b62002c26565b5b9060005260206000200160009054906101000a900473ffffffffffffffffffffffffffffffffffffffff1690503373ffffffffffffffffffffffffffffffffffffffff168173ffffffffffffffffffffffffffffffffffffffff16146200083a576040517f08c379a0000000000000000000000000000000000000000000000000000000008152600401620008319062002cf1565b60405180910390fd5b600042905060008273ffffffffffffffffffffffffffffffffffffffff1663d67bdd256040518163ffffffff1660e01b8152600401602060405180830381865afa1580156200088d573d6000803e3d6000fd5b505050506040513d601f19601f82011682018060405250810190620008b3919062002d2a565b90508273ffffffffffffffffffffffffffffffffffffffff1663aa8c217c6040518163ffffffff1660e01b8152600401602060405180830381865afa15801562000901573d6000803e3d6000fd5b505050506040513d601f19601f8201168201806040525081019062000927919062002d73565b600860009054906101000a900473ffffffffffffffffffffffffffffffffffffffff1673ffffffffffffffffffffffffffffffffffffffff1663cb8ab15b836040518263ffffffff1660e01b815260040162000984919062002da5565b602060405180830381865afa158015620009a2573d6000803e3d6000fd5b505050506040513d601f19601f82011682018060405250810190620009c8919062002d73565b101562000a0c576040517f08c379a000000000000000000000000000000000000000000000000000000000815260040162000a039062002e38565b60405180910390fd5b600860009054906101000a900473ffffffffffffffffffffffffffffffffffffffff1673ffffffffffffffffffffffffffffffffffffffff1663e2670971828573ffffffffffffffffffffffffffffffffffffffff1663aa8c217c6040518163ffffffff1660e01b8152600401602060405180830381865afa15801562000a97573d6000803e3d6000fd5b505050506040513d601f19601f8201168201806040525081019062000abd919062002d73565b600860009054906101000a900473ffffffffffffffffffffffffffffffffffffffff1673ffffffffffffffffffffffffffffffffffffffff1663cb8ab15b866040518263ffffffff1660e01b815260040162000b1a919062002da5565b602060405180830381865afa15801562000b38573d6000803e3d6000fd5b505050506040513d601f19601f8201168201806040525081019062000b5e919062002d73565b62000b6a919062002e89565b6040518363ffffffff1660e01b815260040162000b8992919062002ec4565b600060405180830381600087803b15801562000ba457600080fd5b505af115801562000bb9573d6000803e3d6000fd5b50505050600760019054906101000a900473ffffffffffffffffffffffffffffffffffffffff1673ffffffffffffffffffffffffffffffffffffffff1663e8b8530f828573ffffffffffffffffffffffffffffffffffffffff1663aa8c217c6040518163ffffffff1660e01b8152600401602060405180830381865afa15801562000c48573d6000803e3d6000fd5b505050506040513d601f19601f8201168201806040525081019062000c6e919062002d73565b6040518363ffffffff1660e01b815260040162000c8d92919062002ec4565b600060405180830381600087803b15801562000ca857600080fd5b505af115801562000cbd573d6000803e3d6000fd5b50505050600760019054906101000a900473ffffffffffffffffffffffffffffffffffffffff1673ffffffffffffffffffffffffffffffffffffffff16631e7ba9cd82848673ffffffffffffffffffffffffffffffffffffffff1663aa8c217c6040518163ffffffff1660e01b8152600401602060405180830381865afa15801562000d4d573d6000803e3d6000fd5b505050506040513d601f19601f8201168201806040525081019062000d73919062002d73565b6040518463ffffffff1660e01b815260040162000d939392919062002ef1565b600060405180830381600087803b15801562000dae57600080fd5b505af115801562000dc3573d6000803e3d6000fd5b50505050600760019054906101000a900473ffffffffffffffffffffffffffffffffffffffff1673ffffffffffffffffffffffffffffffffffffffff1663e6b02333826001856040518463ffffffff1660e01b815260040162000e299392919062002f71565b600060405180830381600087803b15801562000e4457600080fd5b505af115801562000e59573d6000803e3d6000fd5b50505050600080600088815260200190815260200160002060030160009054906101000a900473ffffffffffffffffffffffffffffffffffffffff169050600860009054906101000a900473ffffffffffffffffffffffffffffffffffffffff1673ffffffffffffffffffffffffffffffffffffffff1663e2670971828673ffffffffffffffffffffffffffffffffffffffff1663aa8c217c6040518163ffffffff1660e01b8152600401602060405180830381865afa15801562000f22573d6000803e3d6000fd5b505050506040513d601f19601f8201168201806040525081019062000f48919062002d73565b600860009054906101000a900473ffffffffffffffffffffffffffffffffffffffff1673ffffffffffffffffffffffffffffffffffffffff1663cb8ab15b866040518263ffffffff1660e01b815260040162000fa5919062002da5565b602060405180830381865afa15801562000fc3573d6000803e3d6000fd5b505050506040513d601f19601f8201168201806040525081019062000fe9919062002d73565b62000ff5919062002fae565b6040518363ffffffff1660e01b81526004016200101492919062002ec4565b600060405180830381600087803b1580156200102f57600080fd5b505af115801562001044573d6000803e3d6000fd5b50505050600760019054906101000a900473ffffffffffffffffffffffffffffffffffffffff1673ffffffffffffffffffffffffffffffffffffffff16633f9b696c828673ffffffffffffffffffffffffffffffffffffffff1663aa8c217c6040518163ffffffff1660e01b8152600401602060405180830381865afa158015620010d3573d6000803e3d6000fd5b505050506040513d601f19601f82011682018060405250810190620010f9919062002d73565b6040518363ffffffff1660e01b81526004016200111892919062002ec4565b600060405180830381600087803b1580156200113357600080fd5b505af115801562001148573d6000803e3d6000fd5b50505050600760019054906101000a900473ffffffffffffffffffffffffffffffffffffffff1673ffffffffffffffffffffffffffffffffffffffff16632f0a323e82858773ffffffffffffffffffffffffffffffffffffffff1663aa8c217c6040518163ffffffff1660e01b8152600401602060405180830381865afa158015620011d8573d6000803e3d6000fd5b505050506040513d601f19601f82011682018060405250810190620011fe919062002d73565b6040518463ffffffff1660e01b81526004016200121e9392919062002ef1565b600060405180830381600087803b1580156200123957600080fd5b505af11580156200124e573d6000803e3d6000fd5b50505050600760019054906101000a900473ffffffffffffffffffffffffffffffffffffffff1673ffffffffffffffffffffffffffffffffffffffff1663e6b02333826000866040518463ffffffff1660e01b8152600401620012b49392919062003022565b600060405180830381600087803b158015620012cf57600080fd5b505af1158015620012e4573d6000803e3d6000fd5b505050508373ffffffffffffffffffffffffffffffffffffffff1663aa8c217c6040518163ffffffff1660e01b8152600401602060405180830381865afa15801562001334573d6000803e3d6000fd5b505050506040513d601f19601f820116820180604052508101906200135a919062002d73565b600080898152602001908152602001600020600201541015620013b4576040517f08c379a0000000000000000000000000000000000000000000000000000000008152600401620013ab90620030fb565b60405180910390fd5b8373ffffffffffffffffffffffffffffffffffffffff1663aa8c217c6040518163ffffffff1660e01b8152600401602060405180830381865afa15801562001400573d6000803e3d6000fd5b505050506040513d601f19601f8201168201806040525081019062001426919062002d73565b60008089815260200190815260200160002060020160008282546200144c919062002e89565b9250508190555060008060008981526020019081526020016000206002015403620014a057600080600089815260200190815260200160002060030160146101000a81548160ff0219169083151502179055505b606460065403620014cf576001600760006101000a81548160ff02191690831515021790555060006006819055505b8373ffffffffffffffffffffffffffffffffffffffff1663a03a202e6040518163ffffffff1660e01b8152600401602060405180830381865afa1580156200151b573d6000803e3d6000fd5b505050506040513d601f19601f8201168201806040525081019062001541919062002d73565b60056006600081548092919062001558906200311d565b919050558154811062001570576200156f62002c26565b5b90600052602060002001819055508173ffffffffffffffffffffffffffffffffffffffff166108fc349081150290604051600060405180830381858888f19350505050158015620015c5573d6000803e3d6000fd5b507faa5ef240d12945dacdcfd9ecc9a86ba7fa61f117ef9e9626465aa252e6dd5b66348886604051620015fb939291906200316a565b60405180910390a16040518060400160405280600781526020017f737563636573730000000000000000000000000000000000000000000000000081525094505050505092915050565b60035481565b6000805b600580549050811015620016a4576005818154811062001674576200167362002c26565b5b9060005260206000200154826200168c919062002fae565b915080806200169b906200311d565b9150506200164f565b50600760009054906101000a900460ff16156200178a57600960009054906101000a900473ffffffffffffffffffffffffffffffffffffffff1673ffffffffffffffffffffffffffffffffffffffff16632336b59160038360646040518463ffffffff1660e01b81526004016200171e939291906200322d565b600060405180830381865afa1580156200173c573d6000803e3d6000fd5b505050506040513d6000823e3d601f19601f82011682018060405250810190620017679190620033ac565b909150905060046000829190509081620017829190620035ef565b505062001855565b600960009054906101000a900473ffffffffffffffffffffffffffffffffffffffff1673ffffffffffffffffffffffffffffffffffffffff16632336b5916003836006546040518463ffffffff1660e01b8152600401620017ee93929190620036d6565b600060405180830381865afa1580156200180c573d6000803e3d6000fd5b505050506040513d6000823e3d601f19601f82011682018060405250810190620018379190620033ac565b909150905060046000829190509081620018529190620035ef565b50505b50565b60606000821015620018a1576040517f08c379a00000000000000000000000000000000000000000000000000000000081526004016200189890620029bf565b60405180910390fd5b6000808381526020019081526020016000206005018054806020026020016040519081016040528092919081815260200182805480156200193857602002820191906000526020600020905b8160009054906101000a900473ffffffffffffffffffffffffffffffffffffffff1673ffffffffffffffffffffffffffffffffffffffff1681526020019060010190808311620018ed575b50505050509050919050565b60606000600860009054906101000a900473ffffffffffffffffffffffffffffffffffffffff1673ffffffffffffffffffffffffffffffffffffffff1663ebe0b877846040518263ffffffff1660e01b8152600401620019a5919062002da5565b600060405180830381865afa158015620019c3573d6000803e3d6000fd5b505050506040513d6000823e3d601f19601f82011682018060405250810190620019ee9190620037ee565b90506000815167ffffffffffffffff81111562001a105762001a0f62003274565b5b60405190808252806020026020018201604052801562001a4d57816020015b62001a39620020ab565b81526020019060019003908162001a2f5790505b50905060005b825181101562001bf75760008084838151811062001a765762001a7562002c26565b5b602002602001015181526020019081526020016000206040518060e00160405290816000820154815260200160018201548152602001600282015481526020016003820160009054906101000a900473ffffffffffffffffffffffffffffffffffffffff1673ffffffffffffffffffffffffffffffffffffffff1673ffffffffffffffffffffffffffffffffffffffff1681526020016003820160149054906101000a900460ff16151515158152602001600482015481526020016005820180548060200260200160405190810160405280929190818152602001828054801562001bb757602002820191906000526020600020905b8160009054906101000a900473ffffffffffffffffffffffffffffffffffffffff1673ffffffffffffffffffffffffffffffffffffffff168152602001906001019080831162001b6c575b50505050508152505082828151811062001bd65762001bd562002c26565b5b6020026020010181905250808062001bee906200311d565b91505062001a53565b508092505050919050565b6000600354905090565b6000831162001c52576040517f08c379a000000000000000000000000000000000000000000000000000000000815260040162001c4990620038b5565b60405180910390fd5b6000821162001c98576040517f08c379a000000000000000000000000000000000000000000000000000000000815260040162001c8f906200394d565b60405180910390fd5b82600080600354815260200190815260200160002060000181905550816000806003548152602001908152602001600020600101819055508160008060035481526020019081526020016000206002018190555080600080600354815260200190815260200160002060030160006101000a81548173ffffffffffffffffffffffffffffffffffffffff021916908373ffffffffffffffffffffffffffffffffffffffff1602179055506001600080600354815260200190815260200160002060030160146101000a81548160ff021916908315150217905550426000806003548152602001908152602001600020600401819055506001806000600354815260200190815260200160002060006101000a81548160ff021916908315150217905550600860009054906101000a900473ffffffffffffffffffffffffffffffffffffffff1673ffffffffffffffffffffffffffffffffffffffff1663f03b5e9d826003546040518363ffffffff1660e01b815260040162001e1c92919062002ec4565b600060405180830381600087803b15801562001e3757600080fd5b505af115801562001e4c573d6000803e3d6000fd5b505050507fb327665b1bbfd6560701e012c966f02c9abe3e3b1afa5c084bfa31ed1e70107181600354858560405162001e8994939291906200396f565b60405180910390a16003600081548092919062001ea6906200311d565b9190505550505050565b62001eba620020ab565b6000808381526020019081526020016000206040518060e00160405290816000820154815260200160018201548152602001600282015481526020016003820160009054906101000a900473ffffffffffffffffffffffffffffffffffffffff1673ffffffffffffffffffffffffffffffffffffffff1673ffffffffffffffffffffffffffffffffffffffff1681526020016003820160149054906101000a900460ff16151515158152602001600482015481526020016005820180548060200260200160405190810160405280929190818152602001828054801562001ff757602002820191906000526020600020905b8160009054906101000a900473ffffffffffffffffffffffffffffffffffffffff1673ffffffffffffffffffffffffffffffffffffffff168152602001906001019080831162001fac575b5050505050815250509050919050565b60048054620020169062002bf1565b80601f0160208091040260200160405190810160405280929190818152602001828054620020449062002bf1565b8015620020955780601f10620020695761010080835404028352916020019162002095565b820191906000526020600020905b8154815290600101906020018083116200207757829003601f168201915b505050505081565b61167780620039bd83390190565b6040518060e00160405280600081526020016000815260200160008152602001600073ffffffffffffffffffffffffffffffffffffffff16815260200160001515815260200160008152602001606081525090565b6000604051905090565b600080fd5b600080fd5b6000819050919050565b620021298162002114565b81146200213557600080fd5b50565b60008135905062002149816200211e565b92915050565b600073ffffffffffffffffffffffffffffffffffffffff82169050919050565b60006200217c826200214f565b9050919050565b6200218e816200216f565b81146200219a57600080fd5b50565b600081359050620021ae8162002183565b92915050565b60008060008060808587031215620021d157620021d06200210a565b5b6000620021e18782880162002138565b9450506020620021f48782880162002138565b9350506040620022078782880162002138565b92505060606200221a878288016200219d565b91505092959194509250565b620022318162002114565b82525050565b60006020820190506200224e600083018462002226565b92915050565b6000602082840312156200226d576200226c6200210a565b5b60006200227d8482850162002138565b91505092915050565b600081519050919050565b600082825260208201905092915050565b60005b83811015620022c2578082015181840152602081019050620022a5565b60008484015250505050565b6000601f19601f8301169050919050565b6000620022ec8262002286565b620022f8818562002291565b93506200230a818560208601620022a2565b6200231581620022ce565b840191505092915050565b600060208201905081810360008301526200233c8184620022df565b905092915050565b600080604083850312156200235e576200235d6200210a565b5b60006200236e8582860162002138565b9250506020620023818582860162002138565b9150509250929050565b600081519050919050565b600082825260208201905092915050565b6000819050602082019050919050565b6000819050919050565b6000620023e2620023dc620023d6846200214f565b620023b7565b6200214f565b9050919050565b6000620023f682620023c1565b9050919050565b60006200240a82620023e9565b9050919050565b6200241c81620023fd565b82525050565b600062002430838362002411565b60208301905092915050565b6000602082019050919050565b600062002456826200238b565b62002462818562002396565b93506200246f83620023a7565b8060005b83811015620024a65781516200248a888262002422565b975062002497836200243c565b92505060018101905062002473565b5085935050505092915050565b60006020820190508181036000830152620024cf818462002449565b905092915050565b600060208284031215620024f057620024ef6200210a565b5b600062002500848285016200219d565b91505092915050565b600081519050919050565b600082825260208201905092915050565b6000819050602082019050919050565b620025408162002114565b82525050565b62002551816200216f565b82525050565b60008115159050919050565b6200256e8162002557565b82525050565b600082825260208201905092915050565b600062002592826200238b565b6200259e818562002574565b9350620025ab83620023a7565b8060005b83811015620025e2578151620025c6888262002422565b9750620025d3836200243c565b925050600181019050620025af565b5085935050505092915050565b600060e08301600083015162002609600086018262002535565b5060208301516200261e602086018262002535565b50604083015162002633604086018262002535565b50606083015162002648606086018262002546565b5060808301516200265d608086018262002563565b5060a08301516200267260a086018262002535565b5060c083015184820360c08601526200268c828262002585565b9150508091505092915050565b6000620026a78383620025ef565b905092915050565b6000602082019050919050565b6000620026c98262002509565b620026d5818562002514565b935083602082028501620026e98562002525565b8060005b858110156200272b578484038952815162002709858262002699565b94506200271683620026af565b925060208a01995050600181019050620026ed565b50829750879550505050505092915050565b60006020820190508181036000830152620027598184620026bc565b905092915050565b6000806000606084860312156200277d576200277c6200210a565b5b60006200278d8682870162002138565b9350506020620027a08682870162002138565b9250506040620027b3868287016200219d565b9150509250925092565b600060e083016000830151620027d7600086018262002535565b506020830151620027ec602086018262002535565b50604083015162002801604086018262002535565b50606083015162002816606086018262002546565b5060808301516200282b608086018262002563565b5060a08301516200284060a086018262002535565b5060c083015184820360c08601526200285a828262002585565b9150508091505092915050565b60006020820190508181036000830152620028838184620027bd565b905092915050565b7f616d6f756e74206d7573742062652067726561746572207468616e2030000000600082015250565b6000620028c3601d8362002291565b9150620028d0826200288b565b602082019050919050565b60006020820190508181036000830152620028f681620028b4565b9050919050565b7f71756f746174696f6e206d7573742062652067726561746572207468616e2030600082015250565b60006200293560208362002291565b91506200294282620028fd565b602082019050919050565b60006020820190508181036000830152620029688162002926565b9050919050565b7f706f7374206b6579207374617274732066726f6d203000000000000000000000600082015250565b6000620029a760168362002291565b9150620029b4826200296f565b602082019050919050565b60006020820190508181036000830152620029da8162002998565b9050919050565b7f596f752063616e6e6f74207265706c7920746f20796f7572206f776e2070757260008201527f636861736520706f737400000000000000000000000000000000000000000000602082015250565b600062002a3f602a8362002291565b915062002a4c82620029e1565b604082019050919050565b6000602082019050818103600083015262002a728162002a30565b9050919050565b62002a84816200216f565b82525050565b6000819050919050565b600060ff82169050919050565b600062002ac262002abc62002ab68462002a8a565b620023b7565b62002a94565b9050919050565b62002ad48162002aa1565b82525050565b600060e08201905062002af1600083018a62002a79565b62002b00602083018962002a79565b62002b0f604083018862002226565b62002b1e606083018762002226565b62002b2d608083018662002ac9565b62002b3c60a083018562002226565b62002b4b60c083018462002226565b98975050505050505050565b62002b6281620023fd565b82525050565b600060408201905062002b7f600083018562002a79565b62002b8e602083018462002b57565b9392505050565b600060408201905062002bac600083018562002a79565b62002bbb602083018462002a79565b9392505050565b7f4e487b7100000000000000000000000000000000000000000000000000000000600052602260045260246000fd5b6000600282049050600182168062002c0a57607f821691505b60208210810362002c205762002c1f62002bc2565b5b50919050565b7f4e487b7100000000000000000000000000000000000000000000000000000000600052603260045260246000fd5b7f6d6573736167652073656e6465722073686f756c64206f6e6c7920626520746860008201527f6520726573706f6e7365206d657373616765207468617420747269676765727360208201527f207061796d656e742070726f6365737300000000000000000000000000000000604082015250565b600062002cd960508362002291565b915062002ce68262002c55565b606082019050919050565b6000602082019050818103600083015262002d0c8162002cca565b9050919050565b60008151905062002d248162002183565b92915050565b60006020828403121562002d435762002d426200210a565b5b600062002d538482850162002d13565b91505092915050565b60008151905062002d6d816200211e565b92915050565b60006020828403121562002d8c5762002d8b6200210a565b5b600062002d9c8482850162002d5c565b91505092915050565b600060208201905062002dbc600083018462002a79565b92915050565b7f496e73756666696369656e7420656c65637472696369747920756e697473206960008201527f6e206163636f756e740000000000000000000000000000000000000000000000602082015250565b600062002e2060298362002291565b915062002e2d8262002dc2565b604082019050919050565b6000602082019050818103600083015262002e538162002e11565b9050919050565b7f4e487b7100000000000000000000000000000000000000000000000000000000600052601160045260246000fd5b600062002e968262002114565b915062002ea38362002114565b925082820390508181111562002ebe5762002ebd62002e5a565b5b92915050565b600060408201905062002edb600083018562002a79565b62002eea602083018462002226565b9392505050565b600060608201905062002f08600083018662002a79565b62002f17602083018562002226565b62002f26604083018462002226565b949350505050565b6000819050919050565b600062002f5962002f5362002f4d8462002f2e565b620023b7565b62002114565b9050919050565b62002f6b8162002f38565b82525050565b600060608201905062002f88600083018662002a79565b62002f97602083018562002f60565b62002fa6604083018462002226565b949350505050565b600062002fbb8262002114565b915062002fc88362002114565b925082820190508082111562002fe35762002fe262002e5a565b5b92915050565b60006200300a6200300462002ffe8462002a8a565b620023b7565b62002114565b9050919050565b6200301c8162002fe9565b82525050565b600060608201905062003039600083018662002a79565b62003048602083018562003011565b62003057604083018462002226565b949350505050565b7f5468652073616c6573207175616e746974792073686f756c64206265206c657360008201527f73207468616e206f7220657175616c20746f207468652070757263686173652060208201527f64656d616e640000000000000000000000000000000000000000000000000000604082015250565b6000620030e360468362002291565b9150620030f0826200305f565b606082019050919050565b600060208201905081810360008301526200311681620030d4565b9050919050565b60006200312a8262002114565b91507fffffffffffffffffffffffffffffffffffffffffffffffffffffffffffffffff82036200315f576200315e62002e5a565b5b600182019050919050565b600060608201905062003181600083018662002226565b62003190602083018562002226565b6200319f604083018462002a79565b949350505050565b6000819050919050565b6000620031d2620031cc620031c684620031a7565b620023b7565b62002114565b9050919050565b620031e481620031b1565b82525050565b6000819050919050565b6000620032156200320f6200320984620031ea565b620023b7565b62002114565b9050919050565b6200322781620031f4565b82525050565b6000606082019050620032446000830186620031d9565b62003253602083018562002226565b6200326260408301846200321c565b949350505050565b600080fd5b600080fd5b7f4e487b7100000000000000000000000000000000000000000000000000000000600052604160045260246000fd5b620032ae82620022ce565b810181811067ffffffffffffffff82111715620032d057620032cf62003274565b5b80604052505050565b6000620032e562002100565b9050620032f38282620032a3565b919050565b600067ffffffffffffffff82111562003316576200331562003274565b5b6200332182620022ce565b9050602081019050919050565b6000620033456200333f84620032f8565b620032d9565b9050828152602081018484840111156200336457620033636200326f565b5b62003371848285620022a2565b509392505050565b600082601f8301126200339157620033906200326a565b5b8151620033a38482602086016200332e565b91505092915050565b600080600060608486031215620033c857620033c76200210a565b5b6000620033d88682870162002d5c565b9350506020620033eb8682870162002d5c565b925050604084015167ffffffffffffffff8111156200340f576200340e6200210f565b5b6200341d8682870162003379565b9150509250925092565b60008190508160005260206000209050919050565b60006020601f8301049050919050565b600082821b905092915050565b6000600883026200348b7fffffffffffffffffffffffffffffffffffffffffffffffffffffffffffffffff826200344c565b6200349786836200344c565b95508019841693508086168417925050509392505050565b6000620034d0620034ca620034c48462002114565b620023b7565b62002114565b9050919050565b6000819050919050565b620034ec83620034af565b62003504620034fb82620034d7565b84845462003459565b825550505050565b600090565b6200351b6200350c565b62003528818484620034e1565b505050565b5b8181101562003550576200354460008262003511565b6001810190506200352e565b5050565b601f8211156200359f57620035698162003427565b62003574846200343c565b8101602085101562003584578190505b6200359c62003593856200343c565b8301826200352d565b50505b505050565b600082821c905092915050565b6000620035c460001984600802620035a4565b1980831691505092915050565b6000620035df8383620035b1565b9150826002028217905092915050565b620035fa8262002286565b67ffffffffffffffff81111562003616576200361562003274565b5b62003622825462002bf1565b6200362f82828562003554565b600060209050601f83116001811462003667576000841562003652578287015190505b6200365e8582620035d1565b865550620036ce565b601f198416620036778662003427565b60005b82811015620036a1578489015182556001820191506020850194506020810190506200367a565b86831015620036c15784890151620036bd601f891682620035b1565b8355505b6001600288020188555050505b505050505050565b6000606082019050620036ed6000830186620031d9565b620036fc602083018562002226565b6200370b604083018462002226565b949350505050565b600067ffffffffffffffff82111562003731576200373062003274565b5b602082029050602081019050919050565b600080fd5b60006200375e620037588462003713565b620032d9565b9050808382526020820190506020840283018581111562003784576200378362003742565b5b835b81811015620037b157806200379c888262002d5c565b84526020840193505060208101905062003786565b5050509392505050565b600082601f830112620037d357620037d26200326a565b5b8151620037e584826020860162003747565b91505092915050565b6000602082840312156200380757620038066200210a565b5b600082015167ffffffffffffffff8111156200382857620038276200210f565b5b6200383684828501620037bb565b91505092915050565b7f7075726368617365207072696365206d7573742062652067726561746572207460008201527f68616e2030000000000000000000000000000000000000000000000000000000602082015250565b60006200389d60258362002291565b9150620038aa826200383f565b604082019050919050565b60006020820190508181036000830152620038d0816200388e565b9050919050565b7f616d6f756e7420746f20627579206d757374206265206772656174657220746860008201527f616e203000000000000000000000000000000000000000000000000000000000602082015250565b60006200393560248362002291565b91506200394282620038d7565b604082019050919050565b60006020820190508181036000830152620039688162003926565b9050919050565b600060808201905062003986600083018762002a79565b62003995602083018662002226565b620039a4604083018562002226565b620039b3606083018462002226565b9594505050505056fe60806040523480156200001157600080fd5b506040516200167738038062001677833981810160405281019062000037919062000225565b86600960006101000a81548173ffffffffffffffffffffffffffffffffffffffff021916908373ffffffffffffffffffffffffffffffffffffffff160217905550856000806101000a81548173ffffffffffffffffffffffffffffffffffffffff021916908373ffffffffffffffffffffffffffffffffffffffff160217905550846002819055506002546001819055508360038190555082600460006101000a81548160ff021916908360ff16021790555081600581905550806006819055506000600760006101000a81548160ff0219169083151502179055506000600760016101000a81548160ff0219169083151502179055504260088190555050505050505050620002d8565b600080fd5b600073ffffffffffffffffffffffffffffffffffffffff82169050919050565b6000620001748262000147565b9050919050565b620001868162000167565b81146200019257600080fd5b50565b600081519050620001a6816200017b565b92915050565b6000819050919050565b620001c181620001ac565b8114620001cd57600080fd5b50565b600081519050620001e181620001b6565b92915050565b600060ff82169050919050565b620001ff81620001e7565b81146200020b57600080fd5b50565b6000815190506200021f81620001f4565b92915050565b600080600080600080600060e0888a03121562000247576200024662000142565b5b6000620002578a828b0162000195565b97505060206200026a8a828b0162000195565b96505060406200027d8a828b01620001d0565b9550506060620002908a828b01620001d0565b9450506080620002a38a828b016200020e565b93505060a0620002b68a828b01620001d0565b92505060c0620002c98a828b01620001d0565b91505092959891949750929550565b61138f80620002e86000396000f3fe6080604052600436106100e15760003560e01c8063a03a202e1161007f578063c32b9b5311610059578063c32b9b5314610449578063cf09e0d014610453578063d67bdd251461047e578063fc1ed437146104a9576102b9565b8063a03a202e146103e9578063aa8c217c14610414578063abf4d6c41461043f576102b9565b80633d855485116100bb5780633d8554851461033d5780633e784e63146103685780635051a5ec1461039357806382fa096a146103be576102b9565b806304dc4cda146102be578063209ebc08146102e95780633013aa2514610314576102b9565b366102b95760003411610129576040517f08c379a000000000000000000000000000000000000000000000000000000000815260040161012090610baf565b60405180910390fd5b60011515600760009054906101000a900460ff1615151461017f576040517f08c379a000000000000000000000000000000000000000000000000000000000815260040161017690610c41565b60405180910390fd5b346003546002546101909190610c9a565b146101d0576040517f08c379a00000000000000000000000000000000000000000000000000000000081526004016101c790610d28565b60405180910390fd5b60001515600760019054906101000a900460ff16151514610226576040517f08c379a000000000000000000000000000000000000000000000000000000000815260040161021d90610d94565b60405180910390fd5b6000600460009054906101000a900460ff1660ff160361024d576102486104d4565b6102b7565b6001600460009054906101000a900460ff1660ff16036102745761026f6106e3565b6102b6565b60006102b5576040517f08c379a00000000000000000000000000000000000000000000000000000000081526004016102ac90610e00565b60405180910390fd5b5b5b005b600080fd5b3480156102ca57600080fd5b506102d36108f2565b6040516102e09190610e3c565b60405180910390f35b3480156102f557600080fd5b506102fe610905565b60405161030b9190610e72565b60405180910390f35b34801561032057600080fd5b5061033b60048036038101906103369190610ebe565b610918565b005b34801561034957600080fd5b50610352610983565b60405161035f9190610efa565b60405180910390f35b34801561037457600080fd5b5061037d610989565b60405161038a9190610efa565b60405180910390f35b34801561039f57600080fd5b506103a861098f565b6040516103b59190610e72565b60405180910390f35b3480156103ca57600080fd5b506103d36109a2565b6040516103e0919061103a565b60405180910390f35b3480156103f557600080fd5b506103fe610aad565b60405161040b9190610efa565b60405180910390f35b34801561042057600080fd5b50610429610ab3565b6040516104369190610efa565b60405180910390f35b6104476104d4565b005b6104516106e3565b005b34801561045f57600080fd5b50610468610ab9565b6040516104759190610efa565b60405180910390f35b34801561048a57600080fd5b50610493610abf565b6040516104a09190611065565b60405180910390f35b3480156104b557600080fd5b506104be610ae3565b6040516104cb9190610efa565b60405180910390f35b60008054906101000a900473ffffffffffffffffffffffffffffffffffffffff1673ffffffffffffffffffffffffffffffffffffffff163373ffffffffffffffffffffffffffffffffffffffff1603610562576040517f08c379a0000000000000000000000000000000000000000000000000000000008152600401610559906110f2565b60405180910390fd5b6000600960009054906101000a900473ffffffffffffffffffffffffffffffffffffffff1673ffffffffffffffffffffffffffffffffffffffff16346005546006546040516024016105b5929190611112565b6040516020818303038152906040527f3d480db5000000000000000000000000000000000000000000000000000000007bffffffffffffffffffffffffffffffffffffffffffffffffffffffff19166020820180517bffffffffffffffffffffffffffffffffffffffffffffffffffffffff838183161783525050505060405161063f91906111ac565b60006040518083038185875af1925050503d806000811461067c576040519150601f19603f3d011682016040523d82523d6000602084013e610681565b606091505b50509050806106c5576040517f08c379a00000000000000000000000000000000000000000000000000000000081526004016106bc9061120f565b60405180910390fd5b6001600760016101000a81548160ff02191690831515021790555050565b60008054906101000a900473ffffffffffffffffffffffffffffffffffffffff1673ffffffffffffffffffffffffffffffffffffffff163373ffffffffffffffffffffffffffffffffffffffff1614610771576040517f08c379a0000000000000000000000000000000000000000000000000000000008152600401610768906112c7565b60405180910390fd5b6000600960009054906101000a900473ffffffffffffffffffffffffffffffffffffffff1673ffffffffffffffffffffffffffffffffffffffff16346005546006546040516024016107c4929190611112565b6040516020818303038152906040527f0876290a000000000000000000000000000000000000000000000000000000007bffffffffffffffffffffffffffffffffffffffffffffffffffffffff19166020820180517bffffffffffffffffffffffffffffffffffffffffffffffffffffffff838183161783525050505060405161084e91906111ac565b60006040518083038185875af1925050503d806000811461088b576040519150601f19603f3d011682016040523d82523d6000602084013e610890565b606091505b50509050806108d4576040517f08c379a00000000000000000000000000000000000000000000000000000000081526004016108cb9061120f565b60405180910390fd5b6001600760016101000a81548160ff02191690831515021790555050565b600460009054906101000a900460ff1681565b600760019054906101000a900460ff1681565b80600760006101000a81548160ff0219169083151502179055507f9161e5ec70df4a8ef9f6085e3435135f3da64c7ec32c271912e1ca8d4afbd7c3600460009054906101000a900460ff1660055460065460405161097893929190611322565b60405180910390a150565b60055481565b60065481565b600760009054906101000a900460ff1681565b6109aa610ae9565b6109b2610ae9565b60008054906101000a900473ffffffffffffffffffffffffffffffffffffffff16816000019073ffffffffffffffffffffffffffffffffffffffff16908173ffffffffffffffffffffffffffffffffffffffff1681525050600254816020018181525050600354816040018181525050600460009054906101000a900460ff16816060019060ff16908160ff16815250506005548160800181815250506006548160a0018181525050600760009054906101000a900460ff168160c0019015159081151581525050600760019054906101000a900460ff168160e0019015159081151581525050600854816101000181815250508091505090565b60035481565b60025481565b60085481565b60008054906101000a900473ffffffffffffffffffffffffffffffffffffffff1681565b60015481565b604051806101200160405280600073ffffffffffffffffffffffffffffffffffffffff1681526020016000815260200160008152602001600060ff1681526020016000815260200160008152602001600015158152602001600015158152602001600081525090565b600082825260208201905092915050565b7f696e76616c6964207061796d656e740000000000000000000000000000000000600082015250565b6000610b99600f83610b52565b9150610ba482610b63565b602082019050919050565b60006020820190508181036000830152610bc881610b8c565b9050919050565b7f796f757220726573706f6e736520686173206e6f74206265656e20616363657060008201527f7465642062792073656c6c657220796574000000000000000000000000000000602082015250565b6000610c2b603183610b52565b9150610c3682610bcf565b604082019050919050565b60006020820190508181036000830152610c5a81610c1e565b9050919050565b6000819050919050565b7f4e487b7100000000000000000000000000000000000000000000000000000000600052601160045260246000fd5b6000610ca582610c61565b9150610cb083610c61565b9250828202610cbe81610c61565b91508282048414831517610cd557610cd4610c6b565b5b5092915050565b7f4e6f742066756c6c792070616964207965740000000000000000000000000000600082015250565b6000610d12601283610b52565b9150610d1d82610cdc565b602082019050919050565b60006020820190508181036000830152610d4181610d05565b9050919050565b7f4f7264657220697320616c726561647920706169642100000000000000000000600082015250565b6000610d7e601683610b52565b9150610d8982610d48565b602082019050919050565b60006020820190508181036000830152610dad81610d71565b9050919050565b7f696e76616c696420726573706f6e7365206d6573736167652074797065000000600082015250565b6000610dea601d83610b52565b9150610df582610db4565b602082019050919050565b60006020820190508181036000830152610e1981610ddd565b9050919050565b600060ff82169050919050565b610e3681610e20565b82525050565b6000602082019050610e516000830184610e2d565b92915050565b60008115159050919050565b610e6c81610e57565b82525050565b6000602082019050610e876000830184610e63565b92915050565b600080fd5b610e9b81610e57565b8114610ea657600080fd5b50565b600081359050610eb881610e92565b92915050565b600060208284031215610ed457610ed3610e8d565b5b6000610ee284828501610ea9565b91505092915050565b610ef481610c61565b82525050565b6000602082019050610f0f6000830184610eeb565b92915050565b600073ffffffffffffffffffffffffffffffffffffffff82169050919050565b6000610f4082610f15565b9050919050565b610f5081610f35565b82525050565b610f5f81610c61565b82525050565b610f6e81610e20565b82525050565b610f7d81610e57565b82525050565b61012082016000820151610f9a6000850182610f47565b506020820151610fad6020850182610f56565b506040820151610fc06040850182610f56565b506060820151610fd36060850182610f65565b506080820151610fe66080850182610f56565b5060a0820151610ff960a0850182610f56565b5060c082015161100c60c0850182610f74565b5060e082015161101f60e0850182610f74565b50610100820151611034610100850182610f56565b50505050565b6000610120820190506110506000830184610f83565b92915050565b61105f81610f35565b82525050565b600060208201905061107a6000830184611056565b92915050565b7f596f752063616e6e6f74206d616b652061207061796d656e7420746f20796f7560008201527f72206f776e2073656c6c696e6720726573706f6e7365206d6573736167650000602082015250565b60006110dc603e83610b52565b91506110e782611080565b604082019050919050565b6000602082019050818103600083015261110b816110cf565b9050919050565b60006040820190506111276000830185610eeb565b6111346020830184610eeb565b9392505050565b600081519050919050565b600081905092915050565b60005b8381101561116f578082015181840152602081019050611154565b60008484015250505050565b60006111868261113b565b6111908185611146565b93506111a0818560208601611151565b80840191505092915050565b60006111b8828461117b565b915081905092915050565b7f7061796d656e74206661696c6564000000000000000000000000000000000000600082015250565b60006111f9600e83610b52565b9150611204826111c3565b602082019050919050565b60006020820190508181036000830152611228816111ec565b9050919050565b7f4f6e6c7920746865206d6573736167652073656e6465722077686f2073656e7460008201527f207468697320726573706f6e736520746f206163717569726520656c6563747260208201527f696369747920756e6974732063616e206d616b652061207061796d656e740000604082015250565b60006112b1605e83610b52565b91506112bc8261122f565b606082019050919050565b600060208201905081810360008301526112e0816112a4565b9050919050565b6000819050919050565b600061130c61130761130284610e20565b6112e7565b610c61565b9050919050565b61131c816112f1565b82525050565b60006060820190506113376000830186611313565b6113446020830185610eeb565b6113516040830184610eeb565b94935050505056fea26469706673582212200f309587aad133a1358204046cb852200eb39670dac388f1c7c6edf67659323564736f6c63430008110033a26469706673582212206f7f358229807e4485413a396cf06485fcc05503adcf5b9c035f7e62e3757c8464736f6c63430008110033",
  "immutableReferences": {},
  "source": "\n//SPDX-License-Identifier: MIT\n\npragma solidity ^0.8.0;\n\nimport \"./BeanStructs.sol\";\nimport \"./UserService.sol\";\nimport \"./StatisticsService.sol\";\nimport \"./Division.sol\";\n\ncontract BuyerService is BeanStructs {\n\n    // ------------------------- storage variables -------------------------\n\n    // map each purchase post to an index\n    mapping(uint => PurchasePost) purchasePostMap;\n    mapping(uint => bool) PurchasePostStatus;       // label purchase post status\n    uint[]  purchasePostKeys;                       // array of keys of purchase posts \n    uint public purchasePostCounter;                // count total number of purchase posts, start from 0\n    \n    string public recentAveragePriceforBuy;         // string to store the float number\n    uint[] public averagePriceforBuy = new uint[](100); //array to store the average transaction price, set length as 100\n    uint public averagePriceforBuyKey;              // key of averagePrice array\n    bool private reachSizeLimit;                    // identify if the size limit of averagePrice array is reached\n\n    // reference to statistics service\n    StatisticsService statisticsService;\n    UserService userService;\n    Division divisionUtils;\n    \n    constructor(StatisticsService _statisticsService, UserService _userService, Division _divisionUtils) {\n        statisticsService = _statisticsService;\n        userService = _userService;\n        divisionUtils = _divisionUtils;\n    }\n\n    // events\n    event PurchasePostCreated(address creator, uint postKey, uint _priceToBuy, uint _amountToBuy);\n    event PurchasePostResponseMessageCreated(address creator, address responseMessageAddress);\n    event PurchasePostPaymentSuccess(uint paymentAmount, uint purchasePostKey, address responseMessageAddress);\n\n\n   \n    // ------------------------- buyer side interaction -------------------------\n    \n    // buyer -  create a new purchase post\n    function createPurchasePost (uint _priceToBuy, uint _amountToBuy, address _msgSender) public {\n            \n            // 1. data validation\n            require(_priceToBuy > 0, \"purchase price must be greater than 0\");\n            require(_amountToBuy > 0, \"amount to buy must be greater than 0\");\n            \n            // 2. save information to the purchase post map\n            purchasePostMap[purchasePostCounter].priceToBuy = _priceToBuy;\n            purchasePostMap[purchasePostCounter].initialAmountToBuy = _amountToBuy;\n            purchasePostMap[purchasePostCounter].amountToBuy = _amountToBuy;           \n            purchasePostMap[purchasePostCounter].buyer = _msgSender;\n            purchasePostMap[purchasePostCounter].enabled = true;\n            purchasePostMap[purchasePostCounter].createdAt = block.timestamp;\n\n            // 3. set post status to true \n            PurchasePostStatus[purchasePostCounter] = true;\n            \n            // 4. save post key to user struct\n            // userMap[_msgSender].purchasePostKeys.push(purchasePostCounter);\n            userService.savePurchasePostKey(_msgSender, purchasePostCounter);\n           \n            // 5. emit event\n            emit PurchasePostCreated( _msgSender, purchasePostCounter, _priceToBuy, _amountToBuy);\n\n            // 6. increment purchase post counter by 1\n            purchasePostCounter++;\n\n\n    }\n\n\n    // seller - create purchase post response messages\n    function createResponseMessageToPurchasePost(uint _amountToSell, uint _quotationInWei, uint _purchasePostKey, address _msgSender) public {\n        \n        // 1. data validation\n        require(_amountToSell > 0, \"amount must be greater than 0\");\n        require(_quotationInWei > 0, \"quotation must be greater than 0\");\n        require(_purchasePostKey >= 0, \"post key starts from 0\");\n        require(_msgSender != purchasePostMap[_purchasePostKey].buyer, \"You cannot reply to your own purchase post\");\n\n        // 2. create a new response message\n        uint messageIndex = purchasePostMap[_purchasePostKey].responseMessages.length;\n        PostResponseMessage message = new PostResponseMessage(address(this), _msgSender, _amountToSell, _quotationInWei, 0, _purchasePostKey, messageIndex );\n        \n        // 3. add the response message to the corresponding purchase post \n        purchasePostMap[_purchasePostKey].responseMessages.push() = message;\n        userService.addResponse(_msgSender, message);\n\n        // 4. emit event\n        emit PurchasePostResponseMessageCreated( _msgSender, address(message));\n\n    }\n\n    // handle payment process from response message, this method will only be called by triggerPurchasePostPayment function in PostResponseMessage contract\n    function handlePurchasePostPostPayment(uint _purchasePostKey, uint _responseMessageIndex) public payable returns (string memory) {\n        \n        // 1.1 data validation\n        PostResponseMessage responseMessage = purchasePostMap[_purchasePostKey].responseMessages[_responseMessageIndex];\n        require(address(responseMessage) == msg.sender, \"message sender should only be the response message that triggers payment process\");  \n        // 1.2 get current time\n        uint transactionTime = block.timestamp;\n\n        \n        // 2.1 update seller's account information\n        address seller = responseMessage.messageSender();\n        require( userService.getAvailableElecUnits(seller) >= responseMessage.amount(), \"Insufficient electricity units in account\");\n        // userMap[seller].availableElecUnits -= responseMessage.amount();\n        userService.setAvailableElecUnits(seller, userService.getAvailableElecUnits(seller) - responseMessage.amount());\n\n        // 2.2 update seller's statistics (statistics service required)\n        statisticsService.updateTotalSell(seller, responseMessage.amount());\n        statisticsService.addOneElectricSellTransaction(seller, transactionTime, responseMessage.amount());\n        // 2.2.1 update seller's transaction sequence map to record all transactions regardless of type in sequential order (statistics service required)\n        statisticsService.addTransactionToSequenceMap(seller, 1, transactionTime);\n\n        // 3.1 update buyer's account information\n        address buyer = purchasePostMap[_purchasePostKey].buyer;\n        // userMap[buyer].availableElecUnits += responseMessage.amount();   \n        userService.setAvailableElecUnits(buyer, userService.getAvailableElecUnits(buyer) + responseMessage.amount());     \n        \n        // 3.2 update buyer's statistics (statistics service required)\n        statisticsService.updateTotalBuy(buyer, responseMessage.amount());\n        statisticsService.addOneElectricBuyTransaction(buyer, transactionTime, responseMessage.amount());\n        // 3.2.1 update buyer's transaction sequence map (statistics service required)\n        statisticsService.addTransactionToSequenceMap(buyer, 0, transactionTime);\n        \n        // 4. update purchase post information\n        // 1) deduct purchase amount accordingly \n        require(purchasePostMap[_purchasePostKey].amountToBuy >= responseMessage.amount(), \"The sales quantity should be less than or equal to the purchase demand\");\n        purchasePostMap[_purchasePostKey].amountToBuy -= responseMessage.amount();\n        // 2) set post to disabled if sales quantity match purchase demand \n        if (purchasePostMap[_purchasePostKey].amountToBuy == 0) {\n            purchasePostMap[_purchasePostKey].enabled = false;\n        }\n\n        // 5. record unit transaction price\n        if (averagePriceforBuyKey == 100){\n            reachSizeLimit = true;\n            averagePriceforBuyKey = 0;\n        }\n        averagePriceforBuy[averagePriceforBuyKey++] = responseMessage.quotationInWei();\n\n        // 6. transfer ether to seller's account\n        payable(seller).transfer(msg.value);\n        \n        // 7. emit event\n        emit PurchasePostPaymentSuccess(msg.value, _purchasePostKey, address(responseMessage));\n        // 8. return success message\n        return \"success\";\n        \n    }\n\n    // update the unit transaction price into array\n    function updateRecentAveragePriceforBuy() public {\n        uint recentTotalPriceforBuy = 0;\n        for (uint i = 0; i < averagePriceforBuy.length; i++) {\n            recentTotalPriceforBuy += averagePriceforBuy[i];\n        }\n        if (reachSizeLimit) {\n            (, , recentAveragePriceforBuy) = divisionUtils.division(3, recentTotalPriceforBuy, 100);\n        } else {\n            (, , recentAveragePriceforBuy) = divisionUtils.division(3, recentTotalPriceforBuy, averagePriceforBuyKey);\n        }\n    }\n\n\n    // ------------------------- buyer side utils -------------------------\n    \n    // returns all purchase posts by user address\n    function returnAllPurchasePostsByAddress(address _account) public view returns (PurchasePost[] memory) {\n        // uint[] memory keys = userMap[_account].purchasePostKeys;\n        uint[] memory keys = userService.getPurchasePostKeys(_account);\n        PurchasePost[] memory purchasePosts = new PurchasePost[](keys.length);\n        for (uint i = 0; i < keys.length; i++) {\n            purchasePosts[i]  = purchasePostMap[keys[i]]; \n        }\n        return purchasePosts;\n    }\n\n    // return total number of purchase posts in the system\n    function returnPurchasePostMapSize() public view returns(uint) {\n        return purchasePostCounter;\n    }\n\n    // return one purchase post by key\n    function getPurchasePostByKey(uint _postKey) public view returns(PurchasePost memory) {\n        return purchasePostMap[_postKey];\n    }\n\n    // return all response messages of a purchase post by post key\n    function returnPurchasePostResponseMessagesByKey(uint _postKey) public view returns(PostResponseMessage[] memory){\n        require(_postKey >= 0, \"post key starts from 0\");\n        return purchasePostMap[_postKey].responseMessages;\n    }\n    \n    // return the recent average price for buy transaction\n    function returnRecentAveragePriceforBuy() public view returns (string memory) {\n        return recentAveragePriceforBuy;\n    }\n\n\n}\n",
  "sourcePath": "/Users/richard/Doc//sydney_study/22s2/5703/vue-web3-5703/truffle/contracts/BuyerService.sol",
  "compiler": {
    "name": "solc",
    "version": "0.8.17+commit.8df45f5f.Emscripten.clang"
  },
  "schemaVersion": "3.4.9",
  "updatedAt": "2022-11-11T11:27:33.472Z",
  "devdoc": {
    "kind": "dev",
    "methods": {},
    "version": 1
  },
  "userdoc": {
    "kind": "user",
    "methods": {},
    "version": 1
  }
}