{
  "contractName": "BuyerModule",
  "abi": [
    {
      "anonymous": false,
      "inputs": [
        {
          "indexed": false,
          "internalType": "address",
          "name": "creator",
          "type": "address"
        },
        {
          "indexed": false,
          "internalType": "uint256",
          "name": "postKey",
          "type": "uint256"
        },
        {
          "indexed": false,
          "internalType": "uint256",
          "name": "_priceToBuy",
          "type": "uint256"
        },
        {
          "indexed": false,
          "internalType": "uint256",
          "name": "_amountToBuy",
          "type": "uint256"
        }
      ],
      "name": "PurchasePostCreated",
      "type": "event"
    },
    {
      "anonymous": false,
      "inputs": [
        {
          "indexed": false,
          "internalType": "uint256",
          "name": "paymentAmount",
          "type": "uint256"
        },
        {
          "indexed": false,
          "internalType": "uint256",
          "name": "purchasePostKey",
          "type": "uint256"
        },
        {
          "indexed": false,
          "internalType": "address",
          "name": "responseMessageAddress",
          "type": "address"
        }
      ],
      "name": "PurchasePostPaymentSuccess",
      "type": "event"
    },
    {
      "anonymous": false,
      "inputs": [
        {
          "indexed": false,
          "internalType": "address",
          "name": "creator",
          "type": "address"
        },
        {
          "indexed": false,
          "internalType": "address",
          "name": "responseMessageAddress",
          "type": "address"
        }
      ],
      "name": "PurchasePostResponseMessageCreated",
      "type": "event"
    },
    {
      "anonymous": false,
      "inputs": [
        {
          "indexed": false,
          "internalType": "address",
          "name": "creator",
          "type": "address"
        },
        {
          "indexed": false,
          "internalType": "uint256",
          "name": "postKey",
          "type": "uint256"
        },
        {
          "indexed": false,
          "internalType": "uint256",
          "name": "_priceToBuy",
          "type": "uint256"
        },
        {
          "indexed": false,
          "internalType": "uint256",
          "name": "_amountToBuy",
          "type": "uint256"
        }
      ],
      "name": "SellingPostCreated",
      "type": "event"
    },
    {
      "anonymous": false,
      "inputs": [
        {
          "indexed": false,
          "internalType": "uint256",
          "name": "paymentAmount",
          "type": "uint256"
        },
        {
          "indexed": false,
          "internalType": "uint256",
          "name": "sellingPostKey",
          "type": "uint256"
        },
        {
          "indexed": false,
          "internalType": "address",
          "name": "responseMessageAddress",
          "type": "address"
        }
      ],
      "name": "SellingPostPaymentSuccess",
      "type": "event"
    },
    {
      "anonymous": false,
      "inputs": [
        {
          "indexed": false,
          "internalType": "address",
          "name": "creator",
          "type": "address"
        },
        {
          "indexed": false,
          "internalType": "address",
          "name": "responseMessageAddress",
          "type": "address"
        }
      ],
      "name": "SellingPostResponseMessageCreated",
      "type": "event"
    },
    {
      "inputs": [],
      "name": "purchasePostCounter",
      "outputs": [
        {
          "internalType": "uint256",
          "name": "",
          "type": "uint256"
        }
      ],
      "stateMutability": "view",
      "type": "function"
    },
    {
      "inputs": [
        {
          "internalType": "address",
          "name": "",
          "type": "address"
        }
      ],
      "name": "userMap",
      "outputs": [
        {
          "internalType": "string",
          "name": "username",
          "type": "string"
        },
        {
          "internalType": "uint256",
          "name": "availableElecUnits",
          "type": "uint256"
        }
      ],
      "stateMutability": "view",
      "type": "function"
    },
    {
      "inputs": [
        {
          "internalType": "uint256",
          "name": "_priceToBuy",
          "type": "uint256"
        },
        {
          "internalType": "uint256",
          "name": "_amountToBuy",
          "type": "uint256"
        }
      ],
      "name": "createPurchasePost",
      "outputs": [],
      "stateMutability": "nonpayable",
      "type": "function"
    },
    {
      "inputs": [
        {
          "internalType": "uint256",
          "name": "_amountToSell",
          "type": "uint256"
        },
        {
          "internalType": "uint256",
          "name": "_quotationInWei",
          "type": "uint256"
        },
        {
          "internalType": "uint256",
          "name": "_purchasePostKey",
          "type": "uint256"
        }
      ],
      "name": "createResponseMessageToPurchasePost",
      "outputs": [],
      "stateMutability": "nonpayable",
      "type": "function"
    },
    {
      "inputs": [
        {
          "internalType": "uint256",
          "name": "_purchasePostKey",
          "type": "uint256"
        },
        {
          "internalType": "uint256",
          "name": "_responseMessageIndex",
          "type": "uint256"
        }
      ],
      "name": "triggerPayment",
      "outputs": [],
      "stateMutability": "payable",
      "type": "function"
    }
  ],
  "bytecode": "0x608060405234801561001057600080fd5b50612c1b806100206000396000f3fe608060405260043610620000505760003560e01c80632bcc23f814620000555780634659d79f146200009a5780637bf4d41514620000ca578063d378b5fe14620000ea578063f139c0631462000118575b600080fd5b3480156200006257600080fd5b506200008160048036038101906200007b919062000dbe565b62000146565b6040516200009192919062000ea5565b60405180910390f35b348015620000a757600080fd5b50620000b2620001fa565b604051620000c1919062000ed9565b60405180910390f35b620000e86004803603810190620000e2919062000f27565b62000200565b005b348015620000f757600080fd5b5062000116600480360381019062000110919062000f6e565b62000852565b005b3480156200012557600080fd5b506200014460048036038101906200013e919062000f27565b62000ae5565b005b60006020528060005260406000206000915090508060000180546200016b9062000ff9565b80601f0160208091040260200160405190810160405280929190818152602001828054620001999062000ff9565b8015620001ea5780601f10620001be57610100808354040283529160200191620001ea565b820191906000526020600020905b815481529060010190602001808311620001cc57829003601f168201915b5050505050908060010154905082565b60045481565b60006001600084815260200190815260200160002060040182815481106200022d576200022c6200102e565b5b9060005260206000200160009054906101000a900473ffffffffffffffffffffffffffffffffffffffff1690503373ffffffffffffffffffffffffffffffffffffffff168173ffffffffffffffffffffffffffffffffffffffff1614620002cb576040517f08c379a0000000000000000000000000000000000000000000000000000000008152600401620002c290620010d3565b60405180910390fd5b60008173ffffffffffffffffffffffffffffffffffffffff1663d67bdd256040518163ffffffff1660e01b8152600401602060405180830381865afa15801562000319573d6000803e3d6000fd5b505050506040513d601f19601f820116820180604052508101906200033f91906200110c565b90508173ffffffffffffffffffffffffffffffffffffffff1663aa8c217c6040518163ffffffff1660e01b8152600401602060405180830381865afa1580156200038d573d6000803e3d6000fd5b505050506040513d601f19601f82011682018060405250810190620003b3919062001155565b6000808373ffffffffffffffffffffffffffffffffffffffff1673ffffffffffffffffffffffffffffffffffffffff16815260200190815260200160002060010154101562000439576040517f08c379a00000000000000000000000000000000000000000000000000000000081526004016200043090620011fd565b60405180910390fd5b8173ffffffffffffffffffffffffffffffffffffffff1663aa8c217c6040518163ffffffff1660e01b8152600401602060405180830381865afa15801562000485573d6000803e3d6000fd5b505050506040513d601f19601f82011682018060405250810190620004ab919062001155565b6000808373ffffffffffffffffffffffffffffffffffffffff1673ffffffffffffffffffffffffffffffffffffffff1681526020019081526020016000206001016000828254620004fd91906200124e565b9250508190555060006001600086815260200190815260200160002060020160009054906101000a900473ffffffffffffffffffffffffffffffffffffffff1690508273ffffffffffffffffffffffffffffffffffffffff1663aa8c217c6040518163ffffffff1660e01b8152600401602060405180830381865afa1580156200058b573d6000803e3d6000fd5b505050506040513d601f19601f82011682018060405250810190620005b1919062001155565b6000808373ffffffffffffffffffffffffffffffffffffffff1673ffffffffffffffffffffffffffffffffffffffff168152602001908152602001600020600101600082825462000603919062001289565b925050819055508273ffffffffffffffffffffffffffffffffffffffff1663aa8c217c6040518163ffffffff1660e01b8152600401602060405180830381865afa15801562000656573d6000803e3d6000fd5b505050506040513d601f19601f820116820180604052508101906200067c919062001155565b60016000878152602001908152602001600020600101541015620006d7576040517f08c379a0000000000000000000000000000000000000000000000000000000008152600401620006ce9062001360565b60405180910390fd5b8273ffffffffffffffffffffffffffffffffffffffff1663aa8c217c6040518163ffffffff1660e01b8152600401602060405180830381865afa15801562000723573d6000803e3d6000fd5b505050506040513d601f19601f8201168201806040525081019062000749919062001155565b6001600087815260200190815260200160002060010160008282546200077091906200124e565b925050819055506000600160008781526020019081526020016000206001015403620007c65760006001600087815260200190815260200160002060020160146101000a81548160ff0219169083151502179055505b8173ffffffffffffffffffffffffffffffffffffffff166108fc349081150290604051600060405180830381858888f193505050501580156200080d573d6000803e3d6000fd5b507faa5ef240d12945dacdcfd9ecc9a86ba7fa61f117ef9e9626465aa252e6dd5b66348685604051620008439392919062001393565b60405180910390a15050505050565b6000831162000898576040517f08c379a00000000000000000000000000000000000000000000000000000000081526004016200088f9062001420565b60405180910390fd5b60008211620008de576040517f08c379a0000000000000000000000000000000000000000000000000000000008152600401620008d59062001492565b60405180910390fd5b600081101562000925576040517f08c379a00000000000000000000000000000000000000000000000000000000081526004016200091c9062001504565b60405180910390fd5b6001600082815260200190815260200160002060020160009054906101000a900473ffffffffffffffffffffffffffffffffffffffff1673ffffffffffffffffffffffffffffffffffffffff163373ffffffffffffffffffffffffffffffffffffffff1603620009cc576040517f08c379a0000000000000000000000000000000000000000000000000000000008152600401620009c3906200159c565b60405180910390fd5b6000600160008381526020019081526020016000206004018054905090506000303386866000878760405162000a029062000d46565b62000a14979695949392919062001618565b604051809103906000f08015801562000a31573d6000803e3d6000fd5b5090508060016000858152602001908152602001600020600401600181600181540180825580915050039060005260206000200160006101000a81548173ffffffffffffffffffffffffffffffffffffffff021916908373ffffffffffffffffffffffffffffffffffffffff1602179055507f83c1d63a3e3cd3d3a92a899ed2f341bd373a5326ebf67b9bd646543e55081ebc338260405162000ad692919062001695565b60405180910390a15050505050565b6000821162000b2b576040517f08c379a000000000000000000000000000000000000000000000000000000000815260040162000b229062001738565b60405180910390fd5b6000811162000b71576040517f08c379a000000000000000000000000000000000000000000000000000000000815260040162000b6890620017d0565b60405180910390fd5b816001600060045481526020019081526020016000206000018190555080600160006004548152602001908152602001600020600101819055503360016000600454815260200190815260200160002060020160006101000a81548173ffffffffffffffffffffffffffffffffffffffff021916908373ffffffffffffffffffffffffffffffffffffffff1602179055506001806000600454815260200190815260200160002060020160146101000a81548160ff0219169083151502179055504260016000600454815260200190815260200160002060030181905550600160026000600454815260200190815260200160002060006101000a81548160ff0219169083151502179055506000803373ffffffffffffffffffffffffffffffffffffffff1673ffffffffffffffffffffffffffffffffffffffff16815260200190815260200160002060020160045490806001815401808255809150506001900390600052602060002001600090919091909150557fb327665b1bbfd6560701e012c966f02c9abe3e3b1afa5c084bfa31ed1e70107133600454848460405162000d209493929190620017f2565b60405180910390a16004600081548092919062000d3d906200183f565b91905055505050565b611359806200188d83390190565b600080fd5b600073ffffffffffffffffffffffffffffffffffffffff82169050919050565b600062000d868262000d59565b9050919050565b62000d988162000d79565b811462000da457600080fd5b50565b60008135905062000db88162000d8d565b92915050565b60006020828403121562000dd75762000dd662000d54565b5b600062000de78482850162000da7565b91505092915050565b600081519050919050565b600082825260208201905092915050565b60005b8381101562000e2c57808201518184015260208101905062000e0f565b60008484015250505050565b6000601f19601f8301169050919050565b600062000e568262000df0565b62000e62818562000dfb565b935062000e7481856020860162000e0c565b62000e7f8162000e38565b840191505092915050565b6000819050919050565b62000e9f8162000e8a565b82525050565b6000604082019050818103600083015262000ec1818562000e49565b905062000ed2602083018462000e94565b9392505050565b600060208201905062000ef0600083018462000e94565b92915050565b62000f018162000e8a565b811462000f0d57600080fd5b50565b60008135905062000f218162000ef6565b92915050565b6000806040838503121562000f415762000f4062000d54565b5b600062000f518582860162000f10565b925050602062000f648582860162000f10565b9150509250929050565b60008060006060848603121562000f8a5762000f8962000d54565b5b600062000f9a8682870162000f10565b935050602062000fad8682870162000f10565b925050604062000fc08682870162000f10565b9150509250925092565b7f4e487b7100000000000000000000000000000000000000000000000000000000600052602260045260246000fd5b600060028204905060018216806200101257607f821691505b60208210810362001028576200102762000fca565b5b50919050565b7f4e487b7100000000000000000000000000000000000000000000000000000000600052603260045260246000fd5b7f4f6e6c7920726573706f6e7365206d657373616765732061726520616c6c6f7760008201527f656420746f2074726967676572207061796d656e742070726f63657373000000602082015250565b6000620010bb603d8362000dfb565b9150620010c8826200105d565b604082019050919050565b60006020820190508181036000830152620010ee81620010ac565b9050919050565b600081519050620011068162000d8d565b92915050565b60006020828403121562001125576200112462000d54565b5b60006200113584828501620010f5565b91505092915050565b6000815190506200114f8162000ef6565b92915050565b6000602082840312156200116e576200116d62000d54565b5b60006200117e848285016200113e565b91505092915050565b7f496e73756666696369656e7420656c65637472696369747920756e697473206960008201527f6e206163636f756e740000000000000000000000000000000000000000000000602082015250565b6000620011e560298362000dfb565b9150620011f28262001187565b604082019050919050565b600060208201905081810360008301526200121881620011d6565b9050919050565b7f4e487b7100000000000000000000000000000000000000000000000000000000600052601160045260246000fd5b60006200125b8262000e8a565b9150620012688362000e8a565b92508282039050818111156200128357620012826200121f565b5b92915050565b6000620012968262000e8a565b9150620012a38362000e8a565b9250828201905080821115620012be57620012bd6200121f565b5b92915050565b7f5468652073616c6573207175616e746974792073686f756c64206265206c657360008201527f73207468616e206f7220657175616c20746f207468652070757263686173652060208201527f64656d616e640000000000000000000000000000000000000000000000000000604082015250565b60006200134860468362000dfb565b91506200135582620012c4565b606082019050919050565b600060208201905081810360008301526200137b8162001339565b9050919050565b6200138d8162000d79565b82525050565b6000606082019050620013aa600083018662000e94565b620013b9602083018562000e94565b620013c8604083018462001382565b949350505050565b7f616d6f756e74206d7573742062652067726561746572207468616e2030000000600082015250565b600062001408601d8362000dfb565b91506200141582620013d0565b602082019050919050565b600060208201905081810360008301526200143b81620013f9565b9050919050565b7f71756f746174696f6e206d7573742062652067726561746572207468616e2030600082015250565b60006200147a60208362000dfb565b9150620014878262001442565b602082019050919050565b60006020820190508181036000830152620014ad816200146b565b9050919050565b7f706f7374206b6579207374617274732066726f6d203000000000000000000000600082015250565b6000620014ec60168362000dfb565b9150620014f982620014b4565b602082019050919050565b600060208201905081810360008301526200151f81620014dd565b9050919050565b7f596f752063616e6e6f74207265706c7920746f20796f7572206f776e2070757260008201527f636861736520706f737400000000000000000000000000000000000000000000602082015250565b600062001584602a8362000dfb565b9150620015918262001526565b604082019050919050565b60006020820190508181036000830152620015b78162001575565b9050919050565b6000819050919050565b600060ff82169050919050565b6000819050919050565b600062001600620015fa620015f484620015be565b620015d5565b620015c8565b9050919050565b6200161281620015df565b82525050565b600060e0820190506200162f600083018a62001382565b6200163e602083018962001382565b6200164d604083018862000e94565b6200165c606083018762000e94565b6200166b608083018662001607565b6200167a60a083018562000e94565b6200168960c083018462000e94565b98975050505050505050565b6000604082019050620016ac600083018562001382565b620016bb602083018462001382565b9392505050565b7f7075726368617365207072696365206d7573742062652067726561746572207460008201527f68616e2030000000000000000000000000000000000000000000000000000000602082015250565b60006200172060258362000dfb565b91506200172d82620016c2565b604082019050919050565b60006020820190508181036000830152620017538162001711565b9050919050565b7f616d6f756e7420746f20627579206d757374206265206772656174657220746860008201527f616e203000000000000000000000000000000000000000000000000000000000602082015250565b6000620017b860248362000dfb565b9150620017c5826200175a565b604082019050919050565b60006020820190508181036000830152620017eb81620017a9565b9050919050565b600060808201905062001809600083018762001382565b62001818602083018662000e94565b62001827604083018562000e94565b62001836606083018462000e94565b95945050505050565b60006200184c8262000e8a565b91507fffffffffffffffffffffffffffffffffffffffffffffffffffffffffffffffff82036200188157620018806200121f565b5b60018201905091905056fe60806040523480156200001157600080fd5b50604051620013593803806200135983398181016040528101906200003791906200021c565b86600860006101000a81548173ffffffffffffffffffffffffffffffffffffffff021916908373ffffffffffffffffffffffffffffffffffffffff160217905550856000806101000a81548173ffffffffffffffffffffffffffffffffffffffff021916908373ffffffffffffffffffffffffffffffffffffffff160217905550846001819055508360028190555082600360006101000a81548160ff021916908360ff16021790555081600481905550806005819055506000600660006101000a81548160ff0219169083151502179055506000600660016101000a81548160ff0219169083151502179055504260078190555050505050505050620002cf565b600080fd5b600073ffffffffffffffffffffffffffffffffffffffff82169050919050565b60006200016b826200013e565b9050919050565b6200017d816200015e565b81146200018957600080fd5b50565b6000815190506200019d8162000172565b92915050565b6000819050919050565b620001b881620001a3565b8114620001c457600080fd5b50565b600081519050620001d881620001ad565b92915050565b600060ff82169050919050565b620001f681620001de565b81146200020257600080fd5b50565b6000815190506200021681620001eb565b92915050565b600080600080600080600060e0888a0312156200023e576200023d62000139565b5b60006200024e8a828b016200018c565b9750506020620002618a828b016200018c565b9650506040620002748a828b01620001c7565b9550506060620002878a828b01620001c7565b94505060806200029a8a828b0162000205565b93505060a0620002ad8a828b01620001c7565b92505060c0620002c08a828b01620001c7565b91505092959891949750929550565b61107a80620002df6000396000f3fe6080604052600436106100ab5760003560e01c8063a03a202e11610064578063a03a202e14610388578063aa8c217c146103b3578063abf4d6c4146103de578063c32b9b53146103e8578063cf09e0d0146103f2578063d67bdd251461041d57610283565b806304dc4cda14610288578063209ebc08146102b35780633013aa25146102de5780633d855485146103075780633e784e63146103325780635051a5ec1461035d57610283565b3661028357600034116100f3576040517f08c379a00000000000000000000000000000000000000000000000000000000081526004016100ea906109a9565b60405180910390fd5b60011515600660009054906101000a900460ff16151514610149576040517f08c379a000000000000000000000000000000000000000000000000000000000815260040161014090610a3b565b60405180910390fd5b3460025460015461015a9190610a94565b1461019a576040517f08c379a000000000000000000000000000000000000000000000000000000000815260040161019190610b22565b60405180910390fd5b60001515600660019054906101000a900460ff161515146101f0576040517f08c379a00000000000000000000000000000000000000000000000000000000081526004016101e790610b8e565b60405180910390fd5b6000600360009054906101000a900460ff1660ff160361021757610212610448565b610281565b6001600360009054906101000a900460ff1660ff160361023e57610239610657565b610280565b600061027f576040517f08c379a000000000000000000000000000000000000000000000000000000000815260040161027690610bfa565b60405180910390fd5b5b5b005b600080fd5b34801561029457600080fd5b5061029d610866565b6040516102aa9190610c36565b60405180910390f35b3480156102bf57600080fd5b506102c8610879565b6040516102d59190610c6c565b60405180910390f35b3480156102ea57600080fd5b5061030560048036038101906103009190610cb8565b61088c565b005b34801561031357600080fd5b5061031c6108f7565b6040516103299190610cf4565b60405180910390f35b34801561033e57600080fd5b506103476108fd565b6040516103549190610cf4565b60405180910390f35b34801561036957600080fd5b50610372610903565b60405161037f9190610c6c565b60405180910390f35b34801561039457600080fd5b5061039d610916565b6040516103aa9190610cf4565b60405180910390f35b3480156103bf57600080fd5b506103c861091c565b6040516103d59190610cf4565b60405180910390f35b6103e6610448565b005b6103f0610657565b005b3480156103fe57600080fd5b50610407610922565b6040516104149190610cf4565b60405180910390f35b34801561042957600080fd5b50610432610928565b60405161043f9190610d50565b60405180910390f35b60008054906101000a900473ffffffffffffffffffffffffffffffffffffffff1673ffffffffffffffffffffffffffffffffffffffff163373ffffffffffffffffffffffffffffffffffffffff16036104d6576040517f08c379a00000000000000000000000000000000000000000000000000000000081526004016104cd90610ddd565b60405180910390fd5b6000600860009054906101000a900473ffffffffffffffffffffffffffffffffffffffff1673ffffffffffffffffffffffffffffffffffffffff1634600454600554604051602401610529929190610dfd565b6040516020818303038152906040527f7bf4d415000000000000000000000000000000000000000000000000000000007bffffffffffffffffffffffffffffffffffffffffffffffffffffffff19166020820180517bffffffffffffffffffffffffffffffffffffffffffffffffffffffff83818316178352505050506040516105b39190610e97565b60006040518083038185875af1925050503d80600081146105f0576040519150601f19603f3d011682016040523d82523d6000602084013e6105f5565b606091505b5050905080610639576040517f08c379a000000000000000000000000000000000000000000000000000000000815260040161063090610efa565b60405180910390fd5b6001600660016101000a81548160ff02191690831515021790555050565b60008054906101000a900473ffffffffffffffffffffffffffffffffffffffff1673ffffffffffffffffffffffffffffffffffffffff163373ffffffffffffffffffffffffffffffffffffffff16146106e5576040517f08c379a00000000000000000000000000000000000000000000000000000000081526004016106dc90610fb2565b60405180910390fd5b6000600860009054906101000a900473ffffffffffffffffffffffffffffffffffffffff1673ffffffffffffffffffffffffffffffffffffffff1634600454600554604051602401610738929190610dfd565b6040516020818303038152906040527f0876290a000000000000000000000000000000000000000000000000000000007bffffffffffffffffffffffffffffffffffffffffffffffffffffffff19166020820180517bffffffffffffffffffffffffffffffffffffffffffffffffffffffff83818316178352505050506040516107c29190610e97565b60006040518083038185875af1925050503d80600081146107ff576040519150601f19603f3d011682016040523d82523d6000602084013e610804565b606091505b5050905080610848576040517f08c379a000000000000000000000000000000000000000000000000000000000815260040161083f90610efa565b60405180910390fd5b6001600660016101000a81548160ff02191690831515021790555050565b600360009054906101000a900460ff1681565b600660019054906101000a900460ff1681565b80600660006101000a81548160ff0219169083151502179055507f9161e5ec70df4a8ef9f6085e3435135f3da64c7ec32c271912e1ca8d4afbd7c3600360009054906101000a900460ff166004546005546040516108ec9392919061100d565b60405180910390a150565b60045481565b60055481565b600660009054906101000a900460ff1681565b60025481565b60015481565b60075481565b60008054906101000a900473ffffffffffffffffffffffffffffffffffffffff1681565b600082825260208201905092915050565b7f696e76616c6964207061796d656e740000000000000000000000000000000000600082015250565b6000610993600f8361094c565b915061099e8261095d565b602082019050919050565b600060208201905081810360008301526109c281610986565b9050919050565b7f796f757220726573706f6e736520686173206e6f74206265656e20616363657060008201527f7465642062792073656c6c657220796574000000000000000000000000000000602082015250565b6000610a2560318361094c565b9150610a30826109c9565b604082019050919050565b60006020820190508181036000830152610a5481610a18565b9050919050565b6000819050919050565b7f4e487b7100000000000000000000000000000000000000000000000000000000600052601160045260246000fd5b6000610a9f82610a5b565b9150610aaa83610a5b565b9250828202610ab881610a5b565b91508282048414831517610acf57610ace610a65565b5b5092915050565b7f4e6f742066756c6c792070616964207965740000000000000000000000000000600082015250565b6000610b0c60128361094c565b9150610b1782610ad6565b602082019050919050565b60006020820190508181036000830152610b3b81610aff565b9050919050565b7f4f7264657220697320616c726561647920706169642100000000000000000000600082015250565b6000610b7860168361094c565b9150610b8382610b42565b602082019050919050565b60006020820190508181036000830152610ba781610b6b565b9050919050565b7f696e76616c696420726573706f6e7365206d6573736167652074797065000000600082015250565b6000610be4601d8361094c565b9150610bef82610bae565b602082019050919050565b60006020820190508181036000830152610c1381610bd7565b9050919050565b600060ff82169050919050565b610c3081610c1a565b82525050565b6000602082019050610c4b6000830184610c27565b92915050565b60008115159050919050565b610c6681610c51565b82525050565b6000602082019050610c816000830184610c5d565b92915050565b600080fd5b610c9581610c51565b8114610ca057600080fd5b50565b600081359050610cb281610c8c565b92915050565b600060208284031215610cce57610ccd610c87565b5b6000610cdc84828501610ca3565b91505092915050565b610cee81610a5b565b82525050565b6000602082019050610d096000830184610ce5565b92915050565b600073ffffffffffffffffffffffffffffffffffffffff82169050919050565b6000610d3a82610d0f565b9050919050565b610d4a81610d2f565b82525050565b6000602082019050610d656000830184610d41565b92915050565b7f596f752063616e6e6f74206d616b652061207061796d656e7420746f20796f7560008201527f72206f776e2073656c6c696e6720726573706f6e7365206d6573736167650000602082015250565b6000610dc7603e8361094c565b9150610dd282610d6b565b604082019050919050565b60006020820190508181036000830152610df681610dba565b9050919050565b6000604082019050610e126000830185610ce5565b610e1f6020830184610ce5565b9392505050565b600081519050919050565b600081905092915050565b60005b83811015610e5a578082015181840152602081019050610e3f565b60008484015250505050565b6000610e7182610e26565b610e7b8185610e31565b9350610e8b818560208601610e3c565b80840191505092915050565b6000610ea38284610e66565b915081905092915050565b7f7061796d656e74206661696c6564000000000000000000000000000000000000600082015250565b6000610ee4600e8361094c565b9150610eef82610eae565b602082019050919050565b60006020820190508181036000830152610f1381610ed7565b9050919050565b7f4f6e6c7920746865206d6573736167652073656e6465722077686f2073656e7460008201527f207468697320726573706f6e736520746f206163717569726520656c6563747260208201527f696369747920756e6974732063616e206d616b652061207061796d656e740000604082015250565b6000610f9c605e8361094c565b9150610fa782610f1a565b606082019050919050565b60006020820190508181036000830152610fcb81610f8f565b9050919050565b6000819050919050565b6000610ff7610ff2610fed84610c1a565b610fd2565b610a5b565b9050919050565b61100781610fdc565b82525050565b60006060820190506110226000830186610ffe565b61102f6020830185610ce5565b61103c6040830184610ce5565b94935050505056fea26469706673582212200fd7ad3d201d44c2ac4ef12e46eceab5ab9f46a536d09a4472c5b4f8abcc19d164736f6c63430008110033a2646970667358221220445404f5d168dab5e681590c21feea852817066ce8dcd57bfc80e1abef396dba64736f6c63430008110033",
  "immutableReferences": {},
  "source": "\n//SPDX-License-Identifier: MIT\n\npragma solidity ^0.8.0;\n\nimport \"./PostResponseMessage.sol\";\nimport \"./BasicModule.sol\";\n\ncontract BuyerModule is BasicModule {\n\n    // ------------------------- storage variables -------------------------\n\n    // map each purchase post to an index\n    mapping(uint => PurchasePost) purchasePostMap;\n    mapping(uint => bool) PurchasePostStatus;       // label purchase post status\n    uint[]  purchasePostKeys;                        // array of keys of purchase posts \n    uint public purchasePostCounter;                   // count total number of purchase posts, start from 0\n  \n    struct PurchasePost{\n        uint priceToBuy;\n        uint amountToBuy;\n        address buyer;\n        bool enabled;\n        uint createdAt;\n        PostResponseMessage[] responseMessages;  // response messages attached to this purchase post \n    }\n   \n    // ------------------------- buyer side interaction -------------------------\n    \n    // buyer -  create a new purchase post\n    function createPurchasePost (uint _priceToBuy, uint _amountToBuy) public {\n            \n            // 1. data validation\n            require(_priceToBuy > 0, \"purchase price must be greater than 0\");\n            require(_amountToBuy > 0, \"amount to buy must be greater than 0\");\n            \n            // 2. save information to the purchase post map\n            purchasePostMap[purchasePostCounter].priceToBuy = _priceToBuy;\n            purchasePostMap[purchasePostCounter].amountToBuy = _amountToBuy;          \n            purchasePostMap[purchasePostCounter].buyer = msg.sender;\n            purchasePostMap[purchasePostCounter].enabled = true;\n            purchasePostMap[purchasePostCounter].createdAt = block.timestamp;\n\n            // 3. set post status to true \n            PurchasePostStatus[purchasePostCounter] = true;\n            \n            // 4. save post key to user struct\n            userMap[msg.sender].purchasePostKeys.push(purchasePostCounter);\n           \n            // 5. emit event\n            emit PurchasePostCreated( msg.sender, purchasePostCounter, _priceToBuy, _amountToBuy);\n\n            // 6. increment purchase post counter by 1\n            purchasePostCounter++;\n\n\n    }\n\n\n    // seller - create purchase post response messages\n    function createResponseMessageToPurchasePost(uint _amountToSell, uint _quotationInWei, uint _purchasePostKey) public {\n        \n        // 1. data validation\n        require(_amountToSell > 0, \"amount must be greater than 0\");\n        require(_quotationInWei > 0, \"quotation must be greater than 0\");\n        require(_purchasePostKey >= 0, \"post key starts from 0\");\n        require(msg.sender != purchasePostMap[_purchasePostKey].buyer, \"You cannot reply to your own purchase post\");\n\n        // 2. create a new response message\n        uint messageIndex = purchasePostMap[_purchasePostKey].responseMessages.length;\n        PostResponseMessage message = new PostResponseMessage(address(this), msg.sender, _amountToSell, _quotationInWei, 0, _purchasePostKey, messageIndex );\n        \n        // 3. add the response message to the corresponding purchase post \n        purchasePostMap[_purchasePostKey].responseMessages.push() = message;\n\n        // 4. emit event\n        emit PurchasePostResponseMessageCreated( msg.sender, address(message));\n\n    }\n\n    // handle payment processes from response message\n    function triggerPayment(uint _purchasePostKey, uint _responseMessageIndex) public payable {\n        \n        // 1. data validation\n        PostResponseMessage responseMessage = purchasePostMap[_purchasePostKey].responseMessages[_responseMessageIndex];\n        require(address(responseMessage) == msg.sender, \"Only response messages are allowed to trigger payment process\");\n        \n        \n        // 2. update seller's account information\n        address seller = responseMessage.messageSender();\n        require( userMap[seller].availableElecUnits >= responseMessage.amount(), \"Insufficient electricity units in account\");\n        userMap[seller].availableElecUnits -= responseMessage.amount();\n        \n        // 3. update buyer's account information\n        address buyer = purchasePostMap[_purchasePostKey].buyer;\n        userMap[buyer].availableElecUnits += responseMessage.amount();\n        \n        // 4. update purchase post\n        // 1) deduct purchase amount accordingly \n        require(purchasePostMap[_purchasePostKey].amountToBuy >= responseMessage.amount(), \"The sales quantity should be less than or equal to the purchase demand\");\n        purchasePostMap[_purchasePostKey].amountToBuy -= responseMessage.amount();\n        // 2) set post to disabled if sales quantity match purchase demand \n        if (purchasePostMap[_purchasePostKey].amountToBuy == 0) {\n            purchasePostMap[_purchasePostKey].enabled = false;\n        }\n\n        // 5. transfer ether to seller's account\n        payable(seller).transfer(msg.value);\n\n        emit PurchasePostPaymentSuccess(msg.value, _purchasePostKey, address(responseMessage));\n        \n    }\n\n}\n",
  "sourcePath": "/Users/richard/Doc//sydney_study/22s2/5703/vue-web3-5703/truffle/contracts/BuyerModule.sol",
  "compiler": {
    "name": "solc",
    "version": "0.8.17+commit.8df45f5f.Emscripten.clang"
  },
  "schemaVersion": "3.4.9",
  "updatedAt": "2022-09-15T06:50:59.177Z",
  "devdoc": {
    "kind": "dev",
    "methods": {},
    "version": 1
  },
  "userdoc": {
    "kind": "user",
    "methods": {},
    "version": 1
  }
}