{
  "contractName": "BuyerService",
  "abi": [
    {
      "inputs": [
        {
          "internalType": "contract StatisticsService",
          "name": "_statisticsService",
          "type": "address"
        },
        {
          "internalType": "contract UserService",
          "name": "_userService",
          "type": "address"
        }
      ],
      "stateMutability": "nonpayable",
      "type": "constructor"
    },
    {
      "anonymous": false,
      "inputs": [
        {
          "indexed": false,
          "internalType": "address",
          "name": "creator",
          "type": "address"
        },
        {
          "indexed": false,
          "internalType": "uint256",
          "name": "postKey",
          "type": "uint256"
        },
        {
          "indexed": false,
          "internalType": "uint256",
          "name": "_priceToBuy",
          "type": "uint256"
        },
        {
          "indexed": false,
          "internalType": "uint256",
          "name": "_amountToBuy",
          "type": "uint256"
        }
      ],
      "name": "PurchasePostCreated",
      "type": "event"
    },
    {
      "anonymous": false,
      "inputs": [
        {
          "indexed": false,
          "internalType": "uint256",
          "name": "paymentAmount",
          "type": "uint256"
        },
        {
          "indexed": false,
          "internalType": "uint256",
          "name": "purchasePostKey",
          "type": "uint256"
        },
        {
          "indexed": false,
          "internalType": "address",
          "name": "responseMessageAddress",
          "type": "address"
        }
      ],
      "name": "PurchasePostPaymentSuccess",
      "type": "event"
    },
    {
      "anonymous": false,
      "inputs": [
        {
          "indexed": false,
          "internalType": "address",
          "name": "creator",
          "type": "address"
        },
        {
          "indexed": false,
          "internalType": "address",
          "name": "responseMessageAddress",
          "type": "address"
        }
      ],
      "name": "PurchasePostResponseMessageCreated",
      "type": "event"
    },
    {
      "inputs": [],
      "name": "purchasePostCounter",
      "outputs": [
        {
          "internalType": "uint256",
          "name": "",
          "type": "uint256"
        }
      ],
      "stateMutability": "view",
      "type": "function"
    },
    {
      "inputs": [
        {
          "internalType": "uint256",
          "name": "_priceToBuy",
          "type": "uint256"
        },
        {
          "internalType": "uint256",
          "name": "_amountToBuy",
          "type": "uint256"
        },
        {
          "internalType": "address",
          "name": "_msgSender",
          "type": "address"
        }
      ],
      "name": "createPurchasePost",
      "outputs": [],
      "stateMutability": "nonpayable",
      "type": "function"
    },
    {
      "inputs": [
        {
          "internalType": "uint256",
          "name": "_amountToSell",
          "type": "uint256"
        },
        {
          "internalType": "uint256",
          "name": "_quotationInWei",
          "type": "uint256"
        },
        {
          "internalType": "uint256",
          "name": "_purchasePostKey",
          "type": "uint256"
        },
        {
          "internalType": "address",
          "name": "_msgSender",
          "type": "address"
        }
      ],
      "name": "createResponseMessageToPurchasePost",
      "outputs": [],
      "stateMutability": "nonpayable",
      "type": "function"
    },
    {
      "inputs": [
        {
          "internalType": "uint256",
          "name": "_purchasePostKey",
          "type": "uint256"
        },
        {
          "internalType": "uint256",
          "name": "_responseMessageIndex",
          "type": "uint256"
        }
      ],
      "name": "handlePurchasePostPostPayment",
      "outputs": [
        {
          "internalType": "string",
          "name": "",
          "type": "string"
        }
      ],
      "stateMutability": "payable",
      "type": "function"
    },
    {
      "inputs": [
        {
          "internalType": "address",
          "name": "_account",
          "type": "address"
        }
      ],
      "name": "returnAllPurchasePostsByAddress",
      "outputs": [
        {
          "components": [
            {
              "internalType": "uint256",
              "name": "priceToBuy",
              "type": "uint256"
            },
            {
              "internalType": "uint256",
              "name": "amountToBuy",
              "type": "uint256"
            },
            {
              "internalType": "address",
              "name": "buyer",
              "type": "address"
            },
            {
              "internalType": "bool",
              "name": "enabled",
              "type": "bool"
            },
            {
              "internalType": "uint256",
              "name": "createdAt",
              "type": "uint256"
            },
            {
              "internalType": "contract PostResponseMessage[]",
              "name": "responseMessages",
              "type": "address[]"
            }
          ],
          "internalType": "struct BeanStructs.PurchasePost[]",
          "name": "",
          "type": "tuple[]"
        }
      ],
      "stateMutability": "view",
      "type": "function"
    },
    {
      "inputs": [],
      "name": "returnPurchasePostMapSize",
      "outputs": [
        {
          "internalType": "uint256",
          "name": "",
          "type": "uint256"
        }
      ],
      "stateMutability": "view",
      "type": "function"
    },
    {
      "inputs": [
        {
          "internalType": "uint256",
          "name": "_postKey",
          "type": "uint256"
        }
      ],
      "name": "getPurchasePostByKey",
      "outputs": [
        {
          "components": [
            {
              "internalType": "uint256",
              "name": "priceToBuy",
              "type": "uint256"
            },
            {
              "internalType": "uint256",
              "name": "amountToBuy",
              "type": "uint256"
            },
            {
              "internalType": "address",
              "name": "buyer",
              "type": "address"
            },
            {
              "internalType": "bool",
              "name": "enabled",
              "type": "bool"
            },
            {
              "internalType": "uint256",
              "name": "createdAt",
              "type": "uint256"
            },
            {
              "internalType": "contract PostResponseMessage[]",
              "name": "responseMessages",
              "type": "address[]"
            }
          ],
          "internalType": "struct BeanStructs.PurchasePost",
          "name": "",
          "type": "tuple"
        }
      ],
      "stateMutability": "view",
      "type": "function"
    },
    {
      "inputs": [
        {
          "internalType": "uint256",
          "name": "_postKey",
          "type": "uint256"
        }
      ],
      "name": "returnPurchasePostResponseMessagesByKey",
      "outputs": [
        {
          "internalType": "contract PostResponseMessage[]",
          "name": "",
          "type": "address[]"
        }
      ],
      "stateMutability": "view",
      "type": "function"
    }
  ],
  "bytecode": "0x60806040523480156200001157600080fd5b50604051620045f4380380620045f4833981810160405281019062000037919062000184565b81600460006101000a81548173ffffffffffffffffffffffffffffffffffffffff021916908373ffffffffffffffffffffffffffffffffffffffff16021790555080600560006101000a81548173ffffffffffffffffffffffffffffffffffffffff021916908373ffffffffffffffffffffffffffffffffffffffff1602179055505050620001cb565b600080fd5b600073ffffffffffffffffffffffffffffffffffffffff82169050919050565b6000620000f382620000c6565b9050919050565b60006200010782620000e6565b9050919050565b6200011981620000fa565b81146200012557600080fd5b50565b60008151905062000139816200010e565b92915050565b60006200014c82620000e6565b9050919050565b6200015e816200013f565b81146200016a57600080fd5b50565b6000815190506200017e8162000153565b92915050565b600080604083850312156200019e576200019d620000c1565b5b6000620001ae8582860162000128565b9250506020620001c1858286016200016d565b9150509250929050565b61441980620001db6000396000f3fe608060405260043610620000865760003560e01c80637b7e76b811620000555780637b7e76b81462000163578063951b3de814620001a7578063bca73eb214620001d7578063ced8d53014620002055762000086565b80630aeadded146200008b5780633d480db514620000b95780634659d79f14620000ef578063620c503a146200011f575b600080fd5b3480156200009857600080fd5b50620000b76004803603810190620000b1919062001b68565b62000249565b005b620000d76004803603810190620000d1919062001bda565b620004da565b604051620000e6919062001cbb565b60405180910390f35b348015620000fc57600080fd5b5062000107620012d3565b60405162000116919062001cf0565b60405180910390f35b3480156200012c57600080fd5b506200014b600480360381019062000145919062001d0d565b620012d9565b6040516200015a919062001e67565b60405180910390f35b3480156200017057600080fd5b506200018f600480360381019062000189919062001e8b565b620013c5565b6040516200019e9190620020dc565b60405180910390f35b348015620001b457600080fd5b50620001bf62001679565b604051620001ce919062001cf0565b60405180910390f35b348015620001e457600080fd5b50620002036004803603810190620001fd919062002100565b62001683565b005b3480156200021257600080fd5b506200023160048036038101906200022b919062001d0d565b6200190b565b604051620002409190620021f1565b60405180910390f35b600084116200028f576040517f08c379a0000000000000000000000000000000000000000000000000000000008152600401620002869062002265565b60405180910390fd5b60008311620002d5576040517f08c379a0000000000000000000000000000000000000000000000000000000008152600401620002cc90620022d7565b60405180910390fd5b60008210156200031c576040517f08c379a0000000000000000000000000000000000000000000000000000000008152600401620003139062002349565b60405180910390fd5b60008083815260200190815260200160002060020160009054906101000a900473ffffffffffffffffffffffffffffffffffffffff1673ffffffffffffffffffffffffffffffffffffffff168173ffffffffffffffffffffffffffffffffffffffff1603620003c2576040517f08c379a0000000000000000000000000000000000000000000000000000000008152600401620003b990620023e1565b60405180910390fd5b600080600084815260200190815260200160002060040180549050905060003083878760008887604051620003f79062001a58565b62000409979695949392919062002464565b604051809103906000f08015801562000426573d6000803e3d6000fd5b50905080600080868152602001908152602001600020600401600181600181540180825580915050039060005260206000200160006101000a81548173ffffffffffffffffffffffffffffffffffffffff021916908373ffffffffffffffffffffffffffffffffffffffff1602179055507f83c1d63a3e3cd3d3a92a899ed2f341bd373a5326ebf67b9bd646543e55081ebc8382604051620004ca929190620024e1565b60405180910390a1505050505050565b6060600080600085815260200190815260200160002060040183815481106200050857620005076200250e565b5b9060005260206000200160009054906101000a900473ffffffffffffffffffffffffffffffffffffffff1690503373ffffffffffffffffffffffffffffffffffffffff168173ffffffffffffffffffffffffffffffffffffffff1614620005a6576040517f08c379a00000000000000000000000000000000000000000000000000000000081526004016200059d90620025d9565b60405180910390fd5b600042905060008273ffffffffffffffffffffffffffffffffffffffff1663d67bdd256040518163ffffffff1660e01b8152600401602060405180830381865afa158015620005f9573d6000803e3d6000fd5b505050506040513d601f19601f820116820180604052508101906200061f919062002612565b90508273ffffffffffffffffffffffffffffffffffffffff1663aa8c217c6040518163ffffffff1660e01b8152600401602060405180830381865afa1580156200066d573d6000803e3d6000fd5b505050506040513d601f19601f820116820180604052508101906200069391906200265b565b600560009054906101000a900473ffffffffffffffffffffffffffffffffffffffff1673ffffffffffffffffffffffffffffffffffffffff1663cb8ab15b836040518263ffffffff1660e01b8152600401620006f091906200268d565b602060405180830381865afa1580156200070e573d6000803e3d6000fd5b505050506040513d601f19601f820116820180604052508101906200073491906200265b565b101562000778576040517f08c379a00000000000000000000000000000000000000000000000000000000081526004016200076f9062002720565b60405180910390fd5b600560009054906101000a900473ffffffffffffffffffffffffffffffffffffffff1673ffffffffffffffffffffffffffffffffffffffff1663e2670971828573ffffffffffffffffffffffffffffffffffffffff1663aa8c217c6040518163ffffffff1660e01b8152600401602060405180830381865afa15801562000803573d6000803e3d6000fd5b505050506040513d601f19601f820116820180604052508101906200082991906200265b565b600560009054906101000a900473ffffffffffffffffffffffffffffffffffffffff1673ffffffffffffffffffffffffffffffffffffffff1663cb8ab15b866040518263ffffffff1660e01b81526004016200088691906200268d565b602060405180830381865afa158015620008a4573d6000803e3d6000fd5b505050506040513d601f19601f82011682018060405250810190620008ca91906200265b565b620008d6919062002771565b6040518363ffffffff1660e01b8152600401620008f5929190620027ac565b600060405180830381600087803b1580156200091057600080fd5b505af115801562000925573d6000803e3d6000fd5b50505050600460009054906101000a900473ffffffffffffffffffffffffffffffffffffffff1673ffffffffffffffffffffffffffffffffffffffff1663e8b8530f828573ffffffffffffffffffffffffffffffffffffffff1663aa8c217c6040518163ffffffff1660e01b8152600401602060405180830381865afa158015620009b4573d6000803e3d6000fd5b505050506040513d601f19601f82011682018060405250810190620009da91906200265b565b6040518363ffffffff1660e01b8152600401620009f9929190620027ac565b600060405180830381600087803b15801562000a1457600080fd5b505af115801562000a29573d6000803e3d6000fd5b50505050600460009054906101000a900473ffffffffffffffffffffffffffffffffffffffff1673ffffffffffffffffffffffffffffffffffffffff16631e7ba9cd82848673ffffffffffffffffffffffffffffffffffffffff1663aa8c217c6040518163ffffffff1660e01b8152600401602060405180830381865afa15801562000ab9573d6000803e3d6000fd5b505050506040513d601f19601f8201168201806040525081019062000adf91906200265b565b6040518463ffffffff1660e01b815260040162000aff93929190620027d9565b600060405180830381600087803b15801562000b1a57600080fd5b505af115801562000b2f573d6000803e3d6000fd5b50505050600460009054906101000a900473ffffffffffffffffffffffffffffffffffffffff1673ffffffffffffffffffffffffffffffffffffffff1663e6b02333826001856040518463ffffffff1660e01b815260040162000b959392919062002859565b600060405180830381600087803b15801562000bb057600080fd5b505af115801562000bc5573d6000803e3d6000fd5b50505050600080600088815260200190815260200160002060020160009054906101000a900473ffffffffffffffffffffffffffffffffffffffff169050600560009054906101000a900473ffffffffffffffffffffffffffffffffffffffff1673ffffffffffffffffffffffffffffffffffffffff1663e2670971828673ffffffffffffffffffffffffffffffffffffffff1663aa8c217c6040518163ffffffff1660e01b8152600401602060405180830381865afa15801562000c8e573d6000803e3d6000fd5b505050506040513d601f19601f8201168201806040525081019062000cb491906200265b565b600560009054906101000a900473ffffffffffffffffffffffffffffffffffffffff1673ffffffffffffffffffffffffffffffffffffffff1663cb8ab15b866040518263ffffffff1660e01b815260040162000d1191906200268d565b602060405180830381865afa15801562000d2f573d6000803e3d6000fd5b505050506040513d601f19601f8201168201806040525081019062000d5591906200265b565b62000d61919062002896565b6040518363ffffffff1660e01b815260040162000d80929190620027ac565b600060405180830381600087803b15801562000d9b57600080fd5b505af115801562000db0573d6000803e3d6000fd5b50505050600460009054906101000a900473ffffffffffffffffffffffffffffffffffffffff1673ffffffffffffffffffffffffffffffffffffffff16633f9b696c828673ffffffffffffffffffffffffffffffffffffffff1663aa8c217c6040518163ffffffff1660e01b8152600401602060405180830381865afa15801562000e3f573d6000803e3d6000fd5b505050506040513d601f19601f8201168201806040525081019062000e6591906200265b565b6040518363ffffffff1660e01b815260040162000e84929190620027ac565b600060405180830381600087803b15801562000e9f57600080fd5b505af115801562000eb4573d6000803e3d6000fd5b50505050600460009054906101000a900473ffffffffffffffffffffffffffffffffffffffff1673ffffffffffffffffffffffffffffffffffffffff16632f0a323e82858773ffffffffffffffffffffffffffffffffffffffff1663aa8c217c6040518163ffffffff1660e01b8152600401602060405180830381865afa15801562000f44573d6000803e3d6000fd5b505050506040513d601f19601f8201168201806040525081019062000f6a91906200265b565b6040518463ffffffff1660e01b815260040162000f8a93929190620027d9565b600060405180830381600087803b15801562000fa557600080fd5b505af115801562000fba573d6000803e3d6000fd5b50505050600460009054906101000a900473ffffffffffffffffffffffffffffffffffffffff1673ffffffffffffffffffffffffffffffffffffffff1663e6b02333826000866040518463ffffffff1660e01b815260040162001020939291906200290a565b600060405180830381600087803b1580156200103b57600080fd5b505af115801562001050573d6000803e3d6000fd5b505050508373ffffffffffffffffffffffffffffffffffffffff1663aa8c217c6040518163ffffffff1660e01b8152600401602060405180830381865afa158015620010a0573d6000803e3d6000fd5b505050506040513d601f19601f82011682018060405250810190620010c691906200265b565b60008089815260200190815260200160002060010154101562001120576040517f08c379a00000000000000000000000000000000000000000000000000000000081526004016200111790620029e3565b60405180910390fd5b8373ffffffffffffffffffffffffffffffffffffffff1663aa8c217c6040518163ffffffff1660e01b8152600401602060405180830381865afa1580156200116c573d6000803e3d6000fd5b505050506040513d601f19601f820116820180604052508101906200119291906200265b565b6000808981526020019081526020016000206001016000828254620011b8919062002771565b92505081905550600080600089815260200190815260200160002060010154036200120c57600080600089815260200190815260200160002060020160146101000a81548160ff0219169083151502179055505b8173ffffffffffffffffffffffffffffffffffffffff166108fc349081150290604051600060405180830381858888f1935050505015801562001253573d6000803e3d6000fd5b507faa5ef240d12945dacdcfd9ecc9a86ba7fa61f117ef9e9626465aa252e6dd5b66348886604051620012899392919062002a05565b60405180910390a16040518060400160405280600781526020017f737563636573730000000000000000000000000000000000000000000000000081525094505050505092915050565b60035481565b6060600082101562001322576040517f08c379a0000000000000000000000000000000000000000000000000000000008152600401620013199062002349565b60405180910390fd5b600080838152602001908152602001600020600401805480602002602001604051908101604052809291908181526020018280548015620013b957602002820191906000526020600020905b8160009054906101000a900473ffffffffffffffffffffffffffffffffffffffff1673ffffffffffffffffffffffffffffffffffffffff16815260200190600101908083116200136e575b50505050509050919050565b60606000600560009054906101000a900473ffffffffffffffffffffffffffffffffffffffff1673ffffffffffffffffffffffffffffffffffffffff1663ebe0b877846040518263ffffffff1660e01b81526004016200142691906200268d565b600060405180830381865afa15801562001444573d6000803e3d6000fd5b505050506040513d6000823e3d601f19601f820116820180604052508101906200146f919062002ba6565b90506000815167ffffffffffffffff81111562001491576200149062002a47565b5b604051908082528060200260200182016040528015620014ce57816020015b620014ba62001a66565b815260200190600190039081620014b05790505b50905060005b82518110156200166e57600080848381518110620014f757620014f66200250e565b5b602002602001015181526020019081526020016000206040518060c001604052908160008201548152602001600182015481526020016002820160009054906101000a900473ffffffffffffffffffffffffffffffffffffffff1673ffffffffffffffffffffffffffffffffffffffff1673ffffffffffffffffffffffffffffffffffffffff1681526020016002820160149054906101000a900460ff1615151515815260200160038201548152602001600482018054806020026020016040519081016040528092919081815260200182805480156200162e57602002820191906000526020600020905b8160009054906101000a900473ffffffffffffffffffffffffffffffffffffffff1673ffffffffffffffffffffffffffffffffffffffff1681526020019060010190808311620015e3575b5050505050815250508282815181106200164d576200164c6200250e565b5b60200260200101819052508080620016659062002bf7565b915050620014d4565b508092505050919050565b6000600354905090565b60008311620016c9576040517f08c379a0000000000000000000000000000000000000000000000000000000008152600401620016c09062002cba565b60405180910390fd5b600082116200170f576040517f08c379a0000000000000000000000000000000000000000000000000000000008152600401620017069062002d52565b60405180910390fd5b826000806003548152602001908152602001600020600001819055508160008060035481526020019081526020016000206001018190555080600080600354815260200190815260200160002060020160006101000a81548173ffffffffffffffffffffffffffffffffffffffff021916908373ffffffffffffffffffffffffffffffffffffffff1602179055506001600080600354815260200190815260200160002060020160146101000a81548160ff021916908315150217905550426000806003548152602001908152602001600020600301819055506001806000600354815260200190815260200160002060006101000a81548160ff021916908315150217905550600560009054906101000a900473ffffffffffffffffffffffffffffffffffffffff1673ffffffffffffffffffffffffffffffffffffffff1663f03b5e9d826003546040518363ffffffff1660e01b815260040162001877929190620027ac565b600060405180830381600087803b1580156200189257600080fd5b505af1158015620018a7573d6000803e3d6000fd5b505050507fb327665b1bbfd6560701e012c966f02c9abe3e3b1afa5c084bfa31ed1e701071816003548585604051620018e4949392919062002d74565b60405180910390a160036000815480929190620019019062002bf7565b9190505550505050565b6200191562001a66565b6000808381526020019081526020016000206040518060c001604052908160008201548152602001600182015481526020016002820160009054906101000a900473ffffffffffffffffffffffffffffffffffffffff1673ffffffffffffffffffffffffffffffffffffffff1673ffffffffffffffffffffffffffffffffffffffff1681526020016002820160149054906101000a900460ff16151515158152602001600382015481526020016004820180548060200260200160405190810160405280929190818152602001828054801562001a4857602002820191906000526020600020905b8160009054906101000a900473ffffffffffffffffffffffffffffffffffffffff1673ffffffffffffffffffffffffffffffffffffffff1681526020019060010190808311620019fd575b5050505050815250509050919050565b6116228062002dc283390190565b6040518060c001604052806000815260200160008152602001600073ffffffffffffffffffffffffffffffffffffffff16815260200160001515815260200160008152602001606081525090565b6000604051905090565b600080fd5b600080fd5b6000819050919050565b62001add8162001ac8565b811462001ae957600080fd5b50565b60008135905062001afd8162001ad2565b92915050565b600073ffffffffffffffffffffffffffffffffffffffff82169050919050565b600062001b308262001b03565b9050919050565b62001b428162001b23565b811462001b4e57600080fd5b50565b60008135905062001b628162001b37565b92915050565b6000806000806080858703121562001b855762001b8462001abe565b5b600062001b958782880162001aec565b945050602062001ba88782880162001aec565b935050604062001bbb8782880162001aec565b925050606062001bce8782880162001b51565b91505092959194509250565b6000806040838503121562001bf45762001bf362001abe565b5b600062001c048582860162001aec565b925050602062001c178582860162001aec565b9150509250929050565b600081519050919050565b600082825260208201905092915050565b60005b8381101562001c5d57808201518184015260208101905062001c40565b60008484015250505050565b6000601f19601f8301169050919050565b600062001c878262001c21565b62001c93818562001c2c565b935062001ca581856020860162001c3d565b62001cb08162001c69565b840191505092915050565b6000602082019050818103600083015262001cd7818462001c7a565b905092915050565b62001cea8162001ac8565b82525050565b600060208201905062001d07600083018462001cdf565b92915050565b60006020828403121562001d265762001d2562001abe565b5b600062001d368482850162001aec565b91505092915050565b600081519050919050565b600082825260208201905092915050565b6000819050602082019050919050565b6000819050919050565b600062001d9662001d9062001d8a8462001b03565b62001d6b565b62001b03565b9050919050565b600062001daa8262001d75565b9050919050565b600062001dbe8262001d9d565b9050919050565b62001dd08162001db1565b82525050565b600062001de4838362001dc5565b60208301905092915050565b6000602082019050919050565b600062001e0a8262001d3f565b62001e16818562001d4a565b935062001e238362001d5b565b8060005b8381101562001e5a57815162001e3e888262001dd6565b975062001e4b8362001df0565b92505060018101905062001e27565b5085935050505092915050565b6000602082019050818103600083015262001e83818462001dfd565b905092915050565b60006020828403121562001ea45762001ea362001abe565b5b600062001eb48482850162001b51565b91505092915050565b600081519050919050565b600082825260208201905092915050565b6000819050602082019050919050565b62001ef48162001ac8565b82525050565b62001f058162001b23565b82525050565b60008115159050919050565b62001f228162001f0b565b82525050565b600082825260208201905092915050565b600062001f468262001d3f565b62001f52818562001f28565b935062001f5f8362001d5b565b8060005b8381101562001f9657815162001f7a888262001dd6565b975062001f878362001df0565b92505060018101905062001f63565b5085935050505092915050565b600060c08301600083015162001fbd600086018262001ee9565b50602083015162001fd2602086018262001ee9565b50604083015162001fe7604086018262001efa565b50606083015162001ffc606086018262001f17565b50608083015162002011608086018262001ee9565b5060a083015184820360a08601526200202b828262001f39565b9150508091505092915050565b600062002046838362001fa3565b905092915050565b6000602082019050919050565b6000620020688262001ebd565b62002074818562001ec8565b935083602082028501620020888562001ed9565b8060005b85811015620020ca5784840389528151620020a8858262002038565b9450620020b5836200204e565b925060208a019950506001810190506200208c565b50829750879550505050505092915050565b60006020820190508181036000830152620020f881846200205b565b905092915050565b6000806000606084860312156200211c576200211b62001abe565b5b60006200212c8682870162001aec565b93505060206200213f8682870162001aec565b9250506040620021528682870162001b51565b9150509250925092565b600060c08301600083015162002176600086018262001ee9565b5060208301516200218b602086018262001ee9565b506040830151620021a0604086018262001efa565b506060830151620021b5606086018262001f17565b506080830151620021ca608086018262001ee9565b5060a083015184820360a0860152620021e4828262001f39565b9150508091505092915050565b600060208201905081810360008301526200220d81846200215c565b905092915050565b7f616d6f756e74206d7573742062652067726561746572207468616e2030000000600082015250565b60006200224d601d8362001c2c565b91506200225a8262002215565b602082019050919050565b6000602082019050818103600083015262002280816200223e565b9050919050565b7f71756f746174696f6e206d7573742062652067726561746572207468616e2030600082015250565b6000620022bf60208362001c2c565b9150620022cc8262002287565b602082019050919050565b60006020820190508181036000830152620022f281620022b0565b9050919050565b7f706f7374206b6579207374617274732066726f6d203000000000000000000000600082015250565b60006200233160168362001c2c565b91506200233e82620022f9565b602082019050919050565b60006020820190508181036000830152620023648162002322565b9050919050565b7f596f752063616e6e6f74207265706c7920746f20796f7572206f776e2070757260008201527f636861736520706f737400000000000000000000000000000000000000000000602082015250565b6000620023c9602a8362001c2c565b9150620023d6826200236b565b604082019050919050565b60006020820190508181036000830152620023fc81620023ba565b9050919050565b6200240e8162001b23565b82525050565b6000819050919050565b600060ff82169050919050565b60006200244c62002446620024408462002414565b62001d6b565b6200241e565b9050919050565b6200245e816200242b565b82525050565b600060e0820190506200247b600083018a62002403565b6200248a602083018962002403565b62002499604083018862001cdf565b620024a8606083018762001cdf565b620024b7608083018662002453565b620024c660a083018562001cdf565b620024d560c083018462001cdf565b98975050505050505050565b6000604082019050620024f8600083018562002403565b62002507602083018462002403565b9392505050565b7f4e487b7100000000000000000000000000000000000000000000000000000000600052603260045260246000fd5b7f6d6573736167652073656e6465722073686f756c64206f6e6c7920626520746860008201527f6520726573706f6e7365206d657373616765207468617420747269676765727360208201527f207061796d656e742070726f6365737300000000000000000000000000000000604082015250565b6000620025c160508362001c2c565b9150620025ce826200253d565b606082019050919050565b60006020820190508181036000830152620025f481620025b2565b9050919050565b6000815190506200260c8162001b37565b92915050565b6000602082840312156200262b576200262a62001abe565b5b60006200263b84828501620025fb565b91505092915050565b600081519050620026558162001ad2565b92915050565b60006020828403121562002674576200267362001abe565b5b6000620026848482850162002644565b91505092915050565b6000602082019050620026a4600083018462002403565b92915050565b7f496e73756666696369656e7420656c65637472696369747920756e697473206960008201527f6e206163636f756e740000000000000000000000000000000000000000000000602082015250565b60006200270860298362001c2c565b91506200271582620026aa565b604082019050919050565b600060208201905081810360008301526200273b81620026f9565b9050919050565b7f4e487b7100000000000000000000000000000000000000000000000000000000600052601160045260246000fd5b60006200277e8262001ac8565b91506200278b8362001ac8565b9250828203905081811115620027a657620027a562002742565b5b92915050565b6000604082019050620027c3600083018562002403565b620027d2602083018462001cdf565b9392505050565b6000606082019050620027f0600083018662002403565b620027ff602083018562001cdf565b6200280e604083018462001cdf565b949350505050565b6000819050919050565b6000620028416200283b620028358462002816565b62001d6b565b62001ac8565b9050919050565b620028538162002820565b82525050565b600060608201905062002870600083018662002403565b6200287f602083018562002848565b6200288e604083018462001cdf565b949350505050565b6000620028a38262001ac8565b9150620028b08362001ac8565b9250828201905080821115620028cb57620028ca62002742565b5b92915050565b6000620028f2620028ec620028e68462002414565b62001d6b565b62001ac8565b9050919050565b6200290481620028d1565b82525050565b600060608201905062002921600083018662002403565b620029306020830185620028f9565b6200293f604083018462001cdf565b949350505050565b7f5468652073616c6573207175616e746974792073686f756c64206265206c657360008201527f73207468616e206f7220657175616c20746f207468652070757263686173652060208201527f64656d616e640000000000000000000000000000000000000000000000000000604082015250565b6000620029cb60468362001c2c565b9150620029d88262002947565b606082019050919050565b60006020820190508181036000830152620029fe81620029bc565b9050919050565b600060608201905062002a1c600083018662001cdf565b62002a2b602083018562001cdf565b62002a3a604083018462002403565b949350505050565b600080fd5b7f4e487b7100000000000000000000000000000000000000000000000000000000600052604160045260246000fd5b62002a818262001c69565b810181811067ffffffffffffffff8211171562002aa35762002aa262002a47565b5b80604052505050565b600062002ab862001ab4565b905062002ac6828262002a76565b919050565b600067ffffffffffffffff82111562002ae95762002ae862002a47565b5b602082029050602081019050919050565b600080fd5b600062002b1662002b108462002acb565b62002aac565b9050808382526020820190506020840283018581111562002b3c5762002b3b62002afa565b5b835b8181101562002b69578062002b54888262002644565b84526020840193505060208101905062002b3e565b5050509392505050565b600082601f83011262002b8b5762002b8a62002a42565b5b815162002b9d84826020860162002aff565b91505092915050565b60006020828403121562002bbf5762002bbe62001abe565b5b600082015167ffffffffffffffff81111562002be05762002bdf62001ac3565b5b62002bee8482850162002b73565b91505092915050565b600062002c048262001ac8565b91507fffffffffffffffffffffffffffffffffffffffffffffffffffffffffffffffff820362002c395762002c3862002742565b5b600182019050919050565b7f7075726368617365207072696365206d7573742062652067726561746572207460008201527f68616e2030000000000000000000000000000000000000000000000000000000602082015250565b600062002ca260258362001c2c565b915062002caf8262002c44565b604082019050919050565b6000602082019050818103600083015262002cd58162002c93565b9050919050565b7f616d6f756e7420746f20627579206d757374206265206772656174657220746860008201527f616e203000000000000000000000000000000000000000000000000000000000602082015250565b600062002d3a60248362001c2c565b915062002d478262002cdc565b604082019050919050565b6000602082019050818103600083015262002d6d8162002d2b565b9050919050565b600060808201905062002d8b600083018762002403565b62002d9a602083018662001cdf565b62002da9604083018562001cdf565b62002db8606083018462001cdf565b9594505050505056fe60806040523480156200001157600080fd5b50604051620016223803806200162283398181016040528101906200003791906200021c565b86600860006101000a81548173ffffffffffffffffffffffffffffffffffffffff021916908373ffffffffffffffffffffffffffffffffffffffff160217905550856000806101000a81548173ffffffffffffffffffffffffffffffffffffffff021916908373ffffffffffffffffffffffffffffffffffffffff160217905550846001819055508360028190555082600360006101000a81548160ff021916908360ff16021790555081600481905550806005819055506000600660006101000a81548160ff0219169083151502179055506000600660016101000a81548160ff0219169083151502179055504260078190555050505050505050620002cf565b600080fd5b600073ffffffffffffffffffffffffffffffffffffffff82169050919050565b60006200016b826200013e565b9050919050565b6200017d816200015e565b81146200018957600080fd5b50565b6000815190506200019d8162000172565b92915050565b6000819050919050565b620001b881620001a3565b8114620001c457600080fd5b50565b600081519050620001d881620001ad565b92915050565b600060ff82169050919050565b620001f681620001de565b81146200020257600080fd5b50565b6000815190506200021681620001eb565b92915050565b600080600080600080600060e0888a0312156200023e576200023d62000139565b5b60006200024e8a828b016200018c565b9750506020620002618a828b016200018c565b9650506040620002748a828b01620001c7565b9550506060620002878a828b01620001c7565b94505060806200029a8a828b0162000205565b93505060a0620002ad8a828b01620001c7565b92505060c0620002c08a828b01620001c7565b91505092959891949750929550565b61134380620002df6000396000f3fe6080604052600436106100c65760003560e01c806382fa096a1161007f578063abf4d6c411610059578063abf4d6c414610424578063c32b9b531461042e578063cf09e0d014610438578063d67bdd25146104635761029e565b806382fa096a146103a3578063a03a202e146103ce578063aa8c217c146103f95761029e565b806304dc4cda146102a3578063209ebc08146102ce5780633013aa25146102f95780633d855485146103225780633e784e631461034d5780635051a5ec146103785761029e565b3661029e576000341161010e576040517f08c379a000000000000000000000000000000000000000000000000000000000815260040161010590610b63565b60405180910390fd5b60011515600660009054906101000a900460ff16151514610164576040517f08c379a000000000000000000000000000000000000000000000000000000000815260040161015b90610bf5565b60405180910390fd5b346002546001546101759190610c4e565b146101b5576040517f08c379a00000000000000000000000000000000000000000000000000000000081526004016101ac90610cdc565b60405180910390fd5b60001515600660019054906101000a900460ff1615151461020b576040517f08c379a000000000000000000000000000000000000000000000000000000000815260040161020290610d48565b60405180910390fd5b6000600360009054906101000a900460ff1660ff16036102325761022d61048e565b61029c565b6001600360009054906101000a900460ff1660ff16036102595761025461069d565b61029b565b600061029a576040517f08c379a000000000000000000000000000000000000000000000000000000000815260040161029190610db4565b60405180910390fd5b5b5b005b600080fd5b3480156102af57600080fd5b506102b86108ac565b6040516102c59190610df0565b60405180910390f35b3480156102da57600080fd5b506102e36108bf565b6040516102f09190610e26565b60405180910390f35b34801561030557600080fd5b50610320600480360381019061031b9190610e72565b6108d2565b005b34801561032e57600080fd5b5061033761093d565b6040516103449190610eae565b60405180910390f35b34801561035957600080fd5b50610362610943565b60405161036f9190610eae565b60405180910390f35b34801561038457600080fd5b5061038d610949565b60405161039a9190610e26565b60405180910390f35b3480156103af57600080fd5b506103b861095c565b6040516103c59190610fee565b60405180910390f35b3480156103da57600080fd5b506103e3610a67565b6040516103f09190610eae565b60405180910390f35b34801561040557600080fd5b5061040e610a6d565b60405161041b9190610eae565b60405180910390f35b61042c61048e565b005b61043661069d565b005b34801561044457600080fd5b5061044d610a73565b60405161045a9190610eae565b60405180910390f35b34801561046f57600080fd5b50610478610a79565b6040516104859190611019565b60405180910390f35b60008054906101000a900473ffffffffffffffffffffffffffffffffffffffff1673ffffffffffffffffffffffffffffffffffffffff163373ffffffffffffffffffffffffffffffffffffffff160361051c576040517f08c379a0000000000000000000000000000000000000000000000000000000008152600401610513906110a6565b60405180910390fd5b6000600860009054906101000a900473ffffffffffffffffffffffffffffffffffffffff1673ffffffffffffffffffffffffffffffffffffffff163460045460055460405160240161056f9291906110c6565b6040516020818303038152906040527f3d480db5000000000000000000000000000000000000000000000000000000007bffffffffffffffffffffffffffffffffffffffffffffffffffffffff19166020820180517bffffffffffffffffffffffffffffffffffffffffffffffffffffffff83818316178352505050506040516105f99190611160565b60006040518083038185875af1925050503d8060008114610636576040519150601f19603f3d011682016040523d82523d6000602084013e61063b565b606091505b505090508061067f576040517f08c379a0000000000000000000000000000000000000000000000000000000008152600401610676906111c3565b60405180910390fd5b6001600660016101000a81548160ff02191690831515021790555050565b60008054906101000a900473ffffffffffffffffffffffffffffffffffffffff1673ffffffffffffffffffffffffffffffffffffffff163373ffffffffffffffffffffffffffffffffffffffff161461072b576040517f08c379a00000000000000000000000000000000000000000000000000000000081526004016107229061127b565b60405180910390fd5b6000600860009054906101000a900473ffffffffffffffffffffffffffffffffffffffff1673ffffffffffffffffffffffffffffffffffffffff163460045460055460405160240161077e9291906110c6565b6040516020818303038152906040527f0876290a000000000000000000000000000000000000000000000000000000007bffffffffffffffffffffffffffffffffffffffffffffffffffffffff19166020820180517bffffffffffffffffffffffffffffffffffffffffffffffffffffffff83818316178352505050506040516108089190611160565b60006040518083038185875af1925050503d8060008114610845576040519150601f19603f3d011682016040523d82523d6000602084013e61084a565b606091505b505090508061088e576040517f08c379a0000000000000000000000000000000000000000000000000000000008152600401610885906111c3565b60405180910390fd5b6001600660016101000a81548160ff02191690831515021790555050565b600360009054906101000a900460ff1681565b600660019054906101000a900460ff1681565b80600660006101000a81548160ff0219169083151502179055507f9161e5ec70df4a8ef9f6085e3435135f3da64c7ec32c271912e1ca8d4afbd7c3600360009054906101000a900460ff16600454600554604051610932939291906112d6565b60405180910390a150565b60045481565b60055481565b600660009054906101000a900460ff1681565b610964610a9d565b61096c610a9d565b60008054906101000a900473ffffffffffffffffffffffffffffffffffffffff16816000019073ffffffffffffffffffffffffffffffffffffffff16908173ffffffffffffffffffffffffffffffffffffffff1681525050600154816020018181525050600254816040018181525050600360009054906101000a900460ff16816060019060ff16908160ff16815250506004548160800181815250506005548160a0018181525050600660009054906101000a900460ff168160c0019015159081151581525050600660019054906101000a900460ff168160e0019015159081151581525050600754816101000181815250508091505090565b60025481565b60015481565b60075481565b60008054906101000a900473ffffffffffffffffffffffffffffffffffffffff1681565b604051806101200160405280600073ffffffffffffffffffffffffffffffffffffffff1681526020016000815260200160008152602001600060ff1681526020016000815260200160008152602001600015158152602001600015158152602001600081525090565b600082825260208201905092915050565b7f696e76616c6964207061796d656e740000000000000000000000000000000000600082015250565b6000610b4d600f83610b06565b9150610b5882610b17565b602082019050919050565b60006020820190508181036000830152610b7c81610b40565b9050919050565b7f796f757220726573706f6e736520686173206e6f74206265656e20616363657060008201527f7465642062792073656c6c657220796574000000000000000000000000000000602082015250565b6000610bdf603183610b06565b9150610bea82610b83565b604082019050919050565b60006020820190508181036000830152610c0e81610bd2565b9050919050565b6000819050919050565b7f4e487b7100000000000000000000000000000000000000000000000000000000600052601160045260246000fd5b6000610c5982610c15565b9150610c6483610c15565b9250828202610c7281610c15565b91508282048414831517610c8957610c88610c1f565b5b5092915050565b7f4e6f742066756c6c792070616964207965740000000000000000000000000000600082015250565b6000610cc6601283610b06565b9150610cd182610c90565b602082019050919050565b60006020820190508181036000830152610cf581610cb9565b9050919050565b7f4f7264657220697320616c726561647920706169642100000000000000000000600082015250565b6000610d32601683610b06565b9150610d3d82610cfc565b602082019050919050565b60006020820190508181036000830152610d6181610d25565b9050919050565b7f696e76616c696420726573706f6e7365206d6573736167652074797065000000600082015250565b6000610d9e601d83610b06565b9150610da982610d68565b602082019050919050565b60006020820190508181036000830152610dcd81610d91565b9050919050565b600060ff82169050919050565b610dea81610dd4565b82525050565b6000602082019050610e056000830184610de1565b92915050565b60008115159050919050565b610e2081610e0b565b82525050565b6000602082019050610e3b6000830184610e17565b92915050565b600080fd5b610e4f81610e0b565b8114610e5a57600080fd5b50565b600081359050610e6c81610e46565b92915050565b600060208284031215610e8857610e87610e41565b5b6000610e9684828501610e5d565b91505092915050565b610ea881610c15565b82525050565b6000602082019050610ec36000830184610e9f565b92915050565b600073ffffffffffffffffffffffffffffffffffffffff82169050919050565b6000610ef482610ec9565b9050919050565b610f0481610ee9565b82525050565b610f1381610c15565b82525050565b610f2281610dd4565b82525050565b610f3181610e0b565b82525050565b61012082016000820151610f4e6000850182610efb565b506020820151610f616020850182610f0a565b506040820151610f746040850182610f0a565b506060820151610f876060850182610f19565b506080820151610f9a6080850182610f0a565b5060a0820151610fad60a0850182610f0a565b5060c0820151610fc060c0850182610f28565b5060e0820151610fd360e0850182610f28565b50610100820151610fe8610100850182610f0a565b50505050565b6000610120820190506110046000830184610f37565b92915050565b61101381610ee9565b82525050565b600060208201905061102e600083018461100a565b92915050565b7f596f752063616e6e6f74206d616b652061207061796d656e7420746f20796f7560008201527f72206f776e2073656c6c696e6720726573706f6e7365206d6573736167650000602082015250565b6000611090603e83610b06565b915061109b82611034565b604082019050919050565b600060208201905081810360008301526110bf81611083565b9050919050565b60006040820190506110db6000830185610e9f565b6110e86020830184610e9f565b9392505050565b600081519050919050565b600081905092915050565b60005b83811015611123578082015181840152602081019050611108565b60008484015250505050565b600061113a826110ef565b61114481856110fa565b9350611154818560208601611105565b80840191505092915050565b600061116c828461112f565b915081905092915050565b7f7061796d656e74206661696c6564000000000000000000000000000000000000600082015250565b60006111ad600e83610b06565b91506111b882611177565b602082019050919050565b600060208201905081810360008301526111dc816111a0565b9050919050565b7f4f6e6c7920746865206d6573736167652073656e6465722077686f2073656e7460008201527f207468697320726573706f6e736520746f206163717569726520656c6563747260208201527f696369747920756e6974732063616e206d616b652061207061796d656e740000604082015250565b6000611265605e83610b06565b9150611270826111e3565b606082019050919050565b6000602082019050818103600083015261129481611258565b9050919050565b6000819050919050565b60006112c06112bb6112b684610dd4565b61129b565b610c15565b9050919050565b6112d0816112a5565b82525050565b60006060820190506112eb60008301866112c7565b6112f86020830185610e9f565b6113056040830184610e9f565b94935050505056fea264697066735822122073e925c02640f54ec6f797a0c5db83b3650b31ffafe16a7aa55534274ce1d24064736f6c63430008110033a264697066735822122035d43319910077c2207078df35239f1210b61c2ae2b785058cbc06f4436d622a64736f6c63430008110033",
  "immutableReferences": {},
  "source": "\n//SPDX-License-Identifier: MIT\n\npragma solidity ^0.8.0;\n\nimport \"./BeanStructs.sol\";\nimport \"./UserService.sol\";\nimport \"./StatisticsService.sol\";\n\ncontract BuyerService is BeanStructs {\n\n    // ------------------------- storage variables -------------------------\n\n    // map each purchase post to an index\n    mapping(uint => PurchasePost) purchasePostMap;\n    mapping(uint => bool) PurchasePostStatus;       // label purchase post status\n    uint[]  purchasePostKeys;                       // array of keys of purchase posts \n    uint public purchasePostCounter;                // count total number of purchase posts, start from 0\n    \n\n    // reference to statistics service\n    StatisticsService statisticsService;\n    UserService userService;\n    \n    constructor(StatisticsService _statisticsService, UserService _userService) {\n        statisticsService = _statisticsService;\n        userService = _userService;\n    }\n\n    // events\n    event PurchasePostCreated(address creator, uint postKey, uint _priceToBuy, uint _amountToBuy);\n    event PurchasePostResponseMessageCreated(address creator, address responseMessageAddress);\n    event PurchasePostPaymentSuccess(uint paymentAmount, uint purchasePostKey, address responseMessageAddress);\n\n\n   \n    // ------------------------- buyer side interaction -------------------------\n    \n    // buyer -  create a new purchase post\n    function createPurchasePost (uint _priceToBuy, uint _amountToBuy, address _msgSender) public {\n            \n            // 1. data validation\n            require(_priceToBuy > 0, \"purchase price must be greater than 0\");\n            require(_amountToBuy > 0, \"amount to buy must be greater than 0\");\n            \n            // 2. save information to the purchase post map\n            purchasePostMap[purchasePostCounter].priceToBuy = _priceToBuy;\n            purchasePostMap[purchasePostCounter].amountToBuy = _amountToBuy;          \n            purchasePostMap[purchasePostCounter].buyer = _msgSender;\n            purchasePostMap[purchasePostCounter].enabled = true;\n            purchasePostMap[purchasePostCounter].createdAt = block.timestamp;\n\n            // 3. set post status to true \n            PurchasePostStatus[purchasePostCounter] = true;\n            \n            // 4. save post key to user struct\n            // userMap[_msgSender].purchasePostKeys.push(purchasePostCounter);\n            userService.savePurchasePostKey(_msgSender, purchasePostCounter);\n           \n            // 5. emit event\n            emit PurchasePostCreated( _msgSender, purchasePostCounter, _priceToBuy, _amountToBuy);\n\n            // 6. increment purchase post counter by 1\n            purchasePostCounter++;\n\n\n    }\n\n\n    // seller - create purchase post response messages\n    function createResponseMessageToPurchasePost(uint _amountToSell, uint _quotationInWei, uint _purchasePostKey, address _msgSender) public {\n        \n        // 1. data validation\n        require(_amountToSell > 0, \"amount must be greater than 0\");\n        require(_quotationInWei > 0, \"quotation must be greater than 0\");\n        require(_purchasePostKey >= 0, \"post key starts from 0\");\n        require(_msgSender != purchasePostMap[_purchasePostKey].buyer, \"You cannot reply to your own purchase post\");\n\n        // 2. create a new response message\n        uint messageIndex = purchasePostMap[_purchasePostKey].responseMessages.length;\n        PostResponseMessage message = new PostResponseMessage(address(this), _msgSender, _amountToSell, _quotationInWei, 0, _purchasePostKey, messageIndex );\n        \n        // 3. add the response message to the corresponding purchase post \n        purchasePostMap[_purchasePostKey].responseMessages.push() = message;\n\n        // 4. emit event\n        emit PurchasePostResponseMessageCreated( _msgSender, address(message));\n\n    }\n\n    // handle payment process from response message, this method will only be called by triggerPurchasePostPayment function in PostResponseMessage contract\n    function handlePurchasePostPostPayment(uint _purchasePostKey, uint _responseMessageIndex) public payable returns (string memory) {\n        \n        // 1.1 data validation\n        PostResponseMessage responseMessage = purchasePostMap[_purchasePostKey].responseMessages[_responseMessageIndex];\n        require(address(responseMessage) == msg.sender, \"message sender should only be the response message that triggers payment process\");  \n        // 1.2 get current time\n        uint transactionTime = block.timestamp;\n\n        \n        // 2.1 update seller's account information\n        address seller = responseMessage.messageSender();\n        require( userService.getAvailableElecUnits(seller) >= responseMessage.amount(), \"Insufficient electricity units in account\");\n        // userMap[seller].availableElecUnits -= responseMessage.amount();\n        userService.setAvailableElecUnits(seller, userService.getAvailableElecUnits(seller) - responseMessage.amount());\n\n        // 2.2 update seller's statistics (statistics service required)\n        statisticsService.updateTotalSell(seller, responseMessage.amount());\n        statisticsService.addOneElectricSellTransaction(seller, transactionTime, responseMessage.amount());\n        // 2.2.1 update seller's transaction sequence map to record all transactions regardless of type in sequential order (statistics service required)\n        statisticsService.addTransactionToSequenceMap(seller, 1, transactionTime);\n\n        // 3.1 update buyer's account information\n        address buyer = purchasePostMap[_purchasePostKey].buyer;\n        // userMap[buyer].availableElecUnits += responseMessage.amount();   \n        userService.setAvailableElecUnits(buyer, userService.getAvailableElecUnits(buyer) + responseMessage.amount());     \n        \n        // 3.2 update buyer's statistics (statistics service required)\n        statisticsService.updateTotalBuy(buyer, responseMessage.amount());\n        statisticsService.addOneElectricBuyTransaction(buyer, transactionTime, responseMessage.amount());\n        // 3.2.1 update buyer's transaction sequence map (statistics service required)\n        statisticsService.addTransactionToSequenceMap(buyer, 0, transactionTime);\n        \n        // 4. update purchase post information\n        // 1) deduct purchase amount accordingly \n        require(purchasePostMap[_purchasePostKey].amountToBuy >= responseMessage.amount(), \"The sales quantity should be less than or equal to the purchase demand\");\n        purchasePostMap[_purchasePostKey].amountToBuy -= responseMessage.amount();\n        // 2) set post to disabled if sales quantity match purchase demand \n        if (purchasePostMap[_purchasePostKey].amountToBuy == 0) {\n            purchasePostMap[_purchasePostKey].enabled = false;\n        }\n\n        // 5. transfer ether to seller's account\n        payable(seller).transfer(msg.value);\n        // 6. emit event\n        emit PurchasePostPaymentSuccess(msg.value, _purchasePostKey, address(responseMessage));\n        // 7. return success message\n        return \"success\";\n        \n    }\n\n\n    // ------------------------- buyer side utils -------------------------\n    \n    // returns all purchase posts by user address\n    function returnAllPurchasePostsByAddress(address _account) public view returns (PurchasePost[] memory) {\n        // uint[] memory keys = userMap[_account].purchasePostKeys;\n        uint[] memory keys = userService.getPurchasePostKeys(_account);\n        PurchasePost[] memory purchasePosts = new PurchasePost[](keys.length);\n        for (uint i = 0; i < keys.length; i++) {\n            purchasePosts[i]  = purchasePostMap[keys[i]]; \n        }\n        return purchasePosts;\n    }\n\n    // return total number of purchase posts in the system\n    function returnPurchasePostMapSize() public view returns(uint) {\n        return purchasePostCounter;\n    }\n\n    // return one purchase post by key\n    function getPurchasePostByKey(uint _postKey) public view returns(PurchasePost memory) {\n        return purchasePostMap[_postKey];\n    }\n\n    // return all response messages of a purchase post by post key\n    function returnPurchasePostResponseMessagesByKey(uint _postKey) public view returns(PostResponseMessage[] memory){\n        require(_postKey >= 0, \"post key starts from 0\");\n        return purchasePostMap[_postKey].responseMessages;\n    }\n\n\n}\n",
  "sourcePath": "/Users/richard/Doc//sydney_study/22s2/5703/vue-web3-5703/truffle/contracts/BuyerService.sol",
  "compiler": {
    "name": "solc",
    "version": "0.8.17+commit.8df45f5f.Emscripten.clang"
  },
  "schemaVersion": "3.4.9",
  "updatedAt": "2022-10-04T09:46:21.386Z",
  "devdoc": {
    "kind": "dev",
    "methods": {},
    "version": 1
  },
  "userdoc": {
    "kind": "user",
    "methods": {},
    "version": 1
  }
}