{
  "contractName": "BuyerService",
  "abi": [
    {
      "inputs": [
        {
          "internalType": "contract StatisticsService",
          "name": "_statisticsService",
          "type": "address"
        },
        {
          "internalType": "contract UserService",
          "name": "_userService",
          "type": "address"
        }
      ],
      "stateMutability": "nonpayable",
      "type": "constructor"
    },
    {
      "anonymous": false,
      "inputs": [
        {
          "indexed": false,
          "internalType": "address",
          "name": "creator",
          "type": "address"
        },
        {
          "indexed": false,
          "internalType": "uint256",
          "name": "postKey",
          "type": "uint256"
        },
        {
          "indexed": false,
          "internalType": "uint256",
          "name": "_priceToBuy",
          "type": "uint256"
        },
        {
          "indexed": false,
          "internalType": "uint256",
          "name": "_amountToBuy",
          "type": "uint256"
        }
      ],
      "name": "PurchasePostCreated",
      "type": "event"
    },
    {
      "anonymous": false,
      "inputs": [
        {
          "indexed": false,
          "internalType": "uint256",
          "name": "paymentAmount",
          "type": "uint256"
        },
        {
          "indexed": false,
          "internalType": "uint256",
          "name": "purchasePostKey",
          "type": "uint256"
        },
        {
          "indexed": false,
          "internalType": "address",
          "name": "responseMessageAddress",
          "type": "address"
        }
      ],
      "name": "PurchasePostPaymentSuccess",
      "type": "event"
    },
    {
      "anonymous": false,
      "inputs": [
        {
          "indexed": false,
          "internalType": "address",
          "name": "creator",
          "type": "address"
        },
        {
          "indexed": false,
          "internalType": "address",
          "name": "responseMessageAddress",
          "type": "address"
        }
      ],
      "name": "PurchasePostResponseMessageCreated",
      "type": "event"
    },
    {
      "inputs": [],
      "name": "purchasePostCounter",
      "outputs": [
        {
          "internalType": "uint256",
          "name": "",
          "type": "uint256"
        }
      ],
      "stateMutability": "view",
      "type": "function"
    },
    {
      "inputs": [
        {
          "internalType": "uint256",
          "name": "_priceToBuy",
          "type": "uint256"
        },
        {
          "internalType": "uint256",
          "name": "_amountToBuy",
          "type": "uint256"
        },
        {
          "internalType": "address",
          "name": "_msgSender",
          "type": "address"
        }
      ],
      "name": "createPurchasePost",
      "outputs": [],
      "stateMutability": "nonpayable",
      "type": "function"
    },
    {
      "inputs": [
        {
          "internalType": "uint256",
          "name": "_amountToSell",
          "type": "uint256"
        },
        {
          "internalType": "uint256",
          "name": "_quotationInWei",
          "type": "uint256"
        },
        {
          "internalType": "uint256",
          "name": "_purchasePostKey",
          "type": "uint256"
        },
        {
          "internalType": "address",
          "name": "_msgSender",
          "type": "address"
        }
      ],
      "name": "createResponseMessageToPurchasePost",
      "outputs": [],
      "stateMutability": "nonpayable",
      "type": "function"
    },
    {
      "inputs": [
        {
          "internalType": "uint256",
          "name": "_purchasePostKey",
          "type": "uint256"
        },
        {
          "internalType": "uint256",
          "name": "_responseMessageIndex",
          "type": "uint256"
        }
      ],
      "name": "handlePurchasePostPostPayment",
      "outputs": [
        {
          "internalType": "string",
          "name": "",
          "type": "string"
        }
      ],
      "stateMutability": "payable",
      "type": "function"
    },
    {
      "inputs": [
        {
          "internalType": "address",
          "name": "_account",
          "type": "address"
        }
      ],
      "name": "returnAllPurchasePostsByAddress",
      "outputs": [
        {
          "components": [
            {
              "internalType": "uint256",
              "name": "priceToBuy",
              "type": "uint256"
            },
            {
              "internalType": "uint256",
              "name": "amountToBuy",
              "type": "uint256"
            },
            {
              "internalType": "address",
              "name": "buyer",
              "type": "address"
            },
            {
              "internalType": "bool",
              "name": "enabled",
              "type": "bool"
            },
            {
              "internalType": "uint256",
              "name": "createdAt",
              "type": "uint256"
            },
            {
              "internalType": "contract PostResponseMessage[]",
              "name": "responseMessages",
              "type": "address[]"
            }
          ],
          "internalType": "struct BeanStructs.PurchasePost[]",
          "name": "",
          "type": "tuple[]"
        }
      ],
      "stateMutability": "view",
      "type": "function"
    },
    {
      "inputs": [],
      "name": "returnPurchasePostMapSize",
      "outputs": [
        {
          "internalType": "uint256",
          "name": "",
          "type": "uint256"
        }
      ],
      "stateMutability": "view",
      "type": "function"
    },
    {
      "inputs": [
        {
          "internalType": "uint256",
          "name": "_postKey",
          "type": "uint256"
        }
      ],
      "name": "getPurchasePostByKey",
      "outputs": [
        {
          "components": [
            {
              "internalType": "uint256",
              "name": "priceToBuy",
              "type": "uint256"
            },
            {
              "internalType": "uint256",
              "name": "amountToBuy",
              "type": "uint256"
            },
            {
              "internalType": "address",
              "name": "buyer",
              "type": "address"
            },
            {
              "internalType": "bool",
              "name": "enabled",
              "type": "bool"
            },
            {
              "internalType": "uint256",
              "name": "createdAt",
              "type": "uint256"
            },
            {
              "internalType": "contract PostResponseMessage[]",
              "name": "responseMessages",
              "type": "address[]"
            }
          ],
          "internalType": "struct BeanStructs.PurchasePost",
          "name": "",
          "type": "tuple"
        }
      ],
      "stateMutability": "view",
      "type": "function"
    },
    {
      "inputs": [
        {
          "internalType": "uint256",
          "name": "_postKey",
          "type": "uint256"
        }
      ],
      "name": "returnPurchasePostResponseMessagesByKey",
      "outputs": [
        {
          "internalType": "contract PostResponseMessage[]",
          "name": "",
          "type": "address[]"
        }
      ],
      "stateMutability": "view",
      "type": "function"
    }
  ],
  "bytecode": "0x60806040523480156200001157600080fd5b50604051620046c5380380620046c5833981810160405281019062000037919062000184565b81600460006101000a81548173ffffffffffffffffffffffffffffffffffffffff021916908373ffffffffffffffffffffffffffffffffffffffff16021790555080600560006101000a81548173ffffffffffffffffffffffffffffffffffffffff021916908373ffffffffffffffffffffffffffffffffffffffff1602179055505050620001cb565b600080fd5b600073ffffffffffffffffffffffffffffffffffffffff82169050919050565b6000620000f382620000c6565b9050919050565b60006200010782620000e6565b9050919050565b6200011981620000fa565b81146200012557600080fd5b50565b60008151905062000139816200010e565b92915050565b60006200014c82620000e6565b9050919050565b6200015e816200013f565b81146200016a57600080fd5b50565b6000815190506200017e8162000153565b92915050565b600080604083850312156200019e576200019d620000c1565b5b6000620001ae8582860162000128565b9250506020620001c1858286016200016d565b9150509250929050565b6144ea80620001db6000396000f3fe608060405260043610620000865760003560e01c80637b7e76b811620000555780637b7e76b81462000163578063951b3de814620001a7578063bca73eb214620001d7578063ced8d53014620002055762000086565b80630aeadded146200008b5780633d480db514620000b95780634659d79f14620000ef578063620c503a146200011f575b600080fd5b3480156200009857600080fd5b50620000b76004803603810190620000b1919062001bfb565b62000249565b005b620000d76004803603810190620000d1919062001c6d565b6200056d565b604051620000e6919062001d4e565b60405180910390f35b348015620000fc57600080fd5b506200010762001366565b60405162000116919062001d83565b60405180910390f35b3480156200012c57600080fd5b506200014b600480360381019062000145919062001da0565b6200136c565b6040516200015a919062001efa565b60405180910390f35b3480156200017057600080fd5b506200018f600480360381019062000189919062001f1e565b62001458565b6040516200019e91906200216f565b60405180910390f35b348015620001b457600080fd5b50620001bf6200170c565b604051620001ce919062001d83565b60405180910390f35b348015620001e457600080fd5b50620002036004803603810190620001fd919062002193565b62001716565b005b3480156200021257600080fd5b506200023160048036038101906200022b919062001da0565b6200199e565b60405162000240919062002284565b60405180910390f35b600084116200028f576040517f08c379a00000000000000000000000000000000000000000000000000000000081526004016200028690620022f8565b60405180910390fd5b60008311620002d5576040517f08c379a0000000000000000000000000000000000000000000000000000000008152600401620002cc906200236a565b60405180910390fd5b60008210156200031c576040517f08c379a00000000000000000000000000000000000000000000000000000000081526004016200031390620023dc565b60405180910390fd5b60008083815260200190815260200160002060020160009054906101000a900473ffffffffffffffffffffffffffffffffffffffff1673ffffffffffffffffffffffffffffffffffffffff168173ffffffffffffffffffffffffffffffffffffffff1603620003c2576040517f08c379a0000000000000000000000000000000000000000000000000000000008152600401620003b99062002474565b60405180910390fd5b600080600084815260200190815260200160002060040180549050905060003083878760008887604051620003f79062001aeb565b620004099796959493929190620024f7565b604051809103906000f08015801562000426573d6000803e3d6000fd5b50905080600080868152602001908152602001600020600401600181600181540180825580915050039060005260206000200160006101000a81548173ffffffffffffffffffffffffffffffffffffffff021916908373ffffffffffffffffffffffffffffffffffffffff160217905550600560009054906101000a900473ffffffffffffffffffffffffffffffffffffffff1673ffffffffffffffffffffffffffffffffffffffff166384dc965a84836040518363ffffffff1660e01b8152600401620004f692919062002585565b600060405180830381600087803b1580156200051157600080fd5b505af115801562000526573d6000803e3d6000fd5b505050507f83c1d63a3e3cd3d3a92a899ed2f341bd373a5326ebf67b9bd646543e55081ebc83826040516200055d929190620025b2565b60405180910390a1505050505050565b6060600080600085815260200190815260200160002060040183815481106200059b576200059a620025df565b5b9060005260206000200160009054906101000a900473ffffffffffffffffffffffffffffffffffffffff1690503373ffffffffffffffffffffffffffffffffffffffff168173ffffffffffffffffffffffffffffffffffffffff161462000639576040517f08c379a00000000000000000000000000000000000000000000000000000000081526004016200063090620026aa565b60405180910390fd5b600042905060008273ffffffffffffffffffffffffffffffffffffffff1663d67bdd256040518163ffffffff1660e01b8152600401602060405180830381865afa1580156200068c573d6000803e3d6000fd5b505050506040513d601f19601f82011682018060405250810190620006b29190620026e3565b90508273ffffffffffffffffffffffffffffffffffffffff1663aa8c217c6040518163ffffffff1660e01b8152600401602060405180830381865afa15801562000700573d6000803e3d6000fd5b505050506040513d601f19601f820116820180604052508101906200072691906200272c565b600560009054906101000a900473ffffffffffffffffffffffffffffffffffffffff1673ffffffffffffffffffffffffffffffffffffffff1663cb8ab15b836040518263ffffffff1660e01b81526004016200078391906200275e565b602060405180830381865afa158015620007a1573d6000803e3d6000fd5b505050506040513d601f19601f82011682018060405250810190620007c791906200272c565b10156200080b576040517f08c379a00000000000000000000000000000000000000000000000000000000081526004016200080290620027f1565b60405180910390fd5b600560009054906101000a900473ffffffffffffffffffffffffffffffffffffffff1673ffffffffffffffffffffffffffffffffffffffff1663e2670971828573ffffffffffffffffffffffffffffffffffffffff1663aa8c217c6040518163ffffffff1660e01b8152600401602060405180830381865afa15801562000896573d6000803e3d6000fd5b505050506040513d601f19601f82011682018060405250810190620008bc91906200272c565b600560009054906101000a900473ffffffffffffffffffffffffffffffffffffffff1673ffffffffffffffffffffffffffffffffffffffff1663cb8ab15b866040518263ffffffff1660e01b81526004016200091991906200275e565b602060405180830381865afa15801562000937573d6000803e3d6000fd5b505050506040513d601f19601f820116820180604052508101906200095d91906200272c565b62000969919062002842565b6040518363ffffffff1660e01b8152600401620009889291906200287d565b600060405180830381600087803b158015620009a357600080fd5b505af1158015620009b8573d6000803e3d6000fd5b50505050600460009054906101000a900473ffffffffffffffffffffffffffffffffffffffff1673ffffffffffffffffffffffffffffffffffffffff1663e8b8530f828573ffffffffffffffffffffffffffffffffffffffff1663aa8c217c6040518163ffffffff1660e01b8152600401602060405180830381865afa15801562000a47573d6000803e3d6000fd5b505050506040513d601f19601f8201168201806040525081019062000a6d91906200272c565b6040518363ffffffff1660e01b815260040162000a8c9291906200287d565b600060405180830381600087803b15801562000aa757600080fd5b505af115801562000abc573d6000803e3d6000fd5b50505050600460009054906101000a900473ffffffffffffffffffffffffffffffffffffffff1673ffffffffffffffffffffffffffffffffffffffff16631e7ba9cd82848673ffffffffffffffffffffffffffffffffffffffff1663aa8c217c6040518163ffffffff1660e01b8152600401602060405180830381865afa15801562000b4c573d6000803e3d6000fd5b505050506040513d601f19601f8201168201806040525081019062000b7291906200272c565b6040518463ffffffff1660e01b815260040162000b9293929190620028aa565b600060405180830381600087803b15801562000bad57600080fd5b505af115801562000bc2573d6000803e3d6000fd5b50505050600460009054906101000a900473ffffffffffffffffffffffffffffffffffffffff1673ffffffffffffffffffffffffffffffffffffffff1663e6b02333826001856040518463ffffffff1660e01b815260040162000c28939291906200292a565b600060405180830381600087803b15801562000c4357600080fd5b505af115801562000c58573d6000803e3d6000fd5b50505050600080600088815260200190815260200160002060020160009054906101000a900473ffffffffffffffffffffffffffffffffffffffff169050600560009054906101000a900473ffffffffffffffffffffffffffffffffffffffff1673ffffffffffffffffffffffffffffffffffffffff1663e2670971828673ffffffffffffffffffffffffffffffffffffffff1663aa8c217c6040518163ffffffff1660e01b8152600401602060405180830381865afa15801562000d21573d6000803e3d6000fd5b505050506040513d601f19601f8201168201806040525081019062000d4791906200272c565b600560009054906101000a900473ffffffffffffffffffffffffffffffffffffffff1673ffffffffffffffffffffffffffffffffffffffff1663cb8ab15b866040518263ffffffff1660e01b815260040162000da491906200275e565b602060405180830381865afa15801562000dc2573d6000803e3d6000fd5b505050506040513d601f19601f8201168201806040525081019062000de891906200272c565b62000df4919062002967565b6040518363ffffffff1660e01b815260040162000e139291906200287d565b600060405180830381600087803b15801562000e2e57600080fd5b505af115801562000e43573d6000803e3d6000fd5b50505050600460009054906101000a900473ffffffffffffffffffffffffffffffffffffffff1673ffffffffffffffffffffffffffffffffffffffff16633f9b696c828673ffffffffffffffffffffffffffffffffffffffff1663aa8c217c6040518163ffffffff1660e01b8152600401602060405180830381865afa15801562000ed2573d6000803e3d6000fd5b505050506040513d601f19601f8201168201806040525081019062000ef891906200272c565b6040518363ffffffff1660e01b815260040162000f179291906200287d565b600060405180830381600087803b15801562000f3257600080fd5b505af115801562000f47573d6000803e3d6000fd5b50505050600460009054906101000a900473ffffffffffffffffffffffffffffffffffffffff1673ffffffffffffffffffffffffffffffffffffffff16632f0a323e82858773ffffffffffffffffffffffffffffffffffffffff1663aa8c217c6040518163ffffffff1660e01b8152600401602060405180830381865afa15801562000fd7573d6000803e3d6000fd5b505050506040513d601f19601f8201168201806040525081019062000ffd91906200272c565b6040518463ffffffff1660e01b81526004016200101d93929190620028aa565b600060405180830381600087803b1580156200103857600080fd5b505af11580156200104d573d6000803e3d6000fd5b50505050600460009054906101000a900473ffffffffffffffffffffffffffffffffffffffff1673ffffffffffffffffffffffffffffffffffffffff1663e6b02333826000866040518463ffffffff1660e01b8152600401620010b393929190620029db565b600060405180830381600087803b158015620010ce57600080fd5b505af1158015620010e3573d6000803e3d6000fd5b505050508373ffffffffffffffffffffffffffffffffffffffff1663aa8c217c6040518163ffffffff1660e01b8152600401602060405180830381865afa15801562001133573d6000803e3d6000fd5b505050506040513d601f19601f820116820180604052508101906200115991906200272c565b600080898152602001908152602001600020600101541015620011b3576040517f08c379a0000000000000000000000000000000000000000000000000000000008152600401620011aa9062002ab4565b60405180910390fd5b8373ffffffffffffffffffffffffffffffffffffffff1663aa8c217c6040518163ffffffff1660e01b8152600401602060405180830381865afa158015620011ff573d6000803e3d6000fd5b505050506040513d601f19601f820116820180604052508101906200122591906200272c565b60008089815260200190815260200160002060010160008282546200124b919062002842565b92505081905550600080600089815260200190815260200160002060010154036200129f57600080600089815260200190815260200160002060020160146101000a81548160ff0219169083151502179055505b8173ffffffffffffffffffffffffffffffffffffffff166108fc349081150290604051600060405180830381858888f19350505050158015620012e6573d6000803e3d6000fd5b507faa5ef240d12945dacdcfd9ecc9a86ba7fa61f117ef9e9626465aa252e6dd5b663488866040516200131c9392919062002ad6565b60405180910390a16040518060400160405280600781526020017f737563636573730000000000000000000000000000000000000000000000000081525094505050505092915050565b60035481565b60606000821015620013b5576040517f08c379a0000000000000000000000000000000000000000000000000000000008152600401620013ac90620023dc565b60405180910390fd5b6000808381526020019081526020016000206004018054806020026020016040519081016040528092919081815260200182805480156200144c57602002820191906000526020600020905b8160009054906101000a900473ffffffffffffffffffffffffffffffffffffffff1673ffffffffffffffffffffffffffffffffffffffff168152602001906001019080831162001401575b50505050509050919050565b60606000600560009054906101000a900473ffffffffffffffffffffffffffffffffffffffff1673ffffffffffffffffffffffffffffffffffffffff1663ebe0b877846040518263ffffffff1660e01b8152600401620014b991906200275e565b600060405180830381865afa158015620014d7573d6000803e3d6000fd5b505050506040513d6000823e3d601f19601f8201168201806040525081019062001502919062002c77565b90506000815167ffffffffffffffff81111562001524576200152362002b18565b5b6040519080825280602002602001820160405280156200156157816020015b6200154d62001af9565b815260200190600190039081620015435790505b50905060005b825181101562001701576000808483815181106200158a5762001589620025df565b5b602002602001015181526020019081526020016000206040518060c001604052908160008201548152602001600182015481526020016002820160009054906101000a900473ffffffffffffffffffffffffffffffffffffffff1673ffffffffffffffffffffffffffffffffffffffff1673ffffffffffffffffffffffffffffffffffffffff1681526020016002820160149054906101000a900460ff161515151581526020016003820154815260200160048201805480602002602001604051908101604052809291908181526020018280548015620016c157602002820191906000526020600020905b8160009054906101000a900473ffffffffffffffffffffffffffffffffffffffff1673ffffffffffffffffffffffffffffffffffffffff168152602001906001019080831162001676575b505050505081525050828281518110620016e057620016df620025df565b5b60200260200101819052508080620016f89062002cc8565b91505062001567565b508092505050919050565b6000600354905090565b600083116200175c576040517f08c379a0000000000000000000000000000000000000000000000000000000008152600401620017539062002d8b565b60405180910390fd5b60008211620017a2576040517f08c379a0000000000000000000000000000000000000000000000000000000008152600401620017999062002e23565b60405180910390fd5b826000806003548152602001908152602001600020600001819055508160008060035481526020019081526020016000206001018190555080600080600354815260200190815260200160002060020160006101000a81548173ffffffffffffffffffffffffffffffffffffffff021916908373ffffffffffffffffffffffffffffffffffffffff1602179055506001600080600354815260200190815260200160002060020160146101000a81548160ff021916908315150217905550426000806003548152602001908152602001600020600301819055506001806000600354815260200190815260200160002060006101000a81548160ff021916908315150217905550600560009054906101000a900473ffffffffffffffffffffffffffffffffffffffff1673ffffffffffffffffffffffffffffffffffffffff1663f03b5e9d826003546040518363ffffffff1660e01b81526004016200190a9291906200287d565b600060405180830381600087803b1580156200192557600080fd5b505af11580156200193a573d6000803e3d6000fd5b505050507fb327665b1bbfd6560701e012c966f02c9abe3e3b1afa5c084bfa31ed1e70107181600354858560405162001977949392919062002e45565b60405180910390a160036000815480929190620019949062002cc8565b9190505550505050565b620019a862001af9565b6000808381526020019081526020016000206040518060c001604052908160008201548152602001600182015481526020016002820160009054906101000a900473ffffffffffffffffffffffffffffffffffffffff1673ffffffffffffffffffffffffffffffffffffffff1673ffffffffffffffffffffffffffffffffffffffff1681526020016002820160149054906101000a900460ff16151515158152602001600382015481526020016004820180548060200260200160405190810160405280929190818152602001828054801562001adb57602002820191906000526020600020905b8160009054906101000a900473ffffffffffffffffffffffffffffffffffffffff1673ffffffffffffffffffffffffffffffffffffffff168152602001906001019080831162001a90575b5050505050815250509050919050565b6116228062002e9383390190565b6040518060c001604052806000815260200160008152602001600073ffffffffffffffffffffffffffffffffffffffff16815260200160001515815260200160008152602001606081525090565b6000604051905090565b600080fd5b600080fd5b6000819050919050565b62001b708162001b5b565b811462001b7c57600080fd5b50565b60008135905062001b908162001b65565b92915050565b600073ffffffffffffffffffffffffffffffffffffffff82169050919050565b600062001bc38262001b96565b9050919050565b62001bd58162001bb6565b811462001be157600080fd5b50565b60008135905062001bf58162001bca565b92915050565b6000806000806080858703121562001c185762001c1762001b51565b5b600062001c288782880162001b7f565b945050602062001c3b8782880162001b7f565b935050604062001c4e8782880162001b7f565b925050606062001c618782880162001be4565b91505092959194509250565b6000806040838503121562001c875762001c8662001b51565b5b600062001c978582860162001b7f565b925050602062001caa8582860162001b7f565b9150509250929050565b600081519050919050565b600082825260208201905092915050565b60005b8381101562001cf057808201518184015260208101905062001cd3565b60008484015250505050565b6000601f19601f8301169050919050565b600062001d1a8262001cb4565b62001d26818562001cbf565b935062001d3881856020860162001cd0565b62001d438162001cfc565b840191505092915050565b6000602082019050818103600083015262001d6a818462001d0d565b905092915050565b62001d7d8162001b5b565b82525050565b600060208201905062001d9a600083018462001d72565b92915050565b60006020828403121562001db95762001db862001b51565b5b600062001dc98482850162001b7f565b91505092915050565b600081519050919050565b600082825260208201905092915050565b6000819050602082019050919050565b6000819050919050565b600062001e2962001e2362001e1d8462001b96565b62001dfe565b62001b96565b9050919050565b600062001e3d8262001e08565b9050919050565b600062001e518262001e30565b9050919050565b62001e638162001e44565b82525050565b600062001e77838362001e58565b60208301905092915050565b6000602082019050919050565b600062001e9d8262001dd2565b62001ea9818562001ddd565b935062001eb68362001dee565b8060005b8381101562001eed57815162001ed1888262001e69565b975062001ede8362001e83565b92505060018101905062001eba565b5085935050505092915050565b6000602082019050818103600083015262001f16818462001e90565b905092915050565b60006020828403121562001f375762001f3662001b51565b5b600062001f478482850162001be4565b91505092915050565b600081519050919050565b600082825260208201905092915050565b6000819050602082019050919050565b62001f878162001b5b565b82525050565b62001f988162001bb6565b82525050565b60008115159050919050565b62001fb58162001f9e565b82525050565b600082825260208201905092915050565b600062001fd98262001dd2565b62001fe5818562001fbb565b935062001ff28362001dee565b8060005b83811015620020295781516200200d888262001e69565b97506200201a8362001e83565b92505060018101905062001ff6565b5085935050505092915050565b600060c08301600083015162002050600086018262001f7c565b50602083015162002065602086018262001f7c565b5060408301516200207a604086018262001f8d565b5060608301516200208f606086018262001faa565b506080830151620020a4608086018262001f7c565b5060a083015184820360a0860152620020be828262001fcc565b9150508091505092915050565b6000620020d9838362002036565b905092915050565b6000602082019050919050565b6000620020fb8262001f50565b62002107818562001f5b565b9350836020820285016200211b8562001f6c565b8060005b858110156200215d57848403895281516200213b8582620020cb565b94506200214883620020e1565b925060208a019950506001810190506200211f565b50829750879550505050505092915050565b600060208201905081810360008301526200218b8184620020ee565b905092915050565b600080600060608486031215620021af57620021ae62001b51565b5b6000620021bf8682870162001b7f565b9350506020620021d28682870162001b7f565b9250506040620021e58682870162001be4565b9150509250925092565b600060c08301600083015162002209600086018262001f7c565b5060208301516200221e602086018262001f7c565b50604083015162002233604086018262001f8d565b50606083015162002248606086018262001faa565b5060808301516200225d608086018262001f7c565b5060a083015184820360a086015262002277828262001fcc565b9150508091505092915050565b60006020820190508181036000830152620022a08184620021ef565b905092915050565b7f616d6f756e74206d7573742062652067726561746572207468616e2030000000600082015250565b6000620022e0601d8362001cbf565b9150620022ed82620022a8565b602082019050919050565b600060208201905081810360008301526200231381620022d1565b9050919050565b7f71756f746174696f6e206d7573742062652067726561746572207468616e2030600082015250565b60006200235260208362001cbf565b91506200235f826200231a565b602082019050919050565b60006020820190508181036000830152620023858162002343565b9050919050565b7f706f7374206b6579207374617274732066726f6d203000000000000000000000600082015250565b6000620023c460168362001cbf565b9150620023d1826200238c565b602082019050919050565b60006020820190508181036000830152620023f781620023b5565b9050919050565b7f596f752063616e6e6f74207265706c7920746f20796f7572206f776e2070757260008201527f636861736520706f737400000000000000000000000000000000000000000000602082015250565b60006200245c602a8362001cbf565b91506200246982620023fe565b604082019050919050565b600060208201905081810360008301526200248f816200244d565b9050919050565b620024a18162001bb6565b82525050565b6000819050919050565b600060ff82169050919050565b6000620024df620024d9620024d384620024a7565b62001dfe565b620024b1565b9050919050565b620024f181620024be565b82525050565b600060e0820190506200250e600083018a62002496565b6200251d602083018962002496565b6200252c604083018862001d72565b6200253b606083018762001d72565b6200254a6080830186620024e6565b6200255960a083018562001d72565b6200256860c083018462001d72565b98975050505050505050565b6200257f8162001e44565b82525050565b60006040820190506200259c600083018562002496565b620025ab602083018462002574565b9392505050565b6000604082019050620025c9600083018562002496565b620025d8602083018462002496565b9392505050565b7f4e487b7100000000000000000000000000000000000000000000000000000000600052603260045260246000fd5b7f6d6573736167652073656e6465722073686f756c64206f6e6c7920626520746860008201527f6520726573706f6e7365206d657373616765207468617420747269676765727360208201527f207061796d656e742070726f6365737300000000000000000000000000000000604082015250565b60006200269260508362001cbf565b91506200269f826200260e565b606082019050919050565b60006020820190508181036000830152620026c58162002683565b9050919050565b600081519050620026dd8162001bca565b92915050565b600060208284031215620026fc57620026fb62001b51565b5b60006200270c84828501620026cc565b91505092915050565b600081519050620027268162001b65565b92915050565b60006020828403121562002745576200274462001b51565b5b6000620027558482850162002715565b91505092915050565b600060208201905062002775600083018462002496565b92915050565b7f496e73756666696369656e7420656c65637472696369747920756e697473206960008201527f6e206163636f756e740000000000000000000000000000000000000000000000602082015250565b6000620027d960298362001cbf565b9150620027e6826200277b565b604082019050919050565b600060208201905081810360008301526200280c81620027ca565b9050919050565b7f4e487b7100000000000000000000000000000000000000000000000000000000600052601160045260246000fd5b60006200284f8262001b5b565b91506200285c8362001b5b565b925082820390508181111562002877576200287662002813565b5b92915050565b600060408201905062002894600083018562002496565b620028a3602083018462001d72565b9392505050565b6000606082019050620028c1600083018662002496565b620028d0602083018562001d72565b620028df604083018462001d72565b949350505050565b6000819050919050565b6000620029126200290c6200290684620028e7565b62001dfe565b62001b5b565b9050919050565b6200292481620028f1565b82525050565b600060608201905062002941600083018662002496565b62002950602083018562002919565b6200295f604083018462001d72565b949350505050565b6000620029748262001b5b565b9150620029818362001b5b565b92508282019050808211156200299c576200299b62002813565b5b92915050565b6000620029c3620029bd620029b784620024a7565b62001dfe565b62001b5b565b9050919050565b620029d581620029a2565b82525050565b6000606082019050620029f2600083018662002496565b62002a016020830185620029ca565b62002a10604083018462001d72565b949350505050565b7f5468652073616c6573207175616e746974792073686f756c64206265206c657360008201527f73207468616e206f7220657175616c20746f207468652070757263686173652060208201527f64656d616e640000000000000000000000000000000000000000000000000000604082015250565b600062002a9c60468362001cbf565b915062002aa98262002a18565b606082019050919050565b6000602082019050818103600083015262002acf8162002a8d565b9050919050565b600060608201905062002aed600083018662001d72565b62002afc602083018562001d72565b62002b0b604083018462002496565b949350505050565b600080fd5b7f4e487b7100000000000000000000000000000000000000000000000000000000600052604160045260246000fd5b62002b528262001cfc565b810181811067ffffffffffffffff8211171562002b745762002b7362002b18565b5b80604052505050565b600062002b8962001b47565b905062002b97828262002b47565b919050565b600067ffffffffffffffff82111562002bba5762002bb962002b18565b5b602082029050602081019050919050565b600080fd5b600062002be762002be18462002b9c565b62002b7d565b9050808382526020820190506020840283018581111562002c0d5762002c0c62002bcb565b5b835b8181101562002c3a578062002c25888262002715565b84526020840193505060208101905062002c0f565b5050509392505050565b600082601f83011262002c5c5762002c5b62002b13565b5b815162002c6e84826020860162002bd0565b91505092915050565b60006020828403121562002c905762002c8f62001b51565b5b600082015167ffffffffffffffff81111562002cb15762002cb062001b56565b5b62002cbf8482850162002c44565b91505092915050565b600062002cd58262001b5b565b91507fffffffffffffffffffffffffffffffffffffffffffffffffffffffffffffffff820362002d0a5762002d0962002813565b5b600182019050919050565b7f7075726368617365207072696365206d7573742062652067726561746572207460008201527f68616e2030000000000000000000000000000000000000000000000000000000602082015250565b600062002d7360258362001cbf565b915062002d808262002d15565b604082019050919050565b6000602082019050818103600083015262002da68162002d64565b9050919050565b7f616d6f756e7420746f20627579206d757374206265206772656174657220746860008201527f616e203000000000000000000000000000000000000000000000000000000000602082015250565b600062002e0b60248362001cbf565b915062002e188262002dad565b604082019050919050565b6000602082019050818103600083015262002e3e8162002dfc565b9050919050565b600060808201905062002e5c600083018762002496565b62002e6b602083018662001d72565b62002e7a604083018562001d72565b62002e89606083018462001d72565b9594505050505056fe60806040523480156200001157600080fd5b50604051620016223803806200162283398181016040528101906200003791906200021c565b86600860006101000a81548173ffffffffffffffffffffffffffffffffffffffff021916908373ffffffffffffffffffffffffffffffffffffffff160217905550856000806101000a81548173ffffffffffffffffffffffffffffffffffffffff021916908373ffffffffffffffffffffffffffffffffffffffff160217905550846001819055508360028190555082600360006101000a81548160ff021916908360ff16021790555081600481905550806005819055506000600660006101000a81548160ff0219169083151502179055506000600660016101000a81548160ff0219169083151502179055504260078190555050505050505050620002cf565b600080fd5b600073ffffffffffffffffffffffffffffffffffffffff82169050919050565b60006200016b826200013e565b9050919050565b6200017d816200015e565b81146200018957600080fd5b50565b6000815190506200019d8162000172565b92915050565b6000819050919050565b620001b881620001a3565b8114620001c457600080fd5b50565b600081519050620001d881620001ad565b92915050565b600060ff82169050919050565b620001f681620001de565b81146200020257600080fd5b50565b6000815190506200021681620001eb565b92915050565b600080600080600080600060e0888a0312156200023e576200023d62000139565b5b60006200024e8a828b016200018c565b9750506020620002618a828b016200018c565b9650506040620002748a828b01620001c7565b9550506060620002878a828b01620001c7565b94505060806200029a8a828b0162000205565b93505060a0620002ad8a828b01620001c7565b92505060c0620002c08a828b01620001c7565b91505092959891949750929550565b61134380620002df6000396000f3fe6080604052600436106100c65760003560e01c806382fa096a1161007f578063abf4d6c411610059578063abf4d6c414610424578063c32b9b531461042e578063cf09e0d014610438578063d67bdd25146104635761029e565b806382fa096a146103a3578063a03a202e146103ce578063aa8c217c146103f95761029e565b806304dc4cda146102a3578063209ebc08146102ce5780633013aa25146102f95780633d855485146103225780633e784e631461034d5780635051a5ec146103785761029e565b3661029e576000341161010e576040517f08c379a000000000000000000000000000000000000000000000000000000000815260040161010590610b63565b60405180910390fd5b60011515600660009054906101000a900460ff16151514610164576040517f08c379a000000000000000000000000000000000000000000000000000000000815260040161015b90610bf5565b60405180910390fd5b346002546001546101759190610c4e565b146101b5576040517f08c379a00000000000000000000000000000000000000000000000000000000081526004016101ac90610cdc565b60405180910390fd5b60001515600660019054906101000a900460ff1615151461020b576040517f08c379a000000000000000000000000000000000000000000000000000000000815260040161020290610d48565b60405180910390fd5b6000600360009054906101000a900460ff1660ff16036102325761022d61048e565b61029c565b6001600360009054906101000a900460ff1660ff16036102595761025461069d565b61029b565b600061029a576040517f08c379a000000000000000000000000000000000000000000000000000000000815260040161029190610db4565b60405180910390fd5b5b5b005b600080fd5b3480156102af57600080fd5b506102b86108ac565b6040516102c59190610df0565b60405180910390f35b3480156102da57600080fd5b506102e36108bf565b6040516102f09190610e26565b60405180910390f35b34801561030557600080fd5b50610320600480360381019061031b9190610e72565b6108d2565b005b34801561032e57600080fd5b5061033761093d565b6040516103449190610eae565b60405180910390f35b34801561035957600080fd5b50610362610943565b60405161036f9190610eae565b60405180910390f35b34801561038457600080fd5b5061038d610949565b60405161039a9190610e26565b60405180910390f35b3480156103af57600080fd5b506103b861095c565b6040516103c59190610fee565b60405180910390f35b3480156103da57600080fd5b506103e3610a67565b6040516103f09190610eae565b60405180910390f35b34801561040557600080fd5b5061040e610a6d565b60405161041b9190610eae565b60405180910390f35b61042c61048e565b005b61043661069d565b005b34801561044457600080fd5b5061044d610a73565b60405161045a9190610eae565b60405180910390f35b34801561046f57600080fd5b50610478610a79565b6040516104859190611019565b60405180910390f35b60008054906101000a900473ffffffffffffffffffffffffffffffffffffffff1673ffffffffffffffffffffffffffffffffffffffff163373ffffffffffffffffffffffffffffffffffffffff160361051c576040517f08c379a0000000000000000000000000000000000000000000000000000000008152600401610513906110a6565b60405180910390fd5b6000600860009054906101000a900473ffffffffffffffffffffffffffffffffffffffff1673ffffffffffffffffffffffffffffffffffffffff163460045460055460405160240161056f9291906110c6565b6040516020818303038152906040527f3d480db5000000000000000000000000000000000000000000000000000000007bffffffffffffffffffffffffffffffffffffffffffffffffffffffff19166020820180517bffffffffffffffffffffffffffffffffffffffffffffffffffffffff83818316178352505050506040516105f99190611160565b60006040518083038185875af1925050503d8060008114610636576040519150601f19603f3d011682016040523d82523d6000602084013e61063b565b606091505b505090508061067f576040517f08c379a0000000000000000000000000000000000000000000000000000000008152600401610676906111c3565b60405180910390fd5b6001600660016101000a81548160ff02191690831515021790555050565b60008054906101000a900473ffffffffffffffffffffffffffffffffffffffff1673ffffffffffffffffffffffffffffffffffffffff163373ffffffffffffffffffffffffffffffffffffffff161461072b576040517f08c379a00000000000000000000000000000000000000000000000000000000081526004016107229061127b565b60405180910390fd5b6000600860009054906101000a900473ffffffffffffffffffffffffffffffffffffffff1673ffffffffffffffffffffffffffffffffffffffff163460045460055460405160240161077e9291906110c6565b6040516020818303038152906040527f0876290a000000000000000000000000000000000000000000000000000000007bffffffffffffffffffffffffffffffffffffffffffffffffffffffff19166020820180517bffffffffffffffffffffffffffffffffffffffffffffffffffffffff83818316178352505050506040516108089190611160565b60006040518083038185875af1925050503d8060008114610845576040519150601f19603f3d011682016040523d82523d6000602084013e61084a565b606091505b505090508061088e576040517f08c379a0000000000000000000000000000000000000000000000000000000008152600401610885906111c3565b60405180910390fd5b6001600660016101000a81548160ff02191690831515021790555050565b600360009054906101000a900460ff1681565b600660019054906101000a900460ff1681565b80600660006101000a81548160ff0219169083151502179055507f9161e5ec70df4a8ef9f6085e3435135f3da64c7ec32c271912e1ca8d4afbd7c3600360009054906101000a900460ff16600454600554604051610932939291906112d6565b60405180910390a150565b60045481565b60055481565b600660009054906101000a900460ff1681565b610964610a9d565b61096c610a9d565b60008054906101000a900473ffffffffffffffffffffffffffffffffffffffff16816000019073ffffffffffffffffffffffffffffffffffffffff16908173ffffffffffffffffffffffffffffffffffffffff1681525050600154816020018181525050600254816040018181525050600360009054906101000a900460ff16816060019060ff16908160ff16815250506004548160800181815250506005548160a0018181525050600660009054906101000a900460ff168160c0019015159081151581525050600660019054906101000a900460ff168160e0019015159081151581525050600754816101000181815250508091505090565b60025481565b60015481565b60075481565b60008054906101000a900473ffffffffffffffffffffffffffffffffffffffff1681565b604051806101200160405280600073ffffffffffffffffffffffffffffffffffffffff1681526020016000815260200160008152602001600060ff1681526020016000815260200160008152602001600015158152602001600015158152602001600081525090565b600082825260208201905092915050565b7f696e76616c6964207061796d656e740000000000000000000000000000000000600082015250565b6000610b4d600f83610b06565b9150610b5882610b17565b602082019050919050565b60006020820190508181036000830152610b7c81610b40565b9050919050565b7f796f757220726573706f6e736520686173206e6f74206265656e20616363657060008201527f7465642062792073656c6c657220796574000000000000000000000000000000602082015250565b6000610bdf603183610b06565b9150610bea82610b83565b604082019050919050565b60006020820190508181036000830152610c0e81610bd2565b9050919050565b6000819050919050565b7f4e487b7100000000000000000000000000000000000000000000000000000000600052601160045260246000fd5b6000610c5982610c15565b9150610c6483610c15565b9250828202610c7281610c15565b91508282048414831517610c8957610c88610c1f565b5b5092915050565b7f4e6f742066756c6c792070616964207965740000000000000000000000000000600082015250565b6000610cc6601283610b06565b9150610cd182610c90565b602082019050919050565b60006020820190508181036000830152610cf581610cb9565b9050919050565b7f4f7264657220697320616c726561647920706169642100000000000000000000600082015250565b6000610d32601683610b06565b9150610d3d82610cfc565b602082019050919050565b60006020820190508181036000830152610d6181610d25565b9050919050565b7f696e76616c696420726573706f6e7365206d6573736167652074797065000000600082015250565b6000610d9e601d83610b06565b9150610da982610d68565b602082019050919050565b60006020820190508181036000830152610dcd81610d91565b9050919050565b600060ff82169050919050565b610dea81610dd4565b82525050565b6000602082019050610e056000830184610de1565b92915050565b60008115159050919050565b610e2081610e0b565b82525050565b6000602082019050610e3b6000830184610e17565b92915050565b600080fd5b610e4f81610e0b565b8114610e5a57600080fd5b50565b600081359050610e6c81610e46565b92915050565b600060208284031215610e8857610e87610e41565b5b6000610e9684828501610e5d565b91505092915050565b610ea881610c15565b82525050565b6000602082019050610ec36000830184610e9f565b92915050565b600073ffffffffffffffffffffffffffffffffffffffff82169050919050565b6000610ef482610ec9565b9050919050565b610f0481610ee9565b82525050565b610f1381610c15565b82525050565b610f2281610dd4565b82525050565b610f3181610e0b565b82525050565b61012082016000820151610f4e6000850182610efb565b506020820151610f616020850182610f0a565b506040820151610f746040850182610f0a565b506060820151610f876060850182610f19565b506080820151610f9a6080850182610f0a565b5060a0820151610fad60a0850182610f0a565b5060c0820151610fc060c0850182610f28565b5060e0820151610fd360e0850182610f28565b50610100820151610fe8610100850182610f0a565b50505050565b6000610120820190506110046000830184610f37565b92915050565b61101381610ee9565b82525050565b600060208201905061102e600083018461100a565b92915050565b7f596f752063616e6e6f74206d616b652061207061796d656e7420746f20796f7560008201527f72206f776e2073656c6c696e6720726573706f6e7365206d6573736167650000602082015250565b6000611090603e83610b06565b915061109b82611034565b604082019050919050565b600060208201905081810360008301526110bf81611083565b9050919050565b60006040820190506110db6000830185610e9f565b6110e86020830184610e9f565b9392505050565b600081519050919050565b600081905092915050565b60005b83811015611123578082015181840152602081019050611108565b60008484015250505050565b600061113a826110ef565b61114481856110fa565b9350611154818560208601611105565b80840191505092915050565b600061116c828461112f565b915081905092915050565b7f7061796d656e74206661696c6564000000000000000000000000000000000000600082015250565b60006111ad600e83610b06565b91506111b882611177565b602082019050919050565b600060208201905081810360008301526111dc816111a0565b9050919050565b7f4f6e6c7920746865206d6573736167652073656e6465722077686f2073656e7460008201527f207468697320726573706f6e736520746f206163717569726520656c6563747260208201527f696369747920756e6974732063616e206d616b652061207061796d656e740000604082015250565b6000611265605e83610b06565b9150611270826111e3565b606082019050919050565b6000602082019050818103600083015261129481611258565b9050919050565b6000819050919050565b60006112c06112bb6112b684610dd4565b61129b565b610c15565b9050919050565b6112d0816112a5565b82525050565b60006060820190506112eb60008301866112c7565b6112f86020830185610e9f565b6113056040830184610e9f565b94935050505056fea264697066735822122073e925c02640f54ec6f797a0c5db83b3650b31ffafe16a7aa55534274ce1d24064736f6c63430008110033a26469706673582212204ce13695e38352a1eabc059937cb3fe9eec582ac8b1c40aadc88f29f6d65cd4064736f6c63430008110033",
  "immutableReferences": {},
  "source": "\n//SPDX-License-Identifier: MIT\n\npragma solidity ^0.8.0;\n\nimport \"./BeanStructs.sol\";\nimport \"./UserService.sol\";\nimport \"./StatisticsService.sol\";\n\ncontract BuyerService is BeanStructs {\n\n    // ------------------------- storage variables -------------------------\n\n    // map each purchase post to an index\n    mapping(uint => PurchasePost) purchasePostMap;\n    mapping(uint => bool) PurchasePostStatus;       // label purchase post status\n    uint[]  purchasePostKeys;                       // array of keys of purchase posts \n    uint public purchasePostCounter;                // count total number of purchase posts, start from 0\n    \n\n    // reference to statistics service\n    StatisticsService statisticsService;\n    UserService userService;\n    \n    constructor(StatisticsService _statisticsService, UserService _userService) {\n        statisticsService = _statisticsService;\n        userService = _userService;\n    }\n\n    // events\n    event PurchasePostCreated(address creator, uint postKey, uint _priceToBuy, uint _amountToBuy);\n    event PurchasePostResponseMessageCreated(address creator, address responseMessageAddress);\n    event PurchasePostPaymentSuccess(uint paymentAmount, uint purchasePostKey, address responseMessageAddress);\n\n\n   \n    // ------------------------- buyer side interaction -------------------------\n    \n    // buyer -  create a new purchase post\n    function createPurchasePost (uint _priceToBuy, uint _amountToBuy, address _msgSender) public {\n            \n            // 1. data validation\n            require(_priceToBuy > 0, \"purchase price must be greater than 0\");\n            require(_amountToBuy > 0, \"amount to buy must be greater than 0\");\n            \n            // 2. save information to the purchase post map\n            purchasePostMap[purchasePostCounter].priceToBuy = _priceToBuy;\n            purchasePostMap[purchasePostCounter].amountToBuy = _amountToBuy;          \n            purchasePostMap[purchasePostCounter].buyer = _msgSender;\n            purchasePostMap[purchasePostCounter].enabled = true;\n            purchasePostMap[purchasePostCounter].createdAt = block.timestamp;\n\n            // 3. set post status to true \n            PurchasePostStatus[purchasePostCounter] = true;\n            \n            // 4. save post key to user struct\n            // userMap[_msgSender].purchasePostKeys.push(purchasePostCounter);\n            userService.savePurchasePostKey(_msgSender, purchasePostCounter);\n           \n            // 5. emit event\n            emit PurchasePostCreated( _msgSender, purchasePostCounter, _priceToBuy, _amountToBuy);\n\n            // 6. increment purchase post counter by 1\n            purchasePostCounter++;\n\n\n    }\n\n\n    // seller - create purchase post response messages\n    function createResponseMessageToPurchasePost(uint _amountToSell, uint _quotationInWei, uint _purchasePostKey, address _msgSender) public {\n        \n        // 1. data validation\n        require(_amountToSell > 0, \"amount must be greater than 0\");\n        require(_quotationInWei > 0, \"quotation must be greater than 0\");\n        require(_purchasePostKey >= 0, \"post key starts from 0\");\n        require(_msgSender != purchasePostMap[_purchasePostKey].buyer, \"You cannot reply to your own purchase post\");\n\n        // 2. create a new response message\n        uint messageIndex = purchasePostMap[_purchasePostKey].responseMessages.length;\n        PostResponseMessage message = new PostResponseMessage(address(this), _msgSender, _amountToSell, _quotationInWei, 0, _purchasePostKey, messageIndex );\n        \n        // 3. add the response message to the corresponding purchase post \n        purchasePostMap[_purchasePostKey].responseMessages.push() = message;\n        userService.addResponse(_msgSender, message);\n\n        // 4. emit event\n        emit PurchasePostResponseMessageCreated( _msgSender, address(message));\n\n    }\n\n    // handle payment process from response message, this method will only be called by triggerPurchasePostPayment function in PostResponseMessage contract\n    function handlePurchasePostPostPayment(uint _purchasePostKey, uint _responseMessageIndex) public payable returns (string memory) {\n        \n        // 1.1 data validation\n        PostResponseMessage responseMessage = purchasePostMap[_purchasePostKey].responseMessages[_responseMessageIndex];\n        require(address(responseMessage) == msg.sender, \"message sender should only be the response message that triggers payment process\");  \n        // 1.2 get current time\n        uint transactionTime = block.timestamp;\n\n        \n        // 2.1 update seller's account information\n        address seller = responseMessage.messageSender();\n        require( userService.getAvailableElecUnits(seller) >= responseMessage.amount(), \"Insufficient electricity units in account\");\n        // userMap[seller].availableElecUnits -= responseMessage.amount();\n        userService.setAvailableElecUnits(seller, userService.getAvailableElecUnits(seller) - responseMessage.amount());\n\n        // 2.2 update seller's statistics (statistics service required)\n        statisticsService.updateTotalSell(seller, responseMessage.amount());\n        statisticsService.addOneElectricSellTransaction(seller, transactionTime, responseMessage.amount());\n        // 2.2.1 update seller's transaction sequence map to record all transactions regardless of type in sequential order (statistics service required)\n        statisticsService.addTransactionToSequenceMap(seller, 1, transactionTime);\n\n        // 3.1 update buyer's account information\n        address buyer = purchasePostMap[_purchasePostKey].buyer;\n        // userMap[buyer].availableElecUnits += responseMessage.amount();   \n        userService.setAvailableElecUnits(buyer, userService.getAvailableElecUnits(buyer) + responseMessage.amount());     \n        \n        // 3.2 update buyer's statistics (statistics service required)\n        statisticsService.updateTotalBuy(buyer, responseMessage.amount());\n        statisticsService.addOneElectricBuyTransaction(buyer, transactionTime, responseMessage.amount());\n        // 3.2.1 update buyer's transaction sequence map (statistics service required)\n        statisticsService.addTransactionToSequenceMap(buyer, 0, transactionTime);\n        \n        // 4. update purchase post information\n        // 1) deduct purchase amount accordingly \n        require(purchasePostMap[_purchasePostKey].amountToBuy >= responseMessage.amount(), \"The sales quantity should be less than or equal to the purchase demand\");\n        purchasePostMap[_purchasePostKey].amountToBuy -= responseMessage.amount();\n        // 2) set post to disabled if sales quantity match purchase demand \n        if (purchasePostMap[_purchasePostKey].amountToBuy == 0) {\n            purchasePostMap[_purchasePostKey].enabled = false;\n        }\n\n        // 5. transfer ether to seller's account\n        payable(seller).transfer(msg.value);\n        // 6. emit event\n        emit PurchasePostPaymentSuccess(msg.value, _purchasePostKey, address(responseMessage));\n        // 7. return success message\n        return \"success\";\n        \n    }\n\n\n    // ------------------------- buyer side utils -------------------------\n    \n    // returns all purchase posts by user address\n    function returnAllPurchasePostsByAddress(address _account) public view returns (PurchasePost[] memory) {\n        // uint[] memory keys = userMap[_account].purchasePostKeys;\n        uint[] memory keys = userService.getPurchasePostKeys(_account);\n        PurchasePost[] memory purchasePosts = new PurchasePost[](keys.length);\n        for (uint i = 0; i < keys.length; i++) {\n            purchasePosts[i]  = purchasePostMap[keys[i]]; \n        }\n        return purchasePosts;\n    }\n\n    // return total number of purchase posts in the system\n    function returnPurchasePostMapSize() public view returns(uint) {\n        return purchasePostCounter;\n    }\n\n    // return one purchase post by key\n    function getPurchasePostByKey(uint _postKey) public view returns(PurchasePost memory) {\n        return purchasePostMap[_postKey];\n    }\n\n    // return all response messages of a purchase post by post key\n    function returnPurchasePostResponseMessagesByKey(uint _postKey) public view returns(PostResponseMessage[] memory){\n        require(_postKey >= 0, \"post key starts from 0\");\n        return purchasePostMap[_postKey].responseMessages;\n    }\n\n\n}\n",
  "sourcePath": "/Users/richard/Doc//sydney_study/22s2/5703/vue-web3-5703/truffle/contracts/BuyerService.sol",
  "compiler": {
    "name": "solc",
    "version": "0.8.17+commit.8df45f5f.Emscripten.clang"
  },
  "schemaVersion": "3.4.9",
  "updatedAt": "2022-10-14T03:42:42.616Z",
  "devdoc": {
    "kind": "dev",
    "methods": {},
    "version": 1
  },
  "userdoc": {
    "kind": "user",
    "methods": {},
    "version": 1
  }
}