{
  "contractName": "MainSystem",
  "abi": [
    {
      "inputs": [],
      "stateMutability": "nonpayable",
      "type": "constructor"
    },
    {
      "inputs": [
        {
          "internalType": "uint256",
          "name": "_priceToBuy",
          "type": "uint256"
        },
        {
          "internalType": "uint256",
          "name": "_amountToBuy",
          "type": "uint256"
        }
      ],
      "name": "createPurchasePost",
      "outputs": [],
      "stateMutability": "nonpayable",
      "type": "function"
    },
    {
      "inputs": [
        {
          "internalType": "uint256",
          "name": "_amountToSell",
          "type": "uint256"
        },
        {
          "internalType": "uint256",
          "name": "_quotationInWei",
          "type": "uint256"
        },
        {
          "internalType": "uint256",
          "name": "_purchasePostKey",
          "type": "uint256"
        }
      ],
      "name": "createResponseMessageToPurchasePost",
      "outputs": [],
      "stateMutability": "nonpayable",
      "type": "function"
    },
    {
      "inputs": [
        {
          "internalType": "address",
          "name": "_account",
          "type": "address"
        }
      ],
      "name": "returnAllPurchasePostsByAddress",
      "outputs": [
        {
          "components": [
            {
              "internalType": "uint256",
              "name": "priceToBuy",
              "type": "uint256"
            },
            {
              "internalType": "uint256",
              "name": "amountToBuy",
              "type": "uint256"
            },
            {
              "internalType": "address",
              "name": "buyer",
              "type": "address"
            },
            {
              "internalType": "bool",
              "name": "enabled",
              "type": "bool"
            },
            {
              "internalType": "uint256",
              "name": "createdAt",
              "type": "uint256"
            },
            {
              "internalType": "contract PostResponseMessage[]",
              "name": "responseMessages",
              "type": "address[]"
            }
          ],
          "internalType": "struct BeanStructs.PurchasePost[]",
          "name": "",
          "type": "tuple[]"
        }
      ],
      "stateMutability": "view",
      "type": "function",
      "constant": true
    },
    {
      "inputs": [],
      "name": "returnPurchasePostMapSize",
      "outputs": [
        {
          "internalType": "uint256",
          "name": "",
          "type": "uint256"
        }
      ],
      "stateMutability": "view",
      "type": "function",
      "constant": true
    },
    {
      "inputs": [
        {
          "internalType": "uint256",
          "name": "_postKey",
          "type": "uint256"
        }
      ],
      "name": "getPurchasePostByKey",
      "outputs": [
        {
          "components": [
            {
              "internalType": "uint256",
              "name": "priceToBuy",
              "type": "uint256"
            },
            {
              "internalType": "uint256",
              "name": "amountToBuy",
              "type": "uint256"
            },
            {
              "internalType": "address",
              "name": "buyer",
              "type": "address"
            },
            {
              "internalType": "bool",
              "name": "enabled",
              "type": "bool"
            },
            {
              "internalType": "uint256",
              "name": "createdAt",
              "type": "uint256"
            },
            {
              "internalType": "contract PostResponseMessage[]",
              "name": "responseMessages",
              "type": "address[]"
            }
          ],
          "internalType": "struct BeanStructs.PurchasePost",
          "name": "",
          "type": "tuple"
        }
      ],
      "stateMutability": "view",
      "type": "function",
      "constant": true
    },
    {
      "inputs": [
        {
          "internalType": "uint256",
          "name": "_postKey",
          "type": "uint256"
        }
      ],
      "name": "returnPurchasePostResponseMessagesByKey",
      "outputs": [
        {
          "internalType": "contract PostResponseMessage[]",
          "name": "",
          "type": "address[]"
        }
      ],
      "stateMutability": "view",
      "type": "function",
      "constant": true
    },
    {
      "inputs": [
        {
          "internalType": "uint256",
          "name": "_priceToSell",
          "type": "uint256"
        },
        {
          "internalType": "uint256",
          "name": "_amountToSell",
          "type": "uint256"
        }
      ],
      "name": "createSellingPost",
      "outputs": [],
      "stateMutability": "nonpayable",
      "type": "function"
    },
    {
      "inputs": [
        {
          "internalType": "uint256",
          "name": "_amountToBuy",
          "type": "uint256"
        },
        {
          "internalType": "uint256",
          "name": "_quotationInWei",
          "type": "uint256"
        },
        {
          "internalType": "uint256",
          "name": "_sellingPostKey",
          "type": "uint256"
        }
      ],
      "name": "createResponseMessageToSellingPost",
      "outputs": [],
      "stateMutability": "nonpayable",
      "type": "function"
    },
    {
      "inputs": [
        {
          "internalType": "address",
          "name": "_account",
          "type": "address"
        }
      ],
      "name": "returnAllSellingPostsByAddress",
      "outputs": [
        {
          "components": [
            {
              "internalType": "uint256",
              "name": "priceToSell",
              "type": "uint256"
            },
            {
              "internalType": "uint256",
              "name": "amountToSell",
              "type": "uint256"
            },
            {
              "internalType": "address",
              "name": "seller",
              "type": "address"
            },
            {
              "internalType": "bool",
              "name": "enabled",
              "type": "bool"
            },
            {
              "internalType": "uint256",
              "name": "createdAt",
              "type": "uint256"
            },
            {
              "internalType": "contract PostResponseMessage[]",
              "name": "responseMessages",
              "type": "address[]"
            }
          ],
          "internalType": "struct BeanStructs.SellingPost[]",
          "name": "",
          "type": "tuple[]"
        }
      ],
      "stateMutability": "view",
      "type": "function",
      "constant": true
    },
    {
      "inputs": [
        {
          "internalType": "uint256",
          "name": "_postKey",
          "type": "uint256"
        }
      ],
      "name": "getSellingPostByKey",
      "outputs": [
        {
          "components": [
            {
              "internalType": "uint256",
              "name": "priceToSell",
              "type": "uint256"
            },
            {
              "internalType": "uint256",
              "name": "amountToSell",
              "type": "uint256"
            },
            {
              "internalType": "address",
              "name": "seller",
              "type": "address"
            },
            {
              "internalType": "bool",
              "name": "enabled",
              "type": "bool"
            },
            {
              "internalType": "uint256",
              "name": "createdAt",
              "type": "uint256"
            },
            {
              "internalType": "contract PostResponseMessage[]",
              "name": "responseMessages",
              "type": "address[]"
            }
          ],
          "internalType": "struct BeanStructs.SellingPost",
          "name": "",
          "type": "tuple"
        }
      ],
      "stateMutability": "view",
      "type": "function",
      "constant": true
    },
    {
      "inputs": [
        {
          "internalType": "uint256",
          "name": "_postKey",
          "type": "uint256"
        }
      ],
      "name": "returnSellingPostResponseMessagesByKey",
      "outputs": [
        {
          "internalType": "contract PostResponseMessage[]",
          "name": "",
          "type": "address[]"
        }
      ],
      "stateMutability": "view",
      "type": "function",
      "constant": true
    },
    {
      "inputs": [],
      "name": "returnSellPostMapSize",
      "outputs": [
        {
          "internalType": "uint256",
          "name": "",
          "type": "uint256"
        }
      ],
      "stateMutability": "view",
      "type": "function",
      "constant": true
    },
    {
      "inputs": [
        {
          "internalType": "address",
          "name": "_user",
          "type": "address"
        }
      ],
      "name": "getUsernameByAddress",
      "outputs": [
        {
          "internalType": "string",
          "name": "",
          "type": "string"
        }
      ],
      "stateMutability": "view",
      "type": "function",
      "constant": true
    },
    {
      "inputs": [
        {
          "internalType": "address",
          "name": "_user",
          "type": "address"
        }
      ],
      "name": "getAvailableElecUnitsByAccountAddress",
      "outputs": [
        {
          "internalType": "uint256",
          "name": "",
          "type": "uint256"
        }
      ],
      "stateMutability": "view",
      "type": "function",
      "constant": true
    },
    {
      "inputs": [
        {
          "internalType": "address",
          "name": "_user",
          "type": "address"
        }
      ],
      "name": "getPurchasePostKeys",
      "outputs": [
        {
          "internalType": "uint256[]",
          "name": "",
          "type": "uint256[]"
        }
      ],
      "stateMutability": "view",
      "type": "function",
      "constant": true
    },
    {
      "inputs": [
        {
          "internalType": "address",
          "name": "_user",
          "type": "address"
        }
      ],
      "name": "getSellingPostKeys",
      "outputs": [
        {
          "internalType": "uint256[]",
          "name": "",
          "type": "uint256[]"
        }
      ],
      "stateMutability": "view",
      "type": "function",
      "constant": true
    },
    {
      "inputs": [
        {
          "internalType": "address",
          "name": "_user",
          "type": "address"
        },
        {
          "internalType": "string",
          "name": "_username",
          "type": "string"
        }
      ],
      "name": "setUsername",
      "outputs": [],
      "stateMutability": "nonpayable",
      "type": "function"
    },
    {
      "inputs": [
        {
          "internalType": "address",
          "name": "_user",
          "type": "address"
        }
      ],
      "name": "returnAllResponses",
      "outputs": [
        {
          "internalType": "contract PostResponseMessage[]",
          "name": "",
          "type": "address[]"
        }
      ],
      "stateMutability": "view",
      "type": "function",
      "constant": true
    },
    {
      "inputs": [
        {
          "internalType": "address",
          "name": "_accountAddress",
          "type": "address"
        }
      ],
      "name": "returnTotalBuyByAddress",
      "outputs": [
        {
          "internalType": "uint256",
          "name": "",
          "type": "uint256"
        }
      ],
      "stateMutability": "view",
      "type": "function",
      "constant": true
    },
    {
      "inputs": [
        {
          "internalType": "address",
          "name": "_accountAddress",
          "type": "address"
        }
      ],
      "name": "returnTotalSellByAddress",
      "outputs": [
        {
          "internalType": "uint256",
          "name": "",
          "type": "uint256"
        }
      ],
      "stateMutability": "view",
      "type": "function",
      "constant": true
    },
    {
      "inputs": [
        {
          "internalType": "address",
          "name": "_account",
          "type": "address"
        }
      ],
      "name": "returnRecentTransactions",
      "outputs": [
        {
          "components": [
            {
              "internalType": "uint256",
              "name": "createdAt",
              "type": "uint256"
            },
            {
              "internalType": "uint256",
              "name": "transactionType",
              "type": "uint256"
            },
            {
              "internalType": "uint256",
              "name": "transactionValue",
              "type": "uint256"
            }
          ],
          "internalType": "struct BeanStructs.TransactionBean[]",
          "name": "",
          "type": "tuple[]"
        }
      ],
      "stateMutability": "view",
      "type": "function",
      "constant": true
    },
    {
      "inputs": [
        {
          "internalType": "address",
          "name": "_user",
          "type": "address"
        },
        {
          "internalType": "uint256",
          "name": "_prevWeekNum",
          "type": "uint256"
        }
      ],
      "name": "returnWeeklyBuyStatistics",
      "outputs": [
        {
          "internalType": "uint256[]",
          "name": "",
          "type": "uint256[]"
        }
      ],
      "stateMutability": "view",
      "type": "function",
      "constant": true
    },
    {
      "inputs": [
        {
          "internalType": "address",
          "name": "_user",
          "type": "address"
        },
        {
          "internalType": "uint256",
          "name": "_prevWeekNum",
          "type": "uint256"
        }
      ],
      "name": "returnWeeklySellStatistics",
      "outputs": [
        {
          "internalType": "uint256[]",
          "name": "",
          "type": "uint256[]"
        }
      ],
      "stateMutability": "view",
      "type": "function",
      "constant": true
    },
    {
      "inputs": [
        {
          "internalType": "address",
          "name": "_user",
          "type": "address"
        },
        {
          "internalType": "uint256",
          "name": "_prevWeekNum",
          "type": "uint256"
        }
      ],
      "name": "returnWeeklyTotalBuyAndSell",
      "outputs": [
        {
          "internalType": "uint256[2]",
          "name": "",
          "type": "uint256[2]"
        }
      ],
      "stateMutability": "view",
      "type": "function",
      "constant": true
    }
  ],
  "bytecode": "0x60806040523480156200001157600080fd5b503060405162000021906200034b565b6200002d9190620003c8565b604051809103906000f0801580156200004a573d6000803e3d6000fd5b506000806101000a81548173ffffffffffffffffffffffffffffffffffffffff021916908373ffffffffffffffffffffffffffffffffffffffff160217905550604051620000989062000359565b604051809103906000f080158015620000b5573d6000803e3d6000fd5b50600160006101000a81548173ffffffffffffffffffffffffffffffffffffffff021916908373ffffffffffffffffffffffffffffffffffffffff160217905550600160009054906101000a900473ffffffffffffffffffffffffffffffffffffffff1660008054906101000a900473ffffffffffffffffffffffffffffffffffffffff16604051620001489062000367565b6200015592919062000475565b604051809103906000f08015801562000172573d6000803e3d6000fd5b50600260006101000a81548173ffffffffffffffffffffffffffffffffffffffff021916908373ffffffffffffffffffffffffffffffffffffffff160217905550600160009054906101000a900473ffffffffffffffffffffffffffffffffffffffff1660008054906101000a900473ffffffffffffffffffffffffffffffffffffffff16604051620002059062000375565b6200021292919062000475565b604051809103906000f0801580156200022f573d6000803e3d6000fd5b50600360006101000a81548173ffffffffffffffffffffffffffffffffffffffff021916908373ffffffffffffffffffffffffffffffffffffffff16021790555060008054906101000a900473ffffffffffffffffffffffffffffffffffffffff1673ffffffffffffffffffffffffffffffffffffffff1663317d7268600260009054906101000a900473ffffffffffffffffffffffffffffffffffffffff16600360009054906101000a900473ffffffffffffffffffffffffffffffffffffffff166040518363ffffffff1660e01b815260040162000311929190620004a2565b600060405180830381600087803b1580156200032c57600080fd5b505af115801562000341573d6000803e3d6000fd5b50505050620004cf565b611826806200336f83390190565b6125468062004b9583390190565b6146c580620070db83390190565b61458b806200b7a083390190565b600073ffffffffffffffffffffffffffffffffffffffff82169050919050565b6000620003b08262000383565b9050919050565b620003c281620003a3565b82525050565b6000602082019050620003df6000830184620003b7565b92915050565b6000819050919050565b6000620004106200040a620004048462000383565b620003e5565b62000383565b9050919050565b60006200042482620003ef565b9050919050565b6000620004388262000417565b9050919050565b6200044a816200042b565b82525050565b60006200045d8262000417565b9050919050565b6200046f8162000450565b82525050565b60006040820190506200048c60008301856200043f565b6200049b602083018462000464565b9392505050565b6000604082019050620004b96000830185620003b7565b620004c86020830184620003b7565b9392505050565b612e9080620004df6000396000f3fe608060405234801561001057600080fd5b50600436106101585760003560e01c8063ae87ca7c116100c3578063da02c9de1161007c578063da02c9de14610471578063e2045452146104a1578063e3d9deb6146104bd578063ebe0b877146104d9578063ed1a998d14610509578063f139c0631461053957610158565b8063ae87ca7c14610365578063b5387dc514610395578063c9fd5420146103c5578063cd402519146103f5578063ced8d53014610425578063d378b5fe1461045557610158565b80636e6181ec116101155780636e6181ec1461026b57806377c82cc9146102875780637b7e76b8146102b75780638c328413146102e7578063951b3de814610317578063ade7cdfb1461033557610158565b80631d036d7d1461015d5780631fe437041461018d57806333bdb8f9146101bd57806335df3509146101ed578063620c503a1461020b5780636627cbd61461023b575b600080fd5b610177600480360381019061017291906116b7565b610555565b60405161018491906117ac565b60405180910390f35b6101a760048036038101906101a291906116b7565b6105fd565b6040516101b491906118dc565b60405180910390f35b6101d760048036038101906101d291906116b7565b6106a5565b6040516101e4919061190d565b60405180910390f35b6101f561074a565b604051610202919061190d565b60405180910390f35b61022560048036038101906102209190611954565b6107e2565b60405161023291906118dc565b60405180910390f35b61025560048036038101906102509190611954565b61088c565b60405161026291906118dc565b60405180910390f35b61028560048036038101906102809190611981565b610936565b005b6102a1600480360381019061029c91906116b7565b6109cb565b6040516102ae9190611ab2565b60405180910390f35b6102d160048036038101906102cc91906116b7565b610a75565b6040516102de9190611cb8565b60405180910390f35b61030160048036038101906102fc9190611cda565b610b1f565b60405161030e91906117ac565b60405180910390f35b61031f610bcf565b60405161032c919061190d565b60405180910390f35b61034f600480360381019061034a9190611cda565b610c67565b60405161035c9190611d9e565b60405180910390f35b61037f600480360381019061037a91906116b7565b610dde565b60405161038c9190611f04565b60405180910390f35b6103af60048036038101906103aa91906116b7565b610e88565b6040516103bc919061190d565b60405180910390f35b6103df60048036038101906103da91906116b7565b610f2d565b6040516103ec919061190d565b60405180910390f35b61040f600480360381019061040a9190611cda565b610fd1565b60405161041c91906117ac565b60405180910390f35b61043f600480360381019061043a9190611954565b611081565b60405161044c9190611faf565b60405180910390f35b61046f600480360381019061046a9190611fd1565b611131565b005b61048b60048036038101906104869190611954565b6111c9565b60405161049891906120ad565b60405180910390f35b6104bb60048036038101906104b69190612215565b611279565b005b6104d760048036038101906104d29190611fd1565b61130a565b005b6104f360048036038101906104ee91906116b7565b6113a2565b60405161050091906117ac565b60405180910390f35b610523600480360381019061051e91906116b7565b61144a565b60405161053091906122f0565b60405180910390f35b610553600480360381019061054e9190611981565b6114f2565b005b606060008054906101000a900473ffffffffffffffffffffffffffffffffffffffff1673ffffffffffffffffffffffffffffffffffffffff16631d036d7d836040518263ffffffff1660e01b81526004016105b09190612321565b600060405180830381865afa1580156105cd573d6000803e3d6000fd5b505050506040513d6000823e3d601f19601f820116820180604052508101906105f69190612419565b9050919050565b606060008054906101000a900473ffffffffffffffffffffffffffffffffffffffff1673ffffffffffffffffffffffffffffffffffffffff16631fe43704836040518263ffffffff1660e01b81526004016106589190612321565b600060405180830381865afa158015610675573d6000803e3d6000fd5b505050506040513d6000823e3d601f19601f8201168201806040525081019061069e9190612575565b9050919050565b6000600160009054906101000a900473ffffffffffffffffffffffffffffffffffffffff1673ffffffffffffffffffffffffffffffffffffffff166333bdb8f9836040518263ffffffff1660e01b81526004016107029190612321565b602060405180830381865afa15801561071f573d6000803e3d6000fd5b505050506040513d601f19601f8201168201806040525081019061074391906125be565b9050919050565b6000600360009054906101000a900473ffffffffffffffffffffffffffffffffffffffff1673ffffffffffffffffffffffffffffffffffffffff166335df35096040518163ffffffff1660e01b8152600401602060405180830381865afa1580156107b9573d6000803e3d6000fd5b505050506040513d601f19601f820116820180604052508101906107dd91906125be565b905090565b6060600260009054906101000a900473ffffffffffffffffffffffffffffffffffffffff1673ffffffffffffffffffffffffffffffffffffffff1663620c503a836040518263ffffffff1660e01b815260040161083f919061190d565b600060405180830381865afa15801561085c573d6000803e3d6000fd5b505050506040513d6000823e3d601f19601f820116820180604052508101906108859190612575565b9050919050565b6060600360009054906101000a900473ffffffffffffffffffffffffffffffffffffffff1673ffffffffffffffffffffffffffffffffffffffff16636627cbd6836040518263ffffffff1660e01b81526004016108e9919061190d565b600060405180830381865afa158015610906573d6000803e3d6000fd5b505050506040513d6000823e3d601f19601f8201168201806040525081019061092f9190612575565b9050919050565b600360009054906101000a900473ffffffffffffffffffffffffffffffffffffffff1673ffffffffffffffffffffffffffffffffffffffff1663906eb21c8383336040518463ffffffff1660e01b8152600401610995939291906125eb565b600060405180830381600087803b1580156109af57600080fd5b505af11580156109c3573d6000803e3d6000fd5b505050505050565b6060600160009054906101000a900473ffffffffffffffffffffffffffffffffffffffff1673ffffffffffffffffffffffffffffffffffffffff166377c82cc9836040518263ffffffff1660e01b8152600401610a289190612321565b600060405180830381865afa158015610a45573d6000803e3d6000fd5b505050506040513d6000823e3d601f19601f82011682018060405250810190610a6e9190612753565b9050919050565b6060600260009054906101000a900473ffffffffffffffffffffffffffffffffffffffff1673ffffffffffffffffffffffffffffffffffffffff16637b7e76b8836040518263ffffffff1660e01b8152600401610ad29190612321565b600060405180830381865afa158015610aef573d6000803e3d6000fd5b505050506040513d6000823e3d601f19601f82011682018060405250810190610b18919061297a565b9050919050565b6060600160009054906101000a900473ffffffffffffffffffffffffffffffffffffffff1673ffffffffffffffffffffffffffffffffffffffff1663fc369818848460016040518463ffffffff1660e01b8152600401610b8193929190612a0b565b600060405180830381865afa158015610b9e573d6000803e3d6000fd5b505050506040513d6000823e3d601f19601f82011682018060405250810190610bc79190612419565b905092915050565b6000600260009054906101000a900473ffffffffffffffffffffffffffffffffffffffff1673ffffffffffffffffffffffffffffffffffffffff1663951b3de86040518163ffffffff1660e01b8152600401602060405180830381865afa158015610c3e573d6000803e3d6000fd5b505050506040513d601f19601f82011682018060405250810190610c6291906125be565b905090565b610c6f611587565b6000600160009054906101000a900473ffffffffffffffffffffffffffffffffffffffff1673ffffffffffffffffffffffffffffffffffffffff16631363b936858560006040518463ffffffff1660e01b8152600401610cd193929190612a7d565b602060405180830381865afa158015610cee573d6000803e3d6000fd5b505050506040513d601f19601f82011682018060405250810190610d1291906125be565b90506000600160009054906101000a900473ffffffffffffffffffffffffffffffffffffffff1673ffffffffffffffffffffffffffffffffffffffff16631363b936868660016040518463ffffffff1660e01b8152600401610d7693929190612a0b565b602060405180830381865afa158015610d93573d6000803e3d6000fd5b505050506040513d601f19601f82011682018060405250810190610db791906125be565b90506000604051806040016040528084815260200183815250905080935050505092915050565b6060600360009054906101000a900473ffffffffffffffffffffffffffffffffffffffff1673ffffffffffffffffffffffffffffffffffffffff1663ae87ca7c836040518263ffffffff1660e01b8152600401610e3b9190612321565b600060405180830381865afa158015610e58573d6000803e3d6000fd5b505050506040513d6000823e3d601f19601f82011682018060405250810190610e819190612c51565b9050919050565b6000600160009054906101000a900473ffffffffffffffffffffffffffffffffffffffff1673ffffffffffffffffffffffffffffffffffffffff1663b5387dc5836040518263ffffffff1660e01b8152600401610ee59190612321565b602060405180830381865afa158015610f02573d6000803e3d6000fd5b505050506040513d601f19601f82011682018060405250810190610f2691906125be565b9050919050565b60008060009054906101000a900473ffffffffffffffffffffffffffffffffffffffff1673ffffffffffffffffffffffffffffffffffffffff1663cb8ab15b836040518263ffffffff1660e01b8152600401610f899190612321565b602060405180830381865afa158015610fa6573d6000803e3d6000fd5b505050506040513d601f19601f82011682018060405250810190610fca91906125be565b9050919050565b6060600160009054906101000a900473ffffffffffffffffffffffffffffffffffffffff1673ffffffffffffffffffffffffffffffffffffffff1663fc369818848460006040518463ffffffff1660e01b815260040161103393929190612a7d565b600060405180830381865afa158015611050573d6000803e3d6000fd5b505050506040513d6000823e3d601f19601f820116820180604052508101906110799190612419565b905092915050565b6110896115a9565b600260009054906101000a900473ffffffffffffffffffffffffffffffffffffffff1673ffffffffffffffffffffffffffffffffffffffff1663ced8d530836040518263ffffffff1660e01b81526004016110e4919061190d565b600060405180830381865afa158015611101573d6000803e3d6000fd5b505050506040513d6000823e3d601f19601f8201168201806040525081019061112a9190612c9a565b9050919050565b600260009054906101000a900473ffffffffffffffffffffffffffffffffffffffff1673ffffffffffffffffffffffffffffffffffffffff16630aeadded848484336040518563ffffffff1660e01b81526004016111929493929190612ce3565b600060405180830381600087803b1580156111ac57600080fd5b505af11580156111c0573d6000803e3d6000fd5b50505050505050565b6111d16115f7565b600360009054906101000a900473ffffffffffffffffffffffffffffffffffffffff1673ffffffffffffffffffffffffffffffffffffffff1663da02c9de836040518263ffffffff1660e01b815260040161122c919061190d565b600060405180830381865afa158015611249573d6000803e3d6000fd5b505050506040513d6000823e3d601f19601f820116820180604052508101906112729190612d28565b9050919050565b60008054906101000a900473ffffffffffffffffffffffffffffffffffffffff1673ffffffffffffffffffffffffffffffffffffffff1663e204545283836040518363ffffffff1660e01b81526004016112d4929190612d71565b600060405180830381600087803b1580156112ee57600080fd5b505af1158015611302573d6000803e3d6000fd5b505050505050565b600360009054906101000a900473ffffffffffffffffffffffffffffffffffffffff1673ffffffffffffffffffffffffffffffffffffffff16634cb3a345848484336040518563ffffffff1660e01b815260040161136b9493929190612ce3565b600060405180830381600087803b15801561138557600080fd5b505af1158015611399573d6000803e3d6000fd5b50505050505050565b606060008054906101000a900473ffffffffffffffffffffffffffffffffffffffff1673ffffffffffffffffffffffffffffffffffffffff1663ebe0b877836040518263ffffffff1660e01b81526004016113fd9190612321565b600060405180830381865afa15801561141a573d6000803e3d6000fd5b505050506040513d6000823e3d601f19601f820116820180604052508101906114439190612419565b9050919050565b606060008054906101000a900473ffffffffffffffffffffffffffffffffffffffff1673ffffffffffffffffffffffffffffffffffffffff1663ce43c032836040518263ffffffff1660e01b81526004016114a59190612321565b600060405180830381865afa1580156114c2573d6000803e3d6000fd5b505050506040513d6000823e3d601f19601f820116820180604052508101906114eb9190612e11565b9050919050565b600260009054906101000a900473ffffffffffffffffffffffffffffffffffffffff1673ffffffffffffffffffffffffffffffffffffffff1663bca73eb28383336040518463ffffffff1660e01b8152600401611551939291906125eb565b600060405180830381600087803b15801561156b57600080fd5b505af115801561157f573d6000803e3d6000fd5b505050505050565b6040518060400160405280600290602082028036833780820191505090505090565b6040518060c001604052806000815260200160008152602001600073ffffffffffffffffffffffffffffffffffffffff16815260200160001515815260200160008152602001606081525090565b6040518060c001604052806000815260200160008152602001600073ffffffffffffffffffffffffffffffffffffffff16815260200160001515815260200160008152602001606081525090565b6000604051905090565b600080fd5b600080fd5b600073ffffffffffffffffffffffffffffffffffffffff82169050919050565b600061168482611659565b9050919050565b61169481611679565b811461169f57600080fd5b50565b6000813590506116b18161168b565b92915050565b6000602082840312156116cd576116cc61164f565b5b60006116db848285016116a2565b91505092915050565b600081519050919050565b600082825260208201905092915050565b6000819050602082019050919050565b6000819050919050565b61172381611710565b82525050565b6000611735838361171a565b60208301905092915050565b6000602082019050919050565b6000611759826116e4565b61176381856116ef565b935061176e83611700565b8060005b8381101561179f5781516117868882611729565b975061179183611741565b925050600181019050611772565b5085935050505092915050565b600060208201905081810360008301526117c6818461174e565b905092915050565b600081519050919050565b600082825260208201905092915050565b6000819050602082019050919050565b6000819050919050565b600061181f61181a61181584611659565b6117fa565b611659565b9050919050565b600061183182611804565b9050919050565b600061184382611826565b9050919050565b61185381611838565b82525050565b6000611865838361184a565b60208301905092915050565b6000602082019050919050565b6000611889826117ce565b61189381856117d9565b935061189e836117ea565b8060005b838110156118cf5781516118b68882611859565b97506118c183611871565b9250506001810190506118a2565b5085935050505092915050565b600060208201905081810360008301526118f6818461187e565b905092915050565b61190781611710565b82525050565b600060208201905061192260008301846118fe565b92915050565b61193181611710565b811461193c57600080fd5b50565b60008135905061194e81611928565b92915050565b60006020828403121561196a5761196961164f565b5b60006119788482850161193f565b91505092915050565b600080604083850312156119985761199761164f565b5b60006119a68582860161193f565b92505060206119b78582860161193f565b9150509250929050565b600081519050919050565b600082825260208201905092915050565b6000819050602082019050919050565b606082016000820151611a03600085018261171a565b506020820151611a16602085018261171a565b506040820151611a29604085018261171a565b50505050565b6000611a3b83836119ed565b60608301905092915050565b6000602082019050919050565b6000611a5f826119c1565b611a6981856119cc565b9350611a74836119dd565b8060005b83811015611aa5578151611a8c8882611a2f565b9750611a9783611a47565b925050600181019050611a78565b5085935050505092915050565b60006020820190508181036000830152611acc8184611a54565b905092915050565b600081519050919050565b600082825260208201905092915050565b6000819050602082019050919050565b611b0981611679565b82525050565b60008115159050919050565b611b2481611b0f565b82525050565b600082825260208201905092915050565b6000611b46826117ce565b611b508185611b2a565b9350611b5b836117ea565b8060005b83811015611b8c578151611b738882611859565b9750611b7e83611871565b925050600181019050611b5f565b5085935050505092915050565b600060c083016000830151611bb1600086018261171a565b506020830151611bc4602086018261171a565b506040830151611bd76040860182611b00565b506060830151611bea6060860182611b1b565b506080830151611bfd608086018261171a565b5060a083015184820360a0860152611c158282611b3b565b9150508091505092915050565b6000611c2e8383611b99565b905092915050565b6000602082019050919050565b6000611c4e82611ad4565b611c588185611adf565b935083602082028501611c6a85611af0565b8060005b85811015611ca65784840389528151611c878582611c22565b9450611c9283611c36565b925060208a01995050600181019050611c6e565b50829750879550505050505092915050565b60006020820190508181036000830152611cd28184611c43565b905092915050565b60008060408385031215611cf157611cf061164f565b5b6000611cff858286016116a2565b9250506020611d108582860161193f565b9150509250929050565b600060029050919050565b600081905092915050565b6000819050919050565b6000602082019050919050565b611d5081611d1a565b611d5a8184611d25565b9250611d6582611d30565b8060005b83811015611d96578151611d7d8782611729565b9650611d8883611d3a565b925050600181019050611d69565b505050505050565b6000604082019050611db36000830184611d47565b92915050565b600081519050919050565b600082825260208201905092915050565b6000819050602082019050919050565b600060c083016000830151611dfd600086018261171a565b506020830151611e10602086018261171a565b506040830151611e236040860182611b00565b506060830151611e366060860182611b1b565b506080830151611e49608086018261171a565b5060a083015184820360a0860152611e618282611b3b565b9150508091505092915050565b6000611e7a8383611de5565b905092915050565b6000602082019050919050565b6000611e9a82611db9565b611ea48185611dc4565b935083602082028501611eb685611dd5565b8060005b85811015611ef25784840389528151611ed38582611e6e565b9450611ede83611e82565b925060208a01995050600181019050611eba565b50829750879550505050505092915050565b60006020820190508181036000830152611f1e8184611e8f565b905092915050565b600060c083016000830151611f3e600086018261171a565b506020830151611f51602086018261171a565b506040830151611f646040860182611b00565b506060830151611f776060860182611b1b565b506080830151611f8a608086018261171a565b5060a083015184820360a0860152611fa28282611b3b565b9150508091505092915050565b60006020820190508181036000830152611fc98184611f26565b905092915050565b600080600060608486031215611fea57611fe961164f565b5b6000611ff88682870161193f565b93505060206120098682870161193f565b925050604061201a8682870161193f565b9150509250925092565b600060c08301600083015161203c600086018261171a565b50602083015161204f602086018261171a565b5060408301516120626040860182611b00565b5060608301516120756060860182611b1b565b506080830151612088608086018261171a565b5060a083015184820360a08601526120a08282611b3b565b9150508091505092915050565b600060208201905081810360008301526120c78184612024565b905092915050565b600080fd5b600080fd5b6000601f19601f8301169050919050565b7f4e487b7100000000000000000000000000000000000000000000000000000000600052604160045260246000fd5b612122826120d9565b810181811067ffffffffffffffff82111715612141576121406120ea565b5b80604052505050565b6000612154611645565b90506121608282612119565b919050565b600067ffffffffffffffff8211156121805761217f6120ea565b5b612189826120d9565b9050602081019050919050565b82818337600083830152505050565b60006121b86121b384612165565b61214a565b9050828152602081018484840111156121d4576121d36120d4565b5b6121df848285612196565b509392505050565b600082601f8301126121fc576121fb6120cf565b5b813561220c8482602086016121a5565b91505092915050565b6000806040838503121561222c5761222b61164f565b5b600061223a858286016116a2565b925050602083013567ffffffffffffffff81111561225b5761225a611654565b5b612267858286016121e7565b9150509250929050565b600081519050919050565b600082825260208201905092915050565b60005b838110156122ab578082015181840152602081019050612290565b60008484015250505050565b60006122c282612271565b6122cc818561227c565b93506122dc81856020860161228d565b6122e5816120d9565b840191505092915050565b6000602082019050818103600083015261230a81846122b7565b905092915050565b61231b81611679565b82525050565b60006020820190506123366000830184612312565b92915050565b600067ffffffffffffffff821115612357576123566120ea565b5b602082029050602081019050919050565b600080fd5b60008151905061237c81611928565b92915050565b60006123956123908461233c565b61214a565b905080838252602082019050602084028301858111156123b8576123b7612368565b5b835b818110156123e157806123cd888261236d565b8452602084019350506020810190506123ba565b5050509392505050565b600082601f830112612400576123ff6120cf565b5b8151612410848260208601612382565b91505092915050565b60006020828403121561242f5761242e61164f565b5b600082015167ffffffffffffffff81111561244d5761244c611654565b5b612459848285016123eb565b91505092915050565b600067ffffffffffffffff82111561247d5761247c6120ea565b5b602082029050602081019050919050565b600061249982611659565b9050919050565b60006124ab8261248e565b9050919050565b6124bb816124a0565b81146124c657600080fd5b50565b6000815190506124d8816124b2565b92915050565b60006124f16124ec84612462565b61214a565b9050808382526020820190506020840283018581111561251457612513612368565b5b835b8181101561253d578061252988826124c9565b845260208401935050602081019050612516565b5050509392505050565b600082601f83011261255c5761255b6120cf565b5b815161256c8482602086016124de565b91505092915050565b60006020828403121561258b5761258a61164f565b5b600082015167ffffffffffffffff8111156125a9576125a8611654565b5b6125b584828501612547565b91505092915050565b6000602082840312156125d4576125d361164f565b5b60006125e28482850161236d565b91505092915050565b600060608201905061260060008301866118fe565b61260d60208301856118fe565b61261a6040830184612312565b949350505050565b600067ffffffffffffffff82111561263d5761263c6120ea565b5b602082029050602081019050919050565b600080fd5b600080fd5b60006060828403121561266e5761266d61264e565b5b612678606061214a565b905060006126888482850161236d565b600083015250602061269c8482850161236d565b60208301525060406126b08482850161236d565b60408301525092915050565b60006126cf6126ca84612622565b61214a565b905080838252602082019050606084028301858111156126f2576126f1612368565b5b835b8181101561271b57806127078882612658565b8452602084019350506060810190506126f4565b5050509392505050565b600082601f83011261273a576127396120cf565b5b815161274a8482602086016126bc565b91505092915050565b6000602082840312156127695761276861164f565b5b600082015167ffffffffffffffff81111561278757612786611654565b5b61279384828501612725565b91505092915050565b600067ffffffffffffffff8211156127b7576127b66120ea565b5b602082029050602081019050919050565b6000815190506127d78161168b565b92915050565b6127e681611b0f565b81146127f157600080fd5b50565b600081519050612803816127dd565b92915050565b600060c0828403121561281f5761281e61264e565b5b61282960c061214a565b905060006128398482850161236d565b600083015250602061284d8482850161236d565b6020830152506040612861848285016127c8565b6040830152506060612875848285016127f4565b60608301525060806128898482850161236d565b60808301525060a082015167ffffffffffffffff8111156128ad576128ac612653565b5b6128b984828501612547565b60a08301525092915050565b60006128d86128d38461279c565b61214a565b905080838252602082019050602084028301858111156128fb576128fa612368565b5b835b8181101561294257805167ffffffffffffffff8111156129205761291f6120cf565b5b80860161292d8982612809565b855260208501945050506020810190506128fd565b5050509392505050565b600082601f830112612961576129606120cf565b5b81516129718482602086016128c5565b91505092915050565b6000602082840312156129905761298f61164f565b5b600082015167ffffffffffffffff8111156129ae576129ad611654565b5b6129ba8482850161294c565b91505092915050565b6000819050919050565b600060ff82169050919050565b60006129f56129f06129eb846129c3565b6117fa565b6129cd565b9050919050565b612a05816129da565b82525050565b6000606082019050612a206000830186612312565b612a2d60208301856118fe565b612a3a60408301846129fc565b949350505050565b6000819050919050565b6000612a67612a62612a5d84612a42565b6117fa565b6129cd565b9050919050565b612a7781612a4c565b82525050565b6000606082019050612a926000830186612312565b612a9f60208301856118fe565b612aac6040830184612a6e565b949350505050565b600067ffffffffffffffff821115612acf57612ace6120ea565b5b602082029050602081019050919050565b600060c08284031215612af657612af561264e565b5b612b0060c061214a565b90506000612b108482850161236d565b6000830152506020612b248482850161236d565b6020830152506040612b38848285016127c8565b6040830152506060612b4c848285016127f4565b6060830152506080612b608482850161236d565b60808301525060a082015167ffffffffffffffff811115612b8457612b83612653565b5b612b9084828501612547565b60a08301525092915050565b6000612baf612baa84612ab4565b61214a565b90508083825260208201905060208402830185811115612bd257612bd1612368565b5b835b81811015612c1957805167ffffffffffffffff811115612bf757612bf66120cf565b5b808601612c048982612ae0565b85526020850194505050602081019050612bd4565b5050509392505050565b600082601f830112612c3857612c376120cf565b5b8151612c48848260208601612b9c565b91505092915050565b600060208284031215612c6757612c6661164f565b5b600082015167ffffffffffffffff811115612c8557612c84611654565b5b612c9184828501612c23565b91505092915050565b600060208284031215612cb057612caf61164f565b5b600082015167ffffffffffffffff811115612cce57612ccd611654565b5b612cda84828501612809565b91505092915050565b6000608082019050612cf860008301876118fe565b612d0560208301866118fe565b612d1260408301856118fe565b612d1f6060830184612312565b95945050505050565b600060208284031215612d3e57612d3d61164f565b5b600082015167ffffffffffffffff811115612d5c57612d5b611654565b5b612d6884828501612ae0565b91505092915050565b6000604082019050612d866000830185612312565b8181036020830152612d9881846122b7565b90509392505050565b6000612db4612daf84612165565b61214a565b905082815260208101848484011115612dd057612dcf6120d4565b5b612ddb84828561228d565b509392505050565b600082601f830112612df857612df76120cf565b5b8151612e08848260208601612da1565b91505092915050565b600060208284031215612e2757612e2661164f565b5b600082015167ffffffffffffffff811115612e4557612e44611654565b5b612e5184828501612de3565b9150509291505056fea26469706673582212201f94f07df8eba884ffa8b491b66101ca67495b33cd759f44e0ee69e510778e7d64736f6c6343000811003360806040523480156200001157600080fd5b50604051620018263803806200182683398181016040528101906200003791906200014a565b80600160006101000a81548173ffffffffffffffffffffffffffffffffffffffff021916908373ffffffffffffffffffffffffffffffffffffffff16021790555060007396c1ce80ab24e9aa360c702a4026cae725b0f31a905060646000808373ffffffffffffffffffffffffffffffffffffffff1673ffffffffffffffffffffffffffffffffffffffff1681526020019081526020016000206001018190555050506200017c565b600080fd5b600073ffffffffffffffffffffffffffffffffffffffff82169050919050565b60006200011282620000e5565b9050919050565b620001248162000105565b81146200013057600080fd5b50565b600081519050620001448162000119565b92915050565b600060208284031215620001635762000162620000e0565b5b6000620001738482850162000133565b91505092915050565b61169a806200018c6000396000f3fe608060405234801561001057600080fd5b50600436106100a95760003560e01c8063cb8ab15b11610071578063cb8ab15b14610162578063ce43c03214610192578063e2045452146101c2578063e2670971146101de578063ebe0b877146101fa578063f03b5e9d1461022a576100a9565b80631d036d7d146100ae5780631fe43704146100de578063317d72681461010e57806384dc965a1461012a578063c331d84214610146575b600080fd5b6100c860048036038101906100c39190610b7e565b610246565b6040516100d59190610c73565b60405180910390f35b6100f860048036038101906100f39190610b7e565b6102df565b6040516101059190610da3565b60405180910390f35b61012860048036038101906101239190610dc5565b6103ae565b005b610144600480360381019061013f9190610e55565b6104c4565b005b610160600480360381019061015b9190610ec1565b61056a565b005b61017c60048036038101906101779190610b7e565b610666565b6040516101899190610f10565b60405180910390f35b6101ac60048036038101906101a79190610b7e565b6106b1565b6040516101b99190610fbb565b60405180910390f35b6101dc60048036038101906101d79190611112565b610784565b005b6101f860048036038101906101f39190610ec1565b610845565b005b610214600480360381019061020f9190610b7e565b610977565b6040516102219190610c73565b60405180910390f35b610244600480360381019061023f9190610ec1565b610a10565b005b60606000808373ffffffffffffffffffffffffffffffffffffffff1673ffffffffffffffffffffffffffffffffffffffff1681526020019081526020016000206003018054806020026020016040519081016040528092919081815260200182805480156102d357602002820191906000526020600020905b8154815260200190600101908083116102bf575b50505050509050919050565b60606000808373ffffffffffffffffffffffffffffffffffffffff1673ffffffffffffffffffffffffffffffffffffffff1681526020019081526020016000206004018054806020026020016040519081016040528092919081815260200182805480156103a257602002820191906000526020600020905b8160009054906101000a900473ffffffffffffffffffffffffffffffffffffffff1673ffffffffffffffffffffffffffffffffffffffff1681526020019060010190808311610358575b50505050509050919050565b600160009054906101000a900473ffffffffffffffffffffffffffffffffffffffff1673ffffffffffffffffffffffffffffffffffffffff163373ffffffffffffffffffffffffffffffffffffffff161461043e576040517f08c379a0000000000000000000000000000000000000000000000000000000008152600401610435906111e0565b60405180910390fd5b81600260006101000a81548173ffffffffffffffffffffffffffffffffffffffff021916908373ffffffffffffffffffffffffffffffffffffffff16021790555080600360006101000a81548173ffffffffffffffffffffffffffffffffffffffff021916908373ffffffffffffffffffffffffffffffffffffffff1602179055505050565b6000808373ffffffffffffffffffffffffffffffffffffffff1673ffffffffffffffffffffffffffffffffffffffff168152602001908152602001600020600401819080600181540180825580915050600190039060005260206000200160009091909190916101000a81548173ffffffffffffffffffffffffffffffffffffffff021916908373ffffffffffffffffffffffffffffffffffffffff1602179055505050565b600360009054906101000a900473ffffffffffffffffffffffffffffffffffffffff1673ffffffffffffffffffffffffffffffffffffffff163373ffffffffffffffffffffffffffffffffffffffff16146105fa576040517f08c379a00000000000000000000000000000000000000000000000000000000081526004016105f19061124c565b60405180910390fd5b6000808373ffffffffffffffffffffffffffffffffffffffff1673ffffffffffffffffffffffffffffffffffffffff1681526020019081526020016000206003018190806001815401808255809150506001900390600052602060002001600090919091909150555050565b60008060008373ffffffffffffffffffffffffffffffffffffffff1673ffffffffffffffffffffffffffffffffffffffff168152602001908152602001600020600101549050919050565b60606000808373ffffffffffffffffffffffffffffffffffffffff1673ffffffffffffffffffffffffffffffffffffffff16815260200190815260200160002060000180546106ff9061129b565b80601f016020809104026020016040519081016040528092919081815260200182805461072b9061129b565b80156107785780601f1061074d57610100808354040283529160200191610778565b820191906000526020600020905b81548152906001019060200180831161075b57829003601f168201915b50505050509050919050565b8173ffffffffffffffffffffffffffffffffffffffff163273ffffffffffffffffffffffffffffffffffffffff16146107f2576040517f08c379a00000000000000000000000000000000000000000000000000000000081526004016107e99061133e565b60405180910390fd5b806000808473ffffffffffffffffffffffffffffffffffffffff1673ffffffffffffffffffffffffffffffffffffffff16815260200190815260200160002060000190816108409190611500565b505050565b600260009054906101000a900473ffffffffffffffffffffffffffffffffffffffff1673ffffffffffffffffffffffffffffffffffffffff163373ffffffffffffffffffffffffffffffffffffffff1614806108ee5750600360009054906101000a900473ffffffffffffffffffffffffffffffffffffffff1673ffffffffffffffffffffffffffffffffffffffff163373ffffffffffffffffffffffffffffffffffffffff16145b61092d576040517f08c379a000000000000000000000000000000000000000000000000000000000815260040161092490611644565b60405180910390fd5b806000808473ffffffffffffffffffffffffffffffffffffffff1673ffffffffffffffffffffffffffffffffffffffff168152602001908152602001600020600101819055505050565b60606000808373ffffffffffffffffffffffffffffffffffffffff1673ffffffffffffffffffffffffffffffffffffffff168152602001908152602001600020600201805480602002602001604051908101604052809291908181526020018280548015610a0457602002820191906000526020600020905b8154815260200190600101908083116109f0575b50505050509050919050565b600260009054906101000a900473ffffffffffffffffffffffffffffffffffffffff1673ffffffffffffffffffffffffffffffffffffffff163373ffffffffffffffffffffffffffffffffffffffff1614610aa0576040517f08c379a0000000000000000000000000000000000000000000000000000000008152600401610a979061124c565b60405180910390fd5b6000808373ffffffffffffffffffffffffffffffffffffffff1673ffffffffffffffffffffffffffffffffffffffff1681526020019081526020016000206002018190806001815401808255809150506001900390600052602060002001600090919091909150555050565b6000604051905090565b600080fd5b600080fd5b600073ffffffffffffffffffffffffffffffffffffffff82169050919050565b6000610b4b82610b20565b9050919050565b610b5b81610b40565b8114610b6657600080fd5b50565b600081359050610b7881610b52565b92915050565b600060208284031215610b9457610b93610b16565b5b6000610ba284828501610b69565b91505092915050565b600081519050919050565b600082825260208201905092915050565b6000819050602082019050919050565b6000819050919050565b610bea81610bd7565b82525050565b6000610bfc8383610be1565b60208301905092915050565b6000602082019050919050565b6000610c2082610bab565b610c2a8185610bb6565b9350610c3583610bc7565b8060005b83811015610c66578151610c4d8882610bf0565b9750610c5883610c08565b925050600181019050610c39565b5085935050505092915050565b60006020820190508181036000830152610c8d8184610c15565b905092915050565b600081519050919050565b600082825260208201905092915050565b6000819050602082019050919050565b6000819050919050565b6000610ce6610ce1610cdc84610b20565b610cc1565b610b20565b9050919050565b6000610cf882610ccb565b9050919050565b6000610d0a82610ced565b9050919050565b610d1a81610cff565b82525050565b6000610d2c8383610d11565b60208301905092915050565b6000602082019050919050565b6000610d5082610c95565b610d5a8185610ca0565b9350610d6583610cb1565b8060005b83811015610d96578151610d7d8882610d20565b9750610d8883610d38565b925050600181019050610d69565b5085935050505092915050565b60006020820190508181036000830152610dbd8184610d45565b905092915050565b60008060408385031215610ddc57610ddb610b16565b5b6000610dea85828601610b69565b9250506020610dfb85828601610b69565b9150509250929050565b6000610e1082610b20565b9050919050565b6000610e2282610e05565b9050919050565b610e3281610e17565b8114610e3d57600080fd5b50565b600081359050610e4f81610e29565b92915050565b60008060408385031215610e6c57610e6b610b16565b5b6000610e7a85828601610b69565b9250506020610e8b85828601610e40565b9150509250929050565b610e9e81610bd7565b8114610ea957600080fd5b50565b600081359050610ebb81610e95565b92915050565b60008060408385031215610ed857610ed7610b16565b5b6000610ee685828601610b69565b9250506020610ef785828601610eac565b9150509250929050565b610f0a81610bd7565b82525050565b6000602082019050610f256000830184610f01565b92915050565b600081519050919050565b600082825260208201905092915050565b60005b83811015610f65578082015181840152602081019050610f4a565b60008484015250505050565b6000601f19601f8301169050919050565b6000610f8d82610f2b565b610f978185610f36565b9350610fa7818560208601610f47565b610fb081610f71565b840191505092915050565b60006020820190508181036000830152610fd58184610f82565b905092915050565b600080fd5b600080fd5b7f4e487b7100000000000000000000000000000000000000000000000000000000600052604160045260246000fd5b61101f82610f71565b810181811067ffffffffffffffff8211171561103e5761103d610fe7565b5b80604052505050565b6000611051610b0c565b905061105d8282611016565b919050565b600067ffffffffffffffff82111561107d5761107c610fe7565b5b61108682610f71565b9050602081019050919050565b82818337600083830152505050565b60006110b56110b084611062565b611047565b9050828152602081018484840111156110d1576110d0610fe2565b5b6110dc848285611093565b509392505050565b600082601f8301126110f9576110f8610fdd565b5b81356111098482602086016110a2565b91505092915050565b6000806040838503121561112957611128610b16565b5b600061113785828601610b69565b925050602083013567ffffffffffffffff81111561115857611157610b1b565b5b611164858286016110e4565b9150509250929050565b7f696e7465726e616c20696e697469616c697a6174696f6e2066756e6374696f6e60008201527f2c206163636573732064656e6965640000000000000000000000000000000000602082015250565b60006111ca602f83610f36565b91506111d58261116e565b604082019050919050565b600060208201905081810360008301526111f9816111bd565b9050919050565b7f6163636573732064656e69656400000000000000000000000000000000000000600082015250565b6000611236600d83610f36565b915061124182611200565b602082019050919050565b6000602082019050818103600083015261126581611229565b9050919050565b7f4e487b7100000000000000000000000000000000000000000000000000000000600052602260045260246000fd5b600060028204905060018216806112b357607f821691505b6020821081036112c6576112c561126c565b5b50919050565b7f596f752063616e6e6f74206368616e6765206f7468657220757365722773206960008201527f6e666f726d6174696f6e00000000000000000000000000000000000000000000602082015250565b6000611328602a83610f36565b9150611333826112cc565b604082019050919050565b600060208201905081810360008301526113578161131b565b9050919050565b60008190508160005260206000209050919050565b60006020601f8301049050919050565b600082821b905092915050565b6000600883026113c07fffffffffffffffffffffffffffffffffffffffffffffffffffffffffffffffff82611383565b6113ca8683611383565b95508019841693508086168417925050509392505050565b60006113fd6113f86113f384610bd7565b610cc1565b610bd7565b9050919050565b6000819050919050565b611417836113e2565b61142b61142382611404565b848454611390565b825550505050565b600090565b611440611433565b61144b81848461140e565b505050565b5b8181101561146f57611464600082611438565b600181019050611451565b5050565b601f8211156114b4576114858161135e565b61148e84611373565b8101602085101561149d578190505b6114b16114a985611373565b830182611450565b50505b505050565b600082821c905092915050565b60006114d7600019846008026114b9565b1980831691505092915050565b60006114f083836114c6565b9150826002028217905092915050565b61150982610f2b565b67ffffffffffffffff81111561152257611521610fe7565b5b61152c825461129b565b611537828285611473565b600060209050601f83116001811461156a5760008415611558578287015190505b61156285826114e4565b8655506115ca565b601f1984166115788661135e565b60005b828110156115a05784890151825560018201915060208501945060208101905061157b565b868310156115bd57848901516115b9601f8916826114c6565b8355505b6001600288020188555050505b505050505050565b7f616363657373207265737472696374656420746f2062757965722f73656c6c6560008201527f7220736572766963652c206163636573732064656e6965640000000000000000602082015250565b600061162e603883610f36565b9150611639826115d2565b604082019050919050565b6000602082019050818103600083015261165d81611621565b905091905056fea26469706673582212204895019afd5b0cccddb8dc43b365e9205646ae55e9a19572f40004990822a54364736f6c63430008110033608060405234801561001057600080fd5b50600073ab8483f64d9c6d1ecf9b849ae677dd3315835cb29050600063631e76809050600063631e768a9050600063631fc800905060006363211980905060006363226b00905060006363226b0a905060006363226b1490506000636323bc80905060006363250e00905060006363265f80905060006363265f8a905060006363265f94905060056000808f73ffffffffffffffffffffffffffffffffffffffff1673ffffffffffffffffffffffffffffffffffffffff16815260200190815260200160002060030160008e81526020019081526020016000208190555060056000808f73ffffffffffffffffffffffffffffffffffffffff1673ffffffffffffffffffffffffffffffffffffffff16815260200190815260200160002060030160008d81526020019081526020016000208190555060146000808f73ffffffffffffffffffffffffffffffffffffffff1673ffffffffffffffffffffffffffffffffffffffff16815260200190815260200160002060030160008c815260200190815260200160002081905550601e6000808f73ffffffffffffffffffffffffffffffffffffffff1673ffffffffffffffffffffffffffffffffffffffff16815260200190815260200160002060030160008b81526020019081526020016000208190555060146000808f73ffffffffffffffffffffffffffffffffffffffff1673ffffffffffffffffffffffffffffffffffffffff16815260200190815260200160002060030160008a81526020019081526020016000208190555060286000808f73ffffffffffffffffffffffffffffffffffffffff1673ffffffffffffffffffffffffffffffffffffffff168152602001908152602001600020600301600089815260200190815260200160002081905550600a6000808f73ffffffffffffffffffffffffffffffffffffffff1673ffffffffffffffffffffffffffffffffffffffff16815260200190815260200160002060030160008881526020019081526020016000208190555060286000808f73ffffffffffffffffffffffffffffffffffffffff1673ffffffffffffffffffffffffffffffffffffffff16815260200190815260200160002060030160008781526020019081526020016000208190555060326000808f73ffffffffffffffffffffffffffffffffffffffff1673ffffffffffffffffffffffffffffffffffffffff16815260200190815260200160002060030160008681526020019081526020016000208190555060146000808f73ffffffffffffffffffffffffffffffffffffffff1673ffffffffffffffffffffffffffffffffffffffff16815260200190815260200160002060030160008581526020019081526020016000208190555060146000808f73ffffffffffffffffffffffffffffffffffffffff1673ffffffffffffffffffffffffffffffffffffffff16815260200190815260200160002060030160008481526020019081526020016000208190555060146000808f73ffffffffffffffffffffffffffffffffffffffff1673ffffffffffffffffffffffffffffffffffffffff1681526020019081526020016000206003016000838152602001908152602001600020819055506000808e73ffffffffffffffffffffffffffffffffffffffff1673ffffffffffffffffffffffffffffffffffffffff1681526020019081526020016000206004018c90806001815401808255809150506001900390600052602060002001600090919091909150556000808e73ffffffffffffffffffffffffffffffffffffffff1673ffffffffffffffffffffffffffffffffffffffff1681526020019081526020016000206004018b90806001815401808255809150506001900390600052602060002001600090919091909150556000808e73ffffffffffffffffffffffffffffffffffffffff1673ffffffffffffffffffffffffffffffffffffffff1681526020019081526020016000206004018a90806001815401808255809150506001900390600052602060002001600090919091909150556000808e73ffffffffffffffffffffffffffffffffffffffff1673ffffffffffffffffffffffffffffffffffffffff1681526020019081526020016000206004018990806001815401808255809150506001900390600052602060002001600090919091909150556000808e73ffffffffffffffffffffffffffffffffffffffff1673ffffffffffffffffffffffffffffffffffffffff1681526020019081526020016000206004018890806001815401808255809150506001900390600052602060002001600090919091909150556000808e73ffffffffffffffffffffffffffffffffffffffff1673ffffffffffffffffffffffffffffffffffffffff1681526020019081526020016000206004018790806001815401808255809150506001900390600052602060002001600090919091909150556000808e73ffffffffffffffffffffffffffffffffffffffff1673ffffffffffffffffffffffffffffffffffffffff1681526020019081526020016000206004018690806001815401808255809150506001900390600052602060002001600090919091909150556000808e73ffffffffffffffffffffffffffffffffffffffff1673ffffffffffffffffffffffffffffffffffffffff1681526020019081526020016000206004018590806001815401808255809150506001900390600052602060002001600090919091909150556000808e73ffffffffffffffffffffffffffffffffffffffff1673ffffffffffffffffffffffffffffffffffffffff1681526020019081526020016000206004018490806001815401808255809150506001900390600052602060002001600090919091909150556000808e73ffffffffffffffffffffffffffffffffffffffff1673ffffffffffffffffffffffffffffffffffffffff1681526020019081526020016000206004018390806001815401808255809150506001900390600052602060002001600090919091909150556000808e73ffffffffffffffffffffffffffffffffffffffff1673ffffffffffffffffffffffffffffffffffffffff1681526020019081526020016000206004018290806001815401808255809150506001900390600052602060002001600090919091909150556000808e73ffffffffffffffffffffffffffffffffffffffff1673ffffffffffffffffffffffffffffffffffffffff16815260200190815260200160002060040181908060018154018082558091505060019003906000526020600020016000909190919091505550505050505050505050505050611b94806109b26000396000f3fe608060405234801561001057600080fd5b50600436106100a95760003560e01c806377c82cc91161007157806377c82cc9146101625780638b5ccc6e14610192578063b5387dc5146101c4578063e6b02333146101f4578063e8b8530f14610210578063fc3698181461022c576100a9565b80631363b936146100ae5780631e7ba9cd146100de5780632f0a323e146100fa57806333bdb8f9146101165780633f9b696c14610146575b600080fd5b6100c860048036038101906100c39190611362565b61025c565b6040516100d591906113c4565b60405180910390f35b6100f860048036038101906100f391906113df565b6102c1565b005b610114600480360381019061010f91906113df565b610385565b005b610130600480360381019061012b9190611432565b610449565b60405161013d91906113c4565b60405180910390f35b610160600480360381019061015b919061145f565b610494565b005b61017c60048036038101906101779190611432565b6104f0565b604051610189919061159f565b60405180910390f35b6101ac60048036038101906101a79190611432565b610846565b6040516101bb939291906115c1565b60405180910390f35b6101de60048036038101906101d99190611432565b610870565b6040516101eb91906113c4565b60405180910390f35b61020e600480360381019061020991906113df565b6108bb565b005b61022a6004803603810190610225919061145f565b610a12565b005b61024660048036038101906102419190611362565b610a6e565b60405161025391906116a7565b60405180910390f35b60008061026a858585610a6e565b90506000805b82518110156102b45782818151811061028c5761028b6116c9565b5b60200260200101518261029f9190611727565b915080806102ac9061175b565b915050610270565b5080925050509392505050565b806000808573ffffffffffffffffffffffffffffffffffffffff1673ffffffffffffffffffffffffffffffffffffffff1681526020019081526020016000206005016000848152602001908152602001600020819055506000808473ffffffffffffffffffffffffffffffffffffffff1673ffffffffffffffffffffffffffffffffffffffff168152602001908152602001600020600601829080600181540180825580915050600190039060005260206000200160009091909190915055505050565b806000808573ffffffffffffffffffffffffffffffffffffffff1673ffffffffffffffffffffffffffffffffffffffff1681526020019081526020016000206003016000848152602001908152602001600020819055506000808473ffffffffffffffffffffffffffffffffffffffff1673ffffffffffffffffffffffffffffffffffffffff168152602001908152602001600020600401829080600181540180825580915050600190039060005260206000200160009091909190915055505050565b60008060008373ffffffffffffffffffffffffffffffffffffffff1673ffffffffffffffffffffffffffffffffffffffff168152602001908152602001600020600101549050919050565b806000808473ffffffffffffffffffffffffffffffffffffffff1673ffffffffffffffffffffffffffffffffffffffff16815260200190815260200160002060000160008282546104e59190611727565b925050819055505050565b606060008060008473ffffffffffffffffffffffffffffffffffffffff1673ffffffffffffffffffffffffffffffffffffffff1681526020019081526020016000206002015490506000808211156105525760018261054f91906117a3565b90505b600061055f83600a610e99565b67ffffffffffffffff811115610578576105776117d7565b5b6040519080825280602002602001820160405280156105b157816020015b61059e611247565b8152602001906001900390816105965790505b50905060005b6105c284600a610e99565b81101561083a576000808773ffffffffffffffffffffffffffffffffffffffff1673ffffffffffffffffffffffffffffffffffffffff168152602001908152602001600020600701600084815260200190815260200160002060010154828281518110610632576106316116c9565b5b602002602001015160000181815250506000808773ffffffffffffffffffffffffffffffffffffffff1673ffffffffffffffffffffffffffffffffffffffff1681526020019081526020016000206007016000848152602001908152602001600020600001548282815181106106ab576106aa6116c9565b5b6020026020010151602001818152505060008282815181106106d0576106cf6116c9565b5b6020026020010151602001510361077a576000808773ffffffffffffffffffffffffffffffffffffffff1673ffffffffffffffffffffffffffffffffffffffff1681526020019081526020016000206003016000838381518110610737576107366116c9565b5b602002602001015160000151815260200190815260200160002054828281518110610765576107646116c9565b5b6020026020010151604001818152505061080f565b6000808773ffffffffffffffffffffffffffffffffffffffff1673ffffffffffffffffffffffffffffffffffffffff16815260200190815260200160002060050160008383815181106107d0576107cf6116c9565b5b6020026020010151600001518152602001908152602001600020548282815181106107fe576107fd6116c9565b5b602002602001015160400181815250505b600083111561082757828061082390611806565b9350505b80806108329061175b565b9150506105b7565b50809350505050919050565b60006020528060005260406000206000915090508060000154908060010154908060020154905083565b60008060008373ffffffffffffffffffffffffffffffffffffffff1673ffffffffffffffffffffffffffffffffffffffff168152602001908152602001600020600001549050919050565b60008060008573ffffffffffffffffffffffffffffffffffffffff1673ffffffffffffffffffffffffffffffffffffffff168152602001908152602001600020600201549050826000808673ffffffffffffffffffffffffffffffffffffffff1673ffffffffffffffffffffffffffffffffffffffff168152602001908152602001600020600701600083815260200190815260200160002060000181905550816000808673ffffffffffffffffffffffffffffffffffffffff1673ffffffffffffffffffffffffffffffffffffffff1681526020019081526020016000206007016000838152602001908152602001600020600101819055506000808573ffffffffffffffffffffffffffffffffffffffff1673ffffffffffffffffffffffffffffffffffffffff1681526020019081526020016000206002016000815480929190610a079061175b565b919050555050505050565b806000808473ffffffffffffffffffffffffffffffffffffffff1673ffffffffffffffffffffffffffffffffffffffff1681526020019081526020016000206001016000828254610a639190611727565b925050819055505050565b60606000831015610ab4576040517f08c379a0000000000000000000000000000000000000000000000000000000008152600401610aab9061188c565b60405180910390fd5b610abc611268565b600767ffffffffffffffff811115610ad757610ad66117d7565b5b604051908082528060200260200182016040528015610b055781602001602082028036833780820191505090505b5081606001819052508362093a80610b1d91906118ac565b8160000181815250506000806000610b3442610eb5565b9250925092506000610b47848484610ee4565b90506000610b5442610f08565b9050600062015180600183610b6991906117a3565b610b7391906118ac565b83610b7e91906117a3565b9050866000015181610b9091906117a3565b87602001818152505062093a808760200151610bac9190611727565b876040018181525050606060008a60ff1603610c59576000808d73ffffffffffffffffffffffffffffffffffffffff1673ffffffffffffffffffffffffffffffffffffffff168152602001908152602001600020600401805480602002602001604051908101604052809291908181526020018280548015610c4d57602002820191906000526020600020905b815481526020019060010190808311610c39575b50505050509050610d3e565b60018a60ff1603610cfb576000808d73ffffffffffffffffffffffffffffffffffffffff1673ffffffffffffffffffffffffffffffffffffffff168152602001908152602001600020600601805480602002602001604051908101604052809291908181526020018280548015610cef57602002820191906000526020600020905b815481526020019060010190808311610cdb575b50505050509050610d3d565b6000610d3c576040517f08c379a0000000000000000000000000000000000000000000000000000000008152600401610d339061193a565b60405180910390fd5b5b5b60005b8151811015610e82578860200151828281518110610d6257610d616116c9565b5b602002602001015110158015610d9657508860400151828281518110610d8b57610d8a6116c9565b5b602002602001015111155b15610e6f576000610dc0838381518110610db357610db26116c9565b5b6020026020010151610f08565b90506000808f73ffffffffffffffffffffffffffffffffffffffff1673ffffffffffffffffffffffffffffffffffffffff1681526020019081526020016000206003016000848481518110610e1857610e176116c9565b5b60200260200101518152602001908152602001600020548a60600151600183610e4191906117a3565b81518110610e5257610e516116c9565b5b60200260200101818151610e669190611727565b91508181525050505b8080610e7a9061175b565b915050610d41565b508760600151985050505050505050509392505050565b600081831015610eab57829050610eaf565b8190505b92915050565b6000806000610ed16201518085610ecc9190611989565b610f49565b8093508194508295505050509193909250565b600062015180610ef58585856110e8565b610eff91906118ac565b90509392505050565b6000806201518083610f1a9190611989565b905060016007600383610f2d9190611727565b610f3791906119ba565b610f419190611727565b915050919050565b600080600080849050600062253d8c62010bd983610f6791906119f5565b610f7191906119f5565b9050600062023ab1826004610f869190611a39565b610f909190611ab1565b9050600460038262023ab1610fa59190611a39565b610faf91906119f5565b610fb99190611ab1565b82610fc49190611b1b565b9150600062164b09600184610fd991906119f5565b610fa0610fe69190611a39565b610ff09190611ab1565b9050601f6004826105b56110049190611a39565b61100e9190611ab1565b846110199190611b1b565b61102391906119f5565b9250600061098f8460506110379190611a39565b6110419190611ab1565b9050600060508261098f6110559190611a39565b61105f9190611ab1565b8561106a9190611b1b565b9050600b826110799190611ab1565b945084600c6110889190611a39565b60028361109591906119f5565b61109f9190611b1b565b915084836031866110b09190611b1b565b60646110bc9190611a39565b6110c691906119f5565b6110d091906119f5565b92508298508197508096505050505050509193909250565b60006107b28410156110f957600080fd5b600084905060008490506000849050600062253d8c60046064600c600e876111219190611b1b565b61112b9190611ab1565b6113248861113991906119f5565b61114391906119f5565b61114d9190611ab1565b60036111599190611a39565b6111639190611ab1565b600c80600c600e886111759190611b1b565b61117f9190611ab1565b6111899190611a39565b6002876111969190611b1b565b6111a09190611b1b565b61016f6111ad9190611a39565b6111b79190611ab1565b6004600c600e886111c89190611b1b565b6111d29190611ab1565b6112c0896111e091906119f5565b6111ea91906119f5565b6105b56111f79190611a39565b6112019190611ab1565b617d4b8661120f9190611b1b565b61121991906119f5565b61122391906119f5565b61122d9190611b1b565b6112379190611b1b565b9050809450505050509392505050565b60405180606001604052806000815260200160008152602001600081525090565b6040518060800160405280600081526020016000815260200160008152602001606081525090565b600080fd5b600073ffffffffffffffffffffffffffffffffffffffff82169050919050565b60006112c082611295565b9050919050565b6112d0816112b5565b81146112db57600080fd5b50565b6000813590506112ed816112c7565b92915050565b6000819050919050565b611306816112f3565b811461131157600080fd5b50565b600081359050611323816112fd565b92915050565b600060ff82169050919050565b61133f81611329565b811461134a57600080fd5b50565b60008135905061135c81611336565b92915050565b60008060006060848603121561137b5761137a611290565b5b6000611389868287016112de565b935050602061139a86828701611314565b92505060406113ab8682870161134d565b9150509250925092565b6113be816112f3565b82525050565b60006020820190506113d960008301846113b5565b92915050565b6000806000606084860312156113f8576113f7611290565b5b6000611406868287016112de565b935050602061141786828701611314565b925050604061142886828701611314565b9150509250925092565b60006020828403121561144857611447611290565b5b6000611456848285016112de565b91505092915050565b6000806040838503121561147657611475611290565b5b6000611484858286016112de565b925050602061149585828601611314565b9150509250929050565b600081519050919050565b600082825260208201905092915050565b6000819050602082019050919050565b6114d4816112f3565b82525050565b6060820160008201516114f060008501826114cb565b50602082015161150360208501826114cb565b50604082015161151660408501826114cb565b50505050565b600061152883836114da565b60608301905092915050565b6000602082019050919050565b600061154c8261149f565b61155681856114aa565b9350611561836114bb565b8060005b83811015611592578151611579888261151c565b975061158483611534565b925050600181019050611565565b5085935050505092915050565b600060208201905081810360008301526115b98184611541565b905092915050565b60006060820190506115d660008301866113b5565b6115e360208301856113b5565b6115f060408301846113b5565b949350505050565b600081519050919050565b600082825260208201905092915050565b6000819050602082019050919050565b600061163083836114cb565b60208301905092915050565b6000602082019050919050565b6000611654826115f8565b61165e8185611603565b935061166983611614565b8060005b8381101561169a5781516116818882611624565b975061168c8361163c565b92505060018101905061166d565b5085935050505092915050565b600060208201905081810360008301526116c18184611649565b905092915050565b7f4e487b7100000000000000000000000000000000000000000000000000000000600052603260045260246000fd5b7f4e487b7100000000000000000000000000000000000000000000000000000000600052601160045260246000fd5b6000611732826112f3565b915061173d836112f3565b9250828201905080821115611755576117546116f8565b5b92915050565b6000611766826112f3565b91507fffffffffffffffffffffffffffffffffffffffffffffffffffffffffffffffff8203611798576117976116f8565b5b600182019050919050565b60006117ae826112f3565b91506117b9836112f3565b92508282039050818111156117d1576117d06116f8565b5b92915050565b7f4e487b7100000000000000000000000000000000000000000000000000000000600052604160045260246000fd5b6000611811826112f3565b915060008203611824576118236116f8565b5b600182039050919050565b600082825260208201905092915050565b7f7765656b206e756d626572207374617274732066726f6d203000000000000000600082015250565b600061187660198361182f565b915061188182611840565b602082019050919050565b600060208201905081810360008301526118a581611869565b9050919050565b60006118b7826112f3565b91506118c2836112f3565b92508282026118d0816112f3565b915082820484148315176118e7576118e66116f8565b5b5092915050565b7f696e76616c6964207472616e73616374696f6e20747970650000000000000000600082015250565b600061192460188361182f565b915061192f826118ee565b602082019050919050565b6000602082019050818103600083015261195381611917565b9050919050565b7f4e487b7100000000000000000000000000000000000000000000000000000000600052601260045260246000fd5b6000611994826112f3565b915061199f836112f3565b9250826119af576119ae61195a565b5b828204905092915050565b60006119c5826112f3565b91506119d0836112f3565b9250826119e0576119df61195a565b5b828206905092915050565b6000819050919050565b6000611a00826119eb565b9150611a0b836119eb565b925082820190508281121560008312168382126000841215161715611a3357611a326116f8565b5b92915050565b6000611a44826119eb565b9150611a4f836119eb565b9250828202611a5d816119eb565b91507f80000000000000000000000000000000000000000000000000000000000000008414600084121615611a9557611a946116f8565b5b8282058414831517611aaa57611aa96116f8565b5b5092915050565b6000611abc826119eb565b9150611ac7836119eb565b925082611ad757611ad661195a565b5b600160000383147f800000000000000000000000000000000000000000000000000000000000000083141615611b1057611b0f6116f8565b5b828205905092915050565b6000611b26826119eb565b9150611b31836119eb565b9250828203905081811260008412168282136000851215161715611b5857611b576116f8565b5b9291505056fea2646970667358221220137d3ccf7359d9239af57448855e00856c2e2dff0082b98f612e7c0ed468ec3864736f6c6343000811003360806040523480156200001157600080fd5b50604051620046c5380380620046c5833981810160405281019062000037919062000184565b81600460006101000a81548173ffffffffffffffffffffffffffffffffffffffff021916908373ffffffffffffffffffffffffffffffffffffffff16021790555080600560006101000a81548173ffffffffffffffffffffffffffffffffffffffff021916908373ffffffffffffffffffffffffffffffffffffffff1602179055505050620001cb565b600080fd5b600073ffffffffffffffffffffffffffffffffffffffff82169050919050565b6000620000f382620000c6565b9050919050565b60006200010782620000e6565b9050919050565b6200011981620000fa565b81146200012557600080fd5b50565b60008151905062000139816200010e565b92915050565b60006200014c82620000e6565b9050919050565b6200015e816200013f565b81146200016a57600080fd5b50565b6000815190506200017e8162000153565b92915050565b600080604083850312156200019e576200019d620000c1565b5b6000620001ae8582860162000128565b9250506020620001c1858286016200016d565b9150509250929050565b6144ea80620001db6000396000f3fe608060405260043610620000865760003560e01c80637b7e76b811620000555780637b7e76b81462000163578063951b3de814620001a7578063bca73eb214620001d7578063ced8d53014620002055762000086565b80630aeadded146200008b5780633d480db514620000b95780634659d79f14620000ef578063620c503a146200011f575b600080fd5b3480156200009857600080fd5b50620000b76004803603810190620000b1919062001bfb565b62000249565b005b620000d76004803603810190620000d1919062001c6d565b6200056d565b604051620000e6919062001d4e565b60405180910390f35b348015620000fc57600080fd5b506200010762001366565b60405162000116919062001d83565b60405180910390f35b3480156200012c57600080fd5b506200014b600480360381019062000145919062001da0565b6200136c565b6040516200015a919062001efa565b60405180910390f35b3480156200017057600080fd5b506200018f600480360381019062000189919062001f1e565b62001458565b6040516200019e91906200216f565b60405180910390f35b348015620001b457600080fd5b50620001bf6200170c565b604051620001ce919062001d83565b60405180910390f35b348015620001e457600080fd5b50620002036004803603810190620001fd919062002193565b62001716565b005b3480156200021257600080fd5b506200023160048036038101906200022b919062001da0565b6200199e565b60405162000240919062002284565b60405180910390f35b600084116200028f576040517f08c379a00000000000000000000000000000000000000000000000000000000081526004016200028690620022f8565b60405180910390fd5b60008311620002d5576040517f08c379a0000000000000000000000000000000000000000000000000000000008152600401620002cc906200236a565b60405180910390fd5b60008210156200031c576040517f08c379a00000000000000000000000000000000000000000000000000000000081526004016200031390620023dc565b60405180910390fd5b60008083815260200190815260200160002060020160009054906101000a900473ffffffffffffffffffffffffffffffffffffffff1673ffffffffffffffffffffffffffffffffffffffff168173ffffffffffffffffffffffffffffffffffffffff1603620003c2576040517f08c379a0000000000000000000000000000000000000000000000000000000008152600401620003b99062002474565b60405180910390fd5b600080600084815260200190815260200160002060040180549050905060003083878760008887604051620003f79062001aeb565b620004099796959493929190620024f7565b604051809103906000f08015801562000426573d6000803e3d6000fd5b50905080600080868152602001908152602001600020600401600181600181540180825580915050039060005260206000200160006101000a81548173ffffffffffffffffffffffffffffffffffffffff021916908373ffffffffffffffffffffffffffffffffffffffff160217905550600560009054906101000a900473ffffffffffffffffffffffffffffffffffffffff1673ffffffffffffffffffffffffffffffffffffffff166384dc965a84836040518363ffffffff1660e01b8152600401620004f692919062002585565b600060405180830381600087803b1580156200051157600080fd5b505af115801562000526573d6000803e3d6000fd5b505050507f83c1d63a3e3cd3d3a92a899ed2f341bd373a5326ebf67b9bd646543e55081ebc83826040516200055d929190620025b2565b60405180910390a1505050505050565b6060600080600085815260200190815260200160002060040183815481106200059b576200059a620025df565b5b9060005260206000200160009054906101000a900473ffffffffffffffffffffffffffffffffffffffff1690503373ffffffffffffffffffffffffffffffffffffffff168173ffffffffffffffffffffffffffffffffffffffff161462000639576040517f08c379a00000000000000000000000000000000000000000000000000000000081526004016200063090620026aa565b60405180910390fd5b600042905060008273ffffffffffffffffffffffffffffffffffffffff1663d67bdd256040518163ffffffff1660e01b8152600401602060405180830381865afa1580156200068c573d6000803e3d6000fd5b505050506040513d601f19601f82011682018060405250810190620006b29190620026e3565b90508273ffffffffffffffffffffffffffffffffffffffff1663aa8c217c6040518163ffffffff1660e01b8152600401602060405180830381865afa15801562000700573d6000803e3d6000fd5b505050506040513d601f19601f820116820180604052508101906200072691906200272c565b600560009054906101000a900473ffffffffffffffffffffffffffffffffffffffff1673ffffffffffffffffffffffffffffffffffffffff1663cb8ab15b836040518263ffffffff1660e01b81526004016200078391906200275e565b602060405180830381865afa158015620007a1573d6000803e3d6000fd5b505050506040513d601f19601f82011682018060405250810190620007c791906200272c565b10156200080b576040517f08c379a00000000000000000000000000000000000000000000000000000000081526004016200080290620027f1565b60405180910390fd5b600560009054906101000a900473ffffffffffffffffffffffffffffffffffffffff1673ffffffffffffffffffffffffffffffffffffffff1663e2670971828573ffffffffffffffffffffffffffffffffffffffff1663aa8c217c6040518163ffffffff1660e01b8152600401602060405180830381865afa15801562000896573d6000803e3d6000fd5b505050506040513d601f19601f82011682018060405250810190620008bc91906200272c565b600560009054906101000a900473ffffffffffffffffffffffffffffffffffffffff1673ffffffffffffffffffffffffffffffffffffffff1663cb8ab15b866040518263ffffffff1660e01b81526004016200091991906200275e565b602060405180830381865afa15801562000937573d6000803e3d6000fd5b505050506040513d601f19601f820116820180604052508101906200095d91906200272c565b62000969919062002842565b6040518363ffffffff1660e01b8152600401620009889291906200287d565b600060405180830381600087803b158015620009a357600080fd5b505af1158015620009b8573d6000803e3d6000fd5b50505050600460009054906101000a900473ffffffffffffffffffffffffffffffffffffffff1673ffffffffffffffffffffffffffffffffffffffff1663e8b8530f828573ffffffffffffffffffffffffffffffffffffffff1663aa8c217c6040518163ffffffff1660e01b8152600401602060405180830381865afa15801562000a47573d6000803e3d6000fd5b505050506040513d601f19601f8201168201806040525081019062000a6d91906200272c565b6040518363ffffffff1660e01b815260040162000a8c9291906200287d565b600060405180830381600087803b15801562000aa757600080fd5b505af115801562000abc573d6000803e3d6000fd5b50505050600460009054906101000a900473ffffffffffffffffffffffffffffffffffffffff1673ffffffffffffffffffffffffffffffffffffffff16631e7ba9cd82848673ffffffffffffffffffffffffffffffffffffffff1663aa8c217c6040518163ffffffff1660e01b8152600401602060405180830381865afa15801562000b4c573d6000803e3d6000fd5b505050506040513d601f19601f8201168201806040525081019062000b7291906200272c565b6040518463ffffffff1660e01b815260040162000b9293929190620028aa565b600060405180830381600087803b15801562000bad57600080fd5b505af115801562000bc2573d6000803e3d6000fd5b50505050600460009054906101000a900473ffffffffffffffffffffffffffffffffffffffff1673ffffffffffffffffffffffffffffffffffffffff1663e6b02333826001856040518463ffffffff1660e01b815260040162000c28939291906200292a565b600060405180830381600087803b15801562000c4357600080fd5b505af115801562000c58573d6000803e3d6000fd5b50505050600080600088815260200190815260200160002060020160009054906101000a900473ffffffffffffffffffffffffffffffffffffffff169050600560009054906101000a900473ffffffffffffffffffffffffffffffffffffffff1673ffffffffffffffffffffffffffffffffffffffff1663e2670971828673ffffffffffffffffffffffffffffffffffffffff1663aa8c217c6040518163ffffffff1660e01b8152600401602060405180830381865afa15801562000d21573d6000803e3d6000fd5b505050506040513d601f19601f8201168201806040525081019062000d4791906200272c565b600560009054906101000a900473ffffffffffffffffffffffffffffffffffffffff1673ffffffffffffffffffffffffffffffffffffffff1663cb8ab15b866040518263ffffffff1660e01b815260040162000da491906200275e565b602060405180830381865afa15801562000dc2573d6000803e3d6000fd5b505050506040513d601f19601f8201168201806040525081019062000de891906200272c565b62000df4919062002967565b6040518363ffffffff1660e01b815260040162000e139291906200287d565b600060405180830381600087803b15801562000e2e57600080fd5b505af115801562000e43573d6000803e3d6000fd5b50505050600460009054906101000a900473ffffffffffffffffffffffffffffffffffffffff1673ffffffffffffffffffffffffffffffffffffffff16633f9b696c828673ffffffffffffffffffffffffffffffffffffffff1663aa8c217c6040518163ffffffff1660e01b8152600401602060405180830381865afa15801562000ed2573d6000803e3d6000fd5b505050506040513d601f19601f8201168201806040525081019062000ef891906200272c565b6040518363ffffffff1660e01b815260040162000f179291906200287d565b600060405180830381600087803b15801562000f3257600080fd5b505af115801562000f47573d6000803e3d6000fd5b50505050600460009054906101000a900473ffffffffffffffffffffffffffffffffffffffff1673ffffffffffffffffffffffffffffffffffffffff16632f0a323e82858773ffffffffffffffffffffffffffffffffffffffff1663aa8c217c6040518163ffffffff1660e01b8152600401602060405180830381865afa15801562000fd7573d6000803e3d6000fd5b505050506040513d601f19601f8201168201806040525081019062000ffd91906200272c565b6040518463ffffffff1660e01b81526004016200101d93929190620028aa565b600060405180830381600087803b1580156200103857600080fd5b505af11580156200104d573d6000803e3d6000fd5b50505050600460009054906101000a900473ffffffffffffffffffffffffffffffffffffffff1673ffffffffffffffffffffffffffffffffffffffff1663e6b02333826000866040518463ffffffff1660e01b8152600401620010b393929190620029db565b600060405180830381600087803b158015620010ce57600080fd5b505af1158015620010e3573d6000803e3d6000fd5b505050508373ffffffffffffffffffffffffffffffffffffffff1663aa8c217c6040518163ffffffff1660e01b8152600401602060405180830381865afa15801562001133573d6000803e3d6000fd5b505050506040513d601f19601f820116820180604052508101906200115991906200272c565b600080898152602001908152602001600020600101541015620011b3576040517f08c379a0000000000000000000000000000000000000000000000000000000008152600401620011aa9062002ab4565b60405180910390fd5b8373ffffffffffffffffffffffffffffffffffffffff1663aa8c217c6040518163ffffffff1660e01b8152600401602060405180830381865afa158015620011ff573d6000803e3d6000fd5b505050506040513d601f19601f820116820180604052508101906200122591906200272c565b60008089815260200190815260200160002060010160008282546200124b919062002842565b92505081905550600080600089815260200190815260200160002060010154036200129f57600080600089815260200190815260200160002060020160146101000a81548160ff0219169083151502179055505b8173ffffffffffffffffffffffffffffffffffffffff166108fc349081150290604051600060405180830381858888f19350505050158015620012e6573d6000803e3d6000fd5b507faa5ef240d12945dacdcfd9ecc9a86ba7fa61f117ef9e9626465aa252e6dd5b663488866040516200131c9392919062002ad6565b60405180910390a16040518060400160405280600781526020017f737563636573730000000000000000000000000000000000000000000000000081525094505050505092915050565b60035481565b60606000821015620013b5576040517f08c379a0000000000000000000000000000000000000000000000000000000008152600401620013ac90620023dc565b60405180910390fd5b6000808381526020019081526020016000206004018054806020026020016040519081016040528092919081815260200182805480156200144c57602002820191906000526020600020905b8160009054906101000a900473ffffffffffffffffffffffffffffffffffffffff1673ffffffffffffffffffffffffffffffffffffffff168152602001906001019080831162001401575b50505050509050919050565b60606000600560009054906101000a900473ffffffffffffffffffffffffffffffffffffffff1673ffffffffffffffffffffffffffffffffffffffff1663ebe0b877846040518263ffffffff1660e01b8152600401620014b991906200275e565b600060405180830381865afa158015620014d7573d6000803e3d6000fd5b505050506040513d6000823e3d601f19601f8201168201806040525081019062001502919062002c77565b90506000815167ffffffffffffffff81111562001524576200152362002b18565b5b6040519080825280602002602001820160405280156200156157816020015b6200154d62001af9565b815260200190600190039081620015435790505b50905060005b825181101562001701576000808483815181106200158a5762001589620025df565b5b602002602001015181526020019081526020016000206040518060c001604052908160008201548152602001600182015481526020016002820160009054906101000a900473ffffffffffffffffffffffffffffffffffffffff1673ffffffffffffffffffffffffffffffffffffffff1673ffffffffffffffffffffffffffffffffffffffff1681526020016002820160149054906101000a900460ff161515151581526020016003820154815260200160048201805480602002602001604051908101604052809291908181526020018280548015620016c157602002820191906000526020600020905b8160009054906101000a900473ffffffffffffffffffffffffffffffffffffffff1673ffffffffffffffffffffffffffffffffffffffff168152602001906001019080831162001676575b505050505081525050828281518110620016e057620016df620025df565b5b60200260200101819052508080620016f89062002cc8565b91505062001567565b508092505050919050565b6000600354905090565b600083116200175c576040517f08c379a0000000000000000000000000000000000000000000000000000000008152600401620017539062002d8b565b60405180910390fd5b60008211620017a2576040517f08c379a0000000000000000000000000000000000000000000000000000000008152600401620017999062002e23565b60405180910390fd5b826000806003548152602001908152602001600020600001819055508160008060035481526020019081526020016000206001018190555080600080600354815260200190815260200160002060020160006101000a81548173ffffffffffffffffffffffffffffffffffffffff021916908373ffffffffffffffffffffffffffffffffffffffff1602179055506001600080600354815260200190815260200160002060020160146101000a81548160ff021916908315150217905550426000806003548152602001908152602001600020600301819055506001806000600354815260200190815260200160002060006101000a81548160ff021916908315150217905550600560009054906101000a900473ffffffffffffffffffffffffffffffffffffffff1673ffffffffffffffffffffffffffffffffffffffff1663f03b5e9d826003546040518363ffffffff1660e01b81526004016200190a9291906200287d565b600060405180830381600087803b1580156200192557600080fd5b505af11580156200193a573d6000803e3d6000fd5b505050507fb327665b1bbfd6560701e012c966f02c9abe3e3b1afa5c084bfa31ed1e70107181600354858560405162001977949392919062002e45565b60405180910390a160036000815480929190620019949062002cc8565b9190505550505050565b620019a862001af9565b6000808381526020019081526020016000206040518060c001604052908160008201548152602001600182015481526020016002820160009054906101000a900473ffffffffffffffffffffffffffffffffffffffff1673ffffffffffffffffffffffffffffffffffffffff1673ffffffffffffffffffffffffffffffffffffffff1681526020016002820160149054906101000a900460ff16151515158152602001600382015481526020016004820180548060200260200160405190810160405280929190818152602001828054801562001adb57602002820191906000526020600020905b8160009054906101000a900473ffffffffffffffffffffffffffffffffffffffff1673ffffffffffffffffffffffffffffffffffffffff168152602001906001019080831162001a90575b5050505050815250509050919050565b6116228062002e9383390190565b6040518060c001604052806000815260200160008152602001600073ffffffffffffffffffffffffffffffffffffffff16815260200160001515815260200160008152602001606081525090565b6000604051905090565b600080fd5b600080fd5b6000819050919050565b62001b708162001b5b565b811462001b7c57600080fd5b50565b60008135905062001b908162001b65565b92915050565b600073ffffffffffffffffffffffffffffffffffffffff82169050919050565b600062001bc38262001b96565b9050919050565b62001bd58162001bb6565b811462001be157600080fd5b50565b60008135905062001bf58162001bca565b92915050565b6000806000806080858703121562001c185762001c1762001b51565b5b600062001c288782880162001b7f565b945050602062001c3b8782880162001b7f565b935050604062001c4e8782880162001b7f565b925050606062001c618782880162001be4565b91505092959194509250565b6000806040838503121562001c875762001c8662001b51565b5b600062001c978582860162001b7f565b925050602062001caa8582860162001b7f565b9150509250929050565b600081519050919050565b600082825260208201905092915050565b60005b8381101562001cf057808201518184015260208101905062001cd3565b60008484015250505050565b6000601f19601f8301169050919050565b600062001d1a8262001cb4565b62001d26818562001cbf565b935062001d3881856020860162001cd0565b62001d438162001cfc565b840191505092915050565b6000602082019050818103600083015262001d6a818462001d0d565b905092915050565b62001d7d8162001b5b565b82525050565b600060208201905062001d9a600083018462001d72565b92915050565b60006020828403121562001db95762001db862001b51565b5b600062001dc98482850162001b7f565b91505092915050565b600081519050919050565b600082825260208201905092915050565b6000819050602082019050919050565b6000819050919050565b600062001e2962001e2362001e1d8462001b96565b62001dfe565b62001b96565b9050919050565b600062001e3d8262001e08565b9050919050565b600062001e518262001e30565b9050919050565b62001e638162001e44565b82525050565b600062001e77838362001e58565b60208301905092915050565b6000602082019050919050565b600062001e9d8262001dd2565b62001ea9818562001ddd565b935062001eb68362001dee565b8060005b8381101562001eed57815162001ed1888262001e69565b975062001ede8362001e83565b92505060018101905062001eba565b5085935050505092915050565b6000602082019050818103600083015262001f16818462001e90565b905092915050565b60006020828403121562001f375762001f3662001b51565b5b600062001f478482850162001be4565b91505092915050565b600081519050919050565b600082825260208201905092915050565b6000819050602082019050919050565b62001f878162001b5b565b82525050565b62001f988162001bb6565b82525050565b60008115159050919050565b62001fb58162001f9e565b82525050565b600082825260208201905092915050565b600062001fd98262001dd2565b62001fe5818562001fbb565b935062001ff28362001dee565b8060005b83811015620020295781516200200d888262001e69565b97506200201a8362001e83565b92505060018101905062001ff6565b5085935050505092915050565b600060c08301600083015162002050600086018262001f7c565b50602083015162002065602086018262001f7c565b5060408301516200207a604086018262001f8d565b5060608301516200208f606086018262001faa565b506080830151620020a4608086018262001f7c565b5060a083015184820360a0860152620020be828262001fcc565b9150508091505092915050565b6000620020d9838362002036565b905092915050565b6000602082019050919050565b6000620020fb8262001f50565b62002107818562001f5b565b9350836020820285016200211b8562001f6c565b8060005b858110156200215d57848403895281516200213b8582620020cb565b94506200214883620020e1565b925060208a019950506001810190506200211f565b50829750879550505050505092915050565b600060208201905081810360008301526200218b8184620020ee565b905092915050565b600080600060608486031215620021af57620021ae62001b51565b5b6000620021bf8682870162001b7f565b9350506020620021d28682870162001b7f565b9250506040620021e58682870162001be4565b9150509250925092565b600060c08301600083015162002209600086018262001f7c565b5060208301516200221e602086018262001f7c565b50604083015162002233604086018262001f8d565b50606083015162002248606086018262001faa565b5060808301516200225d608086018262001f7c565b5060a083015184820360a086015262002277828262001fcc565b9150508091505092915050565b60006020820190508181036000830152620022a08184620021ef565b905092915050565b7f616d6f756e74206d7573742062652067726561746572207468616e2030000000600082015250565b6000620022e0601d8362001cbf565b9150620022ed82620022a8565b602082019050919050565b600060208201905081810360008301526200231381620022d1565b9050919050565b7f71756f746174696f6e206d7573742062652067726561746572207468616e2030600082015250565b60006200235260208362001cbf565b91506200235f826200231a565b602082019050919050565b60006020820190508181036000830152620023858162002343565b9050919050565b7f706f7374206b6579207374617274732066726f6d203000000000000000000000600082015250565b6000620023c460168362001cbf565b9150620023d1826200238c565b602082019050919050565b60006020820190508181036000830152620023f781620023b5565b9050919050565b7f596f752063616e6e6f74207265706c7920746f20796f7572206f776e2070757260008201527f636861736520706f737400000000000000000000000000000000000000000000602082015250565b60006200245c602a8362001cbf565b91506200246982620023fe565b604082019050919050565b600060208201905081810360008301526200248f816200244d565b9050919050565b620024a18162001bb6565b82525050565b6000819050919050565b600060ff82169050919050565b6000620024df620024d9620024d384620024a7565b62001dfe565b620024b1565b9050919050565b620024f181620024be565b82525050565b600060e0820190506200250e600083018a62002496565b6200251d602083018962002496565b6200252c604083018862001d72565b6200253b606083018762001d72565b6200254a6080830186620024e6565b6200255960a083018562001d72565b6200256860c083018462001d72565b98975050505050505050565b6200257f8162001e44565b82525050565b60006040820190506200259c600083018562002496565b620025ab602083018462002574565b9392505050565b6000604082019050620025c9600083018562002496565b620025d8602083018462002496565b9392505050565b7f4e487b7100000000000000000000000000000000000000000000000000000000600052603260045260246000fd5b7f6d6573736167652073656e6465722073686f756c64206f6e6c7920626520746860008201527f6520726573706f6e7365206d657373616765207468617420747269676765727360208201527f207061796d656e742070726f6365737300000000000000000000000000000000604082015250565b60006200269260508362001cbf565b91506200269f826200260e565b606082019050919050565b60006020820190508181036000830152620026c58162002683565b9050919050565b600081519050620026dd8162001bca565b92915050565b600060208284031215620026fc57620026fb62001b51565b5b60006200270c84828501620026cc565b91505092915050565b600081519050620027268162001b65565b92915050565b60006020828403121562002745576200274462001b51565b5b6000620027558482850162002715565b91505092915050565b600060208201905062002775600083018462002496565b92915050565b7f496e73756666696369656e7420656c65637472696369747920756e697473206960008201527f6e206163636f756e740000000000000000000000000000000000000000000000602082015250565b6000620027d960298362001cbf565b9150620027e6826200277b565b604082019050919050565b600060208201905081810360008301526200280c81620027ca565b9050919050565b7f4e487b7100000000000000000000000000000000000000000000000000000000600052601160045260246000fd5b60006200284f8262001b5b565b91506200285c8362001b5b565b925082820390508181111562002877576200287662002813565b5b92915050565b600060408201905062002894600083018562002496565b620028a3602083018462001d72565b9392505050565b6000606082019050620028c1600083018662002496565b620028d0602083018562001d72565b620028df604083018462001d72565b949350505050565b6000819050919050565b6000620029126200290c6200290684620028e7565b62001dfe565b62001b5b565b9050919050565b6200292481620028f1565b82525050565b600060608201905062002941600083018662002496565b62002950602083018562002919565b6200295f604083018462001d72565b949350505050565b6000620029748262001b5b565b9150620029818362001b5b565b92508282019050808211156200299c576200299b62002813565b5b92915050565b6000620029c3620029bd620029b784620024a7565b62001dfe565b62001b5b565b9050919050565b620029d581620029a2565b82525050565b6000606082019050620029f2600083018662002496565b62002a016020830185620029ca565b62002a10604083018462001d72565b949350505050565b7f5468652073616c6573207175616e746974792073686f756c64206265206c657360008201527f73207468616e206f7220657175616c20746f207468652070757263686173652060208201527f64656d616e640000000000000000000000000000000000000000000000000000604082015250565b600062002a9c60468362001cbf565b915062002aa98262002a18565b606082019050919050565b6000602082019050818103600083015262002acf8162002a8d565b9050919050565b600060608201905062002aed600083018662001d72565b62002afc602083018562001d72565b62002b0b604083018462002496565b949350505050565b600080fd5b7f4e487b7100000000000000000000000000000000000000000000000000000000600052604160045260246000fd5b62002b528262001cfc565b810181811067ffffffffffffffff8211171562002b745762002b7362002b18565b5b80604052505050565b600062002b8962001b47565b905062002b97828262002b47565b919050565b600067ffffffffffffffff82111562002bba5762002bb962002b18565b5b602082029050602081019050919050565b600080fd5b600062002be762002be18462002b9c565b62002b7d565b9050808382526020820190506020840283018581111562002c0d5762002c0c62002bcb565b5b835b8181101562002c3a578062002c25888262002715565b84526020840193505060208101905062002c0f565b5050509392505050565b600082601f83011262002c5c5762002c5b62002b13565b5b815162002c6e84826020860162002bd0565b91505092915050565b60006020828403121562002c905762002c8f62001b51565b5b600082015167ffffffffffffffff81111562002cb15762002cb062001b56565b5b62002cbf8482850162002c44565b91505092915050565b600062002cd58262001b5b565b91507fffffffffffffffffffffffffffffffffffffffffffffffffffffffffffffffff820362002d0a5762002d0962002813565b5b600182019050919050565b7f7075726368617365207072696365206d7573742062652067726561746572207460008201527f68616e2030000000000000000000000000000000000000000000000000000000602082015250565b600062002d7360258362001cbf565b915062002d808262002d15565b604082019050919050565b6000602082019050818103600083015262002da68162002d64565b9050919050565b7f616d6f756e7420746f20627579206d757374206265206772656174657220746860008201527f616e203000000000000000000000000000000000000000000000000000000000602082015250565b600062002e0b60248362001cbf565b915062002e188262002dad565b604082019050919050565b6000602082019050818103600083015262002e3e8162002dfc565b9050919050565b600060808201905062002e5c600083018762002496565b62002e6b602083018662001d72565b62002e7a604083018562001d72565b62002e89606083018462001d72565b9594505050505056fe60806040523480156200001157600080fd5b50604051620016223803806200162283398181016040528101906200003791906200021c565b86600860006101000a81548173ffffffffffffffffffffffffffffffffffffffff021916908373ffffffffffffffffffffffffffffffffffffffff160217905550856000806101000a81548173ffffffffffffffffffffffffffffffffffffffff021916908373ffffffffffffffffffffffffffffffffffffffff160217905550846001819055508360028190555082600360006101000a81548160ff021916908360ff16021790555081600481905550806005819055506000600660006101000a81548160ff0219169083151502179055506000600660016101000a81548160ff0219169083151502179055504260078190555050505050505050620002cf565b600080fd5b600073ffffffffffffffffffffffffffffffffffffffff82169050919050565b60006200016b826200013e565b9050919050565b6200017d816200015e565b81146200018957600080fd5b50565b6000815190506200019d8162000172565b92915050565b6000819050919050565b620001b881620001a3565b8114620001c457600080fd5b50565b600081519050620001d881620001ad565b92915050565b600060ff82169050919050565b620001f681620001de565b81146200020257600080fd5b50565b6000815190506200021681620001eb565b92915050565b600080600080600080600060e0888a0312156200023e576200023d62000139565b5b60006200024e8a828b016200018c565b9750506020620002618a828b016200018c565b9650506040620002748a828b01620001c7565b9550506060620002878a828b01620001c7565b94505060806200029a8a828b0162000205565b93505060a0620002ad8a828b01620001c7565b92505060c0620002c08a828b01620001c7565b91505092959891949750929550565b61134380620002df6000396000f3fe6080604052600436106100c65760003560e01c806382fa096a1161007f578063abf4d6c411610059578063abf4d6c414610424578063c32b9b531461042e578063cf09e0d014610438578063d67bdd25146104635761029e565b806382fa096a146103a3578063a03a202e146103ce578063aa8c217c146103f95761029e565b806304dc4cda146102a3578063209ebc08146102ce5780633013aa25146102f95780633d855485146103225780633e784e631461034d5780635051a5ec146103785761029e565b3661029e576000341161010e576040517f08c379a000000000000000000000000000000000000000000000000000000000815260040161010590610b63565b60405180910390fd5b60011515600660009054906101000a900460ff16151514610164576040517f08c379a000000000000000000000000000000000000000000000000000000000815260040161015b90610bf5565b60405180910390fd5b346002546001546101759190610c4e565b146101b5576040517f08c379a00000000000000000000000000000000000000000000000000000000081526004016101ac90610cdc565b60405180910390fd5b60001515600660019054906101000a900460ff1615151461020b576040517f08c379a000000000000000000000000000000000000000000000000000000000815260040161020290610d48565b60405180910390fd5b6000600360009054906101000a900460ff1660ff16036102325761022d61048e565b61029c565b6001600360009054906101000a900460ff1660ff16036102595761025461069d565b61029b565b600061029a576040517f08c379a000000000000000000000000000000000000000000000000000000000815260040161029190610db4565b60405180910390fd5b5b5b005b600080fd5b3480156102af57600080fd5b506102b86108ac565b6040516102c59190610df0565b60405180910390f35b3480156102da57600080fd5b506102e36108bf565b6040516102f09190610e26565b60405180910390f35b34801561030557600080fd5b50610320600480360381019061031b9190610e72565b6108d2565b005b34801561032e57600080fd5b5061033761093d565b6040516103449190610eae565b60405180910390f35b34801561035957600080fd5b50610362610943565b60405161036f9190610eae565b60405180910390f35b34801561038457600080fd5b5061038d610949565b60405161039a9190610e26565b60405180910390f35b3480156103af57600080fd5b506103b861095c565b6040516103c59190610fee565b60405180910390f35b3480156103da57600080fd5b506103e3610a67565b6040516103f09190610eae565b60405180910390f35b34801561040557600080fd5b5061040e610a6d565b60405161041b9190610eae565b60405180910390f35b61042c61048e565b005b61043661069d565b005b34801561044457600080fd5b5061044d610a73565b60405161045a9190610eae565b60405180910390f35b34801561046f57600080fd5b50610478610a79565b6040516104859190611019565b60405180910390f35b60008054906101000a900473ffffffffffffffffffffffffffffffffffffffff1673ffffffffffffffffffffffffffffffffffffffff163373ffffffffffffffffffffffffffffffffffffffff160361051c576040517f08c379a0000000000000000000000000000000000000000000000000000000008152600401610513906110a6565b60405180910390fd5b6000600860009054906101000a900473ffffffffffffffffffffffffffffffffffffffff1673ffffffffffffffffffffffffffffffffffffffff163460045460055460405160240161056f9291906110c6565b6040516020818303038152906040527f3d480db5000000000000000000000000000000000000000000000000000000007bffffffffffffffffffffffffffffffffffffffffffffffffffffffff19166020820180517bffffffffffffffffffffffffffffffffffffffffffffffffffffffff83818316178352505050506040516105f99190611160565b60006040518083038185875af1925050503d8060008114610636576040519150601f19603f3d011682016040523d82523d6000602084013e61063b565b606091505b505090508061067f576040517f08c379a0000000000000000000000000000000000000000000000000000000008152600401610676906111c3565b60405180910390fd5b6001600660016101000a81548160ff02191690831515021790555050565b60008054906101000a900473ffffffffffffffffffffffffffffffffffffffff1673ffffffffffffffffffffffffffffffffffffffff163373ffffffffffffffffffffffffffffffffffffffff161461072b576040517f08c379a00000000000000000000000000000000000000000000000000000000081526004016107229061127b565b60405180910390fd5b6000600860009054906101000a900473ffffffffffffffffffffffffffffffffffffffff1673ffffffffffffffffffffffffffffffffffffffff163460045460055460405160240161077e9291906110c6565b6040516020818303038152906040527f0876290a000000000000000000000000000000000000000000000000000000007bffffffffffffffffffffffffffffffffffffffffffffffffffffffff19166020820180517bffffffffffffffffffffffffffffffffffffffffffffffffffffffff83818316178352505050506040516108089190611160565b60006040518083038185875af1925050503d8060008114610845576040519150601f19603f3d011682016040523d82523d6000602084013e61084a565b606091505b505090508061088e576040517f08c379a0000000000000000000000000000000000000000000000000000000008152600401610885906111c3565b60405180910390fd5b6001600660016101000a81548160ff02191690831515021790555050565b600360009054906101000a900460ff1681565b600660019054906101000a900460ff1681565b80600660006101000a81548160ff0219169083151502179055507f9161e5ec70df4a8ef9f6085e3435135f3da64c7ec32c271912e1ca8d4afbd7c3600360009054906101000a900460ff16600454600554604051610932939291906112d6565b60405180910390a150565b60045481565b60055481565b600660009054906101000a900460ff1681565b610964610a9d565b61096c610a9d565b60008054906101000a900473ffffffffffffffffffffffffffffffffffffffff16816000019073ffffffffffffffffffffffffffffffffffffffff16908173ffffffffffffffffffffffffffffffffffffffff1681525050600154816020018181525050600254816040018181525050600360009054906101000a900460ff16816060019060ff16908160ff16815250506004548160800181815250506005548160a0018181525050600660009054906101000a900460ff168160c0019015159081151581525050600660019054906101000a900460ff168160e0019015159081151581525050600754816101000181815250508091505090565b60025481565b60015481565b60075481565b60008054906101000a900473ffffffffffffffffffffffffffffffffffffffff1681565b604051806101200160405280600073ffffffffffffffffffffffffffffffffffffffff1681526020016000815260200160008152602001600060ff1681526020016000815260200160008152602001600015158152602001600015158152602001600081525090565b600082825260208201905092915050565b7f696e76616c6964207061796d656e740000000000000000000000000000000000600082015250565b6000610b4d600f83610b06565b9150610b5882610b17565b602082019050919050565b60006020820190508181036000830152610b7c81610b40565b9050919050565b7f796f757220726573706f6e736520686173206e6f74206265656e20616363657060008201527f7465642062792073656c6c657220796574000000000000000000000000000000602082015250565b6000610bdf603183610b06565b9150610bea82610b83565b604082019050919050565b60006020820190508181036000830152610c0e81610bd2565b9050919050565b6000819050919050565b7f4e487b7100000000000000000000000000000000000000000000000000000000600052601160045260246000fd5b6000610c5982610c15565b9150610c6483610c15565b9250828202610c7281610c15565b91508282048414831517610c8957610c88610c1f565b5b5092915050565b7f4e6f742066756c6c792070616964207965740000000000000000000000000000600082015250565b6000610cc6601283610b06565b9150610cd182610c90565b602082019050919050565b60006020820190508181036000830152610cf581610cb9565b9050919050565b7f4f7264657220697320616c726561647920706169642100000000000000000000600082015250565b6000610d32601683610b06565b9150610d3d82610cfc565b602082019050919050565b60006020820190508181036000830152610d6181610d25565b9050919050565b7f696e76616c696420726573706f6e7365206d6573736167652074797065000000600082015250565b6000610d9e601d83610b06565b9150610da982610d68565b602082019050919050565b60006020820190508181036000830152610dcd81610d91565b9050919050565b600060ff82169050919050565b610dea81610dd4565b82525050565b6000602082019050610e056000830184610de1565b92915050565b60008115159050919050565b610e2081610e0b565b82525050565b6000602082019050610e3b6000830184610e17565b92915050565b600080fd5b610e4f81610e0b565b8114610e5a57600080fd5b50565b600081359050610e6c81610e46565b92915050565b600060208284031215610e8857610e87610e41565b5b6000610e9684828501610e5d565b91505092915050565b610ea881610c15565b82525050565b6000602082019050610ec36000830184610e9f565b92915050565b600073ffffffffffffffffffffffffffffffffffffffff82169050919050565b6000610ef482610ec9565b9050919050565b610f0481610ee9565b82525050565b610f1381610c15565b82525050565b610f2281610dd4565b82525050565b610f3181610e0b565b82525050565b61012082016000820151610f4e6000850182610efb565b506020820151610f616020850182610f0a565b506040820151610f746040850182610f0a565b506060820151610f876060850182610f19565b506080820151610f9a6080850182610f0a565b5060a0820151610fad60a0850182610f0a565b5060c0820151610fc060c0850182610f28565b5060e0820151610fd360e0850182610f28565b50610100820151610fe8610100850182610f0a565b50505050565b6000610120820190506110046000830184610f37565b92915050565b61101381610ee9565b82525050565b600060208201905061102e600083018461100a565b92915050565b7f596f752063616e6e6f74206d616b652061207061796d656e7420746f20796f7560008201527f72206f776e2073656c6c696e6720726573706f6e7365206d6573736167650000602082015250565b6000611090603e83610b06565b915061109b82611034565b604082019050919050565b600060208201905081810360008301526110bf81611083565b9050919050565b60006040820190506110db6000830185610e9f565b6110e86020830184610e9f565b9392505050565b600081519050919050565b600081905092915050565b60005b83811015611123578082015181840152602081019050611108565b60008484015250505050565b600061113a826110ef565b61114481856110fa565b9350611154818560208601611105565b80840191505092915050565b600061116c828461112f565b915081905092915050565b7f7061796d656e74206661696c6564000000000000000000000000000000000000600082015250565b60006111ad600e83610b06565b91506111b882611177565b602082019050919050565b600060208201905081810360008301526111dc816111a0565b9050919050565b7f4f6e6c7920746865206d6573736167652073656e6465722077686f2073656e7460008201527f207468697320726573706f6e736520746f206163717569726520656c6563747260208201527f696369747920756e6974732063616e206d616b652061207061796d656e740000604082015250565b6000611265605e83610b06565b9150611270826111e3565b606082019050919050565b6000602082019050818103600083015261129481611258565b9050919050565b6000819050919050565b60006112c06112bb6112b684610dd4565b61129b565b610c15565b9050919050565b6112d0816112a5565b82525050565b60006060820190506112eb60008301866112c7565b6112f86020830185610e9f565b6113056040830184610e9f565b94935050505056fea264697066735822122073e925c02640f54ec6f797a0c5db83b3650b31ffafe16a7aa55534274ce1d24064736f6c63430008110033a26469706673582212204ce13695e38352a1eabc059937cb3fe9eec582ac8b1c40aadc88f29f6d65cd4064736f6c6343000811003360806040523480156200001157600080fd5b506040516200458b3803806200458b833981810160405281019062000037919062000184565b81600460006101000a81548173ffffffffffffffffffffffffffffffffffffffff021916908373ffffffffffffffffffffffffffffffffffffffff16021790555080600560006101000a81548173ffffffffffffffffffffffffffffffffffffffff021916908373ffffffffffffffffffffffffffffffffffffffff1602179055505050620001cb565b600080fd5b600073ffffffffffffffffffffffffffffffffffffffff82169050919050565b6000620000f382620000c6565b9050919050565b60006200010782620000e6565b9050919050565b6200011981620000fa565b81146200012557600080fd5b50565b60008151905062000139816200010e565b92915050565b60006200014c82620000e6565b9050919050565b6200015e816200013f565b81146200016a57600080fd5b50565b6000815190506200017e8162000153565b92915050565b600080604083850312156200019e576200019d620000c1565b5b6000620001ae8582860162000128565b9250506020620001c1858286016200016d565b9150509250929050565b6143b080620001db6000396000f3fe608060405260043610620000865760003560e01c80636fc1a2c311620000555780636fc1a2c3146200014d578063906eb21c146200017d578063ae87ca7c14620001ab578063da02c9de14620001ef5762000086565b80630876290a146200008b57806335df350914620000ab5780634cb3a34514620000db5780636627cbd61462000109575b600080fd5b620000a96004803603810190620000a3919062001b44565b62000233565b005b348015620000b857600080fd5b50620000c362000ff0565b604051620000d2919062001b9c565b60405180910390f35b348015620000e857600080fd5b5062000107600480360381019062000101919062001c1e565b62000ffa565b005b3480156200011657600080fd5b506200013560048036038101906200012f919062001c90565b6200131e565b60405162000144919062001dea565b60405180910390f35b3480156200015a57600080fd5b50620001656200140a565b60405162000174919062001b9c565b60405180910390f35b3480156200018a57600080fd5b50620001a96004803603810190620001a3919062001e0e565b62001410565b005b348015620001b857600080fd5b50620001d76004803603810190620001d1919062001e6a565b62001698565b604051620001e69190620020bb565b60405180910390f35b348015620001fc57600080fd5b506200021b600480360381019062000215919062001c90565b6200194c565b6040516200022a919062002174565b60405180910390f35b600080600084815260200190815260200160002060040182815481106200025f576200025e62002198565b5b9060005260206000200160009054906101000a900473ffffffffffffffffffffffffffffffffffffffff1690503373ffffffffffffffffffffffffffffffffffffffff168173ffffffffffffffffffffffffffffffffffffffff1614620002fd576040517f08c379a0000000000000000000000000000000000000000000000000000000008152600401620002f4906200224e565b60405180910390fd5b600042905060008273ffffffffffffffffffffffffffffffffffffffff1663d67bdd256040518163ffffffff1660e01b8152600401602060405180830381865afa15801562000350573d6000803e3d6000fd5b505050506040513d601f19601f8201168201806040525081019062000376919062002287565b9050600560009054906101000a900473ffffffffffffffffffffffffffffffffffffffff1673ffffffffffffffffffffffffffffffffffffffff1663e2670971828573ffffffffffffffffffffffffffffffffffffffff1663aa8c217c6040518163ffffffff1660e01b8152600401602060405180830381865afa15801562000403573d6000803e3d6000fd5b505050506040513d601f19601f82011682018060405250810190620004299190620022d0565b600560009054906101000a900473ffffffffffffffffffffffffffffffffffffffff1673ffffffffffffffffffffffffffffffffffffffff1663cb8ab15b866040518263ffffffff1660e01b815260040162000486919062002313565b602060405180830381865afa158015620004a4573d6000803e3d6000fd5b505050506040513d601f19601f82011682018060405250810190620004ca9190620022d0565b620004d691906200235f565b6040518363ffffffff1660e01b8152600401620004f59291906200239a565b600060405180830381600087803b1580156200051057600080fd5b505af115801562000525573d6000803e3d6000fd5b50505050600460009054906101000a900473ffffffffffffffffffffffffffffffffffffffff1673ffffffffffffffffffffffffffffffffffffffff16633f9b696c828573ffffffffffffffffffffffffffffffffffffffff1663aa8c217c6040518163ffffffff1660e01b8152600401602060405180830381865afa158015620005b4573d6000803e3d6000fd5b505050506040513d601f19601f82011682018060405250810190620005da9190620022d0565b6040518363ffffffff1660e01b8152600401620005f99291906200239a565b600060405180830381600087803b1580156200061457600080fd5b505af115801562000629573d6000803e3d6000fd5b50505050600460009054906101000a900473ffffffffffffffffffffffffffffffffffffffff1673ffffffffffffffffffffffffffffffffffffffff16632f0a323e82848673ffffffffffffffffffffffffffffffffffffffff1663aa8c217c6040518163ffffffff1660e01b8152600401602060405180830381865afa158015620006b9573d6000803e3d6000fd5b505050506040513d601f19601f82011682018060405250810190620006df9190620022d0565b6040518463ffffffff1660e01b8152600401620006ff93929190620023c7565b600060405180830381600087803b1580156200071a57600080fd5b505af11580156200072f573d6000803e3d6000fd5b50505050600460009054906101000a900473ffffffffffffffffffffffffffffffffffffffff1673ffffffffffffffffffffffffffffffffffffffff1663e6b02333826000856040518463ffffffff1660e01b8152600401620007959392919062002447565b600060405180830381600087803b158015620007b057600080fd5b505af1158015620007c5573d6000803e3d6000fd5b50505050600080600087815260200190815260200160002060020160009054906101000a900473ffffffffffffffffffffffffffffffffffffffff1690508373ffffffffffffffffffffffffffffffffffffffff1663aa8c217c6040518163ffffffff1660e01b8152600401602060405180830381865afa1580156200084f573d6000803e3d6000fd5b505050506040513d601f19601f82011682018060405250810190620008759190620022d0565b600560009054906101000a900473ffffffffffffffffffffffffffffffffffffffff1673ffffffffffffffffffffffffffffffffffffffff1663cb8ab15b836040518263ffffffff1660e01b8152600401620008d2919062002313565b602060405180830381865afa158015620008f0573d6000803e3d6000fd5b505050506040513d601f19601f82011682018060405250810190620009169190620022d0565b10156200095a576040517f08c379a00000000000000000000000000000000000000000000000000000000081526004016200095190620024fa565b60405180910390fd5b600560009054906101000a900473ffffffffffffffffffffffffffffffffffffffff1673ffffffffffffffffffffffffffffffffffffffff1663e2670971828673ffffffffffffffffffffffffffffffffffffffff1663aa8c217c6040518163ffffffff1660e01b8152600401602060405180830381865afa158015620009e5573d6000803e3d6000fd5b505050506040513d601f19601f8201168201806040525081019062000a0b9190620022d0565b600560009054906101000a900473ffffffffffffffffffffffffffffffffffffffff1673ffffffffffffffffffffffffffffffffffffffff1663cb8ab15b866040518263ffffffff1660e01b815260040162000a68919062002313565b602060405180830381865afa15801562000a86573d6000803e3d6000fd5b505050506040513d601f19601f8201168201806040525081019062000aac9190620022d0565b62000ab891906200251c565b6040518363ffffffff1660e01b815260040162000ad79291906200239a565b600060405180830381600087803b15801562000af257600080fd5b505af115801562000b07573d6000803e3d6000fd5b50505050600460009054906101000a900473ffffffffffffffffffffffffffffffffffffffff1673ffffffffffffffffffffffffffffffffffffffff1663e8b8530f828673ffffffffffffffffffffffffffffffffffffffff1663aa8c217c6040518163ffffffff1660e01b8152600401602060405180830381865afa15801562000b96573d6000803e3d6000fd5b505050506040513d601f19601f8201168201806040525081019062000bbc9190620022d0565b6040518363ffffffff1660e01b815260040162000bdb9291906200239a565b600060405180830381600087803b15801562000bf657600080fd5b505af115801562000c0b573d6000803e3d6000fd5b50505050600460009054906101000a900473ffffffffffffffffffffffffffffffffffffffff1673ffffffffffffffffffffffffffffffffffffffff16631e7ba9cd82858773ffffffffffffffffffffffffffffffffffffffff1663aa8c217c6040518163ffffffff1660e01b8152600401602060405180830381865afa15801562000c9b573d6000803e3d6000fd5b505050506040513d601f19601f8201168201806040525081019062000cc19190620022d0565b6040518463ffffffff1660e01b815260040162000ce193929190620023c7565b600060405180830381600087803b15801562000cfc57600080fd5b505af115801562000d11573d6000803e3d6000fd5b50505050600460009054906101000a900473ffffffffffffffffffffffffffffffffffffffff1673ffffffffffffffffffffffffffffffffffffffff1663e6b02333826001866040518463ffffffff1660e01b815260040162000d77939291906200259a565b600060405180830381600087803b15801562000d9257600080fd5b505af115801562000da7573d6000803e3d6000fd5b505050508373ffffffffffffffffffffffffffffffffffffffff1663aa8c217c6040518163ffffffff1660e01b8152600401602060405180830381865afa15801562000df7573d6000803e3d6000fd5b505050506040513d601f19601f8201168201806040525081019062000e1d9190620022d0565b60008088815260200190815260200160002060010154101562000e77576040517f08c379a000000000000000000000000000000000000000000000000000000000815260040162000e6e906200264d565b60405180910390fd5b8373ffffffffffffffffffffffffffffffffffffffff1663aa8c217c6040518163ffffffff1660e01b8152600401602060405180830381865afa15801562000ec3573d6000803e3d6000fd5b505050506040513d601f19601f8201168201806040525081019062000ee99190620022d0565b600080888152602001908152602001600020600101600082825462000f0f91906200251c565b925050819055506000806000888152602001908152602001600020600101540362000f6357600080600088815260200190815260200160002060020160146101000a81548160ff0219169083151502179055505b8073ffffffffffffffffffffffffffffffffffffffff166108fc349081150290604051600060405180830381858888f1935050505015801562000faa573d6000803e3d6000fd5b507f58e40951e480e0eb47a55e7fe3d9efbfcf47e2513825240c24a81843b2fb6c7b34878660405162000fe0939291906200266f565b60405180910390a1505050505050565b6000600354905090565b6000841162001040576040517f08c379a00000000000000000000000000000000000000000000000000000000081526004016200103790620026fc565b60405180910390fd5b6000831162001086576040517f08c379a00000000000000000000000000000000000000000000000000000000081526004016200107d906200276e565b60405180910390fd5b6000821015620010cd576040517f08c379a0000000000000000000000000000000000000000000000000000000008152600401620010c490620027e0565b60405180910390fd5b60008083815260200190815260200160002060020160009054906101000a900473ffffffffffffffffffffffffffffffffffffffff1673ffffffffffffffffffffffffffffffffffffffff168173ffffffffffffffffffffffffffffffffffffffff160362001173576040517f08c379a00000000000000000000000000000000000000000000000000000000081526004016200116a9062002878565b60405180910390fd5b600080600084815260200190815260200160002060040180549050905060003083878760018887604051620011a89062001a99565b620011ba9796959493929190620028e0565b604051809103906000f080158015620011d7573d6000803e3d6000fd5b50905080600080868152602001908152602001600020600401600181600181540180825580915050039060005260206000200160006101000a81548173ffffffffffffffffffffffffffffffffffffffff021916908373ffffffffffffffffffffffffffffffffffffffff160217905550600560009054906101000a900473ffffffffffffffffffffffffffffffffffffffff1673ffffffffffffffffffffffffffffffffffffffff166384dc965a84836040518363ffffffff1660e01b8152600401620012a79291906200296e565b600060405180830381600087803b158015620012c257600080fd5b505af1158015620012d7573d6000803e3d6000fd5b505050507fc7f10d7197fb2a9693c302afe34b2b61de0f7048c4a33a39923e281c0c93ee2283826040516200130e9291906200299b565b60405180910390a1505050505050565b6060600082101562001367576040517f08c379a00000000000000000000000000000000000000000000000000000000081526004016200135e90620027e0565b60405180910390fd5b600080838152602001908152602001600020600401805480602002602001604051908101604052809291908181526020018280548015620013fe57602002820191906000526020600020905b8160009054906101000a900473ffffffffffffffffffffffffffffffffffffffff1673ffffffffffffffffffffffffffffffffffffffff1681526020019060010190808311620013b3575b50505050509050919050565b60035481565b6000831162001456576040517f08c379a00000000000000000000000000000000000000000000000000000000081526004016200144d9062002a3e565b60405180910390fd5b600082116200149c576040517f08c379a0000000000000000000000000000000000000000000000000000000008152600401620014939062002ad6565b60405180910390fd5b826000806003548152602001908152602001600020600001819055508160008060035481526020019081526020016000206001018190555080600080600354815260200190815260200160002060020160006101000a81548173ffffffffffffffffffffffffffffffffffffffff021916908373ffffffffffffffffffffffffffffffffffffffff1602179055506001600080600354815260200190815260200160002060020160146101000a81548160ff021916908315150217905550426000806003548152602001908152602001600020600301819055506001806000600354815260200190815260200160002060006101000a81548160ff021916908315150217905550600560009054906101000a900473ffffffffffffffffffffffffffffffffffffffff1673ffffffffffffffffffffffffffffffffffffffff1663c331d842826003546040518363ffffffff1660e01b8152600401620016049291906200239a565b600060405180830381600087803b1580156200161f57600080fd5b505af115801562001634573d6000803e3d6000fd5b505050507f70d4f73f8dc596f6b7f1d3996153d2ae6e391837c8ad344b8f32ffe96fbbed9c81600354858560405162001671949392919062002af8565b60405180910390a1600360008154809291906200168e9062002b45565b9190505550505050565b60606000600560009054906101000a900473ffffffffffffffffffffffffffffffffffffffff1673ffffffffffffffffffffffffffffffffffffffff16631d036d7d846040518263ffffffff1660e01b8152600401620016f9919062002313565b600060405180830381865afa15801562001717573d6000803e3d6000fd5b505050506040513d6000823e3d601f19601f8201168201806040525081019062001742919062002d07565b90506000815167ffffffffffffffff81111562001764576200176362002ba8565b5b604051908082528060200260200182016040528015620017a157816020015b6200178d62001aa7565b815260200190600190039081620017835790505b50905060005b82518110156200194157600080848381518110620017ca57620017c962002198565b5b602002602001015181526020019081526020016000206040518060c001604052908160008201548152602001600182015481526020016002820160009054906101000a900473ffffffffffffffffffffffffffffffffffffffff1673ffffffffffffffffffffffffffffffffffffffff1673ffffffffffffffffffffffffffffffffffffffff1681526020016002820160149054906101000a900460ff1615151515815260200160038201548152602001600482018054806020026020016040519081016040528092919081815260200182805480156200190157602002820191906000526020600020905b8160009054906101000a900473ffffffffffffffffffffffffffffffffffffffff1673ffffffffffffffffffffffffffffffffffffffff1681526020019060010190808311620018b6575b50505050508152505082828151811062001920576200191f62002198565b5b60200260200101819052508080620019389062002b45565b915050620017a7565b508092505050919050565b6200195662001aa7565b6000808381526020019081526020016000206040518060c001604052908160008201548152602001600182015481526020016002820160009054906101000a900473ffffffffffffffffffffffffffffffffffffffff1673ffffffffffffffffffffffffffffffffffffffff1673ffffffffffffffffffffffffffffffffffffffff1681526020016002820160149054906101000a900460ff16151515158152602001600382015481526020016004820180548060200260200160405190810160405280929190818152602001828054801562001a8957602002820191906000526020600020905b8160009054906101000a900473ffffffffffffffffffffffffffffffffffffffff1673ffffffffffffffffffffffffffffffffffffffff168152602001906001019080831162001a3e575b5050505050815250509050919050565b6116228062002d5983390190565b6040518060c001604052806000815260200160008152602001600073ffffffffffffffffffffffffffffffffffffffff16815260200160001515815260200160008152602001606081525090565b6000604051905090565b600080fd5b600080fd5b6000819050919050565b62001b1e8162001b09565b811462001b2a57600080fd5b50565b60008135905062001b3e8162001b13565b92915050565b6000806040838503121562001b5e5762001b5d62001aff565b5b600062001b6e8582860162001b2d565b925050602062001b818582860162001b2d565b9150509250929050565b62001b968162001b09565b82525050565b600060208201905062001bb3600083018462001b8b565b92915050565b600073ffffffffffffffffffffffffffffffffffffffff82169050919050565b600062001be68262001bb9565b9050919050565b62001bf88162001bd9565b811462001c0457600080fd5b50565b60008135905062001c188162001bed565b92915050565b6000806000806080858703121562001c3b5762001c3a62001aff565b5b600062001c4b8782880162001b2d565b945050602062001c5e8782880162001b2d565b935050604062001c718782880162001b2d565b925050606062001c848782880162001c07565b91505092959194509250565b60006020828403121562001ca95762001ca862001aff565b5b600062001cb98482850162001b2d565b91505092915050565b600081519050919050565b600082825260208201905092915050565b6000819050602082019050919050565b6000819050919050565b600062001d1962001d1362001d0d8462001bb9565b62001cee565b62001bb9565b9050919050565b600062001d2d8262001cf8565b9050919050565b600062001d418262001d20565b9050919050565b62001d538162001d34565b82525050565b600062001d67838362001d48565b60208301905092915050565b6000602082019050919050565b600062001d8d8262001cc2565b62001d99818562001ccd565b935062001da68362001cde565b8060005b8381101562001ddd57815162001dc1888262001d59565b975062001dce8362001d73565b92505060018101905062001daa565b5085935050505092915050565b6000602082019050818103600083015262001e06818462001d80565b905092915050565b60008060006060848603121562001e2a5762001e2962001aff565b5b600062001e3a8682870162001b2d565b935050602062001e4d8682870162001b2d565b925050604062001e608682870162001c07565b9150509250925092565b60006020828403121562001e835762001e8262001aff565b5b600062001e938482850162001c07565b91505092915050565b600081519050919050565b600082825260208201905092915050565b6000819050602082019050919050565b62001ed38162001b09565b82525050565b62001ee48162001bd9565b82525050565b60008115159050919050565b62001f018162001eea565b82525050565b600082825260208201905092915050565b600062001f258262001cc2565b62001f31818562001f07565b935062001f3e8362001cde565b8060005b8381101562001f7557815162001f59888262001d59565b975062001f668362001d73565b92505060018101905062001f42565b5085935050505092915050565b600060c08301600083015162001f9c600086018262001ec8565b50602083015162001fb1602086018262001ec8565b50604083015162001fc6604086018262001ed9565b50606083015162001fdb606086018262001ef6565b50608083015162001ff0608086018262001ec8565b5060a083015184820360a08601526200200a828262001f18565b9150508091505092915050565b600062002025838362001f82565b905092915050565b6000602082019050919050565b6000620020478262001e9c565b62002053818562001ea7565b935083602082028501620020678562001eb8565b8060005b85811015620020a9578484038952815162002087858262002017565b945062002094836200202d565b925060208a019950506001810190506200206b565b50829750879550505050505092915050565b60006020820190508181036000830152620020d781846200203a565b905092915050565b600060c083016000830151620020f9600086018262001ec8565b5060208301516200210e602086018262001ec8565b50604083015162002123604086018262001ed9565b50606083015162002138606086018262001ef6565b5060808301516200214d608086018262001ec8565b5060a083015184820360a086015262002167828262001f18565b9150508091505092915050565b60006020820190508181036000830152620021908184620020df565b905092915050565b7f4e487b7100000000000000000000000000000000000000000000000000000000600052603260045260246000fd5b600082825260208201905092915050565b7f4f6e6c7920726573706f6e7365206d657373616765732061726520616c6c6f7760008201527f656420746f2074726967676572207061796d656e742070726f63657373000000602082015250565b600062002236603d83620021c7565b91506200224382620021d8565b604082019050919050565b60006020820190508181036000830152620022698162002227565b9050919050565b600081519050620022818162001bed565b92915050565b600060208284031215620022a0576200229f62001aff565b5b6000620022b08482850162002270565b91505092915050565b600081519050620022ca8162001b13565b92915050565b600060208284031215620022e957620022e862001aff565b5b6000620022f984828501620022b9565b91505092915050565b6200230d8162001bd9565b82525050565b60006020820190506200232a600083018462002302565b92915050565b7f4e487b7100000000000000000000000000000000000000000000000000000000600052601160045260246000fd5b60006200236c8262001b09565b9150620023798362001b09565b925082820190508082111562002394576200239362002330565b5b92915050565b6000604082019050620023b1600083018562002302565b620023c0602083018462001b8b565b9392505050565b6000606082019050620023de600083018662002302565b620023ed602083018562001b8b565b620023fc604083018462001b8b565b949350505050565b6000819050919050565b60006200242f62002429620024238462002404565b62001cee565b62001b09565b9050919050565b62002441816200240e565b82525050565b60006060820190506200245e600083018662002302565b6200246d602083018562002436565b6200247c604083018462001b8b565b949350505050565b7f496e73756666696369656e7420656c65637472696369747920756e697473206960008201527f6e2073656c6c65722773206163636f756e740000000000000000000000000000602082015250565b6000620024e2603283620021c7565b9150620024ef8262002484565b604082019050919050565b600060208201905081810360008301526200251581620024d3565b9050919050565b6000620025298262001b09565b9150620025368362001b09565b925082820390508181111562002551576200255062002330565b5b92915050565b6000819050919050565b6000620025826200257c620025768462002557565b62001cee565b62001b09565b9050919050565b620025948162002561565b82525050565b6000606082019050620025b1600083018662002302565b620025c0602083018562002589565b620025cf604083018462001b8b565b949350505050565b7f496e73756666696369656e742073656c6c696e6720756e69747320696e20736560008201527f6c6c696e6720706f737400000000000000000000000000000000000000000000602082015250565b600062002635602a83620021c7565b91506200264282620025d7565b604082019050919050565b60006020820190508181036000830152620026688162002626565b9050919050565b600060608201905062002686600083018662001b8b565b62002695602083018562001b8b565b620026a4604083018462002302565b949350505050565b7f616d6f756e74206d7573742062652067726561746572207468616e2030000000600082015250565b6000620026e4601d83620021c7565b9150620026f182620026ac565b602082019050919050565b600060208201905081810360008301526200271781620026d5565b9050919050565b7f71756f746174696f6e206d7573742062652067726561746572207468616e2030600082015250565b600062002756602083620021c7565b915062002763826200271e565b602082019050919050565b60006020820190508181036000830152620027898162002747565b9050919050565b7f706f7374206b6579207374617274732066726f6d203000000000000000000000600082015250565b6000620027c8601683620021c7565b9150620027d58262002790565b602082019050919050565b60006020820190508181036000830152620027fb81620027b9565b9050919050565b7f596f752063616e6e6f74207265706c7920746f20796f7572206f776e2073656c60008201527f6c696e6720706f73740000000000000000000000000000000000000000000000602082015250565b600062002860602983620021c7565b91506200286d8262002802565b604082019050919050565b60006020820190508181036000830152620028938162002851565b9050919050565b600060ff82169050919050565b6000620028c8620028c2620028bc8462002557565b62001cee565b6200289a565b9050919050565b620028da81620028a7565b82525050565b600060e082019050620028f7600083018a62002302565b62002906602083018962002302565b62002915604083018862001b8b565b62002924606083018762001b8b565b620029336080830186620028cf565b6200294260a083018562001b8b565b6200295160c083018462001b8b565b98975050505050505050565b620029688162001d34565b82525050565b600060408201905062002985600083018562002302565b6200299460208301846200295d565b9392505050565b6000604082019050620029b2600083018562002302565b620029c1602083018462002302565b9392505050565b7f7075726368617365207072696365206d7573742062652067726561746572207460008201527f68616e2030000000000000000000000000000000000000000000000000000000602082015250565b600062002a26602583620021c7565b915062002a3382620029c8565b604082019050919050565b6000602082019050818103600083015262002a598162002a17565b9050919050565b7f616d6f756e7420746f20627579206d757374206265206772656174657220746860008201527f616e203000000000000000000000000000000000000000000000000000000000602082015250565b600062002abe602483620021c7565b915062002acb8262002a60565b604082019050919050565b6000602082019050818103600083015262002af18162002aaf565b9050919050565b600060808201905062002b0f600083018762002302565b62002b1e602083018662001b8b565b62002b2d604083018562001b8b565b62002b3c606083018462001b8b565b95945050505050565b600062002b528262001b09565b91507fffffffffffffffffffffffffffffffffffffffffffffffffffffffffffffffff820362002b875762002b8662002330565b5b600182019050919050565b600080fd5b6000601f19601f8301169050919050565b7f4e487b7100000000000000000000000000000000000000000000000000000000600052604160045260246000fd5b62002be28262002b97565b810181811067ffffffffffffffff8211171562002c045762002c0362002ba8565b5b80604052505050565b600062002c1962001af5565b905062002c27828262002bd7565b919050565b600067ffffffffffffffff82111562002c4a5762002c4962002ba8565b5b602082029050602081019050919050565b600080fd5b600062002c7762002c718462002c2c565b62002c0d565b9050808382526020820190506020840283018581111562002c9d5762002c9c62002c5b565b5b835b8181101562002cca578062002cb58882620022b9565b84526020840193505060208101905062002c9f565b5050509392505050565b600082601f83011262002cec5762002ceb62002b92565b5b815162002cfe84826020860162002c60565b91505092915050565b60006020828403121562002d205762002d1f62001aff565b5b600082015167ffffffffffffffff81111562002d415762002d4062001b04565b5b62002d4f8482850162002cd4565b9150509291505056fe60806040523480156200001157600080fd5b50604051620016223803806200162283398181016040528101906200003791906200021c565b86600860006101000a81548173ffffffffffffffffffffffffffffffffffffffff021916908373ffffffffffffffffffffffffffffffffffffffff160217905550856000806101000a81548173ffffffffffffffffffffffffffffffffffffffff021916908373ffffffffffffffffffffffffffffffffffffffff160217905550846001819055508360028190555082600360006101000a81548160ff021916908360ff16021790555081600481905550806005819055506000600660006101000a81548160ff0219169083151502179055506000600660016101000a81548160ff0219169083151502179055504260078190555050505050505050620002cf565b600080fd5b600073ffffffffffffffffffffffffffffffffffffffff82169050919050565b60006200016b826200013e565b9050919050565b6200017d816200015e565b81146200018957600080fd5b50565b6000815190506200019d8162000172565b92915050565b6000819050919050565b620001b881620001a3565b8114620001c457600080fd5b50565b600081519050620001d881620001ad565b92915050565b600060ff82169050919050565b620001f681620001de565b81146200020257600080fd5b50565b6000815190506200021681620001eb565b92915050565b600080600080600080600060e0888a0312156200023e576200023d62000139565b5b60006200024e8a828b016200018c565b9750506020620002618a828b016200018c565b9650506040620002748a828b01620001c7565b9550506060620002878a828b01620001c7565b94505060806200029a8a828b0162000205565b93505060a0620002ad8a828b01620001c7565b92505060c0620002c08a828b01620001c7565b91505092959891949750929550565b61134380620002df6000396000f3fe6080604052600436106100c65760003560e01c806382fa096a1161007f578063abf4d6c411610059578063abf4d6c414610424578063c32b9b531461042e578063cf09e0d014610438578063d67bdd25146104635761029e565b806382fa096a146103a3578063a03a202e146103ce578063aa8c217c146103f95761029e565b806304dc4cda146102a3578063209ebc08146102ce5780633013aa25146102f95780633d855485146103225780633e784e631461034d5780635051a5ec146103785761029e565b3661029e576000341161010e576040517f08c379a000000000000000000000000000000000000000000000000000000000815260040161010590610b63565b60405180910390fd5b60011515600660009054906101000a900460ff16151514610164576040517f08c379a000000000000000000000000000000000000000000000000000000000815260040161015b90610bf5565b60405180910390fd5b346002546001546101759190610c4e565b146101b5576040517f08c379a00000000000000000000000000000000000000000000000000000000081526004016101ac90610cdc565b60405180910390fd5b60001515600660019054906101000a900460ff1615151461020b576040517f08c379a000000000000000000000000000000000000000000000000000000000815260040161020290610d48565b60405180910390fd5b6000600360009054906101000a900460ff1660ff16036102325761022d61048e565b61029c565b6001600360009054906101000a900460ff1660ff16036102595761025461069d565b61029b565b600061029a576040517f08c379a000000000000000000000000000000000000000000000000000000000815260040161029190610db4565b60405180910390fd5b5b5b005b600080fd5b3480156102af57600080fd5b506102b86108ac565b6040516102c59190610df0565b60405180910390f35b3480156102da57600080fd5b506102e36108bf565b6040516102f09190610e26565b60405180910390f35b34801561030557600080fd5b50610320600480360381019061031b9190610e72565b6108d2565b005b34801561032e57600080fd5b5061033761093d565b6040516103449190610eae565b60405180910390f35b34801561035957600080fd5b50610362610943565b60405161036f9190610eae565b60405180910390f35b34801561038457600080fd5b5061038d610949565b60405161039a9190610e26565b60405180910390f35b3480156103af57600080fd5b506103b861095c565b6040516103c59190610fee565b60405180910390f35b3480156103da57600080fd5b506103e3610a67565b6040516103f09190610eae565b60405180910390f35b34801561040557600080fd5b5061040e610a6d565b60405161041b9190610eae565b60405180910390f35b61042c61048e565b005b61043661069d565b005b34801561044457600080fd5b5061044d610a73565b60405161045a9190610eae565b60405180910390f35b34801561046f57600080fd5b50610478610a79565b6040516104859190611019565b60405180910390f35b60008054906101000a900473ffffffffffffffffffffffffffffffffffffffff1673ffffffffffffffffffffffffffffffffffffffff163373ffffffffffffffffffffffffffffffffffffffff160361051c576040517f08c379a0000000000000000000000000000000000000000000000000000000008152600401610513906110a6565b60405180910390fd5b6000600860009054906101000a900473ffffffffffffffffffffffffffffffffffffffff1673ffffffffffffffffffffffffffffffffffffffff163460045460055460405160240161056f9291906110c6565b6040516020818303038152906040527f3d480db5000000000000000000000000000000000000000000000000000000007bffffffffffffffffffffffffffffffffffffffffffffffffffffffff19166020820180517bffffffffffffffffffffffffffffffffffffffffffffffffffffffff83818316178352505050506040516105f99190611160565b60006040518083038185875af1925050503d8060008114610636576040519150601f19603f3d011682016040523d82523d6000602084013e61063b565b606091505b505090508061067f576040517f08c379a0000000000000000000000000000000000000000000000000000000008152600401610676906111c3565b60405180910390fd5b6001600660016101000a81548160ff02191690831515021790555050565b60008054906101000a900473ffffffffffffffffffffffffffffffffffffffff1673ffffffffffffffffffffffffffffffffffffffff163373ffffffffffffffffffffffffffffffffffffffff161461072b576040517f08c379a00000000000000000000000000000000000000000000000000000000081526004016107229061127b565b60405180910390fd5b6000600860009054906101000a900473ffffffffffffffffffffffffffffffffffffffff1673ffffffffffffffffffffffffffffffffffffffff163460045460055460405160240161077e9291906110c6565b6040516020818303038152906040527f0876290a000000000000000000000000000000000000000000000000000000007bffffffffffffffffffffffffffffffffffffffffffffffffffffffff19166020820180517bffffffffffffffffffffffffffffffffffffffffffffffffffffffff83818316178352505050506040516108089190611160565b60006040518083038185875af1925050503d8060008114610845576040519150601f19603f3d011682016040523d82523d6000602084013e61084a565b606091505b505090508061088e576040517f08c379a0000000000000000000000000000000000000000000000000000000008152600401610885906111c3565b60405180910390fd5b6001600660016101000a81548160ff02191690831515021790555050565b600360009054906101000a900460ff1681565b600660019054906101000a900460ff1681565b80600660006101000a81548160ff0219169083151502179055507f9161e5ec70df4a8ef9f6085e3435135f3da64c7ec32c271912e1ca8d4afbd7c3600360009054906101000a900460ff16600454600554604051610932939291906112d6565b60405180910390a150565b60045481565b60055481565b600660009054906101000a900460ff1681565b610964610a9d565b61096c610a9d565b60008054906101000a900473ffffffffffffffffffffffffffffffffffffffff16816000019073ffffffffffffffffffffffffffffffffffffffff16908173ffffffffffffffffffffffffffffffffffffffff1681525050600154816020018181525050600254816040018181525050600360009054906101000a900460ff16816060019060ff16908160ff16815250506004548160800181815250506005548160a0018181525050600660009054906101000a900460ff168160c0019015159081151581525050600660019054906101000a900460ff168160e0019015159081151581525050600754816101000181815250508091505090565b60025481565b60015481565b60075481565b60008054906101000a900473ffffffffffffffffffffffffffffffffffffffff1681565b604051806101200160405280600073ffffffffffffffffffffffffffffffffffffffff1681526020016000815260200160008152602001600060ff1681526020016000815260200160008152602001600015158152602001600015158152602001600081525090565b600082825260208201905092915050565b7f696e76616c6964207061796d656e740000000000000000000000000000000000600082015250565b6000610b4d600f83610b06565b9150610b5882610b17565b602082019050919050565b60006020820190508181036000830152610b7c81610b40565b9050919050565b7f796f757220726573706f6e736520686173206e6f74206265656e20616363657060008201527f7465642062792073656c6c657220796574000000000000000000000000000000602082015250565b6000610bdf603183610b06565b9150610bea82610b83565b604082019050919050565b60006020820190508181036000830152610c0e81610bd2565b9050919050565b6000819050919050565b7f4e487b7100000000000000000000000000000000000000000000000000000000600052601160045260246000fd5b6000610c5982610c15565b9150610c6483610c15565b9250828202610c7281610c15565b91508282048414831517610c8957610c88610c1f565b5b5092915050565b7f4e6f742066756c6c792070616964207965740000000000000000000000000000600082015250565b6000610cc6601283610b06565b9150610cd182610c90565b602082019050919050565b60006020820190508181036000830152610cf581610cb9565b9050919050565b7f4f7264657220697320616c726561647920706169642100000000000000000000600082015250565b6000610d32601683610b06565b9150610d3d82610cfc565b602082019050919050565b60006020820190508181036000830152610d6181610d25565b9050919050565b7f696e76616c696420726573706f6e7365206d6573736167652074797065000000600082015250565b6000610d9e601d83610b06565b9150610da982610d68565b602082019050919050565b60006020820190508181036000830152610dcd81610d91565b9050919050565b600060ff82169050919050565b610dea81610dd4565b82525050565b6000602082019050610e056000830184610de1565b92915050565b60008115159050919050565b610e2081610e0b565b82525050565b6000602082019050610e3b6000830184610e17565b92915050565b600080fd5b610e4f81610e0b565b8114610e5a57600080fd5b50565b600081359050610e6c81610e46565b92915050565b600060208284031215610e8857610e87610e41565b5b6000610e9684828501610e5d565b91505092915050565b610ea881610c15565b82525050565b6000602082019050610ec36000830184610e9f565b92915050565b600073ffffffffffffffffffffffffffffffffffffffff82169050919050565b6000610ef482610ec9565b9050919050565b610f0481610ee9565b82525050565b610f1381610c15565b82525050565b610f2281610dd4565b82525050565b610f3181610e0b565b82525050565b61012082016000820151610f4e6000850182610efb565b506020820151610f616020850182610f0a565b506040820151610f746040850182610f0a565b506060820151610f876060850182610f19565b506080820151610f9a6080850182610f0a565b5060a0820151610fad60a0850182610f0a565b5060c0820151610fc060c0850182610f28565b5060e0820151610fd360e0850182610f28565b50610100820151610fe8610100850182610f0a565b50505050565b6000610120820190506110046000830184610f37565b92915050565b61101381610ee9565b82525050565b600060208201905061102e600083018461100a565b92915050565b7f596f752063616e6e6f74206d616b652061207061796d656e7420746f20796f7560008201527f72206f776e2073656c6c696e6720726573706f6e7365206d6573736167650000602082015250565b6000611090603e83610b06565b915061109b82611034565b604082019050919050565b600060208201905081810360008301526110bf81611083565b9050919050565b60006040820190506110db6000830185610e9f565b6110e86020830184610e9f565b9392505050565b600081519050919050565b600081905092915050565b60005b83811015611123578082015181840152602081019050611108565b60008484015250505050565b600061113a826110ef565b61114481856110fa565b9350611154818560208601611105565b80840191505092915050565b600061116c828461112f565b915081905092915050565b7f7061796d656e74206661696c6564000000000000000000000000000000000000600082015250565b60006111ad600e83610b06565b91506111b882611177565b602082019050919050565b600060208201905081810360008301526111dc816111a0565b9050919050565b7f4f6e6c7920746865206d6573736167652073656e6465722077686f2073656e7460008201527f207468697320726573706f6e736520746f206163717569726520656c6563747260208201527f696369747920756e6974732063616e206d616b652061207061796d656e740000604082015250565b6000611265605e83610b06565b9150611270826111e3565b606082019050919050565b6000602082019050818103600083015261129481611258565b9050919050565b6000819050919050565b60006112c06112bb6112b684610dd4565b61129b565b610c15565b9050919050565b6112d0816112a5565b82525050565b60006060820190506112eb60008301866112c7565b6112f86020830185610e9f565b6113056040830184610e9f565b94935050505056fea264697066735822122073e925c02640f54ec6f797a0c5db83b3650b31ffafe16a7aa55534274ce1d24064736f6c63430008110033a26469706673582212205f52b2a9dcff2342b62d9fa9a1265ecee0015c549c10d5fc34e79429cae92c9d64736f6c63430008110033",
  "immutableReferences": {},
  "source": "//SPDX-License-Identifier: MIT\n\npragma solidity ^0.8.0;\n\nimport \"./BeanStructs.sol\";\nimport \"./BuyerService.sol\";\nimport \"./SellerService.sol\";\nimport \"./UserService.sol\";\nimport \"./StatisticsService.sol\";\n\n// system contract\ncontract MainSystem is BeanStructs {\n\n    UserService private  userService;\n    StatisticsService private statisticsService;\n    BuyerService private  buyerService;\n    SellerService  private sellerService;\n    \n    // ------------------------- constructor ------------------------- \n    constructor() {\n        // 1.initialize services and mount them to reference variables\n        userService = new UserService(address(this));\n        statisticsService = new StatisticsService();\n        buyerService = new BuyerService(statisticsService, userService);       \n        sellerService = new SellerService(statisticsService, userService);      \n        userService.initializeContractAddresses(address(buyerService), address(sellerService)); \n    }\n\n    // -------------------------buyer service API -------------------------\n    \n    // buyer -  create a new purchase post\n    function createPurchasePost (uint _priceToBuy, uint _amountToBuy) public {\n        buyerService.createPurchasePost(_priceToBuy, _amountToBuy, msg.sender);\n    }\n\n    // seller - create purchase post response messages\n    function createResponseMessageToPurchasePost(uint _amountToSell, uint _quotationInWei, uint _purchasePostKey) public {\n        buyerService.createResponseMessageToPurchasePost(_amountToSell, _quotationInWei, _purchasePostKey, msg.sender);\n    }\n\n    // returns all purchase posts by user address\n    function returnAllPurchasePostsByAddress(address _account) public view returns (PurchasePost[] memory) {\n        return buyerService.returnAllPurchasePostsByAddress(_account);\n    }\n\n     // return total number of purchase posts in the system\n    function returnPurchasePostMapSize() public view returns(uint) {\n        return buyerService.returnPurchasePostMapSize();\n    }\n\n    // return one purchase post by user address and post key\n    function getPurchasePostByKey(uint _postKey) public view returns(PurchasePost memory) {\n        return buyerService.getPurchasePostByKey(_postKey);\n    }\n\n    // return all response messages of a purchase post by post key\n    function returnPurchasePostResponseMessagesByKey(uint _postKey) public view returns(PostResponseMessage[] memory){\n        return buyerService.returnPurchasePostResponseMessagesByKey(_postKey);\n    }\n\n    // ------------------------- seller service API -------------------------\n\n    // seller -  create a new selling post\n    function createSellingPost (uint _priceToSell, uint _amountToSell) public {\n        sellerService.createSellingPost(_priceToSell, _amountToSell, msg.sender);\n    }\n     \n    // buyer - create selling post response messages\n    // buyer creates response message and wait for confirmation from seller. buyer then pays for it once response is accepted\n    function createResponseMessageToSellingPost(uint _amountToBuy, uint _quotationInWei, uint _sellingPostKey) public {\n        sellerService.createResponseMessageToSellingPost(_amountToBuy, _quotationInWei, _sellingPostKey, msg.sender);\n    }\n\n\n    // returns all selling posts by user address\n    function returnAllSellingPostsByAddress(address _account) public view returns (SellingPost[] memory) {\n        return sellerService.returnAllSellingPostsByAddress(_account);\n    }\n\n    // return one selling post by post key\n    function getSellingPostByKey(uint _postKey) public view returns(SellingPost memory) {\n        return sellerService.getSellingPostByKey(_postKey);\n    }\n\n    // return all response messages of one post by key\n    function returnSellingPostResponseMessagesByKey(uint _postKey) public view returns(PostResponseMessage[] memory){\n        return sellerService.returnSellingPostResponseMessagesByKey(_postKey);\n    }\n\n    //new\n    function returnSellPostMapSize() public view returns(uint){\n        return sellerService.returnSellPostMapSize();\n    }\n\n    // ------------------------- user service API -------------------------\n\n    // return username by user's account address\n    function getUsernameByAddress(address _user) public view returns (string memory) {\n        return userService.getUsername(_user);\n    }\n\n    // return available electricity units by account address\n    function getAvailableElecUnitsByAccountAddress(address _user) public view returns (uint) {\n        return userService.getAvailableElecUnits(_user);\n    }\n\n    // return an array contaning all purchase post keys that are published by a user\n    function getPurchasePostKeys(address _user) public view returns (uint[] memory) {\n        return userService.getPurchasePostKeys(_user);\n    }\n\n    // return an array contaning all selling post keys that are published by a user\n    function getSellingPostKeys(address _user) public view returns (uint[] memory) {\n        return userService.getSellingPostKeys(_user);\n    }\n\n    // set username\n    function setUsername(address _user, string memory _username) public {\n        userService.setUsername(_user, _username);\n    }  \n\n    // return all response messages of user by user address\n    function returnAllResponses(address _user) public view returns (PostResponseMessage[] memory) {\n        return userService.returnAllResponses(_user);\n    } \n    \n\n    // -------------------------statistics service API -------------------------\n\n    // return total buy amount by user's account address\n    function returnTotalBuyByAddress(address _accountAddress) public view returns (uint) {\n        return statisticsService.returnTotalBuyByAddress(_accountAddress);\n    }\n    \n    // return total buy amount by user's account address\n    function returnTotalSellByAddress(address _accountAddress) public view returns (uint) {\n        return statisticsService.returnTotalSellByAddress(_accountAddress);\n    }\n\n    // return 10 recent transactions (return all if transactions if total amount is less than 10)\n    function returnRecentTransactions(address _account) public view returns (TransactionBean[] memory)  {\n        return statisticsService.returnRecentTransactions(_account);\n    }\n\n    /*\n        return weekly buy transactions statistics:\n            _user: identify target user\n            _prevWeekNum: identify which week's statistics to retrieve. Value starts from 0\n                0: indicating current week\n                1: previous week\n                2: 2 weeks ago\n                ...  \n    */\n    function returnWeeklyBuyStatistics(address _user, uint _prevWeekNum) public view returns (uint[] memory) {\n        return statisticsService.returnWeeklyStatistics(_user, _prevWeekNum, 0);\n    }\n\n    /*\n        return weekly sell transactions statistics:\n            _user: identify target user\n            _prevWeekNum: identify which week's statistics to retrieve. Value starts from 0\n                0: indicating current week\n                1: previous week\n                2: 2 weeks ago\n                ...  \n    */\n    function returnWeeklySellStatistics(address _user, uint _prevWeekNum) public view returns (uint[] memory) {\n        return statisticsService.returnWeeklyStatistics(_user, _prevWeekNum, 1);\n    }\n\n    /*\n        return weekly total buy and total sell:\n            _user: identify target user\n            _prevWeekNum: identify which week's statistics to retrieve. Value starts from 0\n                0: indicating current week\n                1: previous week\n                2: 2 weeks ago\n                ...  \n        return format:[WeeklyTotalBuy, WeeklyTotalSell]\n    */\n    function returnWeeklyTotalBuyAndSell(address _user, uint _prevWeekNum) public view returns (uint[2] memory) {\n        uint weeklyBuy = statisticsService.returnWeeklyTotalBuyOrSell(_user, _prevWeekNum, 0);\n        uint weeklySell = statisticsService.returnWeeklyTotalBuyOrSell(_user, _prevWeekNum, 1);\n        uint[2] memory result = [weeklyBuy, weeklySell];\n        return result;   \n    }\n    \n\n}\n",
  "sourcePath": "/Users/richard/Doc//sydney_study/22s2/5703/vue-web3-5703/truffle/contracts/MainSystem.sol",
  "compiler": {
    "name": "solc",
    "version": "0.8.17+commit.8df45f5f.Emscripten.clang"
  },
  "schemaVersion": "3.4.9",
  "updatedAt": "2022-10-13T03:20:22.935Z",
  "networkType": "ethereum",
  "devdoc": {
    "kind": "dev",
    "methods": {},
    "version": 1
  },
  "userdoc": {
    "kind": "user",
    "methods": {},
    "version": 1
  }
}