{
  "contractName": "MainSystem",
  "abi": [
    {
      "inputs": [],
      "stateMutability": "nonpayable",
      "type": "constructor"
    },
    {
      "anonymous": false,
      "inputs": [
        {
          "indexed": false,
          "internalType": "address",
          "name": "creator",
          "type": "address"
        },
        {
          "indexed": false,
          "internalType": "uint256",
          "name": "postKey",
          "type": "uint256"
        },
        {
          "indexed": false,
          "internalType": "uint256",
          "name": "_priceToBuy",
          "type": "uint256"
        },
        {
          "indexed": false,
          "internalType": "uint256",
          "name": "_amountToBuy",
          "type": "uint256"
        }
      ],
      "name": "PurchasePostCreated",
      "type": "event"
    },
    {
      "anonymous": false,
      "inputs": [
        {
          "indexed": false,
          "internalType": "uint256",
          "name": "paymentAmount",
          "type": "uint256"
        },
        {
          "indexed": false,
          "internalType": "uint256",
          "name": "purchasePostKey",
          "type": "uint256"
        },
        {
          "indexed": false,
          "internalType": "address",
          "name": "responseMessageAddress",
          "type": "address"
        }
      ],
      "name": "PurchasePostPaymentSuccess",
      "type": "event"
    },
    {
      "anonymous": false,
      "inputs": [
        {
          "indexed": false,
          "internalType": "address",
          "name": "creator",
          "type": "address"
        },
        {
          "indexed": false,
          "internalType": "address",
          "name": "responseMessageAddress",
          "type": "address"
        }
      ],
      "name": "PurchasePostResponseMessageCreated",
      "type": "event"
    },
    {
      "anonymous": false,
      "inputs": [
        {
          "indexed": false,
          "internalType": "address",
          "name": "creator",
          "type": "address"
        },
        {
          "indexed": false,
          "internalType": "uint256",
          "name": "postKey",
          "type": "uint256"
        },
        {
          "indexed": false,
          "internalType": "uint256",
          "name": "_priceToBuy",
          "type": "uint256"
        },
        {
          "indexed": false,
          "internalType": "uint256",
          "name": "_amountToBuy",
          "type": "uint256"
        }
      ],
      "name": "SellingPostCreated",
      "type": "event"
    },
    {
      "anonymous": false,
      "inputs": [
        {
          "indexed": false,
          "internalType": "uint256",
          "name": "paymentAmount",
          "type": "uint256"
        },
        {
          "indexed": false,
          "internalType": "uint256",
          "name": "sellingPostKey",
          "type": "uint256"
        },
        {
          "indexed": false,
          "internalType": "address",
          "name": "responseMessageAddress",
          "type": "address"
        }
      ],
      "name": "SellingPostPaymentSuccess",
      "type": "event"
    },
    {
      "anonymous": false,
      "inputs": [
        {
          "indexed": false,
          "internalType": "address",
          "name": "creator",
          "type": "address"
        },
        {
          "indexed": false,
          "internalType": "address",
          "name": "responseMessageAddress",
          "type": "address"
        }
      ],
      "name": "SellingPostResponseMessageCreated",
      "type": "event"
    },
    {
      "inputs": [
        {
          "internalType": "uint256",
          "name": "_priceToBuy",
          "type": "uint256"
        },
        {
          "internalType": "uint256",
          "name": "_amountToBuy",
          "type": "uint256"
        }
      ],
      "name": "createPurchasePost",
      "outputs": [],
      "stateMutability": "nonpayable",
      "type": "function"
    },
    {
      "inputs": [
        {
          "internalType": "uint256",
          "name": "_amountToSell",
          "type": "uint256"
        },
        {
          "internalType": "uint256",
          "name": "_quotationInWei",
          "type": "uint256"
        },
        {
          "internalType": "uint256",
          "name": "_purchasePostKey",
          "type": "uint256"
        }
      ],
      "name": "createResponseMessageToPurchasePost",
      "outputs": [],
      "stateMutability": "nonpayable",
      "type": "function"
    },
    {
      "inputs": [
        {
          "internalType": "uint256",
          "name": "_amountToBuy",
          "type": "uint256"
        },
        {
          "internalType": "uint256",
          "name": "_quotationInWei",
          "type": "uint256"
        },
        {
          "internalType": "uint256",
          "name": "_sellingPostKey",
          "type": "uint256"
        }
      ],
      "name": "createResponseMessageToSellingPost",
      "outputs": [],
      "stateMutability": "nonpayable",
      "type": "function"
    },
    {
      "inputs": [
        {
          "internalType": "uint256",
          "name": "_priceToSell",
          "type": "uint256"
        },
        {
          "internalType": "uint256",
          "name": "_amountToSell",
          "type": "uint256"
        }
      ],
      "name": "createSellingPost",
      "outputs": [],
      "stateMutability": "nonpayable",
      "type": "function"
    },
    {
      "inputs": [
        {
          "internalType": "uint256",
          "name": "_sellingPostKey",
          "type": "uint256"
        },
        {
          "internalType": "uint256",
          "name": "_responseMessageIndex",
          "type": "uint256"
        }
      ],
      "name": "handleSellingPostPayment",
      "outputs": [],
      "stateMutability": "payable",
      "type": "function",
      "payable": true
    },
    {
      "inputs": [],
      "name": "purchasePostCounter",
      "outputs": [
        {
          "internalType": "uint256",
          "name": "",
          "type": "uint256"
        }
      ],
      "stateMutability": "view",
      "type": "function",
      "constant": true
    },
    {
      "inputs": [],
      "name": "sellingPostCounter",
      "outputs": [
        {
          "internalType": "uint256",
          "name": "",
          "type": "uint256"
        }
      ],
      "stateMutability": "view",
      "type": "function",
      "constant": true
    },
    {
      "inputs": [
        {
          "internalType": "uint256",
          "name": "_purchasePostKey",
          "type": "uint256"
        },
        {
          "internalType": "uint256",
          "name": "_responseMessageIndex",
          "type": "uint256"
        }
      ],
      "name": "triggerPayment",
      "outputs": [],
      "stateMutability": "payable",
      "type": "function",
      "payable": true
    },
    {
      "inputs": [
        {
          "internalType": "address",
          "name": "",
          "type": "address"
        }
      ],
      "name": "userMap",
      "outputs": [
        {
          "internalType": "string",
          "name": "username",
          "type": "string"
        },
        {
          "internalType": "uint256",
          "name": "availableElecUnits",
          "type": "uint256"
        }
      ],
      "stateMutability": "view",
      "type": "function",
      "constant": true
    },
    {
      "inputs": [],
      "name": "returnPurchasePostMapSize",
      "outputs": [
        {
          "internalType": "uint256",
          "name": "",
          "type": "uint256"
        }
      ],
      "stateMutability": "view",
      "type": "function",
      "constant": true
    },
    {
      "inputs": [
        {
          "internalType": "uint256",
          "name": "_postKey",
          "type": "uint256"
        }
      ],
      "name": "getPurchasePostByKey",
      "outputs": [
        {
          "components": [
            {
              "internalType": "uint256",
              "name": "priceToBuy",
              "type": "uint256"
            },
            {
              "internalType": "uint256",
              "name": "amountToBuy",
              "type": "uint256"
            },
            {
              "internalType": "address",
              "name": "buyer",
              "type": "address"
            },
            {
              "internalType": "bool",
              "name": "enabled",
              "type": "bool"
            },
            {
              "internalType": "uint256",
              "name": "createdAt",
              "type": "uint256"
            },
            {
              "internalType": "contract PostResponseMessage[]",
              "name": "responseMessages",
              "type": "address[]"
            }
          ],
          "internalType": "struct BuyerModule.PurchasePost",
          "name": "",
          "type": "tuple"
        }
      ],
      "stateMutability": "view",
      "type": "function",
      "constant": true
    },
    {
      "inputs": [
        {
          "internalType": "uint256",
          "name": "_postKey",
          "type": "uint256"
        }
      ],
      "name": "getSellingPostByKey",
      "outputs": [
        {
          "components": [
            {
              "internalType": "uint256",
              "name": "priceToSell",
              "type": "uint256"
            },
            {
              "internalType": "uint256",
              "name": "amountToSell",
              "type": "uint256"
            },
            {
              "internalType": "address",
              "name": "seller",
              "type": "address"
            },
            {
              "internalType": "bool",
              "name": "enabled",
              "type": "bool"
            },
            {
              "internalType": "uint256",
              "name": "createdAt",
              "type": "uint256"
            },
            {
              "internalType": "contract PostResponseMessage[]",
              "name": "responseMessages",
              "type": "address[]"
            }
          ],
          "internalType": "struct SellerModule.SellingPost",
          "name": "",
          "type": "tuple"
        }
      ],
      "stateMutability": "view",
      "type": "function",
      "constant": true
    },
    {
      "inputs": [
        {
          "internalType": "uint256",
          "name": "_postKey",
          "type": "uint256"
        }
      ],
      "name": "returnPurchasePostResponseMessagesByKey",
      "outputs": [
        {
          "internalType": "contract PostResponseMessage[]",
          "name": "",
          "type": "address[]"
        }
      ],
      "stateMutability": "view",
      "type": "function",
      "constant": true
    },
    {
      "inputs": [
        {
          "internalType": "uint256",
          "name": "_postKey",
          "type": "uint256"
        }
      ],
      "name": "returnSellingPostResponseMessagesByKey",
      "outputs": [
        {
          "internalType": "contract PostResponseMessage[]",
          "name": "",
          "type": "address[]"
        }
      ],
      "stateMutability": "view",
      "type": "function",
      "constant": true
    },
    {
      "inputs": [
        {
          "internalType": "address",
          "name": "_account",
          "type": "address"
        }
      ],
      "name": "getAvailableElecUnitsByAccountAddress",
      "outputs": [
        {
          "internalType": "uint256",
          "name": "",
          "type": "uint256"
        }
      ],
      "stateMutability": "view",
      "type": "function",
      "constant": true
    }
  ],
  "bytecode": "0x608060405234801561001057600080fd5b50600073ff6f3a57c688d382df20b09e5fcab66cc61dbc22905060646000808373ffffffffffffffffffffffffffffffffffffffff1673ffffffffffffffffffffffffffffffffffffffff16815260200190815260200160002060010181905550506145d5806100816000396000f3fe608060405260043610620000fe5760003560e01c80637bf4d4151162000097578063d378b5fe1162000061578063d378b5fe1462000356578063da02c9de1462000384578063e3d9deb614620003c8578063f139c06314620003f657620000fe565b80637bf4d415146200027e578063951b3de8146200029e578063c9fd542014620002ce578063ced8d530146200031257620000fe565b8063620c503a11620000d9578063620c503a14620001985780636627cbd614620001dc5780636e6181ec14620002205780636fc1a2c3146200024e57620000fe565b80630876290a14620001035780632bcc23f814620001235780634659d79f1462000168575b600080fd5b6200012160048036038101906200011b919062002126565b62000424565b005b3480156200013057600080fd5b506200014f6004803603810190620001499190620021d2565b62000a76565b6040516200015f929190620022af565b60405180910390f35b3480156200017557600080fd5b506200018062000b2a565b6040516200018f9190620022e3565b60405180910390f35b348015620001a557600080fd5b50620001c46004803603810190620001be919062002300565b62000b30565b604051620001d391906200245a565b60405180910390f35b348015620001e957600080fd5b5062000208600480360381019062000202919062002300565b62000c1d565b6040516200021791906200245a565b60405180910390f35b3480156200022d57600080fd5b506200024c600480360381019062000246919062002126565b62000d0a565b005b3480156200025b57600080fd5b506200026662000f6c565b604051620002759190620022e3565b60405180910390f35b6200029c600480360381019062000296919062002126565b62000f72565b005b348015620002ab57600080fd5b50620002b6620015c4565b604051620002c59190620022e3565b60405180910390f35b348015620002db57600080fd5b50620002fa6004803603810190620002f49190620021d2565b620015ce565b604051620003099190620022e3565b60405180910390f35b3480156200031f57600080fd5b506200033e600480360381019062000338919062002300565b62001619565b6040516200034d9190620025cd565b60405180910390f35b3480156200036357600080fd5b506200038260048036038101906200037c9190620025f1565b62001767565b005b3480156200039157600080fd5b50620003b06004803603810190620003aa919062002300565b620019fa565b604051620003bf9190620026e2565b60405180910390f35b348015620003d557600080fd5b50620003f46004803603810190620003ee9190620025f1565b62001b48565b005b3480156200040357600080fd5b506200042260048036038101906200041c919062002126565b62001ddb565b005b600060056000848152602001908152602001600020600401828154811062000451576200045062002706565b5b9060005260206000200160009054906101000a900473ffffffffffffffffffffffffffffffffffffffff1690503373ffffffffffffffffffffffffffffffffffffffff168173ffffffffffffffffffffffffffffffffffffffff1614620004ef576040517f08c379a0000000000000000000000000000000000000000000000000000000008152600401620004e690620027ab565b60405180910390fd5b60008173ffffffffffffffffffffffffffffffffffffffff1663d67bdd256040518163ffffffff1660e01b8152600401602060405180830381865afa1580156200053d573d6000803e3d6000fd5b505050506040513d601f19601f82011682018060405250810190620005639190620027e4565b90508173ffffffffffffffffffffffffffffffffffffffff1663aa8c217c6040518163ffffffff1660e01b8152600401602060405180830381865afa158015620005b1573d6000803e3d6000fd5b505050506040513d601f19601f82011682018060405250810190620005d791906200282d565b6000808373ffffffffffffffffffffffffffffffffffffffff1673ffffffffffffffffffffffffffffffffffffffff16815260200190815260200160002060010160008282546200062991906200288e565b9250508190555060006005600086815260200190815260200160002060020160009054906101000a900473ffffffffffffffffffffffffffffffffffffffff1690508273ffffffffffffffffffffffffffffffffffffffff1663aa8c217c6040518163ffffffff1660e01b8152600401602060405180830381865afa158015620006b7573d6000803e3d6000fd5b505050506040513d601f19601f82011682018060405250810190620006dd91906200282d565b6000808373ffffffffffffffffffffffffffffffffffffffff1673ffffffffffffffffffffffffffffffffffffffff16815260200190815260200160002060010154101562000763576040517f08c379a00000000000000000000000000000000000000000000000000000000081526004016200075a906200293f565b60405180910390fd5b8273ffffffffffffffffffffffffffffffffffffffff1663aa8c217c6040518163ffffffff1660e01b8152600401602060405180830381865afa158015620007af573d6000803e3d6000fd5b505050506040513d601f19601f82011682018060405250810190620007d591906200282d565b6000808373ffffffffffffffffffffffffffffffffffffffff1673ffffffffffffffffffffffffffffffffffffffff168152602001908152602001600020600101600082825462000827919062002961565b925050819055508273ffffffffffffffffffffffffffffffffffffffff1663aa8c217c6040518163ffffffff1660e01b8152600401602060405180830381865afa1580156200087a573d6000803e3d6000fd5b505050506040513d601f19601f82011682018060405250810190620008a091906200282d565b60056000878152602001908152602001600020600101541015620008fb576040517f08c379a0000000000000000000000000000000000000000000000000000000008152600401620008f29062002a12565b60405180910390fd5b8273ffffffffffffffffffffffffffffffffffffffff1663aa8c217c6040518163ffffffff1660e01b8152600401602060405180830381865afa15801562000947573d6000803e3d6000fd5b505050506040513d601f19601f820116820180604052508101906200096d91906200282d565b60056000878152602001908152602001600020600101600082825462000994919062002961565b925050819055506000600560008781526020019081526020016000206001015403620009ea5760006005600087815260200190815260200160002060020160146101000a81548160ff0219169083151502179055505b8073ffffffffffffffffffffffffffffffffffffffff166108fc349081150290604051600060405180830381858888f1935050505015801562000a31573d6000803e3d6000fd5b507f58e40951e480e0eb47a55e7fe3d9efbfcf47e2513825240c24a81843b2fb6c7b34868560405162000a679392919062002a45565b60405180910390a15050505050565b600060205280600052604060002060009150905080600001805462000a9b9062002ab1565b80601f016020809104026020016040519081016040528092919081815260200182805462000ac99062002ab1565b801562000b1a5780601f1062000aee5761010080835404028352916020019162000b1a565b820191906000526020600020905b81548152906001019060200180831162000afc57829003601f168201915b5050505050908060010154905082565b60045481565b6060600082101562000b79576040517f08c379a000000000000000000000000000000000000000000000000000000000815260040162000b709062002b36565b60405180910390fd5b6001600083815260200190815260200160002060040180548060200260200160405190810160405280929190818152602001828054801562000c1157602002820191906000526020600020905b8160009054906101000a900473ffffffffffffffffffffffffffffffffffffffff1673ffffffffffffffffffffffffffffffffffffffff168152602001906001019080831162000bc6575b50505050509050919050565b6060600082101562000c66576040517f08c379a000000000000000000000000000000000000000000000000000000000815260040162000c5d9062002b36565b60405180910390fd5b6005600083815260200190815260200160002060040180548060200260200160405190810160405280929190818152602001828054801562000cfe57602002820191906000526020600020905b8160009054906101000a900473ffffffffffffffffffffffffffffffffffffffff1673ffffffffffffffffffffffffffffffffffffffff168152602001906001019080831162000cb3575b50505050509050919050565b6000821162000d50576040517f08c379a000000000000000000000000000000000000000000000000000000000815260040162000d479062002bce565b60405180910390fd5b6000811162000d96576040517f08c379a000000000000000000000000000000000000000000000000000000000815260040162000d8d9062002c66565b60405180910390fd5b816005600060085481526020019081526020016000206000018190555080600560006008548152602001908152602001600020600101819055503360056000600854815260200190815260200160002060020160006101000a81548173ffffffffffffffffffffffffffffffffffffffff021916908373ffffffffffffffffffffffffffffffffffffffff160217905550600160056000600854815260200190815260200160002060020160146101000a81548160ff0219169083151502179055504260056000600854815260200190815260200160002060030181905550600160066000600854815260200190815260200160002060006101000a81548160ff0219169083151502179055506000803373ffffffffffffffffffffffffffffffffffffffff1673ffffffffffffffffffffffffffffffffffffffff16815260200190815260200160002060030160085490806001815401808255809150506001900390600052602060002001600090919091909150557f70d4f73f8dc596f6b7f1d3996153d2ae6e391837c8ad344b8f32ffe96fbbed9c33600854848460405162000f46949392919062002c88565b60405180910390a16008600081548092919062000f639062002cd5565b91905055505050565b60085481565b600060016000848152602001908152602001600020600401828154811062000f9f5762000f9e62002706565b5b9060005260206000200160009054906101000a900473ffffffffffffffffffffffffffffffffffffffff1690503373ffffffffffffffffffffffffffffffffffffffff168173ffffffffffffffffffffffffffffffffffffffff16146200103d576040517f08c379a00000000000000000000000000000000000000000000000000000000081526004016200103490620027ab565b60405180910390fd5b60008173ffffffffffffffffffffffffffffffffffffffff1663d67bdd256040518163ffffffff1660e01b8152600401602060405180830381865afa1580156200108b573d6000803e3d6000fd5b505050506040513d601f19601f82011682018060405250810190620010b19190620027e4565b90508173ffffffffffffffffffffffffffffffffffffffff1663aa8c217c6040518163ffffffff1660e01b8152600401602060405180830381865afa158015620010ff573d6000803e3d6000fd5b505050506040513d601f19601f820116820180604052508101906200112591906200282d565b6000808373ffffffffffffffffffffffffffffffffffffffff1673ffffffffffffffffffffffffffffffffffffffff168152602001908152602001600020600101541015620011ab576040517f08c379a0000000000000000000000000000000000000000000000000000000008152600401620011a29062002d98565b60405180910390fd5b8173ffffffffffffffffffffffffffffffffffffffff1663aa8c217c6040518163ffffffff1660e01b8152600401602060405180830381865afa158015620011f7573d6000803e3d6000fd5b505050506040513d601f19601f820116820180604052508101906200121d91906200282d565b6000808373ffffffffffffffffffffffffffffffffffffffff1673ffffffffffffffffffffffffffffffffffffffff16815260200190815260200160002060010160008282546200126f919062002961565b9250508190555060006001600086815260200190815260200160002060020160009054906101000a900473ffffffffffffffffffffffffffffffffffffffff1690508273ffffffffffffffffffffffffffffffffffffffff1663aa8c217c6040518163ffffffff1660e01b8152600401602060405180830381865afa158015620012fd573d6000803e3d6000fd5b505050506040513d601f19601f820116820180604052508101906200132391906200282d565b6000808373ffffffffffffffffffffffffffffffffffffffff1673ffffffffffffffffffffffffffffffffffffffff16815260200190815260200160002060010160008282546200137591906200288e565b925050819055508273ffffffffffffffffffffffffffffffffffffffff1663aa8c217c6040518163ffffffff1660e01b8152600401602060405180830381865afa158015620013c8573d6000803e3d6000fd5b505050506040513d601f19601f82011682018060405250810190620013ee91906200282d565b6001600087815260200190815260200160002060010154101562001449576040517f08c379a0000000000000000000000000000000000000000000000000000000008152600401620014409062002e56565b60405180910390fd5b8273ffffffffffffffffffffffffffffffffffffffff1663aa8c217c6040518163ffffffff1660e01b8152600401602060405180830381865afa15801562001495573d6000803e3d6000fd5b505050506040513d601f19601f82011682018060405250810190620014bb91906200282d565b600160008781526020019081526020016000206001016000828254620014e2919062002961565b925050819055506000600160008781526020019081526020016000206001015403620015385760006001600087815260200190815260200160002060020160146101000a81548160ff0219169083151502179055505b8173ffffffffffffffffffffffffffffffffffffffff166108fc349081150290604051600060405180830381858888f193505050501580156200157f573d6000803e3d6000fd5b507faa5ef240d12945dacdcfd9ecc9a86ba7fa61f117ef9e9626465aa252e6dd5b66348685604051620015b59392919062002a45565b60405180910390a15050505050565b6000600454905090565b60008060008373ffffffffffffffffffffffffffffffffffffffff1673ffffffffffffffffffffffffffffffffffffffff168152602001908152602001600020600101549050919050565b620016236200203c565b600160008381526020019081526020016000206040518060c001604052908160008201548152602001600182015481526020016002820160009054906101000a900473ffffffffffffffffffffffffffffffffffffffff1673ffffffffffffffffffffffffffffffffffffffff1673ffffffffffffffffffffffffffffffffffffffff1681526020016002820160149054906101000a900460ff1615151515815260200160038201548152602001600482018054806020026020016040519081016040528092919081815260200182805480156200175757602002820191906000526020600020905b8160009054906101000a900473ffffffffffffffffffffffffffffffffffffffff1673ffffffffffffffffffffffffffffffffffffffff16815260200190600101908083116200170c575b5050505050815250509050919050565b60008311620017ad576040517f08c379a0000000000000000000000000000000000000000000000000000000008152600401620017a49062002ec8565b60405180910390fd5b60008211620017f3576040517f08c379a0000000000000000000000000000000000000000000000000000000008152600401620017ea9062002f3a565b60405180910390fd5b60008110156200183a576040517f08c379a0000000000000000000000000000000000000000000000000000000008152600401620018319062002b36565b60405180910390fd5b6001600082815260200190815260200160002060020160009054906101000a900473ffffffffffffffffffffffffffffffffffffffff1673ffffffffffffffffffffffffffffffffffffffff163373ffffffffffffffffffffffffffffffffffffffff1603620018e1576040517f08c379a0000000000000000000000000000000000000000000000000000000008152600401620018d89062002fd2565b60405180910390fd5b6000600160008381526020019081526020016000206004018054905090506000303386866000878760405162001917906200208a565b62001929979695949392919062003044565b604051809103906000f08015801562001946573d6000803e3d6000fd5b5090508060016000858152602001908152602001600020600401600181600181540180825580915050039060005260206000200160006101000a81548173ffffffffffffffffffffffffffffffffffffffff021916908373ffffffffffffffffffffffffffffffffffffffff1602179055507f83c1d63a3e3cd3d3a92a899ed2f341bd373a5326ebf67b9bd646543e55081ebc3382604051620019eb929190620030c1565b60405180910390a15050505050565b62001a0462002098565b600560008381526020019081526020016000206040518060c001604052908160008201548152602001600182015481526020016002820160009054906101000a900473ffffffffffffffffffffffffffffffffffffffff1673ffffffffffffffffffffffffffffffffffffffff1673ffffffffffffffffffffffffffffffffffffffff1681526020016002820160149054906101000a900460ff16151515158152602001600382015481526020016004820180548060200260200160405190810160405280929190818152602001828054801562001b3857602002820191906000526020600020905b8160009054906101000a900473ffffffffffffffffffffffffffffffffffffffff1673ffffffffffffffffffffffffffffffffffffffff168152602001906001019080831162001aed575b5050505050815250509050919050565b6000831162001b8e576040517f08c379a000000000000000000000000000000000000000000000000000000000815260040162001b859062002ec8565b60405180910390fd5b6000821162001bd4576040517f08c379a000000000000000000000000000000000000000000000000000000000815260040162001bcb9062002f3a565b60405180910390fd5b600081101562001c1b576040517f08c379a000000000000000000000000000000000000000000000000000000000815260040162001c129062002b36565b60405180910390fd5b6005600082815260200190815260200160002060020160009054906101000a900473ffffffffffffffffffffffffffffffffffffffff1673ffffffffffffffffffffffffffffffffffffffff163373ffffffffffffffffffffffffffffffffffffffff160362001cc2576040517f08c379a000000000000000000000000000000000000000000000000000000000815260040162001cb99062003164565b60405180910390fd5b6000600560008381526020019081526020016000206004018054905090506000303386866001878760405162001cf8906200208a565b62001d0a9796959493929190620031c9565b604051809103906000f08015801562001d27573d6000803e3d6000fd5b5090508060056000858152602001908152602001600020600401600181600181540180825580915050039060005260206000200160006101000a81548173ffffffffffffffffffffffffffffffffffffffff021916908373ffffffffffffffffffffffffffffffffffffffff1602179055507fc7f10d7197fb2a9693c302afe34b2b61de0f7048c4a33a39923e281c0c93ee22338260405162001dcc929190620030c1565b60405180910390a15050505050565b6000821162001e21576040517f08c379a000000000000000000000000000000000000000000000000000000000815260040162001e189062002bce565b60405180910390fd5b6000811162001e67576040517f08c379a000000000000000000000000000000000000000000000000000000000815260040162001e5e9062002c66565b60405180910390fd5b816001600060045481526020019081526020016000206000018190555080600160006004548152602001908152602001600020600101819055503360016000600454815260200190815260200160002060020160006101000a81548173ffffffffffffffffffffffffffffffffffffffff021916908373ffffffffffffffffffffffffffffffffffffffff1602179055506001806000600454815260200190815260200160002060020160146101000a81548160ff0219169083151502179055504260016000600454815260200190815260200160002060030181905550600160026000600454815260200190815260200160002060006101000a81548160ff0219169083151502179055506000803373ffffffffffffffffffffffffffffffffffffffff1673ffffffffffffffffffffffffffffffffffffffff16815260200190815260200160002060020160045490806001815401808255809150506001900390600052602060002001600090919091909150557fb327665b1bbfd6560701e012c966f02c9abe3e3b1afa5c084bfa31ed1e70107133600454848460405162002016949392919062002c88565b60405180910390a160046000815480929190620020339062002cd5565b91905055505050565b6040518060c001604052806000815260200160008152602001600073ffffffffffffffffffffffffffffffffffffffff16815260200160001515815260200160008152602001606081525090565b611359806200324783390190565b6040518060c001604052806000815260200160008152602001600073ffffffffffffffffffffffffffffffffffffffff16815260200160001515815260200160008152602001606081525090565b600080fd5b6000819050919050565b6200210081620020eb565b81146200210c57600080fd5b50565b6000813590506200212081620020f5565b92915050565b6000806040838503121562002140576200213f620020e6565b5b600062002150858286016200210f565b925050602062002163858286016200210f565b9150509250929050565b600073ffffffffffffffffffffffffffffffffffffffff82169050919050565b60006200219a826200216d565b9050919050565b620021ac816200218d565b8114620021b857600080fd5b50565b600081359050620021cc81620021a1565b92915050565b600060208284031215620021eb57620021ea620020e6565b5b6000620021fb84828501620021bb565b91505092915050565b600081519050919050565b600082825260208201905092915050565b60005b838110156200224057808201518184015260208101905062002223565b60008484015250505050565b6000601f19601f8301169050919050565b60006200226a8262002204565b6200227681856200220f565b93506200228881856020860162002220565b62002293816200224c565b840191505092915050565b620022a981620020eb565b82525050565b60006040820190508181036000830152620022cb81856200225d565b9050620022dc60208301846200229e565b9392505050565b6000602082019050620022fa60008301846200229e565b92915050565b600060208284031215620023195762002318620020e6565b5b600062002329848285016200210f565b91505092915050565b600081519050919050565b600082825260208201905092915050565b6000819050602082019050919050565b6000819050919050565b600062002389620023836200237d846200216d565b6200235e565b6200216d565b9050919050565b60006200239d8262002368565b9050919050565b6000620023b18262002390565b9050919050565b620023c381620023a4565b82525050565b6000620023d78383620023b8565b60208301905092915050565b6000602082019050919050565b6000620023fd8262002332565b6200240981856200233d565b935062002416836200234e565b8060005b838110156200244d578151620024318882620023c9565b97506200243e83620023e3565b9250506001810190506200241a565b5085935050505092915050565b60006020820190508181036000830152620024768184620023f0565b905092915050565b6200248981620020eb565b82525050565b6200249a816200218d565b82525050565b60008115159050919050565b620024b781620024a0565b82525050565b600082825260208201905092915050565b6000620024db8262002332565b620024e78185620024bd565b9350620024f4836200234e565b8060005b838110156200252b5781516200250f8882620023c9565b97506200251c83620023e3565b925050600181019050620024f8565b5085935050505092915050565b600060c0830160008301516200255260008601826200247e565b5060208301516200256760208601826200247e565b5060408301516200257c60408601826200248f565b506060830151620025916060860182620024ac565b506080830151620025a660808601826200247e565b5060a083015184820360a0860152620025c08282620024ce565b9150508091505092915050565b60006020820190508181036000830152620025e9818462002538565b905092915050565b6000806000606084860312156200260d576200260c620020e6565b5b60006200261d868287016200210f565b935050602062002630868287016200210f565b925050604062002643868287016200210f565b9150509250925092565b600060c0830160008301516200266760008601826200247e565b5060208301516200267c60208601826200247e565b5060408301516200269160408601826200248f565b506060830151620026a66060860182620024ac565b506080830151620026bb60808601826200247e565b5060a083015184820360a0860152620026d58282620024ce565b9150508091505092915050565b60006020820190508181036000830152620026fe81846200264d565b905092915050565b7f4e487b7100000000000000000000000000000000000000000000000000000000600052603260045260246000fd5b7f4f6e6c7920726573706f6e7365206d657373616765732061726520616c6c6f7760008201527f656420746f2074726967676572207061796d656e742070726f63657373000000602082015250565b600062002793603d836200220f565b9150620027a08262002735565b604082019050919050565b60006020820190508181036000830152620027c68162002784565b9050919050565b600081519050620027de81620021a1565b92915050565b600060208284031215620027fd57620027fc620020e6565b5b60006200280d84828501620027cd565b91505092915050565b6000815190506200282781620020f5565b92915050565b600060208284031215620028465762002845620020e6565b5b6000620028568482850162002816565b91505092915050565b7f4e487b7100000000000000000000000000000000000000000000000000000000600052601160045260246000fd5b60006200289b82620020eb565b9150620028a883620020eb565b9250828201905080821115620028c357620028c26200285f565b5b92915050565b7f496e73756666696369656e7420656c65637472696369747920756e697473206960008201527f6e2073656c6c65722773206163636f756e740000000000000000000000000000602082015250565b6000620029276032836200220f565b91506200293482620028c9565b604082019050919050565b600060208201905081810360008301526200295a8162002918565b9050919050565b60006200296e82620020eb565b91506200297b83620020eb565b92508282039050818111156200299657620029956200285f565b5b92915050565b7f496e73756666696369656e742073656c6c696e6720756e69747320696e20736560008201527f6c6c696e6720706f737400000000000000000000000000000000000000000000602082015250565b6000620029fa602a836200220f565b915062002a07826200299c565b604082019050919050565b6000602082019050818103600083015262002a2d81620029eb565b9050919050565b62002a3f816200218d565b82525050565b600060608201905062002a5c60008301866200229e565b62002a6b60208301856200229e565b62002a7a604083018462002a34565b949350505050565b7f4e487b7100000000000000000000000000000000000000000000000000000000600052602260045260246000fd5b6000600282049050600182168062002aca57607f821691505b60208210810362002ae05762002adf62002a82565b5b50919050565b7f706f7374206b6579207374617274732066726f6d203000000000000000000000600082015250565b600062002b1e6016836200220f565b915062002b2b8262002ae6565b602082019050919050565b6000602082019050818103600083015262002b518162002b0f565b9050919050565b7f7075726368617365207072696365206d7573742062652067726561746572207460008201527f68616e2030000000000000000000000000000000000000000000000000000000602082015250565b600062002bb66025836200220f565b915062002bc38262002b58565b604082019050919050565b6000602082019050818103600083015262002be98162002ba7565b9050919050565b7f616d6f756e7420746f20627579206d757374206265206772656174657220746860008201527f616e203000000000000000000000000000000000000000000000000000000000602082015250565b600062002c4e6024836200220f565b915062002c5b8262002bf0565b604082019050919050565b6000602082019050818103600083015262002c818162002c3f565b9050919050565b600060808201905062002c9f600083018762002a34565b62002cae60208301866200229e565b62002cbd60408301856200229e565b62002ccc60608301846200229e565b95945050505050565b600062002ce282620020eb565b91507fffffffffffffffffffffffffffffffffffffffffffffffffffffffffffffffff820362002d175762002d166200285f565b5b600182019050919050565b7f496e73756666696369656e7420656c65637472696369747920756e697473206960008201527f6e206163636f756e740000000000000000000000000000000000000000000000602082015250565b600062002d806029836200220f565b915062002d8d8262002d22565b604082019050919050565b6000602082019050818103600083015262002db38162002d71565b9050919050565b7f5468652073616c6573207175616e746974792073686f756c64206265206c657360008201527f73207468616e206f7220657175616c20746f207468652070757263686173652060208201527f64656d616e640000000000000000000000000000000000000000000000000000604082015250565b600062002e3e6046836200220f565b915062002e4b8262002dba565b606082019050919050565b6000602082019050818103600083015262002e718162002e2f565b9050919050565b7f616d6f756e74206d7573742062652067726561746572207468616e2030000000600082015250565b600062002eb0601d836200220f565b915062002ebd8262002e78565b602082019050919050565b6000602082019050818103600083015262002ee38162002ea1565b9050919050565b7f71756f746174696f6e206d7573742062652067726561746572207468616e2030600082015250565b600062002f226020836200220f565b915062002f2f8262002eea565b602082019050919050565b6000602082019050818103600083015262002f558162002f13565b9050919050565b7f596f752063616e6e6f74207265706c7920746f20796f7572206f776e2070757260008201527f636861736520706f737400000000000000000000000000000000000000000000602082015250565b600062002fba602a836200220f565b915062002fc78262002f5c565b604082019050919050565b6000602082019050818103600083015262002fed8162002fab565b9050919050565b6000819050919050565b600060ff82169050919050565b60006200302c62003026620030208462002ff4565b6200235e565b62002ffe565b9050919050565b6200303e816200300b565b82525050565b600060e0820190506200305b600083018a62002a34565b6200306a602083018962002a34565b6200307960408301886200229e565b6200308860608301876200229e565b62003097608083018662003033565b620030a660a08301856200229e565b620030b560c08301846200229e565b98975050505050505050565b6000604082019050620030d8600083018562002a34565b620030e7602083018462002a34565b9392505050565b7f596f752063616e6e6f74207265706c7920746f20796f7572206f776e2073656c60008201527f6c696e6720706f73740000000000000000000000000000000000000000000000602082015250565b60006200314c6029836200220f565b91506200315982620030ee565b604082019050919050565b600060208201905081810360008301526200317f816200313d565b9050919050565b6000819050919050565b6000620031b1620031ab620031a58462003186565b6200235e565b62002ffe565b9050919050565b620031c38162003190565b82525050565b600060e082019050620031e0600083018a62002a34565b620031ef602083018962002a34565b620031fe60408301886200229e565b6200320d60608301876200229e565b6200321c6080830186620031b8565b6200322b60a08301856200229e565b6200323a60c08301846200229e565b9897505050505050505056fe60806040523480156200001157600080fd5b50604051620013593803806200135983398181016040528101906200003791906200021c565b86600860006101000a81548173ffffffffffffffffffffffffffffffffffffffff021916908373ffffffffffffffffffffffffffffffffffffffff160217905550856000806101000a81548173ffffffffffffffffffffffffffffffffffffffff021916908373ffffffffffffffffffffffffffffffffffffffff160217905550846001819055508360028190555082600360006101000a81548160ff021916908360ff16021790555081600481905550806005819055506000600660006101000a81548160ff0219169083151502179055506000600660016101000a81548160ff0219169083151502179055504260078190555050505050505050620002cf565b600080fd5b600073ffffffffffffffffffffffffffffffffffffffff82169050919050565b60006200016b826200013e565b9050919050565b6200017d816200015e565b81146200018957600080fd5b50565b6000815190506200019d8162000172565b92915050565b6000819050919050565b620001b881620001a3565b8114620001c457600080fd5b50565b600081519050620001d881620001ad565b92915050565b600060ff82169050919050565b620001f681620001de565b81146200020257600080fd5b50565b6000815190506200021681620001eb565b92915050565b600080600080600080600060e0888a0312156200023e576200023d62000139565b5b60006200024e8a828b016200018c565b9750506020620002618a828b016200018c565b9650506040620002748a828b01620001c7565b9550506060620002878a828b01620001c7565b94505060806200029a8a828b0162000205565b93505060a0620002ad8a828b01620001c7565b92505060c0620002c08a828b01620001c7565b91505092959891949750929550565b61107a80620002df6000396000f3fe6080604052600436106100ab5760003560e01c8063a03a202e11610064578063a03a202e14610388578063aa8c217c146103b3578063abf4d6c4146103de578063c32b9b53146103e8578063cf09e0d0146103f2578063d67bdd251461041d57610283565b806304dc4cda14610288578063209ebc08146102b35780633013aa25146102de5780633d855485146103075780633e784e63146103325780635051a5ec1461035d57610283565b3661028357600034116100f3576040517f08c379a00000000000000000000000000000000000000000000000000000000081526004016100ea906109a9565b60405180910390fd5b60011515600660009054906101000a900460ff16151514610149576040517f08c379a000000000000000000000000000000000000000000000000000000000815260040161014090610a3b565b60405180910390fd5b3460025460015461015a9190610a94565b1461019a576040517f08c379a000000000000000000000000000000000000000000000000000000000815260040161019190610b22565b60405180910390fd5b60001515600660019054906101000a900460ff161515146101f0576040517f08c379a00000000000000000000000000000000000000000000000000000000081526004016101e790610b8e565b60405180910390fd5b6000600360009054906101000a900460ff1660ff160361021757610212610448565b610281565b6001600360009054906101000a900460ff1660ff160361023e57610239610657565b610280565b600061027f576040517f08c379a000000000000000000000000000000000000000000000000000000000815260040161027690610bfa565b60405180910390fd5b5b5b005b600080fd5b34801561029457600080fd5b5061029d610866565b6040516102aa9190610c36565b60405180910390f35b3480156102bf57600080fd5b506102c8610879565b6040516102d59190610c6c565b60405180910390f35b3480156102ea57600080fd5b5061030560048036038101906103009190610cb8565b61088c565b005b34801561031357600080fd5b5061031c6108f7565b6040516103299190610cf4565b60405180910390f35b34801561033e57600080fd5b506103476108fd565b6040516103549190610cf4565b60405180910390f35b34801561036957600080fd5b50610372610903565b60405161037f9190610c6c565b60405180910390f35b34801561039457600080fd5b5061039d610916565b6040516103aa9190610cf4565b60405180910390f35b3480156103bf57600080fd5b506103c861091c565b6040516103d59190610cf4565b60405180910390f35b6103e6610448565b005b6103f0610657565b005b3480156103fe57600080fd5b50610407610922565b6040516104149190610cf4565b60405180910390f35b34801561042957600080fd5b50610432610928565b60405161043f9190610d50565b60405180910390f35b60008054906101000a900473ffffffffffffffffffffffffffffffffffffffff1673ffffffffffffffffffffffffffffffffffffffff163373ffffffffffffffffffffffffffffffffffffffff16036104d6576040517f08c379a00000000000000000000000000000000000000000000000000000000081526004016104cd90610ddd565b60405180910390fd5b6000600860009054906101000a900473ffffffffffffffffffffffffffffffffffffffff1673ffffffffffffffffffffffffffffffffffffffff1634600454600554604051602401610529929190610dfd565b6040516020818303038152906040527f7bf4d415000000000000000000000000000000000000000000000000000000007bffffffffffffffffffffffffffffffffffffffffffffffffffffffff19166020820180517bffffffffffffffffffffffffffffffffffffffffffffffffffffffff83818316178352505050506040516105b39190610e97565b60006040518083038185875af1925050503d80600081146105f0576040519150601f19603f3d011682016040523d82523d6000602084013e6105f5565b606091505b5050905080610639576040517f08c379a000000000000000000000000000000000000000000000000000000000815260040161063090610efa565b60405180910390fd5b6001600660016101000a81548160ff02191690831515021790555050565b60008054906101000a900473ffffffffffffffffffffffffffffffffffffffff1673ffffffffffffffffffffffffffffffffffffffff163373ffffffffffffffffffffffffffffffffffffffff16146106e5576040517f08c379a00000000000000000000000000000000000000000000000000000000081526004016106dc90610fb2565b60405180910390fd5b6000600860009054906101000a900473ffffffffffffffffffffffffffffffffffffffff1673ffffffffffffffffffffffffffffffffffffffff1634600454600554604051602401610738929190610dfd565b6040516020818303038152906040527f0876290a000000000000000000000000000000000000000000000000000000007bffffffffffffffffffffffffffffffffffffffffffffffffffffffff19166020820180517bffffffffffffffffffffffffffffffffffffffffffffffffffffffff83818316178352505050506040516107c29190610e97565b60006040518083038185875af1925050503d80600081146107ff576040519150601f19603f3d011682016040523d82523d6000602084013e610804565b606091505b5050905080610848576040517f08c379a000000000000000000000000000000000000000000000000000000000815260040161083f90610efa565b60405180910390fd5b6001600660016101000a81548160ff02191690831515021790555050565b600360009054906101000a900460ff1681565b600660019054906101000a900460ff1681565b80600660006101000a81548160ff0219169083151502179055507f9161e5ec70df4a8ef9f6085e3435135f3da64c7ec32c271912e1ca8d4afbd7c3600360009054906101000a900460ff166004546005546040516108ec9392919061100d565b60405180910390a150565b60045481565b60055481565b600660009054906101000a900460ff1681565b60025481565b60015481565b60075481565b60008054906101000a900473ffffffffffffffffffffffffffffffffffffffff1681565b600082825260208201905092915050565b7f696e76616c6964207061796d656e740000000000000000000000000000000000600082015250565b6000610993600f8361094c565b915061099e8261095d565b602082019050919050565b600060208201905081810360008301526109c281610986565b9050919050565b7f796f757220726573706f6e736520686173206e6f74206265656e20616363657060008201527f7465642062792073656c6c657220796574000000000000000000000000000000602082015250565b6000610a2560318361094c565b9150610a30826109c9565b604082019050919050565b60006020820190508181036000830152610a5481610a18565b9050919050565b6000819050919050565b7f4e487b7100000000000000000000000000000000000000000000000000000000600052601160045260246000fd5b6000610a9f82610a5b565b9150610aaa83610a5b565b9250828202610ab881610a5b565b91508282048414831517610acf57610ace610a65565b5b5092915050565b7f4e6f742066756c6c792070616964207965740000000000000000000000000000600082015250565b6000610b0c60128361094c565b9150610b1782610ad6565b602082019050919050565b60006020820190508181036000830152610b3b81610aff565b9050919050565b7f4f7264657220697320616c726561647920706169642100000000000000000000600082015250565b6000610b7860168361094c565b9150610b8382610b42565b602082019050919050565b60006020820190508181036000830152610ba781610b6b565b9050919050565b7f696e76616c696420726573706f6e7365206d6573736167652074797065000000600082015250565b6000610be4601d8361094c565b9150610bef82610bae565b602082019050919050565b60006020820190508181036000830152610c1381610bd7565b9050919050565b600060ff82169050919050565b610c3081610c1a565b82525050565b6000602082019050610c4b6000830184610c27565b92915050565b60008115159050919050565b610c6681610c51565b82525050565b6000602082019050610c816000830184610c5d565b92915050565b600080fd5b610c9581610c51565b8114610ca057600080fd5b50565b600081359050610cb281610c8c565b92915050565b600060208284031215610cce57610ccd610c87565b5b6000610cdc84828501610ca3565b91505092915050565b610cee81610a5b565b82525050565b6000602082019050610d096000830184610ce5565b92915050565b600073ffffffffffffffffffffffffffffffffffffffff82169050919050565b6000610d3a82610d0f565b9050919050565b610d4a81610d2f565b82525050565b6000602082019050610d656000830184610d41565b92915050565b7f596f752063616e6e6f74206d616b652061207061796d656e7420746f20796f7560008201527f72206f776e2073656c6c696e6720726573706f6e7365206d6573736167650000602082015250565b6000610dc7603e8361094c565b9150610dd282610d6b565b604082019050919050565b60006020820190508181036000830152610df681610dba565b9050919050565b6000604082019050610e126000830185610ce5565b610e1f6020830184610ce5565b9392505050565b600081519050919050565b600081905092915050565b60005b83811015610e5a578082015181840152602081019050610e3f565b60008484015250505050565b6000610e7182610e26565b610e7b8185610e31565b9350610e8b818560208601610e3c565b80840191505092915050565b6000610ea38284610e66565b915081905092915050565b7f7061796d656e74206661696c6564000000000000000000000000000000000000600082015250565b6000610ee4600e8361094c565b9150610eef82610eae565b602082019050919050565b60006020820190508181036000830152610f1381610ed7565b9050919050565b7f4f6e6c7920746865206d6573736167652073656e6465722077686f2073656e7460008201527f207468697320726573706f6e736520746f206163717569726520656c6563747260208201527f696369747920756e6974732063616e206d616b652061207061796d656e740000604082015250565b6000610f9c605e8361094c565b9150610fa782610f1a565b606082019050919050565b60006020820190508181036000830152610fcb81610f8f565b9050919050565b6000819050919050565b6000610ff7610ff2610fed84610c1a565b610fd2565b610a5b565b9050919050565b61100781610fdc565b82525050565b60006060820190506110226000830186610ffe565b61102f6020830185610ce5565b61103c6040830184610ce5565b94935050505056fea26469706673582212200fd7ad3d201d44c2ac4ef12e46eceab5ab9f46a536d09a4472c5b4f8abcc19d164736f6c63430008110033a2646970667358221220aa04a3f3c9b67b173e233a60aad62082af886e9d7581abeb3f0198a976f039e264736f6c63430008110033",
  "immutableReferences": {},
  "source": "//SPDX-License-Identifier: MIT\n\npragma solidity ^0.8.0;\n\nimport \"./BuyerModule.sol\";\nimport \"./SellerModule.sol\";\n\n// system contract\ncontract MainSystem is BuyerModule, SellerModule {\n\n    // ------------------------- constructor ------------------------- \n    constructor() {\n        // initialize testing data, allocate 100 units of electricity to test account\n        address testAccount = 0xFf6f3A57c688d382Df20B09e5fCAB66Cc61DBc22;\n        userMap[testAccount].availableElecUnits = 100;\n    }\n\n    // ------------------------- utils -------------------------\n\n    // return total number of purchase posts in the system\n    function returnPurchasePostMapSize() public view returns(uint) {\n        return purchasePostCounter;\n    }\n\n    // return one purchase post by key\n    function getPurchasePostByKey(uint _postKey) public view returns(PurchasePost memory) {\n        return purchasePostMap[_postKey];\n    }\n\n     // return one selling post by key\n    function getSellingPostByKey(uint _postKey) public view returns(SellingPost memory) {\n        return sellingPostMap[_postKey];\n    }\n\n   // return all response messages of one post by key\n    function returnPurchasePostResponseMessagesByKey(uint _postKey) public view returns(PostResponseMessage[] memory){\n        require(_postKey >= 0, \"post key starts from 0\");\n        return purchasePostMap[_postKey].responseMessages;\n    }\n\n    // return all response messages of one post by key\n    function returnSellingPostResponseMessagesByKey(uint _postKey) public view returns(PostResponseMessage[] memory){\n        require(_postKey >= 0, \"post key starts from 0\");\n        return sellingPostMap[_postKey].responseMessages;\n    }\n\n    // return units of electricity available by address\n    function getAvailableElecUnitsByAccountAddress(address _account) public view returns(uint){\n        return userMap[_account].availableElecUnits;\n    }\n    \n\n}",
  "sourcePath": "/Users/richard/Doc//sydney_study/22s2/5703/vue-web3-5703/truffle/contracts/MainSystem.sol",
  "compiler": {
    "name": "solc",
    "version": "0.8.17+commit.8df45f5f.Emscripten.clang"
  },
  "schemaVersion": "3.4.9",
  "updatedAt": "2022-09-21T04:26:10.490Z",
  "networkType": "ethereum",
  "devdoc": {
    "kind": "dev",
    "methods": {},
    "version": 1
  },
  "userdoc": {
    "kind": "user",
    "methods": {},
    "version": 1
  }
}