{
  "contractName": "MainSystem",
  "abi": [
    {
      "inputs": [],
      "stateMutability": "nonpayable",
      "type": "constructor"
    },
    {
      "inputs": [
        {
          "internalType": "uint256",
          "name": "_priceToBuy",
          "type": "uint256"
        },
        {
          "internalType": "uint256",
          "name": "_amountToBuy",
          "type": "uint256"
        }
      ],
      "name": "createPurchasePost",
      "outputs": [],
      "stateMutability": "nonpayable",
      "type": "function"
    },
    {
      "inputs": [
        {
          "internalType": "uint256",
          "name": "_amountToSell",
          "type": "uint256"
        },
        {
          "internalType": "uint256",
          "name": "_quotationInWei",
          "type": "uint256"
        },
        {
          "internalType": "uint256",
          "name": "_purchasePostKey",
          "type": "uint256"
        }
      ],
      "name": "createResponseMessageToPurchasePost",
      "outputs": [],
      "stateMutability": "nonpayable",
      "type": "function"
    },
    {
      "inputs": [
        {
          "internalType": "address",
          "name": "_account",
          "type": "address"
        }
      ],
      "name": "returnAllPurchasePostsByAddress",
      "outputs": [
        {
          "components": [
            {
              "internalType": "uint256",
              "name": "priceToBuy",
              "type": "uint256"
            },
            {
              "internalType": "uint256",
              "name": "amountToBuy",
              "type": "uint256"
            },
            {
              "internalType": "address",
              "name": "buyer",
              "type": "address"
            },
            {
              "internalType": "bool",
              "name": "enabled",
              "type": "bool"
            },
            {
              "internalType": "uint256",
              "name": "createdAt",
              "type": "uint256"
            },
            {
              "internalType": "contract PostResponseMessage[]",
              "name": "responseMessages",
              "type": "address[]"
            }
          ],
          "internalType": "struct BeanStructs.PurchasePost[]",
          "name": "",
          "type": "tuple[]"
        }
      ],
      "stateMutability": "view",
      "type": "function",
      "constant": true
    },
    {
      "inputs": [],
      "name": "returnPurchasePostMapSize",
      "outputs": [
        {
          "internalType": "uint256",
          "name": "",
          "type": "uint256"
        }
      ],
      "stateMutability": "view",
      "type": "function",
      "constant": true
    },
    {
      "inputs": [
        {
          "internalType": "uint256",
          "name": "_postKey",
          "type": "uint256"
        }
      ],
      "name": "getPurchasePostByKey",
      "outputs": [
        {
          "components": [
            {
              "internalType": "uint256",
              "name": "priceToBuy",
              "type": "uint256"
            },
            {
              "internalType": "uint256",
              "name": "amountToBuy",
              "type": "uint256"
            },
            {
              "internalType": "address",
              "name": "buyer",
              "type": "address"
            },
            {
              "internalType": "bool",
              "name": "enabled",
              "type": "bool"
            },
            {
              "internalType": "uint256",
              "name": "createdAt",
              "type": "uint256"
            },
            {
              "internalType": "contract PostResponseMessage[]",
              "name": "responseMessages",
              "type": "address[]"
            }
          ],
          "internalType": "struct BeanStructs.PurchasePost",
          "name": "",
          "type": "tuple"
        }
      ],
      "stateMutability": "view",
      "type": "function",
      "constant": true
    },
    {
      "inputs": [
        {
          "internalType": "uint256",
          "name": "_postKey",
          "type": "uint256"
        }
      ],
      "name": "returnPurchasePostResponseMessagesByKey",
      "outputs": [
        {
          "internalType": "contract PostResponseMessage[]",
          "name": "",
          "type": "address[]"
        }
      ],
      "stateMutability": "view",
      "type": "function",
      "constant": true
    },
    {
      "inputs": [
        {
          "internalType": "uint256",
          "name": "_priceToSell",
          "type": "uint256"
        },
        {
          "internalType": "uint256",
          "name": "_amountToSell",
          "type": "uint256"
        }
      ],
      "name": "createSellingPost",
      "outputs": [],
      "stateMutability": "nonpayable",
      "type": "function"
    },
    {
      "inputs": [
        {
          "internalType": "uint256",
          "name": "_amountToBuy",
          "type": "uint256"
        },
        {
          "internalType": "uint256",
          "name": "_quotationInWei",
          "type": "uint256"
        },
        {
          "internalType": "uint256",
          "name": "_sellingPostKey",
          "type": "uint256"
        }
      ],
      "name": "createResponseMessageToSellingPost",
      "outputs": [],
      "stateMutability": "nonpayable",
      "type": "function"
    },
    {
      "inputs": [
        {
          "internalType": "address",
          "name": "_account",
          "type": "address"
        }
      ],
      "name": "returnAllSellingPostsByAddress",
      "outputs": [
        {
          "components": [
            {
              "internalType": "uint256",
              "name": "priceToSell",
              "type": "uint256"
            },
            {
              "internalType": "uint256",
              "name": "amountToSell",
              "type": "uint256"
            },
            {
              "internalType": "address",
              "name": "seller",
              "type": "address"
            },
            {
              "internalType": "bool",
              "name": "enabled",
              "type": "bool"
            },
            {
              "internalType": "uint256",
              "name": "createdAt",
              "type": "uint256"
            },
            {
              "internalType": "contract PostResponseMessage[]",
              "name": "responseMessages",
              "type": "address[]"
            }
          ],
          "internalType": "struct BeanStructs.SellingPost[]",
          "name": "",
          "type": "tuple[]"
        }
      ],
      "stateMutability": "view",
      "type": "function",
      "constant": true
    },
    {
      "inputs": [
        {
          "internalType": "uint256",
          "name": "_postKey",
          "type": "uint256"
        }
      ],
      "name": "getSellingPostByKey",
      "outputs": [
        {
          "components": [
            {
              "internalType": "uint256",
              "name": "priceToSell",
              "type": "uint256"
            },
            {
              "internalType": "uint256",
              "name": "amountToSell",
              "type": "uint256"
            },
            {
              "internalType": "address",
              "name": "seller",
              "type": "address"
            },
            {
              "internalType": "bool",
              "name": "enabled",
              "type": "bool"
            },
            {
              "internalType": "uint256",
              "name": "createdAt",
              "type": "uint256"
            },
            {
              "internalType": "contract PostResponseMessage[]",
              "name": "responseMessages",
              "type": "address[]"
            }
          ],
          "internalType": "struct BeanStructs.SellingPost",
          "name": "",
          "type": "tuple"
        }
      ],
      "stateMutability": "view",
      "type": "function",
      "constant": true
    },
    {
      "inputs": [
        {
          "internalType": "uint256",
          "name": "_postKey",
          "type": "uint256"
        }
      ],
      "name": "returnSellingPostResponseMessagesByKey",
      "outputs": [
        {
          "internalType": "contract PostResponseMessage[]",
          "name": "",
          "type": "address[]"
        }
      ],
      "stateMutability": "view",
      "type": "function",
      "constant": true
    },
    {
      "inputs": [],
      "name": "returnSellPostMapSize",
      "outputs": [
        {
          "internalType": "uint256",
          "name": "",
          "type": "uint256"
        }
      ],
      "stateMutability": "view",
      "type": "function",
      "constant": true
    },
    {
      "inputs": [
        {
          "internalType": "address",
          "name": "_user",
          "type": "address"
        }
      ],
      "name": "getUsernameByAddress",
      "outputs": [
        {
          "internalType": "string",
          "name": "",
          "type": "string"
        }
      ],
      "stateMutability": "view",
      "type": "function",
      "constant": true
    },
    {
      "inputs": [
        {
          "internalType": "address",
          "name": "_user",
          "type": "address"
        }
      ],
      "name": "getAvailableElecUnitsByAccountAddress",
      "outputs": [
        {
          "internalType": "uint256",
          "name": "",
          "type": "uint256"
        }
      ],
      "stateMutability": "view",
      "type": "function",
      "constant": true
    },
    {
      "inputs": [
        {
          "internalType": "address",
          "name": "_user",
          "type": "address"
        }
      ],
      "name": "getPurchasePostKeys",
      "outputs": [
        {
          "internalType": "uint256[]",
          "name": "",
          "type": "uint256[]"
        }
      ],
      "stateMutability": "view",
      "type": "function",
      "constant": true
    },
    {
      "inputs": [
        {
          "internalType": "address",
          "name": "_user",
          "type": "address"
        }
      ],
      "name": "getSellingPostKeys",
      "outputs": [
        {
          "internalType": "uint256[]",
          "name": "",
          "type": "uint256[]"
        }
      ],
      "stateMutability": "view",
      "type": "function",
      "constant": true
    },
    {
      "inputs": [
        {
          "internalType": "address",
          "name": "_user",
          "type": "address"
        },
        {
          "internalType": "string",
          "name": "_username",
          "type": "string"
        }
      ],
      "name": "setUsername",
      "outputs": [],
      "stateMutability": "nonpayable",
      "type": "function"
    },
    {
      "inputs": [
        {
          "internalType": "address",
          "name": "_accountAddress",
          "type": "address"
        }
      ],
      "name": "returnTotalBuyByAddress",
      "outputs": [
        {
          "internalType": "uint256",
          "name": "",
          "type": "uint256"
        }
      ],
      "stateMutability": "view",
      "type": "function",
      "constant": true
    },
    {
      "inputs": [
        {
          "internalType": "address",
          "name": "_accountAddress",
          "type": "address"
        }
      ],
      "name": "returnTotalSellByAddress",
      "outputs": [
        {
          "internalType": "uint256",
          "name": "",
          "type": "uint256"
        }
      ],
      "stateMutability": "view",
      "type": "function",
      "constant": true
    },
    {
      "inputs": [
        {
          "internalType": "address",
          "name": "_account",
          "type": "address"
        }
      ],
      "name": "returnRecentTransactions",
      "outputs": [
        {
          "components": [
            {
              "internalType": "uint256",
              "name": "createdAt",
              "type": "uint256"
            },
            {
              "internalType": "uint256",
              "name": "transactionType",
              "type": "uint256"
            },
            {
              "internalType": "uint256",
              "name": "transactionValue",
              "type": "uint256"
            }
          ],
          "internalType": "struct BeanStructs.TransactionBean[]",
          "name": "",
          "type": "tuple[]"
        }
      ],
      "stateMutability": "view",
      "type": "function",
      "constant": true
    },
    {
      "inputs": [
        {
          "internalType": "address",
          "name": "_user",
          "type": "address"
        },
        {
          "internalType": "uint256",
          "name": "_prevWeekNum",
          "type": "uint256"
        }
      ],
      "name": "returnWeeklyBuyStatistics",
      "outputs": [
        {
          "internalType": "uint256[]",
          "name": "",
          "type": "uint256[]"
        }
      ],
      "stateMutability": "view",
      "type": "function",
      "constant": true
    },
    {
      "inputs": [
        {
          "internalType": "address",
          "name": "_user",
          "type": "address"
        },
        {
          "internalType": "uint256",
          "name": "_prevWeekNum",
          "type": "uint256"
        }
      ],
      "name": "returnWeeklySellStatistics",
      "outputs": [
        {
          "internalType": "uint256[]",
          "name": "",
          "type": "uint256[]"
        }
      ],
      "stateMutability": "view",
      "type": "function",
      "constant": true
    }
  ],
  "bytecode": "0x60806040523480156200001157600080fd5b503060405162000021906200034b565b6200002d9190620003c8565b604051809103906000f0801580156200004a573d6000803e3d6000fd5b506000806101000a81548173ffffffffffffffffffffffffffffffffffffffff021916908373ffffffffffffffffffffffffffffffffffffffff160217905550604051620000989062000359565b604051809103906000f080158015620000b5573d6000803e3d6000fd5b50600160006101000a81548173ffffffffffffffffffffffffffffffffffffffff021916908373ffffffffffffffffffffffffffffffffffffffff160217905550600160009054906101000a900473ffffffffffffffffffffffffffffffffffffffff1660008054906101000a900473ffffffffffffffffffffffffffffffffffffffff16604051620001489062000367565b6200015592919062000475565b604051809103906000f08015801562000172573d6000803e3d6000fd5b50600260006101000a81548173ffffffffffffffffffffffffffffffffffffffff021916908373ffffffffffffffffffffffffffffffffffffffff160217905550600160009054906101000a900473ffffffffffffffffffffffffffffffffffffffff1660008054906101000a900473ffffffffffffffffffffffffffffffffffffffff16604051620002059062000375565b6200021292919062000475565b604051809103906000f0801580156200022f573d6000803e3d6000fd5b50600360006101000a81548173ffffffffffffffffffffffffffffffffffffffff021916908373ffffffffffffffffffffffffffffffffffffffff16021790555060008054906101000a900473ffffffffffffffffffffffffffffffffffffffff1673ffffffffffffffffffffffffffffffffffffffff1663317d7268600260009054906101000a900473ffffffffffffffffffffffffffffffffffffffff16600360009054906101000a900473ffffffffffffffffffffffffffffffffffffffff166040518363ffffffff1660e01b815260040162000311929190620004a2565b600060405180830381600087803b1580156200032c57600080fd5b505af115801562000341573d6000803e3d6000fd5b50505050620004cf565b611499806200301983390190565b6124a680620044b283390190565b6145f4806200695883390190565b6144ba806200af4c83390190565b600073ffffffffffffffffffffffffffffffffffffffff82169050919050565b6000620003b08262000383565b9050919050565b620003c281620003a3565b82525050565b6000602082019050620003df6000830184620003b7565b92915050565b6000819050919050565b6000620004106200040a620004048462000383565b620003e5565b62000383565b9050919050565b60006200042482620003ef565b9050919050565b6000620004388262000417565b9050919050565b6200044a816200042b565b82525050565b60006200045d8262000417565b9050919050565b6200046f8162000450565b82525050565b60006040820190506200048c60008301856200043f565b6200049b602083018462000464565b9392505050565b6000604082019050620004b96000830185620003b7565b620004c86020830184620003b7565b9392505050565b612b3a80620004df6000396000f3fe608060405234801561001057600080fd5b50600436106101425760003560e01c8063b5387dc5116100b8578063da02c9de1161007c578063da02c9de146103fb578063e20454521461042b578063e3d9deb614610447578063ebe0b87714610463578063ed1a998d14610493578063f139c063146104c357610142565b8063b5387dc51461031f578063c9fd54201461034f578063cd4025191461037f578063ced8d530146103af578063d378b5fe146103df57610142565b80636e6181ec1161010a5780636e6181ec1461022557806377c82cc9146102415780637b7e76b8146102715780638c328413146102a1578063951b3de8146102d1578063ae87ca7c146102ef57610142565b80631d036d7d1461014757806333bdb8f91461017757806335df3509146101a7578063620c503a146101c55780636627cbd6146101f5575b600080fd5b610161600480360381019061015c9190611400565b6104df565b60405161016e91906114f5565b60405180910390f35b610191600480360381019061018c9190611400565b610587565b60405161019e9190611526565b60405180910390f35b6101af61062c565b6040516101bc9190611526565b60405180910390f35b6101df60048036038101906101da919061156d565b6106c4565b6040516101ec91906116a8565b60405180910390f35b61020f600480360381019061020a919061156d565b61076e565b60405161021c91906116a8565b60405180910390f35b61023f600480360381019061023a91906116ca565b610818565b005b61025b60048036038101906102569190611400565b6108ad565b60405161026891906117fb565b60405180910390f35b61028b60048036038101906102869190611400565b610957565b6040516102989190611a01565b60405180910390f35b6102bb60048036038101906102b69190611a23565b610a01565b6040516102c891906114f5565b60405180910390f35b6102d9610ab1565b6040516102e69190611526565b60405180910390f35b61030960048036038101906103049190611400565b610b49565b6040516103169190611bae565b60405180910390f35b61033960048036038101906103349190611400565b610bf3565b6040516103469190611526565b60405180910390f35b61036960048036038101906103649190611400565b610c98565b6040516103769190611526565b60405180910390f35b61039960048036038101906103949190611a23565b610d3c565b6040516103a691906114f5565b60405180910390f35b6103c960048036038101906103c4919061156d565b610dec565b6040516103d69190611c59565b60405180910390f35b6103f960048036038101906103f49190611c7b565b610e9c565b005b6104156004803603810190610410919061156d565b610f34565b6040516104229190611d57565b60405180910390f35b61044560048036038101906104409190611ebf565b610fe4565b005b610461600480360381019061045c9190611c7b565b611075565b005b61047d60048036038101906104789190611400565b61110d565b60405161048a91906114f5565b60405180910390f35b6104ad60048036038101906104a89190611400565b6111b5565b6040516104ba9190611f9a565b60405180910390f35b6104dd60048036038101906104d891906116ca565b61125d565b005b606060008054906101000a900473ffffffffffffffffffffffffffffffffffffffff1673ffffffffffffffffffffffffffffffffffffffff16631d036d7d836040518263ffffffff1660e01b815260040161053a9190611fcb565b600060405180830381865afa158015610557573d6000803e3d6000fd5b505050506040513d6000823e3d601f19601f8201168201806040525081019061058091906120c3565b9050919050565b6000600160009054906101000a900473ffffffffffffffffffffffffffffffffffffffff1673ffffffffffffffffffffffffffffffffffffffff166333bdb8f9836040518263ffffffff1660e01b81526004016105e49190611fcb565b602060405180830381865afa158015610601573d6000803e3d6000fd5b505050506040513d601f19601f82011682018060405250810190610625919061210c565b9050919050565b6000600360009054906101000a900473ffffffffffffffffffffffffffffffffffffffff1673ffffffffffffffffffffffffffffffffffffffff166335df35096040518163ffffffff1660e01b8152600401602060405180830381865afa15801561069b573d6000803e3d6000fd5b505050506040513d601f19601f820116820180604052508101906106bf919061210c565b905090565b6060600260009054906101000a900473ffffffffffffffffffffffffffffffffffffffff1673ffffffffffffffffffffffffffffffffffffffff1663620c503a836040518263ffffffff1660e01b81526004016107219190611526565b600060405180830381865afa15801561073e573d6000803e3d6000fd5b505050506040513d6000823e3d601f19601f82011682018060405250810190610767919061224c565b9050919050565b6060600360009054906101000a900473ffffffffffffffffffffffffffffffffffffffff1673ffffffffffffffffffffffffffffffffffffffff16636627cbd6836040518263ffffffff1660e01b81526004016107cb9190611526565b600060405180830381865afa1580156107e8573d6000803e3d6000fd5b505050506040513d6000823e3d601f19601f82011682018060405250810190610811919061224c565b9050919050565b600360009054906101000a900473ffffffffffffffffffffffffffffffffffffffff1673ffffffffffffffffffffffffffffffffffffffff1663906eb21c8383336040518463ffffffff1660e01b815260040161087793929190612295565b600060405180830381600087803b15801561089157600080fd5b505af11580156108a5573d6000803e3d6000fd5b505050505050565b6060600160009054906101000a900473ffffffffffffffffffffffffffffffffffffffff1673ffffffffffffffffffffffffffffffffffffffff166377c82cc9836040518263ffffffff1660e01b815260040161090a9190611fcb565b600060405180830381865afa158015610927573d6000803e3d6000fd5b505050506040513d6000823e3d601f19601f8201168201806040525081019061095091906123fd565b9050919050565b6060600260009054906101000a900473ffffffffffffffffffffffffffffffffffffffff1673ffffffffffffffffffffffffffffffffffffffff16637b7e76b8836040518263ffffffff1660e01b81526004016109b49190611fcb565b600060405180830381865afa1580156109d1573d6000803e3d6000fd5b505050506040513d6000823e3d601f19601f820116820180604052508101906109fa9190612624565b9050919050565b6060600160009054906101000a900473ffffffffffffffffffffffffffffffffffffffff1673ffffffffffffffffffffffffffffffffffffffff1663fc369818848460016040518463ffffffff1660e01b8152600401610a63939291906126b5565b600060405180830381865afa158015610a80573d6000803e3d6000fd5b505050506040513d6000823e3d601f19601f82011682018060405250810190610aa991906120c3565b905092915050565b6000600260009054906101000a900473ffffffffffffffffffffffffffffffffffffffff1673ffffffffffffffffffffffffffffffffffffffff1663951b3de86040518163ffffffff1660e01b8152600401602060405180830381865afa158015610b20573d6000803e3d6000fd5b505050506040513d601f19601f82011682018060405250810190610b44919061210c565b905090565b6060600360009054906101000a900473ffffffffffffffffffffffffffffffffffffffff1673ffffffffffffffffffffffffffffffffffffffff1663ae87ca7c836040518263ffffffff1660e01b8152600401610ba69190611fcb565b600060405180830381865afa158015610bc3573d6000803e3d6000fd5b505050506040513d6000823e3d601f19601f82011682018060405250810190610bec9190612889565b9050919050565b6000600160009054906101000a900473ffffffffffffffffffffffffffffffffffffffff1673ffffffffffffffffffffffffffffffffffffffff1663b5387dc5836040518263ffffffff1660e01b8152600401610c509190611fcb565b602060405180830381865afa158015610c6d573d6000803e3d6000fd5b505050506040513d601f19601f82011682018060405250810190610c91919061210c565b9050919050565b60008060009054906101000a900473ffffffffffffffffffffffffffffffffffffffff1673ffffffffffffffffffffffffffffffffffffffff1663cb8ab15b836040518263ffffffff1660e01b8152600401610cf49190611fcb565b602060405180830381865afa158015610d11573d6000803e3d6000fd5b505050506040513d601f19601f82011682018060405250810190610d35919061210c565b9050919050565b6060600160009054906101000a900473ffffffffffffffffffffffffffffffffffffffff1673ffffffffffffffffffffffffffffffffffffffff1663fc369818848460006040518463ffffffff1660e01b8152600401610d9e9392919061290d565b600060405180830381865afa158015610dbb573d6000803e3d6000fd5b505050506040513d6000823e3d601f19601f82011682018060405250810190610de491906120c3565b905092915050565b610df46112f2565b600260009054906101000a900473ffffffffffffffffffffffffffffffffffffffff1673ffffffffffffffffffffffffffffffffffffffff1663ced8d530836040518263ffffffff1660e01b8152600401610e4f9190611526565b600060405180830381865afa158015610e6c573d6000803e3d6000fd5b505050506040513d6000823e3d601f19601f82011682018060405250810190610e959190612944565b9050919050565b600260009054906101000a900473ffffffffffffffffffffffffffffffffffffffff1673ffffffffffffffffffffffffffffffffffffffff16630aeadded848484336040518563ffffffff1660e01b8152600401610efd949392919061298d565b600060405180830381600087803b158015610f1757600080fd5b505af1158015610f2b573d6000803e3d6000fd5b50505050505050565b610f3c611340565b600360009054906101000a900473ffffffffffffffffffffffffffffffffffffffff1673ffffffffffffffffffffffffffffffffffffffff1663da02c9de836040518263ffffffff1660e01b8152600401610f979190611526565b600060405180830381865afa158015610fb4573d6000803e3d6000fd5b505050506040513d6000823e3d601f19601f82011682018060405250810190610fdd91906129d2565b9050919050565b60008054906101000a900473ffffffffffffffffffffffffffffffffffffffff1673ffffffffffffffffffffffffffffffffffffffff1663e204545283836040518363ffffffff1660e01b815260040161103f929190612a1b565b600060405180830381600087803b15801561105957600080fd5b505af115801561106d573d6000803e3d6000fd5b505050505050565b600360009054906101000a900473ffffffffffffffffffffffffffffffffffffffff1673ffffffffffffffffffffffffffffffffffffffff16634cb3a345848484336040518563ffffffff1660e01b81526004016110d6949392919061298d565b600060405180830381600087803b1580156110f057600080fd5b505af1158015611104573d6000803e3d6000fd5b50505050505050565b606060008054906101000a900473ffffffffffffffffffffffffffffffffffffffff1673ffffffffffffffffffffffffffffffffffffffff1663ebe0b877836040518263ffffffff1660e01b81526004016111689190611fcb565b600060405180830381865afa158015611185573d6000803e3d6000fd5b505050506040513d6000823e3d601f19601f820116820180604052508101906111ae91906120c3565b9050919050565b606060008054906101000a900473ffffffffffffffffffffffffffffffffffffffff1673ffffffffffffffffffffffffffffffffffffffff1663ce43c032836040518263ffffffff1660e01b81526004016112109190611fcb565b600060405180830381865afa15801561122d573d6000803e3d6000fd5b505050506040513d6000823e3d601f19601f820116820180604052508101906112569190612abb565b9050919050565b600260009054906101000a900473ffffffffffffffffffffffffffffffffffffffff1673ffffffffffffffffffffffffffffffffffffffff1663bca73eb28383336040518463ffffffff1660e01b81526004016112bc93929190612295565b600060405180830381600087803b1580156112d657600080fd5b505af11580156112ea573d6000803e3d6000fd5b505050505050565b6040518060c001604052806000815260200160008152602001600073ffffffffffffffffffffffffffffffffffffffff16815260200160001515815260200160008152602001606081525090565b6040518060c001604052806000815260200160008152602001600073ffffffffffffffffffffffffffffffffffffffff16815260200160001515815260200160008152602001606081525090565b6000604051905090565b600080fd5b600080fd5b600073ffffffffffffffffffffffffffffffffffffffff82169050919050565b60006113cd826113a2565b9050919050565b6113dd816113c2565b81146113e857600080fd5b50565b6000813590506113fa816113d4565b92915050565b60006020828403121561141657611415611398565b5b6000611424848285016113eb565b91505092915050565b600081519050919050565b600082825260208201905092915050565b6000819050602082019050919050565b6000819050919050565b61146c81611459565b82525050565b600061147e8383611463565b60208301905092915050565b6000602082019050919050565b60006114a28261142d565b6114ac8185611438565b93506114b783611449565b8060005b838110156114e85781516114cf8882611472565b97506114da8361148a565b9250506001810190506114bb565b5085935050505092915050565b6000602082019050818103600083015261150f8184611497565b905092915050565b61152081611459565b82525050565b600060208201905061153b6000830184611517565b92915050565b61154a81611459565b811461155557600080fd5b50565b60008135905061156781611541565b92915050565b60006020828403121561158357611582611398565b5b600061159184828501611558565b91505092915050565b600081519050919050565b600082825260208201905092915050565b6000819050602082019050919050565b6000819050919050565b60006115eb6115e66115e1846113a2565b6115c6565b6113a2565b9050919050565b60006115fd826115d0565b9050919050565b600061160f826115f2565b9050919050565b61161f81611604565b82525050565b60006116318383611616565b60208301905092915050565b6000602082019050919050565b60006116558261159a565b61165f81856115a5565b935061166a836115b6565b8060005b8381101561169b5781516116828882611625565b975061168d8361163d565b92505060018101905061166e565b5085935050505092915050565b600060208201905081810360008301526116c2818461164a565b905092915050565b600080604083850312156116e1576116e0611398565b5b60006116ef85828601611558565b925050602061170085828601611558565b9150509250929050565b600081519050919050565b600082825260208201905092915050565b6000819050602082019050919050565b60608201600082015161174c6000850182611463565b50602082015161175f6020850182611463565b5060408201516117726040850182611463565b50505050565b60006117848383611736565b60608301905092915050565b6000602082019050919050565b60006117a88261170a565b6117b28185611715565b93506117bd83611726565b8060005b838110156117ee5781516117d58882611778565b97506117e083611790565b9250506001810190506117c1565b5085935050505092915050565b60006020820190508181036000830152611815818461179d565b905092915050565b600081519050919050565b600082825260208201905092915050565b6000819050602082019050919050565b611852816113c2565b82525050565b60008115159050919050565b61186d81611858565b82525050565b600082825260208201905092915050565b600061188f8261159a565b6118998185611873565b93506118a4836115b6565b8060005b838110156118d55781516118bc8882611625565b97506118c78361163d565b9250506001810190506118a8565b5085935050505092915050565b600060c0830160008301516118fa6000860182611463565b50602083015161190d6020860182611463565b5060408301516119206040860182611849565b5060608301516119336060860182611864565b5060808301516119466080860182611463565b5060a083015184820360a086015261195e8282611884565b9150508091505092915050565b600061197783836118e2565b905092915050565b6000602082019050919050565b60006119978261181d565b6119a18185611828565b9350836020820285016119b385611839565b8060005b858110156119ef57848403895281516119d0858261196b565b94506119db8361197f565b925060208a019950506001810190506119b7565b50829750879550505050505092915050565b60006020820190508181036000830152611a1b818461198c565b905092915050565b60008060408385031215611a3a57611a39611398565b5b6000611a48858286016113eb565b9250506020611a5985828601611558565b9150509250929050565b600081519050919050565b600082825260208201905092915050565b6000819050602082019050919050565b600060c083016000830151611aa76000860182611463565b506020830151611aba6020860182611463565b506040830151611acd6040860182611849565b506060830151611ae06060860182611864565b506080830151611af36080860182611463565b5060a083015184820360a0860152611b0b8282611884565b9150508091505092915050565b6000611b248383611a8f565b905092915050565b6000602082019050919050565b6000611b4482611a63565b611b4e8185611a6e565b935083602082028501611b6085611a7f565b8060005b85811015611b9c5784840389528151611b7d8582611b18565b9450611b8883611b2c565b925060208a01995050600181019050611b64565b50829750879550505050505092915050565b60006020820190508181036000830152611bc88184611b39565b905092915050565b600060c083016000830151611be86000860182611463565b506020830151611bfb6020860182611463565b506040830151611c0e6040860182611849565b506060830151611c216060860182611864565b506080830151611c346080860182611463565b5060a083015184820360a0860152611c4c8282611884565b9150508091505092915050565b60006020820190508181036000830152611c738184611bd0565b905092915050565b600080600060608486031215611c9457611c93611398565b5b6000611ca286828701611558565b9350506020611cb386828701611558565b9250506040611cc486828701611558565b9150509250925092565b600060c083016000830151611ce66000860182611463565b506020830151611cf96020860182611463565b506040830151611d0c6040860182611849565b506060830151611d1f6060860182611864565b506080830151611d326080860182611463565b5060a083015184820360a0860152611d4a8282611884565b9150508091505092915050565b60006020820190508181036000830152611d718184611cce565b905092915050565b600080fd5b600080fd5b6000601f19601f8301169050919050565b7f4e487b7100000000000000000000000000000000000000000000000000000000600052604160045260246000fd5b611dcc82611d83565b810181811067ffffffffffffffff82111715611deb57611dea611d94565b5b80604052505050565b6000611dfe61138e565b9050611e0a8282611dc3565b919050565b600067ffffffffffffffff821115611e2a57611e29611d94565b5b611e3382611d83565b9050602081019050919050565b82818337600083830152505050565b6000611e62611e5d84611e0f565b611df4565b905082815260208101848484011115611e7e57611e7d611d7e565b5b611e89848285611e40565b509392505050565b600082601f830112611ea657611ea5611d79565b5b8135611eb6848260208601611e4f565b91505092915050565b60008060408385031215611ed657611ed5611398565b5b6000611ee4858286016113eb565b925050602083013567ffffffffffffffff811115611f0557611f0461139d565b5b611f1185828601611e91565b9150509250929050565b600081519050919050565b600082825260208201905092915050565b60005b83811015611f55578082015181840152602081019050611f3a565b60008484015250505050565b6000611f6c82611f1b565b611f768185611f26565b9350611f86818560208601611f37565b611f8f81611d83565b840191505092915050565b60006020820190508181036000830152611fb48184611f61565b905092915050565b611fc5816113c2565b82525050565b6000602082019050611fe06000830184611fbc565b92915050565b600067ffffffffffffffff82111561200157612000611d94565b5b602082029050602081019050919050565b600080fd5b60008151905061202681611541565b92915050565b600061203f61203a84611fe6565b611df4565b9050808382526020820190506020840283018581111561206257612061612012565b5b835b8181101561208b57806120778882612017565b845260208401935050602081019050612064565b5050509392505050565b600082601f8301126120aa576120a9611d79565b5b81516120ba84826020860161202c565b91505092915050565b6000602082840312156120d9576120d8611398565b5b600082015167ffffffffffffffff8111156120f7576120f661139d565b5b61210384828501612095565b91505092915050565b60006020828403121561212257612121611398565b5b600061213084828501612017565b91505092915050565b600067ffffffffffffffff82111561215457612153611d94565b5b602082029050602081019050919050565b6000612170826113a2565b9050919050565b600061218282612165565b9050919050565b61219281612177565b811461219d57600080fd5b50565b6000815190506121af81612189565b92915050565b60006121c86121c384612139565b611df4565b905080838252602082019050602084028301858111156121eb576121ea612012565b5b835b81811015612214578061220088826121a0565b8452602084019350506020810190506121ed565b5050509392505050565b600082601f83011261223357612232611d79565b5b81516122438482602086016121b5565b91505092915050565b60006020828403121561226257612261611398565b5b600082015167ffffffffffffffff8111156122805761227f61139d565b5b61228c8482850161221e565b91505092915050565b60006060820190506122aa6000830186611517565b6122b76020830185611517565b6122c46040830184611fbc565b949350505050565b600067ffffffffffffffff8211156122e7576122e6611d94565b5b602082029050602081019050919050565b600080fd5b600080fd5b600060608284031215612318576123176122f8565b5b6123226060611df4565b9050600061233284828501612017565b600083015250602061234684828501612017565b602083015250604061235a84828501612017565b60408301525092915050565b6000612379612374846122cc565b611df4565b9050808382526020820190506060840283018581111561239c5761239b612012565b5b835b818110156123c557806123b18882612302565b84526020840193505060608101905061239e565b5050509392505050565b600082601f8301126123e4576123e3611d79565b5b81516123f4848260208601612366565b91505092915050565b60006020828403121561241357612412611398565b5b600082015167ffffffffffffffff8111156124315761243061139d565b5b61243d848285016123cf565b91505092915050565b600067ffffffffffffffff82111561246157612460611d94565b5b602082029050602081019050919050565b600081519050612481816113d4565b92915050565b61249081611858565b811461249b57600080fd5b50565b6000815190506124ad81612487565b92915050565b600060c082840312156124c9576124c86122f8565b5b6124d360c0611df4565b905060006124e384828501612017565b60008301525060206124f784828501612017565b602083015250604061250b84828501612472565b604083015250606061251f8482850161249e565b606083015250608061253384828501612017565b60808301525060a082015167ffffffffffffffff811115612557576125566122fd565b5b6125638482850161221e565b60a08301525092915050565b600061258261257d84612446565b611df4565b905080838252602082019050602084028301858111156125a5576125a4612012565b5b835b818110156125ec57805167ffffffffffffffff8111156125ca576125c9611d79565b5b8086016125d789826124b3565b855260208501945050506020810190506125a7565b5050509392505050565b600082601f83011261260b5761260a611d79565b5b815161261b84826020860161256f565b91505092915050565b60006020828403121561263a57612639611398565b5b600082015167ffffffffffffffff8111156126585761265761139d565b5b612664848285016125f6565b91505092915050565b6000819050919050565b600060ff82169050919050565b600061269f61269a6126958461266d565b6115c6565b612677565b9050919050565b6126af81612684565b82525050565b60006060820190506126ca6000830186611fbc565b6126d76020830185611517565b6126e460408301846126a6565b949350505050565b600067ffffffffffffffff82111561270757612706611d94565b5b602082029050602081019050919050565b600060c0828403121561272e5761272d6122f8565b5b61273860c0611df4565b9050600061274884828501612017565b600083015250602061275c84828501612017565b602083015250604061277084828501612472565b60408301525060606127848482850161249e565b606083015250608061279884828501612017565b60808301525060a082015167ffffffffffffffff8111156127bc576127bb6122fd565b5b6127c88482850161221e565b60a08301525092915050565b60006127e76127e2846126ec565b611df4565b9050808382526020820190506020840283018581111561280a57612809612012565b5b835b8181101561285157805167ffffffffffffffff81111561282f5761282e611d79565b5b80860161283c8982612718565b8552602085019450505060208101905061280c565b5050509392505050565b600082601f8301126128705761286f611d79565b5b81516128808482602086016127d4565b91505092915050565b60006020828403121561289f5761289e611398565b5b600082015167ffffffffffffffff8111156128bd576128bc61139d565b5b6128c98482850161285b565b91505092915050565b6000819050919050565b60006128f76128f26128ed846128d2565b6115c6565b612677565b9050919050565b612907816128dc565b82525050565b60006060820190506129226000830186611fbc565b61292f6020830185611517565b61293c60408301846128fe565b949350505050565b60006020828403121561295a57612959611398565b5b600082015167ffffffffffffffff8111156129785761297761139d565b5b612984848285016124b3565b91505092915050565b60006080820190506129a26000830187611517565b6129af6020830186611517565b6129bc6040830185611517565b6129c96060830184611fbc565b95945050505050565b6000602082840312156129e8576129e7611398565b5b600082015167ffffffffffffffff811115612a0657612a0561139d565b5b612a1284828501612718565b91505092915050565b6000604082019050612a306000830185611fbc565b8181036020830152612a428184611f61565b90509392505050565b6000612a5e612a5984611e0f565b611df4565b905082815260208101848484011115612a7a57612a79611d7e565b5b612a85848285611f37565b509392505050565b600082601f830112612aa257612aa1611d79565b5b8151612ab2848260208601612a4b565b91505092915050565b600060208284031215612ad157612ad0611398565b5b600082015167ffffffffffffffff811115612aef57612aee61139d565b5b612afb84828501612a8d565b9150509291505056fea2646970667358221220fa8e478a645a17cbdf14959d8dbb9175e0a7343d659d6b3f166274fac8940e8264736f6c6343000811003360806040523480156200001157600080fd5b50604051620014993803806200149983398181016040528101906200003791906200014a565b80600160006101000a81548173ffffffffffffffffffffffffffffffffffffffff021916908373ffffffffffffffffffffffffffffffffffffffff160217905550600073ab8483f64d9c6d1ecf9b849ae677dd3315835cb2905060646000808373ffffffffffffffffffffffffffffffffffffffff1673ffffffffffffffffffffffffffffffffffffffff1681526020019081526020016000206001018190555050506200017c565b600080fd5b600073ffffffffffffffffffffffffffffffffffffffff82169050919050565b60006200011282620000e5565b9050919050565b620001248162000105565b81146200013057600080fd5b50565b600081519050620001448162000119565b92915050565b600060208284031215620001635762000162620000e0565b5b6000620001738482850162000133565b91505092915050565b61130d806200018c6000396000f3fe608060405234801561001057600080fd5b50600436106100935760003560e01c8063ce43c03211610066578063ce43c03214610130578063e204545214610160578063e26709711461017c578063ebe0b87714610198578063f03b5e9d146101c857610093565b80631d036d7d14610098578063317d7268146100c8578063c331d842146100e4578063cb8ab15b14610100575b600080fd5b6100b260048036038101906100ad91906109a7565b6101e4565b6040516100bf9190610a9c565b60405180910390f35b6100e260048036038101906100dd9190610abe565b61027d565b005b6100fe60048036038101906100f99190610b2a565b610393565b005b61011a600480360381019061011591906109a7565b61048f565b6040516101279190610b79565b60405180910390f35b61014a600480360381019061014591906109a7565b6104da565b6040516101579190610c24565b60405180910390f35b61017a60048036038101906101759190610d7b565b6105ad565b005b61019660048036038101906101919190610b2a565b61066e565b005b6101b260048036038101906101ad91906109a7565b6107a0565b6040516101bf9190610a9c565b60405180910390f35b6101e260048036038101906101dd9190610b2a565b610839565b005b60606000808373ffffffffffffffffffffffffffffffffffffffff1673ffffffffffffffffffffffffffffffffffffffff16815260200190815260200160002060030180548060200260200160405190810160405280929190818152602001828054801561027157602002820191906000526020600020905b81548152602001906001019080831161025d575b50505050509050919050565b600160009054906101000a900473ffffffffffffffffffffffffffffffffffffffff1673ffffffffffffffffffffffffffffffffffffffff163373ffffffffffffffffffffffffffffffffffffffff161461030d576040517f08c379a000000000000000000000000000000000000000000000000000000000815260040161030490610e49565b60405180910390fd5b81600260006101000a81548173ffffffffffffffffffffffffffffffffffffffff021916908373ffffffffffffffffffffffffffffffffffffffff16021790555080600360006101000a81548173ffffffffffffffffffffffffffffffffffffffff021916908373ffffffffffffffffffffffffffffffffffffffff1602179055505050565b600360009054906101000a900473ffffffffffffffffffffffffffffffffffffffff1673ffffffffffffffffffffffffffffffffffffffff163373ffffffffffffffffffffffffffffffffffffffff1614610423576040517f08c379a000000000000000000000000000000000000000000000000000000000815260040161041a90610eb5565b60405180910390fd5b6000808373ffffffffffffffffffffffffffffffffffffffff1673ffffffffffffffffffffffffffffffffffffffff1681526020019081526020016000206003018190806001815401808255809150506001900390600052602060002001600090919091909150555050565b60008060008373ffffffffffffffffffffffffffffffffffffffff1673ffffffffffffffffffffffffffffffffffffffff168152602001908152602001600020600101549050919050565b60606000808373ffffffffffffffffffffffffffffffffffffffff1673ffffffffffffffffffffffffffffffffffffffff168152602001908152602001600020600001805461052890610f04565b80601f016020809104026020016040519081016040528092919081815260200182805461055490610f04565b80156105a15780601f10610576576101008083540402835291602001916105a1565b820191906000526020600020905b81548152906001019060200180831161058457829003601f168201915b50505050509050919050565b8173ffffffffffffffffffffffffffffffffffffffff163273ffffffffffffffffffffffffffffffffffffffff161461061b576040517f08c379a000000000000000000000000000000000000000000000000000000000815260040161061290610fa7565b60405180910390fd5b806000808473ffffffffffffffffffffffffffffffffffffffff1673ffffffffffffffffffffffffffffffffffffffff16815260200190815260200160002060000190816106699190611173565b505050565b600260009054906101000a900473ffffffffffffffffffffffffffffffffffffffff1673ffffffffffffffffffffffffffffffffffffffff163373ffffffffffffffffffffffffffffffffffffffff1614806107175750600360009054906101000a900473ffffffffffffffffffffffffffffffffffffffff1673ffffffffffffffffffffffffffffffffffffffff163373ffffffffffffffffffffffffffffffffffffffff16145b610756576040517f08c379a000000000000000000000000000000000000000000000000000000000815260040161074d906112b7565b60405180910390fd5b806000808473ffffffffffffffffffffffffffffffffffffffff1673ffffffffffffffffffffffffffffffffffffffff168152602001908152602001600020600101819055505050565b60606000808373ffffffffffffffffffffffffffffffffffffffff1673ffffffffffffffffffffffffffffffffffffffff16815260200190815260200160002060020180548060200260200160405190810160405280929190818152602001828054801561082d57602002820191906000526020600020905b815481526020019060010190808311610819575b50505050509050919050565b600260009054906101000a900473ffffffffffffffffffffffffffffffffffffffff1673ffffffffffffffffffffffffffffffffffffffff163373ffffffffffffffffffffffffffffffffffffffff16146108c9576040517f08c379a00000000000000000000000000000000000000000000000000000000081526004016108c090610eb5565b60405180910390fd5b6000808373ffffffffffffffffffffffffffffffffffffffff1673ffffffffffffffffffffffffffffffffffffffff1681526020019081526020016000206002018190806001815401808255809150506001900390600052602060002001600090919091909150555050565b6000604051905090565b600080fd5b600080fd5b600073ffffffffffffffffffffffffffffffffffffffff82169050919050565b600061097482610949565b9050919050565b61098481610969565b811461098f57600080fd5b50565b6000813590506109a18161097b565b92915050565b6000602082840312156109bd576109bc61093f565b5b60006109cb84828501610992565b91505092915050565b600081519050919050565b600082825260208201905092915050565b6000819050602082019050919050565b6000819050919050565b610a1381610a00565b82525050565b6000610a258383610a0a565b60208301905092915050565b6000602082019050919050565b6000610a49826109d4565b610a5381856109df565b9350610a5e836109f0565b8060005b83811015610a8f578151610a768882610a19565b9750610a8183610a31565b925050600181019050610a62565b5085935050505092915050565b60006020820190508181036000830152610ab68184610a3e565b905092915050565b60008060408385031215610ad557610ad461093f565b5b6000610ae385828601610992565b9250506020610af485828601610992565b9150509250929050565b610b0781610a00565b8114610b1257600080fd5b50565b600081359050610b2481610afe565b92915050565b60008060408385031215610b4157610b4061093f565b5b6000610b4f85828601610992565b9250506020610b6085828601610b15565b9150509250929050565b610b7381610a00565b82525050565b6000602082019050610b8e6000830184610b6a565b92915050565b600081519050919050565b600082825260208201905092915050565b60005b83811015610bce578082015181840152602081019050610bb3565b60008484015250505050565b6000601f19601f8301169050919050565b6000610bf682610b94565b610c008185610b9f565b9350610c10818560208601610bb0565b610c1981610bda565b840191505092915050565b60006020820190508181036000830152610c3e8184610beb565b905092915050565b600080fd5b600080fd5b7f4e487b7100000000000000000000000000000000000000000000000000000000600052604160045260246000fd5b610c8882610bda565b810181811067ffffffffffffffff82111715610ca757610ca6610c50565b5b80604052505050565b6000610cba610935565b9050610cc68282610c7f565b919050565b600067ffffffffffffffff821115610ce657610ce5610c50565b5b610cef82610bda565b9050602081019050919050565b82818337600083830152505050565b6000610d1e610d1984610ccb565b610cb0565b905082815260208101848484011115610d3a57610d39610c4b565b5b610d45848285610cfc565b509392505050565b600082601f830112610d6257610d61610c46565b5b8135610d72848260208601610d0b565b91505092915050565b60008060408385031215610d9257610d9161093f565b5b6000610da085828601610992565b925050602083013567ffffffffffffffff811115610dc157610dc0610944565b5b610dcd85828601610d4d565b9150509250929050565b7f696e7465726e616c20696e697469616c697a6174696f6e2066756e6374696f6e60008201527f2c206163636573732064656e6965640000000000000000000000000000000000602082015250565b6000610e33602f83610b9f565b9150610e3e82610dd7565b604082019050919050565b60006020820190508181036000830152610e6281610e26565b9050919050565b7f6163636573732064656e69656400000000000000000000000000000000000000600082015250565b6000610e9f600d83610b9f565b9150610eaa82610e69565b602082019050919050565b60006020820190508181036000830152610ece81610e92565b9050919050565b7f4e487b7100000000000000000000000000000000000000000000000000000000600052602260045260246000fd5b60006002820490506001821680610f1c57607f821691505b602082108103610f2f57610f2e610ed5565b5b50919050565b7f596f752063616e6e6f74206368616e6765206f7468657220757365722773206960008201527f6e666f726d6174696f6e00000000000000000000000000000000000000000000602082015250565b6000610f91602a83610b9f565b9150610f9c82610f35565b604082019050919050565b60006020820190508181036000830152610fc081610f84565b9050919050565b60008190508160005260206000209050919050565b60006020601f8301049050919050565b600082821b905092915050565b6000600883026110297fffffffffffffffffffffffffffffffffffffffffffffffffffffffffffffffff82610fec565b6110338683610fec565b95508019841693508086168417925050509392505050565b6000819050919050565b600061107061106b61106684610a00565b61104b565b610a00565b9050919050565b6000819050919050565b61108a83611055565b61109e61109682611077565b848454610ff9565b825550505050565b600090565b6110b36110a6565b6110be818484611081565b505050565b5b818110156110e2576110d76000826110ab565b6001810190506110c4565b5050565b601f821115611127576110f881610fc7565b61110184610fdc565b81016020851015611110578190505b61112461111c85610fdc565b8301826110c3565b50505b505050565b600082821c905092915050565b600061114a6000198460080261112c565b1980831691505092915050565b60006111638383611139565b9150826002028217905092915050565b61117c82610b94565b67ffffffffffffffff81111561119557611194610c50565b5b61119f8254610f04565b6111aa8282856110e6565b600060209050601f8311600181146111dd57600084156111cb578287015190505b6111d58582611157565b86555061123d565b601f1984166111eb86610fc7565b60005b82811015611213578489015182556001820191506020850194506020810190506111ee565b86831015611230578489015161122c601f891682611139565b8355505b6001600288020188555050505b505050505050565b7f616363657373207265737472696374656420746f2062757965722f73656c6c6560008201527f7220736572766963652c206163636573732064656e6965640000000000000000602082015250565b60006112a1603883610b9f565b91506112ac82611245565b604082019050919050565b600060208201905081810360008301526112d081611294565b905091905056fea264697066735822122032d4e0450175f1d5300ace2177e83779e19f8057c12694a12e6ec4ae7378639164736f6c63430008110033608060405234801561001057600080fd5b50600073ab8483f64d9c6d1ecf9b849ae677dd3315835cb29050600063631e76809050600063631e768a9050600063631fc800905060006363211980905060006363226b00905060006363226b0a905060006363226b1490506000636323bc80905060006363250e00905060006363265f80905060006363265f8a905060006363265f94905060056000808f73ffffffffffffffffffffffffffffffffffffffff1673ffffffffffffffffffffffffffffffffffffffff16815260200190815260200160002060030160008e81526020019081526020016000208190555060056000808f73ffffffffffffffffffffffffffffffffffffffff1673ffffffffffffffffffffffffffffffffffffffff16815260200190815260200160002060030160008d81526020019081526020016000208190555060146000808f73ffffffffffffffffffffffffffffffffffffffff1673ffffffffffffffffffffffffffffffffffffffff16815260200190815260200160002060030160008c815260200190815260200160002081905550601e6000808f73ffffffffffffffffffffffffffffffffffffffff1673ffffffffffffffffffffffffffffffffffffffff16815260200190815260200160002060030160008b81526020019081526020016000208190555060146000808f73ffffffffffffffffffffffffffffffffffffffff1673ffffffffffffffffffffffffffffffffffffffff16815260200190815260200160002060030160008a81526020019081526020016000208190555060286000808f73ffffffffffffffffffffffffffffffffffffffff1673ffffffffffffffffffffffffffffffffffffffff168152602001908152602001600020600301600089815260200190815260200160002081905550600a6000808f73ffffffffffffffffffffffffffffffffffffffff1673ffffffffffffffffffffffffffffffffffffffff16815260200190815260200160002060030160008881526020019081526020016000208190555060286000808f73ffffffffffffffffffffffffffffffffffffffff1673ffffffffffffffffffffffffffffffffffffffff16815260200190815260200160002060030160008781526020019081526020016000208190555060326000808f73ffffffffffffffffffffffffffffffffffffffff1673ffffffffffffffffffffffffffffffffffffffff16815260200190815260200160002060030160008681526020019081526020016000208190555060146000808f73ffffffffffffffffffffffffffffffffffffffff1673ffffffffffffffffffffffffffffffffffffffff16815260200190815260200160002060030160008581526020019081526020016000208190555060146000808f73ffffffffffffffffffffffffffffffffffffffff1673ffffffffffffffffffffffffffffffffffffffff16815260200190815260200160002060030160008481526020019081526020016000208190555060146000808f73ffffffffffffffffffffffffffffffffffffffff1673ffffffffffffffffffffffffffffffffffffffff1681526020019081526020016000206003016000838152602001908152602001600020819055506000808e73ffffffffffffffffffffffffffffffffffffffff1673ffffffffffffffffffffffffffffffffffffffff1681526020019081526020016000206004018c90806001815401808255809150506001900390600052602060002001600090919091909150556000808e73ffffffffffffffffffffffffffffffffffffffff1673ffffffffffffffffffffffffffffffffffffffff1681526020019081526020016000206004018b90806001815401808255809150506001900390600052602060002001600090919091909150556000808e73ffffffffffffffffffffffffffffffffffffffff1673ffffffffffffffffffffffffffffffffffffffff1681526020019081526020016000206004018a90806001815401808255809150506001900390600052602060002001600090919091909150556000808e73ffffffffffffffffffffffffffffffffffffffff1673ffffffffffffffffffffffffffffffffffffffff1681526020019081526020016000206004018990806001815401808255809150506001900390600052602060002001600090919091909150556000808e73ffffffffffffffffffffffffffffffffffffffff1673ffffffffffffffffffffffffffffffffffffffff1681526020019081526020016000206004018890806001815401808255809150506001900390600052602060002001600090919091909150556000808e73ffffffffffffffffffffffffffffffffffffffff1673ffffffffffffffffffffffffffffffffffffffff1681526020019081526020016000206004018790806001815401808255809150506001900390600052602060002001600090919091909150556000808e73ffffffffffffffffffffffffffffffffffffffff1673ffffffffffffffffffffffffffffffffffffffff1681526020019081526020016000206004018690806001815401808255809150506001900390600052602060002001600090919091909150556000808e73ffffffffffffffffffffffffffffffffffffffff1673ffffffffffffffffffffffffffffffffffffffff1681526020019081526020016000206004018590806001815401808255809150506001900390600052602060002001600090919091909150556000808e73ffffffffffffffffffffffffffffffffffffffff1673ffffffffffffffffffffffffffffffffffffffff1681526020019081526020016000206004018490806001815401808255809150506001900390600052602060002001600090919091909150556000808e73ffffffffffffffffffffffffffffffffffffffff1673ffffffffffffffffffffffffffffffffffffffff1681526020019081526020016000206004018390806001815401808255809150506001900390600052602060002001600090919091909150556000808e73ffffffffffffffffffffffffffffffffffffffff1673ffffffffffffffffffffffffffffffffffffffff1681526020019081526020016000206004018290806001815401808255809150506001900390600052602060002001600090919091909150556000808e73ffffffffffffffffffffffffffffffffffffffff1673ffffffffffffffffffffffffffffffffffffffff16815260200190815260200160002060040181908060018154018082558091505060019003906000526020600020016000909190919091505550505050505050505050505050611af4806109b26000396000f3fe608060405234801561001057600080fd5b506004361061009e5760003560e01c80638b5ccc6e116100665780638b5ccc6e14610157578063b5387dc514610189578063e6b02333146101b9578063e8b8530f146101d5578063fc369818146101f15761009e565b80631e7ba9cd146100a35780632f0a323e146100bf57806333bdb8f9146100db5780633f9b696c1461010b57806377c82cc914610127575b600080fd5b6100bd60048036038101906100b89190611289565b610221565b005b6100d960048036038101906100d49190611289565b6102e5565b005b6100f560048036038101906100f091906112dc565b6103a9565b6040516101029190611318565b60405180910390f35b61012560048036038101906101209190611333565b6103f4565b005b610141600480360381019061013c91906112dc565b610450565b60405161014e9190611473565b60405180910390f35b610171600480360381019061016c91906112dc565b6107a6565b60405161018093929190611495565b60405180910390f35b6101a3600480360381019061019e91906112dc565b6107d0565b6040516101b09190611318565b60405180910390f35b6101d360048036038101906101ce9190611289565b61081b565b005b6101ef60048036038101906101ea9190611333565b610972565b005b61020b60048036038101906102069190611505565b6109ce565b6040516102189190611607565b60405180910390f35b806000808573ffffffffffffffffffffffffffffffffffffffff1673ffffffffffffffffffffffffffffffffffffffff1681526020019081526020016000206005016000848152602001908152602001600020819055506000808473ffffffffffffffffffffffffffffffffffffffff1673ffffffffffffffffffffffffffffffffffffffff168152602001908152602001600020600601829080600181540180825580915050600190039060005260206000200160009091909190915055505050565b806000808573ffffffffffffffffffffffffffffffffffffffff1673ffffffffffffffffffffffffffffffffffffffff1681526020019081526020016000206003016000848152602001908152602001600020819055506000808473ffffffffffffffffffffffffffffffffffffffff1673ffffffffffffffffffffffffffffffffffffffff168152602001908152602001600020600401829080600181540180825580915050600190039060005260206000200160009091909190915055505050565b60008060008373ffffffffffffffffffffffffffffffffffffffff1673ffffffffffffffffffffffffffffffffffffffff168152602001908152602001600020600101549050919050565b806000808473ffffffffffffffffffffffffffffffffffffffff1673ffffffffffffffffffffffffffffffffffffffff16815260200190815260200160002060000160008282546104459190611658565b925050819055505050565b606060008060008473ffffffffffffffffffffffffffffffffffffffff1673ffffffffffffffffffffffffffffffffffffffff1681526020019081526020016000206002015490506000808211156104b2576001826104af919061168c565b90505b60006104bf83600a610df9565b67ffffffffffffffff8111156104d8576104d76116c0565b5b60405190808252806020026020018201604052801561051157816020015b6104fe6111a7565b8152602001906001900390816104f65790505b50905060005b61052284600a610df9565b81101561079a576000808773ffffffffffffffffffffffffffffffffffffffff1673ffffffffffffffffffffffffffffffffffffffff168152602001908152602001600020600701600084815260200190815260200160002060010154828281518110610592576105916116ef565b5b602002602001015160000181815250506000808773ffffffffffffffffffffffffffffffffffffffff1673ffffffffffffffffffffffffffffffffffffffff16815260200190815260200160002060070160008481526020019081526020016000206000015482828151811061060b5761060a6116ef565b5b6020026020010151602001818152505060008282815181106106305761062f6116ef565b5b602002602001015160200151036106da576000808773ffffffffffffffffffffffffffffffffffffffff1673ffffffffffffffffffffffffffffffffffffffff1681526020019081526020016000206003016000838381518110610697576106966116ef565b5b6020026020010151600001518152602001908152602001600020548282815181106106c5576106c46116ef565b5b6020026020010151604001818152505061076f565b6000808773ffffffffffffffffffffffffffffffffffffffff1673ffffffffffffffffffffffffffffffffffffffff16815260200190815260200160002060050160008383815181106107305761072f6116ef565b5b60200260200101516000015181526020019081526020016000205482828151811061075e5761075d6116ef565b5b602002602001015160400181815250505b60008311156107875782806107839061171e565b9350505b808061079290611747565b915050610517565b50809350505050919050565b60006020528060005260406000206000915090508060000154908060010154908060020154905083565b60008060008373ffffffffffffffffffffffffffffffffffffffff1673ffffffffffffffffffffffffffffffffffffffff168152602001908152602001600020600001549050919050565b60008060008573ffffffffffffffffffffffffffffffffffffffff1673ffffffffffffffffffffffffffffffffffffffff168152602001908152602001600020600201549050826000808673ffffffffffffffffffffffffffffffffffffffff1673ffffffffffffffffffffffffffffffffffffffff168152602001908152602001600020600701600083815260200190815260200160002060000181905550816000808673ffffffffffffffffffffffffffffffffffffffff1673ffffffffffffffffffffffffffffffffffffffff1681526020019081526020016000206007016000838152602001908152602001600020600101819055506000808573ffffffffffffffffffffffffffffffffffffffff1673ffffffffffffffffffffffffffffffffffffffff168152602001908152602001600020600201600081548092919061096790611747565b919050555050505050565b806000808473ffffffffffffffffffffffffffffffffffffffff1673ffffffffffffffffffffffffffffffffffffffff16815260200190815260200160002060010160008282546109c39190611658565b925050819055505050565b60606000831015610a14576040517f08c379a0000000000000000000000000000000000000000000000000000000008152600401610a0b906117ec565b60405180910390fd5b610a1c6111c8565b600767ffffffffffffffff811115610a3757610a366116c0565b5b604051908082528060200260200182016040528015610a655781602001602082028036833780820191505090505b5081606001819052508362093a80610a7d919061180c565b8160000181815250506000806000610a9442610e15565b9250925092506000610aa7848484610e44565b90506000610ab442610e68565b9050600062015180600183610ac9919061168c565b610ad3919061180c565b83610ade919061168c565b9050866000015181610af0919061168c565b87602001818152505062093a808760200151610b0c9190611658565b876040018181525050606060008a60ff1603610bb9576000808d73ffffffffffffffffffffffffffffffffffffffff1673ffffffffffffffffffffffffffffffffffffffff168152602001908152602001600020600401805480602002602001604051908101604052809291908181526020018280548015610bad57602002820191906000526020600020905b815481526020019060010190808311610b99575b50505050509050610c9e565b60018a60ff1603610c5b576000808d73ffffffffffffffffffffffffffffffffffffffff1673ffffffffffffffffffffffffffffffffffffffff168152602001908152602001600020600601805480602002602001604051908101604052809291908181526020018280548015610c4f57602002820191906000526020600020905b815481526020019060010190808311610c3b575b50505050509050610c9d565b6000610c9c576040517f08c379a0000000000000000000000000000000000000000000000000000000008152600401610c939061189a565b60405180910390fd5b5b5b60005b8151811015610de2578860200151828281518110610cc257610cc16116ef565b5b602002602001015110158015610cf657508860400151828281518110610ceb57610cea6116ef565b5b602002602001015111155b15610dcf576000610d20838381518110610d1357610d126116ef565b5b6020026020010151610e68565b90506000808f73ffffffffffffffffffffffffffffffffffffffff1673ffffffffffffffffffffffffffffffffffffffff1681526020019081526020016000206003016000848481518110610d7857610d776116ef565b5b60200260200101518152602001908152602001600020548a60600151600183610da1919061168c565b81518110610db257610db16116ef565b5b60200260200101818151610dc69190611658565b91508181525050505b8080610dda90611747565b915050610ca1565b508760600151985050505050505050509392505050565b600081831015610e0b57829050610e0f565b8190505b92915050565b6000806000610e316201518085610e2c91906118e9565b610ea9565b8093508194508295505050509193909250565b600062015180610e55858585611048565b610e5f919061180c565b90509392505050565b6000806201518083610e7a91906118e9565b905060016007600383610e8d9190611658565b610e97919061191a565b610ea19190611658565b915050919050565b600080600080849050600062253d8c62010bd983610ec79190611955565b610ed19190611955565b9050600062023ab1826004610ee69190611999565b610ef09190611a11565b9050600460038262023ab1610f059190611999565b610f0f9190611955565b610f199190611a11565b82610f249190611a7b565b9150600062164b09600184610f399190611955565b610fa0610f469190611999565b610f509190611a11565b9050601f6004826105b5610f649190611999565b610f6e9190611a11565b84610f799190611a7b565b610f839190611955565b9250600061098f846050610f979190611999565b610fa19190611a11565b9050600060508261098f610fb59190611999565b610fbf9190611a11565b85610fca9190611a7b565b9050600b82610fd99190611a11565b945084600c610fe89190611999565b600283610ff59190611955565b610fff9190611a7b565b915084836031866110109190611a7b565b606461101c9190611999565b6110269190611955565b6110309190611955565b92508298508197508096505050505050509193909250565b60006107b284101561105957600080fd5b600084905060008490506000849050600062253d8c60046064600c600e876110819190611a7b565b61108b9190611a11565b611324886110999190611955565b6110a39190611955565b6110ad9190611a11565b60036110b99190611999565b6110c39190611a11565b600c80600c600e886110d59190611a7b565b6110df9190611a11565b6110e99190611999565b6002876110f69190611a7b565b6111009190611a7b565b61016f61110d9190611999565b6111179190611a11565b6004600c600e886111289190611a7b565b6111329190611a11565b6112c0896111409190611955565b61114a9190611955565b6105b56111579190611999565b6111619190611a11565b617d4b8661116f9190611a7b565b6111799190611955565b6111839190611955565b61118d9190611a7b565b6111979190611a7b565b9050809450505050509392505050565b60405180606001604052806000815260200160008152602001600081525090565b6040518060800160405280600081526020016000815260200160008152602001606081525090565b600080fd5b600073ffffffffffffffffffffffffffffffffffffffff82169050919050565b6000611220826111f5565b9050919050565b61123081611215565b811461123b57600080fd5b50565b60008135905061124d81611227565b92915050565b6000819050919050565b61126681611253565b811461127157600080fd5b50565b6000813590506112838161125d565b92915050565b6000806000606084860312156112a2576112a16111f0565b5b60006112b08682870161123e565b93505060206112c186828701611274565b92505060406112d286828701611274565b9150509250925092565b6000602082840312156112f2576112f16111f0565b5b60006113008482850161123e565b91505092915050565b61131281611253565b82525050565b600060208201905061132d6000830184611309565b92915050565b6000806040838503121561134a576113496111f0565b5b60006113588582860161123e565b925050602061136985828601611274565b9150509250929050565b600081519050919050565b600082825260208201905092915050565b6000819050602082019050919050565b6113a881611253565b82525050565b6060820160008201516113c4600085018261139f565b5060208201516113d7602085018261139f565b5060408201516113ea604085018261139f565b50505050565b60006113fc83836113ae565b60608301905092915050565b6000602082019050919050565b600061142082611373565b61142a818561137e565b93506114358361138f565b8060005b8381101561146657815161144d88826113f0565b975061145883611408565b925050600181019050611439565b5085935050505092915050565b6000602082019050818103600083015261148d8184611415565b905092915050565b60006060820190506114aa6000830186611309565b6114b76020830185611309565b6114c46040830184611309565b949350505050565b600060ff82169050919050565b6114e2816114cc565b81146114ed57600080fd5b50565b6000813590506114ff816114d9565b92915050565b60008060006060848603121561151e5761151d6111f0565b5b600061152c8682870161123e565b935050602061153d86828701611274565b925050604061154e868287016114f0565b9150509250925092565b600081519050919050565b600082825260208201905092915050565b6000819050602082019050919050565b6000611590838361139f565b60208301905092915050565b6000602082019050919050565b60006115b482611558565b6115be8185611563565b93506115c983611574565b8060005b838110156115fa5781516115e18882611584565b97506115ec8361159c565b9250506001810190506115cd565b5085935050505092915050565b6000602082019050818103600083015261162181846115a9565b905092915050565b7f4e487b7100000000000000000000000000000000000000000000000000000000600052601160045260246000fd5b600061166382611253565b915061166e83611253565b925082820190508082111561168657611685611629565b5b92915050565b600061169782611253565b91506116a283611253565b92508282039050818111156116ba576116b9611629565b5b92915050565b7f4e487b7100000000000000000000000000000000000000000000000000000000600052604160045260246000fd5b7f4e487b7100000000000000000000000000000000000000000000000000000000600052603260045260246000fd5b600061172982611253565b91506000820361173c5761173b611629565b5b600182039050919050565b600061175282611253565b91507fffffffffffffffffffffffffffffffffffffffffffffffffffffffffffffffff820361178457611783611629565b5b600182019050919050565b600082825260208201905092915050565b7f7765656b206e756d626572207374617274732066726f6d203000000000000000600082015250565b60006117d660198361178f565b91506117e1826117a0565b602082019050919050565b60006020820190508181036000830152611805816117c9565b9050919050565b600061181782611253565b915061182283611253565b925082820261183081611253565b9150828204841483151761184757611846611629565b5b5092915050565b7f696e76616c6964207472616e73616374696f6e20747970650000000000000000600082015250565b600061188460188361178f565b915061188f8261184e565b602082019050919050565b600060208201905081810360008301526118b381611877565b9050919050565b7f4e487b7100000000000000000000000000000000000000000000000000000000600052601260045260246000fd5b60006118f482611253565b91506118ff83611253565b92508261190f5761190e6118ba565b5b828204905092915050565b600061192582611253565b915061193083611253565b9250826119405761193f6118ba565b5b828206905092915050565b6000819050919050565b60006119608261194b565b915061196b8361194b565b92508282019050828112156000831216838212600084121516171561199357611992611629565b5b92915050565b60006119a48261194b565b91506119af8361194b565b92508282026119bd8161194b565b91507f800000000000000000000000000000000000000000000000000000000000000084146000841216156119f5576119f4611629565b5b8282058414831517611a0a57611a09611629565b5b5092915050565b6000611a1c8261194b565b9150611a278361194b565b925082611a3757611a366118ba565b5b600160000383147f800000000000000000000000000000000000000000000000000000000000000083141615611a7057611a6f611629565b5b828205905092915050565b6000611a868261194b565b9150611a918361194b565b9250828203905081811260008412168282136000851215161715611ab857611ab7611629565b5b9291505056fea26469706673582212209df2b91551d9cd145f106aba93b73e4dc7b02e8e72d713e09b080a6cac4ea06e64736f6c6343000811003360806040523480156200001157600080fd5b50604051620045f4380380620045f4833981810160405281019062000037919062000184565b81600460006101000a81548173ffffffffffffffffffffffffffffffffffffffff021916908373ffffffffffffffffffffffffffffffffffffffff16021790555080600560006101000a81548173ffffffffffffffffffffffffffffffffffffffff021916908373ffffffffffffffffffffffffffffffffffffffff1602179055505050620001cb565b600080fd5b600073ffffffffffffffffffffffffffffffffffffffff82169050919050565b6000620000f382620000c6565b9050919050565b60006200010782620000e6565b9050919050565b6200011981620000fa565b81146200012557600080fd5b50565b60008151905062000139816200010e565b92915050565b60006200014c82620000e6565b9050919050565b6200015e816200013f565b81146200016a57600080fd5b50565b6000815190506200017e8162000153565b92915050565b600080604083850312156200019e576200019d620000c1565b5b6000620001ae8582860162000128565b9250506020620001c1858286016200016d565b9150509250929050565b61441980620001db6000396000f3fe608060405260043610620000865760003560e01c80637b7e76b811620000555780637b7e76b81462000163578063951b3de814620001a7578063bca73eb214620001d7578063ced8d53014620002055762000086565b80630aeadded146200008b5780633d480db514620000b95780634659d79f14620000ef578063620c503a146200011f575b600080fd5b3480156200009857600080fd5b50620000b76004803603810190620000b1919062001b68565b62000249565b005b620000d76004803603810190620000d1919062001bda565b620004da565b604051620000e6919062001cbb565b60405180910390f35b348015620000fc57600080fd5b5062000107620012d3565b60405162000116919062001cf0565b60405180910390f35b3480156200012c57600080fd5b506200014b600480360381019062000145919062001d0d565b620012d9565b6040516200015a919062001e67565b60405180910390f35b3480156200017057600080fd5b506200018f600480360381019062000189919062001e8b565b620013c5565b6040516200019e9190620020dc565b60405180910390f35b348015620001b457600080fd5b50620001bf62001679565b604051620001ce919062001cf0565b60405180910390f35b348015620001e457600080fd5b50620002036004803603810190620001fd919062002100565b62001683565b005b3480156200021257600080fd5b506200023160048036038101906200022b919062001d0d565b6200190b565b604051620002409190620021f1565b60405180910390f35b600084116200028f576040517f08c379a0000000000000000000000000000000000000000000000000000000008152600401620002869062002265565b60405180910390fd5b60008311620002d5576040517f08c379a0000000000000000000000000000000000000000000000000000000008152600401620002cc90620022d7565b60405180910390fd5b60008210156200031c576040517f08c379a0000000000000000000000000000000000000000000000000000000008152600401620003139062002349565b60405180910390fd5b60008083815260200190815260200160002060020160009054906101000a900473ffffffffffffffffffffffffffffffffffffffff1673ffffffffffffffffffffffffffffffffffffffff168173ffffffffffffffffffffffffffffffffffffffff1603620003c2576040517f08c379a0000000000000000000000000000000000000000000000000000000008152600401620003b990620023e1565b60405180910390fd5b600080600084815260200190815260200160002060040180549050905060003083878760008887604051620003f79062001a58565b62000409979695949392919062002464565b604051809103906000f08015801562000426573d6000803e3d6000fd5b50905080600080868152602001908152602001600020600401600181600181540180825580915050039060005260206000200160006101000a81548173ffffffffffffffffffffffffffffffffffffffff021916908373ffffffffffffffffffffffffffffffffffffffff1602179055507f83c1d63a3e3cd3d3a92a899ed2f341bd373a5326ebf67b9bd646543e55081ebc8382604051620004ca929190620024e1565b60405180910390a1505050505050565b6060600080600085815260200190815260200160002060040183815481106200050857620005076200250e565b5b9060005260206000200160009054906101000a900473ffffffffffffffffffffffffffffffffffffffff1690503373ffffffffffffffffffffffffffffffffffffffff168173ffffffffffffffffffffffffffffffffffffffff1614620005a6576040517f08c379a00000000000000000000000000000000000000000000000000000000081526004016200059d90620025d9565b60405180910390fd5b600042905060008273ffffffffffffffffffffffffffffffffffffffff1663d67bdd256040518163ffffffff1660e01b8152600401602060405180830381865afa158015620005f9573d6000803e3d6000fd5b505050506040513d601f19601f820116820180604052508101906200061f919062002612565b90508273ffffffffffffffffffffffffffffffffffffffff1663aa8c217c6040518163ffffffff1660e01b8152600401602060405180830381865afa1580156200066d573d6000803e3d6000fd5b505050506040513d601f19601f820116820180604052508101906200069391906200265b565b600560009054906101000a900473ffffffffffffffffffffffffffffffffffffffff1673ffffffffffffffffffffffffffffffffffffffff1663cb8ab15b836040518263ffffffff1660e01b8152600401620006f091906200268d565b602060405180830381865afa1580156200070e573d6000803e3d6000fd5b505050506040513d601f19601f820116820180604052508101906200073491906200265b565b101562000778576040517f08c379a00000000000000000000000000000000000000000000000000000000081526004016200076f9062002720565b60405180910390fd5b600560009054906101000a900473ffffffffffffffffffffffffffffffffffffffff1673ffffffffffffffffffffffffffffffffffffffff1663e2670971828573ffffffffffffffffffffffffffffffffffffffff1663aa8c217c6040518163ffffffff1660e01b8152600401602060405180830381865afa15801562000803573d6000803e3d6000fd5b505050506040513d601f19601f820116820180604052508101906200082991906200265b565b600560009054906101000a900473ffffffffffffffffffffffffffffffffffffffff1673ffffffffffffffffffffffffffffffffffffffff1663cb8ab15b866040518263ffffffff1660e01b81526004016200088691906200268d565b602060405180830381865afa158015620008a4573d6000803e3d6000fd5b505050506040513d601f19601f82011682018060405250810190620008ca91906200265b565b620008d6919062002771565b6040518363ffffffff1660e01b8152600401620008f5929190620027ac565b600060405180830381600087803b1580156200091057600080fd5b505af115801562000925573d6000803e3d6000fd5b50505050600460009054906101000a900473ffffffffffffffffffffffffffffffffffffffff1673ffffffffffffffffffffffffffffffffffffffff1663e8b8530f828573ffffffffffffffffffffffffffffffffffffffff1663aa8c217c6040518163ffffffff1660e01b8152600401602060405180830381865afa158015620009b4573d6000803e3d6000fd5b505050506040513d601f19601f82011682018060405250810190620009da91906200265b565b6040518363ffffffff1660e01b8152600401620009f9929190620027ac565b600060405180830381600087803b15801562000a1457600080fd5b505af115801562000a29573d6000803e3d6000fd5b50505050600460009054906101000a900473ffffffffffffffffffffffffffffffffffffffff1673ffffffffffffffffffffffffffffffffffffffff16631e7ba9cd82848673ffffffffffffffffffffffffffffffffffffffff1663aa8c217c6040518163ffffffff1660e01b8152600401602060405180830381865afa15801562000ab9573d6000803e3d6000fd5b505050506040513d601f19601f8201168201806040525081019062000adf91906200265b565b6040518463ffffffff1660e01b815260040162000aff93929190620027d9565b600060405180830381600087803b15801562000b1a57600080fd5b505af115801562000b2f573d6000803e3d6000fd5b50505050600460009054906101000a900473ffffffffffffffffffffffffffffffffffffffff1673ffffffffffffffffffffffffffffffffffffffff1663e6b02333826001856040518463ffffffff1660e01b815260040162000b959392919062002859565b600060405180830381600087803b15801562000bb057600080fd5b505af115801562000bc5573d6000803e3d6000fd5b50505050600080600088815260200190815260200160002060020160009054906101000a900473ffffffffffffffffffffffffffffffffffffffff169050600560009054906101000a900473ffffffffffffffffffffffffffffffffffffffff1673ffffffffffffffffffffffffffffffffffffffff1663e2670971828673ffffffffffffffffffffffffffffffffffffffff1663aa8c217c6040518163ffffffff1660e01b8152600401602060405180830381865afa15801562000c8e573d6000803e3d6000fd5b505050506040513d601f19601f8201168201806040525081019062000cb491906200265b565b600560009054906101000a900473ffffffffffffffffffffffffffffffffffffffff1673ffffffffffffffffffffffffffffffffffffffff1663cb8ab15b866040518263ffffffff1660e01b815260040162000d1191906200268d565b602060405180830381865afa15801562000d2f573d6000803e3d6000fd5b505050506040513d601f19601f8201168201806040525081019062000d5591906200265b565b62000d61919062002896565b6040518363ffffffff1660e01b815260040162000d80929190620027ac565b600060405180830381600087803b15801562000d9b57600080fd5b505af115801562000db0573d6000803e3d6000fd5b50505050600460009054906101000a900473ffffffffffffffffffffffffffffffffffffffff1673ffffffffffffffffffffffffffffffffffffffff16633f9b696c828673ffffffffffffffffffffffffffffffffffffffff1663aa8c217c6040518163ffffffff1660e01b8152600401602060405180830381865afa15801562000e3f573d6000803e3d6000fd5b505050506040513d601f19601f8201168201806040525081019062000e6591906200265b565b6040518363ffffffff1660e01b815260040162000e84929190620027ac565b600060405180830381600087803b15801562000e9f57600080fd5b505af115801562000eb4573d6000803e3d6000fd5b50505050600460009054906101000a900473ffffffffffffffffffffffffffffffffffffffff1673ffffffffffffffffffffffffffffffffffffffff16632f0a323e82858773ffffffffffffffffffffffffffffffffffffffff1663aa8c217c6040518163ffffffff1660e01b8152600401602060405180830381865afa15801562000f44573d6000803e3d6000fd5b505050506040513d601f19601f8201168201806040525081019062000f6a91906200265b565b6040518463ffffffff1660e01b815260040162000f8a93929190620027d9565b600060405180830381600087803b15801562000fa557600080fd5b505af115801562000fba573d6000803e3d6000fd5b50505050600460009054906101000a900473ffffffffffffffffffffffffffffffffffffffff1673ffffffffffffffffffffffffffffffffffffffff1663e6b02333826000866040518463ffffffff1660e01b815260040162001020939291906200290a565b600060405180830381600087803b1580156200103b57600080fd5b505af115801562001050573d6000803e3d6000fd5b505050508373ffffffffffffffffffffffffffffffffffffffff1663aa8c217c6040518163ffffffff1660e01b8152600401602060405180830381865afa158015620010a0573d6000803e3d6000fd5b505050506040513d601f19601f82011682018060405250810190620010c691906200265b565b60008089815260200190815260200160002060010154101562001120576040517f08c379a00000000000000000000000000000000000000000000000000000000081526004016200111790620029e3565b60405180910390fd5b8373ffffffffffffffffffffffffffffffffffffffff1663aa8c217c6040518163ffffffff1660e01b8152600401602060405180830381865afa1580156200116c573d6000803e3d6000fd5b505050506040513d601f19601f820116820180604052508101906200119291906200265b565b6000808981526020019081526020016000206001016000828254620011b8919062002771565b92505081905550600080600089815260200190815260200160002060010154036200120c57600080600089815260200190815260200160002060020160146101000a81548160ff0219169083151502179055505b8173ffffffffffffffffffffffffffffffffffffffff166108fc349081150290604051600060405180830381858888f1935050505015801562001253573d6000803e3d6000fd5b507faa5ef240d12945dacdcfd9ecc9a86ba7fa61f117ef9e9626465aa252e6dd5b66348886604051620012899392919062002a05565b60405180910390a16040518060400160405280600781526020017f737563636573730000000000000000000000000000000000000000000000000081525094505050505092915050565b60035481565b6060600082101562001322576040517f08c379a0000000000000000000000000000000000000000000000000000000008152600401620013199062002349565b60405180910390fd5b600080838152602001908152602001600020600401805480602002602001604051908101604052809291908181526020018280548015620013b957602002820191906000526020600020905b8160009054906101000a900473ffffffffffffffffffffffffffffffffffffffff1673ffffffffffffffffffffffffffffffffffffffff16815260200190600101908083116200136e575b50505050509050919050565b60606000600560009054906101000a900473ffffffffffffffffffffffffffffffffffffffff1673ffffffffffffffffffffffffffffffffffffffff1663ebe0b877846040518263ffffffff1660e01b81526004016200142691906200268d565b600060405180830381865afa15801562001444573d6000803e3d6000fd5b505050506040513d6000823e3d601f19601f820116820180604052508101906200146f919062002ba6565b90506000815167ffffffffffffffff81111562001491576200149062002a47565b5b604051908082528060200260200182016040528015620014ce57816020015b620014ba62001a66565b815260200190600190039081620014b05790505b50905060005b82518110156200166e57600080848381518110620014f757620014f66200250e565b5b602002602001015181526020019081526020016000206040518060c001604052908160008201548152602001600182015481526020016002820160009054906101000a900473ffffffffffffffffffffffffffffffffffffffff1673ffffffffffffffffffffffffffffffffffffffff1673ffffffffffffffffffffffffffffffffffffffff1681526020016002820160149054906101000a900460ff1615151515815260200160038201548152602001600482018054806020026020016040519081016040528092919081815260200182805480156200162e57602002820191906000526020600020905b8160009054906101000a900473ffffffffffffffffffffffffffffffffffffffff1673ffffffffffffffffffffffffffffffffffffffff1681526020019060010190808311620015e3575b5050505050815250508282815181106200164d576200164c6200250e565b5b60200260200101819052508080620016659062002bf7565b915050620014d4565b508092505050919050565b6000600354905090565b60008311620016c9576040517f08c379a0000000000000000000000000000000000000000000000000000000008152600401620016c09062002cba565b60405180910390fd5b600082116200170f576040517f08c379a0000000000000000000000000000000000000000000000000000000008152600401620017069062002d52565b60405180910390fd5b826000806003548152602001908152602001600020600001819055508160008060035481526020019081526020016000206001018190555080600080600354815260200190815260200160002060020160006101000a81548173ffffffffffffffffffffffffffffffffffffffff021916908373ffffffffffffffffffffffffffffffffffffffff1602179055506001600080600354815260200190815260200160002060020160146101000a81548160ff021916908315150217905550426000806003548152602001908152602001600020600301819055506001806000600354815260200190815260200160002060006101000a81548160ff021916908315150217905550600560009054906101000a900473ffffffffffffffffffffffffffffffffffffffff1673ffffffffffffffffffffffffffffffffffffffff1663f03b5e9d826003546040518363ffffffff1660e01b815260040162001877929190620027ac565b600060405180830381600087803b1580156200189257600080fd5b505af1158015620018a7573d6000803e3d6000fd5b505050507fb327665b1bbfd6560701e012c966f02c9abe3e3b1afa5c084bfa31ed1e701071816003548585604051620018e4949392919062002d74565b60405180910390a160036000815480929190620019019062002bf7565b9190505550505050565b6200191562001a66565b6000808381526020019081526020016000206040518060c001604052908160008201548152602001600182015481526020016002820160009054906101000a900473ffffffffffffffffffffffffffffffffffffffff1673ffffffffffffffffffffffffffffffffffffffff1673ffffffffffffffffffffffffffffffffffffffff1681526020016002820160149054906101000a900460ff16151515158152602001600382015481526020016004820180548060200260200160405190810160405280929190818152602001828054801562001a4857602002820191906000526020600020905b8160009054906101000a900473ffffffffffffffffffffffffffffffffffffffff1673ffffffffffffffffffffffffffffffffffffffff1681526020019060010190808311620019fd575b5050505050815250509050919050565b6116228062002dc283390190565b6040518060c001604052806000815260200160008152602001600073ffffffffffffffffffffffffffffffffffffffff16815260200160001515815260200160008152602001606081525090565b6000604051905090565b600080fd5b600080fd5b6000819050919050565b62001add8162001ac8565b811462001ae957600080fd5b50565b60008135905062001afd8162001ad2565b92915050565b600073ffffffffffffffffffffffffffffffffffffffff82169050919050565b600062001b308262001b03565b9050919050565b62001b428162001b23565b811462001b4e57600080fd5b50565b60008135905062001b628162001b37565b92915050565b6000806000806080858703121562001b855762001b8462001abe565b5b600062001b958782880162001aec565b945050602062001ba88782880162001aec565b935050604062001bbb8782880162001aec565b925050606062001bce8782880162001b51565b91505092959194509250565b6000806040838503121562001bf45762001bf362001abe565b5b600062001c048582860162001aec565b925050602062001c178582860162001aec565b9150509250929050565b600081519050919050565b600082825260208201905092915050565b60005b8381101562001c5d57808201518184015260208101905062001c40565b60008484015250505050565b6000601f19601f8301169050919050565b600062001c878262001c21565b62001c93818562001c2c565b935062001ca581856020860162001c3d565b62001cb08162001c69565b840191505092915050565b6000602082019050818103600083015262001cd7818462001c7a565b905092915050565b62001cea8162001ac8565b82525050565b600060208201905062001d07600083018462001cdf565b92915050565b60006020828403121562001d265762001d2562001abe565b5b600062001d368482850162001aec565b91505092915050565b600081519050919050565b600082825260208201905092915050565b6000819050602082019050919050565b6000819050919050565b600062001d9662001d9062001d8a8462001b03565b62001d6b565b62001b03565b9050919050565b600062001daa8262001d75565b9050919050565b600062001dbe8262001d9d565b9050919050565b62001dd08162001db1565b82525050565b600062001de4838362001dc5565b60208301905092915050565b6000602082019050919050565b600062001e0a8262001d3f565b62001e16818562001d4a565b935062001e238362001d5b565b8060005b8381101562001e5a57815162001e3e888262001dd6565b975062001e4b8362001df0565b92505060018101905062001e27565b5085935050505092915050565b6000602082019050818103600083015262001e83818462001dfd565b905092915050565b60006020828403121562001ea45762001ea362001abe565b5b600062001eb48482850162001b51565b91505092915050565b600081519050919050565b600082825260208201905092915050565b6000819050602082019050919050565b62001ef48162001ac8565b82525050565b62001f058162001b23565b82525050565b60008115159050919050565b62001f228162001f0b565b82525050565b600082825260208201905092915050565b600062001f468262001d3f565b62001f52818562001f28565b935062001f5f8362001d5b565b8060005b8381101562001f9657815162001f7a888262001dd6565b975062001f878362001df0565b92505060018101905062001f63565b5085935050505092915050565b600060c08301600083015162001fbd600086018262001ee9565b50602083015162001fd2602086018262001ee9565b50604083015162001fe7604086018262001efa565b50606083015162001ffc606086018262001f17565b50608083015162002011608086018262001ee9565b5060a083015184820360a08601526200202b828262001f39565b9150508091505092915050565b600062002046838362001fa3565b905092915050565b6000602082019050919050565b6000620020688262001ebd565b62002074818562001ec8565b935083602082028501620020888562001ed9565b8060005b85811015620020ca5784840389528151620020a8858262002038565b9450620020b5836200204e565b925060208a019950506001810190506200208c565b50829750879550505050505092915050565b60006020820190508181036000830152620020f881846200205b565b905092915050565b6000806000606084860312156200211c576200211b62001abe565b5b60006200212c8682870162001aec565b93505060206200213f8682870162001aec565b9250506040620021528682870162001b51565b9150509250925092565b600060c08301600083015162002176600086018262001ee9565b5060208301516200218b602086018262001ee9565b506040830151620021a0604086018262001efa565b506060830151620021b5606086018262001f17565b506080830151620021ca608086018262001ee9565b5060a083015184820360a0860152620021e4828262001f39565b9150508091505092915050565b600060208201905081810360008301526200220d81846200215c565b905092915050565b7f616d6f756e74206d7573742062652067726561746572207468616e2030000000600082015250565b60006200224d601d8362001c2c565b91506200225a8262002215565b602082019050919050565b6000602082019050818103600083015262002280816200223e565b9050919050565b7f71756f746174696f6e206d7573742062652067726561746572207468616e2030600082015250565b6000620022bf60208362001c2c565b9150620022cc8262002287565b602082019050919050565b60006020820190508181036000830152620022f281620022b0565b9050919050565b7f706f7374206b6579207374617274732066726f6d203000000000000000000000600082015250565b60006200233160168362001c2c565b91506200233e82620022f9565b602082019050919050565b60006020820190508181036000830152620023648162002322565b9050919050565b7f596f752063616e6e6f74207265706c7920746f20796f7572206f776e2070757260008201527f636861736520706f737400000000000000000000000000000000000000000000602082015250565b6000620023c9602a8362001c2c565b9150620023d6826200236b565b604082019050919050565b60006020820190508181036000830152620023fc81620023ba565b9050919050565b6200240e8162001b23565b82525050565b6000819050919050565b600060ff82169050919050565b60006200244c62002446620024408462002414565b62001d6b565b6200241e565b9050919050565b6200245e816200242b565b82525050565b600060e0820190506200247b600083018a62002403565b6200248a602083018962002403565b62002499604083018862001cdf565b620024a8606083018762001cdf565b620024b7608083018662002453565b620024c660a083018562001cdf565b620024d560c083018462001cdf565b98975050505050505050565b6000604082019050620024f8600083018562002403565b62002507602083018462002403565b9392505050565b7f4e487b7100000000000000000000000000000000000000000000000000000000600052603260045260246000fd5b7f6d6573736167652073656e6465722073686f756c64206f6e6c7920626520746860008201527f6520726573706f6e7365206d657373616765207468617420747269676765727360208201527f207061796d656e742070726f6365737300000000000000000000000000000000604082015250565b6000620025c160508362001c2c565b9150620025ce826200253d565b606082019050919050565b60006020820190508181036000830152620025f481620025b2565b9050919050565b6000815190506200260c8162001b37565b92915050565b6000602082840312156200262b576200262a62001abe565b5b60006200263b84828501620025fb565b91505092915050565b600081519050620026558162001ad2565b92915050565b60006020828403121562002674576200267362001abe565b5b6000620026848482850162002644565b91505092915050565b6000602082019050620026a4600083018462002403565b92915050565b7f496e73756666696369656e7420656c65637472696369747920756e697473206960008201527f6e206163636f756e740000000000000000000000000000000000000000000000602082015250565b60006200270860298362001c2c565b91506200271582620026aa565b604082019050919050565b600060208201905081810360008301526200273b81620026f9565b9050919050565b7f4e487b7100000000000000000000000000000000000000000000000000000000600052601160045260246000fd5b60006200277e8262001ac8565b91506200278b8362001ac8565b9250828203905081811115620027a657620027a562002742565b5b92915050565b6000604082019050620027c3600083018562002403565b620027d2602083018462001cdf565b9392505050565b6000606082019050620027f0600083018662002403565b620027ff602083018562001cdf565b6200280e604083018462001cdf565b949350505050565b6000819050919050565b6000620028416200283b620028358462002816565b62001d6b565b62001ac8565b9050919050565b620028538162002820565b82525050565b600060608201905062002870600083018662002403565b6200287f602083018562002848565b6200288e604083018462001cdf565b949350505050565b6000620028a38262001ac8565b9150620028b08362001ac8565b9250828201905080821115620028cb57620028ca62002742565b5b92915050565b6000620028f2620028ec620028e68462002414565b62001d6b565b62001ac8565b9050919050565b6200290481620028d1565b82525050565b600060608201905062002921600083018662002403565b620029306020830185620028f9565b6200293f604083018462001cdf565b949350505050565b7f5468652073616c6573207175616e746974792073686f756c64206265206c657360008201527f73207468616e206f7220657175616c20746f207468652070757263686173652060208201527f64656d616e640000000000000000000000000000000000000000000000000000604082015250565b6000620029cb60468362001c2c565b9150620029d88262002947565b606082019050919050565b60006020820190508181036000830152620029fe81620029bc565b9050919050565b600060608201905062002a1c600083018662001cdf565b62002a2b602083018562001cdf565b62002a3a604083018462002403565b949350505050565b600080fd5b7f4e487b7100000000000000000000000000000000000000000000000000000000600052604160045260246000fd5b62002a818262001c69565b810181811067ffffffffffffffff8211171562002aa35762002aa262002a47565b5b80604052505050565b600062002ab862001ab4565b905062002ac6828262002a76565b919050565b600067ffffffffffffffff82111562002ae95762002ae862002a47565b5b602082029050602081019050919050565b600080fd5b600062002b1662002b108462002acb565b62002aac565b9050808382526020820190506020840283018581111562002b3c5762002b3b62002afa565b5b835b8181101562002b69578062002b54888262002644565b84526020840193505060208101905062002b3e565b5050509392505050565b600082601f83011262002b8b5762002b8a62002a42565b5b815162002b9d84826020860162002aff565b91505092915050565b60006020828403121562002bbf5762002bbe62001abe565b5b600082015167ffffffffffffffff81111562002be05762002bdf62001ac3565b5b62002bee8482850162002b73565b91505092915050565b600062002c048262001ac8565b91507fffffffffffffffffffffffffffffffffffffffffffffffffffffffffffffffff820362002c395762002c3862002742565b5b600182019050919050565b7f7075726368617365207072696365206d7573742062652067726561746572207460008201527f68616e2030000000000000000000000000000000000000000000000000000000602082015250565b600062002ca260258362001c2c565b915062002caf8262002c44565b604082019050919050565b6000602082019050818103600083015262002cd58162002c93565b9050919050565b7f616d6f756e7420746f20627579206d757374206265206772656174657220746860008201527f616e203000000000000000000000000000000000000000000000000000000000602082015250565b600062002d3a60248362001c2c565b915062002d478262002cdc565b604082019050919050565b6000602082019050818103600083015262002d6d8162002d2b565b9050919050565b600060808201905062002d8b600083018762002403565b62002d9a602083018662001cdf565b62002da9604083018562001cdf565b62002db8606083018462001cdf565b9594505050505056fe60806040523480156200001157600080fd5b50604051620016223803806200162283398181016040528101906200003791906200021c565b86600860006101000a81548173ffffffffffffffffffffffffffffffffffffffff021916908373ffffffffffffffffffffffffffffffffffffffff160217905550856000806101000a81548173ffffffffffffffffffffffffffffffffffffffff021916908373ffffffffffffffffffffffffffffffffffffffff160217905550846001819055508360028190555082600360006101000a81548160ff021916908360ff16021790555081600481905550806005819055506000600660006101000a81548160ff0219169083151502179055506000600660016101000a81548160ff0219169083151502179055504260078190555050505050505050620002cf565b600080fd5b600073ffffffffffffffffffffffffffffffffffffffff82169050919050565b60006200016b826200013e565b9050919050565b6200017d816200015e565b81146200018957600080fd5b50565b6000815190506200019d8162000172565b92915050565b6000819050919050565b620001b881620001a3565b8114620001c457600080fd5b50565b600081519050620001d881620001ad565b92915050565b600060ff82169050919050565b620001f681620001de565b81146200020257600080fd5b50565b6000815190506200021681620001eb565b92915050565b600080600080600080600060e0888a0312156200023e576200023d62000139565b5b60006200024e8a828b016200018c565b9750506020620002618a828b016200018c565b9650506040620002748a828b01620001c7565b9550506060620002878a828b01620001c7565b94505060806200029a8a828b0162000205565b93505060a0620002ad8a828b01620001c7565b92505060c0620002c08a828b01620001c7565b91505092959891949750929550565b61134380620002df6000396000f3fe6080604052600436106100c65760003560e01c806382fa096a1161007f578063abf4d6c411610059578063abf4d6c414610424578063c32b9b531461042e578063cf09e0d014610438578063d67bdd25146104635761029e565b806382fa096a146103a3578063a03a202e146103ce578063aa8c217c146103f95761029e565b806304dc4cda146102a3578063209ebc08146102ce5780633013aa25146102f95780633d855485146103225780633e784e631461034d5780635051a5ec146103785761029e565b3661029e576000341161010e576040517f08c379a000000000000000000000000000000000000000000000000000000000815260040161010590610b63565b60405180910390fd5b60011515600660009054906101000a900460ff16151514610164576040517f08c379a000000000000000000000000000000000000000000000000000000000815260040161015b90610bf5565b60405180910390fd5b346002546001546101759190610c4e565b146101b5576040517f08c379a00000000000000000000000000000000000000000000000000000000081526004016101ac90610cdc565b60405180910390fd5b60001515600660019054906101000a900460ff1615151461020b576040517f08c379a000000000000000000000000000000000000000000000000000000000815260040161020290610d48565b60405180910390fd5b6000600360009054906101000a900460ff1660ff16036102325761022d61048e565b61029c565b6001600360009054906101000a900460ff1660ff16036102595761025461069d565b61029b565b600061029a576040517f08c379a000000000000000000000000000000000000000000000000000000000815260040161029190610db4565b60405180910390fd5b5b5b005b600080fd5b3480156102af57600080fd5b506102b86108ac565b6040516102c59190610df0565b60405180910390f35b3480156102da57600080fd5b506102e36108bf565b6040516102f09190610e26565b60405180910390f35b34801561030557600080fd5b50610320600480360381019061031b9190610e72565b6108d2565b005b34801561032e57600080fd5b5061033761093d565b6040516103449190610eae565b60405180910390f35b34801561035957600080fd5b50610362610943565b60405161036f9190610eae565b60405180910390f35b34801561038457600080fd5b5061038d610949565b60405161039a9190610e26565b60405180910390f35b3480156103af57600080fd5b506103b861095c565b6040516103c59190610fee565b60405180910390f35b3480156103da57600080fd5b506103e3610a67565b6040516103f09190610eae565b60405180910390f35b34801561040557600080fd5b5061040e610a6d565b60405161041b9190610eae565b60405180910390f35b61042c61048e565b005b61043661069d565b005b34801561044457600080fd5b5061044d610a73565b60405161045a9190610eae565b60405180910390f35b34801561046f57600080fd5b50610478610a79565b6040516104859190611019565b60405180910390f35b60008054906101000a900473ffffffffffffffffffffffffffffffffffffffff1673ffffffffffffffffffffffffffffffffffffffff163373ffffffffffffffffffffffffffffffffffffffff160361051c576040517f08c379a0000000000000000000000000000000000000000000000000000000008152600401610513906110a6565b60405180910390fd5b6000600860009054906101000a900473ffffffffffffffffffffffffffffffffffffffff1673ffffffffffffffffffffffffffffffffffffffff163460045460055460405160240161056f9291906110c6565b6040516020818303038152906040527f3d480db5000000000000000000000000000000000000000000000000000000007bffffffffffffffffffffffffffffffffffffffffffffffffffffffff19166020820180517bffffffffffffffffffffffffffffffffffffffffffffffffffffffff83818316178352505050506040516105f99190611160565b60006040518083038185875af1925050503d8060008114610636576040519150601f19603f3d011682016040523d82523d6000602084013e61063b565b606091505b505090508061067f576040517f08c379a0000000000000000000000000000000000000000000000000000000008152600401610676906111c3565b60405180910390fd5b6001600660016101000a81548160ff02191690831515021790555050565b60008054906101000a900473ffffffffffffffffffffffffffffffffffffffff1673ffffffffffffffffffffffffffffffffffffffff163373ffffffffffffffffffffffffffffffffffffffff161461072b576040517f08c379a00000000000000000000000000000000000000000000000000000000081526004016107229061127b565b60405180910390fd5b6000600860009054906101000a900473ffffffffffffffffffffffffffffffffffffffff1673ffffffffffffffffffffffffffffffffffffffff163460045460055460405160240161077e9291906110c6565b6040516020818303038152906040527f0876290a000000000000000000000000000000000000000000000000000000007bffffffffffffffffffffffffffffffffffffffffffffffffffffffff19166020820180517bffffffffffffffffffffffffffffffffffffffffffffffffffffffff83818316178352505050506040516108089190611160565b60006040518083038185875af1925050503d8060008114610845576040519150601f19603f3d011682016040523d82523d6000602084013e61084a565b606091505b505090508061088e576040517f08c379a0000000000000000000000000000000000000000000000000000000008152600401610885906111c3565b60405180910390fd5b6001600660016101000a81548160ff02191690831515021790555050565b600360009054906101000a900460ff1681565b600660019054906101000a900460ff1681565b80600660006101000a81548160ff0219169083151502179055507f9161e5ec70df4a8ef9f6085e3435135f3da64c7ec32c271912e1ca8d4afbd7c3600360009054906101000a900460ff16600454600554604051610932939291906112d6565b60405180910390a150565b60045481565b60055481565b600660009054906101000a900460ff1681565b610964610a9d565b61096c610a9d565b60008054906101000a900473ffffffffffffffffffffffffffffffffffffffff16816000019073ffffffffffffffffffffffffffffffffffffffff16908173ffffffffffffffffffffffffffffffffffffffff1681525050600154816020018181525050600254816040018181525050600360009054906101000a900460ff16816060019060ff16908160ff16815250506004548160800181815250506005548160a0018181525050600660009054906101000a900460ff168160c0019015159081151581525050600660019054906101000a900460ff168160e0019015159081151581525050600754816101000181815250508091505090565b60025481565b60015481565b60075481565b60008054906101000a900473ffffffffffffffffffffffffffffffffffffffff1681565b604051806101200160405280600073ffffffffffffffffffffffffffffffffffffffff1681526020016000815260200160008152602001600060ff1681526020016000815260200160008152602001600015158152602001600015158152602001600081525090565b600082825260208201905092915050565b7f696e76616c6964207061796d656e740000000000000000000000000000000000600082015250565b6000610b4d600f83610b06565b9150610b5882610b17565b602082019050919050565b60006020820190508181036000830152610b7c81610b40565b9050919050565b7f796f757220726573706f6e736520686173206e6f74206265656e20616363657060008201527f7465642062792073656c6c657220796574000000000000000000000000000000602082015250565b6000610bdf603183610b06565b9150610bea82610b83565b604082019050919050565b60006020820190508181036000830152610c0e81610bd2565b9050919050565b6000819050919050565b7f4e487b7100000000000000000000000000000000000000000000000000000000600052601160045260246000fd5b6000610c5982610c15565b9150610c6483610c15565b9250828202610c7281610c15565b91508282048414831517610c8957610c88610c1f565b5b5092915050565b7f4e6f742066756c6c792070616964207965740000000000000000000000000000600082015250565b6000610cc6601283610b06565b9150610cd182610c90565b602082019050919050565b60006020820190508181036000830152610cf581610cb9565b9050919050565b7f4f7264657220697320616c726561647920706169642100000000000000000000600082015250565b6000610d32601683610b06565b9150610d3d82610cfc565b602082019050919050565b60006020820190508181036000830152610d6181610d25565b9050919050565b7f696e76616c696420726573706f6e7365206d6573736167652074797065000000600082015250565b6000610d9e601d83610b06565b9150610da982610d68565b602082019050919050565b60006020820190508181036000830152610dcd81610d91565b9050919050565b600060ff82169050919050565b610dea81610dd4565b82525050565b6000602082019050610e056000830184610de1565b92915050565b60008115159050919050565b610e2081610e0b565b82525050565b6000602082019050610e3b6000830184610e17565b92915050565b600080fd5b610e4f81610e0b565b8114610e5a57600080fd5b50565b600081359050610e6c81610e46565b92915050565b600060208284031215610e8857610e87610e41565b5b6000610e9684828501610e5d565b91505092915050565b610ea881610c15565b82525050565b6000602082019050610ec36000830184610e9f565b92915050565b600073ffffffffffffffffffffffffffffffffffffffff82169050919050565b6000610ef482610ec9565b9050919050565b610f0481610ee9565b82525050565b610f1381610c15565b82525050565b610f2281610dd4565b82525050565b610f3181610e0b565b82525050565b61012082016000820151610f4e6000850182610efb565b506020820151610f616020850182610f0a565b506040820151610f746040850182610f0a565b506060820151610f876060850182610f19565b506080820151610f9a6080850182610f0a565b5060a0820151610fad60a0850182610f0a565b5060c0820151610fc060c0850182610f28565b5060e0820151610fd360e0850182610f28565b50610100820151610fe8610100850182610f0a565b50505050565b6000610120820190506110046000830184610f37565b92915050565b61101381610ee9565b82525050565b600060208201905061102e600083018461100a565b92915050565b7f596f752063616e6e6f74206d616b652061207061796d656e7420746f20796f7560008201527f72206f776e2073656c6c696e6720726573706f6e7365206d6573736167650000602082015250565b6000611090603e83610b06565b915061109b82611034565b604082019050919050565b600060208201905081810360008301526110bf81611083565b9050919050565b60006040820190506110db6000830185610e9f565b6110e86020830184610e9f565b9392505050565b600081519050919050565b600081905092915050565b60005b83811015611123578082015181840152602081019050611108565b60008484015250505050565b600061113a826110ef565b61114481856110fa565b9350611154818560208601611105565b80840191505092915050565b600061116c828461112f565b915081905092915050565b7f7061796d656e74206661696c6564000000000000000000000000000000000000600082015250565b60006111ad600e83610b06565b91506111b882611177565b602082019050919050565b600060208201905081810360008301526111dc816111a0565b9050919050565b7f4f6e6c7920746865206d6573736167652073656e6465722077686f2073656e7460008201527f207468697320726573706f6e736520746f206163717569726520656c6563747260208201527f696369747920756e6974732063616e206d616b652061207061796d656e740000604082015250565b6000611265605e83610b06565b9150611270826111e3565b606082019050919050565b6000602082019050818103600083015261129481611258565b9050919050565b6000819050919050565b60006112c06112bb6112b684610dd4565b61129b565b610c15565b9050919050565b6112d0816112a5565b82525050565b60006060820190506112eb60008301866112c7565b6112f86020830185610e9f565b6113056040830184610e9f565b94935050505056fea264697066735822122073e925c02640f54ec6f797a0c5db83b3650b31ffafe16a7aa55534274ce1d24064736f6c63430008110033a2646970667358221220874ae4a321a6b88d28bee58aa18ea37b6da77c9c41f1a7ff9a39bfd4d60fcc8a64736f6c6343000811003360806040523480156200001157600080fd5b50604051620044ba380380620044ba833981810160405281019062000037919062000184565b81600460006101000a81548173ffffffffffffffffffffffffffffffffffffffff021916908373ffffffffffffffffffffffffffffffffffffffff16021790555080600560006101000a81548173ffffffffffffffffffffffffffffffffffffffff021916908373ffffffffffffffffffffffffffffffffffffffff1602179055505050620001cb565b600080fd5b600073ffffffffffffffffffffffffffffffffffffffff82169050919050565b6000620000f382620000c6565b9050919050565b60006200010782620000e6565b9050919050565b6200011981620000fa565b81146200012557600080fd5b50565b60008151905062000139816200010e565b92915050565b60006200014c82620000e6565b9050919050565b6200015e816200013f565b81146200016a57600080fd5b50565b6000815190506200017e8162000153565b92915050565b600080604083850312156200019e576200019d620000c1565b5b6000620001ae8582860162000128565b9250506020620001c1858286016200016d565b9150509250929050565b6142df80620001db6000396000f3fe608060405260043610620000865760003560e01c80636fc1a2c311620000555780636fc1a2c3146200014d578063906eb21c146200017d578063ae87ca7c14620001ab578063da02c9de14620001ef5762000086565b80630876290a146200008b57806335df350914620000ab5780634cb3a34514620000db5780636627cbd61462000109575b600080fd5b620000a96004803603810190620000a3919062001ab1565b62000233565b005b348015620000b857600080fd5b50620000c362000ff0565b604051620000d2919062001b09565b60405180910390f35b348015620000e857600080fd5b5062000107600480360381019062000101919062001b8b565b62000ffa565b005b3480156200011657600080fd5b506200013560048036038101906200012f919062001bfd565b6200128b565b60405162000144919062001d57565b60405180910390f35b3480156200015a57600080fd5b506200016562001377565b60405162000174919062001b09565b60405180910390f35b3480156200018a57600080fd5b50620001a96004803603810190620001a3919062001d7b565b6200137d565b005b348015620001b857600080fd5b50620001d76004803603810190620001d1919062001dd7565b62001605565b604051620001e6919062002028565b60405180910390f35b348015620001fc57600080fd5b506200021b600480360381019062000215919062001bfd565b620018b9565b6040516200022a9190620020e1565b60405180910390f35b600080600084815260200190815260200160002060040182815481106200025f576200025e62002105565b5b9060005260206000200160009054906101000a900473ffffffffffffffffffffffffffffffffffffffff1690503373ffffffffffffffffffffffffffffffffffffffff168173ffffffffffffffffffffffffffffffffffffffff1614620002fd576040517f08c379a0000000000000000000000000000000000000000000000000000000008152600401620002f490620021bb565b60405180910390fd5b600042905060008273ffffffffffffffffffffffffffffffffffffffff1663d67bdd256040518163ffffffff1660e01b8152600401602060405180830381865afa15801562000350573d6000803e3d6000fd5b505050506040513d601f19601f82011682018060405250810190620003769190620021f4565b9050600560009054906101000a900473ffffffffffffffffffffffffffffffffffffffff1673ffffffffffffffffffffffffffffffffffffffff1663e2670971828573ffffffffffffffffffffffffffffffffffffffff1663aa8c217c6040518163ffffffff1660e01b8152600401602060405180830381865afa15801562000403573d6000803e3d6000fd5b505050506040513d601f19601f820116820180604052508101906200042991906200223d565b600560009054906101000a900473ffffffffffffffffffffffffffffffffffffffff1673ffffffffffffffffffffffffffffffffffffffff1663cb8ab15b866040518263ffffffff1660e01b815260040162000486919062002280565b602060405180830381865afa158015620004a4573d6000803e3d6000fd5b505050506040513d601f19601f82011682018060405250810190620004ca91906200223d565b620004d69190620022cc565b6040518363ffffffff1660e01b8152600401620004f592919062002307565b600060405180830381600087803b1580156200051057600080fd5b505af115801562000525573d6000803e3d6000fd5b50505050600460009054906101000a900473ffffffffffffffffffffffffffffffffffffffff1673ffffffffffffffffffffffffffffffffffffffff16633f9b696c828573ffffffffffffffffffffffffffffffffffffffff1663aa8c217c6040518163ffffffff1660e01b8152600401602060405180830381865afa158015620005b4573d6000803e3d6000fd5b505050506040513d601f19601f82011682018060405250810190620005da91906200223d565b6040518363ffffffff1660e01b8152600401620005f992919062002307565b600060405180830381600087803b1580156200061457600080fd5b505af115801562000629573d6000803e3d6000fd5b50505050600460009054906101000a900473ffffffffffffffffffffffffffffffffffffffff1673ffffffffffffffffffffffffffffffffffffffff16632f0a323e82848673ffffffffffffffffffffffffffffffffffffffff1663aa8c217c6040518163ffffffff1660e01b8152600401602060405180830381865afa158015620006b9573d6000803e3d6000fd5b505050506040513d601f19601f82011682018060405250810190620006df91906200223d565b6040518463ffffffff1660e01b8152600401620006ff9392919062002334565b600060405180830381600087803b1580156200071a57600080fd5b505af11580156200072f573d6000803e3d6000fd5b50505050600460009054906101000a900473ffffffffffffffffffffffffffffffffffffffff1673ffffffffffffffffffffffffffffffffffffffff1663e6b02333826000856040518463ffffffff1660e01b81526004016200079593929190620023b4565b600060405180830381600087803b158015620007b057600080fd5b505af1158015620007c5573d6000803e3d6000fd5b50505050600080600087815260200190815260200160002060020160009054906101000a900473ffffffffffffffffffffffffffffffffffffffff1690508373ffffffffffffffffffffffffffffffffffffffff1663aa8c217c6040518163ffffffff1660e01b8152600401602060405180830381865afa1580156200084f573d6000803e3d6000fd5b505050506040513d601f19601f820116820180604052508101906200087591906200223d565b600560009054906101000a900473ffffffffffffffffffffffffffffffffffffffff1673ffffffffffffffffffffffffffffffffffffffff1663cb8ab15b836040518263ffffffff1660e01b8152600401620008d2919062002280565b602060405180830381865afa158015620008f0573d6000803e3d6000fd5b505050506040513d601f19601f820116820180604052508101906200091691906200223d565b10156200095a576040517f08c379a0000000000000000000000000000000000000000000000000000000008152600401620009519062002467565b60405180910390fd5b600560009054906101000a900473ffffffffffffffffffffffffffffffffffffffff1673ffffffffffffffffffffffffffffffffffffffff1663e2670971828673ffffffffffffffffffffffffffffffffffffffff1663aa8c217c6040518163ffffffff1660e01b8152600401602060405180830381865afa158015620009e5573d6000803e3d6000fd5b505050506040513d601f19601f8201168201806040525081019062000a0b91906200223d565b600560009054906101000a900473ffffffffffffffffffffffffffffffffffffffff1673ffffffffffffffffffffffffffffffffffffffff1663cb8ab15b866040518263ffffffff1660e01b815260040162000a68919062002280565b602060405180830381865afa15801562000a86573d6000803e3d6000fd5b505050506040513d601f19601f8201168201806040525081019062000aac91906200223d565b62000ab8919062002489565b6040518363ffffffff1660e01b815260040162000ad792919062002307565b600060405180830381600087803b15801562000af257600080fd5b505af115801562000b07573d6000803e3d6000fd5b50505050600460009054906101000a900473ffffffffffffffffffffffffffffffffffffffff1673ffffffffffffffffffffffffffffffffffffffff1663e8b8530f828673ffffffffffffffffffffffffffffffffffffffff1663aa8c217c6040518163ffffffff1660e01b8152600401602060405180830381865afa15801562000b96573d6000803e3d6000fd5b505050506040513d601f19601f8201168201806040525081019062000bbc91906200223d565b6040518363ffffffff1660e01b815260040162000bdb92919062002307565b600060405180830381600087803b15801562000bf657600080fd5b505af115801562000c0b573d6000803e3d6000fd5b50505050600460009054906101000a900473ffffffffffffffffffffffffffffffffffffffff1673ffffffffffffffffffffffffffffffffffffffff16631e7ba9cd82858773ffffffffffffffffffffffffffffffffffffffff1663aa8c217c6040518163ffffffff1660e01b8152600401602060405180830381865afa15801562000c9b573d6000803e3d6000fd5b505050506040513d601f19601f8201168201806040525081019062000cc191906200223d565b6040518463ffffffff1660e01b815260040162000ce19392919062002334565b600060405180830381600087803b15801562000cfc57600080fd5b505af115801562000d11573d6000803e3d6000fd5b50505050600460009054906101000a900473ffffffffffffffffffffffffffffffffffffffff1673ffffffffffffffffffffffffffffffffffffffff1663e6b02333826001866040518463ffffffff1660e01b815260040162000d779392919062002507565b600060405180830381600087803b15801562000d9257600080fd5b505af115801562000da7573d6000803e3d6000fd5b505050508373ffffffffffffffffffffffffffffffffffffffff1663aa8c217c6040518163ffffffff1660e01b8152600401602060405180830381865afa15801562000df7573d6000803e3d6000fd5b505050506040513d601f19601f8201168201806040525081019062000e1d91906200223d565b60008088815260200190815260200160002060010154101562000e77576040517f08c379a000000000000000000000000000000000000000000000000000000000815260040162000e6e90620025ba565b60405180910390fd5b8373ffffffffffffffffffffffffffffffffffffffff1663aa8c217c6040518163ffffffff1660e01b8152600401602060405180830381865afa15801562000ec3573d6000803e3d6000fd5b505050506040513d601f19601f8201168201806040525081019062000ee991906200223d565b600080888152602001908152602001600020600101600082825462000f0f919062002489565b925050819055506000806000888152602001908152602001600020600101540362000f6357600080600088815260200190815260200160002060020160146101000a81548160ff0219169083151502179055505b8073ffffffffffffffffffffffffffffffffffffffff166108fc349081150290604051600060405180830381858888f1935050505015801562000faa573d6000803e3d6000fd5b507f58e40951e480e0eb47a55e7fe3d9efbfcf47e2513825240c24a81843b2fb6c7b34878660405162000fe093929190620025dc565b60405180910390a1505050505050565b6000600354905090565b6000841162001040576040517f08c379a0000000000000000000000000000000000000000000000000000000008152600401620010379062002669565b60405180910390fd5b6000831162001086576040517f08c379a00000000000000000000000000000000000000000000000000000000081526004016200107d90620026db565b60405180910390fd5b6000821015620010cd576040517f08c379a0000000000000000000000000000000000000000000000000000000008152600401620010c4906200274d565b60405180910390fd5b60008083815260200190815260200160002060020160009054906101000a900473ffffffffffffffffffffffffffffffffffffffff1673ffffffffffffffffffffffffffffffffffffffff168173ffffffffffffffffffffffffffffffffffffffff160362001173576040517f08c379a00000000000000000000000000000000000000000000000000000000081526004016200116a90620027e5565b60405180910390fd5b600080600084815260200190815260200160002060040180549050905060003083878760018887604051620011a89062001a06565b620011ba97969594939291906200284d565b604051809103906000f080158015620011d7573d6000803e3d6000fd5b50905080600080868152602001908152602001600020600401600181600181540180825580915050039060005260206000200160006101000a81548173ffffffffffffffffffffffffffffffffffffffff021916908373ffffffffffffffffffffffffffffffffffffffff1602179055507fc7f10d7197fb2a9693c302afe34b2b61de0f7048c4a33a39923e281c0c93ee2283826040516200127b929190620028ca565b60405180910390a1505050505050565b60606000821015620012d4576040517f08c379a0000000000000000000000000000000000000000000000000000000008152600401620012cb906200274d565b60405180910390fd5b6000808381526020019081526020016000206004018054806020026020016040519081016040528092919081815260200182805480156200136b57602002820191906000526020600020905b8160009054906101000a900473ffffffffffffffffffffffffffffffffffffffff1673ffffffffffffffffffffffffffffffffffffffff168152602001906001019080831162001320575b50505050509050919050565b60035481565b60008311620013c3576040517f08c379a0000000000000000000000000000000000000000000000000000000008152600401620013ba906200296d565b60405180910390fd5b6000821162001409576040517f08c379a0000000000000000000000000000000000000000000000000000000008152600401620014009062002a05565b60405180910390fd5b826000806003548152602001908152602001600020600001819055508160008060035481526020019081526020016000206001018190555080600080600354815260200190815260200160002060020160006101000a81548173ffffffffffffffffffffffffffffffffffffffff021916908373ffffffffffffffffffffffffffffffffffffffff1602179055506001600080600354815260200190815260200160002060020160146101000a81548160ff021916908315150217905550426000806003548152602001908152602001600020600301819055506001806000600354815260200190815260200160002060006101000a81548160ff021916908315150217905550600560009054906101000a900473ffffffffffffffffffffffffffffffffffffffff1673ffffffffffffffffffffffffffffffffffffffff1663c331d842826003546040518363ffffffff1660e01b81526004016200157192919062002307565b600060405180830381600087803b1580156200158c57600080fd5b505af1158015620015a1573d6000803e3d6000fd5b505050507f70d4f73f8dc596f6b7f1d3996153d2ae6e391837c8ad344b8f32ffe96fbbed9c816003548585604051620015de949392919062002a27565b60405180910390a160036000815480929190620015fb9062002a74565b9190505550505050565b60606000600560009054906101000a900473ffffffffffffffffffffffffffffffffffffffff1673ffffffffffffffffffffffffffffffffffffffff16631d036d7d846040518263ffffffff1660e01b815260040162001666919062002280565b600060405180830381865afa15801562001684573d6000803e3d6000fd5b505050506040513d6000823e3d601f19601f82011682018060405250810190620016af919062002c36565b90506000815167ffffffffffffffff811115620016d157620016d062002ad7565b5b6040519080825280602002602001820160405280156200170e57816020015b620016fa62001a14565b815260200190600190039081620016f05790505b50905060005b8251811015620018ae5760008084838151811062001737576200173662002105565b5b602002602001015181526020019081526020016000206040518060c001604052908160008201548152602001600182015481526020016002820160009054906101000a900473ffffffffffffffffffffffffffffffffffffffff1673ffffffffffffffffffffffffffffffffffffffff1673ffffffffffffffffffffffffffffffffffffffff1681526020016002820160149054906101000a900460ff1615151515815260200160038201548152602001600482018054806020026020016040519081016040528092919081815260200182805480156200186e57602002820191906000526020600020905b8160009054906101000a900473ffffffffffffffffffffffffffffffffffffffff1673ffffffffffffffffffffffffffffffffffffffff168152602001906001019080831162001823575b5050505050815250508282815181106200188d576200188c62002105565b5b60200260200101819052508080620018a59062002a74565b91505062001714565b508092505050919050565b620018c362001a14565b6000808381526020019081526020016000206040518060c001604052908160008201548152602001600182015481526020016002820160009054906101000a900473ffffffffffffffffffffffffffffffffffffffff1673ffffffffffffffffffffffffffffffffffffffff1673ffffffffffffffffffffffffffffffffffffffff1681526020016002820160149054906101000a900460ff161515151581526020016003820154815260200160048201805480602002602001604051908101604052809291908181526020018280548015620019f657602002820191906000526020600020905b8160009054906101000a900473ffffffffffffffffffffffffffffffffffffffff1673ffffffffffffffffffffffffffffffffffffffff1681526020019060010190808311620019ab575b5050505050815250509050919050565b6116228062002c8883390190565b6040518060c001604052806000815260200160008152602001600073ffffffffffffffffffffffffffffffffffffffff16815260200160001515815260200160008152602001606081525090565b6000604051905090565b600080fd5b600080fd5b6000819050919050565b62001a8b8162001a76565b811462001a9757600080fd5b50565b60008135905062001aab8162001a80565b92915050565b6000806040838503121562001acb5762001aca62001a6c565b5b600062001adb8582860162001a9a565b925050602062001aee8582860162001a9a565b9150509250929050565b62001b038162001a76565b82525050565b600060208201905062001b20600083018462001af8565b92915050565b600073ffffffffffffffffffffffffffffffffffffffff82169050919050565b600062001b538262001b26565b9050919050565b62001b658162001b46565b811462001b7157600080fd5b50565b60008135905062001b858162001b5a565b92915050565b6000806000806080858703121562001ba85762001ba762001a6c565b5b600062001bb88782880162001a9a565b945050602062001bcb8782880162001a9a565b935050604062001bde8782880162001a9a565b925050606062001bf18782880162001b74565b91505092959194509250565b60006020828403121562001c165762001c1562001a6c565b5b600062001c268482850162001a9a565b91505092915050565b600081519050919050565b600082825260208201905092915050565b6000819050602082019050919050565b6000819050919050565b600062001c8662001c8062001c7a8462001b26565b62001c5b565b62001b26565b9050919050565b600062001c9a8262001c65565b9050919050565b600062001cae8262001c8d565b9050919050565b62001cc08162001ca1565b82525050565b600062001cd4838362001cb5565b60208301905092915050565b6000602082019050919050565b600062001cfa8262001c2f565b62001d06818562001c3a565b935062001d138362001c4b565b8060005b8381101562001d4a57815162001d2e888262001cc6565b975062001d3b8362001ce0565b92505060018101905062001d17565b5085935050505092915050565b6000602082019050818103600083015262001d73818462001ced565b905092915050565b60008060006060848603121562001d975762001d9662001a6c565b5b600062001da78682870162001a9a565b935050602062001dba8682870162001a9a565b925050604062001dcd8682870162001b74565b9150509250925092565b60006020828403121562001df05762001def62001a6c565b5b600062001e008482850162001b74565b91505092915050565b600081519050919050565b600082825260208201905092915050565b6000819050602082019050919050565b62001e408162001a76565b82525050565b62001e518162001b46565b82525050565b60008115159050919050565b62001e6e8162001e57565b82525050565b600082825260208201905092915050565b600062001e928262001c2f565b62001e9e818562001e74565b935062001eab8362001c4b565b8060005b8381101562001ee257815162001ec6888262001cc6565b975062001ed38362001ce0565b92505060018101905062001eaf565b5085935050505092915050565b600060c08301600083015162001f09600086018262001e35565b50602083015162001f1e602086018262001e35565b50604083015162001f33604086018262001e46565b50606083015162001f48606086018262001e63565b50608083015162001f5d608086018262001e35565b5060a083015184820360a086015262001f77828262001e85565b9150508091505092915050565b600062001f92838362001eef565b905092915050565b6000602082019050919050565b600062001fb48262001e09565b62001fc0818562001e14565b93508360208202850162001fd48562001e25565b8060005b8581101562002016578484038952815162001ff4858262001f84565b9450620020018362001f9a565b925060208a0199505060018101905062001fd8565b50829750879550505050505092915050565b6000602082019050818103600083015262002044818462001fa7565b905092915050565b600060c08301600083015162002066600086018262001e35565b5060208301516200207b602086018262001e35565b50604083015162002090604086018262001e46565b506060830151620020a5606086018262001e63565b506080830151620020ba608086018262001e35565b5060a083015184820360a0860152620020d4828262001e85565b9150508091505092915050565b60006020820190508181036000830152620020fd81846200204c565b905092915050565b7f4e487b7100000000000000000000000000000000000000000000000000000000600052603260045260246000fd5b600082825260208201905092915050565b7f4f6e6c7920726573706f6e7365206d657373616765732061726520616c6c6f7760008201527f656420746f2074726967676572207061796d656e742070726f63657373000000602082015250565b6000620021a3603d8362002134565b9150620021b08262002145565b604082019050919050565b60006020820190508181036000830152620021d68162002194565b9050919050565b600081519050620021ee8162001b5a565b92915050565b6000602082840312156200220d576200220c62001a6c565b5b60006200221d84828501620021dd565b91505092915050565b600081519050620022378162001a80565b92915050565b60006020828403121562002256576200225562001a6c565b5b6000620022668482850162002226565b91505092915050565b6200227a8162001b46565b82525050565b60006020820190506200229760008301846200226f565b92915050565b7f4e487b7100000000000000000000000000000000000000000000000000000000600052601160045260246000fd5b6000620022d98262001a76565b9150620022e68362001a76565b92508282019050808211156200230157620023006200229d565b5b92915050565b60006040820190506200231e60008301856200226f565b6200232d602083018462001af8565b9392505050565b60006060820190506200234b60008301866200226f565b6200235a602083018562001af8565b62002369604083018462001af8565b949350505050565b6000819050919050565b60006200239c62002396620023908462002371565b62001c5b565b62001a76565b9050919050565b620023ae816200237b565b82525050565b6000606082019050620023cb60008301866200226f565b620023da6020830185620023a3565b620023e9604083018462001af8565b949350505050565b7f496e73756666696369656e7420656c65637472696369747920756e697473206960008201527f6e2073656c6c65722773206163636f756e740000000000000000000000000000602082015250565b60006200244f60328362002134565b91506200245c82620023f1565b604082019050919050565b60006020820190508181036000830152620024828162002440565b9050919050565b6000620024968262001a76565b9150620024a38362001a76565b9250828203905081811115620024be57620024bd6200229d565b5b92915050565b6000819050919050565b6000620024ef620024e9620024e384620024c4565b62001c5b565b62001a76565b9050919050565b6200250181620024ce565b82525050565b60006060820190506200251e60008301866200226f565b6200252d6020830185620024f6565b6200253c604083018462001af8565b949350505050565b7f496e73756666696369656e742073656c6c696e6720756e69747320696e20736560008201527f6c6c696e6720706f737400000000000000000000000000000000000000000000602082015250565b6000620025a2602a8362002134565b9150620025af8262002544565b604082019050919050565b60006020820190508181036000830152620025d58162002593565b9050919050565b6000606082019050620025f3600083018662001af8565b62002602602083018562001af8565b6200261160408301846200226f565b949350505050565b7f616d6f756e74206d7573742062652067726561746572207468616e2030000000600082015250565b600062002651601d8362002134565b91506200265e8262002619565b602082019050919050565b60006020820190508181036000830152620026848162002642565b9050919050565b7f71756f746174696f6e206d7573742062652067726561746572207468616e2030600082015250565b6000620026c360208362002134565b9150620026d0826200268b565b602082019050919050565b60006020820190508181036000830152620026f681620026b4565b9050919050565b7f706f7374206b6579207374617274732066726f6d203000000000000000000000600082015250565b60006200273560168362002134565b91506200274282620026fd565b602082019050919050565b60006020820190508181036000830152620027688162002726565b9050919050565b7f596f752063616e6e6f74207265706c7920746f20796f7572206f776e2073656c60008201527f6c696e6720706f73740000000000000000000000000000000000000000000000602082015250565b6000620027cd60298362002134565b9150620027da826200276f565b604082019050919050565b600060208201905081810360008301526200280081620027be565b9050919050565b600060ff82169050919050565b6000620028356200282f6200282984620024c4565b62001c5b565b62002807565b9050919050565b620028478162002814565b82525050565b600060e08201905062002864600083018a6200226f565b6200287360208301896200226f565b62002882604083018862001af8565b62002891606083018762001af8565b620028a060808301866200283c565b620028af60a083018562001af8565b620028be60c083018462001af8565b98975050505050505050565b6000604082019050620028e160008301856200226f565b620028f060208301846200226f565b9392505050565b7f7075726368617365207072696365206d7573742062652067726561746572207460008201527f68616e2030000000000000000000000000000000000000000000000000000000602082015250565b60006200295560258362002134565b91506200296282620028f7565b604082019050919050565b60006020820190508181036000830152620029888162002946565b9050919050565b7f616d6f756e7420746f20627579206d757374206265206772656174657220746860008201527f616e203000000000000000000000000000000000000000000000000000000000602082015250565b6000620029ed60248362002134565b9150620029fa826200298f565b604082019050919050565b6000602082019050818103600083015262002a2081620029de565b9050919050565b600060808201905062002a3e60008301876200226f565b62002a4d602083018662001af8565b62002a5c604083018562001af8565b62002a6b606083018462001af8565b95945050505050565b600062002a818262001a76565b91507fffffffffffffffffffffffffffffffffffffffffffffffffffffffffffffffff820362002ab65762002ab56200229d565b5b600182019050919050565b600080fd5b6000601f19601f8301169050919050565b7f4e487b7100000000000000000000000000000000000000000000000000000000600052604160045260246000fd5b62002b118262002ac6565b810181811067ffffffffffffffff8211171562002b335762002b3262002ad7565b5b80604052505050565b600062002b4862001a62565b905062002b56828262002b06565b919050565b600067ffffffffffffffff82111562002b795762002b7862002ad7565b5b602082029050602081019050919050565b600080fd5b600062002ba662002ba08462002b5b565b62002b3c565b9050808382526020820190506020840283018581111562002bcc5762002bcb62002b8a565b5b835b8181101562002bf9578062002be4888262002226565b84526020840193505060208101905062002bce565b5050509392505050565b600082601f83011262002c1b5762002c1a62002ac1565b5b815162002c2d84826020860162002b8f565b91505092915050565b60006020828403121562002c4f5762002c4e62001a6c565b5b600082015167ffffffffffffffff81111562002c705762002c6f62001a71565b5b62002c7e8482850162002c03565b9150509291505056fe60806040523480156200001157600080fd5b50604051620016223803806200162283398181016040528101906200003791906200021c565b86600860006101000a81548173ffffffffffffffffffffffffffffffffffffffff021916908373ffffffffffffffffffffffffffffffffffffffff160217905550856000806101000a81548173ffffffffffffffffffffffffffffffffffffffff021916908373ffffffffffffffffffffffffffffffffffffffff160217905550846001819055508360028190555082600360006101000a81548160ff021916908360ff16021790555081600481905550806005819055506000600660006101000a81548160ff0219169083151502179055506000600660016101000a81548160ff0219169083151502179055504260078190555050505050505050620002cf565b600080fd5b600073ffffffffffffffffffffffffffffffffffffffff82169050919050565b60006200016b826200013e565b9050919050565b6200017d816200015e565b81146200018957600080fd5b50565b6000815190506200019d8162000172565b92915050565b6000819050919050565b620001b881620001a3565b8114620001c457600080fd5b50565b600081519050620001d881620001ad565b92915050565b600060ff82169050919050565b620001f681620001de565b81146200020257600080fd5b50565b6000815190506200021681620001eb565b92915050565b600080600080600080600060e0888a0312156200023e576200023d62000139565b5b60006200024e8a828b016200018c565b9750506020620002618a828b016200018c565b9650506040620002748a828b01620001c7565b9550506060620002878a828b01620001c7565b94505060806200029a8a828b0162000205565b93505060a0620002ad8a828b01620001c7565b92505060c0620002c08a828b01620001c7565b91505092959891949750929550565b61134380620002df6000396000f3fe6080604052600436106100c65760003560e01c806382fa096a1161007f578063abf4d6c411610059578063abf4d6c414610424578063c32b9b531461042e578063cf09e0d014610438578063d67bdd25146104635761029e565b806382fa096a146103a3578063a03a202e146103ce578063aa8c217c146103f95761029e565b806304dc4cda146102a3578063209ebc08146102ce5780633013aa25146102f95780633d855485146103225780633e784e631461034d5780635051a5ec146103785761029e565b3661029e576000341161010e576040517f08c379a000000000000000000000000000000000000000000000000000000000815260040161010590610b63565b60405180910390fd5b60011515600660009054906101000a900460ff16151514610164576040517f08c379a000000000000000000000000000000000000000000000000000000000815260040161015b90610bf5565b60405180910390fd5b346002546001546101759190610c4e565b146101b5576040517f08c379a00000000000000000000000000000000000000000000000000000000081526004016101ac90610cdc565b60405180910390fd5b60001515600660019054906101000a900460ff1615151461020b576040517f08c379a000000000000000000000000000000000000000000000000000000000815260040161020290610d48565b60405180910390fd5b6000600360009054906101000a900460ff1660ff16036102325761022d61048e565b61029c565b6001600360009054906101000a900460ff1660ff16036102595761025461069d565b61029b565b600061029a576040517f08c379a000000000000000000000000000000000000000000000000000000000815260040161029190610db4565b60405180910390fd5b5b5b005b600080fd5b3480156102af57600080fd5b506102b86108ac565b6040516102c59190610df0565b60405180910390f35b3480156102da57600080fd5b506102e36108bf565b6040516102f09190610e26565b60405180910390f35b34801561030557600080fd5b50610320600480360381019061031b9190610e72565b6108d2565b005b34801561032e57600080fd5b5061033761093d565b6040516103449190610eae565b60405180910390f35b34801561035957600080fd5b50610362610943565b60405161036f9190610eae565b60405180910390f35b34801561038457600080fd5b5061038d610949565b60405161039a9190610e26565b60405180910390f35b3480156103af57600080fd5b506103b861095c565b6040516103c59190610fee565b60405180910390f35b3480156103da57600080fd5b506103e3610a67565b6040516103f09190610eae565b60405180910390f35b34801561040557600080fd5b5061040e610a6d565b60405161041b9190610eae565b60405180910390f35b61042c61048e565b005b61043661069d565b005b34801561044457600080fd5b5061044d610a73565b60405161045a9190610eae565b60405180910390f35b34801561046f57600080fd5b50610478610a79565b6040516104859190611019565b60405180910390f35b60008054906101000a900473ffffffffffffffffffffffffffffffffffffffff1673ffffffffffffffffffffffffffffffffffffffff163373ffffffffffffffffffffffffffffffffffffffff160361051c576040517f08c379a0000000000000000000000000000000000000000000000000000000008152600401610513906110a6565b60405180910390fd5b6000600860009054906101000a900473ffffffffffffffffffffffffffffffffffffffff1673ffffffffffffffffffffffffffffffffffffffff163460045460055460405160240161056f9291906110c6565b6040516020818303038152906040527f3d480db5000000000000000000000000000000000000000000000000000000007bffffffffffffffffffffffffffffffffffffffffffffffffffffffff19166020820180517bffffffffffffffffffffffffffffffffffffffffffffffffffffffff83818316178352505050506040516105f99190611160565b60006040518083038185875af1925050503d8060008114610636576040519150601f19603f3d011682016040523d82523d6000602084013e61063b565b606091505b505090508061067f576040517f08c379a0000000000000000000000000000000000000000000000000000000008152600401610676906111c3565b60405180910390fd5b6001600660016101000a81548160ff02191690831515021790555050565b60008054906101000a900473ffffffffffffffffffffffffffffffffffffffff1673ffffffffffffffffffffffffffffffffffffffff163373ffffffffffffffffffffffffffffffffffffffff161461072b576040517f08c379a00000000000000000000000000000000000000000000000000000000081526004016107229061127b565b60405180910390fd5b6000600860009054906101000a900473ffffffffffffffffffffffffffffffffffffffff1673ffffffffffffffffffffffffffffffffffffffff163460045460055460405160240161077e9291906110c6565b6040516020818303038152906040527f0876290a000000000000000000000000000000000000000000000000000000007bffffffffffffffffffffffffffffffffffffffffffffffffffffffff19166020820180517bffffffffffffffffffffffffffffffffffffffffffffffffffffffff83818316178352505050506040516108089190611160565b60006040518083038185875af1925050503d8060008114610845576040519150601f19603f3d011682016040523d82523d6000602084013e61084a565b606091505b505090508061088e576040517f08c379a0000000000000000000000000000000000000000000000000000000008152600401610885906111c3565b60405180910390fd5b6001600660016101000a81548160ff02191690831515021790555050565b600360009054906101000a900460ff1681565b600660019054906101000a900460ff1681565b80600660006101000a81548160ff0219169083151502179055507f9161e5ec70df4a8ef9f6085e3435135f3da64c7ec32c271912e1ca8d4afbd7c3600360009054906101000a900460ff16600454600554604051610932939291906112d6565b60405180910390a150565b60045481565b60055481565b600660009054906101000a900460ff1681565b610964610a9d565b61096c610a9d565b60008054906101000a900473ffffffffffffffffffffffffffffffffffffffff16816000019073ffffffffffffffffffffffffffffffffffffffff16908173ffffffffffffffffffffffffffffffffffffffff1681525050600154816020018181525050600254816040018181525050600360009054906101000a900460ff16816060019060ff16908160ff16815250506004548160800181815250506005548160a0018181525050600660009054906101000a900460ff168160c0019015159081151581525050600660019054906101000a900460ff168160e0019015159081151581525050600754816101000181815250508091505090565b60025481565b60015481565b60075481565b60008054906101000a900473ffffffffffffffffffffffffffffffffffffffff1681565b604051806101200160405280600073ffffffffffffffffffffffffffffffffffffffff1681526020016000815260200160008152602001600060ff1681526020016000815260200160008152602001600015158152602001600015158152602001600081525090565b600082825260208201905092915050565b7f696e76616c6964207061796d656e740000000000000000000000000000000000600082015250565b6000610b4d600f83610b06565b9150610b5882610b17565b602082019050919050565b60006020820190508181036000830152610b7c81610b40565b9050919050565b7f796f757220726573706f6e736520686173206e6f74206265656e20616363657060008201527f7465642062792073656c6c657220796574000000000000000000000000000000602082015250565b6000610bdf603183610b06565b9150610bea82610b83565b604082019050919050565b60006020820190508181036000830152610c0e81610bd2565b9050919050565b6000819050919050565b7f4e487b7100000000000000000000000000000000000000000000000000000000600052601160045260246000fd5b6000610c5982610c15565b9150610c6483610c15565b9250828202610c7281610c15565b91508282048414831517610c8957610c88610c1f565b5b5092915050565b7f4e6f742066756c6c792070616964207965740000000000000000000000000000600082015250565b6000610cc6601283610b06565b9150610cd182610c90565b602082019050919050565b60006020820190508181036000830152610cf581610cb9565b9050919050565b7f4f7264657220697320616c726561647920706169642100000000000000000000600082015250565b6000610d32601683610b06565b9150610d3d82610cfc565b602082019050919050565b60006020820190508181036000830152610d6181610d25565b9050919050565b7f696e76616c696420726573706f6e7365206d6573736167652074797065000000600082015250565b6000610d9e601d83610b06565b9150610da982610d68565b602082019050919050565b60006020820190508181036000830152610dcd81610d91565b9050919050565b600060ff82169050919050565b610dea81610dd4565b82525050565b6000602082019050610e056000830184610de1565b92915050565b60008115159050919050565b610e2081610e0b565b82525050565b6000602082019050610e3b6000830184610e17565b92915050565b600080fd5b610e4f81610e0b565b8114610e5a57600080fd5b50565b600081359050610e6c81610e46565b92915050565b600060208284031215610e8857610e87610e41565b5b6000610e9684828501610e5d565b91505092915050565b610ea881610c15565b82525050565b6000602082019050610ec36000830184610e9f565b92915050565b600073ffffffffffffffffffffffffffffffffffffffff82169050919050565b6000610ef482610ec9565b9050919050565b610f0481610ee9565b82525050565b610f1381610c15565b82525050565b610f2281610dd4565b82525050565b610f3181610e0b565b82525050565b61012082016000820151610f4e6000850182610efb565b506020820151610f616020850182610f0a565b506040820151610f746040850182610f0a565b506060820151610f876060850182610f19565b506080820151610f9a6080850182610f0a565b5060a0820151610fad60a0850182610f0a565b5060c0820151610fc060c0850182610f28565b5060e0820151610fd360e0850182610f28565b50610100820151610fe8610100850182610f0a565b50505050565b6000610120820190506110046000830184610f37565b92915050565b61101381610ee9565b82525050565b600060208201905061102e600083018461100a565b92915050565b7f596f752063616e6e6f74206d616b652061207061796d656e7420746f20796f7560008201527f72206f776e2073656c6c696e6720726573706f6e7365206d6573736167650000602082015250565b6000611090603e83610b06565b915061109b82611034565b604082019050919050565b600060208201905081810360008301526110bf81611083565b9050919050565b60006040820190506110db6000830185610e9f565b6110e86020830184610e9f565b9392505050565b600081519050919050565b600081905092915050565b60005b83811015611123578082015181840152602081019050611108565b60008484015250505050565b600061113a826110ef565b61114481856110fa565b9350611154818560208601611105565b80840191505092915050565b600061116c828461112f565b915081905092915050565b7f7061796d656e74206661696c6564000000000000000000000000000000000000600082015250565b60006111ad600e83610b06565b91506111b882611177565b602082019050919050565b600060208201905081810360008301526111dc816111a0565b9050919050565b7f4f6e6c7920746865206d6573736167652073656e6465722077686f2073656e7460008201527f207468697320726573706f6e736520746f206163717569726520656c6563747260208201527f696369747920756e6974732063616e206d616b652061207061796d656e740000604082015250565b6000611265605e83610b06565b9150611270826111e3565b606082019050919050565b6000602082019050818103600083015261129481611258565b9050919050565b6000819050919050565b60006112c06112bb6112b684610dd4565b61129b565b610c15565b9050919050565b6112d0816112a5565b82525050565b60006060820190506112eb60008301866112c7565b6112f86020830185610e9f565b6113056040830184610e9f565b94935050505056fea264697066735822122073e925c02640f54ec6f797a0c5db83b3650b31ffafe16a7aa55534274ce1d24064736f6c63430008110033a26469706673582212202a209645d475c4db585c6f6567d6d53b632c913d5df0ff9c73c59594f051b40764736f6c63430008110033",
  "immutableReferences": {},
  "source": "//SPDX-License-Identifier: MIT\n\npragma solidity ^0.8.0;\n\nimport \"./BeanStructs.sol\";\nimport \"./BuyerService.sol\";\nimport \"./SellerService.sol\";\nimport \"./UserService.sol\";\nimport \"./StatisticsService.sol\";\n\n// system contract\ncontract MainSystem is BeanStructs {\n\n    UserService private  userService;\n    StatisticsService private statisticsService;\n    BuyerService private  buyerService;\n    SellerService  private sellerService;\n    \n    // ------------------------- constructor ------------------------- \n    constructor() {\n        // 1.initialize services and mount them to reference variables\n        userService = new UserService(address(this));\n        statisticsService = new StatisticsService();\n        buyerService = new BuyerService(statisticsService, userService);       \n        sellerService = new SellerService(statisticsService, userService);      \n        userService.initializeContractAddresses(address(buyerService), address(sellerService)); \n    }\n\n    // -------------------------buyer service API -------------------------\n    \n    // buyer -  create a new purchase post\n    function createPurchasePost (uint _priceToBuy, uint _amountToBuy) public {\n        buyerService.createPurchasePost(_priceToBuy, _amountToBuy, msg.sender);\n    }\n\n    // seller - create purchase post response messages\n    function createResponseMessageToPurchasePost(uint _amountToSell, uint _quotationInWei, uint _purchasePostKey) public {\n        buyerService.createResponseMessageToPurchasePost(_amountToSell, _quotationInWei, _purchasePostKey, msg.sender);\n    }\n\n    // returns all purchase posts by user address\n    function returnAllPurchasePostsByAddress(address _account) public view returns (PurchasePost[] memory) {\n        return buyerService.returnAllPurchasePostsByAddress(_account);\n    }\n\n     // return total number of purchase posts in the system\n    function returnPurchasePostMapSize() public view returns(uint) {\n        return buyerService.returnPurchasePostMapSize();\n    }\n\n    // return one purchase post by user address and post key\n    function getPurchasePostByKey(uint _postKey) public view returns(PurchasePost memory) {\n        return buyerService.getPurchasePostByKey(_postKey);\n    }\n\n    // return all response messages of a purchase post by post key\n    function returnPurchasePostResponseMessagesByKey(uint _postKey) public view returns(PostResponseMessage[] memory){\n        return buyerService.returnPurchasePostResponseMessagesByKey(_postKey);\n    }\n\n    // ------------------------- seller service API -------------------------\n\n    // seller -  create a new selling post\n    function createSellingPost (uint _priceToSell, uint _amountToSell) public {\n        sellerService.createSellingPost(_priceToSell, _amountToSell, msg.sender);\n    }\n     \n    // buyer - create selling post response messages\n    // buyer creates response message and wait for confirmation from seller. buyer then pays for it once response is accepted\n    function createResponseMessageToSellingPost(uint _amountToBuy, uint _quotationInWei, uint _sellingPostKey) public {\n        sellerService.createResponseMessageToSellingPost(_amountToBuy, _quotationInWei, _sellingPostKey, msg.sender);\n    }\n\n\n    // returns all selling posts by user address\n    function returnAllSellingPostsByAddress(address _account) public view returns (SellingPost[] memory) {\n        return sellerService.returnAllSellingPostsByAddress(_account);\n    }\n\n    // return one selling post by post key\n    function getSellingPostByKey(uint _postKey) public view returns(SellingPost memory) {\n        return sellerService.getSellingPostByKey(_postKey);\n    }\n\n    // return all response messages of one post by key\n    function returnSellingPostResponseMessagesByKey(uint _postKey) public view returns(PostResponseMessage[] memory){\n        return sellerService.returnSellingPostResponseMessagesByKey(_postKey);\n    }\n\n    //new\n    function returnSellPostMapSize() public view returns(uint){\n        return sellerService.returnSellPostMapSize();\n    }\n\n    // ------------------------- user service API -------------------------\n\n    // return username by user's account address\n    function getUsernameByAddress(address _user) public view returns (string memory) {\n        return userService.getUsername(_user);\n    }\n\n    // return available electricity units by account address\n    function getAvailableElecUnitsByAccountAddress(address _user) public view returns (uint) {\n        return userService.getAvailableElecUnits(_user);\n    }\n\n    // return an array contaning all purchase post keys that are published by a user\n    function getPurchasePostKeys(address _user) public view returns (uint[] memory) {\n        return userService.getPurchasePostKeys(_user);\n    }\n\n    // return an array contaning all selling post keys that are published by a user\n    function getSellingPostKeys(address _user) public view returns (uint[] memory) {\n        return userService.getSellingPostKeys(_user);\n    }\n\n    // set username\n    function setUsername(address _user, string memory _username) public {\n        userService.setUsername(_user, _username);\n    }  \n\n\n    // -------------------------statistics service API -------------------------\n\n    // return total buy amount by user's account address\n    function returnTotalBuyByAddress(address _accountAddress) public view returns (uint) {\n        return statisticsService.returnTotalBuyByAddress(_accountAddress);\n    }\n    \n    // return total buy amount by user's account address\n    function returnTotalSellByAddress(address _accountAddress) public view returns (uint) {\n        return statisticsService.returnTotalSellByAddress(_accountAddress);\n    }\n\n    // return 10 recent transactions (return all if transactions if total amount is less than 10)\n    function returnRecentTransactions(address _account) public view returns (TransactionBean[] memory)  {\n        return statisticsService.returnRecentTransactions(_account);\n    }\n\n    /*\n        return weekly buy transactions statistics:\n            _user: identify target user\n            _prevWeekNum: identify which week's statistics to retrieve. Value starts from 0\n                0: indicating current week\n                1: previous week\n                2: 2 weeks ago\n                ...  \n    */\n    function returnWeeklyBuyStatistics(address _user, uint _prevWeekNum) public view returns (uint[] memory) {\n        return statisticsService.returnWeeklyStatistics(_user, _prevWeekNum, 0);\n    }\n\n    /*\n        return weekly sell transactions statistics:\n            _user: identify target user\n            _prevWeekNum: identify which week's statistics to retrieve. Value starts from 0\n                0: indicating current week\n                1: previous week\n                2: 2 weeks ago\n                ...  \n    */\n    function returnWeeklySellStatistics(address _user, uint _prevWeekNum) public view returns (uint[] memory) {\n        return statisticsService.returnWeeklyStatistics(_user, _prevWeekNum, 1);\n    }\n\n\n    \n\n}",
  "sourcePath": "/Users/richard/Doc//sydney_study/22s2/5703/vue-web3-5703/truffle/contracts/MainSystem.sol",
  "compiler": {
    "name": "solc",
    "version": "0.8.17+commit.8df45f5f.Emscripten.clang"
  },
  "schemaVersion": "3.4.9",
  "updatedAt": "2022-09-27T06:04:09.500Z",
  "networkType": "ethereum",
  "devdoc": {
    "kind": "dev",
    "methods": {},
    "version": 1
  },
  "userdoc": {
    "kind": "user",
    "methods": {},
    "version": 1
  }
}