{
  "contractName": "MainSystem",
  "abi": [
    {
      "inputs": [],
      "stateMutability": "nonpayable",
      "type": "constructor"
    },
    {
      "inputs": [
        {
          "internalType": "uint256",
          "name": "_priceToBuy",
          "type": "uint256"
        },
        {
          "internalType": "uint256",
          "name": "_amountToBuy",
          "type": "uint256"
        }
      ],
      "name": "createPurchasePost",
      "outputs": [],
      "stateMutability": "nonpayable",
      "type": "function"
    },
    {
      "inputs": [
        {
          "internalType": "uint256",
          "name": "_amountToSell",
          "type": "uint256"
        },
        {
          "internalType": "uint256",
          "name": "_quotationInWei",
          "type": "uint256"
        },
        {
          "internalType": "uint256",
          "name": "_purchasePostKey",
          "type": "uint256"
        }
      ],
      "name": "createResponseMessageToPurchasePost",
      "outputs": [],
      "stateMutability": "nonpayable",
      "type": "function"
    },
    {
      "inputs": [
        {
          "internalType": "address",
          "name": "_account",
          "type": "address"
        }
      ],
      "name": "returnAllPurchasePostsByAddress",
      "outputs": [
        {
          "components": [
            {
              "internalType": "uint256",
              "name": "priceToBuy",
              "type": "uint256"
            },
            {
              "internalType": "uint256",
              "name": "amountToBuy",
              "type": "uint256"
            },
            {
              "internalType": "address",
              "name": "buyer",
              "type": "address"
            },
            {
              "internalType": "bool",
              "name": "enabled",
              "type": "bool"
            },
            {
              "internalType": "uint256",
              "name": "createdAt",
              "type": "uint256"
            },
            {
              "internalType": "contract PostResponseMessage[]",
              "name": "responseMessages",
              "type": "address[]"
            }
          ],
          "internalType": "struct BeanStructs.PurchasePost[]",
          "name": "",
          "type": "tuple[]"
        }
      ],
      "stateMutability": "view",
      "type": "function",
      "constant": true
    },
    {
      "inputs": [],
      "name": "returnPurchasePostMapSize",
      "outputs": [
        {
          "internalType": "uint256",
          "name": "",
          "type": "uint256"
        }
      ],
      "stateMutability": "view",
      "type": "function",
      "constant": true
    },
    {
      "inputs": [
        {
          "internalType": "uint256",
          "name": "_postKey",
          "type": "uint256"
        }
      ],
      "name": "getPurchasePostByKey",
      "outputs": [
        {
          "components": [
            {
              "internalType": "uint256",
              "name": "priceToBuy",
              "type": "uint256"
            },
            {
              "internalType": "uint256",
              "name": "amountToBuy",
              "type": "uint256"
            },
            {
              "internalType": "address",
              "name": "buyer",
              "type": "address"
            },
            {
              "internalType": "bool",
              "name": "enabled",
              "type": "bool"
            },
            {
              "internalType": "uint256",
              "name": "createdAt",
              "type": "uint256"
            },
            {
              "internalType": "contract PostResponseMessage[]",
              "name": "responseMessages",
              "type": "address[]"
            }
          ],
          "internalType": "struct BeanStructs.PurchasePost",
          "name": "",
          "type": "tuple"
        }
      ],
      "stateMutability": "view",
      "type": "function",
      "constant": true
    },
    {
      "inputs": [
        {
          "internalType": "uint256",
          "name": "_postKey",
          "type": "uint256"
        }
      ],
      "name": "returnPurchasePostResponseMessagesByKey",
      "outputs": [
        {
          "internalType": "contract PostResponseMessage[]",
          "name": "",
          "type": "address[]"
        }
      ],
      "stateMutability": "view",
      "type": "function",
      "constant": true
    },
    {
      "inputs": [],
      "name": "updateRecentAveragePriceforBuy",
      "outputs": [],
      "stateMutability": "nonpayable",
      "type": "function"
    },
    {
      "inputs": [],
      "name": "returnRecentAveragePriceforBuy",
      "outputs": [
        {
          "internalType": "string",
          "name": "",
          "type": "string"
        }
      ],
      "stateMutability": "view",
      "type": "function",
      "constant": true
    },
    {
      "inputs": [],
      "name": "updateAndReturnRecentAveragePriceforBuy",
      "outputs": [
        {
          "internalType": "string",
          "name": "",
          "type": "string"
        }
      ],
      "stateMutability": "nonpayable",
      "type": "function"
    },
    {
      "inputs": [
        {
          "internalType": "uint256",
          "name": "_priceToSell",
          "type": "uint256"
        },
        {
          "internalType": "uint256",
          "name": "_amountToSell",
          "type": "uint256"
        }
      ],
      "name": "createSellingPost",
      "outputs": [],
      "stateMutability": "nonpayable",
      "type": "function"
    },
    {
      "inputs": [
        {
          "internalType": "uint256",
          "name": "_amountToBuy",
          "type": "uint256"
        },
        {
          "internalType": "uint256",
          "name": "_quotationInWei",
          "type": "uint256"
        },
        {
          "internalType": "uint256",
          "name": "_sellingPostKey",
          "type": "uint256"
        }
      ],
      "name": "createResponseMessageToSellingPost",
      "outputs": [],
      "stateMutability": "nonpayable",
      "type": "function"
    },
    {
      "inputs": [
        {
          "internalType": "address",
          "name": "_account",
          "type": "address"
        }
      ],
      "name": "returnAllSellingPostsByAddress",
      "outputs": [
        {
          "components": [
            {
              "internalType": "uint256",
              "name": "priceToSell",
              "type": "uint256"
            },
            {
              "internalType": "uint256",
              "name": "amountToSell",
              "type": "uint256"
            },
            {
              "internalType": "address",
              "name": "seller",
              "type": "address"
            },
            {
              "internalType": "bool",
              "name": "enabled",
              "type": "bool"
            },
            {
              "internalType": "uint256",
              "name": "createdAt",
              "type": "uint256"
            },
            {
              "internalType": "contract PostResponseMessage[]",
              "name": "responseMessages",
              "type": "address[]"
            }
          ],
          "internalType": "struct BeanStructs.SellingPost[]",
          "name": "",
          "type": "tuple[]"
        }
      ],
      "stateMutability": "view",
      "type": "function",
      "constant": true
    },
    {
      "inputs": [
        {
          "internalType": "uint256",
          "name": "_postKey",
          "type": "uint256"
        }
      ],
      "name": "getSellingPostByKey",
      "outputs": [
        {
          "components": [
            {
              "internalType": "uint256",
              "name": "priceToSell",
              "type": "uint256"
            },
            {
              "internalType": "uint256",
              "name": "amountToSell",
              "type": "uint256"
            },
            {
              "internalType": "address",
              "name": "seller",
              "type": "address"
            },
            {
              "internalType": "bool",
              "name": "enabled",
              "type": "bool"
            },
            {
              "internalType": "uint256",
              "name": "createdAt",
              "type": "uint256"
            },
            {
              "internalType": "contract PostResponseMessage[]",
              "name": "responseMessages",
              "type": "address[]"
            }
          ],
          "internalType": "struct BeanStructs.SellingPost",
          "name": "",
          "type": "tuple"
        }
      ],
      "stateMutability": "view",
      "type": "function",
      "constant": true
    },
    {
      "inputs": [
        {
          "internalType": "uint256",
          "name": "_postKey",
          "type": "uint256"
        }
      ],
      "name": "returnSellingPostResponseMessagesByKey",
      "outputs": [
        {
          "internalType": "contract PostResponseMessage[]",
          "name": "",
          "type": "address[]"
        }
      ],
      "stateMutability": "view",
      "type": "function",
      "constant": true
    },
    {
      "inputs": [],
      "name": "returnSellPostMapSize",
      "outputs": [
        {
          "internalType": "uint256",
          "name": "",
          "type": "uint256"
        }
      ],
      "stateMutability": "view",
      "type": "function",
      "constant": true
    },
    {
      "inputs": [],
      "name": "updateRecentAveragePriceforSell",
      "outputs": [],
      "stateMutability": "nonpayable",
      "type": "function"
    },
    {
      "inputs": [],
      "name": "returnRecentAveragePriceforSell",
      "outputs": [
        {
          "internalType": "string",
          "name": "",
          "type": "string"
        }
      ],
      "stateMutability": "view",
      "type": "function",
      "constant": true
    },
    {
      "inputs": [],
      "name": "updateAndReturnRecentAveragePriceforSell",
      "outputs": [
        {
          "internalType": "string",
          "name": "",
          "type": "string"
        }
      ],
      "stateMutability": "nonpayable",
      "type": "function"
    },
    {
      "inputs": [
        {
          "internalType": "address",
          "name": "_user",
          "type": "address"
        }
      ],
      "name": "getUsernameByAddress",
      "outputs": [
        {
          "internalType": "string",
          "name": "",
          "type": "string"
        }
      ],
      "stateMutability": "view",
      "type": "function",
      "constant": true
    },
    {
      "inputs": [
        {
          "internalType": "address",
          "name": "_user",
          "type": "address"
        }
      ],
      "name": "getAvailableElecUnitsByAccountAddress",
      "outputs": [
        {
          "internalType": "uint256",
          "name": "",
          "type": "uint256"
        }
      ],
      "stateMutability": "view",
      "type": "function",
      "constant": true
    },
    {
      "inputs": [
        {
          "internalType": "address",
          "name": "_user",
          "type": "address"
        }
      ],
      "name": "getPurchasePostKeys",
      "outputs": [
        {
          "internalType": "uint256[]",
          "name": "",
          "type": "uint256[]"
        }
      ],
      "stateMutability": "view",
      "type": "function",
      "constant": true
    },
    {
      "inputs": [
        {
          "internalType": "address",
          "name": "_user",
          "type": "address"
        }
      ],
      "name": "getSellingPostKeys",
      "outputs": [
        {
          "internalType": "uint256[]",
          "name": "",
          "type": "uint256[]"
        }
      ],
      "stateMutability": "view",
      "type": "function",
      "constant": true
    },
    {
      "inputs": [
        {
          "internalType": "address",
          "name": "_user",
          "type": "address"
        },
        {
          "internalType": "string",
          "name": "_username",
          "type": "string"
        }
      ],
      "name": "setUsername",
      "outputs": [],
      "stateMutability": "nonpayable",
      "type": "function"
    },
    {
      "inputs": [
        {
          "internalType": "address",
          "name": "_user",
          "type": "address"
        }
      ],
      "name": "returnAllResponses",
      "outputs": [
        {
          "internalType": "contract PostResponseMessage[]",
          "name": "",
          "type": "address[]"
        }
      ],
      "stateMutability": "view",
      "type": "function",
      "constant": true
    },
    {
      "inputs": [
        {
          "internalType": "address",
          "name": "_accountAddress",
          "type": "address"
        }
      ],
      "name": "returnTotalBuyByAddress",
      "outputs": [
        {
          "internalType": "uint256",
          "name": "",
          "type": "uint256"
        }
      ],
      "stateMutability": "view",
      "type": "function",
      "constant": true
    },
    {
      "inputs": [
        {
          "internalType": "address",
          "name": "_accountAddress",
          "type": "address"
        }
      ],
      "name": "returnTotalSellByAddress",
      "outputs": [
        {
          "internalType": "uint256",
          "name": "",
          "type": "uint256"
        }
      ],
      "stateMutability": "view",
      "type": "function",
      "constant": true
    },
    {
      "inputs": [
        {
          "internalType": "address",
          "name": "_account",
          "type": "address"
        }
      ],
      "name": "returnRecentTransactions",
      "outputs": [
        {
          "components": [
            {
              "internalType": "uint256",
              "name": "createdAt",
              "type": "uint256"
            },
            {
              "internalType": "uint256",
              "name": "transactionType",
              "type": "uint256"
            },
            {
              "internalType": "uint256",
              "name": "transactionValue",
              "type": "uint256"
            }
          ],
          "internalType": "struct BeanStructs.TransactionBean[]",
          "name": "",
          "type": "tuple[]"
        }
      ],
      "stateMutability": "view",
      "type": "function",
      "constant": true
    },
    {
      "inputs": [
        {
          "internalType": "address",
          "name": "_user",
          "type": "address"
        },
        {
          "internalType": "uint256",
          "name": "_prevWeekNum",
          "type": "uint256"
        }
      ],
      "name": "returnWeeklyBuyStatistics",
      "outputs": [
        {
          "internalType": "uint256[]",
          "name": "",
          "type": "uint256[]"
        }
      ],
      "stateMutability": "view",
      "type": "function",
      "constant": true
    },
    {
      "inputs": [
        {
          "internalType": "address",
          "name": "_user",
          "type": "address"
        },
        {
          "internalType": "uint256",
          "name": "_prevWeekNum",
          "type": "uint256"
        }
      ],
      "name": "returnWeeklySellStatistics",
      "outputs": [
        {
          "internalType": "uint256[]",
          "name": "",
          "type": "uint256[]"
        }
      ],
      "stateMutability": "view",
      "type": "function",
      "constant": true
    },
    {
      "inputs": [
        {
          "internalType": "address",
          "name": "_user",
          "type": "address"
        },
        {
          "internalType": "uint256",
          "name": "_prevWeekNum",
          "type": "uint256"
        }
      ],
      "name": "returnWeeklyTotalBuyAndSell",
      "outputs": [
        {
          "internalType": "uint256[2]",
          "name": "",
          "type": "uint256[2]"
        }
      ],
      "stateMutability": "view",
      "type": "function",
      "constant": true
    },
    {
      "inputs": [
        {
          "internalType": "address",
          "name": "_user",
          "type": "address"
        },
        {
          "internalType": "uint256",
          "name": "_units",
          "type": "uint256"
        }
      ],
      "name": "addAvailableElecUnits",
      "outputs": [],
      "stateMutability": "nonpayable",
      "type": "function"
    }
  ],
  "bytecode": "0x60806040523480156200001157600080fd5b5030604051620000219062000388565b6200002d919062000413565b604051809103906000f0801580156200004a573d6000803e3d6000fd5b506000806101000a81548173ffffffffffffffffffffffffffffffffffffffff021916908373ffffffffffffffffffffffffffffffffffffffff160217905550604051620000989062000396565b604051809103906000f080158015620000b5573d6000803e3d6000fd5b50600160006101000a81548173ffffffffffffffffffffffffffffffffffffffff021916908373ffffffffffffffffffffffffffffffffffffffff16021790555060006040516200010690620003a4565b604051809103906000f08015801562000123573d6000803e3d6000fd5b509050600160009054906101000a900473ffffffffffffffffffffffffffffffffffffffff1660008054906101000a900473ffffffffffffffffffffffffffffffffffffffff16826040516200017990620003b2565b6200018793929190620004e5565b604051809103906000f080158015620001a4573d6000803e3d6000fd5b50600260006101000a81548173ffffffffffffffffffffffffffffffffffffffff021916908373ffffffffffffffffffffffffffffffffffffffff160217905550600160009054906101000a900473ffffffffffffffffffffffffffffffffffffffff1660008054906101000a900473ffffffffffffffffffffffffffffffffffffffff16826040516200023890620003c0565b6200024693929190620004e5565b604051809103906000f08015801562000263573d6000803e3d6000fd5b50600360006101000a81548173ffffffffffffffffffffffffffffffffffffffff021916908373ffffffffffffffffffffffffffffffffffffffff160217905550600033905060008054906101000a900473ffffffffffffffffffffffffffffffffffffffff1673ffffffffffffffffffffffffffffffffffffffff1663d4093bdb600260009054906101000a900473ffffffffffffffffffffffffffffffffffffffff16600360009054906101000a900473ffffffffffffffffffffffffffffffffffffffff16846040518463ffffffff1660e01b81526004016200034c9392919062000522565b600060405180830381600087803b1580156200036757600080fd5b505af11580156200037c573d6000803e3d6000fd5b5050505050506200055f565b611b588062003a6e83390190565b61254680620055c683390190565b6109748062007b0c83390190565b615330806200848083390190565b615292806200d7b083390190565b600073ffffffffffffffffffffffffffffffffffffffff82169050919050565b6000620003fb82620003ce565b9050919050565b6200040d81620003ee565b82525050565b60006020820190506200042a600083018462000402565b92915050565b6000819050919050565b60006200045b620004556200044f84620003ce565b62000430565b620003ce565b9050919050565b60006200046f826200043a565b9050919050565b6000620004838262000462565b9050919050565b620004958162000476565b82525050565b6000620004a88262000462565b9050919050565b620004ba816200049b565b82525050565b6000620004cd8262000462565b9050919050565b620004df81620004c0565b82525050565b6000606082019050620004fc60008301866200048a565b6200050b6020830185620004af565b6200051a6040830184620004d4565b949350505050565b600060608201905062000539600083018662000402565b62000548602083018562000402565b62000557604083018462000402565b949350505050565b6134ff806200056f6000396000f3fe608060405234801561001057600080fd5b50600436106101e55760003560e01c8063951b3de81161010f578063ced8d530116100a2578063e3d9deb611610071578063e3d9deb6146105f2578063ebe0b8771461060e578063ed1a998d1461063e578063f139c0631461066e576101e5565b8063ced8d5301461055a578063d378b5fe1461058a578063da02c9de146105a6578063e2045452146105d6576101e5565b8063b5387dc5116100de578063b5387dc5146104ae578063b5f7850c146104de578063c9fd5420146104fa578063cd4025191461052a576101e5565b8063951b3de814610412578063ade7cdfb14610430578063ae87ca7c14610460578063b4d2a0c414610490576101e5565b806347f39ced116101875780636e6181ec116101565780636e6181ec1461036657806377c82cc9146103825780637b7e76b8146103b25780638c328413146103e2576101e5565b806347f39ced146102f2578063620c503a146102fc5780636627cbd61461032c57806367e8ada71461035c576101e5565b806333bdb8f9116101c357806333bdb8f91461026857806335df3509146102985780633844bba0146102b6578063386e72cd146102d4576101e5565b80631b1341c5146101ea5780631d036d7d146102085780631fe4370414610238575b600080fd5b6101f261068a565b6040516101ff9190611d1b565b60405180910390f35b610222600480360381019061021d9190611daf565b610727565b60405161022f9190611ea4565b60405180910390f35b610252600480360381019061024d9190611daf565b6107cf565b60405161025f9190611fd4565b60405180910390f35b610282600480360381019061027d9190611daf565b610877565b60405161028f9190612005565b60405180910390f35b6102a061091c565b6040516102ad9190612005565b60405180910390f35b6102be6109b4565b6040516102cb9190611d1b565b60405180910390f35b6102dc610ad3565b6040516102e99190611d1b565b60405180910390f35b6102fa610bf2565b005b6103166004803603810190610311919061204c565b610c76565b6040516103239190611fd4565b60405180910390f35b6103466004803603810190610341919061204c565b610d20565b6040516103539190611fd4565b60405180910390f35b610364610dca565b005b610380600480360381019061037b9190612079565b610e4e565b005b61039c60048036038101906103979190611daf565b610ee3565b6040516103a991906121aa565b60405180910390f35b6103cc60048036038101906103c79190611daf565b610f8d565b6040516103d991906123b0565b60405180910390f35b6103fc60048036038101906103f791906123d2565b611037565b6040516104099190611ea4565b60405180910390f35b61041a6110e7565b6040516104279190612005565b60405180910390f35b61044a600480360381019061044591906123d2565b61117f565b6040516104579190612496565b60405180910390f35b61047a60048036038101906104759190611daf565b6112f6565b60405161048791906125fc565b60405180910390f35b6104986113a0565b6040516104a59190611d1b565b60405180910390f35b6104c860048036038101906104c39190611daf565b61143d565b6040516104d59190612005565b60405180910390f35b6104f860048036038101906104f391906123d2565b6114e2565b005b610514600480360381019061050f9190611daf565b611573565b6040516105219190612005565b60405180910390f35b610544600480360381019061053f91906123d2565b611617565b6040516105519190611ea4565b60405180910390f35b610574600480360381019061056f919061204c565b6116c7565b60405161058191906126a7565b60405180910390f35b6105a4600480360381019061059f91906126c9565b611777565b005b6105c060048036038101906105bb919061204c565b61180f565b6040516105cd91906127a5565b60405180910390f35b6105f060048036038101906105eb91906128fc565b6118bf565b005b61060c600480360381019061060791906126c9565b611950565b005b61062860048036038101906106239190611daf565b6119e8565b6040516106359190611ea4565b60405180910390f35b61065860048036038101906106539190611daf565b611a90565b6040516106659190611d1b565b60405180910390f35b61068860048036038101906106839190612079565b611b38565b005b6060600260009054906101000a900473ffffffffffffffffffffffffffffffffffffffff1673ffffffffffffffffffffffffffffffffffffffff16631b1341c56040518163ffffffff1660e01b8152600401600060405180830381865afa1580156106f9573d6000803e3d6000fd5b505050506040513d6000823e3d601f19601f8201168201806040525081019061072291906129c8565b905090565b606060008054906101000a900473ffffffffffffffffffffffffffffffffffffffff1673ffffffffffffffffffffffffffffffffffffffff16631d036d7d836040518263ffffffff1660e01b81526004016107829190612a20565b600060405180830381865afa15801561079f573d6000803e3d6000fd5b505050506040513d6000823e3d601f19601f820116820180604052508101906107c89190612b18565b9050919050565b606060008054906101000a900473ffffffffffffffffffffffffffffffffffffffff1673ffffffffffffffffffffffffffffffffffffffff16631fe43704836040518263ffffffff1660e01b815260040161082a9190612a20565b600060405180830381865afa158015610847573d6000803e3d6000fd5b505050506040513d6000823e3d601f19601f820116820180604052508101906108709190612c74565b9050919050565b6000600160009054906101000a900473ffffffffffffffffffffffffffffffffffffffff1673ffffffffffffffffffffffffffffffffffffffff166333bdb8f9836040518263ffffffff1660e01b81526004016108d49190612a20565b602060405180830381865afa1580156108f1573d6000803e3d6000fd5b505050506040513d601f19601f820116820180604052508101906109159190612cbd565b9050919050565b6000600360009054906101000a900473ffffffffffffffffffffffffffffffffffffffff1673ffffffffffffffffffffffffffffffffffffffff166335df35096040518163ffffffff1660e01b8152600401602060405180830381865afa15801561098b573d6000803e3d6000fd5b505050506040513d601f19601f820116820180604052508101906109af9190612cbd565b905090565b6060600360009054906101000a900473ffffffffffffffffffffffffffffffffffffffff1673ffffffffffffffffffffffffffffffffffffffff166367e8ada76040518163ffffffff1660e01b8152600401600060405180830381600087803b158015610a2057600080fd5b505af1158015610a34573d6000803e3d6000fd5b50505050600360009054906101000a900473ffffffffffffffffffffffffffffffffffffffff1673ffffffffffffffffffffffffffffffffffffffff1663b4d2a0c46040518163ffffffff1660e01b8152600401600060405180830381865afa158015610aa5573d6000803e3d6000fd5b505050506040513d6000823e3d601f19601f82011682018060405250810190610ace91906129c8565b905090565b6060600260009054906101000a900473ffffffffffffffffffffffffffffffffffffffff1673ffffffffffffffffffffffffffffffffffffffff166347f39ced6040518163ffffffff1660e01b8152600401600060405180830381600087803b158015610b3f57600080fd5b505af1158015610b53573d6000803e3d6000fd5b50505050600260009054906101000a900473ffffffffffffffffffffffffffffffffffffffff1673ffffffffffffffffffffffffffffffffffffffff16631b1341c56040518163ffffffff1660e01b8152600401600060405180830381865afa158015610bc4573d6000803e3d6000fd5b505050506040513d6000823e3d601f19601f82011682018060405250810190610bed91906129c8565b905090565b600260009054906101000a900473ffffffffffffffffffffffffffffffffffffffff1673ffffffffffffffffffffffffffffffffffffffff166347f39ced6040518163ffffffff1660e01b8152600401600060405180830381600087803b158015610c5c57600080fd5b505af1158015610c70573d6000803e3d6000fd5b50505050565b6060600260009054906101000a900473ffffffffffffffffffffffffffffffffffffffff1673ffffffffffffffffffffffffffffffffffffffff1663620c503a836040518263ffffffff1660e01b8152600401610cd39190612005565b600060405180830381865afa158015610cf0573d6000803e3d6000fd5b505050506040513d6000823e3d601f19601f82011682018060405250810190610d199190612c74565b9050919050565b6060600360009054906101000a900473ffffffffffffffffffffffffffffffffffffffff1673ffffffffffffffffffffffffffffffffffffffff16636627cbd6836040518263ffffffff1660e01b8152600401610d7d9190612005565b600060405180830381865afa158015610d9a573d6000803e3d6000fd5b505050506040513d6000823e3d601f19601f82011682018060405250810190610dc39190612c74565b9050919050565b600360009054906101000a900473ffffffffffffffffffffffffffffffffffffffff1673ffffffffffffffffffffffffffffffffffffffff166367e8ada76040518163ffffffff1660e01b8152600401600060405180830381600087803b158015610e3457600080fd5b505af1158015610e48573d6000803e3d6000fd5b50505050565b600360009054906101000a900473ffffffffffffffffffffffffffffffffffffffff1673ffffffffffffffffffffffffffffffffffffffff1663906eb21c8383336040518463ffffffff1660e01b8152600401610ead93929190612cea565b600060405180830381600087803b158015610ec757600080fd5b505af1158015610edb573d6000803e3d6000fd5b505050505050565b6060600160009054906101000a900473ffffffffffffffffffffffffffffffffffffffff1673ffffffffffffffffffffffffffffffffffffffff166377c82cc9836040518263ffffffff1660e01b8152600401610f409190612a20565b600060405180830381865afa158015610f5d573d6000803e3d6000fd5b505050506040513d6000823e3d601f19601f82011682018060405250810190610f869190612e52565b9050919050565b6060600260009054906101000a900473ffffffffffffffffffffffffffffffffffffffff1673ffffffffffffffffffffffffffffffffffffffff16637b7e76b8836040518263ffffffff1660e01b8152600401610fea9190612a20565b600060405180830381865afa158015611007573d6000803e3d6000fd5b505050506040513d6000823e3d601f19601f820116820180604052508101906110309190613079565b9050919050565b6060600160009054906101000a900473ffffffffffffffffffffffffffffffffffffffff1673ffffffffffffffffffffffffffffffffffffffff1663fc369818848460016040518463ffffffff1660e01b81526004016110999392919061310a565b600060405180830381865afa1580156110b6573d6000803e3d6000fd5b505050506040513d6000823e3d601f19601f820116820180604052508101906110df9190612b18565b905092915050565b6000600260009054906101000a900473ffffffffffffffffffffffffffffffffffffffff1673ffffffffffffffffffffffffffffffffffffffff1663951b3de86040518163ffffffff1660e01b8152600401602060405180830381865afa158015611156573d6000803e3d6000fd5b505050506040513d601f19601f8201168201806040525081019061117a9190612cbd565b905090565b611187611bcd565b6000600160009054906101000a900473ffffffffffffffffffffffffffffffffffffffff1673ffffffffffffffffffffffffffffffffffffffff16631363b936858560006040518463ffffffff1660e01b81526004016111e99392919061317c565b602060405180830381865afa158015611206573d6000803e3d6000fd5b505050506040513d601f19601f8201168201806040525081019061122a9190612cbd565b90506000600160009054906101000a900473ffffffffffffffffffffffffffffffffffffffff1673ffffffffffffffffffffffffffffffffffffffff16631363b936868660016040518463ffffffff1660e01b815260040161128e9392919061310a565b602060405180830381865afa1580156112ab573d6000803e3d6000fd5b505050506040513d601f19601f820116820180604052508101906112cf9190612cbd565b90506000604051806040016040528084815260200183815250905080935050505092915050565b6060600360009054906101000a900473ffffffffffffffffffffffffffffffffffffffff1673ffffffffffffffffffffffffffffffffffffffff1663ae87ca7c836040518263ffffffff1660e01b81526004016113539190612a20565b600060405180830381865afa158015611370573d6000803e3d6000fd5b505050506040513d6000823e3d601f19601f820116820180604052508101906113999190613350565b9050919050565b6060600360009054906101000a900473ffffffffffffffffffffffffffffffffffffffff1673ffffffffffffffffffffffffffffffffffffffff1663b4d2a0c46040518163ffffffff1660e01b8152600401600060405180830381865afa15801561140f573d6000803e3d6000fd5b505050506040513d6000823e3d601f19601f8201168201806040525081019061143891906129c8565b905090565b6000600160009054906101000a900473ffffffffffffffffffffffffffffffffffffffff1673ffffffffffffffffffffffffffffffffffffffff1663b5387dc5836040518263ffffffff1660e01b815260040161149a9190612a20565b602060405180830381865afa1580156114b7573d6000803e3d6000fd5b505050506040513d601f19601f820116820180604052508101906114db9190612cbd565b9050919050565b60008054906101000a900473ffffffffffffffffffffffffffffffffffffffff1673ffffffffffffffffffffffffffffffffffffffff1663b5f7850c83836040518363ffffffff1660e01b815260040161153d929190613399565b600060405180830381600087803b15801561155757600080fd5b505af115801561156b573d6000803e3d6000fd5b505050505050565b60008060009054906101000a900473ffffffffffffffffffffffffffffffffffffffff1673ffffffffffffffffffffffffffffffffffffffff1663cb8ab15b836040518263ffffffff1660e01b81526004016115cf9190612a20565b602060405180830381865afa1580156115ec573d6000803e3d6000fd5b505050506040513d601f19601f820116820180604052508101906116109190612cbd565b9050919050565b6060600160009054906101000a900473ffffffffffffffffffffffffffffffffffffffff1673ffffffffffffffffffffffffffffffffffffffff1663fc369818848460006040518463ffffffff1660e01b81526004016116799392919061317c565b600060405180830381865afa158015611696573d6000803e3d6000fd5b505050506040513d6000823e3d601f19601f820116820180604052508101906116bf9190612b18565b905092915050565b6116cf611bef565b600260009054906101000a900473ffffffffffffffffffffffffffffffffffffffff1673ffffffffffffffffffffffffffffffffffffffff1663ced8d530836040518263ffffffff1660e01b815260040161172a9190612005565b600060405180830381865afa158015611747573d6000803e3d6000fd5b505050506040513d6000823e3d601f19601f8201168201806040525081019061177091906133c2565b9050919050565b600260009054906101000a900473ffffffffffffffffffffffffffffffffffffffff1673ffffffffffffffffffffffffffffffffffffffff16630aeadded848484336040518563ffffffff1660e01b81526004016117d8949392919061340b565b600060405180830381600087803b1580156117f257600080fd5b505af1158015611806573d6000803e3d6000fd5b50505050505050565b611817611c3d565b600360009054906101000a900473ffffffffffffffffffffffffffffffffffffffff1673ffffffffffffffffffffffffffffffffffffffff1663da02c9de836040518263ffffffff1660e01b81526004016118729190612005565b600060405180830381865afa15801561188f573d6000803e3d6000fd5b505050506040513d6000823e3d601f19601f820116820180604052508101906118b89190613450565b9050919050565b60008054906101000a900473ffffffffffffffffffffffffffffffffffffffff1673ffffffffffffffffffffffffffffffffffffffff1663e204545283836040518363ffffffff1660e01b815260040161191a929190613499565b600060405180830381600087803b15801561193457600080fd5b505af1158015611948573d6000803e3d6000fd5b505050505050565b600360009054906101000a900473ffffffffffffffffffffffffffffffffffffffff1673ffffffffffffffffffffffffffffffffffffffff16634cb3a345848484336040518563ffffffff1660e01b81526004016119b1949392919061340b565b600060405180830381600087803b1580156119cb57600080fd5b505af11580156119df573d6000803e3d6000fd5b50505050505050565b606060008054906101000a900473ffffffffffffffffffffffffffffffffffffffff1673ffffffffffffffffffffffffffffffffffffffff1663ebe0b877836040518263ffffffff1660e01b8152600401611a439190612a20565b600060405180830381865afa158015611a60573d6000803e3d6000fd5b505050506040513d6000823e3d601f19601f82011682018060405250810190611a899190612b18565b9050919050565b606060008054906101000a900473ffffffffffffffffffffffffffffffffffffffff1673ffffffffffffffffffffffffffffffffffffffff1663ce43c032836040518263ffffffff1660e01b8152600401611aeb9190612a20565b600060405180830381865afa158015611b08573d6000803e3d6000fd5b505050506040513d6000823e3d601f19601f82011682018060405250810190611b3191906129c8565b9050919050565b600260009054906101000a900473ffffffffffffffffffffffffffffffffffffffff1673ffffffffffffffffffffffffffffffffffffffff1663bca73eb28383336040518463ffffffff1660e01b8152600401611b9793929190612cea565b600060405180830381600087803b158015611bb157600080fd5b505af1158015611bc5573d6000803e3d6000fd5b505050505050565b6040518060400160405280600290602082028036833780820191505090505090565b6040518060c001604052806000815260200160008152602001600073ffffffffffffffffffffffffffffffffffffffff16815260200160001515815260200160008152602001606081525090565b6040518060c001604052806000815260200160008152602001600073ffffffffffffffffffffffffffffffffffffffff16815260200160001515815260200160008152602001606081525090565b600081519050919050565b600082825260208201905092915050565b60005b83811015611cc5578082015181840152602081019050611caa565b60008484015250505050565b6000601f19601f8301169050919050565b6000611ced82611c8b565b611cf78185611c96565b9350611d07818560208601611ca7565b611d1081611cd1565b840191505092915050565b60006020820190508181036000830152611d358184611ce2565b905092915050565b6000604051905090565b600080fd5b600080fd5b600073ffffffffffffffffffffffffffffffffffffffff82169050919050565b6000611d7c82611d51565b9050919050565b611d8c81611d71565b8114611d9757600080fd5b50565b600081359050611da981611d83565b92915050565b600060208284031215611dc557611dc4611d47565b5b6000611dd384828501611d9a565b91505092915050565b600081519050919050565b600082825260208201905092915050565b6000819050602082019050919050565b6000819050919050565b611e1b81611e08565b82525050565b6000611e2d8383611e12565b60208301905092915050565b6000602082019050919050565b6000611e5182611ddc565b611e5b8185611de7565b9350611e6683611df8565b8060005b83811015611e97578151611e7e8882611e21565b9750611e8983611e39565b925050600181019050611e6a565b5085935050505092915050565b60006020820190508181036000830152611ebe8184611e46565b905092915050565b600081519050919050565b600082825260208201905092915050565b6000819050602082019050919050565b6000819050919050565b6000611f17611f12611f0d84611d51565b611ef2565b611d51565b9050919050565b6000611f2982611efc565b9050919050565b6000611f3b82611f1e565b9050919050565b611f4b81611f30565b82525050565b6000611f5d8383611f42565b60208301905092915050565b6000602082019050919050565b6000611f8182611ec6565b611f8b8185611ed1565b9350611f9683611ee2565b8060005b83811015611fc7578151611fae8882611f51565b9750611fb983611f69565b925050600181019050611f9a565b5085935050505092915050565b60006020820190508181036000830152611fee8184611f76565b905092915050565b611fff81611e08565b82525050565b600060208201905061201a6000830184611ff6565b92915050565b61202981611e08565b811461203457600080fd5b50565b60008135905061204681612020565b92915050565b60006020828403121561206257612061611d47565b5b600061207084828501612037565b91505092915050565b600080604083850312156120905761208f611d47565b5b600061209e85828601612037565b92505060206120af85828601612037565b9150509250929050565b600081519050919050565b600082825260208201905092915050565b6000819050602082019050919050565b6060820160008201516120fb6000850182611e12565b50602082015161210e6020850182611e12565b5060408201516121216040850182611e12565b50505050565b600061213383836120e5565b60608301905092915050565b6000602082019050919050565b6000612157826120b9565b61216181856120c4565b935061216c836120d5565b8060005b8381101561219d5781516121848882612127565b975061218f8361213f565b925050600181019050612170565b5085935050505092915050565b600060208201905081810360008301526121c4818461214c565b905092915050565b600081519050919050565b600082825260208201905092915050565b6000819050602082019050919050565b61220181611d71565b82525050565b60008115159050919050565b61221c81612207565b82525050565b600082825260208201905092915050565b600061223e82611ec6565b6122488185612222565b935061225383611ee2565b8060005b8381101561228457815161226b8882611f51565b975061227683611f69565b925050600181019050612257565b5085935050505092915050565b600060c0830160008301516122a96000860182611e12565b5060208301516122bc6020860182611e12565b5060408301516122cf60408601826121f8565b5060608301516122e26060860182612213565b5060808301516122f56080860182611e12565b5060a083015184820360a086015261230d8282612233565b9150508091505092915050565b60006123268383612291565b905092915050565b6000602082019050919050565b6000612346826121cc565b61235081856121d7565b935083602082028501612362856121e8565b8060005b8581101561239e578484038952815161237f858261231a565b945061238a8361232e565b925060208a01995050600181019050612366565b50829750879550505050505092915050565b600060208201905081810360008301526123ca818461233b565b905092915050565b600080604083850312156123e9576123e8611d47565b5b60006123f785828601611d9a565b925050602061240885828601612037565b9150509250929050565b600060029050919050565b600081905092915050565b6000819050919050565b6000602082019050919050565b61244881612412565b612452818461241d565b925061245d82612428565b8060005b8381101561248e5781516124758782611e21565b965061248083612432565b925050600181019050612461565b505050505050565b60006040820190506124ab600083018461243f565b92915050565b600081519050919050565b600082825260208201905092915050565b6000819050602082019050919050565b600060c0830160008301516124f56000860182611e12565b5060208301516125086020860182611e12565b50604083015161251b60408601826121f8565b50606083015161252e6060860182612213565b5060808301516125416080860182611e12565b5060a083015184820360a08601526125598282612233565b9150508091505092915050565b600061257283836124dd565b905092915050565b6000602082019050919050565b6000612592826124b1565b61259c81856124bc565b9350836020820285016125ae856124cd565b8060005b858110156125ea57848403895281516125cb8582612566565b94506125d68361257a565b925060208a019950506001810190506125b2565b50829750879550505050505092915050565b600060208201905081810360008301526126168184612587565b905092915050565b600060c0830160008301516126366000860182611e12565b5060208301516126496020860182611e12565b50604083015161265c60408601826121f8565b50606083015161266f6060860182612213565b5060808301516126826080860182611e12565b5060a083015184820360a086015261269a8282612233565b9150508091505092915050565b600060208201905081810360008301526126c1818461261e565b905092915050565b6000806000606084860312156126e2576126e1611d47565b5b60006126f086828701612037565b935050602061270186828701612037565b925050604061271286828701612037565b9150509250925092565b600060c0830160008301516127346000860182611e12565b5060208301516127476020860182611e12565b50604083015161275a60408601826121f8565b50606083015161276d6060860182612213565b5060808301516127806080860182611e12565b5060a083015184820360a08601526127988282612233565b9150508091505092915050565b600060208201905081810360008301526127bf818461271c565b905092915050565b600080fd5b600080fd5b7f4e487b7100000000000000000000000000000000000000000000000000000000600052604160045260246000fd5b61280982611cd1565b810181811067ffffffffffffffff82111715612828576128276127d1565b5b80604052505050565b600061283b611d3d565b90506128478282612800565b919050565b600067ffffffffffffffff821115612867576128666127d1565b5b61287082611cd1565b9050602081019050919050565b82818337600083830152505050565b600061289f61289a8461284c565b612831565b9050828152602081018484840111156128bb576128ba6127cc565b5b6128c684828561287d565b509392505050565b600082601f8301126128e3576128e26127c7565b5b81356128f384826020860161288c565b91505092915050565b6000806040838503121561291357612912611d47565b5b600061292185828601611d9a565b925050602083013567ffffffffffffffff81111561294257612941611d4c565b5b61294e858286016128ce565b9150509250929050565b600061296b6129668461284c565b612831565b905082815260208101848484011115612987576129866127cc565b5b612992848285611ca7565b509392505050565b600082601f8301126129af576129ae6127c7565b5b81516129bf848260208601612958565b91505092915050565b6000602082840312156129de576129dd611d47565b5b600082015167ffffffffffffffff8111156129fc576129fb611d4c565b5b612a088482850161299a565b91505092915050565b612a1a81611d71565b82525050565b6000602082019050612a356000830184612a11565b92915050565b600067ffffffffffffffff821115612a5657612a556127d1565b5b602082029050602081019050919050565b600080fd5b600081519050612a7b81612020565b92915050565b6000612a94612a8f84612a3b565b612831565b90508083825260208201905060208402830185811115612ab757612ab6612a67565b5b835b81811015612ae05780612acc8882612a6c565b845260208401935050602081019050612ab9565b5050509392505050565b600082601f830112612aff57612afe6127c7565b5b8151612b0f848260208601612a81565b91505092915050565b600060208284031215612b2e57612b2d611d47565b5b600082015167ffffffffffffffff811115612b4c57612b4b611d4c565b5b612b5884828501612aea565b91505092915050565b600067ffffffffffffffff821115612b7c57612b7b6127d1565b5b602082029050602081019050919050565b6000612b9882611d51565b9050919050565b6000612baa82612b8d565b9050919050565b612bba81612b9f565b8114612bc557600080fd5b50565b600081519050612bd781612bb1565b92915050565b6000612bf0612beb84612b61565b612831565b90508083825260208201905060208402830185811115612c1357612c12612a67565b5b835b81811015612c3c5780612c288882612bc8565b845260208401935050602081019050612c15565b5050509392505050565b600082601f830112612c5b57612c5a6127c7565b5b8151612c6b848260208601612bdd565b91505092915050565b600060208284031215612c8a57612c89611d47565b5b600082015167ffffffffffffffff811115612ca857612ca7611d4c565b5b612cb484828501612c46565b91505092915050565b600060208284031215612cd357612cd2611d47565b5b6000612ce184828501612a6c565b91505092915050565b6000606082019050612cff6000830186611ff6565b612d0c6020830185611ff6565b612d196040830184612a11565b949350505050565b600067ffffffffffffffff821115612d3c57612d3b6127d1565b5b602082029050602081019050919050565b600080fd5b600080fd5b600060608284031215612d6d57612d6c612d4d565b5b612d776060612831565b90506000612d8784828501612a6c565b6000830152506020612d9b84828501612a6c565b6020830152506040612daf84828501612a6c565b60408301525092915050565b6000612dce612dc984612d21565b612831565b90508083825260208201905060608402830185811115612df157612df0612a67565b5b835b81811015612e1a5780612e068882612d57565b845260208401935050606081019050612df3565b5050509392505050565b600082601f830112612e3957612e386127c7565b5b8151612e49848260208601612dbb565b91505092915050565b600060208284031215612e6857612e67611d47565b5b600082015167ffffffffffffffff811115612e8657612e85611d4c565b5b612e9284828501612e24565b91505092915050565b600067ffffffffffffffff821115612eb657612eb56127d1565b5b602082029050602081019050919050565b600081519050612ed681611d83565b92915050565b612ee581612207565b8114612ef057600080fd5b50565b600081519050612f0281612edc565b92915050565b600060c08284031215612f1e57612f1d612d4d565b5b612f2860c0612831565b90506000612f3884828501612a6c565b6000830152506020612f4c84828501612a6c565b6020830152506040612f6084828501612ec7565b6040830152506060612f7484828501612ef3565b6060830152506080612f8884828501612a6c565b60808301525060a082015167ffffffffffffffff811115612fac57612fab612d52565b5b612fb884828501612c46565b60a08301525092915050565b6000612fd7612fd284612e9b565b612831565b90508083825260208201905060208402830185811115612ffa57612ff9612a67565b5b835b8181101561304157805167ffffffffffffffff81111561301f5761301e6127c7565b5b80860161302c8982612f08565b85526020850194505050602081019050612ffc565b5050509392505050565b600082601f8301126130605761305f6127c7565b5b8151613070848260208601612fc4565b91505092915050565b60006020828403121561308f5761308e611d47565b5b600082015167ffffffffffffffff8111156130ad576130ac611d4c565b5b6130b98482850161304b565b91505092915050565b6000819050919050565b600060ff82169050919050565b60006130f46130ef6130ea846130c2565b611ef2565b6130cc565b9050919050565b613104816130d9565b82525050565b600060608201905061311f6000830186612a11565b61312c6020830185611ff6565b61313960408301846130fb565b949350505050565b6000819050919050565b600061316661316161315c84613141565b611ef2565b6130cc565b9050919050565b6131768161314b565b82525050565b60006060820190506131916000830186612a11565b61319e6020830185611ff6565b6131ab604083018461316d565b949350505050565b600067ffffffffffffffff8211156131ce576131cd6127d1565b5b602082029050602081019050919050565b600060c082840312156131f5576131f4612d4d565b5b6131ff60c0612831565b9050600061320f84828501612a6c565b600083015250602061322384828501612a6c565b602083015250604061323784828501612ec7565b604083015250606061324b84828501612ef3565b606083015250608061325f84828501612a6c565b60808301525060a082015167ffffffffffffffff81111561328357613282612d52565b5b61328f84828501612c46565b60a08301525092915050565b60006132ae6132a9846131b3565b612831565b905080838252602082019050602084028301858111156132d1576132d0612a67565b5b835b8181101561331857805167ffffffffffffffff8111156132f6576132f56127c7565b5b80860161330389826131df565b855260208501945050506020810190506132d3565b5050509392505050565b600082601f830112613337576133366127c7565b5b815161334784826020860161329b565b91505092915050565b60006020828403121561336657613365611d47565b5b600082015167ffffffffffffffff81111561338457613383611d4c565b5b61339084828501613322565b91505092915050565b60006040820190506133ae6000830185612a11565b6133bb6020830184611ff6565b9392505050565b6000602082840312156133d8576133d7611d47565b5b600082015167ffffffffffffffff8111156133f6576133f5611d4c565b5b61340284828501612f08565b91505092915050565b60006080820190506134206000830187611ff6565b61342d6020830186611ff6565b61343a6040830185611ff6565b6134476060830184612a11565b95945050505050565b60006020828403121561346657613465611d47565b5b600082015167ffffffffffffffff81111561348457613483611d4c565b5b613490848285016131df565b91505092915050565b60006040820190506134ae6000830185612a11565b81810360208301526134c08184611ce2565b9050939250505056fea2646970667358221220123f88efea4b227d27cd54f4e59e38b6b3e0320ed06c83d288bba6b8b5ecd41864736f6c6343000811003360806040523480156200001157600080fd5b5060405162001b5838038062001b5883398181016040528101906200003791906200014a565b80600160006101000a81548173ffffffffffffffffffffffffffffffffffffffff021916908373ffffffffffffffffffffffffffffffffffffffff16021790555060007396c1ce80ab24e9aa360c702a4026cae725b0f31a905060646000808373ffffffffffffffffffffffffffffffffffffffff1673ffffffffffffffffffffffffffffffffffffffff1681526020019081526020016000206001018190555050506200017c565b600080fd5b600073ffffffffffffffffffffffffffffffffffffffff82169050919050565b60006200011282620000e5565b9050919050565b620001248162000105565b81146200013057600080fd5b50565b600081519050620001448162000119565b92915050565b600060208284031215620001635762000162620000e0565b5b6000620001738482850162000133565b91505092915050565b6119cc806200018c6000396000f3fe608060405234801561001057600080fd5b50600436106100b45760003560e01c8063ce43c03211610071578063ce43c0321461019d578063d4093bdb146101cd578063e2045452146101e9578063e267097114610205578063ebe0b87714610221578063f03b5e9d14610251576100b4565b80631d036d7d146100b95780631fe43704146100e957806384dc965a14610119578063b5f7850c14610135578063c331d84214610151578063cb8ab15b1461016d575b600080fd5b6100d360048036038101906100ce9190610d16565b61026d565b6040516100e09190610e0b565b60405180910390f35b61010360048036038101906100fe9190610d16565b610306565b6040516101109190610f3b565b60405180910390f35b610133600480360381019061012e9190610fad565b6103d5565b005b61014f600480360381019061014a9190611019565b61047b565b005b61016b60048036038101906101669190611019565b6105aa565b005b61018760048036038101906101829190610d16565b6106a6565b6040516101949190611068565b60405180910390f35b6101b760048036038101906101b29190610d16565b6106f1565b6040516101c49190611113565b60405180910390f35b6101e760048036038101906101e29190611135565b6107c4565b005b61020360048036038101906101fe91906112bd565b61091c565b005b61021f600480360381019061021a9190611019565b6109dd565b005b61023b60048036038101906102369190610d16565b610b0f565b6040516102489190610e0b565b60405180910390f35b61026b60048036038101906102669190611019565b610ba8565b005b60606000808373ffffffffffffffffffffffffffffffffffffffff1673ffffffffffffffffffffffffffffffffffffffff1681526020019081526020016000206003018054806020026020016040519081016040528092919081815260200182805480156102fa57602002820191906000526020600020905b8154815260200190600101908083116102e6575b50505050509050919050565b60606000808373ffffffffffffffffffffffffffffffffffffffff1673ffffffffffffffffffffffffffffffffffffffff1681526020019081526020016000206004018054806020026020016040519081016040528092919081815260200182805480156103c957602002820191906000526020600020905b8160009054906101000a900473ffffffffffffffffffffffffffffffffffffffff1673ffffffffffffffffffffffffffffffffffffffff168152602001906001019080831161037f575b50505050509050919050565b6000808373ffffffffffffffffffffffffffffffffffffffff1673ffffffffffffffffffffffffffffffffffffffff168152602001908152602001600020600401819080600181540180825580915050600190039060005260206000200160009091909190916101000a81548173ffffffffffffffffffffffffffffffffffffffff021916908373ffffffffffffffffffffffffffffffffffffffff1602179055505050565b600460009054906101000a900473ffffffffffffffffffffffffffffffffffffffff1673ffffffffffffffffffffffffffffffffffffffff163273ffffffffffffffffffffffffffffffffffffffff161461050b576040517f08c379a00000000000000000000000000000000000000000000000000000000081526004016105029061138b565b60405180910390fd5b6000811161054e576040517f08c379a00000000000000000000000000000000000000000000000000000000081526004016105459061141d565b60405180910390fd5b806000808473ffffffffffffffffffffffffffffffffffffffff1673ffffffffffffffffffffffffffffffffffffffff168152602001908152602001600020600101600082825461059f919061146c565b925050819055505050565b600360009054906101000a900473ffffffffffffffffffffffffffffffffffffffff1673ffffffffffffffffffffffffffffffffffffffff163373ffffffffffffffffffffffffffffffffffffffff161461063a576040517f08c379a0000000000000000000000000000000000000000000000000000000008152600401610631906114ec565b60405180910390fd5b6000808373ffffffffffffffffffffffffffffffffffffffff1673ffffffffffffffffffffffffffffffffffffffff1681526020019081526020016000206003018190806001815401808255809150506001900390600052602060002001600090919091909150555050565b60008060008373ffffffffffffffffffffffffffffffffffffffff1673ffffffffffffffffffffffffffffffffffffffff168152602001908152602001600020600101549050919050565b60606000808373ffffffffffffffffffffffffffffffffffffffff1673ffffffffffffffffffffffffffffffffffffffff168152602001908152602001600020600001805461073f9061153b565b80601f016020809104026020016040519081016040528092919081815260200182805461076b9061153b565b80156107b85780601f1061078d576101008083540402835291602001916107b8565b820191906000526020600020905b81548152906001019060200180831161079b57829003601f168201915b50505050509050919050565b600160009054906101000a900473ffffffffffffffffffffffffffffffffffffffff1673ffffffffffffffffffffffffffffffffffffffff163373ffffffffffffffffffffffffffffffffffffffff1614610854576040517f08c379a000000000000000000000000000000000000000000000000000000000815260040161084b906115de565b60405180910390fd5b82600260006101000a81548173ffffffffffffffffffffffffffffffffffffffff021916908373ffffffffffffffffffffffffffffffffffffffff16021790555081600360006101000a81548173ffffffffffffffffffffffffffffffffffffffff021916908373ffffffffffffffffffffffffffffffffffffffff16021790555080600460006101000a81548173ffffffffffffffffffffffffffffffffffffffff021916908373ffffffffffffffffffffffffffffffffffffffff160217905550505050565b8173ffffffffffffffffffffffffffffffffffffffff163273ffffffffffffffffffffffffffffffffffffffff161461098a576040517f08c379a000000000000000000000000000000000000000000000000000000000815260040161098190611670565b60405180910390fd5b806000808473ffffffffffffffffffffffffffffffffffffffff1673ffffffffffffffffffffffffffffffffffffffff16815260200190815260200160002060000190816109d89190611832565b505050565b600260009054906101000a900473ffffffffffffffffffffffffffffffffffffffff1673ffffffffffffffffffffffffffffffffffffffff163373ffffffffffffffffffffffffffffffffffffffff161480610a865750600360009054906101000a900473ffffffffffffffffffffffffffffffffffffffff1673ffffffffffffffffffffffffffffffffffffffff163373ffffffffffffffffffffffffffffffffffffffff16145b610ac5576040517f08c379a0000000000000000000000000000000000000000000000000000000008152600401610abc90611976565b60405180910390fd5b806000808473ffffffffffffffffffffffffffffffffffffffff1673ffffffffffffffffffffffffffffffffffffffff168152602001908152602001600020600101819055505050565b60606000808373ffffffffffffffffffffffffffffffffffffffff1673ffffffffffffffffffffffffffffffffffffffff168152602001908152602001600020600201805480602002602001604051908101604052809291908181526020018280548015610b9c57602002820191906000526020600020905b815481526020019060010190808311610b88575b50505050509050919050565b600260009054906101000a900473ffffffffffffffffffffffffffffffffffffffff1673ffffffffffffffffffffffffffffffffffffffff163373ffffffffffffffffffffffffffffffffffffffff1614610c38576040517f08c379a0000000000000000000000000000000000000000000000000000000008152600401610c2f906114ec565b60405180910390fd5b6000808373ffffffffffffffffffffffffffffffffffffffff1673ffffffffffffffffffffffffffffffffffffffff1681526020019081526020016000206002018190806001815401808255809150506001900390600052602060002001600090919091909150555050565b6000604051905090565b600080fd5b600080fd5b600073ffffffffffffffffffffffffffffffffffffffff82169050919050565b6000610ce382610cb8565b9050919050565b610cf381610cd8565b8114610cfe57600080fd5b50565b600081359050610d1081610cea565b92915050565b600060208284031215610d2c57610d2b610cae565b5b6000610d3a84828501610d01565b91505092915050565b600081519050919050565b600082825260208201905092915050565b6000819050602082019050919050565b6000819050919050565b610d8281610d6f565b82525050565b6000610d948383610d79565b60208301905092915050565b6000602082019050919050565b6000610db882610d43565b610dc28185610d4e565b9350610dcd83610d5f565b8060005b83811015610dfe578151610de58882610d88565b9750610df083610da0565b925050600181019050610dd1565b5085935050505092915050565b60006020820190508181036000830152610e258184610dad565b905092915050565b600081519050919050565b600082825260208201905092915050565b6000819050602082019050919050565b6000819050919050565b6000610e7e610e79610e7484610cb8565b610e59565b610cb8565b9050919050565b6000610e9082610e63565b9050919050565b6000610ea282610e85565b9050919050565b610eb281610e97565b82525050565b6000610ec48383610ea9565b60208301905092915050565b6000602082019050919050565b6000610ee882610e2d565b610ef28185610e38565b9350610efd83610e49565b8060005b83811015610f2e578151610f158882610eb8565b9750610f2083610ed0565b925050600181019050610f01565b5085935050505092915050565b60006020820190508181036000830152610f558184610edd565b905092915050565b6000610f6882610cb8565b9050919050565b6000610f7a82610f5d565b9050919050565b610f8a81610f6f565b8114610f9557600080fd5b50565b600081359050610fa781610f81565b92915050565b60008060408385031215610fc457610fc3610cae565b5b6000610fd285828601610d01565b9250506020610fe385828601610f98565b9150509250929050565b610ff681610d6f565b811461100157600080fd5b50565b60008135905061101381610fed565b92915050565b600080604083850312156110305761102f610cae565b5b600061103e85828601610d01565b925050602061104f85828601611004565b9150509250929050565b61106281610d6f565b82525050565b600060208201905061107d6000830184611059565b92915050565b600081519050919050565b600082825260208201905092915050565b60005b838110156110bd5780820151818401526020810190506110a2565b60008484015250505050565b6000601f19601f8301169050919050565b60006110e582611083565b6110ef818561108e565b93506110ff81856020860161109f565b611108816110c9565b840191505092915050565b6000602082019050818103600083015261112d81846110da565b905092915050565b60008060006060848603121561114e5761114d610cae565b5b600061115c86828701610d01565b935050602061116d86828701610d01565b925050604061117e86828701610d01565b9150509250925092565b600080fd5b600080fd5b7f4e487b7100000000000000000000000000000000000000000000000000000000600052604160045260246000fd5b6111ca826110c9565b810181811067ffffffffffffffff821117156111e9576111e8611192565b5b80604052505050565b60006111fc610ca4565b905061120882826111c1565b919050565b600067ffffffffffffffff82111561122857611227611192565b5b611231826110c9565b9050602081019050919050565b82818337600083830152505050565b600061126061125b8461120d565b6111f2565b90508281526020810184848401111561127c5761127b61118d565b5b61128784828561123e565b509392505050565b600082601f8301126112a4576112a3611188565b5b81356112b484826020860161124d565b91505092915050565b600080604083850312156112d4576112d3610cae565b5b60006112e285828601610d01565b925050602083013567ffffffffffffffff81111561130357611302610cb3565b5b61130f8582860161128f565b9150509250929050565b7f616363657373207265737472696374656420746f2041646d696e2c206163636560008201527f73732064656e6965640000000000000000000000000000000000000000000000602082015250565b600061137560298361108e565b915061138082611319565b604082019050919050565b600060208201905081810360008301526113a481611368565b9050919050565b7f656c65637472696369747920756e697473206d7573742062652067726561746560008201527f72207468616e2030000000000000000000000000000000000000000000000000602082015250565b600061140760288361108e565b9150611412826113ab565b604082019050919050565b60006020820190508181036000830152611436816113fa565b9050919050565b7f4e487b7100000000000000000000000000000000000000000000000000000000600052601160045260246000fd5b600061147782610d6f565b915061148283610d6f565b925082820190508082111561149a5761149961143d565b5b92915050565b7f6163636573732064656e69656400000000000000000000000000000000000000600082015250565b60006114d6600d8361108e565b91506114e1826114a0565b602082019050919050565b60006020820190508181036000830152611505816114c9565b9050919050565b7f4e487b7100000000000000000000000000000000000000000000000000000000600052602260045260246000fd5b6000600282049050600182168061155357607f821691505b6020821081036115665761156561150c565b5b50919050565b7f696e7465726e616c20696e697469616c697a6174696f6e2066756e6374696f6e60008201527f2c206163636573732064656e6965640000000000000000000000000000000000602082015250565b60006115c8602f8361108e565b91506115d38261156c565b604082019050919050565b600060208201905081810360008301526115f7816115bb565b9050919050565b7f596f752063616e6e6f74206368616e6765206f7468657220757365722773206960008201527f6e666f726d6174696f6e00000000000000000000000000000000000000000000602082015250565b600061165a602a8361108e565b9150611665826115fe565b604082019050919050565b600060208201905081810360008301526116898161164d565b9050919050565b60008190508160005260206000209050919050565b60006020601f8301049050919050565b600082821b905092915050565b6000600883026116f27fffffffffffffffffffffffffffffffffffffffffffffffffffffffffffffffff826116b5565b6116fc86836116b5565b95508019841693508086168417925050509392505050565b600061172f61172a61172584610d6f565b610e59565b610d6f565b9050919050565b6000819050919050565b61174983611714565b61175d61175582611736565b8484546116c2565b825550505050565b600090565b611772611765565b61177d818484611740565b505050565b5b818110156117a15761179660008261176a565b600181019050611783565b5050565b601f8211156117e6576117b781611690565b6117c0846116a5565b810160208510156117cf578190505b6117e36117db856116a5565b830182611782565b50505b505050565b600082821c905092915050565b6000611809600019846008026117eb565b1980831691505092915050565b600061182283836117f8565b9150826002028217905092915050565b61183b82611083565b67ffffffffffffffff81111561185457611853611192565b5b61185e825461153b565b6118698282856117a5565b600060209050601f83116001811461189c576000841561188a578287015190505b6118948582611816565b8655506118fc565b601f1984166118aa86611690565b60005b828110156118d2578489015182556001820191506020850194506020810190506118ad565b868310156118ef57848901516118eb601f8916826117f8565b8355505b6001600288020188555050505b505050505050565b7f616363657373207265737472696374656420746f2062757965722f73656c6c6560008201527f7220736572766963652c206163636573732064656e6965640000000000000000602082015250565b600061196060388361108e565b915061196b82611904565b604082019050919050565b6000602082019050818103600083015261198f81611953565b905091905056fea26469706673582212201c93b7af87d8a6bc9805ea84940afb43b857d28823a6062174202c66f69f79ec64736f6c63430008110033608060405234801561001057600080fd5b50600073ab8483f64d9c6d1ecf9b849ae677dd3315835cb29050600063631e76809050600063631e768a9050600063631fc800905060006363211980905060006363226b00905060006363226b0a905060006363226b1490506000636323bc80905060006363250e00905060006363265f80905060006363265f8a905060006363265f94905060056000808f73ffffffffffffffffffffffffffffffffffffffff1673ffffffffffffffffffffffffffffffffffffffff16815260200190815260200160002060030160008e81526020019081526020016000208190555060056000808f73ffffffffffffffffffffffffffffffffffffffff1673ffffffffffffffffffffffffffffffffffffffff16815260200190815260200160002060030160008d81526020019081526020016000208190555060146000808f73ffffffffffffffffffffffffffffffffffffffff1673ffffffffffffffffffffffffffffffffffffffff16815260200190815260200160002060030160008c815260200190815260200160002081905550601e6000808f73ffffffffffffffffffffffffffffffffffffffff1673ffffffffffffffffffffffffffffffffffffffff16815260200190815260200160002060030160008b81526020019081526020016000208190555060146000808f73ffffffffffffffffffffffffffffffffffffffff1673ffffffffffffffffffffffffffffffffffffffff16815260200190815260200160002060030160008a81526020019081526020016000208190555060286000808f73ffffffffffffffffffffffffffffffffffffffff1673ffffffffffffffffffffffffffffffffffffffff168152602001908152602001600020600301600089815260200190815260200160002081905550600a6000808f73ffffffffffffffffffffffffffffffffffffffff1673ffffffffffffffffffffffffffffffffffffffff16815260200190815260200160002060030160008881526020019081526020016000208190555060286000808f73ffffffffffffffffffffffffffffffffffffffff1673ffffffffffffffffffffffffffffffffffffffff16815260200190815260200160002060030160008781526020019081526020016000208190555060326000808f73ffffffffffffffffffffffffffffffffffffffff1673ffffffffffffffffffffffffffffffffffffffff16815260200190815260200160002060030160008681526020019081526020016000208190555060146000808f73ffffffffffffffffffffffffffffffffffffffff1673ffffffffffffffffffffffffffffffffffffffff16815260200190815260200160002060030160008581526020019081526020016000208190555060146000808f73ffffffffffffffffffffffffffffffffffffffff1673ffffffffffffffffffffffffffffffffffffffff16815260200190815260200160002060030160008481526020019081526020016000208190555060146000808f73ffffffffffffffffffffffffffffffffffffffff1673ffffffffffffffffffffffffffffffffffffffff1681526020019081526020016000206003016000838152602001908152602001600020819055506000808e73ffffffffffffffffffffffffffffffffffffffff1673ffffffffffffffffffffffffffffffffffffffff1681526020019081526020016000206004018c90806001815401808255809150506001900390600052602060002001600090919091909150556000808e73ffffffffffffffffffffffffffffffffffffffff1673ffffffffffffffffffffffffffffffffffffffff1681526020019081526020016000206004018b90806001815401808255809150506001900390600052602060002001600090919091909150556000808e73ffffffffffffffffffffffffffffffffffffffff1673ffffffffffffffffffffffffffffffffffffffff1681526020019081526020016000206004018a90806001815401808255809150506001900390600052602060002001600090919091909150556000808e73ffffffffffffffffffffffffffffffffffffffff1673ffffffffffffffffffffffffffffffffffffffff1681526020019081526020016000206004018990806001815401808255809150506001900390600052602060002001600090919091909150556000808e73ffffffffffffffffffffffffffffffffffffffff1673ffffffffffffffffffffffffffffffffffffffff1681526020019081526020016000206004018890806001815401808255809150506001900390600052602060002001600090919091909150556000808e73ffffffffffffffffffffffffffffffffffffffff1673ffffffffffffffffffffffffffffffffffffffff1681526020019081526020016000206004018790806001815401808255809150506001900390600052602060002001600090919091909150556000808e73ffffffffffffffffffffffffffffffffffffffff1673ffffffffffffffffffffffffffffffffffffffff1681526020019081526020016000206004018690806001815401808255809150506001900390600052602060002001600090919091909150556000808e73ffffffffffffffffffffffffffffffffffffffff1673ffffffffffffffffffffffffffffffffffffffff1681526020019081526020016000206004018590806001815401808255809150506001900390600052602060002001600090919091909150556000808e73ffffffffffffffffffffffffffffffffffffffff1673ffffffffffffffffffffffffffffffffffffffff1681526020019081526020016000206004018490806001815401808255809150506001900390600052602060002001600090919091909150556000808e73ffffffffffffffffffffffffffffffffffffffff1673ffffffffffffffffffffffffffffffffffffffff1681526020019081526020016000206004018390806001815401808255809150506001900390600052602060002001600090919091909150556000808e73ffffffffffffffffffffffffffffffffffffffff1673ffffffffffffffffffffffffffffffffffffffff1681526020019081526020016000206004018290806001815401808255809150506001900390600052602060002001600090919091909150556000808e73ffffffffffffffffffffffffffffffffffffffff1673ffffffffffffffffffffffffffffffffffffffff16815260200190815260200160002060040181908060018154018082558091505060019003906000526020600020016000909190919091505550505050505050505050505050611b94806109b26000396000f3fe608060405234801561001057600080fd5b50600436106100a95760003560e01c806377c82cc91161007157806377c82cc9146101625780638b5ccc6e14610192578063b5387dc5146101c4578063e6b02333146101f4578063e8b8530f14610210578063fc3698181461022c576100a9565b80631363b936146100ae5780631e7ba9cd146100de5780632f0a323e146100fa57806333bdb8f9146101165780633f9b696c14610146575b600080fd5b6100c860048036038101906100c39190611362565b61025c565b6040516100d591906113c4565b60405180910390f35b6100f860048036038101906100f391906113df565b6102c1565b005b610114600480360381019061010f91906113df565b610385565b005b610130600480360381019061012b9190611432565b610449565b60405161013d91906113c4565b60405180910390f35b610160600480360381019061015b919061145f565b610494565b005b61017c60048036038101906101779190611432565b6104f0565b604051610189919061159f565b60405180910390f35b6101ac60048036038101906101a79190611432565b610846565b6040516101bb939291906115c1565b60405180910390f35b6101de60048036038101906101d99190611432565b610870565b6040516101eb91906113c4565b60405180910390f35b61020e600480360381019061020991906113df565b6108bb565b005b61022a6004803603810190610225919061145f565b610a12565b005b61024660048036038101906102419190611362565b610a6e565b60405161025391906116a7565b60405180910390f35b60008061026a858585610a6e565b90506000805b82518110156102b45782818151811061028c5761028b6116c9565b5b60200260200101518261029f9190611727565b915080806102ac9061175b565b915050610270565b5080925050509392505050565b806000808573ffffffffffffffffffffffffffffffffffffffff1673ffffffffffffffffffffffffffffffffffffffff1681526020019081526020016000206005016000848152602001908152602001600020819055506000808473ffffffffffffffffffffffffffffffffffffffff1673ffffffffffffffffffffffffffffffffffffffff168152602001908152602001600020600601829080600181540180825580915050600190039060005260206000200160009091909190915055505050565b806000808573ffffffffffffffffffffffffffffffffffffffff1673ffffffffffffffffffffffffffffffffffffffff1681526020019081526020016000206003016000848152602001908152602001600020819055506000808473ffffffffffffffffffffffffffffffffffffffff1673ffffffffffffffffffffffffffffffffffffffff168152602001908152602001600020600401829080600181540180825580915050600190039060005260206000200160009091909190915055505050565b60008060008373ffffffffffffffffffffffffffffffffffffffff1673ffffffffffffffffffffffffffffffffffffffff168152602001908152602001600020600101549050919050565b806000808473ffffffffffffffffffffffffffffffffffffffff1673ffffffffffffffffffffffffffffffffffffffff16815260200190815260200160002060000160008282546104e59190611727565b925050819055505050565b606060008060008473ffffffffffffffffffffffffffffffffffffffff1673ffffffffffffffffffffffffffffffffffffffff1681526020019081526020016000206002015490506000808211156105525760018261054f91906117a3565b90505b600061055f83600a610e99565b67ffffffffffffffff811115610578576105776117d7565b5b6040519080825280602002602001820160405280156105b157816020015b61059e611247565b8152602001906001900390816105965790505b50905060005b6105c284600a610e99565b81101561083a576000808773ffffffffffffffffffffffffffffffffffffffff1673ffffffffffffffffffffffffffffffffffffffff168152602001908152602001600020600701600084815260200190815260200160002060010154828281518110610632576106316116c9565b5b602002602001015160000181815250506000808773ffffffffffffffffffffffffffffffffffffffff1673ffffffffffffffffffffffffffffffffffffffff1681526020019081526020016000206007016000848152602001908152602001600020600001548282815181106106ab576106aa6116c9565b5b6020026020010151602001818152505060008282815181106106d0576106cf6116c9565b5b6020026020010151602001510361077a576000808773ffffffffffffffffffffffffffffffffffffffff1673ffffffffffffffffffffffffffffffffffffffff1681526020019081526020016000206003016000838381518110610737576107366116c9565b5b602002602001015160000151815260200190815260200160002054828281518110610765576107646116c9565b5b6020026020010151604001818152505061080f565b6000808773ffffffffffffffffffffffffffffffffffffffff1673ffffffffffffffffffffffffffffffffffffffff16815260200190815260200160002060050160008383815181106107d0576107cf6116c9565b5b6020026020010151600001518152602001908152602001600020548282815181106107fe576107fd6116c9565b5b602002602001015160400181815250505b600083111561082757828061082390611806565b9350505b80806108329061175b565b9150506105b7565b50809350505050919050565b60006020528060005260406000206000915090508060000154908060010154908060020154905083565b60008060008373ffffffffffffffffffffffffffffffffffffffff1673ffffffffffffffffffffffffffffffffffffffff168152602001908152602001600020600001549050919050565b60008060008573ffffffffffffffffffffffffffffffffffffffff1673ffffffffffffffffffffffffffffffffffffffff168152602001908152602001600020600201549050826000808673ffffffffffffffffffffffffffffffffffffffff1673ffffffffffffffffffffffffffffffffffffffff168152602001908152602001600020600701600083815260200190815260200160002060000181905550816000808673ffffffffffffffffffffffffffffffffffffffff1673ffffffffffffffffffffffffffffffffffffffff1681526020019081526020016000206007016000838152602001908152602001600020600101819055506000808573ffffffffffffffffffffffffffffffffffffffff1673ffffffffffffffffffffffffffffffffffffffff1681526020019081526020016000206002016000815480929190610a079061175b565b919050555050505050565b806000808473ffffffffffffffffffffffffffffffffffffffff1673ffffffffffffffffffffffffffffffffffffffff1681526020019081526020016000206001016000828254610a639190611727565b925050819055505050565b60606000831015610ab4576040517f08c379a0000000000000000000000000000000000000000000000000000000008152600401610aab9061188c565b60405180910390fd5b610abc611268565b600767ffffffffffffffff811115610ad757610ad66117d7565b5b604051908082528060200260200182016040528015610b055781602001602082028036833780820191505090505b5081606001819052508362093a80610b1d91906118ac565b8160000181815250506000806000610b3442610eb5565b9250925092506000610b47848484610ee4565b90506000610b5442610f08565b9050600062015180600183610b6991906117a3565b610b7391906118ac565b83610b7e91906117a3565b9050866000015181610b9091906117a3565b87602001818152505062093a808760200151610bac9190611727565b876040018181525050606060008a60ff1603610c59576000808d73ffffffffffffffffffffffffffffffffffffffff1673ffffffffffffffffffffffffffffffffffffffff168152602001908152602001600020600401805480602002602001604051908101604052809291908181526020018280548015610c4d57602002820191906000526020600020905b815481526020019060010190808311610c39575b50505050509050610d3e565b60018a60ff1603610cfb576000808d73ffffffffffffffffffffffffffffffffffffffff1673ffffffffffffffffffffffffffffffffffffffff168152602001908152602001600020600601805480602002602001604051908101604052809291908181526020018280548015610cef57602002820191906000526020600020905b815481526020019060010190808311610cdb575b50505050509050610d3d565b6000610d3c576040517f08c379a0000000000000000000000000000000000000000000000000000000008152600401610d339061193a565b60405180910390fd5b5b5b60005b8151811015610e82578860200151828281518110610d6257610d616116c9565b5b602002602001015110158015610d9657508860400151828281518110610d8b57610d8a6116c9565b5b602002602001015111155b15610e6f576000610dc0838381518110610db357610db26116c9565b5b6020026020010151610f08565b90506000808f73ffffffffffffffffffffffffffffffffffffffff1673ffffffffffffffffffffffffffffffffffffffff1681526020019081526020016000206003016000848481518110610e1857610e176116c9565b5b60200260200101518152602001908152602001600020548a60600151600183610e4191906117a3565b81518110610e5257610e516116c9565b5b60200260200101818151610e669190611727565b91508181525050505b8080610e7a9061175b565b915050610d41565b508760600151985050505050505050509392505050565b600081831015610eab57829050610eaf565b8190505b92915050565b6000806000610ed16201518085610ecc9190611989565b610f49565b8093508194508295505050509193909250565b600062015180610ef58585856110e8565b610eff91906118ac565b90509392505050565b6000806201518083610f1a9190611989565b905060016007600383610f2d9190611727565b610f3791906119ba565b610f419190611727565b915050919050565b600080600080849050600062253d8c62010bd983610f6791906119f5565b610f7191906119f5565b9050600062023ab1826004610f869190611a39565b610f909190611ab1565b9050600460038262023ab1610fa59190611a39565b610faf91906119f5565b610fb99190611ab1565b82610fc49190611b1b565b9150600062164b09600184610fd991906119f5565b610fa0610fe69190611a39565b610ff09190611ab1565b9050601f6004826105b56110049190611a39565b61100e9190611ab1565b846110199190611b1b565b61102391906119f5565b9250600061098f8460506110379190611a39565b6110419190611ab1565b9050600060508261098f6110559190611a39565b61105f9190611ab1565b8561106a9190611b1b565b9050600b826110799190611ab1565b945084600c6110889190611a39565b60028361109591906119f5565b61109f9190611b1b565b915084836031866110b09190611b1b565b60646110bc9190611a39565b6110c691906119f5565b6110d091906119f5565b92508298508197508096505050505050509193909250565b60006107b28410156110f957600080fd5b600084905060008490506000849050600062253d8c60046064600c600e876111219190611b1b565b61112b9190611ab1565b6113248861113991906119f5565b61114391906119f5565b61114d9190611ab1565b60036111599190611a39565b6111639190611ab1565b600c80600c600e886111759190611b1b565b61117f9190611ab1565b6111899190611a39565b6002876111969190611b1b565b6111a09190611b1b565b61016f6111ad9190611a39565b6111b79190611ab1565b6004600c600e886111c89190611b1b565b6111d29190611ab1565b6112c0896111e091906119f5565b6111ea91906119f5565b6105b56111f79190611a39565b6112019190611ab1565b617d4b8661120f9190611b1b565b61121991906119f5565b61122391906119f5565b61122d9190611b1b565b6112379190611b1b565b9050809450505050509392505050565b60405180606001604052806000815260200160008152602001600081525090565b6040518060800160405280600081526020016000815260200160008152602001606081525090565b600080fd5b600073ffffffffffffffffffffffffffffffffffffffff82169050919050565b60006112c082611295565b9050919050565b6112d0816112b5565b81146112db57600080fd5b50565b6000813590506112ed816112c7565b92915050565b6000819050919050565b611306816112f3565b811461131157600080fd5b50565b600081359050611323816112fd565b92915050565b600060ff82169050919050565b61133f81611329565b811461134a57600080fd5b50565b60008135905061135c81611336565b92915050565b60008060006060848603121561137b5761137a611290565b5b6000611389868287016112de565b935050602061139a86828701611314565b92505060406113ab8682870161134d565b9150509250925092565b6113be816112f3565b82525050565b60006020820190506113d960008301846113b5565b92915050565b6000806000606084860312156113f8576113f7611290565b5b6000611406868287016112de565b935050602061141786828701611314565b925050604061142886828701611314565b9150509250925092565b60006020828403121561144857611447611290565b5b6000611456848285016112de565b91505092915050565b6000806040838503121561147657611475611290565b5b6000611484858286016112de565b925050602061149585828601611314565b9150509250929050565b600081519050919050565b600082825260208201905092915050565b6000819050602082019050919050565b6114d4816112f3565b82525050565b6060820160008201516114f060008501826114cb565b50602082015161150360208501826114cb565b50604082015161151660408501826114cb565b50505050565b600061152883836114da565b60608301905092915050565b6000602082019050919050565b600061154c8261149f565b61155681856114aa565b9350611561836114bb565b8060005b83811015611592578151611579888261151c565b975061158483611534565b925050600181019050611565565b5085935050505092915050565b600060208201905081810360008301526115b98184611541565b905092915050565b60006060820190506115d660008301866113b5565b6115e360208301856113b5565b6115f060408301846113b5565b949350505050565b600081519050919050565b600082825260208201905092915050565b6000819050602082019050919050565b600061163083836114cb565b60208301905092915050565b6000602082019050919050565b6000611654826115f8565b61165e8185611603565b935061166983611614565b8060005b8381101561169a5781516116818882611624565b975061168c8361163c565b92505060018101905061166d565b5085935050505092915050565b600060208201905081810360008301526116c18184611649565b905092915050565b7f4e487b7100000000000000000000000000000000000000000000000000000000600052603260045260246000fd5b7f4e487b7100000000000000000000000000000000000000000000000000000000600052601160045260246000fd5b6000611732826112f3565b915061173d836112f3565b9250828201905080821115611755576117546116f8565b5b92915050565b6000611766826112f3565b91507fffffffffffffffffffffffffffffffffffffffffffffffffffffffffffffffff8203611798576117976116f8565b5b600182019050919050565b60006117ae826112f3565b91506117b9836112f3565b92508282039050818111156117d1576117d06116f8565b5b92915050565b7f4e487b7100000000000000000000000000000000000000000000000000000000600052604160045260246000fd5b6000611811826112f3565b915060008203611824576118236116f8565b5b600182039050919050565b600082825260208201905092915050565b7f7765656b206e756d626572207374617274732066726f6d203000000000000000600082015250565b600061187660198361182f565b915061188182611840565b602082019050919050565b600060208201905081810360008301526118a581611869565b9050919050565b60006118b7826112f3565b91506118c2836112f3565b92508282026118d0816112f3565b915082820484148315176118e7576118e66116f8565b5b5092915050565b7f696e76616c6964207472616e73616374696f6e20747970650000000000000000600082015250565b600061192460188361182f565b915061192f826118ee565b602082019050919050565b6000602082019050818103600083015261195381611917565b9050919050565b7f4e487b7100000000000000000000000000000000000000000000000000000000600052601260045260246000fd5b6000611994826112f3565b915061199f836112f3565b9250826119af576119ae61195a565b5b828204905092915050565b60006119c5826112f3565b91506119d0836112f3565b9250826119e0576119df61195a565b5b828206905092915050565b6000819050919050565b6000611a00826119eb565b9150611a0b836119eb565b925082820190508281121560008312168382126000841215161715611a3357611a326116f8565b5b92915050565b6000611a44826119eb565b9150611a4f836119eb565b9250828202611a5d816119eb565b91507f80000000000000000000000000000000000000000000000000000000000000008414600084121615611a9557611a946116f8565b5b8282058414831517611aaa57611aa96116f8565b5b5092915050565b6000611abc826119eb565b9150611ac7836119eb565b925082611ad757611ad661195a565b5b600160000383147f800000000000000000000000000000000000000000000000000000000000000083141615611b1057611b0f6116f8565b5b828205905092915050565b6000611b26826119eb565b9150611b31836119eb565b9250828203905081811260008412168282136000851215161715611b5857611b576116f8565b5b9291505056fea2646970667358221220137d3ccf7359d9239af57448855e00856c2e2dff0082b98f612e7c0ed468ec3864736f6c63430008110033608060405234801561001057600080fd5b50610954806100206000396000f3fe608060405234801561001057600080fd5b506004361061002b5760003560e01c80632336b59114610030575b600080fd5b61004a6004803603810190610045919061033e565b610062565b60405161005993929190610430565b60405180910390f35b6000806060600086600a61007691906105d0565b90508486610084919061064a565b9350600085868389610096919061067b565b6100a091906106bd565b60026100ac919061067b565b10159050818683896100be919061067b565b6100c8919061064a565b6100d291906106bd565b935080156100ea576001846100e791906106ee565b93505b6100f38561012a565b6100fd898661028a565b60405160200161010e9291906107aa565b6040516020818303038152906040529250505093509350939050565b606060008203610171576040518060400160405280600181526020017f30000000000000000000000000000000000000000000000000000000000000008152509050610285565b600082905060005b600082146101a357808061018c906107d9565b915050600a8261019c919061064a565b9150610179565b60008167ffffffffffffffff8111156101bf576101be610821565b5b6040519080825280601f01601f1916602001820160405280156101f15781602001600182028036833780820191505090505b5090505b6000851461027e5760018261020a9190610850565b9150600a8561021991906106bd565b603061022591906106ee565b60f81b81838151811061023b5761023a610884565b5b60200101907effffffffffffffffffffffffffffffffffffffffffffffffffffffffffffff1916908160001a905350600a85610277919061064a565b94506101f5565b8093505050505b919050565b60608060005b848110156102f8576000600a856102a791906106bd565b90506102b28161012a565b836040516020016102c49291906108fa565b6040516020818303038152906040529250600a856102e2919061064a565b94505080806102f0906107d9565b915050610290565b508091505092915050565b600080fd5b6000819050919050565b61031b81610308565b811461032657600080fd5b50565b60008135905061033881610312565b92915050565b60008060006060848603121561035757610356610303565b5b600061036586828701610329565b935050602061037686828701610329565b925050604061038786828701610329565b9150509250925092565b61039a81610308565b82525050565b600081519050919050565b600082825260208201905092915050565b60005b838110156103da5780820151818401526020810190506103bf565b60008484015250505050565b6000601f19601f8301169050919050565b6000610402826103a0565b61040c81856103ab565b935061041c8185602086016103bc565b610425816103e6565b840191505092915050565b60006060820190506104456000830186610391565b6104526020830185610391565b818103604083015261046481846103f7565b9050949350505050565b7f4e487b7100000000000000000000000000000000000000000000000000000000600052601160045260246000fd5b60008160011c9050919050565b6000808291508390505b60018511156104f4578086048111156104d0576104cf61046e565b5b60018516156104df5780820291505b80810290506104ed8561049d565b94506104b4565b94509492505050565b60008261050d57600190506105c9565b8161051b57600090506105c9565b8160018114610531576002811461053b5761056a565b60019150506105c9565b60ff84111561054d5761054c61046e565b5b8360020a9150848211156105645761056361046e565b5b506105c9565b5060208310610133831016604e8410600b841016171561059f5782820a90508381111561059a5761059961046e565b5b6105c9565b6105ac84848460016104aa565b925090508184048111156105c3576105c261046e565b5b81810290505b9392505050565b60006105db82610308565b91506105e683610308565b92506106137fffffffffffffffffffffffffffffffffffffffffffffffffffffffffffffffff84846104fd565b905092915050565b7f4e487b7100000000000000000000000000000000000000000000000000000000600052601260045260246000fd5b600061065582610308565b915061066083610308565b9250826106705761066f61061b565b5b828204905092915050565b600061068682610308565b915061069183610308565b925082820261069f81610308565b915082820484148315176106b6576106b561046e565b5b5092915050565b60006106c882610308565b91506106d383610308565b9250826106e3576106e261061b565b5b828206905092915050565b60006106f982610308565b915061070483610308565b925082820190508082111561071c5761071b61046e565b5b92915050565b600081905092915050565b6000610738826103a0565b6107428185610722565b93506107528185602086016103bc565b80840191505092915050565b7f2e00000000000000000000000000000000000000000000000000000000000000600082015250565b6000610794600183610722565b915061079f8261075e565b600182019050919050565b60006107b6828561072d565b91506107c182610787565b91506107cd828461072d565b91508190509392505050565b60006107e482610308565b91507fffffffffffffffffffffffffffffffffffffffffffffffffffffffffffffffff82036108165761081561046e565b5b600182019050919050565b7f4e487b7100000000000000000000000000000000000000000000000000000000600052604160045260246000fd5b600061085b82610308565b915061086683610308565b925082820390508181111561087e5761087d61046e565b5b92915050565b7f4e487b7100000000000000000000000000000000000000000000000000000000600052603260045260246000fd5b600081519050919050565b600081905092915050565b60006108d4826108b3565b6108de81856108be565b93506108ee8185602086016103bc565b80840191505092915050565b6000610906828561072d565b915061091282846108c9565b9150819050939250505056fea2646970667358221220d58d007b9352dfbc8de416aacae065e2b9c580080c177944135f29e7894e346a64736f6c634300081100336080604052606467ffffffffffffffff811115620000225762000021620001da565b5b604051908082528060200260200182016040528015620000515781602001602082028036833780820191505090505b50600590805190602001906200006992919062000169565b503480156200007757600080fd5b50604051620053303803806200533083398181016040528101906200009d919062000311565b82600760016101000a81548173ffffffffffffffffffffffffffffffffffffffff021916908373ffffffffffffffffffffffffffffffffffffffff16021790555081600860006101000a81548173ffffffffffffffffffffffffffffffffffffffff021916908373ffffffffffffffffffffffffffffffffffffffff16021790555080600960006101000a81548173ffffffffffffffffffffffffffffffffffffffff021916908373ffffffffffffffffffffffffffffffffffffffff1602179055505050506200036d565b828054828255906000526020600020908101928215620001a8579160200282015b82811115620001a75782518255916020019190600101906200018a565b5b509050620001b79190620001bb565b5090565b5b80821115620001d6576000816000905550600101620001bc565b5090565b7f4e487b7100000000000000000000000000000000000000000000000000000000600052604160045260246000fd5b600080fd5b600073ffffffffffffffffffffffffffffffffffffffff82169050919050565b60006200023b826200020e565b9050919050565b60006200024f826200022e565b9050919050565b620002618162000242565b81146200026d57600080fd5b50565b600081519050620002818162000256565b92915050565b600062000294826200022e565b9050919050565b620002a68162000287565b8114620002b257600080fd5b50565b600081519050620002c6816200029b565b92915050565b6000620002d9826200022e565b9050919050565b620002eb81620002cc565b8114620002f757600080fd5b50565b6000815190506200030b81620002e0565b92915050565b6000806000606084860312156200032d576200032c62000209565b5b60006200033d8682870162000270565b93505060206200035086828701620002b5565b92505060406200036386828701620002fa565b9150509250925092565b614fb3806200037d6000396000f3fe608060405260043610620000d45760003560e01c806347f39ced116200008b578063951b3de81162000061578063951b3de814620002b3578063bca73eb214620002e3578063ced8d5301462000311578063d77cf115146200035557620000d4565b806347f39ced1462000211578063620c503a146200022b5780637b7e76b8146200026f57620000d4565b80630aeadded14620000d95780630d9035f514620001075780631488e66014620001375780631b1341c5146200017b5780633d480db514620001ab5780634659d79f14620001e1575b600080fd5b348015620000e657600080fd5b50620001056004803603810190620000ff91906200217d565b62000385565b005b3480156200011457600080fd5b506200011f620006a9565b6040516200012e919062002200565b60405180910390f35b3480156200014457600080fd5b506200016360048036038101906200015d91906200221d565b620006af565b60405162000172919062002200565b60405180910390f35b3480156200018857600080fd5b5062000193620006d4565b604051620001a29190620022e9565b60405180910390f35b620001c96004803603810190620001c391906200230d565b6200076e565b604051620001d89190620022e9565b60405180910390f35b348015620001ee57600080fd5b50620001f962001645565b60405162000208919062002200565b60405180910390f35b3480156200021e57600080fd5b50620002296200164b565b005b3480156200023857600080fd5b506200025760048036038101906200025191906200221d565b62001858565b6040516200026691906200247c565b60405180910390f35b3480156200027c57600080fd5b506200029b6004803603810190620002959190620024a0565b62001944565b604051620002aa9190620026f1565b60405180910390f35b348015620002c057600080fd5b50620002cb62001bf8565b604051620002da919062002200565b60405180910390f35b348015620002f057600080fd5b506200030f600480360381019062000309919062002715565b62001c02565b005b3480156200031e57600080fd5b506200033d60048036038101906200033791906200221d565b62001e8a565b6040516200034c919062002806565b60405180910390f35b3480156200036257600080fd5b506200036d62001fd7565b6040516200037c9190620022e9565b60405180910390f35b60008411620003cb576040517f08c379a0000000000000000000000000000000000000000000000000000000008152600401620003c2906200287a565b60405180910390fd5b6000831162000411576040517f08c379a00000000000000000000000000000000000000000000000000000000081526004016200040890620028ec565b60405180910390fd5b600082101562000458576040517f08c379a00000000000000000000000000000000000000000000000000000000081526004016200044f906200295e565b60405180910390fd5b60008083815260200190815260200160002060020160009054906101000a900473ffffffffffffffffffffffffffffffffffffffff1673ffffffffffffffffffffffffffffffffffffffff168173ffffffffffffffffffffffffffffffffffffffff1603620004fe576040517f08c379a0000000000000000000000000000000000000000000000000000000008152600401620004f590620029f6565b60405180910390fd5b60008060008481526020019081526020016000206004018054905090506000308387876000888760405162000533906200206d565b62000545979695949392919062002a79565b604051809103906000f08015801562000562573d6000803e3d6000fd5b50905080600080868152602001908152602001600020600401600181600181540180825580915050039060005260206000200160006101000a81548173ffffffffffffffffffffffffffffffffffffffff021916908373ffffffffffffffffffffffffffffffffffffffff160217905550600860009054906101000a900473ffffffffffffffffffffffffffffffffffffffff1673ffffffffffffffffffffffffffffffffffffffff166384dc965a84836040518363ffffffff1660e01b81526004016200063292919062002b07565b600060405180830381600087803b1580156200064d57600080fd5b505af115801562000662573d6000803e3d6000fd5b505050507f83c1d63a3e3cd3d3a92a899ed2f341bd373a5326ebf67b9bd646543e55081ebc83826040516200069992919062002b34565b60405180910390a1505050505050565b60065481565b60058181548110620006c057600080fd5b906000526020600020016000915090505481565b606060048054620006e59062002b90565b80601f0160208091040260200160405190810160405280929190818152602001828054620007139062002b90565b8015620007645780601f10620007385761010080835404028352916020019162000764565b820191906000526020600020905b8154815290600101906020018083116200074657829003601f168201915b5050505050905090565b6060600080600085815260200190815260200160002060040183815481106200079c576200079b62002bc5565b5b9060005260206000200160009054906101000a900473ffffffffffffffffffffffffffffffffffffffff1690503373ffffffffffffffffffffffffffffffffffffffff168173ffffffffffffffffffffffffffffffffffffffff16146200083a576040517f08c379a0000000000000000000000000000000000000000000000000000000008152600401620008319062002c90565b60405180910390fd5b600042905060008273ffffffffffffffffffffffffffffffffffffffff1663d67bdd256040518163ffffffff1660e01b8152600401602060405180830381865afa1580156200088d573d6000803e3d6000fd5b505050506040513d601f19601f82011682018060405250810190620008b3919062002cc9565b90508273ffffffffffffffffffffffffffffffffffffffff1663aa8c217c6040518163ffffffff1660e01b8152600401602060405180830381865afa15801562000901573d6000803e3d6000fd5b505050506040513d601f19601f8201168201806040525081019062000927919062002d12565b600860009054906101000a900473ffffffffffffffffffffffffffffffffffffffff1673ffffffffffffffffffffffffffffffffffffffff1663cb8ab15b836040518263ffffffff1660e01b815260040162000984919062002d44565b602060405180830381865afa158015620009a2573d6000803e3d6000fd5b505050506040513d601f19601f82011682018060405250810190620009c8919062002d12565b101562000a0c576040517f08c379a000000000000000000000000000000000000000000000000000000000815260040162000a039062002dd7565b60405180910390fd5b600860009054906101000a900473ffffffffffffffffffffffffffffffffffffffff1673ffffffffffffffffffffffffffffffffffffffff1663e2670971828573ffffffffffffffffffffffffffffffffffffffff1663aa8c217c6040518163ffffffff1660e01b8152600401602060405180830381865afa15801562000a97573d6000803e3d6000fd5b505050506040513d601f19601f8201168201806040525081019062000abd919062002d12565b600860009054906101000a900473ffffffffffffffffffffffffffffffffffffffff1673ffffffffffffffffffffffffffffffffffffffff1663cb8ab15b866040518263ffffffff1660e01b815260040162000b1a919062002d44565b602060405180830381865afa15801562000b38573d6000803e3d6000fd5b505050506040513d601f19601f8201168201806040525081019062000b5e919062002d12565b62000b6a919062002e28565b6040518363ffffffff1660e01b815260040162000b8992919062002e63565b600060405180830381600087803b15801562000ba457600080fd5b505af115801562000bb9573d6000803e3d6000fd5b50505050600760019054906101000a900473ffffffffffffffffffffffffffffffffffffffff1673ffffffffffffffffffffffffffffffffffffffff1663e8b8530f828573ffffffffffffffffffffffffffffffffffffffff1663aa8c217c6040518163ffffffff1660e01b8152600401602060405180830381865afa15801562000c48573d6000803e3d6000fd5b505050506040513d601f19601f8201168201806040525081019062000c6e919062002d12565b6040518363ffffffff1660e01b815260040162000c8d92919062002e63565b600060405180830381600087803b15801562000ca857600080fd5b505af115801562000cbd573d6000803e3d6000fd5b50505050600760019054906101000a900473ffffffffffffffffffffffffffffffffffffffff1673ffffffffffffffffffffffffffffffffffffffff16631e7ba9cd82848673ffffffffffffffffffffffffffffffffffffffff1663aa8c217c6040518163ffffffff1660e01b8152600401602060405180830381865afa15801562000d4d573d6000803e3d6000fd5b505050506040513d601f19601f8201168201806040525081019062000d73919062002d12565b6040518463ffffffff1660e01b815260040162000d939392919062002e90565b600060405180830381600087803b15801562000dae57600080fd5b505af115801562000dc3573d6000803e3d6000fd5b50505050600760019054906101000a900473ffffffffffffffffffffffffffffffffffffffff1673ffffffffffffffffffffffffffffffffffffffff1663e6b02333826001856040518463ffffffff1660e01b815260040162000e299392919062002f10565b600060405180830381600087803b15801562000e4457600080fd5b505af115801562000e59573d6000803e3d6000fd5b50505050600080600088815260200190815260200160002060020160009054906101000a900473ffffffffffffffffffffffffffffffffffffffff169050600860009054906101000a900473ffffffffffffffffffffffffffffffffffffffff1673ffffffffffffffffffffffffffffffffffffffff1663e2670971828673ffffffffffffffffffffffffffffffffffffffff1663aa8c217c6040518163ffffffff1660e01b8152600401602060405180830381865afa15801562000f22573d6000803e3d6000fd5b505050506040513d601f19601f8201168201806040525081019062000f48919062002d12565b600860009054906101000a900473ffffffffffffffffffffffffffffffffffffffff1673ffffffffffffffffffffffffffffffffffffffff1663cb8ab15b866040518263ffffffff1660e01b815260040162000fa5919062002d44565b602060405180830381865afa15801562000fc3573d6000803e3d6000fd5b505050506040513d601f19601f8201168201806040525081019062000fe9919062002d12565b62000ff5919062002f4d565b6040518363ffffffff1660e01b81526004016200101492919062002e63565b600060405180830381600087803b1580156200102f57600080fd5b505af115801562001044573d6000803e3d6000fd5b50505050600760019054906101000a900473ffffffffffffffffffffffffffffffffffffffff1673ffffffffffffffffffffffffffffffffffffffff16633f9b696c828673ffffffffffffffffffffffffffffffffffffffff1663aa8c217c6040518163ffffffff1660e01b8152600401602060405180830381865afa158015620010d3573d6000803e3d6000fd5b505050506040513d601f19601f82011682018060405250810190620010f9919062002d12565b6040518363ffffffff1660e01b81526004016200111892919062002e63565b600060405180830381600087803b1580156200113357600080fd5b505af115801562001148573d6000803e3d6000fd5b50505050600760019054906101000a900473ffffffffffffffffffffffffffffffffffffffff1673ffffffffffffffffffffffffffffffffffffffff16632f0a323e82858773ffffffffffffffffffffffffffffffffffffffff1663aa8c217c6040518163ffffffff1660e01b8152600401602060405180830381865afa158015620011d8573d6000803e3d6000fd5b505050506040513d601f19601f82011682018060405250810190620011fe919062002d12565b6040518463ffffffff1660e01b81526004016200121e9392919062002e90565b600060405180830381600087803b1580156200123957600080fd5b505af11580156200124e573d6000803e3d6000fd5b50505050600760019054906101000a900473ffffffffffffffffffffffffffffffffffffffff1673ffffffffffffffffffffffffffffffffffffffff1663e6b02333826000866040518463ffffffff1660e01b8152600401620012b49392919062002fc1565b600060405180830381600087803b158015620012cf57600080fd5b505af1158015620012e4573d6000803e3d6000fd5b505050508373ffffffffffffffffffffffffffffffffffffffff1663aa8c217c6040518163ffffffff1660e01b8152600401602060405180830381865afa15801562001334573d6000803e3d6000fd5b505050506040513d601f19601f820116820180604052508101906200135a919062002d12565b600080898152602001908152602001600020600101541015620013b4576040517f08c379a0000000000000000000000000000000000000000000000000000000008152600401620013ab906200309a565b60405180910390fd5b8373ffffffffffffffffffffffffffffffffffffffff1663aa8c217c6040518163ffffffff1660e01b8152600401602060405180830381865afa15801562001400573d6000803e3d6000fd5b505050506040513d601f19601f8201168201806040525081019062001426919062002d12565b60008089815260200190815260200160002060010160008282546200144c919062002e28565b9250508190555060008060008981526020019081526020016000206001015403620014a057600080600089815260200190815260200160002060020160146101000a81548160ff0219169083151502179055505b606460065403620014cf576001600760006101000a81548160ff02191690831515021790555060006006819055505b8373ffffffffffffffffffffffffffffffffffffffff1663a03a202e6040518163ffffffff1660e01b8152600401602060405180830381865afa1580156200151b573d6000803e3d6000fd5b505050506040513d601f19601f8201168201806040525081019062001541919062002d12565b6005600660008154809291906200155890620030bc565b919050558154811062001570576200156f62002bc5565b5b90600052602060002001819055508173ffffffffffffffffffffffffffffffffffffffff166108fc349081150290604051600060405180830381858888f19350505050158015620015c5573d6000803e3d6000fd5b507faa5ef240d12945dacdcfd9ecc9a86ba7fa61f117ef9e9626465aa252e6dd5b66348886604051620015fb9392919062003109565b60405180910390a16040518060400160405280600781526020017f737563636573730000000000000000000000000000000000000000000000000081525094505050505092915050565b60035481565b6000805b600580549050811015620016a4576005818154811062001674576200167362002bc5565b5b9060005260206000200154826200168c919062002f4d565b915080806200169b90620030bc565b9150506200164f565b50600760009054906101000a900460ff16156200178a57600960009054906101000a900473ffffffffffffffffffffffffffffffffffffffff1673ffffffffffffffffffffffffffffffffffffffff16632336b59160038360646040518463ffffffff1660e01b81526004016200171e93929190620031cc565b600060405180830381865afa1580156200173c573d6000803e3d6000fd5b505050506040513d6000823e3d601f19601f820116820180604052508101906200176791906200334b565b9091509050600460008291905090816200178291906200358e565b505062001855565b600960009054906101000a900473ffffffffffffffffffffffffffffffffffffffff1673ffffffffffffffffffffffffffffffffffffffff16632336b5916003836006546040518463ffffffff1660e01b8152600401620017ee9392919062003675565b600060405180830381865afa1580156200180c573d6000803e3d6000fd5b505050506040513d6000823e3d601f19601f820116820180604052508101906200183791906200334b565b9091509050600460008291905090816200185291906200358e565b50505b50565b60606000821015620018a1576040517f08c379a000000000000000000000000000000000000000000000000000000000815260040162001898906200295e565b60405180910390fd5b6000808381526020019081526020016000206004018054806020026020016040519081016040528092919081815260200182805480156200193857602002820191906000526020600020905b8160009054906101000a900473ffffffffffffffffffffffffffffffffffffffff1673ffffffffffffffffffffffffffffffffffffffff1681526020019060010190808311620018ed575b50505050509050919050565b60606000600860009054906101000a900473ffffffffffffffffffffffffffffffffffffffff1673ffffffffffffffffffffffffffffffffffffffff1663ebe0b877846040518263ffffffff1660e01b8152600401620019a5919062002d44565b600060405180830381865afa158015620019c3573d6000803e3d6000fd5b505050506040513d6000823e3d601f19601f82011682018060405250810190620019ee91906200378d565b90506000815167ffffffffffffffff81111562001a105762001a0f62003213565b5b60405190808252806020026020018201604052801562001a4d57816020015b62001a396200207b565b81526020019060019003908162001a2f5790505b50905060005b825181101562001bed5760008084838151811062001a765762001a7562002bc5565b5b602002602001015181526020019081526020016000206040518060c001604052908160008201548152602001600182015481526020016002820160009054906101000a900473ffffffffffffffffffffffffffffffffffffffff1673ffffffffffffffffffffffffffffffffffffffff1673ffffffffffffffffffffffffffffffffffffffff1681526020016002820160149054906101000a900460ff16151515158152602001600382015481526020016004820180548060200260200160405190810160405280929190818152602001828054801562001bad57602002820191906000526020600020905b8160009054906101000a900473ffffffffffffffffffffffffffffffffffffffff1673ffffffffffffffffffffffffffffffffffffffff168152602001906001019080831162001b62575b50505050508152505082828151811062001bcc5762001bcb62002bc5565b5b6020026020010181905250808062001be490620030bc565b91505062001a53565b508092505050919050565b6000600354905090565b6000831162001c48576040517f08c379a000000000000000000000000000000000000000000000000000000000815260040162001c3f9062003854565b60405180910390fd5b6000821162001c8e576040517f08c379a000000000000000000000000000000000000000000000000000000000815260040162001c8590620038ec565b60405180910390fd5b826000806003548152602001908152602001600020600001819055508160008060035481526020019081526020016000206001018190555080600080600354815260200190815260200160002060020160006101000a81548173ffffffffffffffffffffffffffffffffffffffff021916908373ffffffffffffffffffffffffffffffffffffffff1602179055506001600080600354815260200190815260200160002060020160146101000a81548160ff021916908315150217905550426000806003548152602001908152602001600020600301819055506001806000600354815260200190815260200160002060006101000a81548160ff021916908315150217905550600860009054906101000a900473ffffffffffffffffffffffffffffffffffffffff1673ffffffffffffffffffffffffffffffffffffffff1663f03b5e9d826003546040518363ffffffff1660e01b815260040162001df692919062002e63565b600060405180830381600087803b15801562001e1157600080fd5b505af115801562001e26573d6000803e3d6000fd5b505050507fb327665b1bbfd6560701e012c966f02c9abe3e3b1afa5c084bfa31ed1e70107181600354858560405162001e6394939291906200390e565b60405180910390a16003600081548092919062001e8090620030bc565b9190505550505050565b62001e946200207b565b6000808381526020019081526020016000206040518060c001604052908160008201548152602001600182015481526020016002820160009054906101000a900473ffffffffffffffffffffffffffffffffffffffff1673ffffffffffffffffffffffffffffffffffffffff1673ffffffffffffffffffffffffffffffffffffffff1681526020016002820160149054906101000a900460ff16151515158152602001600382015481526020016004820180548060200260200160405190810160405280929190818152602001828054801562001fc757602002820191906000526020600020905b8160009054906101000a900473ffffffffffffffffffffffffffffffffffffffff1673ffffffffffffffffffffffffffffffffffffffff168152602001906001019080831162001f7c575b5050505050815250509050919050565b6004805462001fe69062002b90565b80601f0160208091040260200160405190810160405280929190818152602001828054620020149062002b90565b8015620020655780601f10620020395761010080835404028352916020019162002065565b820191906000526020600020905b8154815290600101906020018083116200204757829003601f168201915b505050505081565b611622806200395c83390190565b6040518060c001604052806000815260200160008152602001600073ffffffffffffffffffffffffffffffffffffffff16815260200160001515815260200160008152602001606081525090565b6000604051905090565b600080fd5b600080fd5b6000819050919050565b620020f281620020dd565b8114620020fe57600080fd5b50565b6000813590506200211281620020e7565b92915050565b600073ffffffffffffffffffffffffffffffffffffffff82169050919050565b6000620021458262002118565b9050919050565b620021578162002138565b81146200216357600080fd5b50565b60008135905062002177816200214c565b92915050565b600080600080608085870312156200219a5762002199620020d3565b5b6000620021aa8782880162002101565b9450506020620021bd8782880162002101565b9350506040620021d08782880162002101565b9250506060620021e38782880162002166565b91505092959194509250565b620021fa81620020dd565b82525050565b6000602082019050620022176000830184620021ef565b92915050565b600060208284031215620022365762002235620020d3565b5b6000620022468482850162002101565b91505092915050565b600081519050919050565b600082825260208201905092915050565b60005b838110156200228b5780820151818401526020810190506200226e565b60008484015250505050565b6000601f19601f8301169050919050565b6000620022b5826200224f565b620022c181856200225a565b9350620022d38185602086016200226b565b620022de8162002297565b840191505092915050565b60006020820190508181036000830152620023058184620022a8565b905092915050565b60008060408385031215620023275762002326620020d3565b5b6000620023378582860162002101565b92505060206200234a8582860162002101565b9150509250929050565b600081519050919050565b600082825260208201905092915050565b6000819050602082019050919050565b6000819050919050565b6000620023ab620023a56200239f8462002118565b62002380565b62002118565b9050919050565b6000620023bf826200238a565b9050919050565b6000620023d382620023b2565b9050919050565b620023e581620023c6565b82525050565b6000620023f98383620023da565b60208301905092915050565b6000602082019050919050565b60006200241f8262002354565b6200242b81856200235f565b9350620024388362002370565b8060005b838110156200246f578151620024538882620023eb565b9750620024608362002405565b9250506001810190506200243c565b5085935050505092915050565b6000602082019050818103600083015262002498818462002412565b905092915050565b600060208284031215620024b957620024b8620020d3565b5b6000620024c98482850162002166565b91505092915050565b600081519050919050565b600082825260208201905092915050565b6000819050602082019050919050565b6200250981620020dd565b82525050565b6200251a8162002138565b82525050565b60008115159050919050565b620025378162002520565b82525050565b600082825260208201905092915050565b60006200255b8262002354565b6200256781856200253d565b9350620025748362002370565b8060005b83811015620025ab5781516200258f8882620023eb565b97506200259c8362002405565b92505060018101905062002578565b5085935050505092915050565b600060c083016000830151620025d26000860182620024fe565b506020830151620025e76020860182620024fe565b506040830151620025fc60408601826200250f565b5060608301516200261160608601826200252c565b506080830151620026266080860182620024fe565b5060a083015184820360a08601526200264082826200254e565b9150508091505092915050565b60006200265b8383620025b8565b905092915050565b6000602082019050919050565b60006200267d82620024d2565b620026898185620024dd565b9350836020820285016200269d85620024ee565b8060005b85811015620026df5784840389528151620026bd85826200264d565b9450620026ca8362002663565b925060208a01995050600181019050620026a1565b50829750879550505050505092915050565b600060208201905081810360008301526200270d818462002670565b905092915050565b600080600060608486031215620027315762002730620020d3565b5b6000620027418682870162002101565b9350506020620027548682870162002101565b9250506040620027678682870162002166565b9150509250925092565b600060c0830160008301516200278b6000860182620024fe565b506020830151620027a06020860182620024fe565b506040830151620027b560408601826200250f565b506060830151620027ca60608601826200252c565b506080830151620027df6080860182620024fe565b5060a083015184820360a0860152620027f982826200254e565b9150508091505092915050565b6000602082019050818103600083015262002822818462002771565b905092915050565b7f616d6f756e74206d7573742062652067726561746572207468616e2030000000600082015250565b600062002862601d836200225a565b91506200286f826200282a565b602082019050919050565b60006020820190508181036000830152620028958162002853565b9050919050565b7f71756f746174696f6e206d7573742062652067726561746572207468616e2030600082015250565b6000620028d46020836200225a565b9150620028e1826200289c565b602082019050919050565b600060208201905081810360008301526200290781620028c5565b9050919050565b7f706f7374206b6579207374617274732066726f6d203000000000000000000000600082015250565b6000620029466016836200225a565b915062002953826200290e565b602082019050919050565b60006020820190508181036000830152620029798162002937565b9050919050565b7f596f752063616e6e6f74207265706c7920746f20796f7572206f776e2070757260008201527f636861736520706f737400000000000000000000000000000000000000000000602082015250565b6000620029de602a836200225a565b9150620029eb8262002980565b604082019050919050565b6000602082019050818103600083015262002a1181620029cf565b9050919050565b62002a238162002138565b82525050565b6000819050919050565b600060ff82169050919050565b600062002a6162002a5b62002a558462002a29565b62002380565b62002a33565b9050919050565b62002a738162002a40565b82525050565b600060e08201905062002a90600083018a62002a18565b62002a9f602083018962002a18565b62002aae6040830188620021ef565b62002abd6060830187620021ef565b62002acc608083018662002a68565b62002adb60a0830185620021ef565b62002aea60c0830184620021ef565b98975050505050505050565b62002b0181620023c6565b82525050565b600060408201905062002b1e600083018562002a18565b62002b2d602083018462002af6565b9392505050565b600060408201905062002b4b600083018562002a18565b62002b5a602083018462002a18565b9392505050565b7f4e487b7100000000000000000000000000000000000000000000000000000000600052602260045260246000fd5b6000600282049050600182168062002ba957607f821691505b60208210810362002bbf5762002bbe62002b61565b5b50919050565b7f4e487b7100000000000000000000000000000000000000000000000000000000600052603260045260246000fd5b7f6d6573736167652073656e6465722073686f756c64206f6e6c7920626520746860008201527f6520726573706f6e7365206d657373616765207468617420747269676765727360208201527f207061796d656e742070726f6365737300000000000000000000000000000000604082015250565b600062002c786050836200225a565b915062002c858262002bf4565b606082019050919050565b6000602082019050818103600083015262002cab8162002c69565b9050919050565b60008151905062002cc3816200214c565b92915050565b60006020828403121562002ce25762002ce1620020d3565b5b600062002cf28482850162002cb2565b91505092915050565b60008151905062002d0c81620020e7565b92915050565b60006020828403121562002d2b5762002d2a620020d3565b5b600062002d3b8482850162002cfb565b91505092915050565b600060208201905062002d5b600083018462002a18565b92915050565b7f496e73756666696369656e7420656c65637472696369747920756e697473206960008201527f6e206163636f756e740000000000000000000000000000000000000000000000602082015250565b600062002dbf6029836200225a565b915062002dcc8262002d61565b604082019050919050565b6000602082019050818103600083015262002df28162002db0565b9050919050565b7f4e487b7100000000000000000000000000000000000000000000000000000000600052601160045260246000fd5b600062002e3582620020dd565b915062002e4283620020dd565b925082820390508181111562002e5d5762002e5c62002df9565b5b92915050565b600060408201905062002e7a600083018562002a18565b62002e896020830184620021ef565b9392505050565b600060608201905062002ea7600083018662002a18565b62002eb66020830185620021ef565b62002ec56040830184620021ef565b949350505050565b6000819050919050565b600062002ef862002ef262002eec8462002ecd565b62002380565b620020dd565b9050919050565b62002f0a8162002ed7565b82525050565b600060608201905062002f27600083018662002a18565b62002f36602083018562002eff565b62002f456040830184620021ef565b949350505050565b600062002f5a82620020dd565b915062002f6783620020dd565b925082820190508082111562002f825762002f8162002df9565b5b92915050565b600062002fa962002fa362002f9d8462002a29565b62002380565b620020dd565b9050919050565b62002fbb8162002f88565b82525050565b600060608201905062002fd8600083018662002a18565b62002fe7602083018562002fb0565b62002ff66040830184620021ef565b949350505050565b7f5468652073616c6573207175616e746974792073686f756c64206265206c657360008201527f73207468616e206f7220657175616c20746f207468652070757263686173652060208201527f64656d616e640000000000000000000000000000000000000000000000000000604082015250565b6000620030826046836200225a565b91506200308f8262002ffe565b606082019050919050565b60006020820190508181036000830152620030b58162003073565b9050919050565b6000620030c982620020dd565b91507fffffffffffffffffffffffffffffffffffffffffffffffffffffffffffffffff8203620030fe57620030fd62002df9565b5b600182019050919050565b6000606082019050620031206000830186620021ef565b6200312f6020830185620021ef565b6200313e604083018462002a18565b949350505050565b6000819050919050565b6000620031716200316b620031658462003146565b62002380565b620020dd565b9050919050565b620031838162003150565b82525050565b6000819050919050565b6000620031b4620031ae620031a88462003189565b62002380565b620020dd565b9050919050565b620031c68162003193565b82525050565b6000606082019050620031e3600083018662003178565b620031f26020830185620021ef565b620032016040830184620031bb565b949350505050565b600080fd5b600080fd5b7f4e487b7100000000000000000000000000000000000000000000000000000000600052604160045260246000fd5b6200324d8262002297565b810181811067ffffffffffffffff821117156200326f576200326e62003213565b5b80604052505050565b600062003284620020c9565b905062003292828262003242565b919050565b600067ffffffffffffffff821115620032b557620032b462003213565b5b620032c08262002297565b9050602081019050919050565b6000620032e4620032de8462003297565b62003278565b9050828152602081018484840111156200330357620033026200320e565b5b620033108482856200226b565b509392505050565b600082601f83011262003330576200332f62003209565b5b815162003342848260208601620032cd565b91505092915050565b600080600060608486031215620033675762003366620020d3565b5b6000620033778682870162002cfb565b93505060206200338a8682870162002cfb565b925050604084015167ffffffffffffffff811115620033ae57620033ad620020d8565b5b620033bc8682870162003318565b9150509250925092565b60008190508160005260206000209050919050565b60006020601f8301049050919050565b600082821b905092915050565b6000600883026200342a7fffffffffffffffffffffffffffffffffffffffffffffffffffffffffffffffff82620033eb565b620034368683620033eb565b95508019841693508086168417925050509392505050565b60006200346f620034696200346384620020dd565b62002380565b620020dd565b9050919050565b6000819050919050565b6200348b836200344e565b620034a36200349a8262003476565b848454620033f8565b825550505050565b600090565b620034ba620034ab565b620034c781848462003480565b505050565b5b81811015620034ef57620034e3600082620034b0565b600181019050620034cd565b5050565b601f8211156200353e576200350881620033c6565b6200351384620033db565b8101602085101562003523578190505b6200353b6200353285620033db565b830182620034cc565b50505b505050565b600082821c905092915050565b6000620035636000198460080262003543565b1980831691505092915050565b60006200357e838362003550565b9150826002028217905092915050565b62003599826200224f565b67ffffffffffffffff811115620035b557620035b462003213565b5b620035c1825462002b90565b620035ce828285620034f3565b600060209050601f831160018114620036065760008415620035f1578287015190505b620035fd858262003570565b8655506200366d565b601f1984166200361686620033c6565b60005b82811015620036405784890151825560018201915060208501945060208101905062003619565b868310156200366057848901516200365c601f89168262003550565b8355505b6001600288020188555050505b505050505050565b60006060820190506200368c600083018662003178565b6200369b6020830185620021ef565b620036aa6040830184620021ef565b949350505050565b600067ffffffffffffffff821115620036d057620036cf62003213565b5b602082029050602081019050919050565b600080fd5b6000620036fd620036f784620036b2565b62003278565b90508083825260208201905060208402830185811115620037235762003722620036e1565b5b835b818110156200375057806200373b888262002cfb565b84526020840193505060208101905062003725565b5050509392505050565b600082601f83011262003772576200377162003209565b5b815162003784848260208601620036e6565b91505092915050565b600060208284031215620037a657620037a5620020d3565b5b600082015167ffffffffffffffff811115620037c757620037c6620020d8565b5b620037d5848285016200375a565b91505092915050565b7f7075726368617365207072696365206d7573742062652067726561746572207460008201527f68616e2030000000000000000000000000000000000000000000000000000000602082015250565b60006200383c6025836200225a565b91506200384982620037de565b604082019050919050565b600060208201905081810360008301526200386f816200382d565b9050919050565b7f616d6f756e7420746f20627579206d757374206265206772656174657220746860008201527f616e203000000000000000000000000000000000000000000000000000000000602082015250565b6000620038d46024836200225a565b9150620038e18262003876565b604082019050919050565b600060208201905081810360008301526200390781620038c5565b9050919050565b600060808201905062003925600083018762002a18565b620039346020830186620021ef565b620039436040830185620021ef565b620039526060830184620021ef565b9594505050505056fe60806040523480156200001157600080fd5b50604051620016223803806200162283398181016040528101906200003791906200021c565b86600860006101000a81548173ffffffffffffffffffffffffffffffffffffffff021916908373ffffffffffffffffffffffffffffffffffffffff160217905550856000806101000a81548173ffffffffffffffffffffffffffffffffffffffff021916908373ffffffffffffffffffffffffffffffffffffffff160217905550846001819055508360028190555082600360006101000a81548160ff021916908360ff16021790555081600481905550806005819055506000600660006101000a81548160ff0219169083151502179055506000600660016101000a81548160ff0219169083151502179055504260078190555050505050505050620002cf565b600080fd5b600073ffffffffffffffffffffffffffffffffffffffff82169050919050565b60006200016b826200013e565b9050919050565b6200017d816200015e565b81146200018957600080fd5b50565b6000815190506200019d8162000172565b92915050565b6000819050919050565b620001b881620001a3565b8114620001c457600080fd5b50565b600081519050620001d881620001ad565b92915050565b600060ff82169050919050565b620001f681620001de565b81146200020257600080fd5b50565b6000815190506200021681620001eb565b92915050565b600080600080600080600060e0888a0312156200023e576200023d62000139565b5b60006200024e8a828b016200018c565b9750506020620002618a828b016200018c565b9650506040620002748a828b01620001c7565b9550506060620002878a828b01620001c7565b94505060806200029a8a828b0162000205565b93505060a0620002ad8a828b01620001c7565b92505060c0620002c08a828b01620001c7565b91505092959891949750929550565b61134380620002df6000396000f3fe6080604052600436106100c65760003560e01c806382fa096a1161007f578063abf4d6c411610059578063abf4d6c414610424578063c32b9b531461042e578063cf09e0d014610438578063d67bdd25146104635761029e565b806382fa096a146103a3578063a03a202e146103ce578063aa8c217c146103f95761029e565b806304dc4cda146102a3578063209ebc08146102ce5780633013aa25146102f95780633d855485146103225780633e784e631461034d5780635051a5ec146103785761029e565b3661029e576000341161010e576040517f08c379a000000000000000000000000000000000000000000000000000000000815260040161010590610b63565b60405180910390fd5b60011515600660009054906101000a900460ff16151514610164576040517f08c379a000000000000000000000000000000000000000000000000000000000815260040161015b90610bf5565b60405180910390fd5b346002546001546101759190610c4e565b146101b5576040517f08c379a00000000000000000000000000000000000000000000000000000000081526004016101ac90610cdc565b60405180910390fd5b60001515600660019054906101000a900460ff1615151461020b576040517f08c379a000000000000000000000000000000000000000000000000000000000815260040161020290610d48565b60405180910390fd5b6000600360009054906101000a900460ff1660ff16036102325761022d61048e565b61029c565b6001600360009054906101000a900460ff1660ff16036102595761025461069d565b61029b565b600061029a576040517f08c379a000000000000000000000000000000000000000000000000000000000815260040161029190610db4565b60405180910390fd5b5b5b005b600080fd5b3480156102af57600080fd5b506102b86108ac565b6040516102c59190610df0565b60405180910390f35b3480156102da57600080fd5b506102e36108bf565b6040516102f09190610e26565b60405180910390f35b34801561030557600080fd5b50610320600480360381019061031b9190610e72565b6108d2565b005b34801561032e57600080fd5b5061033761093d565b6040516103449190610eae565b60405180910390f35b34801561035957600080fd5b50610362610943565b60405161036f9190610eae565b60405180910390f35b34801561038457600080fd5b5061038d610949565b60405161039a9190610e26565b60405180910390f35b3480156103af57600080fd5b506103b861095c565b6040516103c59190610fee565b60405180910390f35b3480156103da57600080fd5b506103e3610a67565b6040516103f09190610eae565b60405180910390f35b34801561040557600080fd5b5061040e610a6d565b60405161041b9190610eae565b60405180910390f35b61042c61048e565b005b61043661069d565b005b34801561044457600080fd5b5061044d610a73565b60405161045a9190610eae565b60405180910390f35b34801561046f57600080fd5b50610478610a79565b6040516104859190611019565b60405180910390f35b60008054906101000a900473ffffffffffffffffffffffffffffffffffffffff1673ffffffffffffffffffffffffffffffffffffffff163373ffffffffffffffffffffffffffffffffffffffff160361051c576040517f08c379a0000000000000000000000000000000000000000000000000000000008152600401610513906110a6565b60405180910390fd5b6000600860009054906101000a900473ffffffffffffffffffffffffffffffffffffffff1673ffffffffffffffffffffffffffffffffffffffff163460045460055460405160240161056f9291906110c6565b6040516020818303038152906040527f3d480db5000000000000000000000000000000000000000000000000000000007bffffffffffffffffffffffffffffffffffffffffffffffffffffffff19166020820180517bffffffffffffffffffffffffffffffffffffffffffffffffffffffff83818316178352505050506040516105f99190611160565b60006040518083038185875af1925050503d8060008114610636576040519150601f19603f3d011682016040523d82523d6000602084013e61063b565b606091505b505090508061067f576040517f08c379a0000000000000000000000000000000000000000000000000000000008152600401610676906111c3565b60405180910390fd5b6001600660016101000a81548160ff02191690831515021790555050565b60008054906101000a900473ffffffffffffffffffffffffffffffffffffffff1673ffffffffffffffffffffffffffffffffffffffff163373ffffffffffffffffffffffffffffffffffffffff161461072b576040517f08c379a00000000000000000000000000000000000000000000000000000000081526004016107229061127b565b60405180910390fd5b6000600860009054906101000a900473ffffffffffffffffffffffffffffffffffffffff1673ffffffffffffffffffffffffffffffffffffffff163460045460055460405160240161077e9291906110c6565b6040516020818303038152906040527f0876290a000000000000000000000000000000000000000000000000000000007bffffffffffffffffffffffffffffffffffffffffffffffffffffffff19166020820180517bffffffffffffffffffffffffffffffffffffffffffffffffffffffff83818316178352505050506040516108089190611160565b60006040518083038185875af1925050503d8060008114610845576040519150601f19603f3d011682016040523d82523d6000602084013e61084a565b606091505b505090508061088e576040517f08c379a0000000000000000000000000000000000000000000000000000000008152600401610885906111c3565b60405180910390fd5b6001600660016101000a81548160ff02191690831515021790555050565b600360009054906101000a900460ff1681565b600660019054906101000a900460ff1681565b80600660006101000a81548160ff0219169083151502179055507f9161e5ec70df4a8ef9f6085e3435135f3da64c7ec32c271912e1ca8d4afbd7c3600360009054906101000a900460ff16600454600554604051610932939291906112d6565b60405180910390a150565b60045481565b60055481565b600660009054906101000a900460ff1681565b610964610a9d565b61096c610a9d565b60008054906101000a900473ffffffffffffffffffffffffffffffffffffffff16816000019073ffffffffffffffffffffffffffffffffffffffff16908173ffffffffffffffffffffffffffffffffffffffff1681525050600154816020018181525050600254816040018181525050600360009054906101000a900460ff16816060019060ff16908160ff16815250506004548160800181815250506005548160a0018181525050600660009054906101000a900460ff168160c0019015159081151581525050600660019054906101000a900460ff168160e0019015159081151581525050600754816101000181815250508091505090565b60025481565b60015481565b60075481565b60008054906101000a900473ffffffffffffffffffffffffffffffffffffffff1681565b604051806101200160405280600073ffffffffffffffffffffffffffffffffffffffff1681526020016000815260200160008152602001600060ff1681526020016000815260200160008152602001600015158152602001600015158152602001600081525090565b600082825260208201905092915050565b7f696e76616c6964207061796d656e740000000000000000000000000000000000600082015250565b6000610b4d600f83610b06565b9150610b5882610b17565b602082019050919050565b60006020820190508181036000830152610b7c81610b40565b9050919050565b7f796f757220726573706f6e736520686173206e6f74206265656e20616363657060008201527f7465642062792073656c6c657220796574000000000000000000000000000000602082015250565b6000610bdf603183610b06565b9150610bea82610b83565b604082019050919050565b60006020820190508181036000830152610c0e81610bd2565b9050919050565b6000819050919050565b7f4e487b7100000000000000000000000000000000000000000000000000000000600052601160045260246000fd5b6000610c5982610c15565b9150610c6483610c15565b9250828202610c7281610c15565b91508282048414831517610c8957610c88610c1f565b5b5092915050565b7f4e6f742066756c6c792070616964207965740000000000000000000000000000600082015250565b6000610cc6601283610b06565b9150610cd182610c90565b602082019050919050565b60006020820190508181036000830152610cf581610cb9565b9050919050565b7f4f7264657220697320616c726561647920706169642100000000000000000000600082015250565b6000610d32601683610b06565b9150610d3d82610cfc565b602082019050919050565b60006020820190508181036000830152610d6181610d25565b9050919050565b7f696e76616c696420726573706f6e7365206d6573736167652074797065000000600082015250565b6000610d9e601d83610b06565b9150610da982610d68565b602082019050919050565b60006020820190508181036000830152610dcd81610d91565b9050919050565b600060ff82169050919050565b610dea81610dd4565b82525050565b6000602082019050610e056000830184610de1565b92915050565b60008115159050919050565b610e2081610e0b565b82525050565b6000602082019050610e3b6000830184610e17565b92915050565b600080fd5b610e4f81610e0b565b8114610e5a57600080fd5b50565b600081359050610e6c81610e46565b92915050565b600060208284031215610e8857610e87610e41565b5b6000610e9684828501610e5d565b91505092915050565b610ea881610c15565b82525050565b6000602082019050610ec36000830184610e9f565b92915050565b600073ffffffffffffffffffffffffffffffffffffffff82169050919050565b6000610ef482610ec9565b9050919050565b610f0481610ee9565b82525050565b610f1381610c15565b82525050565b610f2281610dd4565b82525050565b610f3181610e0b565b82525050565b61012082016000820151610f4e6000850182610efb565b506020820151610f616020850182610f0a565b506040820151610f746040850182610f0a565b506060820151610f876060850182610f19565b506080820151610f9a6080850182610f0a565b5060a0820151610fad60a0850182610f0a565b5060c0820151610fc060c0850182610f28565b5060e0820151610fd360e0850182610f28565b50610100820151610fe8610100850182610f0a565b50505050565b6000610120820190506110046000830184610f37565b92915050565b61101381610ee9565b82525050565b600060208201905061102e600083018461100a565b92915050565b7f596f752063616e6e6f74206d616b652061207061796d656e7420746f20796f7560008201527f72206f776e2073656c6c696e6720726573706f6e7365206d6573736167650000602082015250565b6000611090603e83610b06565b915061109b82611034565b604082019050919050565b600060208201905081810360008301526110bf81611083565b9050919050565b60006040820190506110db6000830185610e9f565b6110e86020830184610e9f565b9392505050565b600081519050919050565b600081905092915050565b60005b83811015611123578082015181840152602081019050611108565b60008484015250505050565b600061113a826110ef565b61114481856110fa565b9350611154818560208601611105565b80840191505092915050565b600061116c828461112f565b915081905092915050565b7f7061796d656e74206661696c6564000000000000000000000000000000000000600082015250565b60006111ad600e83610b06565b91506111b882611177565b602082019050919050565b600060208201905081810360008301526111dc816111a0565b9050919050565b7f4f6e6c7920746865206d6573736167652073656e6465722077686f2073656e7460008201527f207468697320726573706f6e736520746f206163717569726520656c6563747260208201527f696369747920756e6974732063616e206d616b652061207061796d656e740000604082015250565b6000611265605e83610b06565b9150611270826111e3565b606082019050919050565b6000602082019050818103600083015261129481611258565b9050919050565b6000819050919050565b60006112c06112bb6112b684610dd4565b61129b565b610c15565b9050919050565b6112d0816112a5565b82525050565b60006060820190506112eb60008301866112c7565b6112f86020830185610e9f565b6113056040830184610e9f565b94935050505056fea264697066735822122073e925c02640f54ec6f797a0c5db83b3650b31ffafe16a7aa55534274ce1d24064736f6c63430008110033a264697066735822122031881a4f4c3d3746a09d3db07bdd7105c5e6730d21086f3ab1dd9108ac727ac964736f6c634300081100336080604052606467ffffffffffffffff811115620000225762000021620001da565b5b604051908082528060200260200182016040528015620000515781602001602082028036833780820191505090505b50600590805190602001906200006992919062000169565b503480156200007757600080fd5b50604051620052923803806200529283398181016040528101906200009d919062000311565b82600760016101000a81548173ffffffffffffffffffffffffffffffffffffffff021916908373ffffffffffffffffffffffffffffffffffffffff16021790555081600860006101000a81548173ffffffffffffffffffffffffffffffffffffffff021916908373ffffffffffffffffffffffffffffffffffffffff16021790555080600960006101000a81548173ffffffffffffffffffffffffffffffffffffffff021916908373ffffffffffffffffffffffffffffffffffffffff1602179055505050506200036d565b828054828255906000526020600020908101928215620001a8579160200282015b82811115620001a75782518255916020019190600101906200018a565b5b509050620001b79190620001bb565b5090565b5b80821115620001d6576000816000905550600101620001bc565b5090565b7f4e487b7100000000000000000000000000000000000000000000000000000000600052604160045260246000fd5b600080fd5b600073ffffffffffffffffffffffffffffffffffffffff82169050919050565b60006200023b826200020e565b9050919050565b60006200024f826200022e565b9050919050565b620002618162000242565b81146200026d57600080fd5b50565b600081519050620002818162000256565b92915050565b600062000294826200022e565b9050919050565b620002a68162000287565b8114620002b257600080fd5b50565b600081519050620002c6816200029b565b92915050565b6000620002d9826200022e565b9050919050565b620002eb81620002cc565b8114620002f757600080fd5b50565b6000815190506200030b81620002e0565b92915050565b6000806000606084860312156200032d576200032c62000209565b5b60006200033d8682870162000270565b93505060206200035086828701620002b5565b92505060406200036386828701620002fa565b9150509250925092565b614f15806200037d6000396000f3fe608060405260043610620000d45760003560e01c80636fc1a2c3116200008b578063b4d2a0c41162000061578063b4d2a0c4146200029b578063ba5e27ba14620002cb578063d364094814620002fb578063da02c9de146200032b57620000d4565b80636fc1a2c314620001f9578063906eb21c1462000229578063ae87ca7c146200025757620000d4565b80630876290a14620000d957806335bef43714620000f957806335df3509146200013d5780634cb3a345146200016d5780636627cbd6146200019b57806367e8ada714620001df575b600080fd5b620000f76004803603810190620000f19190620020c6565b6200036f565b005b3480156200010657600080fd5b506200012560048036038101906200011f91906200210d565b6200120a565b60405162000134919062002150565b60405180910390f35b3480156200014a57600080fd5b50620001556200122f565b60405162000164919062002150565b60405180910390f35b3480156200017a57600080fd5b50620001996004803603810190620001939190620021d2565b62001239565b005b348015620001a857600080fd5b50620001c76004803603810190620001c191906200210d565b6200155d565b604051620001d691906200236c565b60405180910390f35b348015620001ec57600080fd5b50620001f762001649565b005b3480156200020657600080fd5b506200021162001856565b60405162000220919062002150565b60405180910390f35b3480156200023657600080fd5b506200025560048036038101906200024f919062002390565b6200185c565b005b3480156200026457600080fd5b506200028360048036038101906200027d9190620023ec565b62001ae4565b6040516200029291906200263d565b60405180910390f35b348015620002a857600080fd5b50620002b362001d98565b604051620002c29190620026fb565b60405180910390f35b348015620002d857600080fd5b50620002e362001e32565b604051620002f29190620026fb565b60405180910390f35b3480156200030857600080fd5b506200031362001ec8565b60405162000322919062002150565b60405180910390f35b3480156200033857600080fd5b506200035760048036038101906200035191906200210d565b62001ece565b604051620003669190620027b4565b60405180910390f35b600080600084815260200190815260200160002060040182815481106200039b576200039a620027d8565b5b9060005260206000200160009054906101000a900473ffffffffffffffffffffffffffffffffffffffff1690503373ffffffffffffffffffffffffffffffffffffffff168173ffffffffffffffffffffffffffffffffffffffff161462000439576040517f08c379a000000000000000000000000000000000000000000000000000000000815260040162000430906200287d565b60405180910390fd5b600042905060008273ffffffffffffffffffffffffffffffffffffffff1663d67bdd256040518163ffffffff1660e01b8152600401602060405180830381865afa1580156200048c573d6000803e3d6000fd5b505050506040513d601f19601f82011682018060405250810190620004b29190620028b6565b9050600860009054906101000a900473ffffffffffffffffffffffffffffffffffffffff1673ffffffffffffffffffffffffffffffffffffffff1663e2670971828573ffffffffffffffffffffffffffffffffffffffff1663aa8c217c6040518163ffffffff1660e01b8152600401602060405180830381865afa1580156200053f573d6000803e3d6000fd5b505050506040513d601f19601f82011682018060405250810190620005659190620028ff565b600860009054906101000a900473ffffffffffffffffffffffffffffffffffffffff1673ffffffffffffffffffffffffffffffffffffffff1663cb8ab15b866040518263ffffffff1660e01b8152600401620005c2919062002942565b602060405180830381865afa158015620005e0573d6000803e3d6000fd5b505050506040513d601f19601f82011682018060405250810190620006069190620028ff565b6200061291906200298e565b6040518363ffffffff1660e01b815260040162000631929190620029c9565b600060405180830381600087803b1580156200064c57600080fd5b505af115801562000661573d6000803e3d6000fd5b50505050600760019054906101000a900473ffffffffffffffffffffffffffffffffffffffff1673ffffffffffffffffffffffffffffffffffffffff16633f9b696c828573ffffffffffffffffffffffffffffffffffffffff1663aa8c217c6040518163ffffffff1660e01b8152600401602060405180830381865afa158015620006f0573d6000803e3d6000fd5b505050506040513d601f19601f82011682018060405250810190620007169190620028ff565b6040518363ffffffff1660e01b815260040162000735929190620029c9565b600060405180830381600087803b1580156200075057600080fd5b505af115801562000765573d6000803e3d6000fd5b50505050600760019054906101000a900473ffffffffffffffffffffffffffffffffffffffff1673ffffffffffffffffffffffffffffffffffffffff16632f0a323e82848673ffffffffffffffffffffffffffffffffffffffff1663aa8c217c6040518163ffffffff1660e01b8152600401602060405180830381865afa158015620007f5573d6000803e3d6000fd5b505050506040513d601f19601f820116820180604052508101906200081b9190620028ff565b6040518463ffffffff1660e01b81526004016200083b93929190620029f6565b600060405180830381600087803b1580156200085657600080fd5b505af11580156200086b573d6000803e3d6000fd5b50505050600760019054906101000a900473ffffffffffffffffffffffffffffffffffffffff1673ffffffffffffffffffffffffffffffffffffffff1663e6b02333826000856040518463ffffffff1660e01b8152600401620008d19392919062002a76565b600060405180830381600087803b158015620008ec57600080fd5b505af115801562000901573d6000803e3d6000fd5b50505050600080600087815260200190815260200160002060020160009054906101000a900473ffffffffffffffffffffffffffffffffffffffff1690508373ffffffffffffffffffffffffffffffffffffffff1663aa8c217c6040518163ffffffff1660e01b8152600401602060405180830381865afa1580156200098b573d6000803e3d6000fd5b505050506040513d601f19601f82011682018060405250810190620009b19190620028ff565b600860009054906101000a900473ffffffffffffffffffffffffffffffffffffffff1673ffffffffffffffffffffffffffffffffffffffff1663cb8ab15b836040518263ffffffff1660e01b815260040162000a0e919062002942565b602060405180830381865afa15801562000a2c573d6000803e3d6000fd5b505050506040513d601f19601f8201168201806040525081019062000a529190620028ff565b101562000a96576040517f08c379a000000000000000000000000000000000000000000000000000000000815260040162000a8d9062002b29565b60405180910390fd5b600860009054906101000a900473ffffffffffffffffffffffffffffffffffffffff1673ffffffffffffffffffffffffffffffffffffffff1663e2670971828673ffffffffffffffffffffffffffffffffffffffff1663aa8c217c6040518163ffffffff1660e01b8152600401602060405180830381865afa15801562000b21573d6000803e3d6000fd5b505050506040513d601f19601f8201168201806040525081019062000b479190620028ff565b600860009054906101000a900473ffffffffffffffffffffffffffffffffffffffff1673ffffffffffffffffffffffffffffffffffffffff1663cb8ab15b866040518263ffffffff1660e01b815260040162000ba4919062002942565b602060405180830381865afa15801562000bc2573d6000803e3d6000fd5b505050506040513d601f19601f8201168201806040525081019062000be89190620028ff565b62000bf4919062002b4b565b6040518363ffffffff1660e01b815260040162000c13929190620029c9565b600060405180830381600087803b15801562000c2e57600080fd5b505af115801562000c43573d6000803e3d6000fd5b50505050600760019054906101000a900473ffffffffffffffffffffffffffffffffffffffff1673ffffffffffffffffffffffffffffffffffffffff1663e8b8530f828673ffffffffffffffffffffffffffffffffffffffff1663aa8c217c6040518163ffffffff1660e01b8152600401602060405180830381865afa15801562000cd2573d6000803e3d6000fd5b505050506040513d601f19601f8201168201806040525081019062000cf89190620028ff565b6040518363ffffffff1660e01b815260040162000d17929190620029c9565b600060405180830381600087803b15801562000d3257600080fd5b505af115801562000d47573d6000803e3d6000fd5b50505050600760019054906101000a900473ffffffffffffffffffffffffffffffffffffffff1673ffffffffffffffffffffffffffffffffffffffff16631e7ba9cd82858773ffffffffffffffffffffffffffffffffffffffff1663aa8c217c6040518163ffffffff1660e01b8152600401602060405180830381865afa15801562000dd7573d6000803e3d6000fd5b505050506040513d601f19601f8201168201806040525081019062000dfd9190620028ff565b6040518463ffffffff1660e01b815260040162000e1d93929190620029f6565b600060405180830381600087803b15801562000e3857600080fd5b505af115801562000e4d573d6000803e3d6000fd5b50505050600760019054906101000a900473ffffffffffffffffffffffffffffffffffffffff1673ffffffffffffffffffffffffffffffffffffffff1663e6b02333826001866040518463ffffffff1660e01b815260040162000eb39392919062002bc9565b600060405180830381600087803b15801562000ece57600080fd5b505af115801562000ee3573d6000803e3d6000fd5b505050508373ffffffffffffffffffffffffffffffffffffffff1663aa8c217c6040518163ffffffff1660e01b8152600401602060405180830381865afa15801562000f33573d6000803e3d6000fd5b505050506040513d601f19601f8201168201806040525081019062000f599190620028ff565b60008088815260200190815260200160002060010154101562000fb3576040517f08c379a000000000000000000000000000000000000000000000000000000000815260040162000faa9062002c7c565b60405180910390fd5b8373ffffffffffffffffffffffffffffffffffffffff1663aa8c217c6040518163ffffffff1660e01b8152600401602060405180830381865afa15801562000fff573d6000803e3d6000fd5b505050506040513d601f19601f82011682018060405250810190620010259190620028ff565b60008088815260200190815260200160002060010160008282546200104b919062002b4b565b92505081905550600080600088815260200190815260200160002060010154036200109f57600080600088815260200190815260200160002060020160146101000a81548160ff0219169083151502179055505b606460065403620010ce576001600760006101000a81548160ff02191690831515021790555060006006819055505b8373ffffffffffffffffffffffffffffffffffffffff1663a03a202e6040518163ffffffff1660e01b8152600401602060405180830381865afa1580156200111a573d6000803e3d6000fd5b505050506040513d601f19601f82011682018060405250810190620011409190620028ff565b600560066000815480929190620011579062002c9e565b91905055815481106200116f576200116e620027d8565b5b90600052602060002001819055508073ffffffffffffffffffffffffffffffffffffffff166108fc349081150290604051600060405180830381858888f19350505050158015620011c4573d6000803e3d6000fd5b507f58e40951e480e0eb47a55e7fe3d9efbfcf47e2513825240c24a81843b2fb6c7b348786604051620011fa9392919062002ceb565b60405180910390a1505050505050565b600581815481106200121b57600080fd5b906000526020600020016000915090505481565b6000600354905090565b600084116200127f576040517f08c379a0000000000000000000000000000000000000000000000000000000008152600401620012769062002d78565b60405180910390fd5b60008311620012c5576040517f08c379a0000000000000000000000000000000000000000000000000000000008152600401620012bc9062002dea565b60405180910390fd5b60008210156200130c576040517f08c379a0000000000000000000000000000000000000000000000000000000008152600401620013039062002e5c565b60405180910390fd5b60008083815260200190815260200160002060020160009054906101000a900473ffffffffffffffffffffffffffffffffffffffff1673ffffffffffffffffffffffffffffffffffffffff168173ffffffffffffffffffffffffffffffffffffffff1603620013b2576040517f08c379a0000000000000000000000000000000000000000000000000000000008152600401620013a99062002ef4565b60405180910390fd5b600080600084815260200190815260200160002060040180549050905060003083878760018887604051620013e7906200201b565b620013f9979695949392919062002f5c565b604051809103906000f08015801562001416573d6000803e3d6000fd5b50905080600080868152602001908152602001600020600401600181600181540180825580915050039060005260206000200160006101000a81548173ffffffffffffffffffffffffffffffffffffffff021916908373ffffffffffffffffffffffffffffffffffffffff160217905550600860009054906101000a900473ffffffffffffffffffffffffffffffffffffffff1673ffffffffffffffffffffffffffffffffffffffff166384dc965a84836040518363ffffffff1660e01b8152600401620014e692919062002fea565b600060405180830381600087803b1580156200150157600080fd5b505af115801562001516573d6000803e3d6000fd5b505050507fc7f10d7197fb2a9693c302afe34b2b61de0f7048c4a33a39923e281c0c93ee2283826040516200154d92919062003017565b60405180910390a1505050505050565b60606000821015620015a6576040517f08c379a00000000000000000000000000000000000000000000000000000000081526004016200159d9062002e5c565b60405180910390fd5b6000808381526020019081526020016000206004018054806020026020016040519081016040528092919081815260200182805480156200163d57602002820191906000526020600020905b8160009054906101000a900473ffffffffffffffffffffffffffffffffffffffff1673ffffffffffffffffffffffffffffffffffffffff1681526020019060010190808311620015f2575b50505050509050919050565b6000805b600580549050811015620016a25760058181548110620016725762001671620027d8565b5b9060005260206000200154826200168a91906200298e565b91508080620016999062002c9e565b9150506200164d565b50600760009054906101000a900460ff16156200178857600960009054906101000a900473ffffffffffffffffffffffffffffffffffffffff1673ffffffffffffffffffffffffffffffffffffffff16632336b59160038360646040518463ffffffff1660e01b81526004016200171c93929190620030ca565b600060405180830381865afa1580156200173a573d6000803e3d6000fd5b505050506040513d6000823e3d601f19601f8201168201806040525081019062001765919062003249565b909150905060046000829190509081620017809190620034f0565b505062001853565b600960009054906101000a900473ffffffffffffffffffffffffffffffffffffffff1673ffffffffffffffffffffffffffffffffffffffff16632336b5916003836006546040518463ffffffff1660e01b8152600401620017ec93929190620035d7565b600060405180830381865afa1580156200180a573d6000803e3d6000fd5b505050506040513d6000823e3d601f19601f8201168201806040525081019062001835919062003249565b909150905060046000829190509081620018509190620034f0565b50505b50565b60035481565b60008311620018a2576040517f08c379a000000000000000000000000000000000000000000000000000000000815260040162001899906200368a565b60405180910390fd5b60008211620018e8576040517f08c379a0000000000000000000000000000000000000000000000000000000008152600401620018df9062003722565b60405180910390fd5b826000806003548152602001908152602001600020600001819055508160008060035481526020019081526020016000206001018190555080600080600354815260200190815260200160002060020160006101000a81548173ffffffffffffffffffffffffffffffffffffffff021916908373ffffffffffffffffffffffffffffffffffffffff1602179055506001600080600354815260200190815260200160002060020160146101000a81548160ff021916908315150217905550426000806003548152602001908152602001600020600301819055506001806000600354815260200190815260200160002060006101000a81548160ff021916908315150217905550600860009054906101000a900473ffffffffffffffffffffffffffffffffffffffff1673ffffffffffffffffffffffffffffffffffffffff1663c331d842826003546040518363ffffffff1660e01b815260040162001a50929190620029c9565b600060405180830381600087803b15801562001a6b57600080fd5b505af115801562001a80573d6000803e3d6000fd5b505050507f70d4f73f8dc596f6b7f1d3996153d2ae6e391837c8ad344b8f32ffe96fbbed9c81600354858560405162001abd949392919062003744565b60405180910390a16003600081548092919062001ada9062002c9e565b9190505550505050565b60606000600860009054906101000a900473ffffffffffffffffffffffffffffffffffffffff1673ffffffffffffffffffffffffffffffffffffffff16631d036d7d846040518263ffffffff1660e01b815260040162001b45919062002942565b600060405180830381865afa15801562001b63573d6000803e3d6000fd5b505050506040513d6000823e3d601f19601f8201168201806040525081019062001b8e91906200386c565b90506000815167ffffffffffffffff81111562001bb05762001baf62003111565b5b60405190808252806020026020018201604052801562001bed57816020015b62001bd962002029565b81526020019060019003908162001bcf5790505b50905060005b825181101562001d8d5760008084838151811062001c165762001c15620027d8565b5b602002602001015181526020019081526020016000206040518060c001604052908160008201548152602001600182015481526020016002820160009054906101000a900473ffffffffffffffffffffffffffffffffffffffff1673ffffffffffffffffffffffffffffffffffffffff1673ffffffffffffffffffffffffffffffffffffffff1681526020016002820160149054906101000a900460ff16151515158152602001600382015481526020016004820180548060200260200160405190810160405280929190818152602001828054801562001d4d57602002820191906000526020600020905b8160009054906101000a900473ffffffffffffffffffffffffffffffffffffffff1673ffffffffffffffffffffffffffffffffffffffff168152602001906001019080831162001d02575b50505050508152505082828151811062001d6c5762001d6b620027d8565b5b6020026020010181905250808062001d849062002c9e565b91505062001bf3565b508092505050919050565b60606004805462001da990620032f3565b80601f016020809104026020016040519081016040528092919081815260200182805462001dd790620032f3565b801562001e285780601f1062001dfc5761010080835404028352916020019162001e28565b820191906000526020600020905b81548152906001019060200180831162001e0a57829003601f168201915b5050505050905090565b6004805462001e4190620032f3565b80601f016020809104026020016040519081016040528092919081815260200182805462001e6f90620032f3565b801562001ec05780601f1062001e945761010080835404028352916020019162001ec0565b820191906000526020600020905b81548152906001019060200180831162001ea257829003601f168201915b505050505081565b60065481565b62001ed862002029565b6000808381526020019081526020016000206040518060c001604052908160008201548152602001600182015481526020016002820160009054906101000a900473ffffffffffffffffffffffffffffffffffffffff1673ffffffffffffffffffffffffffffffffffffffff1673ffffffffffffffffffffffffffffffffffffffff1681526020016002820160149054906101000a900460ff1615151515815260200160038201548152602001600482018054806020026020016040519081016040528092919081815260200182805480156200200b57602002820191906000526020600020905b8160009054906101000a900473ffffffffffffffffffffffffffffffffffffffff1673ffffffffffffffffffffffffffffffffffffffff168152602001906001019080831162001fc0575b5050505050815250509050919050565b61162280620038be83390190565b6040518060c001604052806000815260200160008152602001600073ffffffffffffffffffffffffffffffffffffffff16815260200160001515815260200160008152602001606081525090565b6000604051905090565b600080fd5b600080fd5b6000819050919050565b620020a0816200208b565b8114620020ac57600080fd5b50565b600081359050620020c08162002095565b92915050565b60008060408385031215620020e057620020df62002081565b5b6000620020f085828601620020af565b92505060206200210385828601620020af565b9150509250929050565b60006020828403121562002126576200212562002081565b5b60006200213684828501620020af565b91505092915050565b6200214a816200208b565b82525050565b60006020820190506200216760008301846200213f565b92915050565b600073ffffffffffffffffffffffffffffffffffffffff82169050919050565b60006200219a826200216d565b9050919050565b620021ac816200218d565b8114620021b857600080fd5b50565b600081359050620021cc81620021a1565b92915050565b60008060008060808587031215620021ef57620021ee62002081565b5b6000620021ff87828801620020af565b94505060206200221287828801620020af565b93505060406200222587828801620020af565b92505060606200223887828801620021bb565b91505092959194509250565b600081519050919050565b600082825260208201905092915050565b6000819050602082019050919050565b6000819050919050565b60006200229b620022956200228f846200216d565b62002270565b6200216d565b9050919050565b6000620022af826200227a565b9050919050565b6000620022c382620022a2565b9050919050565b620022d581620022b6565b82525050565b6000620022e98383620022ca565b60208301905092915050565b6000602082019050919050565b60006200230f8262002244565b6200231b81856200224f565b9350620023288362002260565b8060005b838110156200235f578151620023438882620022db565b97506200235083620022f5565b9250506001810190506200232c565b5085935050505092915050565b6000602082019050818103600083015262002388818462002302565b905092915050565b600080600060608486031215620023ac57620023ab62002081565b5b6000620023bc86828701620020af565b9350506020620023cf86828701620020af565b9250506040620023e286828701620021bb565b9150509250925092565b60006020828403121562002405576200240462002081565b5b60006200241584828501620021bb565b91505092915050565b600081519050919050565b600082825260208201905092915050565b6000819050602082019050919050565b62002455816200208b565b82525050565b62002466816200218d565b82525050565b60008115159050919050565b62002483816200246c565b82525050565b600082825260208201905092915050565b6000620024a78262002244565b620024b3818562002489565b9350620024c08362002260565b8060005b83811015620024f7578151620024db8882620022db565b9750620024e883620022f5565b925050600181019050620024c4565b5085935050505092915050565b600060c0830160008301516200251e60008601826200244a565b5060208301516200253360208601826200244a565b5060408301516200254860408601826200245b565b5060608301516200255d606086018262002478565b5060808301516200257260808601826200244a565b5060a083015184820360a08601526200258c82826200249a565b9150508091505092915050565b6000620025a7838362002504565b905092915050565b6000602082019050919050565b6000620025c9826200241e565b620025d5818562002429565b935083602082028501620025e9856200243a565b8060005b858110156200262b578484038952815162002609858262002599565b94506200261683620025af565b925060208a01995050600181019050620025ed565b50829750879550505050505092915050565b60006020820190508181036000830152620026598184620025bc565b905092915050565b600081519050919050565b600082825260208201905092915050565b60005b838110156200269d57808201518184015260208101905062002680565b60008484015250505050565b6000601f19601f8301169050919050565b6000620026c78262002661565b620026d381856200266c565b9350620026e58185602086016200267d565b620026f081620026a9565b840191505092915050565b60006020820190508181036000830152620027178184620026ba565b905092915050565b600060c0830160008301516200273960008601826200244a565b5060208301516200274e60208601826200244a565b5060408301516200276360408601826200245b565b50606083015162002778606086018262002478565b5060808301516200278d60808601826200244a565b5060a083015184820360a0860152620027a782826200249a565b9150508091505092915050565b60006020820190508181036000830152620027d081846200271f565b905092915050565b7f4e487b7100000000000000000000000000000000000000000000000000000000600052603260045260246000fd5b7f4f6e6c7920726573706f6e7365206d657373616765732061726520616c6c6f7760008201527f656420746f2074726967676572207061796d656e742070726f63657373000000602082015250565b600062002865603d836200266c565b9150620028728262002807565b604082019050919050565b60006020820190508181036000830152620028988162002856565b9050919050565b600081519050620028b081620021a1565b92915050565b600060208284031215620028cf57620028ce62002081565b5b6000620028df848285016200289f565b91505092915050565b600081519050620028f98162002095565b92915050565b60006020828403121562002918576200291762002081565b5b60006200292884828501620028e8565b91505092915050565b6200293c816200218d565b82525050565b600060208201905062002959600083018462002931565b92915050565b7f4e487b7100000000000000000000000000000000000000000000000000000000600052601160045260246000fd5b60006200299b826200208b565b9150620029a8836200208b565b9250828201905080821115620029c357620029c26200295f565b5b92915050565b6000604082019050620029e0600083018562002931565b620029ef60208301846200213f565b9392505050565b600060608201905062002a0d600083018662002931565b62002a1c60208301856200213f565b62002a2b60408301846200213f565b949350505050565b6000819050919050565b600062002a5e62002a5862002a528462002a33565b62002270565b6200208b565b9050919050565b62002a708162002a3d565b82525050565b600060608201905062002a8d600083018662002931565b62002a9c602083018562002a65565b62002aab60408301846200213f565b949350505050565b7f496e73756666696369656e7420656c65637472696369747920756e697473206960008201527f6e2073656c6c65722773206163636f756e740000000000000000000000000000602082015250565b600062002b116032836200266c565b915062002b1e8262002ab3565b604082019050919050565b6000602082019050818103600083015262002b448162002b02565b9050919050565b600062002b58826200208b565b915062002b65836200208b565b925082820390508181111562002b805762002b7f6200295f565b5b92915050565b6000819050919050565b600062002bb162002bab62002ba58462002b86565b62002270565b6200208b565b9050919050565b62002bc38162002b90565b82525050565b600060608201905062002be0600083018662002931565b62002bef602083018562002bb8565b62002bfe60408301846200213f565b949350505050565b7f496e73756666696369656e742073656c6c696e6720756e69747320696e20736560008201527f6c6c696e6720706f737400000000000000000000000000000000000000000000602082015250565b600062002c64602a836200266c565b915062002c718262002c06565b604082019050919050565b6000602082019050818103600083015262002c978162002c55565b9050919050565b600062002cab826200208b565b91507fffffffffffffffffffffffffffffffffffffffffffffffffffffffffffffffff820362002ce05762002cdf6200295f565b5b600182019050919050565b600060608201905062002d0260008301866200213f565b62002d1160208301856200213f565b62002d20604083018462002931565b949350505050565b7f616d6f756e74206d7573742062652067726561746572207468616e2030000000600082015250565b600062002d60601d836200266c565b915062002d6d8262002d28565b602082019050919050565b6000602082019050818103600083015262002d938162002d51565b9050919050565b7f71756f746174696f6e206d7573742062652067726561746572207468616e2030600082015250565b600062002dd26020836200266c565b915062002ddf8262002d9a565b602082019050919050565b6000602082019050818103600083015262002e058162002dc3565b9050919050565b7f706f7374206b6579207374617274732066726f6d203000000000000000000000600082015250565b600062002e446016836200266c565b915062002e518262002e0c565b602082019050919050565b6000602082019050818103600083015262002e778162002e35565b9050919050565b7f596f752063616e6e6f74207265706c7920746f20796f7572206f776e2073656c60008201527f6c696e6720706f73740000000000000000000000000000000000000000000000602082015250565b600062002edc6029836200266c565b915062002ee98262002e7e565b604082019050919050565b6000602082019050818103600083015262002f0f8162002ecd565b9050919050565b600060ff82169050919050565b600062002f4462002f3e62002f388462002b86565b62002270565b62002f16565b9050919050565b62002f568162002f23565b82525050565b600060e08201905062002f73600083018a62002931565b62002f82602083018962002931565b62002f9160408301886200213f565b62002fa060608301876200213f565b62002faf608083018662002f4b565b62002fbe60a08301856200213f565b62002fcd60c08301846200213f565b98975050505050505050565b62002fe481620022b6565b82525050565b600060408201905062003001600083018562002931565b62003010602083018462002fd9565b9392505050565b60006040820190506200302e600083018562002931565b6200303d602083018462002931565b9392505050565b6000819050919050565b60006200306f62003069620030638462003044565b62002270565b6200208b565b9050919050565b62003081816200304e565b82525050565b6000819050919050565b6000620030b2620030ac620030a68462003087565b62002270565b6200208b565b9050919050565b620030c48162003091565b82525050565b6000606082019050620030e1600083018662003076565b620030f060208301856200213f565b620030ff6040830184620030b9565b949350505050565b600080fd5b600080fd5b7f4e487b7100000000000000000000000000000000000000000000000000000000600052604160045260246000fd5b6200314b82620026a9565b810181811067ffffffffffffffff821117156200316d576200316c62003111565b5b80604052505050565b60006200318262002077565b905062003190828262003140565b919050565b600067ffffffffffffffff821115620031b357620031b262003111565b5b620031be82620026a9565b9050602081019050919050565b6000620031e2620031dc8462003195565b62003176565b9050828152602081018484840111156200320157620032006200310c565b5b6200320e8482856200267d565b509392505050565b600082601f8301126200322e576200322d62003107565b5b815162003240848260208601620031cb565b91505092915050565b60008060006060848603121562003265576200326462002081565b5b60006200327586828701620028e8565b93505060206200328886828701620028e8565b925050604084015167ffffffffffffffff811115620032ac57620032ab62002086565b5b620032ba8682870162003216565b9150509250925092565b7f4e487b7100000000000000000000000000000000000000000000000000000000600052602260045260246000fd5b600060028204905060018216806200330c57607f821691505b602082108103620033225762003321620032c4565b5b50919050565b60008190508160005260206000209050919050565b60006020601f8301049050919050565b600082821b905092915050565b6000600883026200338c7fffffffffffffffffffffffffffffffffffffffffffffffffffffffffffffffff826200334d565b6200339886836200334d565b95508019841693508086168417925050509392505050565b6000620033d1620033cb620033c5846200208b565b62002270565b6200208b565b9050919050565b6000819050919050565b620033ed83620033b0565b62003405620033fc82620033d8565b8484546200335a565b825550505050565b600090565b6200341c6200340d565b62003429818484620033e2565b505050565b5b8181101562003451576200344560008262003412565b6001810190506200342f565b5050565b601f821115620034a0576200346a8162003328565b62003475846200333d565b8101602085101562003485578190505b6200349d62003494856200333d565b8301826200342e565b50505b505050565b600082821c905092915050565b6000620034c560001984600802620034a5565b1980831691505092915050565b6000620034e08383620034b2565b9150826002028217905092915050565b620034fb8262002661565b67ffffffffffffffff81111562003517576200351662003111565b5b620035238254620032f3565b6200353082828562003455565b600060209050601f83116001811462003568576000841562003553578287015190505b6200355f8582620034d2565b865550620035cf565b601f198416620035788662003328565b60005b82811015620035a2578489015182556001820191506020850194506020810190506200357b565b86831015620035c25784890151620035be601f891682620034b2565b8355505b6001600288020188555050505b505050505050565b6000606082019050620035ee600083018662003076565b620035fd60208301856200213f565b6200360c60408301846200213f565b949350505050565b7f7075726368617365207072696365206d7573742062652067726561746572207460008201527f68616e2030000000000000000000000000000000000000000000000000000000602082015250565b6000620036726025836200266c565b91506200367f8262003614565b604082019050919050565b60006020820190508181036000830152620036a58162003663565b9050919050565b7f616d6f756e7420746f20627579206d757374206265206772656174657220746860008201527f616e203000000000000000000000000000000000000000000000000000000000602082015250565b60006200370a6024836200266c565b91506200371782620036ac565b604082019050919050565b600060208201905081810360008301526200373d81620036fb565b9050919050565b60006080820190506200375b600083018762002931565b6200376a60208301866200213f565b6200377960408301856200213f565b6200378860608301846200213f565b95945050505050565b600067ffffffffffffffff821115620037af57620037ae62003111565b5b602082029050602081019050919050565b600080fd5b6000620037dc620037d68462003791565b62003176565b90508083825260208201905060208402830185811115620038025762003801620037c0565b5b835b818110156200382f57806200381a8882620028e8565b84526020840193505060208101905062003804565b5050509392505050565b600082601f83011262003851576200385062003107565b5b815162003863848260208601620037c5565b91505092915050565b60006020828403121562003885576200388462002081565b5b600082015167ffffffffffffffff811115620038a657620038a562002086565b5b620038b48482850162003839565b9150509291505056fe60806040523480156200001157600080fd5b50604051620016223803806200162283398181016040528101906200003791906200021c565b86600860006101000a81548173ffffffffffffffffffffffffffffffffffffffff021916908373ffffffffffffffffffffffffffffffffffffffff160217905550856000806101000a81548173ffffffffffffffffffffffffffffffffffffffff021916908373ffffffffffffffffffffffffffffffffffffffff160217905550846001819055508360028190555082600360006101000a81548160ff021916908360ff16021790555081600481905550806005819055506000600660006101000a81548160ff0219169083151502179055506000600660016101000a81548160ff0219169083151502179055504260078190555050505050505050620002cf565b600080fd5b600073ffffffffffffffffffffffffffffffffffffffff82169050919050565b60006200016b826200013e565b9050919050565b6200017d816200015e565b81146200018957600080fd5b50565b6000815190506200019d8162000172565b92915050565b6000819050919050565b620001b881620001a3565b8114620001c457600080fd5b50565b600081519050620001d881620001ad565b92915050565b600060ff82169050919050565b620001f681620001de565b81146200020257600080fd5b50565b6000815190506200021681620001eb565b92915050565b600080600080600080600060e0888a0312156200023e576200023d62000139565b5b60006200024e8a828b016200018c565b9750506020620002618a828b016200018c565b9650506040620002748a828b01620001c7565b9550506060620002878a828b01620001c7565b94505060806200029a8a828b0162000205565b93505060a0620002ad8a828b01620001c7565b92505060c0620002c08a828b01620001c7565b91505092959891949750929550565b61134380620002df6000396000f3fe6080604052600436106100c65760003560e01c806382fa096a1161007f578063abf4d6c411610059578063abf4d6c414610424578063c32b9b531461042e578063cf09e0d014610438578063d67bdd25146104635761029e565b806382fa096a146103a3578063a03a202e146103ce578063aa8c217c146103f95761029e565b806304dc4cda146102a3578063209ebc08146102ce5780633013aa25146102f95780633d855485146103225780633e784e631461034d5780635051a5ec146103785761029e565b3661029e576000341161010e576040517f08c379a000000000000000000000000000000000000000000000000000000000815260040161010590610b63565b60405180910390fd5b60011515600660009054906101000a900460ff16151514610164576040517f08c379a000000000000000000000000000000000000000000000000000000000815260040161015b90610bf5565b60405180910390fd5b346002546001546101759190610c4e565b146101b5576040517f08c379a00000000000000000000000000000000000000000000000000000000081526004016101ac90610cdc565b60405180910390fd5b60001515600660019054906101000a900460ff1615151461020b576040517f08c379a000000000000000000000000000000000000000000000000000000000815260040161020290610d48565b60405180910390fd5b6000600360009054906101000a900460ff1660ff16036102325761022d61048e565b61029c565b6001600360009054906101000a900460ff1660ff16036102595761025461069d565b61029b565b600061029a576040517f08c379a000000000000000000000000000000000000000000000000000000000815260040161029190610db4565b60405180910390fd5b5b5b005b600080fd5b3480156102af57600080fd5b506102b86108ac565b6040516102c59190610df0565b60405180910390f35b3480156102da57600080fd5b506102e36108bf565b6040516102f09190610e26565b60405180910390f35b34801561030557600080fd5b50610320600480360381019061031b9190610e72565b6108d2565b005b34801561032e57600080fd5b5061033761093d565b6040516103449190610eae565b60405180910390f35b34801561035957600080fd5b50610362610943565b60405161036f9190610eae565b60405180910390f35b34801561038457600080fd5b5061038d610949565b60405161039a9190610e26565b60405180910390f35b3480156103af57600080fd5b506103b861095c565b6040516103c59190610fee565b60405180910390f35b3480156103da57600080fd5b506103e3610a67565b6040516103f09190610eae565b60405180910390f35b34801561040557600080fd5b5061040e610a6d565b60405161041b9190610eae565b60405180910390f35b61042c61048e565b005b61043661069d565b005b34801561044457600080fd5b5061044d610a73565b60405161045a9190610eae565b60405180910390f35b34801561046f57600080fd5b50610478610a79565b6040516104859190611019565b60405180910390f35b60008054906101000a900473ffffffffffffffffffffffffffffffffffffffff1673ffffffffffffffffffffffffffffffffffffffff163373ffffffffffffffffffffffffffffffffffffffff160361051c576040517f08c379a0000000000000000000000000000000000000000000000000000000008152600401610513906110a6565b60405180910390fd5b6000600860009054906101000a900473ffffffffffffffffffffffffffffffffffffffff1673ffffffffffffffffffffffffffffffffffffffff163460045460055460405160240161056f9291906110c6565b6040516020818303038152906040527f3d480db5000000000000000000000000000000000000000000000000000000007bffffffffffffffffffffffffffffffffffffffffffffffffffffffff19166020820180517bffffffffffffffffffffffffffffffffffffffffffffffffffffffff83818316178352505050506040516105f99190611160565b60006040518083038185875af1925050503d8060008114610636576040519150601f19603f3d011682016040523d82523d6000602084013e61063b565b606091505b505090508061067f576040517f08c379a0000000000000000000000000000000000000000000000000000000008152600401610676906111c3565b60405180910390fd5b6001600660016101000a81548160ff02191690831515021790555050565b60008054906101000a900473ffffffffffffffffffffffffffffffffffffffff1673ffffffffffffffffffffffffffffffffffffffff163373ffffffffffffffffffffffffffffffffffffffff161461072b576040517f08c379a00000000000000000000000000000000000000000000000000000000081526004016107229061127b565b60405180910390fd5b6000600860009054906101000a900473ffffffffffffffffffffffffffffffffffffffff1673ffffffffffffffffffffffffffffffffffffffff163460045460055460405160240161077e9291906110c6565b6040516020818303038152906040527f0876290a000000000000000000000000000000000000000000000000000000007bffffffffffffffffffffffffffffffffffffffffffffffffffffffff19166020820180517bffffffffffffffffffffffffffffffffffffffffffffffffffffffff83818316178352505050506040516108089190611160565b60006040518083038185875af1925050503d8060008114610845576040519150601f19603f3d011682016040523d82523d6000602084013e61084a565b606091505b505090508061088e576040517f08c379a0000000000000000000000000000000000000000000000000000000008152600401610885906111c3565b60405180910390fd5b6001600660016101000a81548160ff02191690831515021790555050565b600360009054906101000a900460ff1681565b600660019054906101000a900460ff1681565b80600660006101000a81548160ff0219169083151502179055507f9161e5ec70df4a8ef9f6085e3435135f3da64c7ec32c271912e1ca8d4afbd7c3600360009054906101000a900460ff16600454600554604051610932939291906112d6565b60405180910390a150565b60045481565b60055481565b600660009054906101000a900460ff1681565b610964610a9d565b61096c610a9d565b60008054906101000a900473ffffffffffffffffffffffffffffffffffffffff16816000019073ffffffffffffffffffffffffffffffffffffffff16908173ffffffffffffffffffffffffffffffffffffffff1681525050600154816020018181525050600254816040018181525050600360009054906101000a900460ff16816060019060ff16908160ff16815250506004548160800181815250506005548160a0018181525050600660009054906101000a900460ff168160c0019015159081151581525050600660019054906101000a900460ff168160e0019015159081151581525050600754816101000181815250508091505090565b60025481565b60015481565b60075481565b60008054906101000a900473ffffffffffffffffffffffffffffffffffffffff1681565b604051806101200160405280600073ffffffffffffffffffffffffffffffffffffffff1681526020016000815260200160008152602001600060ff1681526020016000815260200160008152602001600015158152602001600015158152602001600081525090565b600082825260208201905092915050565b7f696e76616c6964207061796d656e740000000000000000000000000000000000600082015250565b6000610b4d600f83610b06565b9150610b5882610b17565b602082019050919050565b60006020820190508181036000830152610b7c81610b40565b9050919050565b7f796f757220726573706f6e736520686173206e6f74206265656e20616363657060008201527f7465642062792073656c6c657220796574000000000000000000000000000000602082015250565b6000610bdf603183610b06565b9150610bea82610b83565b604082019050919050565b60006020820190508181036000830152610c0e81610bd2565b9050919050565b6000819050919050565b7f4e487b7100000000000000000000000000000000000000000000000000000000600052601160045260246000fd5b6000610c5982610c15565b9150610c6483610c15565b9250828202610c7281610c15565b91508282048414831517610c8957610c88610c1f565b5b5092915050565b7f4e6f742066756c6c792070616964207965740000000000000000000000000000600082015250565b6000610cc6601283610b06565b9150610cd182610c90565b602082019050919050565b60006020820190508181036000830152610cf581610cb9565b9050919050565b7f4f7264657220697320616c726561647920706169642100000000000000000000600082015250565b6000610d32601683610b06565b9150610d3d82610cfc565b602082019050919050565b60006020820190508181036000830152610d6181610d25565b9050919050565b7f696e76616c696420726573706f6e7365206d6573736167652074797065000000600082015250565b6000610d9e601d83610b06565b9150610da982610d68565b602082019050919050565b60006020820190508181036000830152610dcd81610d91565b9050919050565b600060ff82169050919050565b610dea81610dd4565b82525050565b6000602082019050610e056000830184610de1565b92915050565b60008115159050919050565b610e2081610e0b565b82525050565b6000602082019050610e3b6000830184610e17565b92915050565b600080fd5b610e4f81610e0b565b8114610e5a57600080fd5b50565b600081359050610e6c81610e46565b92915050565b600060208284031215610e8857610e87610e41565b5b6000610e9684828501610e5d565b91505092915050565b610ea881610c15565b82525050565b6000602082019050610ec36000830184610e9f565b92915050565b600073ffffffffffffffffffffffffffffffffffffffff82169050919050565b6000610ef482610ec9565b9050919050565b610f0481610ee9565b82525050565b610f1381610c15565b82525050565b610f2281610dd4565b82525050565b610f3181610e0b565b82525050565b61012082016000820151610f4e6000850182610efb565b506020820151610f616020850182610f0a565b506040820151610f746040850182610f0a565b506060820151610f876060850182610f19565b506080820151610f9a6080850182610f0a565b5060a0820151610fad60a0850182610f0a565b5060c0820151610fc060c0850182610f28565b5060e0820151610fd360e0850182610f28565b50610100820151610fe8610100850182610f0a565b50505050565b6000610120820190506110046000830184610f37565b92915050565b61101381610ee9565b82525050565b600060208201905061102e600083018461100a565b92915050565b7f596f752063616e6e6f74206d616b652061207061796d656e7420746f20796f7560008201527f72206f776e2073656c6c696e6720726573706f6e7365206d6573736167650000602082015250565b6000611090603e83610b06565b915061109b82611034565b604082019050919050565b600060208201905081810360008301526110bf81611083565b9050919050565b60006040820190506110db6000830185610e9f565b6110e86020830184610e9f565b9392505050565b600081519050919050565b600081905092915050565b60005b83811015611123578082015181840152602081019050611108565b60008484015250505050565b600061113a826110ef565b61114481856110fa565b9350611154818560208601611105565b80840191505092915050565b600061116c828461112f565b915081905092915050565b7f7061796d656e74206661696c6564000000000000000000000000000000000000600082015250565b60006111ad600e83610b06565b91506111b882611177565b602082019050919050565b600060208201905081810360008301526111dc816111a0565b9050919050565b7f4f6e6c7920746865206d6573736167652073656e6465722077686f2073656e7460008201527f207468697320726573706f6e736520746f206163717569726520656c6563747260208201527f696369747920756e6974732063616e206d616b652061207061796d656e740000604082015250565b6000611265605e83610b06565b9150611270826111e3565b606082019050919050565b6000602082019050818103600083015261129481611258565b9050919050565b6000819050919050565b60006112c06112bb6112b684610dd4565b61129b565b610c15565b9050919050565b6112d0816112a5565b82525050565b60006060820190506112eb60008301866112c7565b6112f86020830185610e9f565b6113056040830184610e9f565b94935050505056fea264697066735822122073e925c02640f54ec6f797a0c5db83b3650b31ffafe16a7aa55534274ce1d24064736f6c63430008110033a2646970667358221220854a684cb71ef15b4c6635cfd57e2e7377a0e635571585ed44af0acf61597a6664736f6c63430008110033",
  "immutableReferences": {},
  "source": "//SPDX-License-Identifier: MIT\n\npragma solidity ^0.8.0;\n\nimport \"./BeanStructs.sol\";\nimport \"./BuyerService.sol\";\nimport \"./SellerService.sol\";\nimport \"./UserService.sol\";\nimport \"./StatisticsService.sol\";\nimport \"./Division.sol\";\n\n// system contract\ncontract MainSystem is BeanStructs {\n\n    UserService private  userService;\n    StatisticsService private statisticsService;\n    BuyerService private  buyerService;\n    SellerService  private sellerService;\n    \n    // ------------------------- constructor ------------------------- \n    constructor() {\n        // 1.initialize services and mount them to reference variables\n        userService = new UserService(address(this));\n        statisticsService = new StatisticsService();\n        Division divisionUtils = new Division();\n        buyerService = new BuyerService(statisticsService, userService, divisionUtils);       \n        sellerService = new SellerService(statisticsService, userService, divisionUtils);\n        address admin = msg.sender;\n        userService.initializeContractAddresses(address(buyerService), address(sellerService), admin); \n    }\n\n    // -------------------------buyer service API -------------------------\n    \n    // buyer -  create a new purchase post\n    function createPurchasePost (uint _priceToBuy, uint _amountToBuy) public {\n        buyerService.createPurchasePost(_priceToBuy, _amountToBuy, msg.sender);\n    }\n\n    // seller - create purchase post response messages\n    function createResponseMessageToPurchasePost(uint _amountToSell, uint _quotationInWei, uint _purchasePostKey) public {\n        buyerService.createResponseMessageToPurchasePost(_amountToSell, _quotationInWei, _purchasePostKey, msg.sender);\n    }\n\n    // returns all purchase posts by user address\n    function returnAllPurchasePostsByAddress(address _account) public view returns (PurchasePost[] memory) {\n        return buyerService.returnAllPurchasePostsByAddress(_account);\n    }\n\n     // return total number of purchase posts in the system\n    function returnPurchasePostMapSize() public view returns(uint) {\n        return buyerService.returnPurchasePostMapSize();\n    }\n\n    // return one purchase post by user address and post key\n    function getPurchasePostByKey(uint _postKey) public view returns(PurchasePost memory) {\n        return buyerService.getPurchasePostByKey(_postKey);\n    }\n\n    // return all response messages of a purchase post by post key\n    function returnPurchasePostResponseMessagesByKey(uint _postKey) public view returns(PostResponseMessage[] memory){\n        return buyerService.returnPurchasePostResponseMessagesByKey(_postKey);\n    }\n  \n    //-------------------------------------------------------//\n    // update recommended price of electricity unit price for buy post\n    function updateRecentAveragePriceforBuy() public {\n         buyerService.updateRecentAveragePriceforBuy();\n    }\n\n    // return recommended price of electricity unit price for buy post\n    function returnRecentAveragePriceforBuy() public view returns (string memory) {\n        return buyerService.returnRecentAveragePriceforBuy();\n    }\n\n    // update and return recommended price of electricity unit price for buy post\n    function updateAndReturnRecentAveragePriceforBuy() public returns (string memory) {\n        buyerService.updateRecentAveragePriceforBuy();\n        return buyerService.returnRecentAveragePriceforBuy();\n    }\n    //-------------------------------------------------------//\n\n    // ------------------------- seller service API -------------------------\n\n    // seller -  create a new selling post\n    function createSellingPost (uint _priceToSell, uint _amountToSell) public {\n        sellerService.createSellingPost(_priceToSell, _amountToSell, msg.sender);\n    }\n     \n    // buyer - create selling post response messages\n    // buyer creates response message and wait for confirmation from seller. buyer then pays for it once response is accepted\n    function createResponseMessageToSellingPost(uint _amountToBuy, uint _quotationInWei, uint _sellingPostKey) public {\n        sellerService.createResponseMessageToSellingPost(_amountToBuy, _quotationInWei, _sellingPostKey, msg.sender);\n    }\n\n\n    // returns all selling posts by user address\n    function returnAllSellingPostsByAddress(address _account) public view returns (SellingPost[] memory) {\n        return sellerService.returnAllSellingPostsByAddress(_account);\n    }\n\n    // return one selling post by post key\n    function getSellingPostByKey(uint _postKey) public view returns(SellingPost memory) {\n        return sellerService.getSellingPostByKey(_postKey);\n    }\n\n    // return all response messages of one post by key\n    function returnSellingPostResponseMessagesByKey(uint _postKey) public view returns(PostResponseMessage[] memory){\n        return sellerService.returnSellingPostResponseMessagesByKey(_postKey);\n    }\n\n    //new\n    function returnSellPostMapSize() public view returns(uint){\n        return sellerService.returnSellPostMapSize();\n    }\n    \n    //-------------------------------------------------------//\n    // update recommended price of electricity unit price for sell post\n    function updateRecentAveragePriceforSell() public {\n         sellerService.updateRecentAveragePriceforSell();\n    }\n\n    // return recommended price of electricity unit price for sell post\n    function returnRecentAveragePriceforSell() public view returns (string memory) {\n        return sellerService.returnRecentAveragePriceforSell();\n    }\n\n    // update and return recommended price of electricity unit price for sell post\n    function updateAndReturnRecentAveragePriceforSell() public returns (string memory) {\n        sellerService.updateRecentAveragePriceforSell();\n        return sellerService.returnRecentAveragePriceforSell();\n    }\n    //-------------------------------------------------------//\n\n    // ------------------------- user service API -------------------------\n\n    // return username by user's account address\n    function getUsernameByAddress(address _user) public view returns (string memory) {\n        return userService.getUsername(_user);\n    }\n\n    // return available electricity units by account address\n    function getAvailableElecUnitsByAccountAddress(address _user) public view returns (uint) {\n        return userService.getAvailableElecUnits(_user);\n    }\n\n    // return an array contaning all purchase post keys that are published by a user\n    function getPurchasePostKeys(address _user) public view returns (uint[] memory) {\n        return userService.getPurchasePostKeys(_user);\n    }\n\n    // return an array contaning all selling post keys that are published by a user\n    function getSellingPostKeys(address _user) public view returns (uint[] memory) {\n        return userService.getSellingPostKeys(_user);\n    }\n\n    // set username\n    function setUsername(address _user, string memory _username) public {\n        userService.setUsername(_user, _username);\n    }  \n\n    // return all response messages of user by user address\n    function returnAllResponses(address _user) public view returns (PostResponseMessage[] memory) {\n        return userService.returnAllResponses(_user);\n    } \n    \n\n    // -------------------------statistics service API -------------------------\n\n    // return total buy amount by user's account address\n    function returnTotalBuyByAddress(address _accountAddress) public view returns (uint) {\n        return statisticsService.returnTotalBuyByAddress(_accountAddress);\n    }\n    \n    // return total buy amount by user's account address\n    function returnTotalSellByAddress(address _accountAddress) public view returns (uint) {\n        return statisticsService.returnTotalSellByAddress(_accountAddress);\n    }\n\n    // return 10 recent transactions (return all if transactions if total amount is less than 10)\n    function returnRecentTransactions(address _account) public view returns (TransactionBean[] memory)  {\n        return statisticsService.returnRecentTransactions(_account);\n    }\n\n    /*\n        return weekly buy transactions statistics:\n            _user: identify target user\n            _prevWeekNum: identify which week's statistics to retrieve. Value starts from 0\n                0: indicating current week\n                1: previous week\n                2: 2 weeks ago\n                ...  \n    */\n    function returnWeeklyBuyStatistics(address _user, uint _prevWeekNum) public view returns (uint[] memory) {\n        return statisticsService.returnWeeklyStatistics(_user, _prevWeekNum, 0);\n    }\n\n    /*\n        return weekly sell transactions statistics:\n            _user: identify target user\n            _prevWeekNum: identify which week's statistics to retrieve. Value starts from 0\n                0: indicating current week\n                1: previous week\n                2: 2 weeks ago\n                ...  \n    */\n    function returnWeeklySellStatistics(address _user, uint _prevWeekNum) public view returns (uint[] memory) {\n        return statisticsService.returnWeeklyStatistics(_user, _prevWeekNum, 1);\n    }\n\n    /*\n        return weekly total buy and total sell:\n            _user: identify target user\n            _prevWeekNum: identify which week's statistics to retrieve. Value starts from 0\n                0: indicating current week\n                1: previous week\n                2: 2 weeks ago\n                ...  \n        return format:[WeeklyTotalBuy, WeeklyTotalSell]\n    */\n    function returnWeeklyTotalBuyAndSell(address _user, uint _prevWeekNum) public view returns (uint[2] memory) {\n        uint weeklyBuy = statisticsService.returnWeeklyTotalBuyOrSell(_user, _prevWeekNum, 0);\n        uint weeklySell = statisticsService.returnWeeklyTotalBuyOrSell(_user, _prevWeekNum, 1);\n        uint[2] memory result = [weeklyBuy, weeklySell];\n        return result;   \n    }\n    \n    // -------------------------admin API -------------------------\n\n    // add electricity units\n    function addAvailableElecUnits(address _user, uint  _units) public {\n        userService.addAvailableElecUnits(_user, _units);\n    }  \n\n\n}\n",
  "sourcePath": "/Users/richard/Doc//sydney_study/22s2/5703/vue-web3-5703/truffle/contracts/MainSystem.sol",
  "compiler": {
    "name": "solc",
    "version": "0.8.17+commit.8df45f5f.Emscripten.clang"
  },
  "schemaVersion": "3.4.9",
  "updatedAt": "2022-10-22T06:38:41.698Z",
  "networkType": "ethereum",
  "devdoc": {
    "kind": "dev",
    "methods": {},
    "version": 1
  },
  "userdoc": {
    "kind": "user",
    "methods": {},
    "version": 1
  }
}