{
  "contractName": "MainSystem",
  "abi": [
    {
      "inputs": [],
      "stateMutability": "nonpayable",
      "type": "constructor"
    },
    {
      "inputs": [
        {
          "internalType": "uint256",
          "name": "_priceToBuy",
          "type": "uint256"
        },
        {
          "internalType": "uint256",
          "name": "_amountToBuy",
          "type": "uint256"
        }
      ],
      "name": "createPurchasePost",
      "outputs": [],
      "stateMutability": "nonpayable",
      "type": "function"
    },
    {
      "inputs": [
        {
          "internalType": "uint256",
          "name": "_amountToSell",
          "type": "uint256"
        },
        {
          "internalType": "uint256",
          "name": "_quotationInWei",
          "type": "uint256"
        },
        {
          "internalType": "uint256",
          "name": "_purchasePostKey",
          "type": "uint256"
        }
      ],
      "name": "createResponseMessageToPurchasePost",
      "outputs": [],
      "stateMutability": "nonpayable",
      "type": "function"
    },
    {
      "inputs": [
        {
          "internalType": "address",
          "name": "_account",
          "type": "address"
        }
      ],
      "name": "returnAllPurchasePostsByAddress",
      "outputs": [
        {
          "components": [
            {
              "internalType": "uint256",
              "name": "priceToBuy",
              "type": "uint256"
            },
            {
              "internalType": "uint256",
              "name": "amountToBuy",
              "type": "uint256"
            },
            {
              "internalType": "address",
              "name": "buyer",
              "type": "address"
            },
            {
              "internalType": "bool",
              "name": "enabled",
              "type": "bool"
            },
            {
              "internalType": "uint256",
              "name": "createdAt",
              "type": "uint256"
            },
            {
              "internalType": "contract PostResponseMessage[]",
              "name": "responseMessages",
              "type": "address[]"
            }
          ],
          "internalType": "struct BeanStructs.PurchasePost[]",
          "name": "",
          "type": "tuple[]"
        }
      ],
      "stateMutability": "view",
      "type": "function",
      "constant": true
    },
    {
      "inputs": [],
      "name": "returnPurchasePostMapSize",
      "outputs": [
        {
          "internalType": "uint256",
          "name": "",
          "type": "uint256"
        }
      ],
      "stateMutability": "view",
      "type": "function",
      "constant": true
    },
    {
      "inputs": [
        {
          "internalType": "uint256",
          "name": "_postKey",
          "type": "uint256"
        }
      ],
      "name": "getPurchasePostByKey",
      "outputs": [
        {
          "components": [
            {
              "internalType": "uint256",
              "name": "priceToBuy",
              "type": "uint256"
            },
            {
              "internalType": "uint256",
              "name": "amountToBuy",
              "type": "uint256"
            },
            {
              "internalType": "address",
              "name": "buyer",
              "type": "address"
            },
            {
              "internalType": "bool",
              "name": "enabled",
              "type": "bool"
            },
            {
              "internalType": "uint256",
              "name": "createdAt",
              "type": "uint256"
            },
            {
              "internalType": "contract PostResponseMessage[]",
              "name": "responseMessages",
              "type": "address[]"
            }
          ],
          "internalType": "struct BeanStructs.PurchasePost",
          "name": "",
          "type": "tuple"
        }
      ],
      "stateMutability": "view",
      "type": "function",
      "constant": true
    },
    {
      "inputs": [
        {
          "internalType": "uint256",
          "name": "_postKey",
          "type": "uint256"
        }
      ],
      "name": "returnPurchasePostResponseMessagesByKey",
      "outputs": [
        {
          "internalType": "contract PostResponseMessage[]",
          "name": "",
          "type": "address[]"
        }
      ],
      "stateMutability": "view",
      "type": "function",
      "constant": true
    },
    {
      "inputs": [
        {
          "internalType": "uint256",
          "name": "_priceToSell",
          "type": "uint256"
        },
        {
          "internalType": "uint256",
          "name": "_amountToSell",
          "type": "uint256"
        }
      ],
      "name": "createSellingPost",
      "outputs": [],
      "stateMutability": "nonpayable",
      "type": "function"
    },
    {
      "inputs": [
        {
          "internalType": "uint256",
          "name": "_amountToBuy",
          "type": "uint256"
        },
        {
          "internalType": "uint256",
          "name": "_quotationInWei",
          "type": "uint256"
        },
        {
          "internalType": "uint256",
          "name": "_sellingPostKey",
          "type": "uint256"
        }
      ],
      "name": "createResponseMessageToSellingPost",
      "outputs": [],
      "stateMutability": "nonpayable",
      "type": "function"
    },
    {
      "inputs": [
        {
          "internalType": "address",
          "name": "_account",
          "type": "address"
        }
      ],
      "name": "returnAllSellingPostsByAddress",
      "outputs": [
        {
          "components": [
            {
              "internalType": "uint256",
              "name": "priceToSell",
              "type": "uint256"
            },
            {
              "internalType": "uint256",
              "name": "amountToSell",
              "type": "uint256"
            },
            {
              "internalType": "address",
              "name": "seller",
              "type": "address"
            },
            {
              "internalType": "bool",
              "name": "enabled",
              "type": "bool"
            },
            {
              "internalType": "uint256",
              "name": "createdAt",
              "type": "uint256"
            },
            {
              "internalType": "contract PostResponseMessage[]",
              "name": "responseMessages",
              "type": "address[]"
            }
          ],
          "internalType": "struct BeanStructs.SellingPost[]",
          "name": "",
          "type": "tuple[]"
        }
      ],
      "stateMutability": "view",
      "type": "function",
      "constant": true
    },
    {
      "inputs": [
        {
          "internalType": "uint256",
          "name": "_postKey",
          "type": "uint256"
        }
      ],
      "name": "getSellingPostByKey",
      "outputs": [
        {
          "components": [
            {
              "internalType": "uint256",
              "name": "priceToSell",
              "type": "uint256"
            },
            {
              "internalType": "uint256",
              "name": "amountToSell",
              "type": "uint256"
            },
            {
              "internalType": "address",
              "name": "seller",
              "type": "address"
            },
            {
              "internalType": "bool",
              "name": "enabled",
              "type": "bool"
            },
            {
              "internalType": "uint256",
              "name": "createdAt",
              "type": "uint256"
            },
            {
              "internalType": "contract PostResponseMessage[]",
              "name": "responseMessages",
              "type": "address[]"
            }
          ],
          "internalType": "struct BeanStructs.SellingPost",
          "name": "",
          "type": "tuple"
        }
      ],
      "stateMutability": "view",
      "type": "function",
      "constant": true
    },
    {
      "inputs": [
        {
          "internalType": "uint256",
          "name": "_postKey",
          "type": "uint256"
        }
      ],
      "name": "returnSellingPostResponseMessagesByKey",
      "outputs": [
        {
          "internalType": "contract PostResponseMessage[]",
          "name": "",
          "type": "address[]"
        }
      ],
      "stateMutability": "view",
      "type": "function",
      "constant": true
    },
    {
      "inputs": [],
      "name": "returnSellPostMapSize",
      "outputs": [
        {
          "internalType": "uint256",
          "name": "",
          "type": "uint256"
        }
      ],
      "stateMutability": "view",
      "type": "function",
      "constant": true
    },
    {
      "inputs": [
        {
          "internalType": "address",
          "name": "_user",
          "type": "address"
        }
      ],
      "name": "getUsernameByAddress",
      "outputs": [
        {
          "internalType": "string",
          "name": "",
          "type": "string"
        }
      ],
      "stateMutability": "view",
      "type": "function",
      "constant": true
    },
    {
      "inputs": [
        {
          "internalType": "address",
          "name": "_user",
          "type": "address"
        }
      ],
      "name": "getAvailableElecUnitsByAccountAddress",
      "outputs": [
        {
          "internalType": "uint256",
          "name": "",
          "type": "uint256"
        }
      ],
      "stateMutability": "view",
      "type": "function",
      "constant": true
    },
    {
      "inputs": [
        {
          "internalType": "address",
          "name": "_user",
          "type": "address"
        }
      ],
      "name": "getPurchasePostKeys",
      "outputs": [
        {
          "internalType": "uint256[]",
          "name": "",
          "type": "uint256[]"
        }
      ],
      "stateMutability": "view",
      "type": "function",
      "constant": true
    },
    {
      "inputs": [
        {
          "internalType": "address",
          "name": "_user",
          "type": "address"
        }
      ],
      "name": "getSellingPostKeys",
      "outputs": [
        {
          "internalType": "uint256[]",
          "name": "",
          "type": "uint256[]"
        }
      ],
      "stateMutability": "view",
      "type": "function",
      "constant": true
    },
    {
      "inputs": [
        {
          "internalType": "address",
          "name": "_user",
          "type": "address"
        },
        {
          "internalType": "string",
          "name": "_username",
          "type": "string"
        }
      ],
      "name": "setUsername",
      "outputs": [],
      "stateMutability": "nonpayable",
      "type": "function"
    },
    {
      "inputs": [
        {
          "internalType": "address",
          "name": "_accountAdress",
          "type": "address"
        }
      ],
      "name": "returnTotalBuyByAddress",
      "outputs": [
        {
          "internalType": "uint256",
          "name": "",
          "type": "uint256"
        }
      ],
      "stateMutability": "view",
      "type": "function",
      "constant": true
    },
    {
      "inputs": [
        {
          "internalType": "address",
          "name": "_accountAdress",
          "type": "address"
        }
      ],
      "name": "returnTotalSellByAddress",
      "outputs": [
        {
          "internalType": "uint256",
          "name": "",
          "type": "uint256"
        }
      ],
      "stateMutability": "view",
      "type": "function",
      "constant": true
    },
    {
      "inputs": [
        {
          "internalType": "address",
          "name": "_account",
          "type": "address"
        }
      ],
      "name": "returnRecentTransactions",
      "outputs": [
        {
          "components": [
            {
              "internalType": "uint256",
              "name": "createdAt",
              "type": "uint256"
            },
            {
              "internalType": "uint256",
              "name": "transactionType",
              "type": "uint256"
            },
            {
              "internalType": "uint256",
              "name": "transactionValue",
              "type": "uint256"
            }
          ],
          "internalType": "struct BeanStructs.TransactionBean[]",
          "name": "",
          "type": "tuple[]"
        }
      ],
      "stateMutability": "view",
      "type": "function",
      "constant": true
    }
  ],
  "bytecode": "0x60806040523480156200001157600080fd5b503060405162000021906200034b565b6200002d9190620003c8565b604051809103906000f0801580156200004a573d6000803e3d6000fd5b506000806101000a81548173ffffffffffffffffffffffffffffffffffffffff021916908373ffffffffffffffffffffffffffffffffffffffff160217905550604051620000989062000359565b604051809103906000f080158015620000b5573d6000803e3d6000fd5b50600160006101000a81548173ffffffffffffffffffffffffffffffffffffffff021916908373ffffffffffffffffffffffffffffffffffffffff160217905550600160009054906101000a900473ffffffffffffffffffffffffffffffffffffffff1660008054906101000a900473ffffffffffffffffffffffffffffffffffffffff16604051620001489062000367565b6200015592919062000475565b604051809103906000f08015801562000172573d6000803e3d6000fd5b50600260006101000a81548173ffffffffffffffffffffffffffffffffffffffff021916908373ffffffffffffffffffffffffffffffffffffffff160217905550600160009054906101000a900473ffffffffffffffffffffffffffffffffffffffff1660008054906101000a900473ffffffffffffffffffffffffffffffffffffffff16604051620002059062000375565b6200021292919062000475565b604051809103906000f0801580156200022f573d6000803e3d6000fd5b50600360006101000a81548173ffffffffffffffffffffffffffffffffffffffff021916908373ffffffffffffffffffffffffffffffffffffffff16021790555060008054906101000a900473ffffffffffffffffffffffffffffffffffffffff1673ffffffffffffffffffffffffffffffffffffffff1663317d7268600260009054906101000a900473ffffffffffffffffffffffffffffffffffffffff16600360009054906101000a900473ffffffffffffffffffffffffffffffffffffffff166040518363ffffffff1660e01b815260040162000311929190620004a2565b600060405180830381600087803b1580156200032c57600080fd5b505af115801562000341573d6000803e3d6000fd5b50505050620004cf565b6114998062002d1283390190565b610e6880620041ab83390190565b61432b806200501383390190565b6141f1806200933e83390190565b600073ffffffffffffffffffffffffffffffffffffffff82169050919050565b6000620003b08262000383565b9050919050565b620003c281620003a3565b82525050565b6000602082019050620003df6000830184620003b7565b92915050565b6000819050919050565b6000620004106200040a620004048462000383565b620003e5565b62000383565b9050919050565b60006200042482620003ef565b9050919050565b6000620004388262000417565b9050919050565b6200044a816200042b565b82525050565b60006200045d8262000417565b9050919050565b6200046f8162000450565b82525050565b60006040820190506200048c60008301856200043f565b6200049b602083018462000464565b9392505050565b6000604082019050620004b96000830185620003b7565b620004c86020830184620003b7565b9392505050565b61283380620004df6000396000f3fe608060405234801561001057600080fd5b506004361061012c5760003560e01c8063b5387dc5116100ad578063e204545211610071578063e2045452146103b5578063e3d9deb6146103d1578063ebe0b877146103ed578063ed1a998d1461041d578063f139c0631461044d5761012c565b8063b5387dc5146102d9578063c9fd542014610309578063ced8d53014610339578063d378b5fe14610369578063da02c9de146103855761012c565b80636e6181ec116100f45780636e6181ec1461020f57806377c82cc91461022b5780637b7e76b81461025b578063951b3de81461028b578063ae87ca7c146102a95761012c565b80631d036d7d1461013157806333bdb8f91461016157806335df350914610191578063620c503a146101af5780636627cbd6146101df575b600080fd5b61014b6004803603810190610146919061122a565b610469565b604051610158919061131f565b60405180910390f35b61017b6004803603810190610176919061122a565b610511565b6040516101889190611350565b60405180910390f35b6101996105b6565b6040516101a69190611350565b60405180910390f35b6101c960048036038101906101c49190611397565b61064e565b6040516101d691906114d2565b60405180910390f35b6101f960048036038101906101f49190611397565b6106f8565b60405161020691906114d2565b60405180910390f35b610229600480360381019061022491906114f4565b6107a2565b005b6102456004803603810190610240919061122a565b610837565b6040516102529190611625565b60405180910390f35b6102756004803603810190610270919061122a565b6108e1565b604051610282919061182b565b60405180910390f35b61029361098b565b6040516102a09190611350565b60405180910390f35b6102c360048036038101906102be919061122a565b610a23565b6040516102d09190611998565b60405180910390f35b6102f360048036038101906102ee919061122a565b610acd565b6040516103009190611350565b60405180910390f35b610323600480360381019061031e919061122a565b610b72565b6040516103309190611350565b60405180910390f35b610353600480360381019061034e9190611397565b610c16565b6040516103609190611a43565b60405180910390f35b610383600480360381019061037e9190611a65565b610cc6565b005b61039f600480360381019061039a9190611397565b610d5e565b6040516103ac9190611b41565b60405180910390f35b6103cf60048036038101906103ca9190611ca9565b610e0e565b005b6103eb60048036038101906103e69190611a65565b610e9f565b005b6104076004803603810190610402919061122a565b610f37565b604051610414919061131f565b60405180910390f35b6104376004803603810190610432919061122a565b610fdf565b6040516104449190611d84565b60405180910390f35b610467600480360381019061046291906114f4565b611087565b005b606060008054906101000a900473ffffffffffffffffffffffffffffffffffffffff1673ffffffffffffffffffffffffffffffffffffffff16631d036d7d836040518263ffffffff1660e01b81526004016104c49190611db5565b600060405180830381865afa1580156104e1573d6000803e3d6000fd5b505050506040513d6000823e3d601f19601f8201168201806040525081019061050a9190611ead565b9050919050565b6000600160009054906101000a900473ffffffffffffffffffffffffffffffffffffffff1673ffffffffffffffffffffffffffffffffffffffff166333bdb8f9836040518263ffffffff1660e01b815260040161056e9190611db5565b602060405180830381865afa15801561058b573d6000803e3d6000fd5b505050506040513d601f19601f820116820180604052508101906105af9190611ef6565b9050919050565b6000600360009054906101000a900473ffffffffffffffffffffffffffffffffffffffff1673ffffffffffffffffffffffffffffffffffffffff166335df35096040518163ffffffff1660e01b8152600401602060405180830381865afa158015610625573d6000803e3d6000fd5b505050506040513d601f19601f820116820180604052508101906106499190611ef6565b905090565b6060600260009054906101000a900473ffffffffffffffffffffffffffffffffffffffff1673ffffffffffffffffffffffffffffffffffffffff1663620c503a836040518263ffffffff1660e01b81526004016106ab9190611350565b600060405180830381865afa1580156106c8573d6000803e3d6000fd5b505050506040513d6000823e3d601f19601f820116820180604052508101906106f19190612036565b9050919050565b6060600360009054906101000a900473ffffffffffffffffffffffffffffffffffffffff1673ffffffffffffffffffffffffffffffffffffffff16636627cbd6836040518263ffffffff1660e01b81526004016107559190611350565b600060405180830381865afa158015610772573d6000803e3d6000fd5b505050506040513d6000823e3d601f19601f8201168201806040525081019061079b9190612036565b9050919050565b600360009054906101000a900473ffffffffffffffffffffffffffffffffffffffff1673ffffffffffffffffffffffffffffffffffffffff1663906eb21c8383336040518463ffffffff1660e01b81526004016108019392919061207f565b600060405180830381600087803b15801561081b57600080fd5b505af115801561082f573d6000803e3d6000fd5b505050505050565b6060600160009054906101000a900473ffffffffffffffffffffffffffffffffffffffff1673ffffffffffffffffffffffffffffffffffffffff166377c82cc9836040518263ffffffff1660e01b81526004016108949190611db5565b600060405180830381865afa1580156108b1573d6000803e3d6000fd5b505050506040513d6000823e3d601f19601f820116820180604052508101906108da91906121e7565b9050919050565b6060600260009054906101000a900473ffffffffffffffffffffffffffffffffffffffff1673ffffffffffffffffffffffffffffffffffffffff16637b7e76b8836040518263ffffffff1660e01b815260040161093e9190611db5565b600060405180830381865afa15801561095b573d6000803e3d6000fd5b505050506040513d6000823e3d601f19601f82011682018060405250810190610984919061240e565b9050919050565b6000600260009054906101000a900473ffffffffffffffffffffffffffffffffffffffff1673ffffffffffffffffffffffffffffffffffffffff1663951b3de86040518163ffffffff1660e01b8152600401602060405180830381865afa1580156109fa573d6000803e3d6000fd5b505050506040513d601f19601f82011682018060405250810190610a1e9190611ef6565b905090565b6060600360009054906101000a900473ffffffffffffffffffffffffffffffffffffffff1673ffffffffffffffffffffffffffffffffffffffff1663ae87ca7c836040518263ffffffff1660e01b8152600401610a809190611db5565b600060405180830381865afa158015610a9d573d6000803e3d6000fd5b505050506040513d6000823e3d601f19601f82011682018060405250810190610ac691906125f4565b9050919050565b6000600160009054906101000a900473ffffffffffffffffffffffffffffffffffffffff1673ffffffffffffffffffffffffffffffffffffffff1663b5387dc5836040518263ffffffff1660e01b8152600401610b2a9190611db5565b602060405180830381865afa158015610b47573d6000803e3d6000fd5b505050506040513d601f19601f82011682018060405250810190610b6b9190611ef6565b9050919050565b60008060009054906101000a900473ffffffffffffffffffffffffffffffffffffffff1673ffffffffffffffffffffffffffffffffffffffff1663cb8ab15b836040518263ffffffff1660e01b8152600401610bce9190611db5565b602060405180830381865afa158015610beb573d6000803e3d6000fd5b505050506040513d601f19601f82011682018060405250810190610c0f9190611ef6565b9050919050565b610c1e61111c565b600260009054906101000a900473ffffffffffffffffffffffffffffffffffffffff1673ffffffffffffffffffffffffffffffffffffffff1663ced8d530836040518263ffffffff1660e01b8152600401610c799190611350565b600060405180830381865afa158015610c96573d6000803e3d6000fd5b505050506040513d6000823e3d601f19601f82011682018060405250810190610cbf919061263d565b9050919050565b600260009054906101000a900473ffffffffffffffffffffffffffffffffffffffff1673ffffffffffffffffffffffffffffffffffffffff16630aeadded848484336040518563ffffffff1660e01b8152600401610d279493929190612686565b600060405180830381600087803b158015610d4157600080fd5b505af1158015610d55573d6000803e3d6000fd5b50505050505050565b610d6661116a565b600360009054906101000a900473ffffffffffffffffffffffffffffffffffffffff1673ffffffffffffffffffffffffffffffffffffffff1663da02c9de836040518263ffffffff1660e01b8152600401610dc19190611350565b600060405180830381865afa158015610dde573d6000803e3d6000fd5b505050506040513d6000823e3d601f19601f82011682018060405250810190610e0791906126cb565b9050919050565b60008054906101000a900473ffffffffffffffffffffffffffffffffffffffff1673ffffffffffffffffffffffffffffffffffffffff1663e204545283836040518363ffffffff1660e01b8152600401610e69929190612714565b600060405180830381600087803b158015610e8357600080fd5b505af1158015610e97573d6000803e3d6000fd5b505050505050565b600360009054906101000a900473ffffffffffffffffffffffffffffffffffffffff1673ffffffffffffffffffffffffffffffffffffffff16634cb3a345848484336040518563ffffffff1660e01b8152600401610f009493929190612686565b600060405180830381600087803b158015610f1a57600080fd5b505af1158015610f2e573d6000803e3d6000fd5b50505050505050565b606060008054906101000a900473ffffffffffffffffffffffffffffffffffffffff1673ffffffffffffffffffffffffffffffffffffffff1663ebe0b877836040518263ffffffff1660e01b8152600401610f929190611db5565b600060405180830381865afa158015610faf573d6000803e3d6000fd5b505050506040513d6000823e3d601f19601f82011682018060405250810190610fd89190611ead565b9050919050565b606060008054906101000a900473ffffffffffffffffffffffffffffffffffffffff1673ffffffffffffffffffffffffffffffffffffffff1663ce43c032836040518263ffffffff1660e01b815260040161103a9190611db5565b600060405180830381865afa158015611057573d6000803e3d6000fd5b505050506040513d6000823e3d601f19601f8201168201806040525081019061108091906127b4565b9050919050565b600260009054906101000a900473ffffffffffffffffffffffffffffffffffffffff1673ffffffffffffffffffffffffffffffffffffffff1663bca73eb28383336040518463ffffffff1660e01b81526004016110e69392919061207f565b600060405180830381600087803b15801561110057600080fd5b505af1158015611114573d6000803e3d6000fd5b505050505050565b6040518060c001604052806000815260200160008152602001600073ffffffffffffffffffffffffffffffffffffffff16815260200160001515815260200160008152602001606081525090565b6040518060c001604052806000815260200160008152602001600073ffffffffffffffffffffffffffffffffffffffff16815260200160001515815260200160008152602001606081525090565b6000604051905090565b600080fd5b600080fd5b600073ffffffffffffffffffffffffffffffffffffffff82169050919050565b60006111f7826111cc565b9050919050565b611207816111ec565b811461121257600080fd5b50565b600081359050611224816111fe565b92915050565b6000602082840312156112405761123f6111c2565b5b600061124e84828501611215565b91505092915050565b600081519050919050565b600082825260208201905092915050565b6000819050602082019050919050565b6000819050919050565b61129681611283565b82525050565b60006112a8838361128d565b60208301905092915050565b6000602082019050919050565b60006112cc82611257565b6112d68185611262565b93506112e183611273565b8060005b838110156113125781516112f9888261129c565b9750611304836112b4565b9250506001810190506112e5565b5085935050505092915050565b6000602082019050818103600083015261133981846112c1565b905092915050565b61134a81611283565b82525050565b60006020820190506113656000830184611341565b92915050565b61137481611283565b811461137f57600080fd5b50565b6000813590506113918161136b565b92915050565b6000602082840312156113ad576113ac6111c2565b5b60006113bb84828501611382565b91505092915050565b600081519050919050565b600082825260208201905092915050565b6000819050602082019050919050565b6000819050919050565b600061141561141061140b846111cc565b6113f0565b6111cc565b9050919050565b6000611427826113fa565b9050919050565b60006114398261141c565b9050919050565b6114498161142e565b82525050565b600061145b8383611440565b60208301905092915050565b6000602082019050919050565b600061147f826113c4565b61148981856113cf565b9350611494836113e0565b8060005b838110156114c55781516114ac888261144f565b97506114b783611467565b925050600181019050611498565b5085935050505092915050565b600060208201905081810360008301526114ec8184611474565b905092915050565b6000806040838503121561150b5761150a6111c2565b5b600061151985828601611382565b925050602061152a85828601611382565b9150509250929050565b600081519050919050565b600082825260208201905092915050565b6000819050602082019050919050565b606082016000820151611576600085018261128d565b506020820151611589602085018261128d565b50604082015161159c604085018261128d565b50505050565b60006115ae8383611560565b60608301905092915050565b6000602082019050919050565b60006115d282611534565b6115dc818561153f565b93506115e783611550565b8060005b838110156116185781516115ff88826115a2565b975061160a836115ba565b9250506001810190506115eb565b5085935050505092915050565b6000602082019050818103600083015261163f81846115c7565b905092915050565b600081519050919050565b600082825260208201905092915050565b6000819050602082019050919050565b61167c816111ec565b82525050565b60008115159050919050565b61169781611682565b82525050565b600082825260208201905092915050565b60006116b9826113c4565b6116c3818561169d565b93506116ce836113e0565b8060005b838110156116ff5781516116e6888261144f565b97506116f183611467565b9250506001810190506116d2565b5085935050505092915050565b600060c083016000830151611724600086018261128d565b506020830151611737602086018261128d565b50604083015161174a6040860182611673565b50606083015161175d606086018261168e565b506080830151611770608086018261128d565b5060a083015184820360a086015261178882826116ae565b9150508091505092915050565b60006117a1838361170c565b905092915050565b6000602082019050919050565b60006117c182611647565b6117cb8185611652565b9350836020820285016117dd85611663565b8060005b8581101561181957848403895281516117fa8582611795565b9450611805836117a9565b925060208a019950506001810190506117e1565b50829750879550505050505092915050565b6000602082019050818103600083015261184581846117b6565b905092915050565b600081519050919050565b600082825260208201905092915050565b6000819050602082019050919050565b600060c083016000830151611891600086018261128d565b5060208301516118a4602086018261128d565b5060408301516118b76040860182611673565b5060608301516118ca606086018261168e565b5060808301516118dd608086018261128d565b5060a083015184820360a08601526118f582826116ae565b9150508091505092915050565b600061190e8383611879565b905092915050565b6000602082019050919050565b600061192e8261184d565b6119388185611858565b93508360208202850161194a85611869565b8060005b8581101561198657848403895281516119678582611902565b945061197283611916565b925060208a0199505060018101905061194e565b50829750879550505050505092915050565b600060208201905081810360008301526119b28184611923565b905092915050565b600060c0830160008301516119d2600086018261128d565b5060208301516119e5602086018261128d565b5060408301516119f86040860182611673565b506060830151611a0b606086018261168e565b506080830151611a1e608086018261128d565b5060a083015184820360a0860152611a3682826116ae565b9150508091505092915050565b60006020820190508181036000830152611a5d81846119ba565b905092915050565b600080600060608486031215611a7e57611a7d6111c2565b5b6000611a8c86828701611382565b9350506020611a9d86828701611382565b9250506040611aae86828701611382565b9150509250925092565b600060c083016000830151611ad0600086018261128d565b506020830151611ae3602086018261128d565b506040830151611af66040860182611673565b506060830151611b09606086018261168e565b506080830151611b1c608086018261128d565b5060a083015184820360a0860152611b3482826116ae565b9150508091505092915050565b60006020820190508181036000830152611b5b8184611ab8565b905092915050565b600080fd5b600080fd5b6000601f19601f8301169050919050565b7f4e487b7100000000000000000000000000000000000000000000000000000000600052604160045260246000fd5b611bb682611b6d565b810181811067ffffffffffffffff82111715611bd557611bd4611b7e565b5b80604052505050565b6000611be86111b8565b9050611bf48282611bad565b919050565b600067ffffffffffffffff821115611c1457611c13611b7e565b5b611c1d82611b6d565b9050602081019050919050565b82818337600083830152505050565b6000611c4c611c4784611bf9565b611bde565b905082815260208101848484011115611c6857611c67611b68565b5b611c73848285611c2a565b509392505050565b600082601f830112611c9057611c8f611b63565b5b8135611ca0848260208601611c39565b91505092915050565b60008060408385031215611cc057611cbf6111c2565b5b6000611cce85828601611215565b925050602083013567ffffffffffffffff811115611cef57611cee6111c7565b5b611cfb85828601611c7b565b9150509250929050565b600081519050919050565b600082825260208201905092915050565b60005b83811015611d3f578082015181840152602081019050611d24565b60008484015250505050565b6000611d5682611d05565b611d608185611d10565b9350611d70818560208601611d21565b611d7981611b6d565b840191505092915050565b60006020820190508181036000830152611d9e8184611d4b565b905092915050565b611daf816111ec565b82525050565b6000602082019050611dca6000830184611da6565b92915050565b600067ffffffffffffffff821115611deb57611dea611b7e565b5b602082029050602081019050919050565b600080fd5b600081519050611e108161136b565b92915050565b6000611e29611e2484611dd0565b611bde565b90508083825260208201905060208402830185811115611e4c57611e4b611dfc565b5b835b81811015611e755780611e618882611e01565b845260208401935050602081019050611e4e565b5050509392505050565b600082601f830112611e9457611e93611b63565b5b8151611ea4848260208601611e16565b91505092915050565b600060208284031215611ec357611ec26111c2565b5b600082015167ffffffffffffffff811115611ee157611ee06111c7565b5b611eed84828501611e7f565b91505092915050565b600060208284031215611f0c57611f0b6111c2565b5b6000611f1a84828501611e01565b91505092915050565b600067ffffffffffffffff821115611f3e57611f3d611b7e565b5b602082029050602081019050919050565b6000611f5a826111cc565b9050919050565b6000611f6c82611f4f565b9050919050565b611f7c81611f61565b8114611f8757600080fd5b50565b600081519050611f9981611f73565b92915050565b6000611fb2611fad84611f23565b611bde565b90508083825260208201905060208402830185811115611fd557611fd4611dfc565b5b835b81811015611ffe5780611fea8882611f8a565b845260208401935050602081019050611fd7565b5050509392505050565b600082601f83011261201d5761201c611b63565b5b815161202d848260208601611f9f565b91505092915050565b60006020828403121561204c5761204b6111c2565b5b600082015167ffffffffffffffff81111561206a576120696111c7565b5b61207684828501612008565b91505092915050565b60006060820190506120946000830186611341565b6120a16020830185611341565b6120ae6040830184611da6565b949350505050565b600067ffffffffffffffff8211156120d1576120d0611b7e565b5b602082029050602081019050919050565b600080fd5b600080fd5b600060608284031215612102576121016120e2565b5b61210c6060611bde565b9050600061211c84828501611e01565b600083015250602061213084828501611e01565b602083015250604061214484828501611e01565b60408301525092915050565b600061216361215e846120b6565b611bde565b9050808382526020820190506060840283018581111561218657612185611dfc565b5b835b818110156121af578061219b88826120ec565b845260208401935050606081019050612188565b5050509392505050565b600082601f8301126121ce576121cd611b63565b5b81516121de848260208601612150565b91505092915050565b6000602082840312156121fd576121fc6111c2565b5b600082015167ffffffffffffffff81111561221b5761221a6111c7565b5b612227848285016121b9565b91505092915050565b600067ffffffffffffffff82111561224b5761224a611b7e565b5b602082029050602081019050919050565b60008151905061226b816111fe565b92915050565b61227a81611682565b811461228557600080fd5b50565b60008151905061229781612271565b92915050565b600060c082840312156122b3576122b26120e2565b5b6122bd60c0611bde565b905060006122cd84828501611e01565b60008301525060206122e184828501611e01565b60208301525060406122f58482850161225c565b604083015250606061230984828501612288565b606083015250608061231d84828501611e01565b60808301525060a082015167ffffffffffffffff811115612341576123406120e7565b5b61234d84828501612008565b60a08301525092915050565b600061236c61236784612230565b611bde565b9050808382526020820190506020840283018581111561238f5761238e611dfc565b5b835b818110156123d657805167ffffffffffffffff8111156123b4576123b3611b63565b5b8086016123c1898261229d565b85526020850194505050602081019050612391565b5050509392505050565b600082601f8301126123f5576123f4611b63565b5b8151612405848260208601612359565b91505092915050565b600060208284031215612424576124236111c2565b5b600082015167ffffffffffffffff811115612442576124416111c7565b5b61244e848285016123e0565b91505092915050565b600067ffffffffffffffff82111561247257612471611b7e565b5b602082029050602081019050919050565b600060c08284031215612499576124986120e2565b5b6124a360c0611bde565b905060006124b384828501611e01565b60008301525060206124c784828501611e01565b60208301525060406124db8482850161225c565b60408301525060606124ef84828501612288565b606083015250608061250384828501611e01565b60808301525060a082015167ffffffffffffffff811115612527576125266120e7565b5b61253384828501612008565b60a08301525092915050565b600061255261254d84612457565b611bde565b9050808382526020820190506020840283018581111561257557612574611dfc565b5b835b818110156125bc57805167ffffffffffffffff81111561259a57612599611b63565b5b8086016125a78982612483565b85526020850194505050602081019050612577565b5050509392505050565b600082601f8301126125db576125da611b63565b5b81516125eb84826020860161253f565b91505092915050565b60006020828403121561260a576126096111c2565b5b600082015167ffffffffffffffff811115612628576126276111c7565b5b612634848285016125c6565b91505092915050565b600060208284031215612653576126526111c2565b5b600082015167ffffffffffffffff811115612671576126706111c7565b5b61267d8482850161229d565b91505092915050565b600060808201905061269b6000830187611341565b6126a86020830186611341565b6126b56040830185611341565b6126c26060830184611da6565b95945050505050565b6000602082840312156126e1576126e06111c2565b5b600082015167ffffffffffffffff8111156126ff576126fe6111c7565b5b61270b84828501612483565b91505092915050565b60006040820190506127296000830185611da6565b818103602083015261273b8184611d4b565b90509392505050565b600061275761275284611bf9565b611bde565b90508281526020810184848401111561277357612772611b68565b5b61277e848285611d21565b509392505050565b600082601f83011261279b5761279a611b63565b5b81516127ab848260208601612744565b91505092915050565b6000602082840312156127ca576127c96111c2565b5b600082015167ffffffffffffffff8111156127e8576127e76111c7565b5b6127f484828501612786565b9150509291505056fea26469706673582212201d33e1e403cdc8ccb9aa69d514c9bc56870879ae965324dd2d82da28ff01bf6464736f6c6343000811003360806040523480156200001157600080fd5b50604051620014993803806200149983398181016040528101906200003791906200014a565b80600160006101000a81548173ffffffffffffffffffffffffffffffffffffffff021916908373ffffffffffffffffffffffffffffffffffffffff160217905550600073ab8483f64d9c6d1ecf9b849ae677dd3315835cb2905060646000808373ffffffffffffffffffffffffffffffffffffffff1673ffffffffffffffffffffffffffffffffffffffff1681526020019081526020016000206001018190555050506200017c565b600080fd5b600073ffffffffffffffffffffffffffffffffffffffff82169050919050565b60006200011282620000e5565b9050919050565b620001248162000105565b81146200013057600080fd5b50565b600081519050620001448162000119565b92915050565b600060208284031215620001635762000162620000e0565b5b6000620001738482850162000133565b91505092915050565b61130d806200018c6000396000f3fe608060405234801561001057600080fd5b50600436106100935760003560e01c8063ce43c03211610066578063ce43c03214610130578063e204545214610160578063e26709711461017c578063ebe0b87714610198578063f03b5e9d146101c857610093565b80631d036d7d14610098578063317d7268146100c8578063c331d842146100e4578063cb8ab15b14610100575b600080fd5b6100b260048036038101906100ad91906109a7565b6101e4565b6040516100bf9190610a9c565b60405180910390f35b6100e260048036038101906100dd9190610abe565b61027d565b005b6100fe60048036038101906100f99190610b2a565b610393565b005b61011a600480360381019061011591906109a7565b61048f565b6040516101279190610b79565b60405180910390f35b61014a600480360381019061014591906109a7565b6104da565b6040516101579190610c24565b60405180910390f35b61017a60048036038101906101759190610d7b565b6105ad565b005b61019660048036038101906101919190610b2a565b61066e565b005b6101b260048036038101906101ad91906109a7565b6107a0565b6040516101bf9190610a9c565b60405180910390f35b6101e260048036038101906101dd9190610b2a565b610839565b005b60606000808373ffffffffffffffffffffffffffffffffffffffff1673ffffffffffffffffffffffffffffffffffffffff16815260200190815260200160002060030180548060200260200160405190810160405280929190818152602001828054801561027157602002820191906000526020600020905b81548152602001906001019080831161025d575b50505050509050919050565b600160009054906101000a900473ffffffffffffffffffffffffffffffffffffffff1673ffffffffffffffffffffffffffffffffffffffff163373ffffffffffffffffffffffffffffffffffffffff161461030d576040517f08c379a000000000000000000000000000000000000000000000000000000000815260040161030490610e49565b60405180910390fd5b81600260006101000a81548173ffffffffffffffffffffffffffffffffffffffff021916908373ffffffffffffffffffffffffffffffffffffffff16021790555080600360006101000a81548173ffffffffffffffffffffffffffffffffffffffff021916908373ffffffffffffffffffffffffffffffffffffffff1602179055505050565b600360009054906101000a900473ffffffffffffffffffffffffffffffffffffffff1673ffffffffffffffffffffffffffffffffffffffff163373ffffffffffffffffffffffffffffffffffffffff1614610423576040517f08c379a000000000000000000000000000000000000000000000000000000000815260040161041a90610eb5565b60405180910390fd5b6000808373ffffffffffffffffffffffffffffffffffffffff1673ffffffffffffffffffffffffffffffffffffffff1681526020019081526020016000206003018190806001815401808255809150506001900390600052602060002001600090919091909150555050565b60008060008373ffffffffffffffffffffffffffffffffffffffff1673ffffffffffffffffffffffffffffffffffffffff168152602001908152602001600020600101549050919050565b60606000808373ffffffffffffffffffffffffffffffffffffffff1673ffffffffffffffffffffffffffffffffffffffff168152602001908152602001600020600001805461052890610f04565b80601f016020809104026020016040519081016040528092919081815260200182805461055490610f04565b80156105a15780601f10610576576101008083540402835291602001916105a1565b820191906000526020600020905b81548152906001019060200180831161058457829003601f168201915b50505050509050919050565b8173ffffffffffffffffffffffffffffffffffffffff163273ffffffffffffffffffffffffffffffffffffffff161461061b576040517f08c379a000000000000000000000000000000000000000000000000000000000815260040161061290610fa7565b60405180910390fd5b806000808473ffffffffffffffffffffffffffffffffffffffff1673ffffffffffffffffffffffffffffffffffffffff16815260200190815260200160002060000190816106699190611173565b505050565b600260009054906101000a900473ffffffffffffffffffffffffffffffffffffffff1673ffffffffffffffffffffffffffffffffffffffff163373ffffffffffffffffffffffffffffffffffffffff1614806107175750600360009054906101000a900473ffffffffffffffffffffffffffffffffffffffff1673ffffffffffffffffffffffffffffffffffffffff163373ffffffffffffffffffffffffffffffffffffffff16145b610756576040517f08c379a000000000000000000000000000000000000000000000000000000000815260040161074d906112b7565b60405180910390fd5b806000808473ffffffffffffffffffffffffffffffffffffffff1673ffffffffffffffffffffffffffffffffffffffff168152602001908152602001600020600101819055505050565b60606000808373ffffffffffffffffffffffffffffffffffffffff1673ffffffffffffffffffffffffffffffffffffffff16815260200190815260200160002060020180548060200260200160405190810160405280929190818152602001828054801561082d57602002820191906000526020600020905b815481526020019060010190808311610819575b50505050509050919050565b600260009054906101000a900473ffffffffffffffffffffffffffffffffffffffff1673ffffffffffffffffffffffffffffffffffffffff163373ffffffffffffffffffffffffffffffffffffffff16146108c9576040517f08c379a00000000000000000000000000000000000000000000000000000000081526004016108c090610eb5565b60405180910390fd5b6000808373ffffffffffffffffffffffffffffffffffffffff1673ffffffffffffffffffffffffffffffffffffffff1681526020019081526020016000206002018190806001815401808255809150506001900390600052602060002001600090919091909150555050565b6000604051905090565b600080fd5b600080fd5b600073ffffffffffffffffffffffffffffffffffffffff82169050919050565b600061097482610949565b9050919050565b61098481610969565b811461098f57600080fd5b50565b6000813590506109a18161097b565b92915050565b6000602082840312156109bd576109bc61093f565b5b60006109cb84828501610992565b91505092915050565b600081519050919050565b600082825260208201905092915050565b6000819050602082019050919050565b6000819050919050565b610a1381610a00565b82525050565b6000610a258383610a0a565b60208301905092915050565b6000602082019050919050565b6000610a49826109d4565b610a5381856109df565b9350610a5e836109f0565b8060005b83811015610a8f578151610a768882610a19565b9750610a8183610a31565b925050600181019050610a62565b5085935050505092915050565b60006020820190508181036000830152610ab68184610a3e565b905092915050565b60008060408385031215610ad557610ad461093f565b5b6000610ae385828601610992565b9250506020610af485828601610992565b9150509250929050565b610b0781610a00565b8114610b1257600080fd5b50565b600081359050610b2481610afe565b92915050565b60008060408385031215610b4157610b4061093f565b5b6000610b4f85828601610992565b9250506020610b6085828601610b15565b9150509250929050565b610b7381610a00565b82525050565b6000602082019050610b8e6000830184610b6a565b92915050565b600081519050919050565b600082825260208201905092915050565b60005b83811015610bce578082015181840152602081019050610bb3565b60008484015250505050565b6000601f19601f8301169050919050565b6000610bf682610b94565b610c008185610b9f565b9350610c10818560208601610bb0565b610c1981610bda565b840191505092915050565b60006020820190508181036000830152610c3e8184610beb565b905092915050565b600080fd5b600080fd5b7f4e487b7100000000000000000000000000000000000000000000000000000000600052604160045260246000fd5b610c8882610bda565b810181811067ffffffffffffffff82111715610ca757610ca6610c50565b5b80604052505050565b6000610cba610935565b9050610cc68282610c7f565b919050565b600067ffffffffffffffff821115610ce657610ce5610c50565b5b610cef82610bda565b9050602081019050919050565b82818337600083830152505050565b6000610d1e610d1984610ccb565b610cb0565b905082815260208101848484011115610d3a57610d39610c4b565b5b610d45848285610cfc565b509392505050565b600082601f830112610d6257610d61610c46565b5b8135610d72848260208601610d0b565b91505092915050565b60008060408385031215610d9257610d9161093f565b5b6000610da085828601610992565b925050602083013567ffffffffffffffff811115610dc157610dc0610944565b5b610dcd85828601610d4d565b9150509250929050565b7f696e7465726e616c20696e697469616c697a6174696f6e2066756e6374696f6e60008201527f2c206163636573732064656e6965640000000000000000000000000000000000602082015250565b6000610e33602f83610b9f565b9150610e3e82610dd7565b604082019050919050565b60006020820190508181036000830152610e6281610e26565b9050919050565b7f6163636573732064656e69656400000000000000000000000000000000000000600082015250565b6000610e9f600d83610b9f565b9150610eaa82610e69565b602082019050919050565b60006020820190508181036000830152610ece81610e92565b9050919050565b7f4e487b7100000000000000000000000000000000000000000000000000000000600052602260045260246000fd5b60006002820490506001821680610f1c57607f821691505b602082108103610f2f57610f2e610ed5565b5b50919050565b7f596f752063616e6e6f74206368616e6765206f7468657220757365722773206960008201527f6e666f726d6174696f6e00000000000000000000000000000000000000000000602082015250565b6000610f91602a83610b9f565b9150610f9c82610f35565b604082019050919050565b60006020820190508181036000830152610fc081610f84565b9050919050565b60008190508160005260206000209050919050565b60006020601f8301049050919050565b600082821b905092915050565b6000600883026110297fffffffffffffffffffffffffffffffffffffffffffffffffffffffffffffffff82610fec565b6110338683610fec565b95508019841693508086168417925050509392505050565b6000819050919050565b600061107061106b61106684610a00565b61104b565b610a00565b9050919050565b6000819050919050565b61108a83611055565b61109e61109682611077565b848454610ff9565b825550505050565b600090565b6110b36110a6565b6110be818484611081565b505050565b5b818110156110e2576110d76000826110ab565b6001810190506110c4565b5050565b601f821115611127576110f881610fc7565b61110184610fdc565b81016020851015611110578190505b61112461111c85610fdc565b8301826110c3565b50505b505050565b600082821c905092915050565b600061114a6000198460080261112c565b1980831691505092915050565b60006111638383611139565b9150826002028217905092915050565b61117c82610b94565b67ffffffffffffffff81111561119557611194610c50565b5b61119f8254610f04565b6111aa8282856110e6565b600060209050601f8311600181146111dd57600084156111cb578287015190505b6111d58582611157565b86555061123d565b601f1984166111eb86610fc7565b60005b82811015611213578489015182556001820191506020850194506020810190506111ee565b86831015611230578489015161122c601f891682611139565b8355505b6001600288020188555050505b505050505050565b7f616363657373207265737472696374656420746f2062757965722f73656c6c6560008201527f7220736572766963652c206163636573732064656e6965640000000000000000602082015250565b60006112a1603883610b9f565b91506112ac82611245565b604082019050919050565b600060208201905081810360008301526112d081611294565b905091905056fea264697066735822122032d4e0450175f1d5300ace2177e83779e19f8057c12694a12e6ec4ae7378639164736f6c63430008110033608060405234801561001057600080fd5b50610e48806100206000396000f3fe608060405234801561001057600080fd5b50600436106100935760003560e01c806377c82cc91161006657806377c82cc91461011c5780638b5ccc6e1461014c578063b5387dc51461017e578063e6b02333146101ae578063e8b8530f146101ca57610093565b80631e7ba9cd146100985780632f0a323e146100b457806333bdb8f9146100d05780633f9b696c14610100575b600080fd5b6100b260048036038101906100ad9190610a69565b6101e6565b005b6100ce60048036038101906100c99190610a69565b6102aa565b005b6100ea60048036038101906100e59190610abc565b61036e565b6040516100f79190610af8565b60405180910390f35b61011a60048036038101906101159190610b13565b6103b9565b005b61013660048036038101906101319190610abc565b610415565b6040516101439190610c53565b60405180910390f35b61016660048036038101906101619190610abc565b61076b565b60405161017593929190610c75565b60405180910390f35b61019860048036038101906101939190610abc565b610795565b6040516101a59190610af8565b60405180910390f35b6101c860048036038101906101c39190610a69565b6107e0565b005b6101e460048036038101906101df9190610b13565b610937565b005b806000808573ffffffffffffffffffffffffffffffffffffffff1673ffffffffffffffffffffffffffffffffffffffff1681526020019081526020016000206005016000848152602001908152602001600020819055506000808473ffffffffffffffffffffffffffffffffffffffff1673ffffffffffffffffffffffffffffffffffffffff168152602001908152602001600020600601829080600181540180825580915050600190039060005260206000200160009091909190915055505050565b806000808573ffffffffffffffffffffffffffffffffffffffff1673ffffffffffffffffffffffffffffffffffffffff1681526020019081526020016000206003016000848152602001908152602001600020819055506000808473ffffffffffffffffffffffffffffffffffffffff1673ffffffffffffffffffffffffffffffffffffffff168152602001908152602001600020600401829080600181540180825580915050600190039060005260206000200160009091909190915055505050565b60008060008373ffffffffffffffffffffffffffffffffffffffff1673ffffffffffffffffffffffffffffffffffffffff168152602001908152602001600020600101549050919050565b806000808473ffffffffffffffffffffffffffffffffffffffff1673ffffffffffffffffffffffffffffffffffffffff168152602001908152602001600020600001600082825461040a9190610cdb565b925050819055505050565b606060008060008473ffffffffffffffffffffffffffffffffffffffff1673ffffffffffffffffffffffffffffffffffffffff168152602001908152602001600020600201549050600080821115610477576001826104749190610d0f565b90505b600061048483600a610993565b67ffffffffffffffff81111561049d5761049c610d43565b5b6040519080825280602002602001820160405280156104d657816020015b6104c36109af565b8152602001906001900390816104bb5790505b50905060005b6104e784600a610993565b81101561075f576000808773ffffffffffffffffffffffffffffffffffffffff1673ffffffffffffffffffffffffffffffffffffffff16815260200190815260200160002060070160008481526020019081526020016000206001015482828151811061055757610556610d72565b5b602002602001015160000181815250506000808773ffffffffffffffffffffffffffffffffffffffff1673ffffffffffffffffffffffffffffffffffffffff1681526020019081526020016000206007016000848152602001908152602001600020600001548282815181106105d0576105cf610d72565b5b6020026020010151602001818152505060008282815181106105f5576105f4610d72565b5b6020026020010151602001510361069f576000808773ffffffffffffffffffffffffffffffffffffffff1673ffffffffffffffffffffffffffffffffffffffff168152602001908152602001600020600301600083838151811061065c5761065b610d72565b5b60200260200101516000015181526020019081526020016000205482828151811061068a57610689610d72565b5b60200260200101516040018181525050610734565b6000808773ffffffffffffffffffffffffffffffffffffffff1673ffffffffffffffffffffffffffffffffffffffff16815260200190815260200160002060050160008383815181106106f5576106f4610d72565b5b60200260200101516000015181526020019081526020016000205482828151811061072357610722610d72565b5b602002602001015160400181815250505b600083111561074c57828061074890610da1565b9350505b808061075790610dca565b9150506104dc565b50809350505050919050565b60006020528060005260406000206000915090508060000154908060010154908060020154905083565b60008060008373ffffffffffffffffffffffffffffffffffffffff1673ffffffffffffffffffffffffffffffffffffffff168152602001908152602001600020600001549050919050565b60008060008573ffffffffffffffffffffffffffffffffffffffff1673ffffffffffffffffffffffffffffffffffffffff168152602001908152602001600020600201549050826000808673ffffffffffffffffffffffffffffffffffffffff1673ffffffffffffffffffffffffffffffffffffffff168152602001908152602001600020600701600083815260200190815260200160002060000181905550816000808673ffffffffffffffffffffffffffffffffffffffff1673ffffffffffffffffffffffffffffffffffffffff1681526020019081526020016000206007016000838152602001908152602001600020600101819055506000808573ffffffffffffffffffffffffffffffffffffffff1673ffffffffffffffffffffffffffffffffffffffff168152602001908152602001600020600201600081548092919061092c90610dca565b919050555050505050565b806000808473ffffffffffffffffffffffffffffffffffffffff1673ffffffffffffffffffffffffffffffffffffffff16815260200190815260200160002060010160008282546109889190610cdb565b925050819055505050565b6000818310156109a5578290506109a9565b8190505b92915050565b60405180606001604052806000815260200160008152602001600081525090565b600080fd5b600073ffffffffffffffffffffffffffffffffffffffff82169050919050565b6000610a00826109d5565b9050919050565b610a10816109f5565b8114610a1b57600080fd5b50565b600081359050610a2d81610a07565b92915050565b6000819050919050565b610a4681610a33565b8114610a5157600080fd5b50565b600081359050610a6381610a3d565b92915050565b600080600060608486031215610a8257610a816109d0565b5b6000610a9086828701610a1e565b9350506020610aa186828701610a54565b9250506040610ab286828701610a54565b9150509250925092565b600060208284031215610ad257610ad16109d0565b5b6000610ae084828501610a1e565b91505092915050565b610af281610a33565b82525050565b6000602082019050610b0d6000830184610ae9565b92915050565b60008060408385031215610b2a57610b296109d0565b5b6000610b3885828601610a1e565b9250506020610b4985828601610a54565b9150509250929050565b600081519050919050565b600082825260208201905092915050565b6000819050602082019050919050565b610b8881610a33565b82525050565b606082016000820151610ba46000850182610b7f565b506020820151610bb76020850182610b7f565b506040820151610bca6040850182610b7f565b50505050565b6000610bdc8383610b8e565b60608301905092915050565b6000602082019050919050565b6000610c0082610b53565b610c0a8185610b5e565b9350610c1583610b6f565b8060005b83811015610c46578151610c2d8882610bd0565b9750610c3883610be8565b925050600181019050610c19565b5085935050505092915050565b60006020820190508181036000830152610c6d8184610bf5565b905092915050565b6000606082019050610c8a6000830186610ae9565b610c976020830185610ae9565b610ca46040830184610ae9565b949350505050565b7f4e487b7100000000000000000000000000000000000000000000000000000000600052601160045260246000fd5b6000610ce682610a33565b9150610cf183610a33565b9250828201905080821115610d0957610d08610cac565b5b92915050565b6000610d1a82610a33565b9150610d2583610a33565b9250828203905081811115610d3d57610d3c610cac565b5b92915050565b7f4e487b7100000000000000000000000000000000000000000000000000000000600052604160045260246000fd5b7f4e487b7100000000000000000000000000000000000000000000000000000000600052603260045260246000fd5b6000610dac82610a33565b915060008203610dbf57610dbe610cac565b5b600182039050919050565b6000610dd582610a33565b91507fffffffffffffffffffffffffffffffffffffffffffffffffffffffffffffffff8203610e0757610e06610cac565b5b60018201905091905056fea264697066735822122081f6b5f3a1aa42b4dfea410da2b4a244ed56bf68627ea95e46d9061436f079d364736f6c6343000811003360806040523480156200001157600080fd5b506040516200432b3803806200432b833981810160405281019062000037919062000184565b81600460006101000a81548173ffffffffffffffffffffffffffffffffffffffff021916908373ffffffffffffffffffffffffffffffffffffffff16021790555080600560006101000a81548173ffffffffffffffffffffffffffffffffffffffff021916908373ffffffffffffffffffffffffffffffffffffffff1602179055505050620001cb565b600080fd5b600073ffffffffffffffffffffffffffffffffffffffff82169050919050565b6000620000f382620000c6565b9050919050565b60006200010782620000e6565b9050919050565b6200011981620000fa565b81146200012557600080fd5b50565b60008151905062000139816200010e565b92915050565b60006200014c82620000e6565b9050919050565b6200015e816200013f565b81146200016a57600080fd5b50565b6000815190506200017e8162000153565b92915050565b600080604083850312156200019e576200019d620000c1565b5b6000620001ae8582860162000128565b9250506020620001c1858286016200016d565b9150509250929050565b61415080620001db6000396000f3fe608060405260043610620000865760003560e01c80637b7e76b811620000555780637b7e76b81462000163578063951b3de814620001a7578063bca73eb214620001d7578063ced8d53014620002055762000086565b80630aeadded146200008b5780633d480db514620000b95780634659d79f14620000ef578063620c503a146200011f575b600080fd5b3480156200009857600080fd5b50620000b76004803603810190620000b1919062001b68565b62000249565b005b620000d76004803603810190620000d1919062001bda565b620004da565b604051620000e6919062001cbb565b60405180910390f35b348015620000fc57600080fd5b5062000107620012d3565b60405162000116919062001cf0565b60405180910390f35b3480156200012c57600080fd5b506200014b600480360381019062000145919062001d0d565b620012d9565b6040516200015a919062001e67565b60405180910390f35b3480156200017057600080fd5b506200018f600480360381019062000189919062001e8b565b620013c5565b6040516200019e9190620020dc565b60405180910390f35b348015620001b457600080fd5b50620001bf62001679565b604051620001ce919062001cf0565b60405180910390f35b348015620001e457600080fd5b50620002036004803603810190620001fd919062002100565b62001683565b005b3480156200021257600080fd5b506200023160048036038101906200022b919062001d0d565b6200190b565b604051620002409190620021f1565b60405180910390f35b600084116200028f576040517f08c379a0000000000000000000000000000000000000000000000000000000008152600401620002869062002265565b60405180910390fd5b60008311620002d5576040517f08c379a0000000000000000000000000000000000000000000000000000000008152600401620002cc90620022d7565b60405180910390fd5b60008210156200031c576040517f08c379a0000000000000000000000000000000000000000000000000000000008152600401620003139062002349565b60405180910390fd5b60008083815260200190815260200160002060020160009054906101000a900473ffffffffffffffffffffffffffffffffffffffff1673ffffffffffffffffffffffffffffffffffffffff168173ffffffffffffffffffffffffffffffffffffffff1603620003c2576040517f08c379a0000000000000000000000000000000000000000000000000000000008152600401620003b990620023e1565b60405180910390fd5b600080600084815260200190815260200160002060040180549050905060003083878760008887604051620003f79062001a58565b62000409979695949392919062002464565b604051809103906000f08015801562000426573d6000803e3d6000fd5b50905080600080868152602001908152602001600020600401600181600181540180825580915050039060005260206000200160006101000a81548173ffffffffffffffffffffffffffffffffffffffff021916908373ffffffffffffffffffffffffffffffffffffffff1602179055507f83c1d63a3e3cd3d3a92a899ed2f341bd373a5326ebf67b9bd646543e55081ebc8382604051620004ca929190620024e1565b60405180910390a1505050505050565b6060600080600085815260200190815260200160002060040183815481106200050857620005076200250e565b5b9060005260206000200160009054906101000a900473ffffffffffffffffffffffffffffffffffffffff1690503373ffffffffffffffffffffffffffffffffffffffff168173ffffffffffffffffffffffffffffffffffffffff1614620005a6576040517f08c379a00000000000000000000000000000000000000000000000000000000081526004016200059d90620025d9565b60405180910390fd5b600042905060008273ffffffffffffffffffffffffffffffffffffffff1663d67bdd256040518163ffffffff1660e01b8152600401602060405180830381865afa158015620005f9573d6000803e3d6000fd5b505050506040513d601f19601f820116820180604052508101906200061f919062002612565b90508273ffffffffffffffffffffffffffffffffffffffff1663aa8c217c6040518163ffffffff1660e01b8152600401602060405180830381865afa1580156200066d573d6000803e3d6000fd5b505050506040513d601f19601f820116820180604052508101906200069391906200265b565b600560009054906101000a900473ffffffffffffffffffffffffffffffffffffffff1673ffffffffffffffffffffffffffffffffffffffff1663cb8ab15b836040518263ffffffff1660e01b8152600401620006f091906200268d565b602060405180830381865afa1580156200070e573d6000803e3d6000fd5b505050506040513d601f19601f820116820180604052508101906200073491906200265b565b101562000778576040517f08c379a00000000000000000000000000000000000000000000000000000000081526004016200076f9062002720565b60405180910390fd5b600560009054906101000a900473ffffffffffffffffffffffffffffffffffffffff1673ffffffffffffffffffffffffffffffffffffffff1663e2670971828573ffffffffffffffffffffffffffffffffffffffff1663aa8c217c6040518163ffffffff1660e01b8152600401602060405180830381865afa15801562000803573d6000803e3d6000fd5b505050506040513d601f19601f820116820180604052508101906200082991906200265b565b600560009054906101000a900473ffffffffffffffffffffffffffffffffffffffff1673ffffffffffffffffffffffffffffffffffffffff1663cb8ab15b866040518263ffffffff1660e01b81526004016200088691906200268d565b602060405180830381865afa158015620008a4573d6000803e3d6000fd5b505050506040513d601f19601f82011682018060405250810190620008ca91906200265b565b620008d6919062002771565b6040518363ffffffff1660e01b8152600401620008f5929190620027ac565b600060405180830381600087803b1580156200091057600080fd5b505af115801562000925573d6000803e3d6000fd5b50505050600460009054906101000a900473ffffffffffffffffffffffffffffffffffffffff1673ffffffffffffffffffffffffffffffffffffffff1663e8b8530f828573ffffffffffffffffffffffffffffffffffffffff1663aa8c217c6040518163ffffffff1660e01b8152600401602060405180830381865afa158015620009b4573d6000803e3d6000fd5b505050506040513d601f19601f82011682018060405250810190620009da91906200265b565b6040518363ffffffff1660e01b8152600401620009f9929190620027ac565b600060405180830381600087803b15801562000a1457600080fd5b505af115801562000a29573d6000803e3d6000fd5b50505050600460009054906101000a900473ffffffffffffffffffffffffffffffffffffffff1673ffffffffffffffffffffffffffffffffffffffff16631e7ba9cd82848673ffffffffffffffffffffffffffffffffffffffff1663aa8c217c6040518163ffffffff1660e01b8152600401602060405180830381865afa15801562000ab9573d6000803e3d6000fd5b505050506040513d601f19601f8201168201806040525081019062000adf91906200265b565b6040518463ffffffff1660e01b815260040162000aff93929190620027d9565b600060405180830381600087803b15801562000b1a57600080fd5b505af115801562000b2f573d6000803e3d6000fd5b50505050600460009054906101000a900473ffffffffffffffffffffffffffffffffffffffff1673ffffffffffffffffffffffffffffffffffffffff1663e6b02333826001856040518463ffffffff1660e01b815260040162000b959392919062002859565b600060405180830381600087803b15801562000bb057600080fd5b505af115801562000bc5573d6000803e3d6000fd5b50505050600080600088815260200190815260200160002060020160009054906101000a900473ffffffffffffffffffffffffffffffffffffffff169050600560009054906101000a900473ffffffffffffffffffffffffffffffffffffffff1673ffffffffffffffffffffffffffffffffffffffff1663e2670971828673ffffffffffffffffffffffffffffffffffffffff1663aa8c217c6040518163ffffffff1660e01b8152600401602060405180830381865afa15801562000c8e573d6000803e3d6000fd5b505050506040513d601f19601f8201168201806040525081019062000cb491906200265b565b600560009054906101000a900473ffffffffffffffffffffffffffffffffffffffff1673ffffffffffffffffffffffffffffffffffffffff1663cb8ab15b866040518263ffffffff1660e01b815260040162000d1191906200268d565b602060405180830381865afa15801562000d2f573d6000803e3d6000fd5b505050506040513d601f19601f8201168201806040525081019062000d5591906200265b565b62000d61919062002896565b6040518363ffffffff1660e01b815260040162000d80929190620027ac565b600060405180830381600087803b15801562000d9b57600080fd5b505af115801562000db0573d6000803e3d6000fd5b50505050600460009054906101000a900473ffffffffffffffffffffffffffffffffffffffff1673ffffffffffffffffffffffffffffffffffffffff16633f9b696c828673ffffffffffffffffffffffffffffffffffffffff1663aa8c217c6040518163ffffffff1660e01b8152600401602060405180830381865afa15801562000e3f573d6000803e3d6000fd5b505050506040513d601f19601f8201168201806040525081019062000e6591906200265b565b6040518363ffffffff1660e01b815260040162000e84929190620027ac565b600060405180830381600087803b15801562000e9f57600080fd5b505af115801562000eb4573d6000803e3d6000fd5b50505050600460009054906101000a900473ffffffffffffffffffffffffffffffffffffffff1673ffffffffffffffffffffffffffffffffffffffff16632f0a323e82858773ffffffffffffffffffffffffffffffffffffffff1663aa8c217c6040518163ffffffff1660e01b8152600401602060405180830381865afa15801562000f44573d6000803e3d6000fd5b505050506040513d601f19601f8201168201806040525081019062000f6a91906200265b565b6040518463ffffffff1660e01b815260040162000f8a93929190620027d9565b600060405180830381600087803b15801562000fa557600080fd5b505af115801562000fba573d6000803e3d6000fd5b50505050600460009054906101000a900473ffffffffffffffffffffffffffffffffffffffff1673ffffffffffffffffffffffffffffffffffffffff1663e6b02333826000866040518463ffffffff1660e01b815260040162001020939291906200290a565b600060405180830381600087803b1580156200103b57600080fd5b505af115801562001050573d6000803e3d6000fd5b505050508373ffffffffffffffffffffffffffffffffffffffff1663aa8c217c6040518163ffffffff1660e01b8152600401602060405180830381865afa158015620010a0573d6000803e3d6000fd5b505050506040513d601f19601f82011682018060405250810190620010c691906200265b565b60008089815260200190815260200160002060010154101562001120576040517f08c379a00000000000000000000000000000000000000000000000000000000081526004016200111790620029e3565b60405180910390fd5b8373ffffffffffffffffffffffffffffffffffffffff1663aa8c217c6040518163ffffffff1660e01b8152600401602060405180830381865afa1580156200116c573d6000803e3d6000fd5b505050506040513d601f19601f820116820180604052508101906200119291906200265b565b6000808981526020019081526020016000206001016000828254620011b8919062002771565b92505081905550600080600089815260200190815260200160002060010154036200120c57600080600089815260200190815260200160002060020160146101000a81548160ff0219169083151502179055505b8173ffffffffffffffffffffffffffffffffffffffff166108fc349081150290604051600060405180830381858888f1935050505015801562001253573d6000803e3d6000fd5b507faa5ef240d12945dacdcfd9ecc9a86ba7fa61f117ef9e9626465aa252e6dd5b66348886604051620012899392919062002a05565b60405180910390a16040518060400160405280600781526020017f737563636573730000000000000000000000000000000000000000000000000081525094505050505092915050565b60035481565b6060600082101562001322576040517f08c379a0000000000000000000000000000000000000000000000000000000008152600401620013199062002349565b60405180910390fd5b600080838152602001908152602001600020600401805480602002602001604051908101604052809291908181526020018280548015620013b957602002820191906000526020600020905b8160009054906101000a900473ffffffffffffffffffffffffffffffffffffffff1673ffffffffffffffffffffffffffffffffffffffff16815260200190600101908083116200136e575b50505050509050919050565b60606000600560009054906101000a900473ffffffffffffffffffffffffffffffffffffffff1673ffffffffffffffffffffffffffffffffffffffff1663ebe0b877846040518263ffffffff1660e01b81526004016200142691906200268d565b600060405180830381865afa15801562001444573d6000803e3d6000fd5b505050506040513d6000823e3d601f19601f820116820180604052508101906200146f919062002ba6565b90506000815167ffffffffffffffff81111562001491576200149062002a47565b5b604051908082528060200260200182016040528015620014ce57816020015b620014ba62001a66565b815260200190600190039081620014b05790505b50905060005b82518110156200166e57600080848381518110620014f757620014f66200250e565b5b602002602001015181526020019081526020016000206040518060c001604052908160008201548152602001600182015481526020016002820160009054906101000a900473ffffffffffffffffffffffffffffffffffffffff1673ffffffffffffffffffffffffffffffffffffffff1673ffffffffffffffffffffffffffffffffffffffff1681526020016002820160149054906101000a900460ff1615151515815260200160038201548152602001600482018054806020026020016040519081016040528092919081815260200182805480156200162e57602002820191906000526020600020905b8160009054906101000a900473ffffffffffffffffffffffffffffffffffffffff1673ffffffffffffffffffffffffffffffffffffffff1681526020019060010190808311620015e3575b5050505050815250508282815181106200164d576200164c6200250e565b5b60200260200101819052508080620016659062002bf7565b915050620014d4565b508092505050919050565b6000600354905090565b60008311620016c9576040517f08c379a0000000000000000000000000000000000000000000000000000000008152600401620016c09062002cba565b60405180910390fd5b600082116200170f576040517f08c379a0000000000000000000000000000000000000000000000000000000008152600401620017069062002d52565b60405180910390fd5b826000806003548152602001908152602001600020600001819055508160008060035481526020019081526020016000206001018190555080600080600354815260200190815260200160002060020160006101000a81548173ffffffffffffffffffffffffffffffffffffffff021916908373ffffffffffffffffffffffffffffffffffffffff1602179055506001600080600354815260200190815260200160002060020160146101000a81548160ff021916908315150217905550426000806003548152602001908152602001600020600301819055506001806000600354815260200190815260200160002060006101000a81548160ff021916908315150217905550600560009054906101000a900473ffffffffffffffffffffffffffffffffffffffff1673ffffffffffffffffffffffffffffffffffffffff1663f03b5e9d826003546040518363ffffffff1660e01b815260040162001877929190620027ac565b600060405180830381600087803b1580156200189257600080fd5b505af1158015620018a7573d6000803e3d6000fd5b505050507fb327665b1bbfd6560701e012c966f02c9abe3e3b1afa5c084bfa31ed1e701071816003548585604051620018e4949392919062002d74565b60405180910390a160036000815480929190620019019062002bf7565b9190505550505050565b6200191562001a66565b6000808381526020019081526020016000206040518060c001604052908160008201548152602001600182015481526020016002820160009054906101000a900473ffffffffffffffffffffffffffffffffffffffff1673ffffffffffffffffffffffffffffffffffffffff1673ffffffffffffffffffffffffffffffffffffffff1681526020016002820160149054906101000a900460ff16151515158152602001600382015481526020016004820180548060200260200160405190810160405280929190818152602001828054801562001a4857602002820191906000526020600020905b8160009054906101000a900473ffffffffffffffffffffffffffffffffffffffff1673ffffffffffffffffffffffffffffffffffffffff1681526020019060010190808311620019fd575b5050505050815250509050919050565b6113598062002dc283390190565b6040518060c001604052806000815260200160008152602001600073ffffffffffffffffffffffffffffffffffffffff16815260200160001515815260200160008152602001606081525090565b6000604051905090565b600080fd5b600080fd5b6000819050919050565b62001add8162001ac8565b811462001ae957600080fd5b50565b60008135905062001afd8162001ad2565b92915050565b600073ffffffffffffffffffffffffffffffffffffffff82169050919050565b600062001b308262001b03565b9050919050565b62001b428162001b23565b811462001b4e57600080fd5b50565b60008135905062001b628162001b37565b92915050565b6000806000806080858703121562001b855762001b8462001abe565b5b600062001b958782880162001aec565b945050602062001ba88782880162001aec565b935050604062001bbb8782880162001aec565b925050606062001bce8782880162001b51565b91505092959194509250565b6000806040838503121562001bf45762001bf362001abe565b5b600062001c048582860162001aec565b925050602062001c178582860162001aec565b9150509250929050565b600081519050919050565b600082825260208201905092915050565b60005b8381101562001c5d57808201518184015260208101905062001c40565b60008484015250505050565b6000601f19601f8301169050919050565b600062001c878262001c21565b62001c93818562001c2c565b935062001ca581856020860162001c3d565b62001cb08162001c69565b840191505092915050565b6000602082019050818103600083015262001cd7818462001c7a565b905092915050565b62001cea8162001ac8565b82525050565b600060208201905062001d07600083018462001cdf565b92915050565b60006020828403121562001d265762001d2562001abe565b5b600062001d368482850162001aec565b91505092915050565b600081519050919050565b600082825260208201905092915050565b6000819050602082019050919050565b6000819050919050565b600062001d9662001d9062001d8a8462001b03565b62001d6b565b62001b03565b9050919050565b600062001daa8262001d75565b9050919050565b600062001dbe8262001d9d565b9050919050565b62001dd08162001db1565b82525050565b600062001de4838362001dc5565b60208301905092915050565b6000602082019050919050565b600062001e0a8262001d3f565b62001e16818562001d4a565b935062001e238362001d5b565b8060005b8381101562001e5a57815162001e3e888262001dd6565b975062001e4b8362001df0565b92505060018101905062001e27565b5085935050505092915050565b6000602082019050818103600083015262001e83818462001dfd565b905092915050565b60006020828403121562001ea45762001ea362001abe565b5b600062001eb48482850162001b51565b91505092915050565b600081519050919050565b600082825260208201905092915050565b6000819050602082019050919050565b62001ef48162001ac8565b82525050565b62001f058162001b23565b82525050565b60008115159050919050565b62001f228162001f0b565b82525050565b600082825260208201905092915050565b600062001f468262001d3f565b62001f52818562001f28565b935062001f5f8362001d5b565b8060005b8381101562001f9657815162001f7a888262001dd6565b975062001f878362001df0565b92505060018101905062001f63565b5085935050505092915050565b600060c08301600083015162001fbd600086018262001ee9565b50602083015162001fd2602086018262001ee9565b50604083015162001fe7604086018262001efa565b50606083015162001ffc606086018262001f17565b50608083015162002011608086018262001ee9565b5060a083015184820360a08601526200202b828262001f39565b9150508091505092915050565b600062002046838362001fa3565b905092915050565b6000602082019050919050565b6000620020688262001ebd565b62002074818562001ec8565b935083602082028501620020888562001ed9565b8060005b85811015620020ca5784840389528151620020a8858262002038565b9450620020b5836200204e565b925060208a019950506001810190506200208c565b50829750879550505050505092915050565b60006020820190508181036000830152620020f881846200205b565b905092915050565b6000806000606084860312156200211c576200211b62001abe565b5b60006200212c8682870162001aec565b93505060206200213f8682870162001aec565b9250506040620021528682870162001b51565b9150509250925092565b600060c08301600083015162002176600086018262001ee9565b5060208301516200218b602086018262001ee9565b506040830151620021a0604086018262001efa565b506060830151620021b5606086018262001f17565b506080830151620021ca608086018262001ee9565b5060a083015184820360a0860152620021e4828262001f39565b9150508091505092915050565b600060208201905081810360008301526200220d81846200215c565b905092915050565b7f616d6f756e74206d7573742062652067726561746572207468616e2030000000600082015250565b60006200224d601d8362001c2c565b91506200225a8262002215565b602082019050919050565b6000602082019050818103600083015262002280816200223e565b9050919050565b7f71756f746174696f6e206d7573742062652067726561746572207468616e2030600082015250565b6000620022bf60208362001c2c565b9150620022cc8262002287565b602082019050919050565b60006020820190508181036000830152620022f281620022b0565b9050919050565b7f706f7374206b6579207374617274732066726f6d203000000000000000000000600082015250565b60006200233160168362001c2c565b91506200233e82620022f9565b602082019050919050565b60006020820190508181036000830152620023648162002322565b9050919050565b7f596f752063616e6e6f74207265706c7920746f20796f7572206f776e2070757260008201527f636861736520706f737400000000000000000000000000000000000000000000602082015250565b6000620023c9602a8362001c2c565b9150620023d6826200236b565b604082019050919050565b60006020820190508181036000830152620023fc81620023ba565b9050919050565b6200240e8162001b23565b82525050565b6000819050919050565b600060ff82169050919050565b60006200244c62002446620024408462002414565b62001d6b565b6200241e565b9050919050565b6200245e816200242b565b82525050565b600060e0820190506200247b600083018a62002403565b6200248a602083018962002403565b62002499604083018862001cdf565b620024a8606083018762001cdf565b620024b7608083018662002453565b620024c660a083018562001cdf565b620024d560c083018462001cdf565b98975050505050505050565b6000604082019050620024f8600083018562002403565b62002507602083018462002403565b9392505050565b7f4e487b7100000000000000000000000000000000000000000000000000000000600052603260045260246000fd5b7f6d6573736167652073656e6465722073686f756c64206f6e6c7920626520746860008201527f6520726573706f6e7365206d657373616765207468617420747269676765727360208201527f207061796d656e742070726f6365737300000000000000000000000000000000604082015250565b6000620025c160508362001c2c565b9150620025ce826200253d565b606082019050919050565b60006020820190508181036000830152620025f481620025b2565b9050919050565b6000815190506200260c8162001b37565b92915050565b6000602082840312156200262b576200262a62001abe565b5b60006200263b84828501620025fb565b91505092915050565b600081519050620026558162001ad2565b92915050565b60006020828403121562002674576200267362001abe565b5b6000620026848482850162002644565b91505092915050565b6000602082019050620026a4600083018462002403565b92915050565b7f496e73756666696369656e7420656c65637472696369747920756e697473206960008201527f6e206163636f756e740000000000000000000000000000000000000000000000602082015250565b60006200270860298362001c2c565b91506200271582620026aa565b604082019050919050565b600060208201905081810360008301526200273b81620026f9565b9050919050565b7f4e487b7100000000000000000000000000000000000000000000000000000000600052601160045260246000fd5b60006200277e8262001ac8565b91506200278b8362001ac8565b9250828203905081811115620027a657620027a562002742565b5b92915050565b6000604082019050620027c3600083018562002403565b620027d2602083018462001cdf565b9392505050565b6000606082019050620027f0600083018662002403565b620027ff602083018562001cdf565b6200280e604083018462001cdf565b949350505050565b6000819050919050565b6000620028416200283b620028358462002816565b62001d6b565b62001ac8565b9050919050565b620028538162002820565b82525050565b600060608201905062002870600083018662002403565b6200287f602083018562002848565b6200288e604083018462001cdf565b949350505050565b6000620028a38262001ac8565b9150620028b08362001ac8565b9250828201905080821115620028cb57620028ca62002742565b5b92915050565b6000620028f2620028ec620028e68462002414565b62001d6b565b62001ac8565b9050919050565b6200290481620028d1565b82525050565b600060608201905062002921600083018662002403565b620029306020830185620028f9565b6200293f604083018462001cdf565b949350505050565b7f5468652073616c6573207175616e746974792073686f756c64206265206c657360008201527f73207468616e206f7220657175616c20746f207468652070757263686173652060208201527f64656d616e640000000000000000000000000000000000000000000000000000604082015250565b6000620029cb60468362001c2c565b9150620029d88262002947565b606082019050919050565b60006020820190508181036000830152620029fe81620029bc565b9050919050565b600060608201905062002a1c600083018662001cdf565b62002a2b602083018562001cdf565b62002a3a604083018462002403565b949350505050565b600080fd5b7f4e487b7100000000000000000000000000000000000000000000000000000000600052604160045260246000fd5b62002a818262001c69565b810181811067ffffffffffffffff8211171562002aa35762002aa262002a47565b5b80604052505050565b600062002ab862001ab4565b905062002ac6828262002a76565b919050565b600067ffffffffffffffff82111562002ae95762002ae862002a47565b5b602082029050602081019050919050565b600080fd5b600062002b1662002b108462002acb565b62002aac565b9050808382526020820190506020840283018581111562002b3c5762002b3b62002afa565b5b835b8181101562002b69578062002b54888262002644565b84526020840193505060208101905062002b3e565b5050509392505050565b600082601f83011262002b8b5762002b8a62002a42565b5b815162002b9d84826020860162002aff565b91505092915050565b60006020828403121562002bbf5762002bbe62001abe565b5b600082015167ffffffffffffffff81111562002be05762002bdf62001ac3565b5b62002bee8482850162002b73565b91505092915050565b600062002c048262001ac8565b91507fffffffffffffffffffffffffffffffffffffffffffffffffffffffffffffffff820362002c395762002c3862002742565b5b600182019050919050565b7f7075726368617365207072696365206d7573742062652067726561746572207460008201527f68616e2030000000000000000000000000000000000000000000000000000000602082015250565b600062002ca260258362001c2c565b915062002caf8262002c44565b604082019050919050565b6000602082019050818103600083015262002cd58162002c93565b9050919050565b7f616d6f756e7420746f20627579206d757374206265206772656174657220746860008201527f616e203000000000000000000000000000000000000000000000000000000000602082015250565b600062002d3a60248362001c2c565b915062002d478262002cdc565b604082019050919050565b6000602082019050818103600083015262002d6d8162002d2b565b9050919050565b600060808201905062002d8b600083018762002403565b62002d9a602083018662001cdf565b62002da9604083018562001cdf565b62002db8606083018462001cdf565b9594505050505056fe60806040523480156200001157600080fd5b50604051620013593803806200135983398181016040528101906200003791906200021c565b86600860006101000a81548173ffffffffffffffffffffffffffffffffffffffff021916908373ffffffffffffffffffffffffffffffffffffffff160217905550856000806101000a81548173ffffffffffffffffffffffffffffffffffffffff021916908373ffffffffffffffffffffffffffffffffffffffff160217905550846001819055508360028190555082600360006101000a81548160ff021916908360ff16021790555081600481905550806005819055506000600660006101000a81548160ff0219169083151502179055506000600660016101000a81548160ff0219169083151502179055504260078190555050505050505050620002cf565b600080fd5b600073ffffffffffffffffffffffffffffffffffffffff82169050919050565b60006200016b826200013e565b9050919050565b6200017d816200015e565b81146200018957600080fd5b50565b6000815190506200019d8162000172565b92915050565b6000819050919050565b620001b881620001a3565b8114620001c457600080fd5b50565b600081519050620001d881620001ad565b92915050565b600060ff82169050919050565b620001f681620001de565b81146200020257600080fd5b50565b6000815190506200021681620001eb565b92915050565b600080600080600080600060e0888a0312156200023e576200023d62000139565b5b60006200024e8a828b016200018c565b9750506020620002618a828b016200018c565b9650506040620002748a828b01620001c7565b9550506060620002878a828b01620001c7565b94505060806200029a8a828b0162000205565b93505060a0620002ad8a828b01620001c7565b92505060c0620002c08a828b01620001c7565b91505092959891949750929550565b61107a80620002df6000396000f3fe6080604052600436106100ab5760003560e01c8063a03a202e11610064578063a03a202e14610388578063aa8c217c146103b3578063abf4d6c4146103de578063c32b9b53146103e8578063cf09e0d0146103f2578063d67bdd251461041d57610283565b806304dc4cda14610288578063209ebc08146102b35780633013aa25146102de5780633d855485146103075780633e784e63146103325780635051a5ec1461035d57610283565b3661028357600034116100f3576040517f08c379a00000000000000000000000000000000000000000000000000000000081526004016100ea906109a9565b60405180910390fd5b60011515600660009054906101000a900460ff16151514610149576040517f08c379a000000000000000000000000000000000000000000000000000000000815260040161014090610a3b565b60405180910390fd5b3460025460015461015a9190610a94565b1461019a576040517f08c379a000000000000000000000000000000000000000000000000000000000815260040161019190610b22565b60405180910390fd5b60001515600660019054906101000a900460ff161515146101f0576040517f08c379a00000000000000000000000000000000000000000000000000000000081526004016101e790610b8e565b60405180910390fd5b6000600360009054906101000a900460ff1660ff160361021757610212610448565b610281565b6001600360009054906101000a900460ff1660ff160361023e57610239610657565b610280565b600061027f576040517f08c379a000000000000000000000000000000000000000000000000000000000815260040161027690610bfa565b60405180910390fd5b5b5b005b600080fd5b34801561029457600080fd5b5061029d610866565b6040516102aa9190610c36565b60405180910390f35b3480156102bf57600080fd5b506102c8610879565b6040516102d59190610c6c565b60405180910390f35b3480156102ea57600080fd5b5061030560048036038101906103009190610cb8565b61088c565b005b34801561031357600080fd5b5061031c6108f7565b6040516103299190610cf4565b60405180910390f35b34801561033e57600080fd5b506103476108fd565b6040516103549190610cf4565b60405180910390f35b34801561036957600080fd5b50610372610903565b60405161037f9190610c6c565b60405180910390f35b34801561039457600080fd5b5061039d610916565b6040516103aa9190610cf4565b60405180910390f35b3480156103bf57600080fd5b506103c861091c565b6040516103d59190610cf4565b60405180910390f35b6103e6610448565b005b6103f0610657565b005b3480156103fe57600080fd5b50610407610922565b6040516104149190610cf4565b60405180910390f35b34801561042957600080fd5b50610432610928565b60405161043f9190610d50565b60405180910390f35b60008054906101000a900473ffffffffffffffffffffffffffffffffffffffff1673ffffffffffffffffffffffffffffffffffffffff163373ffffffffffffffffffffffffffffffffffffffff16036104d6576040517f08c379a00000000000000000000000000000000000000000000000000000000081526004016104cd90610ddd565b60405180910390fd5b6000600860009054906101000a900473ffffffffffffffffffffffffffffffffffffffff1673ffffffffffffffffffffffffffffffffffffffff1634600454600554604051602401610529929190610dfd565b6040516020818303038152906040527f3d480db5000000000000000000000000000000000000000000000000000000007bffffffffffffffffffffffffffffffffffffffffffffffffffffffff19166020820180517bffffffffffffffffffffffffffffffffffffffffffffffffffffffff83818316178352505050506040516105b39190610e97565b60006040518083038185875af1925050503d80600081146105f0576040519150601f19603f3d011682016040523d82523d6000602084013e6105f5565b606091505b5050905080610639576040517f08c379a000000000000000000000000000000000000000000000000000000000815260040161063090610efa565b60405180910390fd5b6001600660016101000a81548160ff02191690831515021790555050565b60008054906101000a900473ffffffffffffffffffffffffffffffffffffffff1673ffffffffffffffffffffffffffffffffffffffff163373ffffffffffffffffffffffffffffffffffffffff16146106e5576040517f08c379a00000000000000000000000000000000000000000000000000000000081526004016106dc90610fb2565b60405180910390fd5b6000600860009054906101000a900473ffffffffffffffffffffffffffffffffffffffff1673ffffffffffffffffffffffffffffffffffffffff1634600454600554604051602401610738929190610dfd565b6040516020818303038152906040527f0876290a000000000000000000000000000000000000000000000000000000007bffffffffffffffffffffffffffffffffffffffffffffffffffffffff19166020820180517bffffffffffffffffffffffffffffffffffffffffffffffffffffffff83818316178352505050506040516107c29190610e97565b60006040518083038185875af1925050503d80600081146107ff576040519150601f19603f3d011682016040523d82523d6000602084013e610804565b606091505b5050905080610848576040517f08c379a000000000000000000000000000000000000000000000000000000000815260040161083f90610efa565b60405180910390fd5b6001600660016101000a81548160ff02191690831515021790555050565b600360009054906101000a900460ff1681565b600660019054906101000a900460ff1681565b80600660006101000a81548160ff0219169083151502179055507f9161e5ec70df4a8ef9f6085e3435135f3da64c7ec32c271912e1ca8d4afbd7c3600360009054906101000a900460ff166004546005546040516108ec9392919061100d565b60405180910390a150565b60045481565b60055481565b600660009054906101000a900460ff1681565b60025481565b60015481565b60075481565b60008054906101000a900473ffffffffffffffffffffffffffffffffffffffff1681565b600082825260208201905092915050565b7f696e76616c6964207061796d656e740000000000000000000000000000000000600082015250565b6000610993600f8361094c565b915061099e8261095d565b602082019050919050565b600060208201905081810360008301526109c281610986565b9050919050565b7f796f757220726573706f6e736520686173206e6f74206265656e20616363657060008201527f7465642062792073656c6c657220796574000000000000000000000000000000602082015250565b6000610a2560318361094c565b9150610a30826109c9565b604082019050919050565b60006020820190508181036000830152610a5481610a18565b9050919050565b6000819050919050565b7f4e487b7100000000000000000000000000000000000000000000000000000000600052601160045260246000fd5b6000610a9f82610a5b565b9150610aaa83610a5b565b9250828202610ab881610a5b565b91508282048414831517610acf57610ace610a65565b5b5092915050565b7f4e6f742066756c6c792070616964207965740000000000000000000000000000600082015250565b6000610b0c60128361094c565b9150610b1782610ad6565b602082019050919050565b60006020820190508181036000830152610b3b81610aff565b9050919050565b7f4f7264657220697320616c726561647920706169642100000000000000000000600082015250565b6000610b7860168361094c565b9150610b8382610b42565b602082019050919050565b60006020820190508181036000830152610ba781610b6b565b9050919050565b7f696e76616c696420726573706f6e7365206d6573736167652074797065000000600082015250565b6000610be4601d8361094c565b9150610bef82610bae565b602082019050919050565b60006020820190508181036000830152610c1381610bd7565b9050919050565b600060ff82169050919050565b610c3081610c1a565b82525050565b6000602082019050610c4b6000830184610c27565b92915050565b60008115159050919050565b610c6681610c51565b82525050565b6000602082019050610c816000830184610c5d565b92915050565b600080fd5b610c9581610c51565b8114610ca057600080fd5b50565b600081359050610cb281610c8c565b92915050565b600060208284031215610cce57610ccd610c87565b5b6000610cdc84828501610ca3565b91505092915050565b610cee81610a5b565b82525050565b6000602082019050610d096000830184610ce5565b92915050565b600073ffffffffffffffffffffffffffffffffffffffff82169050919050565b6000610d3a82610d0f565b9050919050565b610d4a81610d2f565b82525050565b6000602082019050610d656000830184610d41565b92915050565b7f596f752063616e6e6f74206d616b652061207061796d656e7420746f20796f7560008201527f72206f776e2073656c6c696e6720726573706f6e7365206d6573736167650000602082015250565b6000610dc7603e8361094c565b9150610dd282610d6b565b604082019050919050565b60006020820190508181036000830152610df681610dba565b9050919050565b6000604082019050610e126000830185610ce5565b610e1f6020830184610ce5565b9392505050565b600081519050919050565b600081905092915050565b60005b83811015610e5a578082015181840152602081019050610e3f565b60008484015250505050565b6000610e7182610e26565b610e7b8185610e31565b9350610e8b818560208601610e3c565b80840191505092915050565b6000610ea38284610e66565b915081905092915050565b7f7061796d656e74206661696c6564000000000000000000000000000000000000600082015250565b6000610ee4600e8361094c565b9150610eef82610eae565b602082019050919050565b60006020820190508181036000830152610f1381610ed7565b9050919050565b7f4f6e6c7920746865206d6573736167652073656e6465722077686f2073656e7460008201527f207468697320726573706f6e736520746f206163717569726520656c6563747260208201527f696369747920756e6974732063616e206d616b652061207061796d656e740000604082015250565b6000610f9c605e8361094c565b9150610fa782610f1a565b606082019050919050565b60006020820190508181036000830152610fcb81610f8f565b9050919050565b6000819050919050565b6000610ff7610ff2610fed84610c1a565b610fd2565b610a5b565b9050919050565b61100781610fdc565b82525050565b60006060820190506110226000830186610ffe565b61102f6020830185610ce5565b61103c6040830184610ce5565b94935050505056fea26469706673582212204ba5d342127b9b0f74587e3e707dc368ed0522f6b24de47906bd94573dd34bf964736f6c63430008110033a2646970667358221220a9644fd11be409678e0928e6e2526aaf2114c43db73462a913030b4233b4d07764736f6c6343000811003360806040523480156200001157600080fd5b50604051620041f1380380620041f1833981810160405281019062000037919062000184565b81600460006101000a81548173ffffffffffffffffffffffffffffffffffffffff021916908373ffffffffffffffffffffffffffffffffffffffff16021790555080600560006101000a81548173ffffffffffffffffffffffffffffffffffffffff021916908373ffffffffffffffffffffffffffffffffffffffff1602179055505050620001cb565b600080fd5b600073ffffffffffffffffffffffffffffffffffffffff82169050919050565b6000620000f382620000c6565b9050919050565b60006200010782620000e6565b9050919050565b6200011981620000fa565b81146200012557600080fd5b50565b60008151905062000139816200010e565b92915050565b60006200014c82620000e6565b9050919050565b6200015e816200013f565b81146200016a57600080fd5b50565b6000815190506200017e8162000153565b92915050565b600080604083850312156200019e576200019d620000c1565b5b6000620001ae8582860162000128565b9250506020620001c1858286016200016d565b9150509250929050565b61401680620001db6000396000f3fe608060405260043610620000865760003560e01c80636fc1a2c311620000555780636fc1a2c3146200014d578063906eb21c146200017d578063ae87ca7c14620001ab578063da02c9de14620001ef5762000086565b80630876290a146200008b57806335df350914620000ab5780634cb3a34514620000db5780636627cbd61462000109575b600080fd5b620000a96004803603810190620000a3919062001ab1565b62000233565b005b348015620000b857600080fd5b50620000c362000ff0565b604051620000d2919062001b09565b60405180910390f35b348015620000e857600080fd5b5062000107600480360381019062000101919062001b8b565b62000ffa565b005b3480156200011657600080fd5b506200013560048036038101906200012f919062001bfd565b6200128b565b60405162000144919062001d57565b60405180910390f35b3480156200015a57600080fd5b506200016562001377565b60405162000174919062001b09565b60405180910390f35b3480156200018a57600080fd5b50620001a96004803603810190620001a3919062001d7b565b6200137d565b005b348015620001b857600080fd5b50620001d76004803603810190620001d1919062001dd7565b62001605565b604051620001e6919062002028565b60405180910390f35b348015620001fc57600080fd5b506200021b600480360381019062000215919062001bfd565b620018b9565b6040516200022a9190620020e1565b60405180910390f35b600080600084815260200190815260200160002060040182815481106200025f576200025e62002105565b5b9060005260206000200160009054906101000a900473ffffffffffffffffffffffffffffffffffffffff1690503373ffffffffffffffffffffffffffffffffffffffff168173ffffffffffffffffffffffffffffffffffffffff1614620002fd576040517f08c379a0000000000000000000000000000000000000000000000000000000008152600401620002f490620021bb565b60405180910390fd5b600042905060008273ffffffffffffffffffffffffffffffffffffffff1663d67bdd256040518163ffffffff1660e01b8152600401602060405180830381865afa15801562000350573d6000803e3d6000fd5b505050506040513d601f19601f82011682018060405250810190620003769190620021f4565b9050600560009054906101000a900473ffffffffffffffffffffffffffffffffffffffff1673ffffffffffffffffffffffffffffffffffffffff1663e2670971828573ffffffffffffffffffffffffffffffffffffffff1663aa8c217c6040518163ffffffff1660e01b8152600401602060405180830381865afa15801562000403573d6000803e3d6000fd5b505050506040513d601f19601f820116820180604052508101906200042991906200223d565b600560009054906101000a900473ffffffffffffffffffffffffffffffffffffffff1673ffffffffffffffffffffffffffffffffffffffff1663cb8ab15b866040518263ffffffff1660e01b815260040162000486919062002280565b602060405180830381865afa158015620004a4573d6000803e3d6000fd5b505050506040513d601f19601f82011682018060405250810190620004ca91906200223d565b620004d69190620022cc565b6040518363ffffffff1660e01b8152600401620004f592919062002307565b600060405180830381600087803b1580156200051057600080fd5b505af115801562000525573d6000803e3d6000fd5b50505050600460009054906101000a900473ffffffffffffffffffffffffffffffffffffffff1673ffffffffffffffffffffffffffffffffffffffff16633f9b696c828573ffffffffffffffffffffffffffffffffffffffff1663aa8c217c6040518163ffffffff1660e01b8152600401602060405180830381865afa158015620005b4573d6000803e3d6000fd5b505050506040513d601f19601f82011682018060405250810190620005da91906200223d565b6040518363ffffffff1660e01b8152600401620005f992919062002307565b600060405180830381600087803b1580156200061457600080fd5b505af115801562000629573d6000803e3d6000fd5b50505050600460009054906101000a900473ffffffffffffffffffffffffffffffffffffffff1673ffffffffffffffffffffffffffffffffffffffff16632f0a323e82848673ffffffffffffffffffffffffffffffffffffffff1663aa8c217c6040518163ffffffff1660e01b8152600401602060405180830381865afa158015620006b9573d6000803e3d6000fd5b505050506040513d601f19601f82011682018060405250810190620006df91906200223d565b6040518463ffffffff1660e01b8152600401620006ff9392919062002334565b600060405180830381600087803b1580156200071a57600080fd5b505af11580156200072f573d6000803e3d6000fd5b50505050600460009054906101000a900473ffffffffffffffffffffffffffffffffffffffff1673ffffffffffffffffffffffffffffffffffffffff1663e6b02333826000856040518463ffffffff1660e01b81526004016200079593929190620023b4565b600060405180830381600087803b158015620007b057600080fd5b505af1158015620007c5573d6000803e3d6000fd5b50505050600080600087815260200190815260200160002060020160009054906101000a900473ffffffffffffffffffffffffffffffffffffffff1690508373ffffffffffffffffffffffffffffffffffffffff1663aa8c217c6040518163ffffffff1660e01b8152600401602060405180830381865afa1580156200084f573d6000803e3d6000fd5b505050506040513d601f19601f820116820180604052508101906200087591906200223d565b600560009054906101000a900473ffffffffffffffffffffffffffffffffffffffff1673ffffffffffffffffffffffffffffffffffffffff1663cb8ab15b836040518263ffffffff1660e01b8152600401620008d2919062002280565b602060405180830381865afa158015620008f0573d6000803e3d6000fd5b505050506040513d601f19601f820116820180604052508101906200091691906200223d565b10156200095a576040517f08c379a0000000000000000000000000000000000000000000000000000000008152600401620009519062002467565b60405180910390fd5b600560009054906101000a900473ffffffffffffffffffffffffffffffffffffffff1673ffffffffffffffffffffffffffffffffffffffff1663e2670971828673ffffffffffffffffffffffffffffffffffffffff1663aa8c217c6040518163ffffffff1660e01b8152600401602060405180830381865afa158015620009e5573d6000803e3d6000fd5b505050506040513d601f19601f8201168201806040525081019062000a0b91906200223d565b600560009054906101000a900473ffffffffffffffffffffffffffffffffffffffff1673ffffffffffffffffffffffffffffffffffffffff1663cb8ab15b866040518263ffffffff1660e01b815260040162000a68919062002280565b602060405180830381865afa15801562000a86573d6000803e3d6000fd5b505050506040513d601f19601f8201168201806040525081019062000aac91906200223d565b62000ab8919062002489565b6040518363ffffffff1660e01b815260040162000ad792919062002307565b600060405180830381600087803b15801562000af257600080fd5b505af115801562000b07573d6000803e3d6000fd5b50505050600460009054906101000a900473ffffffffffffffffffffffffffffffffffffffff1673ffffffffffffffffffffffffffffffffffffffff1663e8b8530f828673ffffffffffffffffffffffffffffffffffffffff1663aa8c217c6040518163ffffffff1660e01b8152600401602060405180830381865afa15801562000b96573d6000803e3d6000fd5b505050506040513d601f19601f8201168201806040525081019062000bbc91906200223d565b6040518363ffffffff1660e01b815260040162000bdb92919062002307565b600060405180830381600087803b15801562000bf657600080fd5b505af115801562000c0b573d6000803e3d6000fd5b50505050600460009054906101000a900473ffffffffffffffffffffffffffffffffffffffff1673ffffffffffffffffffffffffffffffffffffffff16631e7ba9cd82858773ffffffffffffffffffffffffffffffffffffffff1663aa8c217c6040518163ffffffff1660e01b8152600401602060405180830381865afa15801562000c9b573d6000803e3d6000fd5b505050506040513d601f19601f8201168201806040525081019062000cc191906200223d565b6040518463ffffffff1660e01b815260040162000ce19392919062002334565b600060405180830381600087803b15801562000cfc57600080fd5b505af115801562000d11573d6000803e3d6000fd5b50505050600460009054906101000a900473ffffffffffffffffffffffffffffffffffffffff1673ffffffffffffffffffffffffffffffffffffffff1663e6b02333826001866040518463ffffffff1660e01b815260040162000d779392919062002507565b600060405180830381600087803b15801562000d9257600080fd5b505af115801562000da7573d6000803e3d6000fd5b505050508373ffffffffffffffffffffffffffffffffffffffff1663aa8c217c6040518163ffffffff1660e01b8152600401602060405180830381865afa15801562000df7573d6000803e3d6000fd5b505050506040513d601f19601f8201168201806040525081019062000e1d91906200223d565b60008088815260200190815260200160002060010154101562000e77576040517f08c379a000000000000000000000000000000000000000000000000000000000815260040162000e6e90620025ba565b60405180910390fd5b8373ffffffffffffffffffffffffffffffffffffffff1663aa8c217c6040518163ffffffff1660e01b8152600401602060405180830381865afa15801562000ec3573d6000803e3d6000fd5b505050506040513d601f19601f8201168201806040525081019062000ee991906200223d565b600080888152602001908152602001600020600101600082825462000f0f919062002489565b925050819055506000806000888152602001908152602001600020600101540362000f6357600080600088815260200190815260200160002060020160146101000a81548160ff0219169083151502179055505b8073ffffffffffffffffffffffffffffffffffffffff166108fc349081150290604051600060405180830381858888f1935050505015801562000faa573d6000803e3d6000fd5b507f58e40951e480e0eb47a55e7fe3d9efbfcf47e2513825240c24a81843b2fb6c7b34878660405162000fe093929190620025dc565b60405180910390a1505050505050565b6000600354905090565b6000841162001040576040517f08c379a0000000000000000000000000000000000000000000000000000000008152600401620010379062002669565b60405180910390fd5b6000831162001086576040517f08c379a00000000000000000000000000000000000000000000000000000000081526004016200107d90620026db565b60405180910390fd5b6000821015620010cd576040517f08c379a0000000000000000000000000000000000000000000000000000000008152600401620010c4906200274d565b60405180910390fd5b60008083815260200190815260200160002060020160009054906101000a900473ffffffffffffffffffffffffffffffffffffffff1673ffffffffffffffffffffffffffffffffffffffff168173ffffffffffffffffffffffffffffffffffffffff160362001173576040517f08c379a00000000000000000000000000000000000000000000000000000000081526004016200116a90620027e5565b60405180910390fd5b600080600084815260200190815260200160002060040180549050905060003083878760018887604051620011a89062001a06565b620011ba97969594939291906200284d565b604051809103906000f080158015620011d7573d6000803e3d6000fd5b50905080600080868152602001908152602001600020600401600181600181540180825580915050039060005260206000200160006101000a81548173ffffffffffffffffffffffffffffffffffffffff021916908373ffffffffffffffffffffffffffffffffffffffff1602179055507fc7f10d7197fb2a9693c302afe34b2b61de0f7048c4a33a39923e281c0c93ee2283826040516200127b929190620028ca565b60405180910390a1505050505050565b60606000821015620012d4576040517f08c379a0000000000000000000000000000000000000000000000000000000008152600401620012cb906200274d565b60405180910390fd5b6000808381526020019081526020016000206004018054806020026020016040519081016040528092919081815260200182805480156200136b57602002820191906000526020600020905b8160009054906101000a900473ffffffffffffffffffffffffffffffffffffffff1673ffffffffffffffffffffffffffffffffffffffff168152602001906001019080831162001320575b50505050509050919050565b60035481565b60008311620013c3576040517f08c379a0000000000000000000000000000000000000000000000000000000008152600401620013ba906200296d565b60405180910390fd5b6000821162001409576040517f08c379a0000000000000000000000000000000000000000000000000000000008152600401620014009062002a05565b60405180910390fd5b826000806003548152602001908152602001600020600001819055508160008060035481526020019081526020016000206001018190555080600080600354815260200190815260200160002060020160006101000a81548173ffffffffffffffffffffffffffffffffffffffff021916908373ffffffffffffffffffffffffffffffffffffffff1602179055506001600080600354815260200190815260200160002060020160146101000a81548160ff021916908315150217905550426000806003548152602001908152602001600020600301819055506001806000600354815260200190815260200160002060006101000a81548160ff021916908315150217905550600560009054906101000a900473ffffffffffffffffffffffffffffffffffffffff1673ffffffffffffffffffffffffffffffffffffffff1663c331d842826003546040518363ffffffff1660e01b81526004016200157192919062002307565b600060405180830381600087803b1580156200158c57600080fd5b505af1158015620015a1573d6000803e3d6000fd5b505050507f70d4f73f8dc596f6b7f1d3996153d2ae6e391837c8ad344b8f32ffe96fbbed9c816003548585604051620015de949392919062002a27565b60405180910390a160036000815480929190620015fb9062002a74565b9190505550505050565b60606000600560009054906101000a900473ffffffffffffffffffffffffffffffffffffffff1673ffffffffffffffffffffffffffffffffffffffff16631d036d7d846040518263ffffffff1660e01b815260040162001666919062002280565b600060405180830381865afa15801562001684573d6000803e3d6000fd5b505050506040513d6000823e3d601f19601f82011682018060405250810190620016af919062002c36565b90506000815167ffffffffffffffff811115620016d157620016d062002ad7565b5b6040519080825280602002602001820160405280156200170e57816020015b620016fa62001a14565b815260200190600190039081620016f05790505b50905060005b8251811015620018ae5760008084838151811062001737576200173662002105565b5b602002602001015181526020019081526020016000206040518060c001604052908160008201548152602001600182015481526020016002820160009054906101000a900473ffffffffffffffffffffffffffffffffffffffff1673ffffffffffffffffffffffffffffffffffffffff1673ffffffffffffffffffffffffffffffffffffffff1681526020016002820160149054906101000a900460ff1615151515815260200160038201548152602001600482018054806020026020016040519081016040528092919081815260200182805480156200186e57602002820191906000526020600020905b8160009054906101000a900473ffffffffffffffffffffffffffffffffffffffff1673ffffffffffffffffffffffffffffffffffffffff168152602001906001019080831162001823575b5050505050815250508282815181106200188d576200188c62002105565b5b60200260200101819052508080620018a59062002a74565b91505062001714565b508092505050919050565b620018c362001a14565b6000808381526020019081526020016000206040518060c001604052908160008201548152602001600182015481526020016002820160009054906101000a900473ffffffffffffffffffffffffffffffffffffffff1673ffffffffffffffffffffffffffffffffffffffff1673ffffffffffffffffffffffffffffffffffffffff1681526020016002820160149054906101000a900460ff161515151581526020016003820154815260200160048201805480602002602001604051908101604052809291908181526020018280548015620019f657602002820191906000526020600020905b8160009054906101000a900473ffffffffffffffffffffffffffffffffffffffff1673ffffffffffffffffffffffffffffffffffffffff1681526020019060010190808311620019ab575b5050505050815250509050919050565b6113598062002c8883390190565b6040518060c001604052806000815260200160008152602001600073ffffffffffffffffffffffffffffffffffffffff16815260200160001515815260200160008152602001606081525090565b6000604051905090565b600080fd5b600080fd5b6000819050919050565b62001a8b8162001a76565b811462001a9757600080fd5b50565b60008135905062001aab8162001a80565b92915050565b6000806040838503121562001acb5762001aca62001a6c565b5b600062001adb8582860162001a9a565b925050602062001aee8582860162001a9a565b9150509250929050565b62001b038162001a76565b82525050565b600060208201905062001b20600083018462001af8565b92915050565b600073ffffffffffffffffffffffffffffffffffffffff82169050919050565b600062001b538262001b26565b9050919050565b62001b658162001b46565b811462001b7157600080fd5b50565b60008135905062001b858162001b5a565b92915050565b6000806000806080858703121562001ba85762001ba762001a6c565b5b600062001bb88782880162001a9a565b945050602062001bcb8782880162001a9a565b935050604062001bde8782880162001a9a565b925050606062001bf18782880162001b74565b91505092959194509250565b60006020828403121562001c165762001c1562001a6c565b5b600062001c268482850162001a9a565b91505092915050565b600081519050919050565b600082825260208201905092915050565b6000819050602082019050919050565b6000819050919050565b600062001c8662001c8062001c7a8462001b26565b62001c5b565b62001b26565b9050919050565b600062001c9a8262001c65565b9050919050565b600062001cae8262001c8d565b9050919050565b62001cc08162001ca1565b82525050565b600062001cd4838362001cb5565b60208301905092915050565b6000602082019050919050565b600062001cfa8262001c2f565b62001d06818562001c3a565b935062001d138362001c4b565b8060005b8381101562001d4a57815162001d2e888262001cc6565b975062001d3b8362001ce0565b92505060018101905062001d17565b5085935050505092915050565b6000602082019050818103600083015262001d73818462001ced565b905092915050565b60008060006060848603121562001d975762001d9662001a6c565b5b600062001da78682870162001a9a565b935050602062001dba8682870162001a9a565b925050604062001dcd8682870162001b74565b9150509250925092565b60006020828403121562001df05762001def62001a6c565b5b600062001e008482850162001b74565b91505092915050565b600081519050919050565b600082825260208201905092915050565b6000819050602082019050919050565b62001e408162001a76565b82525050565b62001e518162001b46565b82525050565b60008115159050919050565b62001e6e8162001e57565b82525050565b600082825260208201905092915050565b600062001e928262001c2f565b62001e9e818562001e74565b935062001eab8362001c4b565b8060005b8381101562001ee257815162001ec6888262001cc6565b975062001ed38362001ce0565b92505060018101905062001eaf565b5085935050505092915050565b600060c08301600083015162001f09600086018262001e35565b50602083015162001f1e602086018262001e35565b50604083015162001f33604086018262001e46565b50606083015162001f48606086018262001e63565b50608083015162001f5d608086018262001e35565b5060a083015184820360a086015262001f77828262001e85565b9150508091505092915050565b600062001f92838362001eef565b905092915050565b6000602082019050919050565b600062001fb48262001e09565b62001fc0818562001e14565b93508360208202850162001fd48562001e25565b8060005b8581101562002016578484038952815162001ff4858262001f84565b9450620020018362001f9a565b925060208a0199505060018101905062001fd8565b50829750879550505050505092915050565b6000602082019050818103600083015262002044818462001fa7565b905092915050565b600060c08301600083015162002066600086018262001e35565b5060208301516200207b602086018262001e35565b50604083015162002090604086018262001e46565b506060830151620020a5606086018262001e63565b506080830151620020ba608086018262001e35565b5060a083015184820360a0860152620020d4828262001e85565b9150508091505092915050565b60006020820190508181036000830152620020fd81846200204c565b905092915050565b7f4e487b7100000000000000000000000000000000000000000000000000000000600052603260045260246000fd5b600082825260208201905092915050565b7f4f6e6c7920726573706f6e7365206d657373616765732061726520616c6c6f7760008201527f656420746f2074726967676572207061796d656e742070726f63657373000000602082015250565b6000620021a3603d8362002134565b9150620021b08262002145565b604082019050919050565b60006020820190508181036000830152620021d68162002194565b9050919050565b600081519050620021ee8162001b5a565b92915050565b6000602082840312156200220d576200220c62001a6c565b5b60006200221d84828501620021dd565b91505092915050565b600081519050620022378162001a80565b92915050565b60006020828403121562002256576200225562001a6c565b5b6000620022668482850162002226565b91505092915050565b6200227a8162001b46565b82525050565b60006020820190506200229760008301846200226f565b92915050565b7f4e487b7100000000000000000000000000000000000000000000000000000000600052601160045260246000fd5b6000620022d98262001a76565b9150620022e68362001a76565b92508282019050808211156200230157620023006200229d565b5b92915050565b60006040820190506200231e60008301856200226f565b6200232d602083018462001af8565b9392505050565b60006060820190506200234b60008301866200226f565b6200235a602083018562001af8565b62002369604083018462001af8565b949350505050565b6000819050919050565b60006200239c62002396620023908462002371565b62001c5b565b62001a76565b9050919050565b620023ae816200237b565b82525050565b6000606082019050620023cb60008301866200226f565b620023da6020830185620023a3565b620023e9604083018462001af8565b949350505050565b7f496e73756666696369656e7420656c65637472696369747920756e697473206960008201527f6e2073656c6c65722773206163636f756e740000000000000000000000000000602082015250565b60006200244f60328362002134565b91506200245c82620023f1565b604082019050919050565b60006020820190508181036000830152620024828162002440565b9050919050565b6000620024968262001a76565b9150620024a38362001a76565b9250828203905081811115620024be57620024bd6200229d565b5b92915050565b6000819050919050565b6000620024ef620024e9620024e384620024c4565b62001c5b565b62001a76565b9050919050565b6200250181620024ce565b82525050565b60006060820190506200251e60008301866200226f565b6200252d6020830185620024f6565b6200253c604083018462001af8565b949350505050565b7f496e73756666696369656e742073656c6c696e6720756e69747320696e20736560008201527f6c6c696e6720706f737400000000000000000000000000000000000000000000602082015250565b6000620025a2602a8362002134565b9150620025af8262002544565b604082019050919050565b60006020820190508181036000830152620025d58162002593565b9050919050565b6000606082019050620025f3600083018662001af8565b62002602602083018562001af8565b6200261160408301846200226f565b949350505050565b7f616d6f756e74206d7573742062652067726561746572207468616e2030000000600082015250565b600062002651601d8362002134565b91506200265e8262002619565b602082019050919050565b60006020820190508181036000830152620026848162002642565b9050919050565b7f71756f746174696f6e206d7573742062652067726561746572207468616e2030600082015250565b6000620026c360208362002134565b9150620026d0826200268b565b602082019050919050565b60006020820190508181036000830152620026f681620026b4565b9050919050565b7f706f7374206b6579207374617274732066726f6d203000000000000000000000600082015250565b60006200273560168362002134565b91506200274282620026fd565b602082019050919050565b60006020820190508181036000830152620027688162002726565b9050919050565b7f596f752063616e6e6f74207265706c7920746f20796f7572206f776e2073656c60008201527f6c696e6720706f73740000000000000000000000000000000000000000000000602082015250565b6000620027cd60298362002134565b9150620027da826200276f565b604082019050919050565b600060208201905081810360008301526200280081620027be565b9050919050565b600060ff82169050919050565b6000620028356200282f6200282984620024c4565b62001c5b565b62002807565b9050919050565b620028478162002814565b82525050565b600060e08201905062002864600083018a6200226f565b6200287360208301896200226f565b62002882604083018862001af8565b62002891606083018762001af8565b620028a060808301866200283c565b620028af60a083018562001af8565b620028be60c083018462001af8565b98975050505050505050565b6000604082019050620028e160008301856200226f565b620028f060208301846200226f565b9392505050565b7f7075726368617365207072696365206d7573742062652067726561746572207460008201527f68616e2030000000000000000000000000000000000000000000000000000000602082015250565b60006200295560258362002134565b91506200296282620028f7565b604082019050919050565b60006020820190508181036000830152620029888162002946565b9050919050565b7f616d6f756e7420746f20627579206d757374206265206772656174657220746860008201527f616e203000000000000000000000000000000000000000000000000000000000602082015250565b6000620029ed60248362002134565b9150620029fa826200298f565b604082019050919050565b6000602082019050818103600083015262002a2081620029de565b9050919050565b600060808201905062002a3e60008301876200226f565b62002a4d602083018662001af8565b62002a5c604083018562001af8565b62002a6b606083018462001af8565b95945050505050565b600062002a818262001a76565b91507fffffffffffffffffffffffffffffffffffffffffffffffffffffffffffffffff820362002ab65762002ab56200229d565b5b600182019050919050565b600080fd5b6000601f19601f8301169050919050565b7f4e487b7100000000000000000000000000000000000000000000000000000000600052604160045260246000fd5b62002b118262002ac6565b810181811067ffffffffffffffff8211171562002b335762002b3262002ad7565b5b80604052505050565b600062002b4862001a62565b905062002b56828262002b06565b919050565b600067ffffffffffffffff82111562002b795762002b7862002ad7565b5b602082029050602081019050919050565b600080fd5b600062002ba662002ba08462002b5b565b62002b3c565b9050808382526020820190506020840283018581111562002bcc5762002bcb62002b8a565b5b835b8181101562002bf9578062002be4888262002226565b84526020840193505060208101905062002bce565b5050509392505050565b600082601f83011262002c1b5762002c1a62002ac1565b5b815162002c2d84826020860162002b8f565b91505092915050565b60006020828403121562002c4f5762002c4e62001a6c565b5b600082015167ffffffffffffffff81111562002c705762002c6f62001a71565b5b62002c7e8482850162002c03565b9150509291505056fe60806040523480156200001157600080fd5b50604051620013593803806200135983398181016040528101906200003791906200021c565b86600860006101000a81548173ffffffffffffffffffffffffffffffffffffffff021916908373ffffffffffffffffffffffffffffffffffffffff160217905550856000806101000a81548173ffffffffffffffffffffffffffffffffffffffff021916908373ffffffffffffffffffffffffffffffffffffffff160217905550846001819055508360028190555082600360006101000a81548160ff021916908360ff16021790555081600481905550806005819055506000600660006101000a81548160ff0219169083151502179055506000600660016101000a81548160ff0219169083151502179055504260078190555050505050505050620002cf565b600080fd5b600073ffffffffffffffffffffffffffffffffffffffff82169050919050565b60006200016b826200013e565b9050919050565b6200017d816200015e565b81146200018957600080fd5b50565b6000815190506200019d8162000172565b92915050565b6000819050919050565b620001b881620001a3565b8114620001c457600080fd5b50565b600081519050620001d881620001ad565b92915050565b600060ff82169050919050565b620001f681620001de565b81146200020257600080fd5b50565b6000815190506200021681620001eb565b92915050565b600080600080600080600060e0888a0312156200023e576200023d62000139565b5b60006200024e8a828b016200018c565b9750506020620002618a828b016200018c565b9650506040620002748a828b01620001c7565b9550506060620002878a828b01620001c7565b94505060806200029a8a828b0162000205565b93505060a0620002ad8a828b01620001c7565b92505060c0620002c08a828b01620001c7565b91505092959891949750929550565b61107a80620002df6000396000f3fe6080604052600436106100ab5760003560e01c8063a03a202e11610064578063a03a202e14610388578063aa8c217c146103b3578063abf4d6c4146103de578063c32b9b53146103e8578063cf09e0d0146103f2578063d67bdd251461041d57610283565b806304dc4cda14610288578063209ebc08146102b35780633013aa25146102de5780633d855485146103075780633e784e63146103325780635051a5ec1461035d57610283565b3661028357600034116100f3576040517f08c379a00000000000000000000000000000000000000000000000000000000081526004016100ea906109a9565b60405180910390fd5b60011515600660009054906101000a900460ff16151514610149576040517f08c379a000000000000000000000000000000000000000000000000000000000815260040161014090610a3b565b60405180910390fd5b3460025460015461015a9190610a94565b1461019a576040517f08c379a000000000000000000000000000000000000000000000000000000000815260040161019190610b22565b60405180910390fd5b60001515600660019054906101000a900460ff161515146101f0576040517f08c379a00000000000000000000000000000000000000000000000000000000081526004016101e790610b8e565b60405180910390fd5b6000600360009054906101000a900460ff1660ff160361021757610212610448565b610281565b6001600360009054906101000a900460ff1660ff160361023e57610239610657565b610280565b600061027f576040517f08c379a000000000000000000000000000000000000000000000000000000000815260040161027690610bfa565b60405180910390fd5b5b5b005b600080fd5b34801561029457600080fd5b5061029d610866565b6040516102aa9190610c36565b60405180910390f35b3480156102bf57600080fd5b506102c8610879565b6040516102d59190610c6c565b60405180910390f35b3480156102ea57600080fd5b5061030560048036038101906103009190610cb8565b61088c565b005b34801561031357600080fd5b5061031c6108f7565b6040516103299190610cf4565b60405180910390f35b34801561033e57600080fd5b506103476108fd565b6040516103549190610cf4565b60405180910390f35b34801561036957600080fd5b50610372610903565b60405161037f9190610c6c565b60405180910390f35b34801561039457600080fd5b5061039d610916565b6040516103aa9190610cf4565b60405180910390f35b3480156103bf57600080fd5b506103c861091c565b6040516103d59190610cf4565b60405180910390f35b6103e6610448565b005b6103f0610657565b005b3480156103fe57600080fd5b50610407610922565b6040516104149190610cf4565b60405180910390f35b34801561042957600080fd5b50610432610928565b60405161043f9190610d50565b60405180910390f35b60008054906101000a900473ffffffffffffffffffffffffffffffffffffffff1673ffffffffffffffffffffffffffffffffffffffff163373ffffffffffffffffffffffffffffffffffffffff16036104d6576040517f08c379a00000000000000000000000000000000000000000000000000000000081526004016104cd90610ddd565b60405180910390fd5b6000600860009054906101000a900473ffffffffffffffffffffffffffffffffffffffff1673ffffffffffffffffffffffffffffffffffffffff1634600454600554604051602401610529929190610dfd565b6040516020818303038152906040527f3d480db5000000000000000000000000000000000000000000000000000000007bffffffffffffffffffffffffffffffffffffffffffffffffffffffff19166020820180517bffffffffffffffffffffffffffffffffffffffffffffffffffffffff83818316178352505050506040516105b39190610e97565b60006040518083038185875af1925050503d80600081146105f0576040519150601f19603f3d011682016040523d82523d6000602084013e6105f5565b606091505b5050905080610639576040517f08c379a000000000000000000000000000000000000000000000000000000000815260040161063090610efa565b60405180910390fd5b6001600660016101000a81548160ff02191690831515021790555050565b60008054906101000a900473ffffffffffffffffffffffffffffffffffffffff1673ffffffffffffffffffffffffffffffffffffffff163373ffffffffffffffffffffffffffffffffffffffff16146106e5576040517f08c379a00000000000000000000000000000000000000000000000000000000081526004016106dc90610fb2565b60405180910390fd5b6000600860009054906101000a900473ffffffffffffffffffffffffffffffffffffffff1673ffffffffffffffffffffffffffffffffffffffff1634600454600554604051602401610738929190610dfd565b6040516020818303038152906040527f0876290a000000000000000000000000000000000000000000000000000000007bffffffffffffffffffffffffffffffffffffffffffffffffffffffff19166020820180517bffffffffffffffffffffffffffffffffffffffffffffffffffffffff83818316178352505050506040516107c29190610e97565b60006040518083038185875af1925050503d80600081146107ff576040519150601f19603f3d011682016040523d82523d6000602084013e610804565b606091505b5050905080610848576040517f08c379a000000000000000000000000000000000000000000000000000000000815260040161083f90610efa565b60405180910390fd5b6001600660016101000a81548160ff02191690831515021790555050565b600360009054906101000a900460ff1681565b600660019054906101000a900460ff1681565b80600660006101000a81548160ff0219169083151502179055507f9161e5ec70df4a8ef9f6085e3435135f3da64c7ec32c271912e1ca8d4afbd7c3600360009054906101000a900460ff166004546005546040516108ec9392919061100d565b60405180910390a150565b60045481565b60055481565b600660009054906101000a900460ff1681565b60025481565b60015481565b60075481565b60008054906101000a900473ffffffffffffffffffffffffffffffffffffffff1681565b600082825260208201905092915050565b7f696e76616c6964207061796d656e740000000000000000000000000000000000600082015250565b6000610993600f8361094c565b915061099e8261095d565b602082019050919050565b600060208201905081810360008301526109c281610986565b9050919050565b7f796f757220726573706f6e736520686173206e6f74206265656e20616363657060008201527f7465642062792073656c6c657220796574000000000000000000000000000000602082015250565b6000610a2560318361094c565b9150610a30826109c9565b604082019050919050565b60006020820190508181036000830152610a5481610a18565b9050919050565b6000819050919050565b7f4e487b7100000000000000000000000000000000000000000000000000000000600052601160045260246000fd5b6000610a9f82610a5b565b9150610aaa83610a5b565b9250828202610ab881610a5b565b91508282048414831517610acf57610ace610a65565b5b5092915050565b7f4e6f742066756c6c792070616964207965740000000000000000000000000000600082015250565b6000610b0c60128361094c565b9150610b1782610ad6565b602082019050919050565b60006020820190508181036000830152610b3b81610aff565b9050919050565b7f4f7264657220697320616c726561647920706169642100000000000000000000600082015250565b6000610b7860168361094c565b9150610b8382610b42565b602082019050919050565b60006020820190508181036000830152610ba781610b6b565b9050919050565b7f696e76616c696420726573706f6e7365206d6573736167652074797065000000600082015250565b6000610be4601d8361094c565b9150610bef82610bae565b602082019050919050565b60006020820190508181036000830152610c1381610bd7565b9050919050565b600060ff82169050919050565b610c3081610c1a565b82525050565b6000602082019050610c4b6000830184610c27565b92915050565b60008115159050919050565b610c6681610c51565b82525050565b6000602082019050610c816000830184610c5d565b92915050565b600080fd5b610c9581610c51565b8114610ca057600080fd5b50565b600081359050610cb281610c8c565b92915050565b600060208284031215610cce57610ccd610c87565b5b6000610cdc84828501610ca3565b91505092915050565b610cee81610a5b565b82525050565b6000602082019050610d096000830184610ce5565b92915050565b600073ffffffffffffffffffffffffffffffffffffffff82169050919050565b6000610d3a82610d0f565b9050919050565b610d4a81610d2f565b82525050565b6000602082019050610d656000830184610d41565b92915050565b7f596f752063616e6e6f74206d616b652061207061796d656e7420746f20796f7560008201527f72206f776e2073656c6c696e6720726573706f6e7365206d6573736167650000602082015250565b6000610dc7603e8361094c565b9150610dd282610d6b565b604082019050919050565b60006020820190508181036000830152610df681610dba565b9050919050565b6000604082019050610e126000830185610ce5565b610e1f6020830184610ce5565b9392505050565b600081519050919050565b600081905092915050565b60005b83811015610e5a578082015181840152602081019050610e3f565b60008484015250505050565b6000610e7182610e26565b610e7b8185610e31565b9350610e8b818560208601610e3c565b80840191505092915050565b6000610ea38284610e66565b915081905092915050565b7f7061796d656e74206661696c6564000000000000000000000000000000000000600082015250565b6000610ee4600e8361094c565b9150610eef82610eae565b602082019050919050565b60006020820190508181036000830152610f1381610ed7565b9050919050565b7f4f6e6c7920746865206d6573736167652073656e6465722077686f2073656e7460008201527f207468697320726573706f6e736520746f206163717569726520656c6563747260208201527f696369747920756e6974732063616e206d616b652061207061796d656e740000604082015250565b6000610f9c605e8361094c565b9150610fa782610f1a565b606082019050919050565b60006020820190508181036000830152610fcb81610f8f565b9050919050565b6000819050919050565b6000610ff7610ff2610fed84610c1a565b610fd2565b610a5b565b9050919050565b61100781610fdc565b82525050565b60006060820190506110226000830186610ffe565b61102f6020830185610ce5565b61103c6040830184610ce5565b94935050505056fea26469706673582212204ba5d342127b9b0f74587e3e707dc368ed0522f6b24de47906bd94573dd34bf964736f6c63430008110033a2646970667358221220c58b66d46983645c38d15016a307e7306ec04fd0c6f38c32fe092dcebbd1607564736f6c63430008110033",
  "immutableReferences": {},
  "source": "//SPDX-License-Identifier: MIT\n\npragma solidity ^0.8.0;\n\nimport \"./BeanStructs.sol\";\nimport \"./BuyerService.sol\";\nimport \"./SellerService.sol\";\nimport \"./UserService.sol\";\nimport \"./StatisticsService.sol\";\n\n// system contract\ncontract MainSystem is BeanStructs {\n\n    UserService private  userService;\n    StatisticsService private statisticsService;\n    BuyerService private  buyerService;\n    SellerService  private sellerService;\n    \n    // ------------------------- constructor ------------------------- \n    constructor() {\n        // 1.initialize services and mount them to reference variables\n        userService = new UserService(address(this));\n        statisticsService = new StatisticsService();\n        buyerService = new BuyerService(statisticsService, userService);       \n        sellerService = new SellerService(statisticsService, userService);      \n        userService.initializeContractAddresses(address(buyerService), address(sellerService)); \n    }\n\n    // -------------------------buyer service API -------------------------\n    \n    // buyer -  create a new purchase post\n    function createPurchasePost (uint _priceToBuy, uint _amountToBuy) public {\n        buyerService.createPurchasePost(_priceToBuy, _amountToBuy, msg.sender);\n    }\n\n    // seller - create purchase post response messages\n    function createResponseMessageToPurchasePost(uint _amountToSell, uint _quotationInWei, uint _purchasePostKey) public {\n        buyerService.createResponseMessageToPurchasePost(_amountToSell, _quotationInWei, _purchasePostKey, msg.sender);\n    }\n\n    // returns all purchase posts by user address\n    function returnAllPurchasePostsByAddress(address _account) public view returns (PurchasePost[] memory) {\n        return buyerService.returnAllPurchasePostsByAddress(_account);\n    }\n\n     // return total number of purchase posts in the system\n    function returnPurchasePostMapSize() public view returns(uint) {\n        return buyerService.returnPurchasePostMapSize();\n    }\n\n    // return one purchase post by user address and post key\n    function getPurchasePostByKey(uint _postKey) public view returns(PurchasePost memory) {\n        return buyerService.getPurchasePostByKey(_postKey);\n    }\n\n    // return all response messages of a purchase post by post key\n    function returnPurchasePostResponseMessagesByKey(uint _postKey) public view returns(PostResponseMessage[] memory){\n        return buyerService.returnPurchasePostResponseMessagesByKey(_postKey);\n    }\n\n    // ------------------------- seller service API -------------------------\n\n    // seller -  create a new selling post\n    function createSellingPost (uint _priceToSell, uint _amountToSell) public {\n        sellerService.createSellingPost(_priceToSell, _amountToSell, msg.sender);\n    }\n     \n    // buyer - create selling post response messages\n    // buyer creates response message and wait for confirmation from seller. buyer then pays for it once response is accepted\n    function createResponseMessageToSellingPost(uint _amountToBuy, uint _quotationInWei, uint _sellingPostKey) public {\n        sellerService.createResponseMessageToSellingPost(_amountToBuy, _quotationInWei, _sellingPostKey, msg.sender);\n    }\n\n\n    // returns all selling posts by user address\n    function returnAllSellingPostsByAddress(address _account) public view returns (SellingPost[] memory) {\n        return sellerService.returnAllSellingPostsByAddress(_account);\n    }\n\n    // return one selling post by post key\n    function getSellingPostByKey(uint _postKey) public view returns(SellingPost memory) {\n        return sellerService.getSellingPostByKey(_postKey);\n    }\n\n    // return all response messages of one post by key\n    function returnSellingPostResponseMessagesByKey(uint _postKey) public view returns(PostResponseMessage[] memory){\n        return sellerService.returnSellingPostResponseMessagesByKey(_postKey);\n    }\n\n    //new\n    function returnSellPostMapSize() public view returns(uint){\n        return sellerService.returnSellPostMapSize();\n    }\n\n    // ------------------------- user service API -------------------------\n\n    function getUsernameByAddress(address _user) public view returns (string memory) {\n        return userService.getUsername(_user);\n    }\n\n    // return available electricity units by account address\n    function getAvailableElecUnitsByAccountAddress(address _user) public view returns (uint) {\n        return userService.getAvailableElecUnits(_user);\n    }\n\n    function getPurchasePostKeys(address _user) public view returns (uint[] memory) {\n        return userService.getPurchasePostKeys(_user);\n    }\n\n    function getSellingPostKeys(address _user) public view returns (uint[] memory) {\n        return userService.getSellingPostKeys(_user);\n    }\n\n    function setUsername(address _user, string memory _username) public {\n        userService.setUsername(_user, _username);\n    }  \n\n\n    // -------------------------statistics service API -------------------------\n\n    function returnTotalBuyByAddress(address _accountAdress) public view returns (uint) {\n        return statisticsService.returnTotalBuyByAddress(_accountAdress);\n    }\n\n    function returnTotalSellByAddress(address _accountAdress) public view returns (uint) {\n        return statisticsService.returnTotalSellByAddress(_accountAdress);\n    }\n\n    // return 10 recent transactions (return all if transactions if total amount is less than 10)\n    function returnRecentTransactions(address _account) public view returns (TransactionBean[] memory)  {\n        return statisticsService.returnRecentTransactions(_account);\n    }\n\n    \n\n}",
  "sourcePath": "/Users/richard/Doc//sydney_study/22s2/5703/vue-web3-5703/truffle/contracts/MainSystem.sol",
  "compiler": {
    "name": "solc",
    "version": "0.8.17+commit.8df45f5f.Emscripten.clang"
  },
  "schemaVersion": "3.4.9",
  "updatedAt": "2022-09-25T01:42:38.096Z",
  "networkType": "ethereum",
  "devdoc": {
    "kind": "dev",
    "methods": {},
    "version": 1
  },
  "userdoc": {
    "kind": "user",
    "methods": {},
    "version": 1
  }
}