{
  "contractName": "PostResponseMessage",
  "abi": [
    {
      "inputs": [
        {
          "internalType": "address",
          "name": "_systemContractAddress",
          "type": "address"
        },
        {
          "internalType": "address",
          "name": "_messageSender",
          "type": "address"
        },
        {
          "internalType": "uint256",
          "name": "_amount",
          "type": "uint256"
        },
        {
          "internalType": "uint256",
          "name": "_quotationInWei",
          "type": "uint256"
        },
        {
          "internalType": "uint8",
          "name": "_responseMessageType",
          "type": "uint8"
        },
        {
          "internalType": "uint256",
          "name": "_postKey",
          "type": "uint256"
        },
        {
          "internalType": "uint256",
          "name": "_messageIndex",
          "type": "uint256"
        }
      ],
      "stateMutability": "nonpayable",
      "type": "constructor"
    },
    {
      "anonymous": false,
      "inputs": [
        {
          "indexed": false,
          "internalType": "uint256",
          "name": "responseMessageType",
          "type": "uint256"
        },
        {
          "indexed": false,
          "internalType": "uint256",
          "name": "postKey",
          "type": "uint256"
        },
        {
          "indexed": false,
          "internalType": "uint256",
          "name": "messageIndex",
          "type": "uint256"
        }
      ],
      "name": "responseMessageAccepted",
      "type": "event"
    },
    {
      "inputs": [],
      "name": "amount",
      "outputs": [
        {
          "internalType": "uint256",
          "name": "",
          "type": "uint256"
        }
      ],
      "stateMutability": "view",
      "type": "function"
    },
    {
      "inputs": [],
      "name": "createdAt",
      "outputs": [
        {
          "internalType": "uint256",
          "name": "",
          "type": "uint256"
        }
      ],
      "stateMutability": "view",
      "type": "function"
    },
    {
      "inputs": [],
      "name": "initialAmount",
      "outputs": [
        {
          "internalType": "uint256",
          "name": "",
          "type": "uint256"
        }
      ],
      "stateMutability": "view",
      "type": "function"
    },
    {
      "inputs": [],
      "name": "isAccepted",
      "outputs": [
        {
          "internalType": "bool",
          "name": "",
          "type": "bool"
        }
      ],
      "stateMutability": "view",
      "type": "function"
    },
    {
      "inputs": [],
      "name": "isPaid",
      "outputs": [
        {
          "internalType": "bool",
          "name": "",
          "type": "bool"
        }
      ],
      "stateMutability": "view",
      "type": "function"
    },
    {
      "inputs": [],
      "name": "messageIndex",
      "outputs": [
        {
          "internalType": "uint256",
          "name": "",
          "type": "uint256"
        }
      ],
      "stateMutability": "view",
      "type": "function"
    },
    {
      "inputs": [],
      "name": "messageSender",
      "outputs": [
        {
          "internalType": "address",
          "name": "",
          "type": "address"
        }
      ],
      "stateMutability": "view",
      "type": "function"
    },
    {
      "inputs": [],
      "name": "postKey",
      "outputs": [
        {
          "internalType": "uint256",
          "name": "",
          "type": "uint256"
        }
      ],
      "stateMutability": "view",
      "type": "function"
    },
    {
      "inputs": [],
      "name": "quotationInWei",
      "outputs": [
        {
          "internalType": "uint256",
          "name": "",
          "type": "uint256"
        }
      ],
      "stateMutability": "view",
      "type": "function"
    },
    {
      "inputs": [],
      "name": "responseMessageType",
      "outputs": [
        {
          "internalType": "uint8",
          "name": "",
          "type": "uint8"
        }
      ],
      "stateMutability": "view",
      "type": "function"
    },
    {
      "stateMutability": "payable",
      "type": "receive"
    },
    {
      "inputs": [
        {
          "internalType": "bool",
          "name": "_isAccepted",
          "type": "bool"
        }
      ],
      "name": "setIsAccepted",
      "outputs": [],
      "stateMutability": "nonpayable",
      "type": "function"
    },
    {
      "inputs": [],
      "name": "triggerSellingPostPayment",
      "outputs": [],
      "stateMutability": "payable",
      "type": "function"
    },
    {
      "inputs": [],
      "name": "triggerPurchasePostPayment",
      "outputs": [],
      "stateMutability": "payable",
      "type": "function"
    },
    {
      "inputs": [],
      "name": "returnPostResponseMessageBean",
      "outputs": [
        {
          "components": [
            {
              "internalType": "address",
              "name": "messageSender",
              "type": "address"
            },
            {
              "internalType": "uint256",
              "name": "amount",
              "type": "uint256"
            },
            {
              "internalType": "uint256",
              "name": "quotationInWei",
              "type": "uint256"
            },
            {
              "internalType": "uint8",
              "name": "responseMessageType",
              "type": "uint8"
            },
            {
              "internalType": "uint256",
              "name": "postKey",
              "type": "uint256"
            },
            {
              "internalType": "uint256",
              "name": "messageIndex",
              "type": "uint256"
            },
            {
              "internalType": "bool",
              "name": "isAccepted",
              "type": "bool"
            },
            {
              "internalType": "bool",
              "name": "isPaid",
              "type": "bool"
            },
            {
              "internalType": "uint256",
              "name": "createdAt",
              "type": "uint256"
            }
          ],
          "internalType": "struct PostResponseMessage.PostResponseMessageBean",
          "name": "",
          "type": "tuple"
        }
      ],
      "stateMutability": "view",
      "type": "function"
    }
  ],
  "bytecode": "0x60806040523480156200001157600080fd5b506040516200167738038062001677833981810160405281019062000037919062000225565b86600960006101000a81548173ffffffffffffffffffffffffffffffffffffffff021916908373ffffffffffffffffffffffffffffffffffffffff160217905550856000806101000a81548173ffffffffffffffffffffffffffffffffffffffff021916908373ffffffffffffffffffffffffffffffffffffffff160217905550846002819055506002546001819055508360038190555082600460006101000a81548160ff021916908360ff16021790555081600581905550806006819055506000600760006101000a81548160ff0219169083151502179055506000600760016101000a81548160ff0219169083151502179055504260088190555050505050505050620002d8565b600080fd5b600073ffffffffffffffffffffffffffffffffffffffff82169050919050565b6000620001748262000147565b9050919050565b620001868162000167565b81146200019257600080fd5b50565b600081519050620001a6816200017b565b92915050565b6000819050919050565b620001c181620001ac565b8114620001cd57600080fd5b50565b600081519050620001e181620001b6565b92915050565b600060ff82169050919050565b620001ff81620001e7565b81146200020b57600080fd5b50565b6000815190506200021f81620001f4565b92915050565b600080600080600080600060e0888a03121562000247576200024662000142565b5b6000620002578a828b0162000195565b97505060206200026a8a828b0162000195565b96505060406200027d8a828b01620001d0565b9550506060620002908a828b01620001d0565b9450506080620002a38a828b016200020e565b93505060a0620002b68a828b01620001d0565b92505060c0620002c98a828b01620001d0565b91505092959891949750929550565b61138f80620002e86000396000f3fe6080604052600436106100e15760003560e01c8063a03a202e1161007f578063c32b9b5311610059578063c32b9b5314610449578063cf09e0d014610453578063d67bdd251461047e578063fc1ed437146104a9576102b9565b8063a03a202e146103e9578063aa8c217c14610414578063abf4d6c41461043f576102b9565b80633d855485116100bb5780633d8554851461033d5780633e784e63146103685780635051a5ec1461039357806382fa096a146103be576102b9565b806304dc4cda146102be578063209ebc08146102e95780633013aa2514610314576102b9565b366102b95760003411610129576040517f08c379a000000000000000000000000000000000000000000000000000000000815260040161012090610baf565b60405180910390fd5b60011515600760009054906101000a900460ff1615151461017f576040517f08c379a000000000000000000000000000000000000000000000000000000000815260040161017690610c41565b60405180910390fd5b346003546002546101909190610c9a565b146101d0576040517f08c379a00000000000000000000000000000000000000000000000000000000081526004016101c790610d28565b60405180910390fd5b60001515600760019054906101000a900460ff16151514610226576040517f08c379a000000000000000000000000000000000000000000000000000000000815260040161021d90610d94565b60405180910390fd5b6000600460009054906101000a900460ff1660ff160361024d576102486104d4565b6102b7565b6001600460009054906101000a900460ff1660ff16036102745761026f6106e3565b6102b6565b60006102b5576040517f08c379a00000000000000000000000000000000000000000000000000000000081526004016102ac90610e00565b60405180910390fd5b5b5b005b600080fd5b3480156102ca57600080fd5b506102d36108f2565b6040516102e09190610e3c565b60405180910390f35b3480156102f557600080fd5b506102fe610905565b60405161030b9190610e72565b60405180910390f35b34801561032057600080fd5b5061033b60048036038101906103369190610ebe565b610918565b005b34801561034957600080fd5b50610352610983565b60405161035f9190610efa565b60405180910390f35b34801561037457600080fd5b5061037d610989565b60405161038a9190610efa565b60405180910390f35b34801561039f57600080fd5b506103a861098f565b6040516103b59190610e72565b60405180910390f35b3480156103ca57600080fd5b506103d36109a2565b6040516103e0919061103a565b60405180910390f35b3480156103f557600080fd5b506103fe610aad565b60405161040b9190610efa565b60405180910390f35b34801561042057600080fd5b50610429610ab3565b6040516104369190610efa565b60405180910390f35b6104476104d4565b005b6104516106e3565b005b34801561045f57600080fd5b50610468610ab9565b6040516104759190610efa565b60405180910390f35b34801561048a57600080fd5b50610493610abf565b6040516104a09190611065565b60405180910390f35b3480156104b557600080fd5b506104be610ae3565b6040516104cb9190610efa565b60405180910390f35b60008054906101000a900473ffffffffffffffffffffffffffffffffffffffff1673ffffffffffffffffffffffffffffffffffffffff163373ffffffffffffffffffffffffffffffffffffffff1603610562576040517f08c379a0000000000000000000000000000000000000000000000000000000008152600401610559906110f2565b60405180910390fd5b6000600960009054906101000a900473ffffffffffffffffffffffffffffffffffffffff1673ffffffffffffffffffffffffffffffffffffffff16346005546006546040516024016105b5929190611112565b6040516020818303038152906040527f3d480db5000000000000000000000000000000000000000000000000000000007bffffffffffffffffffffffffffffffffffffffffffffffffffffffff19166020820180517bffffffffffffffffffffffffffffffffffffffffffffffffffffffff838183161783525050505060405161063f91906111ac565b60006040518083038185875af1925050503d806000811461067c576040519150601f19603f3d011682016040523d82523d6000602084013e610681565b606091505b50509050806106c5576040517f08c379a00000000000000000000000000000000000000000000000000000000081526004016106bc9061120f565b60405180910390fd5b6001600760016101000a81548160ff02191690831515021790555050565b60008054906101000a900473ffffffffffffffffffffffffffffffffffffffff1673ffffffffffffffffffffffffffffffffffffffff163373ffffffffffffffffffffffffffffffffffffffff1614610771576040517f08c379a0000000000000000000000000000000000000000000000000000000008152600401610768906112c7565b60405180910390fd5b6000600960009054906101000a900473ffffffffffffffffffffffffffffffffffffffff1673ffffffffffffffffffffffffffffffffffffffff16346005546006546040516024016107c4929190611112565b6040516020818303038152906040527f0876290a000000000000000000000000000000000000000000000000000000007bffffffffffffffffffffffffffffffffffffffffffffffffffffffff19166020820180517bffffffffffffffffffffffffffffffffffffffffffffffffffffffff838183161783525050505060405161084e91906111ac565b60006040518083038185875af1925050503d806000811461088b576040519150601f19603f3d011682016040523d82523d6000602084013e610890565b606091505b50509050806108d4576040517f08c379a00000000000000000000000000000000000000000000000000000000081526004016108cb9061120f565b60405180910390fd5b6001600760016101000a81548160ff02191690831515021790555050565b600460009054906101000a900460ff1681565b600760019054906101000a900460ff1681565b80600760006101000a81548160ff0219169083151502179055507f9161e5ec70df4a8ef9f6085e3435135f3da64c7ec32c271912e1ca8d4afbd7c3600460009054906101000a900460ff1660055460065460405161097893929190611322565b60405180910390a150565b60055481565b60065481565b600760009054906101000a900460ff1681565b6109aa610ae9565b6109b2610ae9565b60008054906101000a900473ffffffffffffffffffffffffffffffffffffffff16816000019073ffffffffffffffffffffffffffffffffffffffff16908173ffffffffffffffffffffffffffffffffffffffff1681525050600254816020018181525050600354816040018181525050600460009054906101000a900460ff16816060019060ff16908160ff16815250506005548160800181815250506006548160a0018181525050600760009054906101000a900460ff168160c0019015159081151581525050600760019054906101000a900460ff168160e0019015159081151581525050600854816101000181815250508091505090565b60035481565b60025481565b60085481565b60008054906101000a900473ffffffffffffffffffffffffffffffffffffffff1681565b60015481565b604051806101200160405280600073ffffffffffffffffffffffffffffffffffffffff1681526020016000815260200160008152602001600060ff1681526020016000815260200160008152602001600015158152602001600015158152602001600081525090565b600082825260208201905092915050565b7f696e76616c6964207061796d656e740000000000000000000000000000000000600082015250565b6000610b99600f83610b52565b9150610ba482610b63565b602082019050919050565b60006020820190508181036000830152610bc881610b8c565b9050919050565b7f796f757220726573706f6e736520686173206e6f74206265656e20616363657060008201527f7465642062792073656c6c657220796574000000000000000000000000000000602082015250565b6000610c2b603183610b52565b9150610c3682610bcf565b604082019050919050565b60006020820190508181036000830152610c5a81610c1e565b9050919050565b6000819050919050565b7f4e487b7100000000000000000000000000000000000000000000000000000000600052601160045260246000fd5b6000610ca582610c61565b9150610cb083610c61565b9250828202610cbe81610c61565b91508282048414831517610cd557610cd4610c6b565b5b5092915050565b7f4e6f742066756c6c792070616964207965740000000000000000000000000000600082015250565b6000610d12601283610b52565b9150610d1d82610cdc565b602082019050919050565b60006020820190508181036000830152610d4181610d05565b9050919050565b7f4f7264657220697320616c726561647920706169642100000000000000000000600082015250565b6000610d7e601683610b52565b9150610d8982610d48565b602082019050919050565b60006020820190508181036000830152610dad81610d71565b9050919050565b7f696e76616c696420726573706f6e7365206d6573736167652074797065000000600082015250565b6000610dea601d83610b52565b9150610df582610db4565b602082019050919050565b60006020820190508181036000830152610e1981610ddd565b9050919050565b600060ff82169050919050565b610e3681610e20565b82525050565b6000602082019050610e516000830184610e2d565b92915050565b60008115159050919050565b610e6c81610e57565b82525050565b6000602082019050610e876000830184610e63565b92915050565b600080fd5b610e9b81610e57565b8114610ea657600080fd5b50565b600081359050610eb881610e92565b92915050565b600060208284031215610ed457610ed3610e8d565b5b6000610ee284828501610ea9565b91505092915050565b610ef481610c61565b82525050565b6000602082019050610f0f6000830184610eeb565b92915050565b600073ffffffffffffffffffffffffffffffffffffffff82169050919050565b6000610f4082610f15565b9050919050565b610f5081610f35565b82525050565b610f5f81610c61565b82525050565b610f6e81610e20565b82525050565b610f7d81610e57565b82525050565b61012082016000820151610f9a6000850182610f47565b506020820151610fad6020850182610f56565b506040820151610fc06040850182610f56565b506060820151610fd36060850182610f65565b506080820151610fe66080850182610f56565b5060a0820151610ff960a0850182610f56565b5060c082015161100c60c0850182610f74565b5060e082015161101f60e0850182610f74565b50610100820151611034610100850182610f56565b50505050565b6000610120820190506110506000830184610f83565b92915050565b61105f81610f35565b82525050565b600060208201905061107a6000830184611056565b92915050565b7f596f752063616e6e6f74206d616b652061207061796d656e7420746f20796f7560008201527f72206f776e2073656c6c696e6720726573706f6e7365206d6573736167650000602082015250565b60006110dc603e83610b52565b91506110e782611080565b604082019050919050565b6000602082019050818103600083015261110b816110cf565b9050919050565b60006040820190506111276000830185610eeb565b6111346020830184610eeb565b9392505050565b600081519050919050565b600081905092915050565b60005b8381101561116f578082015181840152602081019050611154565b60008484015250505050565b60006111868261113b565b6111908185611146565b93506111a0818560208601611151565b80840191505092915050565b60006111b8828461117b565b915081905092915050565b7f7061796d656e74206661696c6564000000000000000000000000000000000000600082015250565b60006111f9600e83610b52565b9150611204826111c3565b602082019050919050565b60006020820190508181036000830152611228816111ec565b9050919050565b7f4f6e6c7920746865206d6573736167652073656e6465722077686f2073656e7460008201527f207468697320726573706f6e736520746f206163717569726520656c6563747260208201527f696369747920756e6974732063616e206d616b652061207061796d656e740000604082015250565b60006112b1605e83610b52565b91506112bc8261122f565b606082019050919050565b600060208201905081810360008301526112e0816112a4565b9050919050565b6000819050919050565b600061130c61130761130284610e20565b6112e7565b610c61565b9050919050565b61131c816112f1565b82525050565b60006060820190506113376000830186611313565b6113446020830185610eeb565b6113516040830184610eeb565b94935050505056fea26469706673582212200f309587aad133a1358204046cb852200eb39670dac388f1c7c6edf67659323564736f6c63430008110033",
  "immutableReferences": {},
  "source": "// SPDX-License-Identifier: MIT\n\npragma solidity ^0.8.0;\n\n\ncontract PostResponseMessage {\n    \n    address public messageSender;\n    uint public initialAmount;\n    uint public amount;\n    uint public quotationInWei;\n    uint8 public responseMessageType;   // 0 - purchase post response; 1 - selling post response\n    uint public postKey;                // identify which purchase post it belongs to\n    uint public messageIndex;           // index of message in array\n    bool public isAccepted;             // identify if response message is accepted\n    bool public isPaid;\n    uint public createdAt;\n    \n    \n    // reference to system contract\n    address systemContractAddress;\n\n    event responseMessageAccepted(uint responseMessageType, uint postKey, uint messageIndex);\n\n\n    constructor(address _systemContractAddress, address _messageSender, uint _amount, uint _quotationInWei, uint8 _responseMessageType, uint _postKey, uint _messageIndex)  {\n        systemContractAddress = _systemContractAddress;\n        messageSender = _messageSender;\n        amount = _amount;\n        initialAmount = amount;\n        quotationInWei = _quotationInWei;\n        responseMessageType = _responseMessageType;\n        postKey = _postKey;\n        messageIndex = _messageIndex;\n        isAccepted = false;\n        isPaid = false;\n        createdAt = block.timestamp;\n    }\n\n    //  isAccepted variable setter\n    function setIsAccepted(bool _isAccepted) public {\n        isAccepted = _isAccepted;\n        emit responseMessageAccepted(responseMessageType, postKey, messageIndex);\n    }\n\n    receive() external payable {\n        // 1. data validation\n        // 1.1 ether has to be positive value; response has to be accpeted before making a payment\n        require(msg.value > 0 , \"invalid payment\");\n        require(isAccepted == true, \"your response has not been accepted by seller yet\");\n        \n        // 1.2 response message only accept full payment; response cannot be paid twice\n        require(amount * quotationInWei == msg.value, \"Not fully paid yet\"); \n        require(isPaid == false, \"Order is already paid!\");\n\n        // 2. invoke payment function based on response message type\n        if (responseMessageType == 0) {\n            triggerPurchasePostPayment();\n        } else if (responseMessageType == 1){\n            triggerSellingPostPayment();\n        } else {\n            require(false, \"invalid response message type\");\n        }\n        \n    }\n\n\n    // trigger seller side payment process\n    function triggerSellingPostPayment() public payable {\n        // Only the message sender who sent this response to acquire electricity units can make a payment.\n        require(msg.sender == messageSender, \"Only the message sender who sent this response to acquire electricity units can make a payment\"); \n\n        // 2. transfer received ether to system contract for further processing\n        (bool success, ) = systemContractAddress.call{value:msg.value}(abi.encodeWithSignature(\"handleSellingPostPayment(uint256,uint256)\", postKey, messageIndex));\n        \n        // 3. if the payment process handled by the system contract failed, rollback the whole transaction\n        require(success, \"payment failed\");\n        isPaid = true;\n    }\n\n    // trigger buyer side payment process\n    function triggerPurchasePostPayment() public payable{\n        // 1. You cannot make a payment to your own selling response message when you try to sell your\n        require(msg.sender != messageSender, \"You cannot make a payment to your own selling response message\");\n\n        // 2. transfer received ether to system contract\n        (bool success, ) = systemContractAddress.call{value:msg.value}(abi.encodeWithSignature(\"handlePurchasePostPostPayment(uint256,uint256)\", postKey, messageIndex));\n        // 3. if the payment process handled by the system contract failed, rollback the whole transaction\n        require(success, \"payment failed\");\n        isPaid = true;\n    }\n\n    struct PostResponseMessageBean {\n        address messageSender;\n        uint amount;\n        uint quotationInWei;\n        uint8 responseMessageType;   // 0 - purchase post response; 1 - selling post response\n        uint postKey;                // identify which purchase post it belongs to\n        uint messageIndex;           // index of message in array\n        bool isAccepted;             // identify if response message is accepted\n        bool isPaid;\n        uint createdAt;\n    }\n\n    function returnPostResponseMessageBean() public view returns(PostResponseMessageBean memory) {\n        \n        PostResponseMessageBean memory bean;\n        bean.messageSender = messageSender;\n        bean.amount = amount;\n        bean.quotationInWei = quotationInWei;\n        bean.responseMessageType = responseMessageType;\n        bean.postKey = postKey;\n        bean.messageIndex = messageIndex;\n        bean.isAccepted = isAccepted;\n        bean.isPaid = isPaid;\n        bean.createdAt = createdAt;\n        \n        return bean;\n\n    }\n\n}",
  "sourcePath": "/Users/richard/Doc//sydney_study/22s2/5703/vue-web3-5703/truffle/contracts/PostResponseMessage.sol",
  "compiler": {
    "name": "solc",
    "version": "0.8.17+commit.8df45f5f.Emscripten.clang"
  },
  "schemaVersion": "3.4.9",
  "updatedAt": "2022-11-11T11:27:33.497Z",
  "devdoc": {
    "kind": "dev",
    "methods": {},
    "version": 1
  },
  "userdoc": {
    "kind": "user",
    "methods": {},
    "version": 1
  }
}