{
  "contractName": "PostResponseMessage",
  "abi": [
    {
      "inputs": [
        {
          "internalType": "address",
          "name": "_systemContractAddress",
          "type": "address"
        },
        {
          "internalType": "address",
          "name": "_messageSender",
          "type": "address"
        },
        {
          "internalType": "uint256",
          "name": "_amount",
          "type": "uint256"
        },
        {
          "internalType": "uint256",
          "name": "_quotationInWei",
          "type": "uint256"
        },
        {
          "internalType": "uint8",
          "name": "_responseMessageType",
          "type": "uint8"
        },
        {
          "internalType": "uint256",
          "name": "_postKey",
          "type": "uint256"
        },
        {
          "internalType": "uint256",
          "name": "_messageIndex",
          "type": "uint256"
        }
      ],
      "stateMutability": "nonpayable",
      "type": "constructor"
    },
    {
      "anonymous": false,
      "inputs": [
        {
          "indexed": false,
          "internalType": "uint256",
          "name": "responseMessageType",
          "type": "uint256"
        },
        {
          "indexed": false,
          "internalType": "uint256",
          "name": "postKey",
          "type": "uint256"
        },
        {
          "indexed": false,
          "internalType": "uint256",
          "name": "messageIndex",
          "type": "uint256"
        }
      ],
      "name": "responseMessageAccepted",
      "type": "event"
    },
    {
      "inputs": [],
      "name": "amount",
      "outputs": [
        {
          "internalType": "uint256",
          "name": "",
          "type": "uint256"
        }
      ],
      "stateMutability": "view",
      "type": "function"
    },
    {
      "inputs": [],
      "name": "createdAt",
      "outputs": [
        {
          "internalType": "uint256",
          "name": "",
          "type": "uint256"
        }
      ],
      "stateMutability": "view",
      "type": "function"
    },
    {
      "inputs": [],
      "name": "isAccepted",
      "outputs": [
        {
          "internalType": "bool",
          "name": "",
          "type": "bool"
        }
      ],
      "stateMutability": "view",
      "type": "function"
    },
    {
      "inputs": [],
      "name": "isPaid",
      "outputs": [
        {
          "internalType": "bool",
          "name": "",
          "type": "bool"
        }
      ],
      "stateMutability": "view",
      "type": "function"
    },
    {
      "inputs": [],
      "name": "messageIndex",
      "outputs": [
        {
          "internalType": "uint256",
          "name": "",
          "type": "uint256"
        }
      ],
      "stateMutability": "view",
      "type": "function"
    },
    {
      "inputs": [],
      "name": "messageSender",
      "outputs": [
        {
          "internalType": "address",
          "name": "",
          "type": "address"
        }
      ],
      "stateMutability": "view",
      "type": "function"
    },
    {
      "inputs": [],
      "name": "postKey",
      "outputs": [
        {
          "internalType": "uint256",
          "name": "",
          "type": "uint256"
        }
      ],
      "stateMutability": "view",
      "type": "function"
    },
    {
      "inputs": [],
      "name": "quotationInWei",
      "outputs": [
        {
          "internalType": "uint256",
          "name": "",
          "type": "uint256"
        }
      ],
      "stateMutability": "view",
      "type": "function"
    },
    {
      "inputs": [],
      "name": "responseMessageType",
      "outputs": [
        {
          "internalType": "uint8",
          "name": "",
          "type": "uint8"
        }
      ],
      "stateMutability": "view",
      "type": "function"
    },
    {
      "stateMutability": "payable",
      "type": "receive"
    },
    {
      "inputs": [
        {
          "internalType": "bool",
          "name": "_isAccepted",
          "type": "bool"
        }
      ],
      "name": "setIsAccepted",
      "outputs": [],
      "stateMutability": "nonpayable",
      "type": "function"
    },
    {
      "inputs": [],
      "name": "triggerSellingPostPayment",
      "outputs": [],
      "stateMutability": "payable",
      "type": "function"
    },
    {
      "inputs": [],
      "name": "triggerPurchasePostPayment",
      "outputs": [],
      "stateMutability": "payable",
      "type": "function"
    }
  ],
  "bytecode": "0x60806040523480156200001157600080fd5b50604051620013593803806200135983398181016040528101906200003791906200021c565b86600860006101000a81548173ffffffffffffffffffffffffffffffffffffffff021916908373ffffffffffffffffffffffffffffffffffffffff160217905550856000806101000a81548173ffffffffffffffffffffffffffffffffffffffff021916908373ffffffffffffffffffffffffffffffffffffffff160217905550846001819055508360028190555082600360006101000a81548160ff021916908360ff16021790555081600481905550806005819055506000600660006101000a81548160ff0219169083151502179055506000600660016101000a81548160ff0219169083151502179055504260078190555050505050505050620002cf565b600080fd5b600073ffffffffffffffffffffffffffffffffffffffff82169050919050565b60006200016b826200013e565b9050919050565b6200017d816200015e565b81146200018957600080fd5b50565b6000815190506200019d8162000172565b92915050565b6000819050919050565b620001b881620001a3565b8114620001c457600080fd5b50565b600081519050620001d881620001ad565b92915050565b600060ff82169050919050565b620001f681620001de565b81146200020257600080fd5b50565b6000815190506200021681620001eb565b92915050565b600080600080600080600060e0888a0312156200023e576200023d62000139565b5b60006200024e8a828b016200018c565b9750506020620002618a828b016200018c565b9650506040620002748a828b01620001c7565b9550506060620002878a828b01620001c7565b94505060806200029a8a828b0162000205565b93505060a0620002ad8a828b01620001c7565b92505060c0620002c08a828b01620001c7565b91505092959891949750929550565b61107a80620002df6000396000f3fe6080604052600436106100ab5760003560e01c8063a03a202e11610064578063a03a202e14610388578063aa8c217c146103b3578063abf4d6c4146103de578063c32b9b53146103e8578063cf09e0d0146103f2578063d67bdd251461041d57610283565b806304dc4cda14610288578063209ebc08146102b35780633013aa25146102de5780633d855485146103075780633e784e63146103325780635051a5ec1461035d57610283565b3661028357600034116100f3576040517f08c379a00000000000000000000000000000000000000000000000000000000081526004016100ea906109a9565b60405180910390fd5b60011515600660009054906101000a900460ff16151514610149576040517f08c379a000000000000000000000000000000000000000000000000000000000815260040161014090610a3b565b60405180910390fd5b3460025460015461015a9190610a94565b1461019a576040517f08c379a000000000000000000000000000000000000000000000000000000000815260040161019190610b22565b60405180910390fd5b60001515600660019054906101000a900460ff161515146101f0576040517f08c379a00000000000000000000000000000000000000000000000000000000081526004016101e790610b8e565b60405180910390fd5b6000600360009054906101000a900460ff1660ff160361021757610212610448565b610281565b6001600360009054906101000a900460ff1660ff160361023e57610239610657565b610280565b600061027f576040517f08c379a000000000000000000000000000000000000000000000000000000000815260040161027690610bfa565b60405180910390fd5b5b5b005b600080fd5b34801561029457600080fd5b5061029d610866565b6040516102aa9190610c36565b60405180910390f35b3480156102bf57600080fd5b506102c8610879565b6040516102d59190610c6c565b60405180910390f35b3480156102ea57600080fd5b5061030560048036038101906103009190610cb8565b61088c565b005b34801561031357600080fd5b5061031c6108f7565b6040516103299190610cf4565b60405180910390f35b34801561033e57600080fd5b506103476108fd565b6040516103549190610cf4565b60405180910390f35b34801561036957600080fd5b50610372610903565b60405161037f9190610c6c565b60405180910390f35b34801561039457600080fd5b5061039d610916565b6040516103aa9190610cf4565b60405180910390f35b3480156103bf57600080fd5b506103c861091c565b6040516103d59190610cf4565b60405180910390f35b6103e6610448565b005b6103f0610657565b005b3480156103fe57600080fd5b50610407610922565b6040516104149190610cf4565b60405180910390f35b34801561042957600080fd5b50610432610928565b60405161043f9190610d50565b60405180910390f35b60008054906101000a900473ffffffffffffffffffffffffffffffffffffffff1673ffffffffffffffffffffffffffffffffffffffff163373ffffffffffffffffffffffffffffffffffffffff16036104d6576040517f08c379a00000000000000000000000000000000000000000000000000000000081526004016104cd90610ddd565b60405180910390fd5b6000600860009054906101000a900473ffffffffffffffffffffffffffffffffffffffff1673ffffffffffffffffffffffffffffffffffffffff1634600454600554604051602401610529929190610dfd565b6040516020818303038152906040527f3d480db5000000000000000000000000000000000000000000000000000000007bffffffffffffffffffffffffffffffffffffffffffffffffffffffff19166020820180517bffffffffffffffffffffffffffffffffffffffffffffffffffffffff83818316178352505050506040516105b39190610e97565b60006040518083038185875af1925050503d80600081146105f0576040519150601f19603f3d011682016040523d82523d6000602084013e6105f5565b606091505b5050905080610639576040517f08c379a000000000000000000000000000000000000000000000000000000000815260040161063090610efa565b60405180910390fd5b6001600660016101000a81548160ff02191690831515021790555050565b60008054906101000a900473ffffffffffffffffffffffffffffffffffffffff1673ffffffffffffffffffffffffffffffffffffffff163373ffffffffffffffffffffffffffffffffffffffff16146106e5576040517f08c379a00000000000000000000000000000000000000000000000000000000081526004016106dc90610fb2565b60405180910390fd5b6000600860009054906101000a900473ffffffffffffffffffffffffffffffffffffffff1673ffffffffffffffffffffffffffffffffffffffff1634600454600554604051602401610738929190610dfd565b6040516020818303038152906040527f0876290a000000000000000000000000000000000000000000000000000000007bffffffffffffffffffffffffffffffffffffffffffffffffffffffff19166020820180517bffffffffffffffffffffffffffffffffffffffffffffffffffffffff83818316178352505050506040516107c29190610e97565b60006040518083038185875af1925050503d80600081146107ff576040519150601f19603f3d011682016040523d82523d6000602084013e610804565b606091505b5050905080610848576040517f08c379a000000000000000000000000000000000000000000000000000000000815260040161083f90610efa565b60405180910390fd5b6001600660016101000a81548160ff02191690831515021790555050565b600360009054906101000a900460ff1681565b600660019054906101000a900460ff1681565b80600660006101000a81548160ff0219169083151502179055507f9161e5ec70df4a8ef9f6085e3435135f3da64c7ec32c271912e1ca8d4afbd7c3600360009054906101000a900460ff166004546005546040516108ec9392919061100d565b60405180910390a150565b60045481565b60055481565b600660009054906101000a900460ff1681565b60025481565b60015481565b60075481565b60008054906101000a900473ffffffffffffffffffffffffffffffffffffffff1681565b600082825260208201905092915050565b7f696e76616c6964207061796d656e740000000000000000000000000000000000600082015250565b6000610993600f8361094c565b915061099e8261095d565b602082019050919050565b600060208201905081810360008301526109c281610986565b9050919050565b7f796f757220726573706f6e736520686173206e6f74206265656e20616363657060008201527f7465642062792073656c6c657220796574000000000000000000000000000000602082015250565b6000610a2560318361094c565b9150610a30826109c9565b604082019050919050565b60006020820190508181036000830152610a5481610a18565b9050919050565b6000819050919050565b7f4e487b7100000000000000000000000000000000000000000000000000000000600052601160045260246000fd5b6000610a9f82610a5b565b9150610aaa83610a5b565b9250828202610ab881610a5b565b91508282048414831517610acf57610ace610a65565b5b5092915050565b7f4e6f742066756c6c792070616964207965740000000000000000000000000000600082015250565b6000610b0c60128361094c565b9150610b1782610ad6565b602082019050919050565b60006020820190508181036000830152610b3b81610aff565b9050919050565b7f4f7264657220697320616c726561647920706169642100000000000000000000600082015250565b6000610b7860168361094c565b9150610b8382610b42565b602082019050919050565b60006020820190508181036000830152610ba781610b6b565b9050919050565b7f696e76616c696420726573706f6e7365206d6573736167652074797065000000600082015250565b6000610be4601d8361094c565b9150610bef82610bae565b602082019050919050565b60006020820190508181036000830152610c1381610bd7565b9050919050565b600060ff82169050919050565b610c3081610c1a565b82525050565b6000602082019050610c4b6000830184610c27565b92915050565b60008115159050919050565b610c6681610c51565b82525050565b6000602082019050610c816000830184610c5d565b92915050565b600080fd5b610c9581610c51565b8114610ca057600080fd5b50565b600081359050610cb281610c8c565b92915050565b600060208284031215610cce57610ccd610c87565b5b6000610cdc84828501610ca3565b91505092915050565b610cee81610a5b565b82525050565b6000602082019050610d096000830184610ce5565b92915050565b600073ffffffffffffffffffffffffffffffffffffffff82169050919050565b6000610d3a82610d0f565b9050919050565b610d4a81610d2f565b82525050565b6000602082019050610d656000830184610d41565b92915050565b7f596f752063616e6e6f74206d616b652061207061796d656e7420746f20796f7560008201527f72206f776e2073656c6c696e6720726573706f6e7365206d6573736167650000602082015250565b6000610dc7603e8361094c565b9150610dd282610d6b565b604082019050919050565b60006020820190508181036000830152610df681610dba565b9050919050565b6000604082019050610e126000830185610ce5565b610e1f6020830184610ce5565b9392505050565b600081519050919050565b600081905092915050565b60005b83811015610e5a578082015181840152602081019050610e3f565b60008484015250505050565b6000610e7182610e26565b610e7b8185610e31565b9350610e8b818560208601610e3c565b80840191505092915050565b6000610ea38284610e66565b915081905092915050565b7f7061796d656e74206661696c6564000000000000000000000000000000000000600082015250565b6000610ee4600e8361094c565b9150610eef82610eae565b602082019050919050565b60006020820190508181036000830152610f1381610ed7565b9050919050565b7f4f6e6c7920746865206d6573736167652073656e6465722077686f2073656e7460008201527f207468697320726573706f6e736520746f206163717569726520656c6563747260208201527f696369747920756e6974732063616e206d616b652061207061796d656e740000604082015250565b6000610f9c605e8361094c565b9150610fa782610f1a565b606082019050919050565b60006020820190508181036000830152610fcb81610f8f565b9050919050565b6000819050919050565b6000610ff7610ff2610fed84610c1a565b610fd2565b610a5b565b9050919050565b61100781610fdc565b82525050565b60006060820190506110226000830186610ffe565b61102f6020830185610ce5565b61103c6040830184610ce5565b94935050505056fea26469706673582212204ba5d342127b9b0f74587e3e707dc368ed0522f6b24de47906bd94573dd34bf964736f6c63430008110033",
  "immutableReferences": {},
  "source": "// SPDX-License-Identifier: MIT\n\npragma solidity ^0.8.0;\n\ncontract PostResponseMessage {\n    \n    address public messageSender;\n    uint public amount;\n    uint public quotationInWei;\n    uint8 public responseMessageType;   // 0 - purchase post response; 1 - selling post response\n    uint public postKey;                // identify which purchase post it belongs to\n    uint public messageIndex;           // index of message in array\n    bool public isAccepted;             // identify if response message is accepted\n    bool public isPaid;\n    uint public createdAt;\n    \n    \n    // reference to system contract\n    address systemContractAddress;\n\n    event responseMessageAccepted(uint responseMessageType, uint postKey, uint messageIndex);\n\n\n    constructor(address _systemContractAddress, address _messageSender, uint _amount, uint _quotationInWei, uint8 _responseMessageType, uint _postKey, uint _messageIndex)  {\n        systemContractAddress = _systemContractAddress;\n        messageSender = _messageSender;\n        amount = _amount;\n        quotationInWei = _quotationInWei;\n        responseMessageType = _responseMessageType;\n        postKey = _postKey;\n        messageIndex = _messageIndex;\n        isAccepted = false;\n        isPaid = false;\n        createdAt = block.timestamp;\n    }\n\n    //  isAccepted variable setter\n    function setIsAccepted(bool _isAccepted) public {\n        isAccepted = _isAccepted;\n        emit responseMessageAccepted(responseMessageType, postKey, messageIndex);\n    }\n\n    receive() external payable {\n        // 1. data validation\n        // 1.1 ether has to be positive value; response has to be accpeted before making a payment\n        require(msg.value > 0 , \"invalid payment\");\n        require(isAccepted == true, \"your response has not been accepted by seller yet\");\n        \n        // 1.2 response message only accept full payment; response cannot be paid twice\n        require(amount * quotationInWei == msg.value, \"Not fully paid yet\"); \n        require(isPaid == false, \"Order is already paid!\");\n\n        // 2. invoke payment function based on response message type\n        if (responseMessageType == 0) {\n            triggerPurchasePostPayment();\n        } else if (responseMessageType == 1){\n            triggerSellingPostPayment();\n        } else {\n            require(false, \"invalid response message type\");\n        }\n        \n    }\n\n\n    // trigger seller side payment process\n    function triggerSellingPostPayment() public payable {\n        // Only the message sender who sent this response to acquire electricity units can make a payment.\n        require(msg.sender == messageSender, \"Only the message sender who sent this response to acquire electricity units can make a payment\"); \n\n        // 2. transfer received ether to system contract for further processing\n        (bool success, ) = systemContractAddress.call{value:msg.value}(abi.encodeWithSignature(\"handleSellingPostPayment(uint256,uint256)\", postKey, messageIndex));\n        \n        // 3. if the payment process handled by the system contract failed, rollback the whole transaction\n        require(success, \"payment failed\");\n        isPaid = true;\n    }\n\n    // trigger buyer side payment process\n    function triggerPurchasePostPayment() public payable{\n        // 1. You cannot make a payment to your own selling response message when you try to sell your\n        require(msg.sender != messageSender, \"You cannot make a payment to your own selling response message\");\n\n        // 2. transfer received ether to system contract\n        (bool success, ) = systemContractAddress.call{value:msg.value}(abi.encodeWithSignature(\"handlePurchasePostPostPayment(uint256,uint256)\", postKey, messageIndex));\n        // 3. if the payment process handled by the system contract failed, rollback the whole transaction\n        require(success, \"payment failed\");\n        isPaid = true;\n    }\n\n}",
  "sourcePath": "/Users/richard/Doc//sydney_study/22s2/5703/vue-web3-5703/truffle/contracts/PostResponseMessage.sol",
  "compiler": {
    "name": "solc",
    "version": "0.8.17+commit.8df45f5f.Emscripten.clang"
  },
  "schemaVersion": "3.4.9",
  "updatedAt": "2022-09-24T10:10:35.839Z",
  "devdoc": {
    "kind": "dev",
    "methods": {},
    "version": 1
  },
  "userdoc": {
    "kind": "user",
    "methods": {},
    "version": 1
  }
}