{
  "contractName": "SellerService",
  "abi": [
    {
      "inputs": [
        {
          "internalType": "contract StatisticsService",
          "name": "_statisticsService",
          "type": "address"
        },
        {
          "internalType": "contract UserService",
          "name": "_userService",
          "type": "address"
        },
        {
          "internalType": "contract Division",
          "name": "_divisionUtils",
          "type": "address"
        }
      ],
      "stateMutability": "nonpayable",
      "type": "constructor"
    },
    {
      "anonymous": false,
      "inputs": [
        {
          "indexed": false,
          "internalType": "address",
          "name": "creator",
          "type": "address"
        },
        {
          "indexed": false,
          "internalType": "uint256",
          "name": "postKey",
          "type": "uint256"
        },
        {
          "indexed": false,
          "internalType": "uint256",
          "name": "_priceToBuy",
          "type": "uint256"
        },
        {
          "indexed": false,
          "internalType": "uint256",
          "name": "_amountToBuy",
          "type": "uint256"
        }
      ],
      "name": "SellingPostCreated",
      "type": "event"
    },
    {
      "anonymous": false,
      "inputs": [
        {
          "indexed": false,
          "internalType": "uint256",
          "name": "paymentAmount",
          "type": "uint256"
        },
        {
          "indexed": false,
          "internalType": "uint256",
          "name": "sellingPostKey",
          "type": "uint256"
        },
        {
          "indexed": false,
          "internalType": "address",
          "name": "responseMessageAddress",
          "type": "address"
        }
      ],
      "name": "SellingPostPaymentSuccess",
      "type": "event"
    },
    {
      "anonymous": false,
      "inputs": [
        {
          "indexed": false,
          "internalType": "address",
          "name": "creator",
          "type": "address"
        },
        {
          "indexed": false,
          "internalType": "address",
          "name": "responseMessageAddress",
          "type": "address"
        }
      ],
      "name": "SellingPostResponseMessageCreated",
      "type": "event"
    },
    {
      "inputs": [
        {
          "internalType": "uint256",
          "name": "",
          "type": "uint256"
        }
      ],
      "name": "averagePriceforSell",
      "outputs": [
        {
          "internalType": "uint256",
          "name": "",
          "type": "uint256"
        }
      ],
      "stateMutability": "view",
      "type": "function"
    },
    {
      "inputs": [],
      "name": "averagePriceforSellKey",
      "outputs": [
        {
          "internalType": "uint256",
          "name": "",
          "type": "uint256"
        }
      ],
      "stateMutability": "view",
      "type": "function"
    },
    {
      "inputs": [],
      "name": "recentAveragePriceforSell",
      "outputs": [
        {
          "internalType": "string",
          "name": "",
          "type": "string"
        }
      ],
      "stateMutability": "view",
      "type": "function"
    },
    {
      "inputs": [],
      "name": "sellingPostCounter",
      "outputs": [
        {
          "internalType": "uint256",
          "name": "",
          "type": "uint256"
        }
      ],
      "stateMutability": "view",
      "type": "function"
    },
    {
      "inputs": [
        {
          "internalType": "uint256",
          "name": "_priceToSell",
          "type": "uint256"
        },
        {
          "internalType": "uint256",
          "name": "_amountToSell",
          "type": "uint256"
        },
        {
          "internalType": "address",
          "name": "_msgSender",
          "type": "address"
        }
      ],
      "name": "createSellingPost",
      "outputs": [],
      "stateMutability": "nonpayable",
      "type": "function"
    },
    {
      "inputs": [
        {
          "internalType": "uint256",
          "name": "_amountToBuy",
          "type": "uint256"
        },
        {
          "internalType": "uint256",
          "name": "_quotationInWei",
          "type": "uint256"
        },
        {
          "internalType": "uint256",
          "name": "_sellingPostKey",
          "type": "uint256"
        },
        {
          "internalType": "address",
          "name": "_msgSender",
          "type": "address"
        }
      ],
      "name": "createResponseMessageToSellingPost",
      "outputs": [],
      "stateMutability": "nonpayable",
      "type": "function"
    },
    {
      "inputs": [
        {
          "internalType": "uint256",
          "name": "_sellingPostKey",
          "type": "uint256"
        },
        {
          "internalType": "uint256",
          "name": "_responseMessageIndex",
          "type": "uint256"
        }
      ],
      "name": "handleSellingPostPayment",
      "outputs": [],
      "stateMutability": "payable",
      "type": "function"
    },
    {
      "inputs": [],
      "name": "updateRecentAveragePriceforSell",
      "outputs": [],
      "stateMutability": "nonpayable",
      "type": "function"
    },
    {
      "inputs": [
        {
          "internalType": "address",
          "name": "_account",
          "type": "address"
        }
      ],
      "name": "returnAllSellingPostsByAddress",
      "outputs": [
        {
          "components": [
            {
              "internalType": "uint256",
              "name": "priceToSell",
              "type": "uint256"
            },
            {
              "internalType": "uint256",
              "name": "amountToSell",
              "type": "uint256"
            },
            {
              "internalType": "address",
              "name": "seller",
              "type": "address"
            },
            {
              "internalType": "bool",
              "name": "enabled",
              "type": "bool"
            },
            {
              "internalType": "uint256",
              "name": "createdAt",
              "type": "uint256"
            },
            {
              "internalType": "contract PostResponseMessage[]",
              "name": "responseMessages",
              "type": "address[]"
            }
          ],
          "internalType": "struct BeanStructs.SellingPost[]",
          "name": "",
          "type": "tuple[]"
        }
      ],
      "stateMutability": "view",
      "type": "function"
    },
    {
      "inputs": [
        {
          "internalType": "uint256",
          "name": "_postKey",
          "type": "uint256"
        }
      ],
      "name": "getSellingPostByKey",
      "outputs": [
        {
          "components": [
            {
              "internalType": "uint256",
              "name": "priceToSell",
              "type": "uint256"
            },
            {
              "internalType": "uint256",
              "name": "amountToSell",
              "type": "uint256"
            },
            {
              "internalType": "address",
              "name": "seller",
              "type": "address"
            },
            {
              "internalType": "bool",
              "name": "enabled",
              "type": "bool"
            },
            {
              "internalType": "uint256",
              "name": "createdAt",
              "type": "uint256"
            },
            {
              "internalType": "contract PostResponseMessage[]",
              "name": "responseMessages",
              "type": "address[]"
            }
          ],
          "internalType": "struct BeanStructs.SellingPost",
          "name": "",
          "type": "tuple"
        }
      ],
      "stateMutability": "view",
      "type": "function"
    },
    {
      "inputs": [
        {
          "internalType": "uint256",
          "name": "_postKey",
          "type": "uint256"
        }
      ],
      "name": "returnSellingPostResponseMessagesByKey",
      "outputs": [
        {
          "internalType": "contract PostResponseMessage[]",
          "name": "",
          "type": "address[]"
        }
      ],
      "stateMutability": "view",
      "type": "function"
    },
    {
      "inputs": [],
      "name": "returnSellPostMapSize",
      "outputs": [
        {
          "internalType": "uint256",
          "name": "",
          "type": "uint256"
        }
      ],
      "stateMutability": "view",
      "type": "function"
    },
    {
      "inputs": [],
      "name": "returnRecentAveragePriceforSell",
      "outputs": [
        {
          "internalType": "string",
          "name": "",
          "type": "string"
        }
      ],
      "stateMutability": "view",
      "type": "function"
    }
  ],
  "bytecode": "0x6080604052606467ffffffffffffffff811115620000225762000021620001da565b5b604051908082528060200260200182016040528015620000515781602001602082028036833780820191505090505b50600590805190602001906200006992919062000169565b503480156200007757600080fd5b50604051620052923803806200529283398181016040528101906200009d919062000311565b82600760016101000a81548173ffffffffffffffffffffffffffffffffffffffff021916908373ffffffffffffffffffffffffffffffffffffffff16021790555081600860006101000a81548173ffffffffffffffffffffffffffffffffffffffff021916908373ffffffffffffffffffffffffffffffffffffffff16021790555080600960006101000a81548173ffffffffffffffffffffffffffffffffffffffff021916908373ffffffffffffffffffffffffffffffffffffffff1602179055505050506200036d565b828054828255906000526020600020908101928215620001a8579160200282015b82811115620001a75782518255916020019190600101906200018a565b5b509050620001b79190620001bb565b5090565b5b80821115620001d6576000816000905550600101620001bc565b5090565b7f4e487b7100000000000000000000000000000000000000000000000000000000600052604160045260246000fd5b600080fd5b600073ffffffffffffffffffffffffffffffffffffffff82169050919050565b60006200023b826200020e565b9050919050565b60006200024f826200022e565b9050919050565b620002618162000242565b81146200026d57600080fd5b50565b600081519050620002818162000256565b92915050565b600062000294826200022e565b9050919050565b620002a68162000287565b8114620002b257600080fd5b50565b600081519050620002c6816200029b565b92915050565b6000620002d9826200022e565b9050919050565b620002eb81620002cc565b8114620002f757600080fd5b50565b6000815190506200030b81620002e0565b92915050565b6000806000606084860312156200032d576200032c62000209565b5b60006200033d8682870162000270565b93505060206200035086828701620002b5565b92505060406200036386828701620002fa565b9150509250925092565b614f15806200037d6000396000f3fe608060405260043610620000d45760003560e01c80636fc1a2c3116200008b578063b4d2a0c41162000061578063b4d2a0c4146200029b578063ba5e27ba14620002cb578063d364094814620002fb578063da02c9de146200032b57620000d4565b80636fc1a2c314620001f9578063906eb21c1462000229578063ae87ca7c146200025757620000d4565b80630876290a14620000d957806335bef43714620000f957806335df3509146200013d5780634cb3a345146200016d5780636627cbd6146200019b57806367e8ada714620001df575b600080fd5b620000f76004803603810190620000f19190620020c6565b6200036f565b005b3480156200010657600080fd5b506200012560048036038101906200011f91906200210d565b6200120a565b60405162000134919062002150565b60405180910390f35b3480156200014a57600080fd5b50620001556200122f565b60405162000164919062002150565b60405180910390f35b3480156200017a57600080fd5b50620001996004803603810190620001939190620021d2565b62001239565b005b348015620001a857600080fd5b50620001c76004803603810190620001c191906200210d565b6200155d565b604051620001d691906200236c565b60405180910390f35b348015620001ec57600080fd5b50620001f762001649565b005b3480156200020657600080fd5b506200021162001856565b60405162000220919062002150565b60405180910390f35b3480156200023657600080fd5b506200025560048036038101906200024f919062002390565b6200185c565b005b3480156200026457600080fd5b506200028360048036038101906200027d9190620023ec565b62001ae4565b6040516200029291906200263d565b60405180910390f35b348015620002a857600080fd5b50620002b362001d98565b604051620002c29190620026fb565b60405180910390f35b348015620002d857600080fd5b50620002e362001e32565b604051620002f29190620026fb565b60405180910390f35b3480156200030857600080fd5b506200031362001ec8565b60405162000322919062002150565b60405180910390f35b3480156200033857600080fd5b506200035760048036038101906200035191906200210d565b62001ece565b604051620003669190620027b4565b60405180910390f35b600080600084815260200190815260200160002060040182815481106200039b576200039a620027d8565b5b9060005260206000200160009054906101000a900473ffffffffffffffffffffffffffffffffffffffff1690503373ffffffffffffffffffffffffffffffffffffffff168173ffffffffffffffffffffffffffffffffffffffff161462000439576040517f08c379a000000000000000000000000000000000000000000000000000000000815260040162000430906200287d565b60405180910390fd5b600042905060008273ffffffffffffffffffffffffffffffffffffffff1663d67bdd256040518163ffffffff1660e01b8152600401602060405180830381865afa1580156200048c573d6000803e3d6000fd5b505050506040513d601f19601f82011682018060405250810190620004b29190620028b6565b9050600860009054906101000a900473ffffffffffffffffffffffffffffffffffffffff1673ffffffffffffffffffffffffffffffffffffffff1663e2670971828573ffffffffffffffffffffffffffffffffffffffff1663aa8c217c6040518163ffffffff1660e01b8152600401602060405180830381865afa1580156200053f573d6000803e3d6000fd5b505050506040513d601f19601f82011682018060405250810190620005659190620028ff565b600860009054906101000a900473ffffffffffffffffffffffffffffffffffffffff1673ffffffffffffffffffffffffffffffffffffffff1663cb8ab15b866040518263ffffffff1660e01b8152600401620005c2919062002942565b602060405180830381865afa158015620005e0573d6000803e3d6000fd5b505050506040513d601f19601f82011682018060405250810190620006069190620028ff565b6200061291906200298e565b6040518363ffffffff1660e01b815260040162000631929190620029c9565b600060405180830381600087803b1580156200064c57600080fd5b505af115801562000661573d6000803e3d6000fd5b50505050600760019054906101000a900473ffffffffffffffffffffffffffffffffffffffff1673ffffffffffffffffffffffffffffffffffffffff16633f9b696c828573ffffffffffffffffffffffffffffffffffffffff1663aa8c217c6040518163ffffffff1660e01b8152600401602060405180830381865afa158015620006f0573d6000803e3d6000fd5b505050506040513d601f19601f82011682018060405250810190620007169190620028ff565b6040518363ffffffff1660e01b815260040162000735929190620029c9565b600060405180830381600087803b1580156200075057600080fd5b505af115801562000765573d6000803e3d6000fd5b50505050600760019054906101000a900473ffffffffffffffffffffffffffffffffffffffff1673ffffffffffffffffffffffffffffffffffffffff16632f0a323e82848673ffffffffffffffffffffffffffffffffffffffff1663aa8c217c6040518163ffffffff1660e01b8152600401602060405180830381865afa158015620007f5573d6000803e3d6000fd5b505050506040513d601f19601f820116820180604052508101906200081b9190620028ff565b6040518463ffffffff1660e01b81526004016200083b93929190620029f6565b600060405180830381600087803b1580156200085657600080fd5b505af11580156200086b573d6000803e3d6000fd5b50505050600760019054906101000a900473ffffffffffffffffffffffffffffffffffffffff1673ffffffffffffffffffffffffffffffffffffffff1663e6b02333826000856040518463ffffffff1660e01b8152600401620008d19392919062002a76565b600060405180830381600087803b158015620008ec57600080fd5b505af115801562000901573d6000803e3d6000fd5b50505050600080600087815260200190815260200160002060020160009054906101000a900473ffffffffffffffffffffffffffffffffffffffff1690508373ffffffffffffffffffffffffffffffffffffffff1663aa8c217c6040518163ffffffff1660e01b8152600401602060405180830381865afa1580156200098b573d6000803e3d6000fd5b505050506040513d601f19601f82011682018060405250810190620009b19190620028ff565b600860009054906101000a900473ffffffffffffffffffffffffffffffffffffffff1673ffffffffffffffffffffffffffffffffffffffff1663cb8ab15b836040518263ffffffff1660e01b815260040162000a0e919062002942565b602060405180830381865afa15801562000a2c573d6000803e3d6000fd5b505050506040513d601f19601f8201168201806040525081019062000a529190620028ff565b101562000a96576040517f08c379a000000000000000000000000000000000000000000000000000000000815260040162000a8d9062002b29565b60405180910390fd5b600860009054906101000a900473ffffffffffffffffffffffffffffffffffffffff1673ffffffffffffffffffffffffffffffffffffffff1663e2670971828673ffffffffffffffffffffffffffffffffffffffff1663aa8c217c6040518163ffffffff1660e01b8152600401602060405180830381865afa15801562000b21573d6000803e3d6000fd5b505050506040513d601f19601f8201168201806040525081019062000b479190620028ff565b600860009054906101000a900473ffffffffffffffffffffffffffffffffffffffff1673ffffffffffffffffffffffffffffffffffffffff1663cb8ab15b866040518263ffffffff1660e01b815260040162000ba4919062002942565b602060405180830381865afa15801562000bc2573d6000803e3d6000fd5b505050506040513d601f19601f8201168201806040525081019062000be89190620028ff565b62000bf4919062002b4b565b6040518363ffffffff1660e01b815260040162000c13929190620029c9565b600060405180830381600087803b15801562000c2e57600080fd5b505af115801562000c43573d6000803e3d6000fd5b50505050600760019054906101000a900473ffffffffffffffffffffffffffffffffffffffff1673ffffffffffffffffffffffffffffffffffffffff1663e8b8530f828673ffffffffffffffffffffffffffffffffffffffff1663aa8c217c6040518163ffffffff1660e01b8152600401602060405180830381865afa15801562000cd2573d6000803e3d6000fd5b505050506040513d601f19601f8201168201806040525081019062000cf89190620028ff565b6040518363ffffffff1660e01b815260040162000d17929190620029c9565b600060405180830381600087803b15801562000d3257600080fd5b505af115801562000d47573d6000803e3d6000fd5b50505050600760019054906101000a900473ffffffffffffffffffffffffffffffffffffffff1673ffffffffffffffffffffffffffffffffffffffff16631e7ba9cd82858773ffffffffffffffffffffffffffffffffffffffff1663aa8c217c6040518163ffffffff1660e01b8152600401602060405180830381865afa15801562000dd7573d6000803e3d6000fd5b505050506040513d601f19601f8201168201806040525081019062000dfd9190620028ff565b6040518463ffffffff1660e01b815260040162000e1d93929190620029f6565b600060405180830381600087803b15801562000e3857600080fd5b505af115801562000e4d573d6000803e3d6000fd5b50505050600760019054906101000a900473ffffffffffffffffffffffffffffffffffffffff1673ffffffffffffffffffffffffffffffffffffffff1663e6b02333826001866040518463ffffffff1660e01b815260040162000eb39392919062002bc9565b600060405180830381600087803b15801562000ece57600080fd5b505af115801562000ee3573d6000803e3d6000fd5b505050508373ffffffffffffffffffffffffffffffffffffffff1663aa8c217c6040518163ffffffff1660e01b8152600401602060405180830381865afa15801562000f33573d6000803e3d6000fd5b505050506040513d601f19601f8201168201806040525081019062000f599190620028ff565b60008088815260200190815260200160002060010154101562000fb3576040517f08c379a000000000000000000000000000000000000000000000000000000000815260040162000faa9062002c7c565b60405180910390fd5b8373ffffffffffffffffffffffffffffffffffffffff1663aa8c217c6040518163ffffffff1660e01b8152600401602060405180830381865afa15801562000fff573d6000803e3d6000fd5b505050506040513d601f19601f82011682018060405250810190620010259190620028ff565b60008088815260200190815260200160002060010160008282546200104b919062002b4b565b92505081905550600080600088815260200190815260200160002060010154036200109f57600080600088815260200190815260200160002060020160146101000a81548160ff0219169083151502179055505b606460065403620010ce576001600760006101000a81548160ff02191690831515021790555060006006819055505b8373ffffffffffffffffffffffffffffffffffffffff1663a03a202e6040518163ffffffff1660e01b8152600401602060405180830381865afa1580156200111a573d6000803e3d6000fd5b505050506040513d601f19601f82011682018060405250810190620011409190620028ff565b600560066000815480929190620011579062002c9e565b91905055815481106200116f576200116e620027d8565b5b90600052602060002001819055508073ffffffffffffffffffffffffffffffffffffffff166108fc349081150290604051600060405180830381858888f19350505050158015620011c4573d6000803e3d6000fd5b507f58e40951e480e0eb47a55e7fe3d9efbfcf47e2513825240c24a81843b2fb6c7b348786604051620011fa9392919062002ceb565b60405180910390a1505050505050565b600581815481106200121b57600080fd5b906000526020600020016000915090505481565b6000600354905090565b600084116200127f576040517f08c379a0000000000000000000000000000000000000000000000000000000008152600401620012769062002d78565b60405180910390fd5b60008311620012c5576040517f08c379a0000000000000000000000000000000000000000000000000000000008152600401620012bc9062002dea565b60405180910390fd5b60008210156200130c576040517f08c379a0000000000000000000000000000000000000000000000000000000008152600401620013039062002e5c565b60405180910390fd5b60008083815260200190815260200160002060020160009054906101000a900473ffffffffffffffffffffffffffffffffffffffff1673ffffffffffffffffffffffffffffffffffffffff168173ffffffffffffffffffffffffffffffffffffffff1603620013b2576040517f08c379a0000000000000000000000000000000000000000000000000000000008152600401620013a99062002ef4565b60405180910390fd5b600080600084815260200190815260200160002060040180549050905060003083878760018887604051620013e7906200201b565b620013f9979695949392919062002f5c565b604051809103906000f08015801562001416573d6000803e3d6000fd5b50905080600080868152602001908152602001600020600401600181600181540180825580915050039060005260206000200160006101000a81548173ffffffffffffffffffffffffffffffffffffffff021916908373ffffffffffffffffffffffffffffffffffffffff160217905550600860009054906101000a900473ffffffffffffffffffffffffffffffffffffffff1673ffffffffffffffffffffffffffffffffffffffff166384dc965a84836040518363ffffffff1660e01b8152600401620014e692919062002fea565b600060405180830381600087803b1580156200150157600080fd5b505af115801562001516573d6000803e3d6000fd5b505050507fc7f10d7197fb2a9693c302afe34b2b61de0f7048c4a33a39923e281c0c93ee2283826040516200154d92919062003017565b60405180910390a1505050505050565b60606000821015620015a6576040517f08c379a00000000000000000000000000000000000000000000000000000000081526004016200159d9062002e5c565b60405180910390fd5b6000808381526020019081526020016000206004018054806020026020016040519081016040528092919081815260200182805480156200163d57602002820191906000526020600020905b8160009054906101000a900473ffffffffffffffffffffffffffffffffffffffff1673ffffffffffffffffffffffffffffffffffffffff1681526020019060010190808311620015f2575b50505050509050919050565b6000805b600580549050811015620016a25760058181548110620016725762001671620027d8565b5b9060005260206000200154826200168a91906200298e565b91508080620016999062002c9e565b9150506200164d565b50600760009054906101000a900460ff16156200178857600960009054906101000a900473ffffffffffffffffffffffffffffffffffffffff1673ffffffffffffffffffffffffffffffffffffffff16632336b59160038360646040518463ffffffff1660e01b81526004016200171c93929190620030ca565b600060405180830381865afa1580156200173a573d6000803e3d6000fd5b505050506040513d6000823e3d601f19601f8201168201806040525081019062001765919062003249565b909150905060046000829190509081620017809190620034f0565b505062001853565b600960009054906101000a900473ffffffffffffffffffffffffffffffffffffffff1673ffffffffffffffffffffffffffffffffffffffff16632336b5916003836006546040518463ffffffff1660e01b8152600401620017ec93929190620035d7565b600060405180830381865afa1580156200180a573d6000803e3d6000fd5b505050506040513d6000823e3d601f19601f8201168201806040525081019062001835919062003249565b909150905060046000829190509081620018509190620034f0565b50505b50565b60035481565b60008311620018a2576040517f08c379a000000000000000000000000000000000000000000000000000000000815260040162001899906200368a565b60405180910390fd5b60008211620018e8576040517f08c379a0000000000000000000000000000000000000000000000000000000008152600401620018df9062003722565b60405180910390fd5b826000806003548152602001908152602001600020600001819055508160008060035481526020019081526020016000206001018190555080600080600354815260200190815260200160002060020160006101000a81548173ffffffffffffffffffffffffffffffffffffffff021916908373ffffffffffffffffffffffffffffffffffffffff1602179055506001600080600354815260200190815260200160002060020160146101000a81548160ff021916908315150217905550426000806003548152602001908152602001600020600301819055506001806000600354815260200190815260200160002060006101000a81548160ff021916908315150217905550600860009054906101000a900473ffffffffffffffffffffffffffffffffffffffff1673ffffffffffffffffffffffffffffffffffffffff1663c331d842826003546040518363ffffffff1660e01b815260040162001a50929190620029c9565b600060405180830381600087803b15801562001a6b57600080fd5b505af115801562001a80573d6000803e3d6000fd5b505050507f70d4f73f8dc596f6b7f1d3996153d2ae6e391837c8ad344b8f32ffe96fbbed9c81600354858560405162001abd949392919062003744565b60405180910390a16003600081548092919062001ada9062002c9e565b9190505550505050565b60606000600860009054906101000a900473ffffffffffffffffffffffffffffffffffffffff1673ffffffffffffffffffffffffffffffffffffffff16631d036d7d846040518263ffffffff1660e01b815260040162001b45919062002942565b600060405180830381865afa15801562001b63573d6000803e3d6000fd5b505050506040513d6000823e3d601f19601f8201168201806040525081019062001b8e91906200386c565b90506000815167ffffffffffffffff81111562001bb05762001baf62003111565b5b60405190808252806020026020018201604052801562001bed57816020015b62001bd962002029565b81526020019060019003908162001bcf5790505b50905060005b825181101562001d8d5760008084838151811062001c165762001c15620027d8565b5b602002602001015181526020019081526020016000206040518060c001604052908160008201548152602001600182015481526020016002820160009054906101000a900473ffffffffffffffffffffffffffffffffffffffff1673ffffffffffffffffffffffffffffffffffffffff1673ffffffffffffffffffffffffffffffffffffffff1681526020016002820160149054906101000a900460ff16151515158152602001600382015481526020016004820180548060200260200160405190810160405280929190818152602001828054801562001d4d57602002820191906000526020600020905b8160009054906101000a900473ffffffffffffffffffffffffffffffffffffffff1673ffffffffffffffffffffffffffffffffffffffff168152602001906001019080831162001d02575b50505050508152505082828151811062001d6c5762001d6b620027d8565b5b6020026020010181905250808062001d849062002c9e565b91505062001bf3565b508092505050919050565b60606004805462001da990620032f3565b80601f016020809104026020016040519081016040528092919081815260200182805462001dd790620032f3565b801562001e285780601f1062001dfc5761010080835404028352916020019162001e28565b820191906000526020600020905b81548152906001019060200180831162001e0a57829003601f168201915b5050505050905090565b6004805462001e4190620032f3565b80601f016020809104026020016040519081016040528092919081815260200182805462001e6f90620032f3565b801562001ec05780601f1062001e945761010080835404028352916020019162001ec0565b820191906000526020600020905b81548152906001019060200180831162001ea257829003601f168201915b505050505081565b60065481565b62001ed862002029565b6000808381526020019081526020016000206040518060c001604052908160008201548152602001600182015481526020016002820160009054906101000a900473ffffffffffffffffffffffffffffffffffffffff1673ffffffffffffffffffffffffffffffffffffffff1673ffffffffffffffffffffffffffffffffffffffff1681526020016002820160149054906101000a900460ff1615151515815260200160038201548152602001600482018054806020026020016040519081016040528092919081815260200182805480156200200b57602002820191906000526020600020905b8160009054906101000a900473ffffffffffffffffffffffffffffffffffffffff1673ffffffffffffffffffffffffffffffffffffffff168152602001906001019080831162001fc0575b5050505050815250509050919050565b61162280620038be83390190565b6040518060c001604052806000815260200160008152602001600073ffffffffffffffffffffffffffffffffffffffff16815260200160001515815260200160008152602001606081525090565b6000604051905090565b600080fd5b600080fd5b6000819050919050565b620020a0816200208b565b8114620020ac57600080fd5b50565b600081359050620020c08162002095565b92915050565b60008060408385031215620020e057620020df62002081565b5b6000620020f085828601620020af565b92505060206200210385828601620020af565b9150509250929050565b60006020828403121562002126576200212562002081565b5b60006200213684828501620020af565b91505092915050565b6200214a816200208b565b82525050565b60006020820190506200216760008301846200213f565b92915050565b600073ffffffffffffffffffffffffffffffffffffffff82169050919050565b60006200219a826200216d565b9050919050565b620021ac816200218d565b8114620021b857600080fd5b50565b600081359050620021cc81620021a1565b92915050565b60008060008060808587031215620021ef57620021ee62002081565b5b6000620021ff87828801620020af565b94505060206200221287828801620020af565b93505060406200222587828801620020af565b92505060606200223887828801620021bb565b91505092959194509250565b600081519050919050565b600082825260208201905092915050565b6000819050602082019050919050565b6000819050919050565b60006200229b620022956200228f846200216d565b62002270565b6200216d565b9050919050565b6000620022af826200227a565b9050919050565b6000620022c382620022a2565b9050919050565b620022d581620022b6565b82525050565b6000620022e98383620022ca565b60208301905092915050565b6000602082019050919050565b60006200230f8262002244565b6200231b81856200224f565b9350620023288362002260565b8060005b838110156200235f578151620023438882620022db565b97506200235083620022f5565b9250506001810190506200232c565b5085935050505092915050565b6000602082019050818103600083015262002388818462002302565b905092915050565b600080600060608486031215620023ac57620023ab62002081565b5b6000620023bc86828701620020af565b9350506020620023cf86828701620020af565b9250506040620023e286828701620021bb565b9150509250925092565b60006020828403121562002405576200240462002081565b5b60006200241584828501620021bb565b91505092915050565b600081519050919050565b600082825260208201905092915050565b6000819050602082019050919050565b62002455816200208b565b82525050565b62002466816200218d565b82525050565b60008115159050919050565b62002483816200246c565b82525050565b600082825260208201905092915050565b6000620024a78262002244565b620024b3818562002489565b9350620024c08362002260565b8060005b83811015620024f7578151620024db8882620022db565b9750620024e883620022f5565b925050600181019050620024c4565b5085935050505092915050565b600060c0830160008301516200251e60008601826200244a565b5060208301516200253360208601826200244a565b5060408301516200254860408601826200245b565b5060608301516200255d606086018262002478565b5060808301516200257260808601826200244a565b5060a083015184820360a08601526200258c82826200249a565b9150508091505092915050565b6000620025a7838362002504565b905092915050565b6000602082019050919050565b6000620025c9826200241e565b620025d5818562002429565b935083602082028501620025e9856200243a565b8060005b858110156200262b578484038952815162002609858262002599565b94506200261683620025af565b925060208a01995050600181019050620025ed565b50829750879550505050505092915050565b60006020820190508181036000830152620026598184620025bc565b905092915050565b600081519050919050565b600082825260208201905092915050565b60005b838110156200269d57808201518184015260208101905062002680565b60008484015250505050565b6000601f19601f8301169050919050565b6000620026c78262002661565b620026d381856200266c565b9350620026e58185602086016200267d565b620026f081620026a9565b840191505092915050565b60006020820190508181036000830152620027178184620026ba565b905092915050565b600060c0830160008301516200273960008601826200244a565b5060208301516200274e60208601826200244a565b5060408301516200276360408601826200245b565b50606083015162002778606086018262002478565b5060808301516200278d60808601826200244a565b5060a083015184820360a0860152620027a782826200249a565b9150508091505092915050565b60006020820190508181036000830152620027d081846200271f565b905092915050565b7f4e487b7100000000000000000000000000000000000000000000000000000000600052603260045260246000fd5b7f4f6e6c7920726573706f6e7365206d657373616765732061726520616c6c6f7760008201527f656420746f2074726967676572207061796d656e742070726f63657373000000602082015250565b600062002865603d836200266c565b9150620028728262002807565b604082019050919050565b60006020820190508181036000830152620028988162002856565b9050919050565b600081519050620028b081620021a1565b92915050565b600060208284031215620028cf57620028ce62002081565b5b6000620028df848285016200289f565b91505092915050565b600081519050620028f98162002095565b92915050565b60006020828403121562002918576200291762002081565b5b60006200292884828501620028e8565b91505092915050565b6200293c816200218d565b82525050565b600060208201905062002959600083018462002931565b92915050565b7f4e487b7100000000000000000000000000000000000000000000000000000000600052601160045260246000fd5b60006200299b826200208b565b9150620029a8836200208b565b9250828201905080821115620029c357620029c26200295f565b5b92915050565b6000604082019050620029e0600083018562002931565b620029ef60208301846200213f565b9392505050565b600060608201905062002a0d600083018662002931565b62002a1c60208301856200213f565b62002a2b60408301846200213f565b949350505050565b6000819050919050565b600062002a5e62002a5862002a528462002a33565b62002270565b6200208b565b9050919050565b62002a708162002a3d565b82525050565b600060608201905062002a8d600083018662002931565b62002a9c602083018562002a65565b62002aab60408301846200213f565b949350505050565b7f496e73756666696369656e7420656c65637472696369747920756e697473206960008201527f6e2073656c6c65722773206163636f756e740000000000000000000000000000602082015250565b600062002b116032836200266c565b915062002b1e8262002ab3565b604082019050919050565b6000602082019050818103600083015262002b448162002b02565b9050919050565b600062002b58826200208b565b915062002b65836200208b565b925082820390508181111562002b805762002b7f6200295f565b5b92915050565b6000819050919050565b600062002bb162002bab62002ba58462002b86565b62002270565b6200208b565b9050919050565b62002bc38162002b90565b82525050565b600060608201905062002be0600083018662002931565b62002bef602083018562002bb8565b62002bfe60408301846200213f565b949350505050565b7f496e73756666696369656e742073656c6c696e6720756e69747320696e20736560008201527f6c6c696e6720706f737400000000000000000000000000000000000000000000602082015250565b600062002c64602a836200266c565b915062002c718262002c06565b604082019050919050565b6000602082019050818103600083015262002c978162002c55565b9050919050565b600062002cab826200208b565b91507fffffffffffffffffffffffffffffffffffffffffffffffffffffffffffffffff820362002ce05762002cdf6200295f565b5b600182019050919050565b600060608201905062002d0260008301866200213f565b62002d1160208301856200213f565b62002d20604083018462002931565b949350505050565b7f616d6f756e74206d7573742062652067726561746572207468616e2030000000600082015250565b600062002d60601d836200266c565b915062002d6d8262002d28565b602082019050919050565b6000602082019050818103600083015262002d938162002d51565b9050919050565b7f71756f746174696f6e206d7573742062652067726561746572207468616e2030600082015250565b600062002dd26020836200266c565b915062002ddf8262002d9a565b602082019050919050565b6000602082019050818103600083015262002e058162002dc3565b9050919050565b7f706f7374206b6579207374617274732066726f6d203000000000000000000000600082015250565b600062002e446016836200266c565b915062002e518262002e0c565b602082019050919050565b6000602082019050818103600083015262002e778162002e35565b9050919050565b7f596f752063616e6e6f74207265706c7920746f20796f7572206f776e2073656c60008201527f6c696e6720706f73740000000000000000000000000000000000000000000000602082015250565b600062002edc6029836200266c565b915062002ee98262002e7e565b604082019050919050565b6000602082019050818103600083015262002f0f8162002ecd565b9050919050565b600060ff82169050919050565b600062002f4462002f3e62002f388462002b86565b62002270565b62002f16565b9050919050565b62002f568162002f23565b82525050565b600060e08201905062002f73600083018a62002931565b62002f82602083018962002931565b62002f9160408301886200213f565b62002fa060608301876200213f565b62002faf608083018662002f4b565b62002fbe60a08301856200213f565b62002fcd60c08301846200213f565b98975050505050505050565b62002fe481620022b6565b82525050565b600060408201905062003001600083018562002931565b62003010602083018462002fd9565b9392505050565b60006040820190506200302e600083018562002931565b6200303d602083018462002931565b9392505050565b6000819050919050565b60006200306f62003069620030638462003044565b62002270565b6200208b565b9050919050565b62003081816200304e565b82525050565b6000819050919050565b6000620030b2620030ac620030a68462003087565b62002270565b6200208b565b9050919050565b620030c48162003091565b82525050565b6000606082019050620030e1600083018662003076565b620030f060208301856200213f565b620030ff6040830184620030b9565b949350505050565b600080fd5b600080fd5b7f4e487b7100000000000000000000000000000000000000000000000000000000600052604160045260246000fd5b6200314b82620026a9565b810181811067ffffffffffffffff821117156200316d576200316c62003111565b5b80604052505050565b60006200318262002077565b905062003190828262003140565b919050565b600067ffffffffffffffff821115620031b357620031b262003111565b5b620031be82620026a9565b9050602081019050919050565b6000620031e2620031dc8462003195565b62003176565b9050828152602081018484840111156200320157620032006200310c565b5b6200320e8482856200267d565b509392505050565b600082601f8301126200322e576200322d62003107565b5b815162003240848260208601620031cb565b91505092915050565b60008060006060848603121562003265576200326462002081565b5b60006200327586828701620028e8565b93505060206200328886828701620028e8565b925050604084015167ffffffffffffffff811115620032ac57620032ab62002086565b5b620032ba8682870162003216565b9150509250925092565b7f4e487b7100000000000000000000000000000000000000000000000000000000600052602260045260246000fd5b600060028204905060018216806200330c57607f821691505b602082108103620033225762003321620032c4565b5b50919050565b60008190508160005260206000209050919050565b60006020601f8301049050919050565b600082821b905092915050565b6000600883026200338c7fffffffffffffffffffffffffffffffffffffffffffffffffffffffffffffffff826200334d565b6200339886836200334d565b95508019841693508086168417925050509392505050565b6000620033d1620033cb620033c5846200208b565b62002270565b6200208b565b9050919050565b6000819050919050565b620033ed83620033b0565b62003405620033fc82620033d8565b8484546200335a565b825550505050565b600090565b6200341c6200340d565b62003429818484620033e2565b505050565b5b8181101562003451576200344560008262003412565b6001810190506200342f565b5050565b601f821115620034a0576200346a8162003328565b62003475846200333d565b8101602085101562003485578190505b6200349d62003494856200333d565b8301826200342e565b50505b505050565b600082821c905092915050565b6000620034c560001984600802620034a5565b1980831691505092915050565b6000620034e08383620034b2565b9150826002028217905092915050565b620034fb8262002661565b67ffffffffffffffff81111562003517576200351662003111565b5b620035238254620032f3565b6200353082828562003455565b600060209050601f83116001811462003568576000841562003553578287015190505b6200355f8582620034d2565b865550620035cf565b601f198416620035788662003328565b60005b82811015620035a2578489015182556001820191506020850194506020810190506200357b565b86831015620035c25784890151620035be601f891682620034b2565b8355505b6001600288020188555050505b505050505050565b6000606082019050620035ee600083018662003076565b620035fd60208301856200213f565b6200360c60408301846200213f565b949350505050565b7f7075726368617365207072696365206d7573742062652067726561746572207460008201527f68616e2030000000000000000000000000000000000000000000000000000000602082015250565b6000620036726025836200266c565b91506200367f8262003614565b604082019050919050565b60006020820190508181036000830152620036a58162003663565b9050919050565b7f616d6f756e7420746f20627579206d757374206265206772656174657220746860008201527f616e203000000000000000000000000000000000000000000000000000000000602082015250565b60006200370a6024836200266c565b91506200371782620036ac565b604082019050919050565b600060208201905081810360008301526200373d81620036fb565b9050919050565b60006080820190506200375b600083018762002931565b6200376a60208301866200213f565b6200377960408301856200213f565b6200378860608301846200213f565b95945050505050565b600067ffffffffffffffff821115620037af57620037ae62003111565b5b602082029050602081019050919050565b600080fd5b6000620037dc620037d68462003791565b62003176565b90508083825260208201905060208402830185811115620038025762003801620037c0565b5b835b818110156200382f57806200381a8882620028e8565b84526020840193505060208101905062003804565b5050509392505050565b600082601f83011262003851576200385062003107565b5b815162003863848260208601620037c5565b91505092915050565b60006020828403121562003885576200388462002081565b5b600082015167ffffffffffffffff811115620038a657620038a562002086565b5b620038b48482850162003839565b9150509291505056fe60806040523480156200001157600080fd5b50604051620016223803806200162283398181016040528101906200003791906200021c565b86600860006101000a81548173ffffffffffffffffffffffffffffffffffffffff021916908373ffffffffffffffffffffffffffffffffffffffff160217905550856000806101000a81548173ffffffffffffffffffffffffffffffffffffffff021916908373ffffffffffffffffffffffffffffffffffffffff160217905550846001819055508360028190555082600360006101000a81548160ff021916908360ff16021790555081600481905550806005819055506000600660006101000a81548160ff0219169083151502179055506000600660016101000a81548160ff0219169083151502179055504260078190555050505050505050620002cf565b600080fd5b600073ffffffffffffffffffffffffffffffffffffffff82169050919050565b60006200016b826200013e565b9050919050565b6200017d816200015e565b81146200018957600080fd5b50565b6000815190506200019d8162000172565b92915050565b6000819050919050565b620001b881620001a3565b8114620001c457600080fd5b50565b600081519050620001d881620001ad565b92915050565b600060ff82169050919050565b620001f681620001de565b81146200020257600080fd5b50565b6000815190506200021681620001eb565b92915050565b600080600080600080600060e0888a0312156200023e576200023d62000139565b5b60006200024e8a828b016200018c565b9750506020620002618a828b016200018c565b9650506040620002748a828b01620001c7565b9550506060620002878a828b01620001c7565b94505060806200029a8a828b0162000205565b93505060a0620002ad8a828b01620001c7565b92505060c0620002c08a828b01620001c7565b91505092959891949750929550565b61134380620002df6000396000f3fe6080604052600436106100c65760003560e01c806382fa096a1161007f578063abf4d6c411610059578063abf4d6c414610424578063c32b9b531461042e578063cf09e0d014610438578063d67bdd25146104635761029e565b806382fa096a146103a3578063a03a202e146103ce578063aa8c217c146103f95761029e565b806304dc4cda146102a3578063209ebc08146102ce5780633013aa25146102f95780633d855485146103225780633e784e631461034d5780635051a5ec146103785761029e565b3661029e576000341161010e576040517f08c379a000000000000000000000000000000000000000000000000000000000815260040161010590610b63565b60405180910390fd5b60011515600660009054906101000a900460ff16151514610164576040517f08c379a000000000000000000000000000000000000000000000000000000000815260040161015b90610bf5565b60405180910390fd5b346002546001546101759190610c4e565b146101b5576040517f08c379a00000000000000000000000000000000000000000000000000000000081526004016101ac90610cdc565b60405180910390fd5b60001515600660019054906101000a900460ff1615151461020b576040517f08c379a000000000000000000000000000000000000000000000000000000000815260040161020290610d48565b60405180910390fd5b6000600360009054906101000a900460ff1660ff16036102325761022d61048e565b61029c565b6001600360009054906101000a900460ff1660ff16036102595761025461069d565b61029b565b600061029a576040517f08c379a000000000000000000000000000000000000000000000000000000000815260040161029190610db4565b60405180910390fd5b5b5b005b600080fd5b3480156102af57600080fd5b506102b86108ac565b6040516102c59190610df0565b60405180910390f35b3480156102da57600080fd5b506102e36108bf565b6040516102f09190610e26565b60405180910390f35b34801561030557600080fd5b50610320600480360381019061031b9190610e72565b6108d2565b005b34801561032e57600080fd5b5061033761093d565b6040516103449190610eae565b60405180910390f35b34801561035957600080fd5b50610362610943565b60405161036f9190610eae565b60405180910390f35b34801561038457600080fd5b5061038d610949565b60405161039a9190610e26565b60405180910390f35b3480156103af57600080fd5b506103b861095c565b6040516103c59190610fee565b60405180910390f35b3480156103da57600080fd5b506103e3610a67565b6040516103f09190610eae565b60405180910390f35b34801561040557600080fd5b5061040e610a6d565b60405161041b9190610eae565b60405180910390f35b61042c61048e565b005b61043661069d565b005b34801561044457600080fd5b5061044d610a73565b60405161045a9190610eae565b60405180910390f35b34801561046f57600080fd5b50610478610a79565b6040516104859190611019565b60405180910390f35b60008054906101000a900473ffffffffffffffffffffffffffffffffffffffff1673ffffffffffffffffffffffffffffffffffffffff163373ffffffffffffffffffffffffffffffffffffffff160361051c576040517f08c379a0000000000000000000000000000000000000000000000000000000008152600401610513906110a6565b60405180910390fd5b6000600860009054906101000a900473ffffffffffffffffffffffffffffffffffffffff1673ffffffffffffffffffffffffffffffffffffffff163460045460055460405160240161056f9291906110c6565b6040516020818303038152906040527f3d480db5000000000000000000000000000000000000000000000000000000007bffffffffffffffffffffffffffffffffffffffffffffffffffffffff19166020820180517bffffffffffffffffffffffffffffffffffffffffffffffffffffffff83818316178352505050506040516105f99190611160565b60006040518083038185875af1925050503d8060008114610636576040519150601f19603f3d011682016040523d82523d6000602084013e61063b565b606091505b505090508061067f576040517f08c379a0000000000000000000000000000000000000000000000000000000008152600401610676906111c3565b60405180910390fd5b6001600660016101000a81548160ff02191690831515021790555050565b60008054906101000a900473ffffffffffffffffffffffffffffffffffffffff1673ffffffffffffffffffffffffffffffffffffffff163373ffffffffffffffffffffffffffffffffffffffff161461072b576040517f08c379a00000000000000000000000000000000000000000000000000000000081526004016107229061127b565b60405180910390fd5b6000600860009054906101000a900473ffffffffffffffffffffffffffffffffffffffff1673ffffffffffffffffffffffffffffffffffffffff163460045460055460405160240161077e9291906110c6565b6040516020818303038152906040527f0876290a000000000000000000000000000000000000000000000000000000007bffffffffffffffffffffffffffffffffffffffffffffffffffffffff19166020820180517bffffffffffffffffffffffffffffffffffffffffffffffffffffffff83818316178352505050506040516108089190611160565b60006040518083038185875af1925050503d8060008114610845576040519150601f19603f3d011682016040523d82523d6000602084013e61084a565b606091505b505090508061088e576040517f08c379a0000000000000000000000000000000000000000000000000000000008152600401610885906111c3565b60405180910390fd5b6001600660016101000a81548160ff02191690831515021790555050565b600360009054906101000a900460ff1681565b600660019054906101000a900460ff1681565b80600660006101000a81548160ff0219169083151502179055507f9161e5ec70df4a8ef9f6085e3435135f3da64c7ec32c271912e1ca8d4afbd7c3600360009054906101000a900460ff16600454600554604051610932939291906112d6565b60405180910390a150565b60045481565b60055481565b600660009054906101000a900460ff1681565b610964610a9d565b61096c610a9d565b60008054906101000a900473ffffffffffffffffffffffffffffffffffffffff16816000019073ffffffffffffffffffffffffffffffffffffffff16908173ffffffffffffffffffffffffffffffffffffffff1681525050600154816020018181525050600254816040018181525050600360009054906101000a900460ff16816060019060ff16908160ff16815250506004548160800181815250506005548160a0018181525050600660009054906101000a900460ff168160c0019015159081151581525050600660019054906101000a900460ff168160e0019015159081151581525050600754816101000181815250508091505090565b60025481565b60015481565b60075481565b60008054906101000a900473ffffffffffffffffffffffffffffffffffffffff1681565b604051806101200160405280600073ffffffffffffffffffffffffffffffffffffffff1681526020016000815260200160008152602001600060ff1681526020016000815260200160008152602001600015158152602001600015158152602001600081525090565b600082825260208201905092915050565b7f696e76616c6964207061796d656e740000000000000000000000000000000000600082015250565b6000610b4d600f83610b06565b9150610b5882610b17565b602082019050919050565b60006020820190508181036000830152610b7c81610b40565b9050919050565b7f796f757220726573706f6e736520686173206e6f74206265656e20616363657060008201527f7465642062792073656c6c657220796574000000000000000000000000000000602082015250565b6000610bdf603183610b06565b9150610bea82610b83565b604082019050919050565b60006020820190508181036000830152610c0e81610bd2565b9050919050565b6000819050919050565b7f4e487b7100000000000000000000000000000000000000000000000000000000600052601160045260246000fd5b6000610c5982610c15565b9150610c6483610c15565b9250828202610c7281610c15565b91508282048414831517610c8957610c88610c1f565b5b5092915050565b7f4e6f742066756c6c792070616964207965740000000000000000000000000000600082015250565b6000610cc6601283610b06565b9150610cd182610c90565b602082019050919050565b60006020820190508181036000830152610cf581610cb9565b9050919050565b7f4f7264657220697320616c726561647920706169642100000000000000000000600082015250565b6000610d32601683610b06565b9150610d3d82610cfc565b602082019050919050565b60006020820190508181036000830152610d6181610d25565b9050919050565b7f696e76616c696420726573706f6e7365206d6573736167652074797065000000600082015250565b6000610d9e601d83610b06565b9150610da982610d68565b602082019050919050565b60006020820190508181036000830152610dcd81610d91565b9050919050565b600060ff82169050919050565b610dea81610dd4565b82525050565b6000602082019050610e056000830184610de1565b92915050565b60008115159050919050565b610e2081610e0b565b82525050565b6000602082019050610e3b6000830184610e17565b92915050565b600080fd5b610e4f81610e0b565b8114610e5a57600080fd5b50565b600081359050610e6c81610e46565b92915050565b600060208284031215610e8857610e87610e41565b5b6000610e9684828501610e5d565b91505092915050565b610ea881610c15565b82525050565b6000602082019050610ec36000830184610e9f565b92915050565b600073ffffffffffffffffffffffffffffffffffffffff82169050919050565b6000610ef482610ec9565b9050919050565b610f0481610ee9565b82525050565b610f1381610c15565b82525050565b610f2281610dd4565b82525050565b610f3181610e0b565b82525050565b61012082016000820151610f4e6000850182610efb565b506020820151610f616020850182610f0a565b506040820151610f746040850182610f0a565b506060820151610f876060850182610f19565b506080820151610f9a6080850182610f0a565b5060a0820151610fad60a0850182610f0a565b5060c0820151610fc060c0850182610f28565b5060e0820151610fd360e0850182610f28565b50610100820151610fe8610100850182610f0a565b50505050565b6000610120820190506110046000830184610f37565b92915050565b61101381610ee9565b82525050565b600060208201905061102e600083018461100a565b92915050565b7f596f752063616e6e6f74206d616b652061207061796d656e7420746f20796f7560008201527f72206f776e2073656c6c696e6720726573706f6e7365206d6573736167650000602082015250565b6000611090603e83610b06565b915061109b82611034565b604082019050919050565b600060208201905081810360008301526110bf81611083565b9050919050565b60006040820190506110db6000830185610e9f565b6110e86020830184610e9f565b9392505050565b600081519050919050565b600081905092915050565b60005b83811015611123578082015181840152602081019050611108565b60008484015250505050565b600061113a826110ef565b61114481856110fa565b9350611154818560208601611105565b80840191505092915050565b600061116c828461112f565b915081905092915050565b7f7061796d656e74206661696c6564000000000000000000000000000000000000600082015250565b60006111ad600e83610b06565b91506111b882611177565b602082019050919050565b600060208201905081810360008301526111dc816111a0565b9050919050565b7f4f6e6c7920746865206d6573736167652073656e6465722077686f2073656e7460008201527f207468697320726573706f6e736520746f206163717569726520656c6563747260208201527f696369747920756e6974732063616e206d616b652061207061796d656e740000604082015250565b6000611265605e83610b06565b9150611270826111e3565b606082019050919050565b6000602082019050818103600083015261129481611258565b9050919050565b6000819050919050565b60006112c06112bb6112b684610dd4565b61129b565b610c15565b9050919050565b6112d0816112a5565b82525050565b60006060820190506112eb60008301866112c7565b6112f86020830185610e9f565b6113056040830184610e9f565b94935050505056fea264697066735822122073e925c02640f54ec6f797a0c5db83b3650b31ffafe16a7aa55534274ce1d24064736f6c63430008110033a26469706673582212209c52357a29ff3efd632ce9211f381dbc9826580c1b8e14e8f778b4c3d845166d64736f6c63430008110033",
  "immutableReferences": {},
  "source": "//SPDX-License-Identifier: MIT\n\npragma solidity ^0.8.0;\n\nimport \"./BeanStructs.sol\";\nimport \"./UserService.sol\";\nimport \"./StatisticsService.sol\";\nimport \"./Division.sol\";\n\ncontract SellerService is BeanStructs {\n\n    // ------------------------- seller side storage variables -------------------------\n    \n    // map each purchase post to an index\n    mapping(uint => SellingPost) sellingPostMap;\n    mapping(uint => bool) sellingPostStatus;       // label purchase post status\n    uint[]  sellingPostKeys;                        // array of keys of purchase posts \n    uint public sellingPostCounter;                  // count total number of purchase posts, start from 0\n    \n    string public recentAveragePriceforSell;               // string to store the float number\n    uint[] public averagePriceforSell = new uint[](100); //array to store the average transaction price, set length as 100\n    uint public averagePriceforSellKey;              // key of averagePrice array\n    bool private reachSizeLimit;                    // identify if the size limit of averagePrice array is reached\n    \n    // reference to statistics service\n    StatisticsService statisticsService;\n    UserService userService;\n    Division divisionUtils;\n    \n     constructor(StatisticsService _statisticsService, UserService _userService, Division _divisionUtils) {\n        statisticsService = _statisticsService;\n        userService = _userService;\n        divisionUtils = _divisionUtils;\n    }\n\n    // events\n    event SellingPostCreated(address creator, uint postKey, uint _priceToBuy, uint _amountToBuy);\n    event SellingPostResponseMessageCreated(address creator, address responseMessageAddress);\n    event SellingPostPaymentSuccess(uint paymentAmount, uint sellingPostKey, address responseMessageAddress);\n    \n\n    // ------------------------- seller side interaction -------------------------\n\n    // seller -  create a new selling post\n    function createSellingPost (uint _priceToSell, uint _amountToSell, address _msgSender) public {\n            \n            // 1. data validation\n            require(_priceToSell > 0, \"purchase price must be greater than 0\");\n            require(_amountToSell > 0, \"amount to buy must be greater than 0\");\n            \n            // 2. save information to the selling post map\n            sellingPostMap[sellingPostCounter].priceToSell = _priceToSell;\n            sellingPostMap[sellingPostCounter].amountToSell = _amountToSell;          \n            sellingPostMap[sellingPostCounter].seller = _msgSender;\n            sellingPostMap[sellingPostCounter].enabled = true;\n            sellingPostMap[sellingPostCounter].createdAt = block.timestamp;\n\n            // 3. set post status to true \n            sellingPostStatus[sellingPostCounter] = true;\n            \n            // 4. save post key to user struct\n            // userMap[msg.sender].sellingPostsKeys.push(sellingPostCounter);\n            userService.saveSellingPostKey(_msgSender, sellingPostCounter);\n           \n            // 5. emit event\n            emit SellingPostCreated( _msgSender, sellingPostCounter, _priceToSell, _amountToSell);\n\n            // 6. increment selling post counter by 1\n            sellingPostCounter++;\n    }\n\n    // buyer - create selling post response messages\n    // buyer creates response message and wait for confirmation from seller. buyer then pays for it once response is accepted\n    function createResponseMessageToSellingPost(uint _amountToBuy, uint _quotationInWei, uint _sellingPostKey, address _msgSender) public {\n        \n        // 1. data validation\n        require(_amountToBuy > 0, \"amount must be greater than 0\");\n        require(_quotationInWei > 0, \"quotation must be greater than 0\");\n        require(_sellingPostKey >= 0, \"post key starts from 0\");\n        require(_msgSender != sellingPostMap[_sellingPostKey].seller, \"You cannot reply to your own selling post\");\n\n        // 2. create a new response message\n        uint messageIndex = sellingPostMap[_sellingPostKey].responseMessages.length;\n        PostResponseMessage message = new PostResponseMessage(address(this), _msgSender, _amountToBuy, _quotationInWei, 1, _sellingPostKey, messageIndex );\n        \n        // 3. add the response message to the corresponding selling post \n        sellingPostMap[_sellingPostKey].responseMessages.push() = message;\n        userService.addResponse(_msgSender, message);\n\n        // 4. emit event\n        emit SellingPostResponseMessageCreated(_msgSender, address(message));\n\n    }\n\n    //  handle selling post payment process\n    function handleSellingPostPayment(uint _sellingPostKey, uint _responseMessageIndex) public payable {\n        \n        // 1.1 data validation & get response message contract reference\n        PostResponseMessage responseMessage = sellingPostMap[_sellingPostKey].responseMessages[_responseMessageIndex];\n        require(address(responseMessage) == msg.sender, \"Only response messages are allowed to trigger payment process\");\n        \n        // 1.2 get current time\n        uint transactionTime = block.timestamp;\n\n        // 2.1 update buyer's account information\n        address buyer = responseMessage.messageSender();\n        // userMap[buyer].availableElecUnits += responseMessage.amount();   \n        userService.setAvailableElecUnits(buyer, userService.getAvailableElecUnits(buyer) + responseMessage.amount() );\n\n        // 2.2.1 update buyer's statistics (statistics service required)\n        statisticsService.updateTotalBuy(buyer, responseMessage.amount());\n        statisticsService.addOneElectricBuyTransaction(buyer, transactionTime, responseMessage.amount());\n        // 2.2.2 update buyer's transaction sequence map (statistics service required)\n        statisticsService.addTransactionToSequenceMap(buyer, 0, transactionTime);\n        \n        \n        // 3.1 update seller's account information\n        address seller = sellingPostMap[_sellingPostKey].seller;\n        // require( userMap[seller].availableElecUnits >= responseMessage.amount(), \"Insufficient electricity units in seller's account\");\n        require( userService.getAvailableElecUnits(seller) >= responseMessage.amount(), \"Insufficient electricity units in seller's account\");\n        // userMap[seller].availableElecUnits -= responseMessage.amount();\n        userService.setAvailableElecUnits(seller, userService.getAvailableElecUnits(seller) - responseMessage.amount() );\n\n        // 3.2.1 update seller's statistics (statistics service required)\n        statisticsService.updateTotalSell(seller, responseMessage.amount());\n        statisticsService.addOneElectricSellTransaction(seller, transactionTime, responseMessage.amount());\n        // 3.2.2 update seller's transaction sequence map to record all transactions regardless of type in sequential order (statistics service required)\n        statisticsService.addTransactionToSequenceMap(seller, 1, transactionTime);\n        \n        \n        // 4. update selling post\n        // 1) decrease selling amount accordingly \n        require(sellingPostMap[_sellingPostKey].amountToSell >= responseMessage.amount(), \"Insufficient selling units in selling post\");\n        sellingPostMap[_sellingPostKey].amountToSell -= responseMessage.amount();\n        // 2) set post to disabled if available selling units in selling post are 0\n        if ( sellingPostMap[_sellingPostKey].amountToSell == 0) {\n            sellingPostMap[_sellingPostKey].enabled = false;\n        }\n\n        // 5. record unit transaction price\n        if (averagePriceforSellKey == 100){\n            reachSizeLimit = true;\n            averagePriceforSellKey = 0;\n        }\n        averagePriceforSell[averagePriceforSellKey++] = responseMessage.quotationInWei();\n        \n        // 6. transfer ether to seller's account\n        payable(seller).transfer(msg.value);\n\n        emit SellingPostPaymentSuccess(msg.value, _sellingPostKey, address(responseMessage));\n        \n    }\n\n    // update the unit transaction price into array\n    function updateRecentAveragePriceforSell() public {\n        uint recentTotalPriceforSell = 0;\n        for (uint i = 0; i < averagePriceforSell.length; i++) {\n            recentTotalPriceforSell += averagePriceforSell[i];\n        }\n        if (reachSizeLimit) {\n            (, , recentAveragePriceforSell) = divisionUtils.division(3, recentTotalPriceforSell, 100);\n        } else {\n            (, , recentAveragePriceforSell) = divisionUtils.division(3, recentTotalPriceforSell, averagePriceforSellKey);\n        }\n    }\n\n    // ------------------------- seller side utils -------------------------\n    \n    // returns all selling posts by user address\n    function returnAllSellingPostsByAddress(address _account) public view returns (SellingPost[] memory) {\n        // uint[] memory keys = userMap[_account].sellingPostsKeys;\n        uint[] memory keys = userService.getSellingPostKeys(_account);\n        SellingPost[] memory sellingPosts = new SellingPost[](keys.length);\n        for (uint i = 0; i < keys.length; i++) {\n            sellingPosts[i]  = sellingPostMap[keys[i]]; \n        }\n        return sellingPosts;\n    }\n\n    // return one selling post by post key\n    function getSellingPostByKey(uint _postKey) public view returns(SellingPost memory) {\n        return sellingPostMap[_postKey];\n    }\n\n    // return all response messages of one post by key\n    function returnSellingPostResponseMessagesByKey(uint _postKey) public view returns(PostResponseMessage[] memory){\n        require(_postKey >= 0, \"post key starts from 0\");\n        return sellingPostMap[_postKey].responseMessages;\n    }\n\n    //new\n    // return total number of sell posts in the system\n    function returnSellPostMapSize() public view returns(uint) {\n        return sellingPostCounter;\n    }\n    \n    // return the recent average price for sell transaction\n    function returnRecentAveragePriceforSell() public view returns (string memory) {\n        return recentAveragePriceforSell;\n    }\n\n}\n",
  "sourcePath": "/Users/richard/Doc//sydney_study/22s2/5703/vue-web3-5703/truffle/contracts/SellerService.sol",
  "compiler": {
    "name": "solc",
    "version": "0.8.17+commit.8df45f5f.Emscripten.clang"
  },
  "schemaVersion": "3.4.9",
  "updatedAt": "2022-10-28T10:42:04.829Z",
  "devdoc": {
    "kind": "dev",
    "methods": {},
    "version": 1
  },
  "userdoc": {
    "kind": "user",
    "methods": {},
    "version": 1
  }
}