{
  "contractName": "SellerService",
  "abi": [
    {
      "inputs": [
        {
          "internalType": "contract StatisticsService",
          "name": "_statisticsService",
          "type": "address"
        },
        {
          "internalType": "contract UserService",
          "name": "_userService",
          "type": "address"
        }
      ],
      "stateMutability": "nonpayable",
      "type": "constructor"
    },
    {
      "anonymous": false,
      "inputs": [
        {
          "indexed": false,
          "internalType": "address",
          "name": "creator",
          "type": "address"
        },
        {
          "indexed": false,
          "internalType": "uint256",
          "name": "postKey",
          "type": "uint256"
        },
        {
          "indexed": false,
          "internalType": "uint256",
          "name": "_priceToBuy",
          "type": "uint256"
        },
        {
          "indexed": false,
          "internalType": "uint256",
          "name": "_amountToBuy",
          "type": "uint256"
        }
      ],
      "name": "SellingPostCreated",
      "type": "event"
    },
    {
      "anonymous": false,
      "inputs": [
        {
          "indexed": false,
          "internalType": "uint256",
          "name": "paymentAmount",
          "type": "uint256"
        },
        {
          "indexed": false,
          "internalType": "uint256",
          "name": "sellingPostKey",
          "type": "uint256"
        },
        {
          "indexed": false,
          "internalType": "address",
          "name": "responseMessageAddress",
          "type": "address"
        }
      ],
      "name": "SellingPostPaymentSuccess",
      "type": "event"
    },
    {
      "anonymous": false,
      "inputs": [
        {
          "indexed": false,
          "internalType": "address",
          "name": "creator",
          "type": "address"
        },
        {
          "indexed": false,
          "internalType": "address",
          "name": "responseMessageAddress",
          "type": "address"
        }
      ],
      "name": "SellingPostResponseMessageCreated",
      "type": "event"
    },
    {
      "inputs": [],
      "name": "sellingPostCounter",
      "outputs": [
        {
          "internalType": "uint256",
          "name": "",
          "type": "uint256"
        }
      ],
      "stateMutability": "view",
      "type": "function"
    },
    {
      "inputs": [
        {
          "internalType": "uint256",
          "name": "_priceToSell",
          "type": "uint256"
        },
        {
          "internalType": "uint256",
          "name": "_amountToSell",
          "type": "uint256"
        },
        {
          "internalType": "address",
          "name": "_msgSender",
          "type": "address"
        }
      ],
      "name": "createSellingPost",
      "outputs": [],
      "stateMutability": "nonpayable",
      "type": "function"
    },
    {
      "inputs": [
        {
          "internalType": "uint256",
          "name": "_amountToBuy",
          "type": "uint256"
        },
        {
          "internalType": "uint256",
          "name": "_quotationInWei",
          "type": "uint256"
        },
        {
          "internalType": "uint256",
          "name": "_sellingPostKey",
          "type": "uint256"
        },
        {
          "internalType": "address",
          "name": "_msgSender",
          "type": "address"
        }
      ],
      "name": "createResponseMessageToSellingPost",
      "outputs": [],
      "stateMutability": "nonpayable",
      "type": "function"
    },
    {
      "inputs": [
        {
          "internalType": "uint256",
          "name": "_sellingPostKey",
          "type": "uint256"
        },
        {
          "internalType": "uint256",
          "name": "_responseMessageIndex",
          "type": "uint256"
        }
      ],
      "name": "handleSellingPostPayment",
      "outputs": [],
      "stateMutability": "payable",
      "type": "function"
    },
    {
      "inputs": [
        {
          "internalType": "address",
          "name": "_account",
          "type": "address"
        }
      ],
      "name": "returnAllSellingPostsByAddress",
      "outputs": [
        {
          "components": [
            {
              "internalType": "uint256",
              "name": "priceToSell",
              "type": "uint256"
            },
            {
              "internalType": "uint256",
              "name": "amountToSell",
              "type": "uint256"
            },
            {
              "internalType": "address",
              "name": "seller",
              "type": "address"
            },
            {
              "internalType": "bool",
              "name": "enabled",
              "type": "bool"
            },
            {
              "internalType": "uint256",
              "name": "createdAt",
              "type": "uint256"
            },
            {
              "internalType": "contract PostResponseMessage[]",
              "name": "responseMessages",
              "type": "address[]"
            }
          ],
          "internalType": "struct BeanStructs.SellingPost[]",
          "name": "",
          "type": "tuple[]"
        }
      ],
      "stateMutability": "view",
      "type": "function"
    },
    {
      "inputs": [
        {
          "internalType": "uint256",
          "name": "_postKey",
          "type": "uint256"
        }
      ],
      "name": "getSellingPostByKey",
      "outputs": [
        {
          "components": [
            {
              "internalType": "uint256",
              "name": "priceToSell",
              "type": "uint256"
            },
            {
              "internalType": "uint256",
              "name": "amountToSell",
              "type": "uint256"
            },
            {
              "internalType": "address",
              "name": "seller",
              "type": "address"
            },
            {
              "internalType": "bool",
              "name": "enabled",
              "type": "bool"
            },
            {
              "internalType": "uint256",
              "name": "createdAt",
              "type": "uint256"
            },
            {
              "internalType": "contract PostResponseMessage[]",
              "name": "responseMessages",
              "type": "address[]"
            }
          ],
          "internalType": "struct BeanStructs.SellingPost",
          "name": "",
          "type": "tuple"
        }
      ],
      "stateMutability": "view",
      "type": "function"
    },
    {
      "inputs": [
        {
          "internalType": "uint256",
          "name": "_postKey",
          "type": "uint256"
        }
      ],
      "name": "returnSellingPostResponseMessagesByKey",
      "outputs": [
        {
          "internalType": "contract PostResponseMessage[]",
          "name": "",
          "type": "address[]"
        }
      ],
      "stateMutability": "view",
      "type": "function"
    },
    {
      "inputs": [],
      "name": "returnSellPostMapSize",
      "outputs": [
        {
          "internalType": "uint256",
          "name": "",
          "type": "uint256"
        }
      ],
      "stateMutability": "view",
      "type": "function"
    }
  ],
  "bytecode": "0x60806040523480156200001157600080fd5b50604051620044ba380380620044ba833981810160405281019062000037919062000184565b81600460006101000a81548173ffffffffffffffffffffffffffffffffffffffff021916908373ffffffffffffffffffffffffffffffffffffffff16021790555080600560006101000a81548173ffffffffffffffffffffffffffffffffffffffff021916908373ffffffffffffffffffffffffffffffffffffffff1602179055505050620001cb565b600080fd5b600073ffffffffffffffffffffffffffffffffffffffff82169050919050565b6000620000f382620000c6565b9050919050565b60006200010782620000e6565b9050919050565b6200011981620000fa565b81146200012557600080fd5b50565b60008151905062000139816200010e565b92915050565b60006200014c82620000e6565b9050919050565b6200015e816200013f565b81146200016a57600080fd5b50565b6000815190506200017e8162000153565b92915050565b600080604083850312156200019e576200019d620000c1565b5b6000620001ae8582860162000128565b9250506020620001c1858286016200016d565b9150509250929050565b6142df80620001db6000396000f3fe608060405260043610620000865760003560e01c80636fc1a2c311620000555780636fc1a2c3146200014d578063906eb21c146200017d578063ae87ca7c14620001ab578063da02c9de14620001ef5762000086565b80630876290a146200008b57806335df350914620000ab5780634cb3a34514620000db5780636627cbd61462000109575b600080fd5b620000a96004803603810190620000a3919062001ab1565b62000233565b005b348015620000b857600080fd5b50620000c362000ff0565b604051620000d2919062001b09565b60405180910390f35b348015620000e857600080fd5b5062000107600480360381019062000101919062001b8b565b62000ffa565b005b3480156200011657600080fd5b506200013560048036038101906200012f919062001bfd565b6200128b565b60405162000144919062001d57565b60405180910390f35b3480156200015a57600080fd5b506200016562001377565b60405162000174919062001b09565b60405180910390f35b3480156200018a57600080fd5b50620001a96004803603810190620001a3919062001d7b565b6200137d565b005b348015620001b857600080fd5b50620001d76004803603810190620001d1919062001dd7565b62001605565b604051620001e6919062002028565b60405180910390f35b348015620001fc57600080fd5b506200021b600480360381019062000215919062001bfd565b620018b9565b6040516200022a9190620020e1565b60405180910390f35b600080600084815260200190815260200160002060040182815481106200025f576200025e62002105565b5b9060005260206000200160009054906101000a900473ffffffffffffffffffffffffffffffffffffffff1690503373ffffffffffffffffffffffffffffffffffffffff168173ffffffffffffffffffffffffffffffffffffffff1614620002fd576040517f08c379a0000000000000000000000000000000000000000000000000000000008152600401620002f490620021bb565b60405180910390fd5b600042905060008273ffffffffffffffffffffffffffffffffffffffff1663d67bdd256040518163ffffffff1660e01b8152600401602060405180830381865afa15801562000350573d6000803e3d6000fd5b505050506040513d601f19601f82011682018060405250810190620003769190620021f4565b9050600560009054906101000a900473ffffffffffffffffffffffffffffffffffffffff1673ffffffffffffffffffffffffffffffffffffffff1663e2670971828573ffffffffffffffffffffffffffffffffffffffff1663aa8c217c6040518163ffffffff1660e01b8152600401602060405180830381865afa15801562000403573d6000803e3d6000fd5b505050506040513d601f19601f820116820180604052508101906200042991906200223d565b600560009054906101000a900473ffffffffffffffffffffffffffffffffffffffff1673ffffffffffffffffffffffffffffffffffffffff1663cb8ab15b866040518263ffffffff1660e01b815260040162000486919062002280565b602060405180830381865afa158015620004a4573d6000803e3d6000fd5b505050506040513d601f19601f82011682018060405250810190620004ca91906200223d565b620004d69190620022cc565b6040518363ffffffff1660e01b8152600401620004f592919062002307565b600060405180830381600087803b1580156200051057600080fd5b505af115801562000525573d6000803e3d6000fd5b50505050600460009054906101000a900473ffffffffffffffffffffffffffffffffffffffff1673ffffffffffffffffffffffffffffffffffffffff16633f9b696c828573ffffffffffffffffffffffffffffffffffffffff1663aa8c217c6040518163ffffffff1660e01b8152600401602060405180830381865afa158015620005b4573d6000803e3d6000fd5b505050506040513d601f19601f82011682018060405250810190620005da91906200223d565b6040518363ffffffff1660e01b8152600401620005f992919062002307565b600060405180830381600087803b1580156200061457600080fd5b505af115801562000629573d6000803e3d6000fd5b50505050600460009054906101000a900473ffffffffffffffffffffffffffffffffffffffff1673ffffffffffffffffffffffffffffffffffffffff16632f0a323e82848673ffffffffffffffffffffffffffffffffffffffff1663aa8c217c6040518163ffffffff1660e01b8152600401602060405180830381865afa158015620006b9573d6000803e3d6000fd5b505050506040513d601f19601f82011682018060405250810190620006df91906200223d565b6040518463ffffffff1660e01b8152600401620006ff9392919062002334565b600060405180830381600087803b1580156200071a57600080fd5b505af11580156200072f573d6000803e3d6000fd5b50505050600460009054906101000a900473ffffffffffffffffffffffffffffffffffffffff1673ffffffffffffffffffffffffffffffffffffffff1663e6b02333826000856040518463ffffffff1660e01b81526004016200079593929190620023b4565b600060405180830381600087803b158015620007b057600080fd5b505af1158015620007c5573d6000803e3d6000fd5b50505050600080600087815260200190815260200160002060020160009054906101000a900473ffffffffffffffffffffffffffffffffffffffff1690508373ffffffffffffffffffffffffffffffffffffffff1663aa8c217c6040518163ffffffff1660e01b8152600401602060405180830381865afa1580156200084f573d6000803e3d6000fd5b505050506040513d601f19601f820116820180604052508101906200087591906200223d565b600560009054906101000a900473ffffffffffffffffffffffffffffffffffffffff1673ffffffffffffffffffffffffffffffffffffffff1663cb8ab15b836040518263ffffffff1660e01b8152600401620008d2919062002280565b602060405180830381865afa158015620008f0573d6000803e3d6000fd5b505050506040513d601f19601f820116820180604052508101906200091691906200223d565b10156200095a576040517f08c379a0000000000000000000000000000000000000000000000000000000008152600401620009519062002467565b60405180910390fd5b600560009054906101000a900473ffffffffffffffffffffffffffffffffffffffff1673ffffffffffffffffffffffffffffffffffffffff1663e2670971828673ffffffffffffffffffffffffffffffffffffffff1663aa8c217c6040518163ffffffff1660e01b8152600401602060405180830381865afa158015620009e5573d6000803e3d6000fd5b505050506040513d601f19601f8201168201806040525081019062000a0b91906200223d565b600560009054906101000a900473ffffffffffffffffffffffffffffffffffffffff1673ffffffffffffffffffffffffffffffffffffffff1663cb8ab15b866040518263ffffffff1660e01b815260040162000a68919062002280565b602060405180830381865afa15801562000a86573d6000803e3d6000fd5b505050506040513d601f19601f8201168201806040525081019062000aac91906200223d565b62000ab8919062002489565b6040518363ffffffff1660e01b815260040162000ad792919062002307565b600060405180830381600087803b15801562000af257600080fd5b505af115801562000b07573d6000803e3d6000fd5b50505050600460009054906101000a900473ffffffffffffffffffffffffffffffffffffffff1673ffffffffffffffffffffffffffffffffffffffff1663e8b8530f828673ffffffffffffffffffffffffffffffffffffffff1663aa8c217c6040518163ffffffff1660e01b8152600401602060405180830381865afa15801562000b96573d6000803e3d6000fd5b505050506040513d601f19601f8201168201806040525081019062000bbc91906200223d565b6040518363ffffffff1660e01b815260040162000bdb92919062002307565b600060405180830381600087803b15801562000bf657600080fd5b505af115801562000c0b573d6000803e3d6000fd5b50505050600460009054906101000a900473ffffffffffffffffffffffffffffffffffffffff1673ffffffffffffffffffffffffffffffffffffffff16631e7ba9cd82858773ffffffffffffffffffffffffffffffffffffffff1663aa8c217c6040518163ffffffff1660e01b8152600401602060405180830381865afa15801562000c9b573d6000803e3d6000fd5b505050506040513d601f19601f8201168201806040525081019062000cc191906200223d565b6040518463ffffffff1660e01b815260040162000ce19392919062002334565b600060405180830381600087803b15801562000cfc57600080fd5b505af115801562000d11573d6000803e3d6000fd5b50505050600460009054906101000a900473ffffffffffffffffffffffffffffffffffffffff1673ffffffffffffffffffffffffffffffffffffffff1663e6b02333826001866040518463ffffffff1660e01b815260040162000d779392919062002507565b600060405180830381600087803b15801562000d9257600080fd5b505af115801562000da7573d6000803e3d6000fd5b505050508373ffffffffffffffffffffffffffffffffffffffff1663aa8c217c6040518163ffffffff1660e01b8152600401602060405180830381865afa15801562000df7573d6000803e3d6000fd5b505050506040513d601f19601f8201168201806040525081019062000e1d91906200223d565b60008088815260200190815260200160002060010154101562000e77576040517f08c379a000000000000000000000000000000000000000000000000000000000815260040162000e6e90620025ba565b60405180910390fd5b8373ffffffffffffffffffffffffffffffffffffffff1663aa8c217c6040518163ffffffff1660e01b8152600401602060405180830381865afa15801562000ec3573d6000803e3d6000fd5b505050506040513d601f19601f8201168201806040525081019062000ee991906200223d565b600080888152602001908152602001600020600101600082825462000f0f919062002489565b925050819055506000806000888152602001908152602001600020600101540362000f6357600080600088815260200190815260200160002060020160146101000a81548160ff0219169083151502179055505b8073ffffffffffffffffffffffffffffffffffffffff166108fc349081150290604051600060405180830381858888f1935050505015801562000faa573d6000803e3d6000fd5b507f58e40951e480e0eb47a55e7fe3d9efbfcf47e2513825240c24a81843b2fb6c7b34878660405162000fe093929190620025dc565b60405180910390a1505050505050565b6000600354905090565b6000841162001040576040517f08c379a0000000000000000000000000000000000000000000000000000000008152600401620010379062002669565b60405180910390fd5b6000831162001086576040517f08c379a00000000000000000000000000000000000000000000000000000000081526004016200107d90620026db565b60405180910390fd5b6000821015620010cd576040517f08c379a0000000000000000000000000000000000000000000000000000000008152600401620010c4906200274d565b60405180910390fd5b60008083815260200190815260200160002060020160009054906101000a900473ffffffffffffffffffffffffffffffffffffffff1673ffffffffffffffffffffffffffffffffffffffff168173ffffffffffffffffffffffffffffffffffffffff160362001173576040517f08c379a00000000000000000000000000000000000000000000000000000000081526004016200116a90620027e5565b60405180910390fd5b600080600084815260200190815260200160002060040180549050905060003083878760018887604051620011a89062001a06565b620011ba97969594939291906200284d565b604051809103906000f080158015620011d7573d6000803e3d6000fd5b50905080600080868152602001908152602001600020600401600181600181540180825580915050039060005260206000200160006101000a81548173ffffffffffffffffffffffffffffffffffffffff021916908373ffffffffffffffffffffffffffffffffffffffff1602179055507fc7f10d7197fb2a9693c302afe34b2b61de0f7048c4a33a39923e281c0c93ee2283826040516200127b929190620028ca565b60405180910390a1505050505050565b60606000821015620012d4576040517f08c379a0000000000000000000000000000000000000000000000000000000008152600401620012cb906200274d565b60405180910390fd5b6000808381526020019081526020016000206004018054806020026020016040519081016040528092919081815260200182805480156200136b57602002820191906000526020600020905b8160009054906101000a900473ffffffffffffffffffffffffffffffffffffffff1673ffffffffffffffffffffffffffffffffffffffff168152602001906001019080831162001320575b50505050509050919050565b60035481565b60008311620013c3576040517f08c379a0000000000000000000000000000000000000000000000000000000008152600401620013ba906200296d565b60405180910390fd5b6000821162001409576040517f08c379a0000000000000000000000000000000000000000000000000000000008152600401620014009062002a05565b60405180910390fd5b826000806003548152602001908152602001600020600001819055508160008060035481526020019081526020016000206001018190555080600080600354815260200190815260200160002060020160006101000a81548173ffffffffffffffffffffffffffffffffffffffff021916908373ffffffffffffffffffffffffffffffffffffffff1602179055506001600080600354815260200190815260200160002060020160146101000a81548160ff021916908315150217905550426000806003548152602001908152602001600020600301819055506001806000600354815260200190815260200160002060006101000a81548160ff021916908315150217905550600560009054906101000a900473ffffffffffffffffffffffffffffffffffffffff1673ffffffffffffffffffffffffffffffffffffffff1663c331d842826003546040518363ffffffff1660e01b81526004016200157192919062002307565b600060405180830381600087803b1580156200158c57600080fd5b505af1158015620015a1573d6000803e3d6000fd5b505050507f70d4f73f8dc596f6b7f1d3996153d2ae6e391837c8ad344b8f32ffe96fbbed9c816003548585604051620015de949392919062002a27565b60405180910390a160036000815480929190620015fb9062002a74565b9190505550505050565b60606000600560009054906101000a900473ffffffffffffffffffffffffffffffffffffffff1673ffffffffffffffffffffffffffffffffffffffff16631d036d7d846040518263ffffffff1660e01b815260040162001666919062002280565b600060405180830381865afa15801562001684573d6000803e3d6000fd5b505050506040513d6000823e3d601f19601f82011682018060405250810190620016af919062002c36565b90506000815167ffffffffffffffff811115620016d157620016d062002ad7565b5b6040519080825280602002602001820160405280156200170e57816020015b620016fa62001a14565b815260200190600190039081620016f05790505b50905060005b8251811015620018ae5760008084838151811062001737576200173662002105565b5b602002602001015181526020019081526020016000206040518060c001604052908160008201548152602001600182015481526020016002820160009054906101000a900473ffffffffffffffffffffffffffffffffffffffff1673ffffffffffffffffffffffffffffffffffffffff1673ffffffffffffffffffffffffffffffffffffffff1681526020016002820160149054906101000a900460ff1615151515815260200160038201548152602001600482018054806020026020016040519081016040528092919081815260200182805480156200186e57602002820191906000526020600020905b8160009054906101000a900473ffffffffffffffffffffffffffffffffffffffff1673ffffffffffffffffffffffffffffffffffffffff168152602001906001019080831162001823575b5050505050815250508282815181106200188d576200188c62002105565b5b60200260200101819052508080620018a59062002a74565b91505062001714565b508092505050919050565b620018c362001a14565b6000808381526020019081526020016000206040518060c001604052908160008201548152602001600182015481526020016002820160009054906101000a900473ffffffffffffffffffffffffffffffffffffffff1673ffffffffffffffffffffffffffffffffffffffff1673ffffffffffffffffffffffffffffffffffffffff1681526020016002820160149054906101000a900460ff161515151581526020016003820154815260200160048201805480602002602001604051908101604052809291908181526020018280548015620019f657602002820191906000526020600020905b8160009054906101000a900473ffffffffffffffffffffffffffffffffffffffff1673ffffffffffffffffffffffffffffffffffffffff1681526020019060010190808311620019ab575b5050505050815250509050919050565b6116228062002c8883390190565b6040518060c001604052806000815260200160008152602001600073ffffffffffffffffffffffffffffffffffffffff16815260200160001515815260200160008152602001606081525090565b6000604051905090565b600080fd5b600080fd5b6000819050919050565b62001a8b8162001a76565b811462001a9757600080fd5b50565b60008135905062001aab8162001a80565b92915050565b6000806040838503121562001acb5762001aca62001a6c565b5b600062001adb8582860162001a9a565b925050602062001aee8582860162001a9a565b9150509250929050565b62001b038162001a76565b82525050565b600060208201905062001b20600083018462001af8565b92915050565b600073ffffffffffffffffffffffffffffffffffffffff82169050919050565b600062001b538262001b26565b9050919050565b62001b658162001b46565b811462001b7157600080fd5b50565b60008135905062001b858162001b5a565b92915050565b6000806000806080858703121562001ba85762001ba762001a6c565b5b600062001bb88782880162001a9a565b945050602062001bcb8782880162001a9a565b935050604062001bde8782880162001a9a565b925050606062001bf18782880162001b74565b91505092959194509250565b60006020828403121562001c165762001c1562001a6c565b5b600062001c268482850162001a9a565b91505092915050565b600081519050919050565b600082825260208201905092915050565b6000819050602082019050919050565b6000819050919050565b600062001c8662001c8062001c7a8462001b26565b62001c5b565b62001b26565b9050919050565b600062001c9a8262001c65565b9050919050565b600062001cae8262001c8d565b9050919050565b62001cc08162001ca1565b82525050565b600062001cd4838362001cb5565b60208301905092915050565b6000602082019050919050565b600062001cfa8262001c2f565b62001d06818562001c3a565b935062001d138362001c4b565b8060005b8381101562001d4a57815162001d2e888262001cc6565b975062001d3b8362001ce0565b92505060018101905062001d17565b5085935050505092915050565b6000602082019050818103600083015262001d73818462001ced565b905092915050565b60008060006060848603121562001d975762001d9662001a6c565b5b600062001da78682870162001a9a565b935050602062001dba8682870162001a9a565b925050604062001dcd8682870162001b74565b9150509250925092565b60006020828403121562001df05762001def62001a6c565b5b600062001e008482850162001b74565b91505092915050565b600081519050919050565b600082825260208201905092915050565b6000819050602082019050919050565b62001e408162001a76565b82525050565b62001e518162001b46565b82525050565b60008115159050919050565b62001e6e8162001e57565b82525050565b600082825260208201905092915050565b600062001e928262001c2f565b62001e9e818562001e74565b935062001eab8362001c4b565b8060005b8381101562001ee257815162001ec6888262001cc6565b975062001ed38362001ce0565b92505060018101905062001eaf565b5085935050505092915050565b600060c08301600083015162001f09600086018262001e35565b50602083015162001f1e602086018262001e35565b50604083015162001f33604086018262001e46565b50606083015162001f48606086018262001e63565b50608083015162001f5d608086018262001e35565b5060a083015184820360a086015262001f77828262001e85565b9150508091505092915050565b600062001f92838362001eef565b905092915050565b6000602082019050919050565b600062001fb48262001e09565b62001fc0818562001e14565b93508360208202850162001fd48562001e25565b8060005b8581101562002016578484038952815162001ff4858262001f84565b9450620020018362001f9a565b925060208a0199505060018101905062001fd8565b50829750879550505050505092915050565b6000602082019050818103600083015262002044818462001fa7565b905092915050565b600060c08301600083015162002066600086018262001e35565b5060208301516200207b602086018262001e35565b50604083015162002090604086018262001e46565b506060830151620020a5606086018262001e63565b506080830151620020ba608086018262001e35565b5060a083015184820360a0860152620020d4828262001e85565b9150508091505092915050565b60006020820190508181036000830152620020fd81846200204c565b905092915050565b7f4e487b7100000000000000000000000000000000000000000000000000000000600052603260045260246000fd5b600082825260208201905092915050565b7f4f6e6c7920726573706f6e7365206d657373616765732061726520616c6c6f7760008201527f656420746f2074726967676572207061796d656e742070726f63657373000000602082015250565b6000620021a3603d8362002134565b9150620021b08262002145565b604082019050919050565b60006020820190508181036000830152620021d68162002194565b9050919050565b600081519050620021ee8162001b5a565b92915050565b6000602082840312156200220d576200220c62001a6c565b5b60006200221d84828501620021dd565b91505092915050565b600081519050620022378162001a80565b92915050565b60006020828403121562002256576200225562001a6c565b5b6000620022668482850162002226565b91505092915050565b6200227a8162001b46565b82525050565b60006020820190506200229760008301846200226f565b92915050565b7f4e487b7100000000000000000000000000000000000000000000000000000000600052601160045260246000fd5b6000620022d98262001a76565b9150620022e68362001a76565b92508282019050808211156200230157620023006200229d565b5b92915050565b60006040820190506200231e60008301856200226f565b6200232d602083018462001af8565b9392505050565b60006060820190506200234b60008301866200226f565b6200235a602083018562001af8565b62002369604083018462001af8565b949350505050565b6000819050919050565b60006200239c62002396620023908462002371565b62001c5b565b62001a76565b9050919050565b620023ae816200237b565b82525050565b6000606082019050620023cb60008301866200226f565b620023da6020830185620023a3565b620023e9604083018462001af8565b949350505050565b7f496e73756666696369656e7420656c65637472696369747920756e697473206960008201527f6e2073656c6c65722773206163636f756e740000000000000000000000000000602082015250565b60006200244f60328362002134565b91506200245c82620023f1565b604082019050919050565b60006020820190508181036000830152620024828162002440565b9050919050565b6000620024968262001a76565b9150620024a38362001a76565b9250828203905081811115620024be57620024bd6200229d565b5b92915050565b6000819050919050565b6000620024ef620024e9620024e384620024c4565b62001c5b565b62001a76565b9050919050565b6200250181620024ce565b82525050565b60006060820190506200251e60008301866200226f565b6200252d6020830185620024f6565b6200253c604083018462001af8565b949350505050565b7f496e73756666696369656e742073656c6c696e6720756e69747320696e20736560008201527f6c6c696e6720706f737400000000000000000000000000000000000000000000602082015250565b6000620025a2602a8362002134565b9150620025af8262002544565b604082019050919050565b60006020820190508181036000830152620025d58162002593565b9050919050565b6000606082019050620025f3600083018662001af8565b62002602602083018562001af8565b6200261160408301846200226f565b949350505050565b7f616d6f756e74206d7573742062652067726561746572207468616e2030000000600082015250565b600062002651601d8362002134565b91506200265e8262002619565b602082019050919050565b60006020820190508181036000830152620026848162002642565b9050919050565b7f71756f746174696f6e206d7573742062652067726561746572207468616e2030600082015250565b6000620026c360208362002134565b9150620026d0826200268b565b602082019050919050565b60006020820190508181036000830152620026f681620026b4565b9050919050565b7f706f7374206b6579207374617274732066726f6d203000000000000000000000600082015250565b60006200273560168362002134565b91506200274282620026fd565b602082019050919050565b60006020820190508181036000830152620027688162002726565b9050919050565b7f596f752063616e6e6f74207265706c7920746f20796f7572206f776e2073656c60008201527f6c696e6720706f73740000000000000000000000000000000000000000000000602082015250565b6000620027cd60298362002134565b9150620027da826200276f565b604082019050919050565b600060208201905081810360008301526200280081620027be565b9050919050565b600060ff82169050919050565b6000620028356200282f6200282984620024c4565b62001c5b565b62002807565b9050919050565b620028478162002814565b82525050565b600060e08201905062002864600083018a6200226f565b6200287360208301896200226f565b62002882604083018862001af8565b62002891606083018762001af8565b620028a060808301866200283c565b620028af60a083018562001af8565b620028be60c083018462001af8565b98975050505050505050565b6000604082019050620028e160008301856200226f565b620028f060208301846200226f565b9392505050565b7f7075726368617365207072696365206d7573742062652067726561746572207460008201527f68616e2030000000000000000000000000000000000000000000000000000000602082015250565b60006200295560258362002134565b91506200296282620028f7565b604082019050919050565b60006020820190508181036000830152620029888162002946565b9050919050565b7f616d6f756e7420746f20627579206d757374206265206772656174657220746860008201527f616e203000000000000000000000000000000000000000000000000000000000602082015250565b6000620029ed60248362002134565b9150620029fa826200298f565b604082019050919050565b6000602082019050818103600083015262002a2081620029de565b9050919050565b600060808201905062002a3e60008301876200226f565b62002a4d602083018662001af8565b62002a5c604083018562001af8565b62002a6b606083018462001af8565b95945050505050565b600062002a818262001a76565b91507fffffffffffffffffffffffffffffffffffffffffffffffffffffffffffffffff820362002ab65762002ab56200229d565b5b600182019050919050565b600080fd5b6000601f19601f8301169050919050565b7f4e487b7100000000000000000000000000000000000000000000000000000000600052604160045260246000fd5b62002b118262002ac6565b810181811067ffffffffffffffff8211171562002b335762002b3262002ad7565b5b80604052505050565b600062002b4862001a62565b905062002b56828262002b06565b919050565b600067ffffffffffffffff82111562002b795762002b7862002ad7565b5b602082029050602081019050919050565b600080fd5b600062002ba662002ba08462002b5b565b62002b3c565b9050808382526020820190506020840283018581111562002bcc5762002bcb62002b8a565b5b835b8181101562002bf9578062002be4888262002226565b84526020840193505060208101905062002bce565b5050509392505050565b600082601f83011262002c1b5762002c1a62002ac1565b5b815162002c2d84826020860162002b8f565b91505092915050565b60006020828403121562002c4f5762002c4e62001a6c565b5b600082015167ffffffffffffffff81111562002c705762002c6f62001a71565b5b62002c7e8482850162002c03565b9150509291505056fe60806040523480156200001157600080fd5b50604051620016223803806200162283398181016040528101906200003791906200021c565b86600860006101000a81548173ffffffffffffffffffffffffffffffffffffffff021916908373ffffffffffffffffffffffffffffffffffffffff160217905550856000806101000a81548173ffffffffffffffffffffffffffffffffffffffff021916908373ffffffffffffffffffffffffffffffffffffffff160217905550846001819055508360028190555082600360006101000a81548160ff021916908360ff16021790555081600481905550806005819055506000600660006101000a81548160ff0219169083151502179055506000600660016101000a81548160ff0219169083151502179055504260078190555050505050505050620002cf565b600080fd5b600073ffffffffffffffffffffffffffffffffffffffff82169050919050565b60006200016b826200013e565b9050919050565b6200017d816200015e565b81146200018957600080fd5b50565b6000815190506200019d8162000172565b92915050565b6000819050919050565b620001b881620001a3565b8114620001c457600080fd5b50565b600081519050620001d881620001ad565b92915050565b600060ff82169050919050565b620001f681620001de565b81146200020257600080fd5b50565b6000815190506200021681620001eb565b92915050565b600080600080600080600060e0888a0312156200023e576200023d62000139565b5b60006200024e8a828b016200018c565b9750506020620002618a828b016200018c565b9650506040620002748a828b01620001c7565b9550506060620002878a828b01620001c7565b94505060806200029a8a828b0162000205565b93505060a0620002ad8a828b01620001c7565b92505060c0620002c08a828b01620001c7565b91505092959891949750929550565b61134380620002df6000396000f3fe6080604052600436106100c65760003560e01c806382fa096a1161007f578063abf4d6c411610059578063abf4d6c414610424578063c32b9b531461042e578063cf09e0d014610438578063d67bdd25146104635761029e565b806382fa096a146103a3578063a03a202e146103ce578063aa8c217c146103f95761029e565b806304dc4cda146102a3578063209ebc08146102ce5780633013aa25146102f95780633d855485146103225780633e784e631461034d5780635051a5ec146103785761029e565b3661029e576000341161010e576040517f08c379a000000000000000000000000000000000000000000000000000000000815260040161010590610b63565b60405180910390fd5b60011515600660009054906101000a900460ff16151514610164576040517f08c379a000000000000000000000000000000000000000000000000000000000815260040161015b90610bf5565b60405180910390fd5b346002546001546101759190610c4e565b146101b5576040517f08c379a00000000000000000000000000000000000000000000000000000000081526004016101ac90610cdc565b60405180910390fd5b60001515600660019054906101000a900460ff1615151461020b576040517f08c379a000000000000000000000000000000000000000000000000000000000815260040161020290610d48565b60405180910390fd5b6000600360009054906101000a900460ff1660ff16036102325761022d61048e565b61029c565b6001600360009054906101000a900460ff1660ff16036102595761025461069d565b61029b565b600061029a576040517f08c379a000000000000000000000000000000000000000000000000000000000815260040161029190610db4565b60405180910390fd5b5b5b005b600080fd5b3480156102af57600080fd5b506102b86108ac565b6040516102c59190610df0565b60405180910390f35b3480156102da57600080fd5b506102e36108bf565b6040516102f09190610e26565b60405180910390f35b34801561030557600080fd5b50610320600480360381019061031b9190610e72565b6108d2565b005b34801561032e57600080fd5b5061033761093d565b6040516103449190610eae565b60405180910390f35b34801561035957600080fd5b50610362610943565b60405161036f9190610eae565b60405180910390f35b34801561038457600080fd5b5061038d610949565b60405161039a9190610e26565b60405180910390f35b3480156103af57600080fd5b506103b861095c565b6040516103c59190610fee565b60405180910390f35b3480156103da57600080fd5b506103e3610a67565b6040516103f09190610eae565b60405180910390f35b34801561040557600080fd5b5061040e610a6d565b60405161041b9190610eae565b60405180910390f35b61042c61048e565b005b61043661069d565b005b34801561044457600080fd5b5061044d610a73565b60405161045a9190610eae565b60405180910390f35b34801561046f57600080fd5b50610478610a79565b6040516104859190611019565b60405180910390f35b60008054906101000a900473ffffffffffffffffffffffffffffffffffffffff1673ffffffffffffffffffffffffffffffffffffffff163373ffffffffffffffffffffffffffffffffffffffff160361051c576040517f08c379a0000000000000000000000000000000000000000000000000000000008152600401610513906110a6565b60405180910390fd5b6000600860009054906101000a900473ffffffffffffffffffffffffffffffffffffffff1673ffffffffffffffffffffffffffffffffffffffff163460045460055460405160240161056f9291906110c6565b6040516020818303038152906040527f3d480db5000000000000000000000000000000000000000000000000000000007bffffffffffffffffffffffffffffffffffffffffffffffffffffffff19166020820180517bffffffffffffffffffffffffffffffffffffffffffffffffffffffff83818316178352505050506040516105f99190611160565b60006040518083038185875af1925050503d8060008114610636576040519150601f19603f3d011682016040523d82523d6000602084013e61063b565b606091505b505090508061067f576040517f08c379a0000000000000000000000000000000000000000000000000000000008152600401610676906111c3565b60405180910390fd5b6001600660016101000a81548160ff02191690831515021790555050565b60008054906101000a900473ffffffffffffffffffffffffffffffffffffffff1673ffffffffffffffffffffffffffffffffffffffff163373ffffffffffffffffffffffffffffffffffffffff161461072b576040517f08c379a00000000000000000000000000000000000000000000000000000000081526004016107229061127b565b60405180910390fd5b6000600860009054906101000a900473ffffffffffffffffffffffffffffffffffffffff1673ffffffffffffffffffffffffffffffffffffffff163460045460055460405160240161077e9291906110c6565b6040516020818303038152906040527f0876290a000000000000000000000000000000000000000000000000000000007bffffffffffffffffffffffffffffffffffffffffffffffffffffffff19166020820180517bffffffffffffffffffffffffffffffffffffffffffffffffffffffff83818316178352505050506040516108089190611160565b60006040518083038185875af1925050503d8060008114610845576040519150601f19603f3d011682016040523d82523d6000602084013e61084a565b606091505b505090508061088e576040517f08c379a0000000000000000000000000000000000000000000000000000000008152600401610885906111c3565b60405180910390fd5b6001600660016101000a81548160ff02191690831515021790555050565b600360009054906101000a900460ff1681565b600660019054906101000a900460ff1681565b80600660006101000a81548160ff0219169083151502179055507f9161e5ec70df4a8ef9f6085e3435135f3da64c7ec32c271912e1ca8d4afbd7c3600360009054906101000a900460ff16600454600554604051610932939291906112d6565b60405180910390a150565b60045481565b60055481565b600660009054906101000a900460ff1681565b610964610a9d565b61096c610a9d565b60008054906101000a900473ffffffffffffffffffffffffffffffffffffffff16816000019073ffffffffffffffffffffffffffffffffffffffff16908173ffffffffffffffffffffffffffffffffffffffff1681525050600154816020018181525050600254816040018181525050600360009054906101000a900460ff16816060019060ff16908160ff16815250506004548160800181815250506005548160a0018181525050600660009054906101000a900460ff168160c0019015159081151581525050600660019054906101000a900460ff168160e0019015159081151581525050600754816101000181815250508091505090565b60025481565b60015481565b60075481565b60008054906101000a900473ffffffffffffffffffffffffffffffffffffffff1681565b604051806101200160405280600073ffffffffffffffffffffffffffffffffffffffff1681526020016000815260200160008152602001600060ff1681526020016000815260200160008152602001600015158152602001600015158152602001600081525090565b600082825260208201905092915050565b7f696e76616c6964207061796d656e740000000000000000000000000000000000600082015250565b6000610b4d600f83610b06565b9150610b5882610b17565b602082019050919050565b60006020820190508181036000830152610b7c81610b40565b9050919050565b7f796f757220726573706f6e736520686173206e6f74206265656e20616363657060008201527f7465642062792073656c6c657220796574000000000000000000000000000000602082015250565b6000610bdf603183610b06565b9150610bea82610b83565b604082019050919050565b60006020820190508181036000830152610c0e81610bd2565b9050919050565b6000819050919050565b7f4e487b7100000000000000000000000000000000000000000000000000000000600052601160045260246000fd5b6000610c5982610c15565b9150610c6483610c15565b9250828202610c7281610c15565b91508282048414831517610c8957610c88610c1f565b5b5092915050565b7f4e6f742066756c6c792070616964207965740000000000000000000000000000600082015250565b6000610cc6601283610b06565b9150610cd182610c90565b602082019050919050565b60006020820190508181036000830152610cf581610cb9565b9050919050565b7f4f7264657220697320616c726561647920706169642100000000000000000000600082015250565b6000610d32601683610b06565b9150610d3d82610cfc565b602082019050919050565b60006020820190508181036000830152610d6181610d25565b9050919050565b7f696e76616c696420726573706f6e7365206d6573736167652074797065000000600082015250565b6000610d9e601d83610b06565b9150610da982610d68565b602082019050919050565b60006020820190508181036000830152610dcd81610d91565b9050919050565b600060ff82169050919050565b610dea81610dd4565b82525050565b6000602082019050610e056000830184610de1565b92915050565b60008115159050919050565b610e2081610e0b565b82525050565b6000602082019050610e3b6000830184610e17565b92915050565b600080fd5b610e4f81610e0b565b8114610e5a57600080fd5b50565b600081359050610e6c81610e46565b92915050565b600060208284031215610e8857610e87610e41565b5b6000610e9684828501610e5d565b91505092915050565b610ea881610c15565b82525050565b6000602082019050610ec36000830184610e9f565b92915050565b600073ffffffffffffffffffffffffffffffffffffffff82169050919050565b6000610ef482610ec9565b9050919050565b610f0481610ee9565b82525050565b610f1381610c15565b82525050565b610f2281610dd4565b82525050565b610f3181610e0b565b82525050565b61012082016000820151610f4e6000850182610efb565b506020820151610f616020850182610f0a565b506040820151610f746040850182610f0a565b506060820151610f876060850182610f19565b506080820151610f9a6080850182610f0a565b5060a0820151610fad60a0850182610f0a565b5060c0820151610fc060c0850182610f28565b5060e0820151610fd360e0850182610f28565b50610100820151610fe8610100850182610f0a565b50505050565b6000610120820190506110046000830184610f37565b92915050565b61101381610ee9565b82525050565b600060208201905061102e600083018461100a565b92915050565b7f596f752063616e6e6f74206d616b652061207061796d656e7420746f20796f7560008201527f72206f776e2073656c6c696e6720726573706f6e7365206d6573736167650000602082015250565b6000611090603e83610b06565b915061109b82611034565b604082019050919050565b600060208201905081810360008301526110bf81611083565b9050919050565b60006040820190506110db6000830185610e9f565b6110e86020830184610e9f565b9392505050565b600081519050919050565b600081905092915050565b60005b83811015611123578082015181840152602081019050611108565b60008484015250505050565b600061113a826110ef565b61114481856110fa565b9350611154818560208601611105565b80840191505092915050565b600061116c828461112f565b915081905092915050565b7f7061796d656e74206661696c6564000000000000000000000000000000000000600082015250565b60006111ad600e83610b06565b91506111b882611177565b602082019050919050565b600060208201905081810360008301526111dc816111a0565b9050919050565b7f4f6e6c7920746865206d6573736167652073656e6465722077686f2073656e7460008201527f207468697320726573706f6e736520746f206163717569726520656c6563747260208201527f696369747920756e6974732063616e206d616b652061207061796d656e740000604082015250565b6000611265605e83610b06565b9150611270826111e3565b606082019050919050565b6000602082019050818103600083015261129481611258565b9050919050565b6000819050919050565b60006112c06112bb6112b684610dd4565b61129b565b610c15565b9050919050565b6112d0816112a5565b82525050565b60006060820190506112eb60008301866112c7565b6112f86020830185610e9f565b6113056040830184610e9f565b94935050505056fea264697066735822122073e925c02640f54ec6f797a0c5db83b3650b31ffafe16a7aa55534274ce1d24064736f6c63430008110033a26469706673582212209d95ff9bbaed84bf3e9ecb9eb19986875f617a09de3cc8bfebc0b8b398e02e6964736f6c63430008110033",
  "immutableReferences": {},
  "source": "//SPDX-License-Identifier: MIT\n\npragma solidity ^0.8.0;\n\nimport \"./BeanStructs.sol\";\nimport \"./UserService.sol\";\nimport \"./StatisticsService.sol\";\n\ncontract SellerService is BeanStructs {\n\n    // ------------------------- seller side storage variables -------------------------\n    \n    // map each purchase post to an index\n    mapping(uint => SellingPost) sellingPostMap;\n    mapping(uint => bool) sellingPostStatus;       // label purchase post status\n    uint[]  sellingPostKeys;                        // array of keys of purchase posts \n    uint public sellingPostCounter;                  // count total number of purchase posts, start from 0\n    \n\n    // reference to statistics service\n    StatisticsService statisticsService;\n    UserService userService;\n    \n    constructor(StatisticsService _statisticsService, UserService _userService) {\n        statisticsService = _statisticsService;\n        userService = _userService;\n    }\n\n    // events\n    event SellingPostCreated(address creator, uint postKey, uint _priceToBuy, uint _amountToBuy);\n    event SellingPostResponseMessageCreated(address creator, address responseMessageAddress);\n    event SellingPostPaymentSuccess(uint paymentAmount, uint sellingPostKey, address responseMessageAddress);\n    \n\n    // ------------------------- seller side interaction -------------------------\n\n    // seller -  create a new selling post\n    function createSellingPost (uint _priceToSell, uint _amountToSell, address _msgSender) public {\n            \n            // 1. data validation\n            require(_priceToSell > 0, \"purchase price must be greater than 0\");\n            require(_amountToSell > 0, \"amount to buy must be greater than 0\");\n            \n            // 2. save information to the selling post map\n            sellingPostMap[sellingPostCounter].priceToSell = _priceToSell;\n            sellingPostMap[sellingPostCounter].amountToSell = _amountToSell;          \n            sellingPostMap[sellingPostCounter].seller = _msgSender;\n            sellingPostMap[sellingPostCounter].enabled = true;\n            sellingPostMap[sellingPostCounter].createdAt = block.timestamp;\n\n            // 3. set post status to true \n            sellingPostStatus[sellingPostCounter] = true;\n            \n            // 4. save post key to user struct\n            // userMap[msg.sender].sellingPostsKeys.push(sellingPostCounter);\n            userService.saveSellingPostKey(_msgSender, sellingPostCounter);\n           \n            // 5. emit event\n            emit SellingPostCreated( _msgSender, sellingPostCounter, _priceToSell, _amountToSell);\n\n            // 6. increment selling post counter by 1\n            sellingPostCounter++;\n    }\n\n    // buyer - create selling post response messages\n    // buyer creates response message and wait for confirmation from seller. buyer then pays for it once response is accepted\n    function createResponseMessageToSellingPost(uint _amountToBuy, uint _quotationInWei, uint _sellingPostKey, address _msgSender) public {\n        \n        // 1. data validation\n        require(_amountToBuy > 0, \"amount must be greater than 0\");\n        require(_quotationInWei > 0, \"quotation must be greater than 0\");\n        require(_sellingPostKey >= 0, \"post key starts from 0\");\n        require(_msgSender != sellingPostMap[_sellingPostKey].seller, \"You cannot reply to your own selling post\");\n\n        // 2. create a new response message\n        uint messageIndex = sellingPostMap[_sellingPostKey].responseMessages.length;\n        PostResponseMessage message = new PostResponseMessage(address(this), _msgSender, _amountToBuy, _quotationInWei, 1, _sellingPostKey, messageIndex );\n        \n        // 3. add the response message to the corresponding selling post \n        sellingPostMap[_sellingPostKey].responseMessages.push() = message;\n\n        // 4. emit event\n        emit SellingPostResponseMessageCreated(_msgSender, address(message));\n\n    }\n\n    //  handle selling post payment process\n    function handleSellingPostPayment(uint _sellingPostKey, uint _responseMessageIndex) public payable {\n        \n        // 1.1 data validation & get response message contract reference\n        PostResponseMessage responseMessage = sellingPostMap[_sellingPostKey].responseMessages[_responseMessageIndex];\n        require(address(responseMessage) == msg.sender, \"Only response messages are allowed to trigger payment process\");\n        \n        // 1.2 get current time\n        uint transactionTime = block.timestamp;\n\n        // 2.1 update buyer's account information\n        address buyer = responseMessage.messageSender();\n        // userMap[buyer].availableElecUnits += responseMessage.amount();   \n        userService.setAvailableElecUnits(buyer, userService.getAvailableElecUnits(buyer) + responseMessage.amount() );\n\n        // 2.2.1 update buyer's statistics (statistics service required)\n        statisticsService.updateTotalBuy(buyer, responseMessage.amount());\n        statisticsService.addOneElectricBuyTransaction(buyer, transactionTime, responseMessage.amount());\n        // 2.2.2 update buyer's transaction sequence map (statistics service required)\n        statisticsService.addTransactionToSequenceMap(buyer, 0, transactionTime);\n        \n        \n        // 3.1 update seller's account information\n        address seller = sellingPostMap[_sellingPostKey].seller;\n        // require( userMap[seller].availableElecUnits >= responseMessage.amount(), \"Insufficient electricity units in seller's account\");\n        require( userService.getAvailableElecUnits(seller) >= responseMessage.amount(), \"Insufficient electricity units in seller's account\");\n        // userMap[seller].availableElecUnits -= responseMessage.amount();\n        userService.setAvailableElecUnits(seller, userService.getAvailableElecUnits(seller) - responseMessage.amount() );\n\n        // 3.2.1 update seller's statistics (statistics service required)\n        statisticsService.updateTotalSell(seller, responseMessage.amount());\n        statisticsService.addOneElectricSellTransaction(seller, transactionTime, responseMessage.amount());\n        // 3.2.2 update seller's transaction sequence map to record all transactions regardless of type in sequential order (statistics service required)\n        statisticsService.addTransactionToSequenceMap(seller, 1, transactionTime);\n        \n        \n        // 4. update selling post\n        // 1) decrease selling amount accordingly \n        require(sellingPostMap[_sellingPostKey].amountToSell >= responseMessage.amount(), \"Insufficient selling units in selling post\");\n        sellingPostMap[_sellingPostKey].amountToSell -= responseMessage.amount();\n        // 2) set post to disabled if available selling units in selling post are 0\n        if ( sellingPostMap[_sellingPostKey].amountToSell == 0) {\n            sellingPostMap[_sellingPostKey].enabled = false;\n        }\n\n        // 5. transfer ether to seller's account\n        payable(seller).transfer(msg.value);\n\n        emit SellingPostPaymentSuccess(msg.value, _sellingPostKey, address(responseMessage));\n        \n    }\n\n\n    // ------------------------- seller side utils -------------------------\n    \n    // returns all selling posts by user address\n    function returnAllSellingPostsByAddress(address _account) public view returns (SellingPost[] memory) {\n        // uint[] memory keys = userMap[_account].sellingPostsKeys;\n        uint[] memory keys = userService.getSellingPostKeys(_account);\n        SellingPost[] memory sellingPosts = new SellingPost[](keys.length);\n        for (uint i = 0; i < keys.length; i++) {\n            sellingPosts[i]  = sellingPostMap[keys[i]]; \n        }\n        return sellingPosts;\n    }\n\n    // return one selling post by post key\n    function getSellingPostByKey(uint _postKey) public view returns(SellingPost memory) {\n        return sellingPostMap[_postKey];\n    }\n\n    // return all response messages of one post by key\n    function returnSellingPostResponseMessagesByKey(uint _postKey) public view returns(PostResponseMessage[] memory){\n        require(_postKey >= 0, \"post key starts from 0\");\n        return sellingPostMap[_postKey].responseMessages;\n    }\n\n    //new\n    // return total number of sell posts in the system\n    function returnSellPostMapSize() public view returns(uint) {\n        return sellingPostCounter;\n    }\n\n}",
  "sourcePath": "/Users/richard/Doc//sydney_study/22s2/5703/vue-web3-5703/truffle/contracts/SellerService.sol",
  "compiler": {
    "name": "solc",
    "version": "0.8.17+commit.8df45f5f.Emscripten.clang"
  },
  "schemaVersion": "3.4.9",
  "updatedAt": "2022-10-04T09:46:21.407Z",
  "devdoc": {
    "kind": "dev",
    "methods": {},
    "version": 1
  },
  "userdoc": {
    "kind": "user",
    "methods": {},
    "version": 1
  }
}