{
  "contractName": "SellerService",
  "abi": [
    {
      "inputs": [
        {
          "internalType": "contract StatisticsService",
          "name": "_statisticsService",
          "type": "address"
        },
        {
          "internalType": "contract UserService",
          "name": "_userService",
          "type": "address"
        }
      ],
      "stateMutability": "nonpayable",
      "type": "constructor"
    },
    {
      "anonymous": false,
      "inputs": [
        {
          "indexed": false,
          "internalType": "address",
          "name": "creator",
          "type": "address"
        },
        {
          "indexed": false,
          "internalType": "uint256",
          "name": "postKey",
          "type": "uint256"
        },
        {
          "indexed": false,
          "internalType": "uint256",
          "name": "_priceToBuy",
          "type": "uint256"
        },
        {
          "indexed": false,
          "internalType": "uint256",
          "name": "_amountToBuy",
          "type": "uint256"
        }
      ],
      "name": "SellingPostCreated",
      "type": "event"
    },
    {
      "anonymous": false,
      "inputs": [
        {
          "indexed": false,
          "internalType": "uint256",
          "name": "paymentAmount",
          "type": "uint256"
        },
        {
          "indexed": false,
          "internalType": "uint256",
          "name": "sellingPostKey",
          "type": "uint256"
        },
        {
          "indexed": false,
          "internalType": "address",
          "name": "responseMessageAddress",
          "type": "address"
        }
      ],
      "name": "SellingPostPaymentSuccess",
      "type": "event"
    },
    {
      "anonymous": false,
      "inputs": [
        {
          "indexed": false,
          "internalType": "address",
          "name": "creator",
          "type": "address"
        },
        {
          "indexed": false,
          "internalType": "address",
          "name": "responseMessageAddress",
          "type": "address"
        }
      ],
      "name": "SellingPostResponseMessageCreated",
      "type": "event"
    },
    {
      "inputs": [],
      "name": "sellingPostCounter",
      "outputs": [
        {
          "internalType": "uint256",
          "name": "",
          "type": "uint256"
        }
      ],
      "stateMutability": "view",
      "type": "function"
    },
    {
      "inputs": [
        {
          "internalType": "uint256",
          "name": "_priceToSell",
          "type": "uint256"
        },
        {
          "internalType": "uint256",
          "name": "_amountToSell",
          "type": "uint256"
        },
        {
          "internalType": "address",
          "name": "_msgSender",
          "type": "address"
        }
      ],
      "name": "createSellingPost",
      "outputs": [],
      "stateMutability": "nonpayable",
      "type": "function"
    },
    {
      "inputs": [
        {
          "internalType": "uint256",
          "name": "_amountToBuy",
          "type": "uint256"
        },
        {
          "internalType": "uint256",
          "name": "_quotationInWei",
          "type": "uint256"
        },
        {
          "internalType": "uint256",
          "name": "_sellingPostKey",
          "type": "uint256"
        },
        {
          "internalType": "address",
          "name": "_msgSender",
          "type": "address"
        }
      ],
      "name": "createResponseMessageToSellingPost",
      "outputs": [],
      "stateMutability": "nonpayable",
      "type": "function"
    },
    {
      "inputs": [
        {
          "internalType": "uint256",
          "name": "_sellingPostKey",
          "type": "uint256"
        },
        {
          "internalType": "uint256",
          "name": "_responseMessageIndex",
          "type": "uint256"
        }
      ],
      "name": "handleSellingPostPayment",
      "outputs": [],
      "stateMutability": "payable",
      "type": "function"
    },
    {
      "inputs": [
        {
          "internalType": "address",
          "name": "_account",
          "type": "address"
        }
      ],
      "name": "returnAllSellingPostsByAddress",
      "outputs": [
        {
          "components": [
            {
              "internalType": "uint256",
              "name": "priceToSell",
              "type": "uint256"
            },
            {
              "internalType": "uint256",
              "name": "amountToSell",
              "type": "uint256"
            },
            {
              "internalType": "address",
              "name": "seller",
              "type": "address"
            },
            {
              "internalType": "bool",
              "name": "enabled",
              "type": "bool"
            },
            {
              "internalType": "uint256",
              "name": "createdAt",
              "type": "uint256"
            },
            {
              "internalType": "contract PostResponseMessage[]",
              "name": "responseMessages",
              "type": "address[]"
            }
          ],
          "internalType": "struct BeanStructs.SellingPost[]",
          "name": "",
          "type": "tuple[]"
        }
      ],
      "stateMutability": "view",
      "type": "function"
    },
    {
      "inputs": [
        {
          "internalType": "uint256",
          "name": "_postKey",
          "type": "uint256"
        }
      ],
      "name": "getSellingPostByKey",
      "outputs": [
        {
          "components": [
            {
              "internalType": "uint256",
              "name": "priceToSell",
              "type": "uint256"
            },
            {
              "internalType": "uint256",
              "name": "amountToSell",
              "type": "uint256"
            },
            {
              "internalType": "address",
              "name": "seller",
              "type": "address"
            },
            {
              "internalType": "bool",
              "name": "enabled",
              "type": "bool"
            },
            {
              "internalType": "uint256",
              "name": "createdAt",
              "type": "uint256"
            },
            {
              "internalType": "contract PostResponseMessage[]",
              "name": "responseMessages",
              "type": "address[]"
            }
          ],
          "internalType": "struct BeanStructs.SellingPost",
          "name": "",
          "type": "tuple"
        }
      ],
      "stateMutability": "view",
      "type": "function"
    },
    {
      "inputs": [
        {
          "internalType": "uint256",
          "name": "_postKey",
          "type": "uint256"
        }
      ],
      "name": "returnSellingPostResponseMessagesByKey",
      "outputs": [
        {
          "internalType": "contract PostResponseMessage[]",
          "name": "",
          "type": "address[]"
        }
      ],
      "stateMutability": "view",
      "type": "function"
    },
    {
      "inputs": [],
      "name": "returnSellPostMapSize",
      "outputs": [
        {
          "internalType": "uint256",
          "name": "",
          "type": "uint256"
        }
      ],
      "stateMutability": "view",
      "type": "function"
    }
  ],
  "bytecode": "0x60806040523480156200001157600080fd5b506040516200458b3803806200458b833981810160405281019062000037919062000184565b81600460006101000a81548173ffffffffffffffffffffffffffffffffffffffff021916908373ffffffffffffffffffffffffffffffffffffffff16021790555080600560006101000a81548173ffffffffffffffffffffffffffffffffffffffff021916908373ffffffffffffffffffffffffffffffffffffffff1602179055505050620001cb565b600080fd5b600073ffffffffffffffffffffffffffffffffffffffff82169050919050565b6000620000f382620000c6565b9050919050565b60006200010782620000e6565b9050919050565b6200011981620000fa565b81146200012557600080fd5b50565b60008151905062000139816200010e565b92915050565b60006200014c82620000e6565b9050919050565b6200015e816200013f565b81146200016a57600080fd5b50565b6000815190506200017e8162000153565b92915050565b600080604083850312156200019e576200019d620000c1565b5b6000620001ae8582860162000128565b9250506020620001c1858286016200016d565b9150509250929050565b6143b080620001db6000396000f3fe608060405260043610620000865760003560e01c80636fc1a2c311620000555780636fc1a2c3146200014d578063906eb21c146200017d578063ae87ca7c14620001ab578063da02c9de14620001ef5762000086565b80630876290a146200008b57806335df350914620000ab5780634cb3a34514620000db5780636627cbd61462000109575b600080fd5b620000a96004803603810190620000a3919062001b44565b62000233565b005b348015620000b857600080fd5b50620000c362000ff0565b604051620000d2919062001b9c565b60405180910390f35b348015620000e857600080fd5b5062000107600480360381019062000101919062001c1e565b62000ffa565b005b3480156200011657600080fd5b506200013560048036038101906200012f919062001c90565b6200131e565b60405162000144919062001dea565b60405180910390f35b3480156200015a57600080fd5b50620001656200140a565b60405162000174919062001b9c565b60405180910390f35b3480156200018a57600080fd5b50620001a96004803603810190620001a3919062001e0e565b62001410565b005b348015620001b857600080fd5b50620001d76004803603810190620001d1919062001e6a565b62001698565b604051620001e69190620020bb565b60405180910390f35b348015620001fc57600080fd5b506200021b600480360381019062000215919062001c90565b6200194c565b6040516200022a919062002174565b60405180910390f35b600080600084815260200190815260200160002060040182815481106200025f576200025e62002198565b5b9060005260206000200160009054906101000a900473ffffffffffffffffffffffffffffffffffffffff1690503373ffffffffffffffffffffffffffffffffffffffff168173ffffffffffffffffffffffffffffffffffffffff1614620002fd576040517f08c379a0000000000000000000000000000000000000000000000000000000008152600401620002f4906200224e565b60405180910390fd5b600042905060008273ffffffffffffffffffffffffffffffffffffffff1663d67bdd256040518163ffffffff1660e01b8152600401602060405180830381865afa15801562000350573d6000803e3d6000fd5b505050506040513d601f19601f8201168201806040525081019062000376919062002287565b9050600560009054906101000a900473ffffffffffffffffffffffffffffffffffffffff1673ffffffffffffffffffffffffffffffffffffffff1663e2670971828573ffffffffffffffffffffffffffffffffffffffff1663aa8c217c6040518163ffffffff1660e01b8152600401602060405180830381865afa15801562000403573d6000803e3d6000fd5b505050506040513d601f19601f82011682018060405250810190620004299190620022d0565b600560009054906101000a900473ffffffffffffffffffffffffffffffffffffffff1673ffffffffffffffffffffffffffffffffffffffff1663cb8ab15b866040518263ffffffff1660e01b815260040162000486919062002313565b602060405180830381865afa158015620004a4573d6000803e3d6000fd5b505050506040513d601f19601f82011682018060405250810190620004ca9190620022d0565b620004d691906200235f565b6040518363ffffffff1660e01b8152600401620004f59291906200239a565b600060405180830381600087803b1580156200051057600080fd5b505af115801562000525573d6000803e3d6000fd5b50505050600460009054906101000a900473ffffffffffffffffffffffffffffffffffffffff1673ffffffffffffffffffffffffffffffffffffffff16633f9b696c828573ffffffffffffffffffffffffffffffffffffffff1663aa8c217c6040518163ffffffff1660e01b8152600401602060405180830381865afa158015620005b4573d6000803e3d6000fd5b505050506040513d601f19601f82011682018060405250810190620005da9190620022d0565b6040518363ffffffff1660e01b8152600401620005f99291906200239a565b600060405180830381600087803b1580156200061457600080fd5b505af115801562000629573d6000803e3d6000fd5b50505050600460009054906101000a900473ffffffffffffffffffffffffffffffffffffffff1673ffffffffffffffffffffffffffffffffffffffff16632f0a323e82848673ffffffffffffffffffffffffffffffffffffffff1663aa8c217c6040518163ffffffff1660e01b8152600401602060405180830381865afa158015620006b9573d6000803e3d6000fd5b505050506040513d601f19601f82011682018060405250810190620006df9190620022d0565b6040518463ffffffff1660e01b8152600401620006ff93929190620023c7565b600060405180830381600087803b1580156200071a57600080fd5b505af11580156200072f573d6000803e3d6000fd5b50505050600460009054906101000a900473ffffffffffffffffffffffffffffffffffffffff1673ffffffffffffffffffffffffffffffffffffffff1663e6b02333826000856040518463ffffffff1660e01b8152600401620007959392919062002447565b600060405180830381600087803b158015620007b057600080fd5b505af1158015620007c5573d6000803e3d6000fd5b50505050600080600087815260200190815260200160002060020160009054906101000a900473ffffffffffffffffffffffffffffffffffffffff1690508373ffffffffffffffffffffffffffffffffffffffff1663aa8c217c6040518163ffffffff1660e01b8152600401602060405180830381865afa1580156200084f573d6000803e3d6000fd5b505050506040513d601f19601f82011682018060405250810190620008759190620022d0565b600560009054906101000a900473ffffffffffffffffffffffffffffffffffffffff1673ffffffffffffffffffffffffffffffffffffffff1663cb8ab15b836040518263ffffffff1660e01b8152600401620008d2919062002313565b602060405180830381865afa158015620008f0573d6000803e3d6000fd5b505050506040513d601f19601f82011682018060405250810190620009169190620022d0565b10156200095a576040517f08c379a00000000000000000000000000000000000000000000000000000000081526004016200095190620024fa565b60405180910390fd5b600560009054906101000a900473ffffffffffffffffffffffffffffffffffffffff1673ffffffffffffffffffffffffffffffffffffffff1663e2670971828673ffffffffffffffffffffffffffffffffffffffff1663aa8c217c6040518163ffffffff1660e01b8152600401602060405180830381865afa158015620009e5573d6000803e3d6000fd5b505050506040513d601f19601f8201168201806040525081019062000a0b9190620022d0565b600560009054906101000a900473ffffffffffffffffffffffffffffffffffffffff1673ffffffffffffffffffffffffffffffffffffffff1663cb8ab15b866040518263ffffffff1660e01b815260040162000a68919062002313565b602060405180830381865afa15801562000a86573d6000803e3d6000fd5b505050506040513d601f19601f8201168201806040525081019062000aac9190620022d0565b62000ab891906200251c565b6040518363ffffffff1660e01b815260040162000ad79291906200239a565b600060405180830381600087803b15801562000af257600080fd5b505af115801562000b07573d6000803e3d6000fd5b50505050600460009054906101000a900473ffffffffffffffffffffffffffffffffffffffff1673ffffffffffffffffffffffffffffffffffffffff1663e8b8530f828673ffffffffffffffffffffffffffffffffffffffff1663aa8c217c6040518163ffffffff1660e01b8152600401602060405180830381865afa15801562000b96573d6000803e3d6000fd5b505050506040513d601f19601f8201168201806040525081019062000bbc9190620022d0565b6040518363ffffffff1660e01b815260040162000bdb9291906200239a565b600060405180830381600087803b15801562000bf657600080fd5b505af115801562000c0b573d6000803e3d6000fd5b50505050600460009054906101000a900473ffffffffffffffffffffffffffffffffffffffff1673ffffffffffffffffffffffffffffffffffffffff16631e7ba9cd82858773ffffffffffffffffffffffffffffffffffffffff1663aa8c217c6040518163ffffffff1660e01b8152600401602060405180830381865afa15801562000c9b573d6000803e3d6000fd5b505050506040513d601f19601f8201168201806040525081019062000cc19190620022d0565b6040518463ffffffff1660e01b815260040162000ce193929190620023c7565b600060405180830381600087803b15801562000cfc57600080fd5b505af115801562000d11573d6000803e3d6000fd5b50505050600460009054906101000a900473ffffffffffffffffffffffffffffffffffffffff1673ffffffffffffffffffffffffffffffffffffffff1663e6b02333826001866040518463ffffffff1660e01b815260040162000d77939291906200259a565b600060405180830381600087803b15801562000d9257600080fd5b505af115801562000da7573d6000803e3d6000fd5b505050508373ffffffffffffffffffffffffffffffffffffffff1663aa8c217c6040518163ffffffff1660e01b8152600401602060405180830381865afa15801562000df7573d6000803e3d6000fd5b505050506040513d601f19601f8201168201806040525081019062000e1d9190620022d0565b60008088815260200190815260200160002060010154101562000e77576040517f08c379a000000000000000000000000000000000000000000000000000000000815260040162000e6e906200264d565b60405180910390fd5b8373ffffffffffffffffffffffffffffffffffffffff1663aa8c217c6040518163ffffffff1660e01b8152600401602060405180830381865afa15801562000ec3573d6000803e3d6000fd5b505050506040513d601f19601f8201168201806040525081019062000ee99190620022d0565b600080888152602001908152602001600020600101600082825462000f0f91906200251c565b925050819055506000806000888152602001908152602001600020600101540362000f6357600080600088815260200190815260200160002060020160146101000a81548160ff0219169083151502179055505b8073ffffffffffffffffffffffffffffffffffffffff166108fc349081150290604051600060405180830381858888f1935050505015801562000faa573d6000803e3d6000fd5b507f58e40951e480e0eb47a55e7fe3d9efbfcf47e2513825240c24a81843b2fb6c7b34878660405162000fe0939291906200266f565b60405180910390a1505050505050565b6000600354905090565b6000841162001040576040517f08c379a00000000000000000000000000000000000000000000000000000000081526004016200103790620026fc565b60405180910390fd5b6000831162001086576040517f08c379a00000000000000000000000000000000000000000000000000000000081526004016200107d906200276e565b60405180910390fd5b6000821015620010cd576040517f08c379a0000000000000000000000000000000000000000000000000000000008152600401620010c490620027e0565b60405180910390fd5b60008083815260200190815260200160002060020160009054906101000a900473ffffffffffffffffffffffffffffffffffffffff1673ffffffffffffffffffffffffffffffffffffffff168173ffffffffffffffffffffffffffffffffffffffff160362001173576040517f08c379a00000000000000000000000000000000000000000000000000000000081526004016200116a9062002878565b60405180910390fd5b600080600084815260200190815260200160002060040180549050905060003083878760018887604051620011a89062001a99565b620011ba9796959493929190620028e0565b604051809103906000f080158015620011d7573d6000803e3d6000fd5b50905080600080868152602001908152602001600020600401600181600181540180825580915050039060005260206000200160006101000a81548173ffffffffffffffffffffffffffffffffffffffff021916908373ffffffffffffffffffffffffffffffffffffffff160217905550600560009054906101000a900473ffffffffffffffffffffffffffffffffffffffff1673ffffffffffffffffffffffffffffffffffffffff166384dc965a84836040518363ffffffff1660e01b8152600401620012a79291906200296e565b600060405180830381600087803b158015620012c257600080fd5b505af1158015620012d7573d6000803e3d6000fd5b505050507fc7f10d7197fb2a9693c302afe34b2b61de0f7048c4a33a39923e281c0c93ee2283826040516200130e9291906200299b565b60405180910390a1505050505050565b6060600082101562001367576040517f08c379a00000000000000000000000000000000000000000000000000000000081526004016200135e90620027e0565b60405180910390fd5b600080838152602001908152602001600020600401805480602002602001604051908101604052809291908181526020018280548015620013fe57602002820191906000526020600020905b8160009054906101000a900473ffffffffffffffffffffffffffffffffffffffff1673ffffffffffffffffffffffffffffffffffffffff1681526020019060010190808311620013b3575b50505050509050919050565b60035481565b6000831162001456576040517f08c379a00000000000000000000000000000000000000000000000000000000081526004016200144d9062002a3e565b60405180910390fd5b600082116200149c576040517f08c379a0000000000000000000000000000000000000000000000000000000008152600401620014939062002ad6565b60405180910390fd5b826000806003548152602001908152602001600020600001819055508160008060035481526020019081526020016000206001018190555080600080600354815260200190815260200160002060020160006101000a81548173ffffffffffffffffffffffffffffffffffffffff021916908373ffffffffffffffffffffffffffffffffffffffff1602179055506001600080600354815260200190815260200160002060020160146101000a81548160ff021916908315150217905550426000806003548152602001908152602001600020600301819055506001806000600354815260200190815260200160002060006101000a81548160ff021916908315150217905550600560009054906101000a900473ffffffffffffffffffffffffffffffffffffffff1673ffffffffffffffffffffffffffffffffffffffff1663c331d842826003546040518363ffffffff1660e01b8152600401620016049291906200239a565b600060405180830381600087803b1580156200161f57600080fd5b505af115801562001634573d6000803e3d6000fd5b505050507f70d4f73f8dc596f6b7f1d3996153d2ae6e391837c8ad344b8f32ffe96fbbed9c81600354858560405162001671949392919062002af8565b60405180910390a1600360008154809291906200168e9062002b45565b9190505550505050565b60606000600560009054906101000a900473ffffffffffffffffffffffffffffffffffffffff1673ffffffffffffffffffffffffffffffffffffffff16631d036d7d846040518263ffffffff1660e01b8152600401620016f9919062002313565b600060405180830381865afa15801562001717573d6000803e3d6000fd5b505050506040513d6000823e3d601f19601f8201168201806040525081019062001742919062002d07565b90506000815167ffffffffffffffff81111562001764576200176362002ba8565b5b604051908082528060200260200182016040528015620017a157816020015b6200178d62001aa7565b815260200190600190039081620017835790505b50905060005b82518110156200194157600080848381518110620017ca57620017c962002198565b5b602002602001015181526020019081526020016000206040518060c001604052908160008201548152602001600182015481526020016002820160009054906101000a900473ffffffffffffffffffffffffffffffffffffffff1673ffffffffffffffffffffffffffffffffffffffff1673ffffffffffffffffffffffffffffffffffffffff1681526020016002820160149054906101000a900460ff1615151515815260200160038201548152602001600482018054806020026020016040519081016040528092919081815260200182805480156200190157602002820191906000526020600020905b8160009054906101000a900473ffffffffffffffffffffffffffffffffffffffff1673ffffffffffffffffffffffffffffffffffffffff1681526020019060010190808311620018b6575b50505050508152505082828151811062001920576200191f62002198565b5b60200260200101819052508080620019389062002b45565b915050620017a7565b508092505050919050565b6200195662001aa7565b6000808381526020019081526020016000206040518060c001604052908160008201548152602001600182015481526020016002820160009054906101000a900473ffffffffffffffffffffffffffffffffffffffff1673ffffffffffffffffffffffffffffffffffffffff1673ffffffffffffffffffffffffffffffffffffffff1681526020016002820160149054906101000a900460ff16151515158152602001600382015481526020016004820180548060200260200160405190810160405280929190818152602001828054801562001a8957602002820191906000526020600020905b8160009054906101000a900473ffffffffffffffffffffffffffffffffffffffff1673ffffffffffffffffffffffffffffffffffffffff168152602001906001019080831162001a3e575b5050505050815250509050919050565b6116228062002d5983390190565b6040518060c001604052806000815260200160008152602001600073ffffffffffffffffffffffffffffffffffffffff16815260200160001515815260200160008152602001606081525090565b6000604051905090565b600080fd5b600080fd5b6000819050919050565b62001b1e8162001b09565b811462001b2a57600080fd5b50565b60008135905062001b3e8162001b13565b92915050565b6000806040838503121562001b5e5762001b5d62001aff565b5b600062001b6e8582860162001b2d565b925050602062001b818582860162001b2d565b9150509250929050565b62001b968162001b09565b82525050565b600060208201905062001bb3600083018462001b8b565b92915050565b600073ffffffffffffffffffffffffffffffffffffffff82169050919050565b600062001be68262001bb9565b9050919050565b62001bf88162001bd9565b811462001c0457600080fd5b50565b60008135905062001c188162001bed565b92915050565b6000806000806080858703121562001c3b5762001c3a62001aff565b5b600062001c4b8782880162001b2d565b945050602062001c5e8782880162001b2d565b935050604062001c718782880162001b2d565b925050606062001c848782880162001c07565b91505092959194509250565b60006020828403121562001ca95762001ca862001aff565b5b600062001cb98482850162001b2d565b91505092915050565b600081519050919050565b600082825260208201905092915050565b6000819050602082019050919050565b6000819050919050565b600062001d1962001d1362001d0d8462001bb9565b62001cee565b62001bb9565b9050919050565b600062001d2d8262001cf8565b9050919050565b600062001d418262001d20565b9050919050565b62001d538162001d34565b82525050565b600062001d67838362001d48565b60208301905092915050565b6000602082019050919050565b600062001d8d8262001cc2565b62001d99818562001ccd565b935062001da68362001cde565b8060005b8381101562001ddd57815162001dc1888262001d59565b975062001dce8362001d73565b92505060018101905062001daa565b5085935050505092915050565b6000602082019050818103600083015262001e06818462001d80565b905092915050565b60008060006060848603121562001e2a5762001e2962001aff565b5b600062001e3a8682870162001b2d565b935050602062001e4d8682870162001b2d565b925050604062001e608682870162001c07565b9150509250925092565b60006020828403121562001e835762001e8262001aff565b5b600062001e938482850162001c07565b91505092915050565b600081519050919050565b600082825260208201905092915050565b6000819050602082019050919050565b62001ed38162001b09565b82525050565b62001ee48162001bd9565b82525050565b60008115159050919050565b62001f018162001eea565b82525050565b600082825260208201905092915050565b600062001f258262001cc2565b62001f31818562001f07565b935062001f3e8362001cde565b8060005b8381101562001f7557815162001f59888262001d59565b975062001f668362001d73565b92505060018101905062001f42565b5085935050505092915050565b600060c08301600083015162001f9c600086018262001ec8565b50602083015162001fb1602086018262001ec8565b50604083015162001fc6604086018262001ed9565b50606083015162001fdb606086018262001ef6565b50608083015162001ff0608086018262001ec8565b5060a083015184820360a08601526200200a828262001f18565b9150508091505092915050565b600062002025838362001f82565b905092915050565b6000602082019050919050565b6000620020478262001e9c565b62002053818562001ea7565b935083602082028501620020678562001eb8565b8060005b85811015620020a9578484038952815162002087858262002017565b945062002094836200202d565b925060208a019950506001810190506200206b565b50829750879550505050505092915050565b60006020820190508181036000830152620020d781846200203a565b905092915050565b600060c083016000830151620020f9600086018262001ec8565b5060208301516200210e602086018262001ec8565b50604083015162002123604086018262001ed9565b50606083015162002138606086018262001ef6565b5060808301516200214d608086018262001ec8565b5060a083015184820360a086015262002167828262001f18565b9150508091505092915050565b60006020820190508181036000830152620021908184620020df565b905092915050565b7f4e487b7100000000000000000000000000000000000000000000000000000000600052603260045260246000fd5b600082825260208201905092915050565b7f4f6e6c7920726573706f6e7365206d657373616765732061726520616c6c6f7760008201527f656420746f2074726967676572207061796d656e742070726f63657373000000602082015250565b600062002236603d83620021c7565b91506200224382620021d8565b604082019050919050565b60006020820190508181036000830152620022698162002227565b9050919050565b600081519050620022818162001bed565b92915050565b600060208284031215620022a0576200229f62001aff565b5b6000620022b08482850162002270565b91505092915050565b600081519050620022ca8162001b13565b92915050565b600060208284031215620022e957620022e862001aff565b5b6000620022f984828501620022b9565b91505092915050565b6200230d8162001bd9565b82525050565b60006020820190506200232a600083018462002302565b92915050565b7f4e487b7100000000000000000000000000000000000000000000000000000000600052601160045260246000fd5b60006200236c8262001b09565b9150620023798362001b09565b925082820190508082111562002394576200239362002330565b5b92915050565b6000604082019050620023b1600083018562002302565b620023c0602083018462001b8b565b9392505050565b6000606082019050620023de600083018662002302565b620023ed602083018562001b8b565b620023fc604083018462001b8b565b949350505050565b6000819050919050565b60006200242f62002429620024238462002404565b62001cee565b62001b09565b9050919050565b62002441816200240e565b82525050565b60006060820190506200245e600083018662002302565b6200246d602083018562002436565b6200247c604083018462001b8b565b949350505050565b7f496e73756666696369656e7420656c65637472696369747920756e697473206960008201527f6e2073656c6c65722773206163636f756e740000000000000000000000000000602082015250565b6000620024e2603283620021c7565b9150620024ef8262002484565b604082019050919050565b600060208201905081810360008301526200251581620024d3565b9050919050565b6000620025298262001b09565b9150620025368362001b09565b925082820390508181111562002551576200255062002330565b5b92915050565b6000819050919050565b6000620025826200257c620025768462002557565b62001cee565b62001b09565b9050919050565b620025948162002561565b82525050565b6000606082019050620025b1600083018662002302565b620025c0602083018562002589565b620025cf604083018462001b8b565b949350505050565b7f496e73756666696369656e742073656c6c696e6720756e69747320696e20736560008201527f6c6c696e6720706f737400000000000000000000000000000000000000000000602082015250565b600062002635602a83620021c7565b91506200264282620025d7565b604082019050919050565b60006020820190508181036000830152620026688162002626565b9050919050565b600060608201905062002686600083018662001b8b565b62002695602083018562001b8b565b620026a4604083018462002302565b949350505050565b7f616d6f756e74206d7573742062652067726561746572207468616e2030000000600082015250565b6000620026e4601d83620021c7565b9150620026f182620026ac565b602082019050919050565b600060208201905081810360008301526200271781620026d5565b9050919050565b7f71756f746174696f6e206d7573742062652067726561746572207468616e2030600082015250565b600062002756602083620021c7565b915062002763826200271e565b602082019050919050565b60006020820190508181036000830152620027898162002747565b9050919050565b7f706f7374206b6579207374617274732066726f6d203000000000000000000000600082015250565b6000620027c8601683620021c7565b9150620027d58262002790565b602082019050919050565b60006020820190508181036000830152620027fb81620027b9565b9050919050565b7f596f752063616e6e6f74207265706c7920746f20796f7572206f776e2073656c60008201527f6c696e6720706f73740000000000000000000000000000000000000000000000602082015250565b600062002860602983620021c7565b91506200286d8262002802565b604082019050919050565b60006020820190508181036000830152620028938162002851565b9050919050565b600060ff82169050919050565b6000620028c8620028c2620028bc8462002557565b62001cee565b6200289a565b9050919050565b620028da81620028a7565b82525050565b600060e082019050620028f7600083018a62002302565b62002906602083018962002302565b62002915604083018862001b8b565b62002924606083018762001b8b565b620029336080830186620028cf565b6200294260a083018562001b8b565b6200295160c083018462001b8b565b98975050505050505050565b620029688162001d34565b82525050565b600060408201905062002985600083018562002302565b6200299460208301846200295d565b9392505050565b6000604082019050620029b2600083018562002302565b620029c1602083018462002302565b9392505050565b7f7075726368617365207072696365206d7573742062652067726561746572207460008201527f68616e2030000000000000000000000000000000000000000000000000000000602082015250565b600062002a26602583620021c7565b915062002a3382620029c8565b604082019050919050565b6000602082019050818103600083015262002a598162002a17565b9050919050565b7f616d6f756e7420746f20627579206d757374206265206772656174657220746860008201527f616e203000000000000000000000000000000000000000000000000000000000602082015250565b600062002abe602483620021c7565b915062002acb8262002a60565b604082019050919050565b6000602082019050818103600083015262002af18162002aaf565b9050919050565b600060808201905062002b0f600083018762002302565b62002b1e602083018662001b8b565b62002b2d604083018562001b8b565b62002b3c606083018462001b8b565b95945050505050565b600062002b528262001b09565b91507fffffffffffffffffffffffffffffffffffffffffffffffffffffffffffffffff820362002b875762002b8662002330565b5b600182019050919050565b600080fd5b6000601f19601f8301169050919050565b7f4e487b7100000000000000000000000000000000000000000000000000000000600052604160045260246000fd5b62002be28262002b97565b810181811067ffffffffffffffff8211171562002c045762002c0362002ba8565b5b80604052505050565b600062002c1962001af5565b905062002c27828262002bd7565b919050565b600067ffffffffffffffff82111562002c4a5762002c4962002ba8565b5b602082029050602081019050919050565b600080fd5b600062002c7762002c718462002c2c565b62002c0d565b9050808382526020820190506020840283018581111562002c9d5762002c9c62002c5b565b5b835b8181101562002cca578062002cb58882620022b9565b84526020840193505060208101905062002c9f565b5050509392505050565b600082601f83011262002cec5762002ceb62002b92565b5b815162002cfe84826020860162002c60565b91505092915050565b60006020828403121562002d205762002d1f62001aff565b5b600082015167ffffffffffffffff81111562002d415762002d4062001b04565b5b62002d4f8482850162002cd4565b9150509291505056fe60806040523480156200001157600080fd5b50604051620016223803806200162283398181016040528101906200003791906200021c565b86600860006101000a81548173ffffffffffffffffffffffffffffffffffffffff021916908373ffffffffffffffffffffffffffffffffffffffff160217905550856000806101000a81548173ffffffffffffffffffffffffffffffffffffffff021916908373ffffffffffffffffffffffffffffffffffffffff160217905550846001819055508360028190555082600360006101000a81548160ff021916908360ff16021790555081600481905550806005819055506000600660006101000a81548160ff0219169083151502179055506000600660016101000a81548160ff0219169083151502179055504260078190555050505050505050620002cf565b600080fd5b600073ffffffffffffffffffffffffffffffffffffffff82169050919050565b60006200016b826200013e565b9050919050565b6200017d816200015e565b81146200018957600080fd5b50565b6000815190506200019d8162000172565b92915050565b6000819050919050565b620001b881620001a3565b8114620001c457600080fd5b50565b600081519050620001d881620001ad565b92915050565b600060ff82169050919050565b620001f681620001de565b81146200020257600080fd5b50565b6000815190506200021681620001eb565b92915050565b600080600080600080600060e0888a0312156200023e576200023d62000139565b5b60006200024e8a828b016200018c565b9750506020620002618a828b016200018c565b9650506040620002748a828b01620001c7565b9550506060620002878a828b01620001c7565b94505060806200029a8a828b0162000205565b93505060a0620002ad8a828b01620001c7565b92505060c0620002c08a828b01620001c7565b91505092959891949750929550565b61134380620002df6000396000f3fe6080604052600436106100c65760003560e01c806382fa096a1161007f578063abf4d6c411610059578063abf4d6c414610424578063c32b9b531461042e578063cf09e0d014610438578063d67bdd25146104635761029e565b806382fa096a146103a3578063a03a202e146103ce578063aa8c217c146103f95761029e565b806304dc4cda146102a3578063209ebc08146102ce5780633013aa25146102f95780633d855485146103225780633e784e631461034d5780635051a5ec146103785761029e565b3661029e576000341161010e576040517f08c379a000000000000000000000000000000000000000000000000000000000815260040161010590610b63565b60405180910390fd5b60011515600660009054906101000a900460ff16151514610164576040517f08c379a000000000000000000000000000000000000000000000000000000000815260040161015b90610bf5565b60405180910390fd5b346002546001546101759190610c4e565b146101b5576040517f08c379a00000000000000000000000000000000000000000000000000000000081526004016101ac90610cdc565b60405180910390fd5b60001515600660019054906101000a900460ff1615151461020b576040517f08c379a000000000000000000000000000000000000000000000000000000000815260040161020290610d48565b60405180910390fd5b6000600360009054906101000a900460ff1660ff16036102325761022d61048e565b61029c565b6001600360009054906101000a900460ff1660ff16036102595761025461069d565b61029b565b600061029a576040517f08c379a000000000000000000000000000000000000000000000000000000000815260040161029190610db4565b60405180910390fd5b5b5b005b600080fd5b3480156102af57600080fd5b506102b86108ac565b6040516102c59190610df0565b60405180910390f35b3480156102da57600080fd5b506102e36108bf565b6040516102f09190610e26565b60405180910390f35b34801561030557600080fd5b50610320600480360381019061031b9190610e72565b6108d2565b005b34801561032e57600080fd5b5061033761093d565b6040516103449190610eae565b60405180910390f35b34801561035957600080fd5b50610362610943565b60405161036f9190610eae565b60405180910390f35b34801561038457600080fd5b5061038d610949565b60405161039a9190610e26565b60405180910390f35b3480156103af57600080fd5b506103b861095c565b6040516103c59190610fee565b60405180910390f35b3480156103da57600080fd5b506103e3610a67565b6040516103f09190610eae565b60405180910390f35b34801561040557600080fd5b5061040e610a6d565b60405161041b9190610eae565b60405180910390f35b61042c61048e565b005b61043661069d565b005b34801561044457600080fd5b5061044d610a73565b60405161045a9190610eae565b60405180910390f35b34801561046f57600080fd5b50610478610a79565b6040516104859190611019565b60405180910390f35b60008054906101000a900473ffffffffffffffffffffffffffffffffffffffff1673ffffffffffffffffffffffffffffffffffffffff163373ffffffffffffffffffffffffffffffffffffffff160361051c576040517f08c379a0000000000000000000000000000000000000000000000000000000008152600401610513906110a6565b60405180910390fd5b6000600860009054906101000a900473ffffffffffffffffffffffffffffffffffffffff1673ffffffffffffffffffffffffffffffffffffffff163460045460055460405160240161056f9291906110c6565b6040516020818303038152906040527f3d480db5000000000000000000000000000000000000000000000000000000007bffffffffffffffffffffffffffffffffffffffffffffffffffffffff19166020820180517bffffffffffffffffffffffffffffffffffffffffffffffffffffffff83818316178352505050506040516105f99190611160565b60006040518083038185875af1925050503d8060008114610636576040519150601f19603f3d011682016040523d82523d6000602084013e61063b565b606091505b505090508061067f576040517f08c379a0000000000000000000000000000000000000000000000000000000008152600401610676906111c3565b60405180910390fd5b6001600660016101000a81548160ff02191690831515021790555050565b60008054906101000a900473ffffffffffffffffffffffffffffffffffffffff1673ffffffffffffffffffffffffffffffffffffffff163373ffffffffffffffffffffffffffffffffffffffff161461072b576040517f08c379a00000000000000000000000000000000000000000000000000000000081526004016107229061127b565b60405180910390fd5b6000600860009054906101000a900473ffffffffffffffffffffffffffffffffffffffff1673ffffffffffffffffffffffffffffffffffffffff163460045460055460405160240161077e9291906110c6565b6040516020818303038152906040527f0876290a000000000000000000000000000000000000000000000000000000007bffffffffffffffffffffffffffffffffffffffffffffffffffffffff19166020820180517bffffffffffffffffffffffffffffffffffffffffffffffffffffffff83818316178352505050506040516108089190611160565b60006040518083038185875af1925050503d8060008114610845576040519150601f19603f3d011682016040523d82523d6000602084013e61084a565b606091505b505090508061088e576040517f08c379a0000000000000000000000000000000000000000000000000000000008152600401610885906111c3565b60405180910390fd5b6001600660016101000a81548160ff02191690831515021790555050565b600360009054906101000a900460ff1681565b600660019054906101000a900460ff1681565b80600660006101000a81548160ff0219169083151502179055507f9161e5ec70df4a8ef9f6085e3435135f3da64c7ec32c271912e1ca8d4afbd7c3600360009054906101000a900460ff16600454600554604051610932939291906112d6565b60405180910390a150565b60045481565b60055481565b600660009054906101000a900460ff1681565b610964610a9d565b61096c610a9d565b60008054906101000a900473ffffffffffffffffffffffffffffffffffffffff16816000019073ffffffffffffffffffffffffffffffffffffffff16908173ffffffffffffffffffffffffffffffffffffffff1681525050600154816020018181525050600254816040018181525050600360009054906101000a900460ff16816060019060ff16908160ff16815250506004548160800181815250506005548160a0018181525050600660009054906101000a900460ff168160c0019015159081151581525050600660019054906101000a900460ff168160e0019015159081151581525050600754816101000181815250508091505090565b60025481565b60015481565b60075481565b60008054906101000a900473ffffffffffffffffffffffffffffffffffffffff1681565b604051806101200160405280600073ffffffffffffffffffffffffffffffffffffffff1681526020016000815260200160008152602001600060ff1681526020016000815260200160008152602001600015158152602001600015158152602001600081525090565b600082825260208201905092915050565b7f696e76616c6964207061796d656e740000000000000000000000000000000000600082015250565b6000610b4d600f83610b06565b9150610b5882610b17565b602082019050919050565b60006020820190508181036000830152610b7c81610b40565b9050919050565b7f796f757220726573706f6e736520686173206e6f74206265656e20616363657060008201527f7465642062792073656c6c657220796574000000000000000000000000000000602082015250565b6000610bdf603183610b06565b9150610bea82610b83565b604082019050919050565b60006020820190508181036000830152610c0e81610bd2565b9050919050565b6000819050919050565b7f4e487b7100000000000000000000000000000000000000000000000000000000600052601160045260246000fd5b6000610c5982610c15565b9150610c6483610c15565b9250828202610c7281610c15565b91508282048414831517610c8957610c88610c1f565b5b5092915050565b7f4e6f742066756c6c792070616964207965740000000000000000000000000000600082015250565b6000610cc6601283610b06565b9150610cd182610c90565b602082019050919050565b60006020820190508181036000830152610cf581610cb9565b9050919050565b7f4f7264657220697320616c726561647920706169642100000000000000000000600082015250565b6000610d32601683610b06565b9150610d3d82610cfc565b602082019050919050565b60006020820190508181036000830152610d6181610d25565b9050919050565b7f696e76616c696420726573706f6e7365206d6573736167652074797065000000600082015250565b6000610d9e601d83610b06565b9150610da982610d68565b602082019050919050565b60006020820190508181036000830152610dcd81610d91565b9050919050565b600060ff82169050919050565b610dea81610dd4565b82525050565b6000602082019050610e056000830184610de1565b92915050565b60008115159050919050565b610e2081610e0b565b82525050565b6000602082019050610e3b6000830184610e17565b92915050565b600080fd5b610e4f81610e0b565b8114610e5a57600080fd5b50565b600081359050610e6c81610e46565b92915050565b600060208284031215610e8857610e87610e41565b5b6000610e9684828501610e5d565b91505092915050565b610ea881610c15565b82525050565b6000602082019050610ec36000830184610e9f565b92915050565b600073ffffffffffffffffffffffffffffffffffffffff82169050919050565b6000610ef482610ec9565b9050919050565b610f0481610ee9565b82525050565b610f1381610c15565b82525050565b610f2281610dd4565b82525050565b610f3181610e0b565b82525050565b61012082016000820151610f4e6000850182610efb565b506020820151610f616020850182610f0a565b506040820151610f746040850182610f0a565b506060820151610f876060850182610f19565b506080820151610f9a6080850182610f0a565b5060a0820151610fad60a0850182610f0a565b5060c0820151610fc060c0850182610f28565b5060e0820151610fd360e0850182610f28565b50610100820151610fe8610100850182610f0a565b50505050565b6000610120820190506110046000830184610f37565b92915050565b61101381610ee9565b82525050565b600060208201905061102e600083018461100a565b92915050565b7f596f752063616e6e6f74206d616b652061207061796d656e7420746f20796f7560008201527f72206f776e2073656c6c696e6720726573706f6e7365206d6573736167650000602082015250565b6000611090603e83610b06565b915061109b82611034565b604082019050919050565b600060208201905081810360008301526110bf81611083565b9050919050565b60006040820190506110db6000830185610e9f565b6110e86020830184610e9f565b9392505050565b600081519050919050565b600081905092915050565b60005b83811015611123578082015181840152602081019050611108565b60008484015250505050565b600061113a826110ef565b61114481856110fa565b9350611154818560208601611105565b80840191505092915050565b600061116c828461112f565b915081905092915050565b7f7061796d656e74206661696c6564000000000000000000000000000000000000600082015250565b60006111ad600e83610b06565b91506111b882611177565b602082019050919050565b600060208201905081810360008301526111dc816111a0565b9050919050565b7f4f6e6c7920746865206d6573736167652073656e6465722077686f2073656e7460008201527f207468697320726573706f6e736520746f206163717569726520656c6563747260208201527f696369747920756e6974732063616e206d616b652061207061796d656e740000604082015250565b6000611265605e83610b06565b9150611270826111e3565b606082019050919050565b6000602082019050818103600083015261129481611258565b9050919050565b6000819050919050565b60006112c06112bb6112b684610dd4565b61129b565b610c15565b9050919050565b6112d0816112a5565b82525050565b60006060820190506112eb60008301866112c7565b6112f86020830185610e9f565b6113056040830184610e9f565b94935050505056fea264697066735822122083985c5779789194a5cda174b3025abacbd2beebdd96df5e17f9e806007c59b864736f6c63430008110033a2646970667358221220e08a82c8234fe86193be29952a728a3a401850f9ba58ea2941e81d09622f5cf764736f6c63430008110033",
  "immutableReferences": {},
  "source": "//SPDX-License-Identifier: MIT\r\n\r\npragma solidity ^0.8.0;\r\n\r\nimport \"./BeanStructs.sol\";\r\nimport \"./UserService.sol\";\r\nimport \"./StatisticsService.sol\";\r\n\r\ncontract SellerService is BeanStructs {\r\n\r\n    // ------------------------- seller side storage variables -------------------------\r\n    \r\n    // map each purchase post to an index\r\n    mapping(uint => SellingPost) sellingPostMap;\r\n    mapping(uint => bool) sellingPostStatus;       // label purchase post status\r\n    uint[]  sellingPostKeys;                        // array of keys of purchase posts \r\n    uint public sellingPostCounter;                  // count total number of purchase posts, start from 0\r\n    \r\n\r\n    // reference to statistics service\r\n    StatisticsService statisticsService;\r\n    UserService userService;\r\n    \r\n    constructor(StatisticsService _statisticsService, UserService _userService) {\r\n        statisticsService = _statisticsService;\r\n        userService = _userService;\r\n    }\r\n\r\n    // events\r\n    event SellingPostCreated(address creator, uint postKey, uint _priceToBuy, uint _amountToBuy);\r\n    event SellingPostResponseMessageCreated(address creator, address responseMessageAddress);\r\n    event SellingPostPaymentSuccess(uint paymentAmount, uint sellingPostKey, address responseMessageAddress);\r\n    \r\n\r\n    // ------------------------- seller side interaction -------------------------\r\n\r\n    // seller -  create a new selling post\r\n    function createSellingPost (uint _priceToSell, uint _amountToSell, address _msgSender) public {\r\n            \r\n            // 1. data validation\r\n            require(_priceToSell > 0, \"purchase price must be greater than 0\");\r\n            require(_amountToSell > 0, \"amount to buy must be greater than 0\");\r\n            \r\n            // 2. save information to the selling post map\r\n            sellingPostMap[sellingPostCounter].priceToSell = _priceToSell;\r\n            sellingPostMap[sellingPostCounter].amountToSell = _amountToSell;          \r\n            sellingPostMap[sellingPostCounter].seller = _msgSender;\r\n            sellingPostMap[sellingPostCounter].enabled = true;\r\n            sellingPostMap[sellingPostCounter].createdAt = block.timestamp;\r\n\r\n            // 3. set post status to true \r\n            sellingPostStatus[sellingPostCounter] = true;\r\n            \r\n            // 4. save post key to user struct\r\n            // userMap[msg.sender].sellingPostsKeys.push(sellingPostCounter);\r\n            userService.saveSellingPostKey(_msgSender, sellingPostCounter);\r\n           \r\n            // 5. emit event\r\n            emit SellingPostCreated( _msgSender, sellingPostCounter, _priceToSell, _amountToSell);\r\n\r\n            // 6. increment selling post counter by 1\r\n            sellingPostCounter++;\r\n    }\r\n\r\n    // buyer - create selling post response messages\r\n    // buyer creates response message and wait for confirmation from seller. buyer then pays for it once response is accepted\r\n    function createResponseMessageToSellingPost(uint _amountToBuy, uint _quotationInWei, uint _sellingPostKey, address _msgSender) public {\r\n        \r\n        // 1. data validation\r\n        require(_amountToBuy > 0, \"amount must be greater than 0\");\r\n        require(_quotationInWei > 0, \"quotation must be greater than 0\");\r\n        require(_sellingPostKey >= 0, \"post key starts from 0\");\r\n        require(_msgSender != sellingPostMap[_sellingPostKey].seller, \"You cannot reply to your own selling post\");\r\n\r\n        // 2. create a new response message\r\n        uint messageIndex = sellingPostMap[_sellingPostKey].responseMessages.length;\r\n        PostResponseMessage message = new PostResponseMessage(address(this), _msgSender, _amountToBuy, _quotationInWei, 1, _sellingPostKey, messageIndex );\r\n        \r\n        // 3. add the response message to the corresponding selling post \r\n        sellingPostMap[_sellingPostKey].responseMessages.push() = message;\r\n        userService.addResponse(_msgSender, message);\r\n\r\n        // 4. emit event\r\n        emit SellingPostResponseMessageCreated(_msgSender, address(message));\r\n\r\n    }\r\n\r\n    //  handle selling post payment process\r\n    function handleSellingPostPayment(uint _sellingPostKey, uint _responseMessageIndex) public payable {\r\n        \r\n        // 1.1 data validation & get response message contract reference\r\n        PostResponseMessage responseMessage = sellingPostMap[_sellingPostKey].responseMessages[_responseMessageIndex];\r\n        require(address(responseMessage) == msg.sender, \"Only response messages are allowed to trigger payment process\");\r\n        \r\n        // 1.2 get current time\r\n        uint transactionTime = block.timestamp;\r\n\r\n        // 2.1 update buyer's account information\r\n        address buyer = responseMessage.messageSender();\r\n        // userMap[buyer].availableElecUnits += responseMessage.amount();   \r\n        userService.setAvailableElecUnits(buyer, userService.getAvailableElecUnits(buyer) + responseMessage.amount() );\r\n\r\n        // 2.2.1 update buyer's statistics (statistics service required)\r\n        statisticsService.updateTotalBuy(buyer, responseMessage.amount());\r\n        statisticsService.addOneElectricBuyTransaction(buyer, transactionTime, responseMessage.amount());\r\n        // 2.2.2 update buyer's transaction sequence map (statistics service required)\r\n        statisticsService.addTransactionToSequenceMap(buyer, 0, transactionTime);\r\n        \r\n        \r\n        // 3.1 update seller's account information\r\n        address seller = sellingPostMap[_sellingPostKey].seller;\r\n        // require( userMap[seller].availableElecUnits >= responseMessage.amount(), \"Insufficient electricity units in seller's account\");\r\n        require( userService.getAvailableElecUnits(seller) >= responseMessage.amount(), \"Insufficient electricity units in seller's account\");\r\n        // userMap[seller].availableElecUnits -= responseMessage.amount();\r\n        userService.setAvailableElecUnits(seller, userService.getAvailableElecUnits(seller) - responseMessage.amount() );\r\n\r\n        // 3.2.1 update seller's statistics (statistics service required)\r\n        statisticsService.updateTotalSell(seller, responseMessage.amount());\r\n        statisticsService.addOneElectricSellTransaction(seller, transactionTime, responseMessage.amount());\r\n        // 3.2.2 update seller's transaction sequence map to record all transactions regardless of type in sequential order (statistics service required)\r\n        statisticsService.addTransactionToSequenceMap(seller, 1, transactionTime);\r\n        \r\n        \r\n        // 4. update selling post\r\n        // 1) decrease selling amount accordingly \r\n        require(sellingPostMap[_sellingPostKey].amountToSell >= responseMessage.amount(), \"Insufficient selling units in selling post\");\r\n        sellingPostMap[_sellingPostKey].amountToSell -= responseMessage.amount();\r\n        // 2) set post to disabled if available selling units in selling post are 0\r\n        if ( sellingPostMap[_sellingPostKey].amountToSell == 0) {\r\n            sellingPostMap[_sellingPostKey].enabled = false;\r\n        }\r\n\r\n        // 5. transfer ether to seller's account\r\n        payable(seller).transfer(msg.value);\r\n\r\n        emit SellingPostPaymentSuccess(msg.value, _sellingPostKey, address(responseMessage));\r\n        \r\n    }\r\n\r\n\r\n    // ------------------------- seller side utils -------------------------\r\n    \r\n    // returns all selling posts by user address\r\n    function returnAllSellingPostsByAddress(address _account) public view returns (SellingPost[] memory) {\r\n        // uint[] memory keys = userMap[_account].sellingPostsKeys;\r\n        uint[] memory keys = userService.getSellingPostKeys(_account);\r\n        SellingPost[] memory sellingPosts = new SellingPost[](keys.length);\r\n        for (uint i = 0; i < keys.length; i++) {\r\n            sellingPosts[i]  = sellingPostMap[keys[i]]; \r\n        }\r\n        return sellingPosts;\r\n    }\r\n\r\n    // return one selling post by post key\r\n    function getSellingPostByKey(uint _postKey) public view returns(SellingPost memory) {\r\n        return sellingPostMap[_postKey];\r\n    }\r\n\r\n    // return all response messages of one post by key\r\n    function returnSellingPostResponseMessagesByKey(uint _postKey) public view returns(PostResponseMessage[] memory){\r\n        require(_postKey >= 0, \"post key starts from 0\");\r\n        return sellingPostMap[_postKey].responseMessages;\r\n    }\r\n\r\n    //new\r\n    // return total number of sell posts in the system\r\n    function returnSellPostMapSize() public view returns(uint) {\r\n        return sellingPostCounter;\r\n    }\r\n\r\n}\r\n",
  "sourcePath": "E:\\5703_Repository\\truffle\\contracts\\SellerService.sol",
  "compiler": {
    "name": "solc",
    "version": "0.8.17+commit.8df45f5f.Emscripten.clang"
  },
  "schemaVersion": "3.4.10",
  "updatedAt": "2022-10-28T08:26:03.796Z",
  "devdoc": {
    "kind": "dev",
    "methods": {},
    "version": 1
  },
  "userdoc": {
    "kind": "user",
    "methods": {},
    "version": 1
  }
}