{
  "contractName": "SellerModule",
  "abi": [
    {
      "anonymous": false,
      "inputs": [
        {
          "indexed": false,
          "internalType": "address",
          "name": "creator",
          "type": "address"
        },
        {
          "indexed": false,
          "internalType": "uint256",
          "name": "postKey",
          "type": "uint256"
        },
        {
          "indexed": false,
          "internalType": "uint256",
          "name": "_priceToBuy",
          "type": "uint256"
        },
        {
          "indexed": false,
          "internalType": "uint256",
          "name": "_amountToBuy",
          "type": "uint256"
        }
      ],
      "name": "PurchasePostCreated",
      "type": "event"
    },
    {
      "anonymous": false,
      "inputs": [
        {
          "indexed": false,
          "internalType": "uint256",
          "name": "paymentAmount",
          "type": "uint256"
        },
        {
          "indexed": false,
          "internalType": "uint256",
          "name": "purchasePostKey",
          "type": "uint256"
        },
        {
          "indexed": false,
          "internalType": "address",
          "name": "responseMessageAddress",
          "type": "address"
        }
      ],
      "name": "PurchasePostPaymentSuccess",
      "type": "event"
    },
    {
      "anonymous": false,
      "inputs": [
        {
          "indexed": false,
          "internalType": "address",
          "name": "creator",
          "type": "address"
        },
        {
          "indexed": false,
          "internalType": "address",
          "name": "responseMessageAddress",
          "type": "address"
        }
      ],
      "name": "PurchasePostResponseMessageCreated",
      "type": "event"
    },
    {
      "anonymous": false,
      "inputs": [
        {
          "indexed": false,
          "internalType": "address",
          "name": "creator",
          "type": "address"
        },
        {
          "indexed": false,
          "internalType": "uint256",
          "name": "postKey",
          "type": "uint256"
        },
        {
          "indexed": false,
          "internalType": "uint256",
          "name": "_priceToBuy",
          "type": "uint256"
        },
        {
          "indexed": false,
          "internalType": "uint256",
          "name": "_amountToBuy",
          "type": "uint256"
        }
      ],
      "name": "SellingPostCreated",
      "type": "event"
    },
    {
      "anonymous": false,
      "inputs": [
        {
          "indexed": false,
          "internalType": "uint256",
          "name": "paymentAmount",
          "type": "uint256"
        },
        {
          "indexed": false,
          "internalType": "uint256",
          "name": "sellingPostKey",
          "type": "uint256"
        },
        {
          "indexed": false,
          "internalType": "address",
          "name": "responseMessageAddress",
          "type": "address"
        }
      ],
      "name": "SellingPostPaymentSuccess",
      "type": "event"
    },
    {
      "anonymous": false,
      "inputs": [
        {
          "indexed": false,
          "internalType": "address",
          "name": "creator",
          "type": "address"
        },
        {
          "indexed": false,
          "internalType": "address",
          "name": "responseMessageAddress",
          "type": "address"
        }
      ],
      "name": "SellingPostResponseMessageCreated",
      "type": "event"
    },
    {
      "inputs": [],
      "name": "sellingPostCounter",
      "outputs": [
        {
          "internalType": "uint256",
          "name": "",
          "type": "uint256"
        }
      ],
      "stateMutability": "view",
      "type": "function"
    },
    {
      "inputs": [
        {
          "internalType": "address",
          "name": "",
          "type": "address"
        }
      ],
      "name": "userMap",
      "outputs": [
        {
          "internalType": "string",
          "name": "username",
          "type": "string"
        },
        {
          "internalType": "uint256",
          "name": "availableElecUnits",
          "type": "uint256"
        }
      ],
      "stateMutability": "view",
      "type": "function"
    },
    {
      "inputs": [
        {
          "internalType": "uint256",
          "name": "_priceToSell",
          "type": "uint256"
        },
        {
          "internalType": "uint256",
          "name": "_amountToSell",
          "type": "uint256"
        }
      ],
      "name": "createSellingPost",
      "outputs": [],
      "stateMutability": "nonpayable",
      "type": "function"
    },
    {
      "inputs": [
        {
          "internalType": "uint256",
          "name": "_amountToBuy",
          "type": "uint256"
        },
        {
          "internalType": "uint256",
          "name": "_quotationInWei",
          "type": "uint256"
        },
        {
          "internalType": "uint256",
          "name": "_sellingPostKey",
          "type": "uint256"
        }
      ],
      "name": "createResponseMessageToSellingPost",
      "outputs": [],
      "stateMutability": "nonpayable",
      "type": "function"
    },
    {
      "inputs": [
        {
          "internalType": "uint256",
          "name": "_sellingPostKey",
          "type": "uint256"
        },
        {
          "internalType": "uint256",
          "name": "_responseMessageIndex",
          "type": "uint256"
        }
      ],
      "name": "handleSellingPostPayment",
      "outputs": [],
      "stateMutability": "payable",
      "type": "function"
    }
  ],
  "bytecode": "0x608060405234801561001057600080fd5b50612bf5806100206000396000f3fe608060405260043610620000505760003560e01c80630876290a14620000555780632bcc23f814620000755780636e6181ec14620000ba5780636fc1a2c314620000e8578063e3d9deb61462000118575b600080fd5b6200007360048036038101906200006d919062000d94565b62000146565b005b3480156200008257600080fd5b50620000a160048036038101906200009b919062000e40565b62000798565b604051620000b192919062000f1d565b60405180910390f35b348015620000c757600080fd5b50620000e66004803603810190620000e0919062000d94565b6200084c565b005b348015620000f557600080fd5b506200010062000aad565b6040516200010f919062000f51565b60405180910390f35b3480156200012557600080fd5b506200014460048036038101906200013e919062000f6e565b62000ab3565b005b600060016000848152602001908152602001600020600401828154811062000173576200017262000fca565b5b9060005260206000200160009054906101000a900473ffffffffffffffffffffffffffffffffffffffff1690503373ffffffffffffffffffffffffffffffffffffffff168173ffffffffffffffffffffffffffffffffffffffff161462000211576040517f08c379a000000000000000000000000000000000000000000000000000000000815260040162000208906200106f565b60405180910390fd5b60008173ffffffffffffffffffffffffffffffffffffffff1663d67bdd256040518163ffffffff1660e01b8152600401602060405180830381865afa1580156200025f573d6000803e3d6000fd5b505050506040513d601f19601f82011682018060405250810190620002859190620010a8565b90508173ffffffffffffffffffffffffffffffffffffffff1663aa8c217c6040518163ffffffff1660e01b8152600401602060405180830381865afa158015620002d3573d6000803e3d6000fd5b505050506040513d601f19601f82011682018060405250810190620002f99190620010f1565b6000808373ffffffffffffffffffffffffffffffffffffffff1673ffffffffffffffffffffffffffffffffffffffff16815260200190815260200160002060010160008282546200034b919062001152565b9250508190555060006001600086815260200190815260200160002060020160009054906101000a900473ffffffffffffffffffffffffffffffffffffffff1690508273ffffffffffffffffffffffffffffffffffffffff1663aa8c217c6040518163ffffffff1660e01b8152600401602060405180830381865afa158015620003d9573d6000803e3d6000fd5b505050506040513d601f19601f82011682018060405250810190620003ff9190620010f1565b6000808373ffffffffffffffffffffffffffffffffffffffff1673ffffffffffffffffffffffffffffffffffffffff16815260200190815260200160002060010154101562000485576040517f08c379a00000000000000000000000000000000000000000000000000000000081526004016200047c9062001203565b60405180910390fd5b8273ffffffffffffffffffffffffffffffffffffffff1663aa8c217c6040518163ffffffff1660e01b8152600401602060405180830381865afa158015620004d1573d6000803e3d6000fd5b505050506040513d601f19601f82011682018060405250810190620004f79190620010f1565b6000808373ffffffffffffffffffffffffffffffffffffffff1673ffffffffffffffffffffffffffffffffffffffff168152602001908152602001600020600101600082825462000549919062001225565b925050819055508273ffffffffffffffffffffffffffffffffffffffff1663aa8c217c6040518163ffffffff1660e01b8152600401602060405180830381865afa1580156200059c573d6000803e3d6000fd5b505050506040513d601f19601f82011682018060405250810190620005c29190620010f1565b600160008781526020019081526020016000206001015410156200061d576040517f08c379a00000000000000000000000000000000000000000000000000000000081526004016200061490620012d6565b60405180910390fd5b8273ffffffffffffffffffffffffffffffffffffffff1663aa8c217c6040518163ffffffff1660e01b8152600401602060405180830381865afa15801562000669573d6000803e3d6000fd5b505050506040513d601f19601f820116820180604052508101906200068f9190620010f1565b600160008781526020019081526020016000206001016000828254620006b6919062001225565b9250508190555060006001600087815260200190815260200160002060010154036200070c5760006001600087815260200190815260200160002060020160146101000a81548160ff0219169083151502179055505b8073ffffffffffffffffffffffffffffffffffffffff166108fc349081150290604051600060405180830381858888f1935050505015801562000753573d6000803e3d6000fd5b507f58e40951e480e0eb47a55e7fe3d9efbfcf47e2513825240c24a81843b2fb6c7b348685604051620007899392919062001309565b60405180910390a15050505050565b6000602052806000526040600020600091509050806000018054620007bd9062001375565b80601f0160208091040260200160405190810160405280929190818152602001828054620007eb9062001375565b80156200083c5780601f1062000810576101008083540402835291602001916200083c565b820191906000526020600020905b8154815290600101906020018083116200081e57829003601f168201915b5050505050908060010154905082565b6000821162000892576040517f08c379a0000000000000000000000000000000000000000000000000000000008152600401620008899062001420565b60405180910390fd5b60008111620008d8576040517f08c379a0000000000000000000000000000000000000000000000000000000008152600401620008cf90620014b8565b60405180910390fd5b816001600060045481526020019081526020016000206000018190555080600160006004548152602001908152602001600020600101819055503360016000600454815260200190815260200160002060020160006101000a81548173ffffffffffffffffffffffffffffffffffffffff021916908373ffffffffffffffffffffffffffffffffffffffff1602179055506001806000600454815260200190815260200160002060020160146101000a81548160ff0219169083151502179055504260016000600454815260200190815260200160002060030181905550600160026000600454815260200190815260200160002060006101000a81548160ff0219169083151502179055506000803373ffffffffffffffffffffffffffffffffffffffff1673ffffffffffffffffffffffffffffffffffffffff16815260200190815260200160002060030160045490806001815401808255809150506001900390600052602060002001600090919091909150557f70d4f73f8dc596f6b7f1d3996153d2ae6e391837c8ad344b8f32ffe96fbbed9c33600454848460405162000a879493929190620014da565b60405180910390a16004600081548092919062000aa49062001527565b91905055505050565b60045481565b6000831162000af9576040517f08c379a000000000000000000000000000000000000000000000000000000000815260040162000af090620015c4565b60405180910390fd5b6000821162000b3f576040517f08c379a000000000000000000000000000000000000000000000000000000000815260040162000b369062001636565b60405180910390fd5b600081101562000b86576040517f08c379a000000000000000000000000000000000000000000000000000000000815260040162000b7d90620016a8565b60405180910390fd5b6001600082815260200190815260200160002060020160009054906101000a900473ffffffffffffffffffffffffffffffffffffffff1673ffffffffffffffffffffffffffffffffffffffff163373ffffffffffffffffffffffffffffffffffffffff160362000c2d576040517f08c379a000000000000000000000000000000000000000000000000000000000815260040162000c249062001740565b60405180910390fd5b6000600160008381526020019081526020016000206004018054905090506000303386866001878760405162000c639062000d46565b62000c759796959493929190620017bc565b604051809103906000f08015801562000c92573d6000803e3d6000fd5b5090508060016000858152602001908152602001600020600401600181600181540180825580915050039060005260206000200160006101000a81548173ffffffffffffffffffffffffffffffffffffffff021916908373ffffffffffffffffffffffffffffffffffffffff1602179055507fc7f10d7197fb2a9693c302afe34b2b61de0f7048c4a33a39923e281c0c93ee22338260405162000d3792919062001839565b60405180910390a15050505050565b611359806200186783390190565b600080fd5b6000819050919050565b62000d6e8162000d59565b811462000d7a57600080fd5b50565b60008135905062000d8e8162000d63565b92915050565b6000806040838503121562000dae5762000dad62000d54565b5b600062000dbe8582860162000d7d565b925050602062000dd18582860162000d7d565b9150509250929050565b600073ffffffffffffffffffffffffffffffffffffffff82169050919050565b600062000e088262000ddb565b9050919050565b62000e1a8162000dfb565b811462000e2657600080fd5b50565b60008135905062000e3a8162000e0f565b92915050565b60006020828403121562000e595762000e5862000d54565b5b600062000e698482850162000e29565b91505092915050565b600081519050919050565b600082825260208201905092915050565b60005b8381101562000eae57808201518184015260208101905062000e91565b60008484015250505050565b6000601f19601f8301169050919050565b600062000ed88262000e72565b62000ee4818562000e7d565b935062000ef681856020860162000e8e565b62000f018162000eba565b840191505092915050565b62000f178162000d59565b82525050565b6000604082019050818103600083015262000f39818562000ecb565b905062000f4a602083018462000f0c565b9392505050565b600060208201905062000f68600083018462000f0c565b92915050565b60008060006060848603121562000f8a5762000f8962000d54565b5b600062000f9a8682870162000d7d565b935050602062000fad8682870162000d7d565b925050604062000fc08682870162000d7d565b9150509250925092565b7f4e487b7100000000000000000000000000000000000000000000000000000000600052603260045260246000fd5b7f4f6e6c7920726573706f6e7365206d657373616765732061726520616c6c6f7760008201527f656420746f2074726967676572207061796d656e742070726f63657373000000602082015250565b600062001057603d8362000e7d565b9150620010648262000ff9565b604082019050919050565b600060208201905081810360008301526200108a8162001048565b9050919050565b600081519050620010a28162000e0f565b92915050565b600060208284031215620010c157620010c062000d54565b5b6000620010d18482850162001091565b91505092915050565b600081519050620010eb8162000d63565b92915050565b6000602082840312156200110a576200110962000d54565b5b60006200111a84828501620010da565b91505092915050565b7f4e487b7100000000000000000000000000000000000000000000000000000000600052601160045260246000fd5b60006200115f8262000d59565b91506200116c8362000d59565b925082820190508082111562001187576200118662001123565b5b92915050565b7f496e73756666696369656e7420656c65637472696369747920756e697473206960008201527f6e2073656c6c65722773206163636f756e740000000000000000000000000000602082015250565b6000620011eb60328362000e7d565b9150620011f8826200118d565b604082019050919050565b600060208201905081810360008301526200121e81620011dc565b9050919050565b6000620012328262000d59565b91506200123f8362000d59565b92508282039050818111156200125a576200125962001123565b5b92915050565b7f496e73756666696369656e742073656c6c696e6720756e69747320696e20736560008201527f6c6c696e6720706f737400000000000000000000000000000000000000000000602082015250565b6000620012be602a8362000e7d565b9150620012cb8262001260565b604082019050919050565b60006020820190508181036000830152620012f181620012af565b9050919050565b620013038162000dfb565b82525050565b600060608201905062001320600083018662000f0c565b6200132f602083018562000f0c565b6200133e6040830184620012f8565b949350505050565b7f4e487b7100000000000000000000000000000000000000000000000000000000600052602260045260246000fd5b600060028204905060018216806200138e57607f821691505b602082108103620013a457620013a362001346565b5b50919050565b7f7075726368617365207072696365206d7573742062652067726561746572207460008201527f68616e2030000000000000000000000000000000000000000000000000000000602082015250565b60006200140860258362000e7d565b91506200141582620013aa565b604082019050919050565b600060208201905081810360008301526200143b81620013f9565b9050919050565b7f616d6f756e7420746f20627579206d757374206265206772656174657220746860008201527f616e203000000000000000000000000000000000000000000000000000000000602082015250565b6000620014a060248362000e7d565b9150620014ad8262001442565b604082019050919050565b60006020820190508181036000830152620014d38162001491565b9050919050565b6000608082019050620014f16000830187620012f8565b62001500602083018662000f0c565b6200150f604083018562000f0c565b6200151e606083018462000f0c565b95945050505050565b6000620015348262000d59565b91507fffffffffffffffffffffffffffffffffffffffffffffffffffffffffffffffff820362001569576200156862001123565b5b600182019050919050565b7f616d6f756e74206d7573742062652067726561746572207468616e2030000000600082015250565b6000620015ac601d8362000e7d565b9150620015b98262001574565b602082019050919050565b60006020820190508181036000830152620015df816200159d565b9050919050565b7f71756f746174696f6e206d7573742062652067726561746572207468616e2030600082015250565b60006200161e60208362000e7d565b91506200162b82620015e6565b602082019050919050565b6000602082019050818103600083015262001651816200160f565b9050919050565b7f706f7374206b6579207374617274732066726f6d203000000000000000000000600082015250565b60006200169060168362000e7d565b91506200169d8262001658565b602082019050919050565b60006020820190508181036000830152620016c38162001681565b9050919050565b7f596f752063616e6e6f74207265706c7920746f20796f7572206f776e2073656c60008201527f6c696e6720706f73740000000000000000000000000000000000000000000000602082015250565b60006200172860298362000e7d565b91506200173582620016ca565b604082019050919050565b600060208201905081810360008301526200175b8162001719565b9050919050565b6000819050919050565b600060ff82169050919050565b6000819050919050565b6000620017a46200179e620017988462001762565b62001779565b6200176c565b9050919050565b620017b68162001783565b82525050565b600060e082019050620017d3600083018a620012f8565b620017e26020830189620012f8565b620017f1604083018862000f0c565b62001800606083018762000f0c565b6200180f6080830186620017ab565b6200181e60a083018562000f0c565b6200182d60c083018462000f0c565b98975050505050505050565b6000604082019050620018506000830185620012f8565b6200185f6020830184620012f8565b939250505056fe60806040523480156200001157600080fd5b50604051620013593803806200135983398181016040528101906200003791906200021c565b86600860006101000a81548173ffffffffffffffffffffffffffffffffffffffff021916908373ffffffffffffffffffffffffffffffffffffffff160217905550856000806101000a81548173ffffffffffffffffffffffffffffffffffffffff021916908373ffffffffffffffffffffffffffffffffffffffff160217905550846001819055508360028190555082600360006101000a81548160ff021916908360ff16021790555081600481905550806005819055506000600660006101000a81548160ff0219169083151502179055506000600660016101000a81548160ff0219169083151502179055504260078190555050505050505050620002cf565b600080fd5b600073ffffffffffffffffffffffffffffffffffffffff82169050919050565b60006200016b826200013e565b9050919050565b6200017d816200015e565b81146200018957600080fd5b50565b6000815190506200019d8162000172565b92915050565b6000819050919050565b620001b881620001a3565b8114620001c457600080fd5b50565b600081519050620001d881620001ad565b92915050565b600060ff82169050919050565b620001f681620001de565b81146200020257600080fd5b50565b6000815190506200021681620001eb565b92915050565b600080600080600080600060e0888a0312156200023e576200023d62000139565b5b60006200024e8a828b016200018c565b9750506020620002618a828b016200018c565b9650506040620002748a828b01620001c7565b9550506060620002878a828b01620001c7565b94505060806200029a8a828b0162000205565b93505060a0620002ad8a828b01620001c7565b92505060c0620002c08a828b01620001c7565b91505092959891949750929550565b61107a80620002df6000396000f3fe6080604052600436106100ab5760003560e01c8063a03a202e11610064578063a03a202e14610388578063aa8c217c146103b3578063abf4d6c4146103de578063c32b9b53146103e8578063cf09e0d0146103f2578063d67bdd251461041d57610283565b806304dc4cda14610288578063209ebc08146102b35780633013aa25146102de5780633d855485146103075780633e784e63146103325780635051a5ec1461035d57610283565b3661028357600034116100f3576040517f08c379a00000000000000000000000000000000000000000000000000000000081526004016100ea906109a9565b60405180910390fd5b60011515600660009054906101000a900460ff16151514610149576040517f08c379a000000000000000000000000000000000000000000000000000000000815260040161014090610a3b565b60405180910390fd5b3460025460015461015a9190610a94565b1461019a576040517f08c379a000000000000000000000000000000000000000000000000000000000815260040161019190610b22565b60405180910390fd5b60001515600660019054906101000a900460ff161515146101f0576040517f08c379a00000000000000000000000000000000000000000000000000000000081526004016101e790610b8e565b60405180910390fd5b6000600360009054906101000a900460ff1660ff160361021757610212610448565b610281565b6001600360009054906101000a900460ff1660ff160361023e57610239610657565b610280565b600061027f576040517f08c379a000000000000000000000000000000000000000000000000000000000815260040161027690610bfa565b60405180910390fd5b5b5b005b600080fd5b34801561029457600080fd5b5061029d610866565b6040516102aa9190610c36565b60405180910390f35b3480156102bf57600080fd5b506102c8610879565b6040516102d59190610c6c565b60405180910390f35b3480156102ea57600080fd5b5061030560048036038101906103009190610cb8565b61088c565b005b34801561031357600080fd5b5061031c6108f7565b6040516103299190610cf4565b60405180910390f35b34801561033e57600080fd5b506103476108fd565b6040516103549190610cf4565b60405180910390f35b34801561036957600080fd5b50610372610903565b60405161037f9190610c6c565b60405180910390f35b34801561039457600080fd5b5061039d610916565b6040516103aa9190610cf4565b60405180910390f35b3480156103bf57600080fd5b506103c861091c565b6040516103d59190610cf4565b60405180910390f35b6103e6610448565b005b6103f0610657565b005b3480156103fe57600080fd5b50610407610922565b6040516104149190610cf4565b60405180910390f35b34801561042957600080fd5b50610432610928565b60405161043f9190610d50565b60405180910390f35b60008054906101000a900473ffffffffffffffffffffffffffffffffffffffff1673ffffffffffffffffffffffffffffffffffffffff163373ffffffffffffffffffffffffffffffffffffffff16036104d6576040517f08c379a00000000000000000000000000000000000000000000000000000000081526004016104cd90610ddd565b60405180910390fd5b6000600860009054906101000a900473ffffffffffffffffffffffffffffffffffffffff1673ffffffffffffffffffffffffffffffffffffffff1634600454600554604051602401610529929190610dfd565b6040516020818303038152906040527f7bf4d415000000000000000000000000000000000000000000000000000000007bffffffffffffffffffffffffffffffffffffffffffffffffffffffff19166020820180517bffffffffffffffffffffffffffffffffffffffffffffffffffffffff83818316178352505050506040516105b39190610e97565b60006040518083038185875af1925050503d80600081146105f0576040519150601f19603f3d011682016040523d82523d6000602084013e6105f5565b606091505b5050905080610639576040517f08c379a000000000000000000000000000000000000000000000000000000000815260040161063090610efa565b60405180910390fd5b6001600660016101000a81548160ff02191690831515021790555050565b60008054906101000a900473ffffffffffffffffffffffffffffffffffffffff1673ffffffffffffffffffffffffffffffffffffffff163373ffffffffffffffffffffffffffffffffffffffff16146106e5576040517f08c379a00000000000000000000000000000000000000000000000000000000081526004016106dc90610fb2565b60405180910390fd5b6000600860009054906101000a900473ffffffffffffffffffffffffffffffffffffffff1673ffffffffffffffffffffffffffffffffffffffff1634600454600554604051602401610738929190610dfd565b6040516020818303038152906040527f0876290a000000000000000000000000000000000000000000000000000000007bffffffffffffffffffffffffffffffffffffffffffffffffffffffff19166020820180517bffffffffffffffffffffffffffffffffffffffffffffffffffffffff83818316178352505050506040516107c29190610e97565b60006040518083038185875af1925050503d80600081146107ff576040519150601f19603f3d011682016040523d82523d6000602084013e610804565b606091505b5050905080610848576040517f08c379a000000000000000000000000000000000000000000000000000000000815260040161083f90610efa565b60405180910390fd5b6001600660016101000a81548160ff02191690831515021790555050565b600360009054906101000a900460ff1681565b600660019054906101000a900460ff1681565b80600660006101000a81548160ff0219169083151502179055507f9161e5ec70df4a8ef9f6085e3435135f3da64c7ec32c271912e1ca8d4afbd7c3600360009054906101000a900460ff166004546005546040516108ec9392919061100d565b60405180910390a150565b60045481565b60055481565b600660009054906101000a900460ff1681565b60025481565b60015481565b60075481565b60008054906101000a900473ffffffffffffffffffffffffffffffffffffffff1681565b600082825260208201905092915050565b7f696e76616c6964207061796d656e740000000000000000000000000000000000600082015250565b6000610993600f8361094c565b915061099e8261095d565b602082019050919050565b600060208201905081810360008301526109c281610986565b9050919050565b7f796f757220726573706f6e736520686173206e6f74206265656e20616363657060008201527f7465642062792073656c6c657220796574000000000000000000000000000000602082015250565b6000610a2560318361094c565b9150610a30826109c9565b604082019050919050565b60006020820190508181036000830152610a5481610a18565b9050919050565b6000819050919050565b7f4e487b7100000000000000000000000000000000000000000000000000000000600052601160045260246000fd5b6000610a9f82610a5b565b9150610aaa83610a5b565b9250828202610ab881610a5b565b91508282048414831517610acf57610ace610a65565b5b5092915050565b7f4e6f742066756c6c792070616964207965740000000000000000000000000000600082015250565b6000610b0c60128361094c565b9150610b1782610ad6565b602082019050919050565b60006020820190508181036000830152610b3b81610aff565b9050919050565b7f4f7264657220697320616c726561647920706169642100000000000000000000600082015250565b6000610b7860168361094c565b9150610b8382610b42565b602082019050919050565b60006020820190508181036000830152610ba781610b6b565b9050919050565b7f696e76616c696420726573706f6e7365206d6573736167652074797065000000600082015250565b6000610be4601d8361094c565b9150610bef82610bae565b602082019050919050565b60006020820190508181036000830152610c1381610bd7565b9050919050565b600060ff82169050919050565b610c3081610c1a565b82525050565b6000602082019050610c4b6000830184610c27565b92915050565b60008115159050919050565b610c6681610c51565b82525050565b6000602082019050610c816000830184610c5d565b92915050565b600080fd5b610c9581610c51565b8114610ca057600080fd5b50565b600081359050610cb281610c8c565b92915050565b600060208284031215610cce57610ccd610c87565b5b6000610cdc84828501610ca3565b91505092915050565b610cee81610a5b565b82525050565b6000602082019050610d096000830184610ce5565b92915050565b600073ffffffffffffffffffffffffffffffffffffffff82169050919050565b6000610d3a82610d0f565b9050919050565b610d4a81610d2f565b82525050565b6000602082019050610d656000830184610d41565b92915050565b7f596f752063616e6e6f74206d616b652061207061796d656e7420746f20796f7560008201527f72206f776e2073656c6c696e6720726573706f6e7365206d6573736167650000602082015250565b6000610dc7603e8361094c565b9150610dd282610d6b565b604082019050919050565b60006020820190508181036000830152610df681610dba565b9050919050565b6000604082019050610e126000830185610ce5565b610e1f6020830184610ce5565b9392505050565b600081519050919050565b600081905092915050565b60005b83811015610e5a578082015181840152602081019050610e3f565b60008484015250505050565b6000610e7182610e26565b610e7b8185610e31565b9350610e8b818560208601610e3c565b80840191505092915050565b6000610ea38284610e66565b915081905092915050565b7f7061796d656e74206661696c6564000000000000000000000000000000000000600082015250565b6000610ee4600e8361094c565b9150610eef82610eae565b602082019050919050565b60006020820190508181036000830152610f1381610ed7565b9050919050565b7f4f6e6c7920746865206d6573736167652073656e6465722077686f2073656e7460008201527f207468697320726573706f6e736520746f206163717569726520656c6563747260208201527f696369747920756e6974732063616e206d616b652061207061796d656e740000604082015250565b6000610f9c605e8361094c565b9150610fa782610f1a565b606082019050919050565b60006020820190508181036000830152610fcb81610f8f565b9050919050565b6000819050919050565b6000610ff7610ff2610fed84610c1a565b610fd2565b610a5b565b9050919050565b61100781610fdc565b82525050565b60006060820190506110226000830186610ffe565b61102f6020830185610ce5565b61103c6040830184610ce5565b94935050505056fea26469706673582212200fd7ad3d201d44c2ac4ef12e46eceab5ab9f46a536d09a4472c5b4f8abcc19d164736f6c63430008110033a2646970667358221220a37b44c69f32615a9fdd7e55e9198886c4ffa4c5c55633ba723752151fb13c6964736f6c63430008110033",
  "immutableReferences": {},
  "source": "//SPDX-License-Identifier: MIT\n\npragma solidity ^0.8.0;\n\nimport \"./PostResponseMessage.sol\";\nimport \"./BasicModule.sol\";\n\ncontract SellerModule is BasicModule {\n\n    // ------------------------- seller side storage variables -------------------------\n\n    // map each purchase post to an index\n    mapping(uint => SellingPost) sellingPostMap;\n    mapping(uint => bool) sellingPostStatus;       // label purchase post status\n    uint[]  sellingPostKeys;                        // array of keys of purchase posts \n    uint public sellingPostCounter;                   // count total number of purchase posts, start from 0\n\n    // selling post storage structure\n    struct SellingPost{\n        uint priceToSell;\n        uint amountToSell;\n        address seller;\n        bool enabled;\n        uint createdAt;\n        PostResponseMessage[] responseMessages;\n    }\n    \n\n    // ------------------------- seller side interaction -------------------------\n\n    // seller -  create a new selling post\n    function createSellingPost (uint _priceToSell, uint _amountToSell) public {\n            \n            // 1. data validation\n            require(_priceToSell > 0, \"purchase price must be greater than 0\");\n            require(_amountToSell > 0, \"amount to buy must be greater than 0\");\n            \n            // 2. save information to the selling post map\n            sellingPostMap[sellingPostCounter].priceToSell = _priceToSell;\n            sellingPostMap[sellingPostCounter].amountToSell = _amountToSell;          \n            sellingPostMap[sellingPostCounter].seller = msg.sender;\n            sellingPostMap[sellingPostCounter].enabled = true;\n            sellingPostMap[sellingPostCounter].createdAt = block.timestamp;\n\n            // 3. set post status to true \n            sellingPostStatus[sellingPostCounter] = true;\n            \n            // 4. save post key to user struct\n            userMap[msg.sender].sellingPostsKeys.push(sellingPostCounter);\n           \n            // 5. emit event\n            emit SellingPostCreated( msg.sender, sellingPostCounter, _priceToSell, _amountToSell);\n\n            // 6. increment selling post counter by 1\n            sellingPostCounter++;\n\n    }\n\n    // buyer - create selling post response messages\n    // buyer creates response message and wait for confirmation from seller. buyer then pays for it once response is accepted\n    function createResponseMessageToSellingPost(uint _amountToBuy, uint _quotationInWei, uint _sellingPostKey) public {\n        \n        // 1. data validation\n        require(_amountToBuy > 0, \"amount must be greater than 0\");\n        require(_quotationInWei > 0, \"quotation must be greater than 0\");\n        require(_sellingPostKey >= 0, \"post key starts from 0\");\n        require(msg.sender != sellingPostMap[_sellingPostKey].seller, \"You cannot reply to your own selling post\");\n\n        // 2. create a new response message\n        uint messageIndex = sellingPostMap[_sellingPostKey].responseMessages.length;\n        PostResponseMessage message = new PostResponseMessage(address(this), msg.sender, _amountToBuy, _quotationInWei, 1, _sellingPostKey, messageIndex );\n        \n        // 3. add the response message to the corresponding selling post \n        sellingPostMap[_sellingPostKey].responseMessages.push() = message;\n\n        // 4. emit event\n        emit SellingPostResponseMessageCreated(msg.sender, address(message));\n\n    }\n\n    //  \n    function handleSellingPostPayment(uint _sellingPostKey, uint _responseMessageIndex) public payable {\n        \n        // 1. data validation & get response message contract reference\n        PostResponseMessage responseMessage = sellingPostMap[_sellingPostKey].responseMessages[_responseMessageIndex];\n        require(address(responseMessage) == msg.sender, \"Only response messages are allowed to trigger payment process\");\n        \n\n        // 2. update buyer's account information\n        address buyer = responseMessage.messageSender();\n        userMap[buyer].availableElecUnits += responseMessage.amount();\n        \n        // 3. update seller's account information\n        address seller = sellingPostMap[_sellingPostKey].seller;\n        require( userMap[seller].availableElecUnits >= responseMessage.amount(), \"Insufficient electricity units in seller's account\");\n        userMap[seller].availableElecUnits -= responseMessage.amount();\n        \n        \n        // 4. update selling post\n        // 1) decrease selling amount accordingly \n        require(sellingPostMap[_sellingPostKey].amountToSell >= responseMessage.amount(), \"Insufficient selling units in selling post\");\n        sellingPostMap[_sellingPostKey].amountToSell -= responseMessage.amount();\n        // 2) set post to disabled if available selling units in selling post are 0\n        if ( sellingPostMap[_sellingPostKey].amountToSell == 0) {\n            sellingPostMap[_sellingPostKey].enabled = false;\n        }\n\n        // 5. transfer ether to seller's account\n        payable(seller).transfer(msg.value);\n\n        emit SellingPostPaymentSuccess(msg.value, _sellingPostKey, address(responseMessage));\n        \n    }\n\n}",
  "sourcePath": "/Users/richard/Doc//sydney_study/22s2/5703/vue-web3-5703/truffle/contracts/SellerModule.sol",
  "compiler": {
    "name": "solc",
    "version": "0.8.17+commit.8df45f5f.Emscripten.clang"
  },
  "schemaVersion": "3.4.9",
  "updatedAt": "2022-09-15T06:50:59.195Z",
  "devdoc": {
    "kind": "dev",
    "methods": {},
    "version": 1
  },
  "userdoc": {
    "kind": "user",
    "methods": {},
    "version": 1
  }
}