{
  "contractName": "SellerService",
  "abi": [
    {
      "inputs": [
        {
          "internalType": "contract StatisticsService",
          "name": "_statisticsService",
          "type": "address"
        },
        {
          "internalType": "contract UserService",
          "name": "_userService",
          "type": "address"
        },
        {
          "internalType": "contract Division",
          "name": "_divisionUtils",
          "type": "address"
        }
      ],
      "stateMutability": "nonpayable",
      "type": "constructor"
    },
    {
      "anonymous": false,
      "inputs": [
        {
          "indexed": false,
          "internalType": "address",
          "name": "creator",
          "type": "address"
        },
        {
          "indexed": false,
          "internalType": "uint256",
          "name": "postKey",
          "type": "uint256"
        },
        {
          "indexed": false,
          "internalType": "uint256",
          "name": "_priceToBuy",
          "type": "uint256"
        },
        {
          "indexed": false,
          "internalType": "uint256",
          "name": "_amountToBuy",
          "type": "uint256"
        }
      ],
      "name": "SellingPostCreated",
      "type": "event"
    },
    {
      "anonymous": false,
      "inputs": [
        {
          "indexed": false,
          "internalType": "uint256",
          "name": "paymentAmount",
          "type": "uint256"
        },
        {
          "indexed": false,
          "internalType": "uint256",
          "name": "sellingPostKey",
          "type": "uint256"
        },
        {
          "indexed": false,
          "internalType": "address",
          "name": "responseMessageAddress",
          "type": "address"
        }
      ],
      "name": "SellingPostPaymentSuccess",
      "type": "event"
    },
    {
      "anonymous": false,
      "inputs": [
        {
          "indexed": false,
          "internalType": "address",
          "name": "creator",
          "type": "address"
        },
        {
          "indexed": false,
          "internalType": "address",
          "name": "responseMessageAddress",
          "type": "address"
        }
      ],
      "name": "SellingPostResponseMessageCreated",
      "type": "event"
    },
    {
      "inputs": [
        {
          "internalType": "uint256",
          "name": "",
          "type": "uint256"
        }
      ],
      "name": "averagePriceforSell",
      "outputs": [
        {
          "internalType": "uint256",
          "name": "",
          "type": "uint256"
        }
      ],
      "stateMutability": "view",
      "type": "function"
    },
    {
      "inputs": [],
      "name": "averagePriceforSellKey",
      "outputs": [
        {
          "internalType": "uint256",
          "name": "",
          "type": "uint256"
        }
      ],
      "stateMutability": "view",
      "type": "function"
    },
    {
      "inputs": [],
      "name": "recentAveragePriceforSell",
      "outputs": [
        {
          "internalType": "string",
          "name": "",
          "type": "string"
        }
      ],
      "stateMutability": "view",
      "type": "function"
    },
    {
      "inputs": [],
      "name": "sellingPostCounter",
      "outputs": [
        {
          "internalType": "uint256",
          "name": "",
          "type": "uint256"
        }
      ],
      "stateMutability": "view",
      "type": "function"
    },
    {
      "inputs": [
        {
          "internalType": "uint256",
          "name": "_priceToSell",
          "type": "uint256"
        },
        {
          "internalType": "uint256",
          "name": "_amountToSell",
          "type": "uint256"
        },
        {
          "internalType": "address",
          "name": "_msgSender",
          "type": "address"
        }
      ],
      "name": "createSellingPost",
      "outputs": [],
      "stateMutability": "nonpayable",
      "type": "function"
    },
    {
      "inputs": [
        {
          "internalType": "uint256",
          "name": "_amountToBuy",
          "type": "uint256"
        },
        {
          "internalType": "uint256",
          "name": "_quotationInWei",
          "type": "uint256"
        },
        {
          "internalType": "uint256",
          "name": "_sellingPostKey",
          "type": "uint256"
        },
        {
          "internalType": "address",
          "name": "_msgSender",
          "type": "address"
        }
      ],
      "name": "createResponseMessageToSellingPost",
      "outputs": [],
      "stateMutability": "nonpayable",
      "type": "function"
    },
    {
      "inputs": [
        {
          "internalType": "uint256",
          "name": "_sellingPostKey",
          "type": "uint256"
        },
        {
          "internalType": "uint256",
          "name": "_responseMessageIndex",
          "type": "uint256"
        }
      ],
      "name": "handleSellingPostPayment",
      "outputs": [],
      "stateMutability": "payable",
      "type": "function"
    },
    {
      "inputs": [],
      "name": "updateRecentAveragePriceforSell",
      "outputs": [],
      "stateMutability": "nonpayable",
      "type": "function"
    },
    {
      "inputs": [
        {
          "internalType": "address",
          "name": "_account",
          "type": "address"
        }
      ],
      "name": "returnAllSellingPostsByAddress",
      "outputs": [
        {
          "components": [
            {
              "internalType": "uint256",
              "name": "priceToSell",
              "type": "uint256"
            },
            {
              "internalType": "uint256",
              "name": "initialAmountToSell",
              "type": "uint256"
            },
            {
              "internalType": "uint256",
              "name": "amountToSell",
              "type": "uint256"
            },
            {
              "internalType": "address",
              "name": "seller",
              "type": "address"
            },
            {
              "internalType": "bool",
              "name": "enabled",
              "type": "bool"
            },
            {
              "internalType": "uint256",
              "name": "createdAt",
              "type": "uint256"
            },
            {
              "internalType": "contract PostResponseMessage[]",
              "name": "responseMessages",
              "type": "address[]"
            }
          ],
          "internalType": "struct BeanStructs.SellingPost[]",
          "name": "",
          "type": "tuple[]"
        }
      ],
      "stateMutability": "view",
      "type": "function"
    },
    {
      "inputs": [
        {
          "internalType": "uint256",
          "name": "_postKey",
          "type": "uint256"
        }
      ],
      "name": "getSellingPostByKey",
      "outputs": [
        {
          "components": [
            {
              "internalType": "uint256",
              "name": "priceToSell",
              "type": "uint256"
            },
            {
              "internalType": "uint256",
              "name": "initialAmountToSell",
              "type": "uint256"
            },
            {
              "internalType": "uint256",
              "name": "amountToSell",
              "type": "uint256"
            },
            {
              "internalType": "address",
              "name": "seller",
              "type": "address"
            },
            {
              "internalType": "bool",
              "name": "enabled",
              "type": "bool"
            },
            {
              "internalType": "uint256",
              "name": "createdAt",
              "type": "uint256"
            },
            {
              "internalType": "contract PostResponseMessage[]",
              "name": "responseMessages",
              "type": "address[]"
            }
          ],
          "internalType": "struct BeanStructs.SellingPost",
          "name": "",
          "type": "tuple"
        }
      ],
      "stateMutability": "view",
      "type": "function"
    },
    {
      "inputs": [
        {
          "internalType": "uint256",
          "name": "_postKey",
          "type": "uint256"
        }
      ],
      "name": "returnSellingPostResponseMessagesByKey",
      "outputs": [
        {
          "internalType": "contract PostResponseMessage[]",
          "name": "",
          "type": "address[]"
        }
      ],
      "stateMutability": "view",
      "type": "function"
    },
    {
      "inputs": [],
      "name": "returnSellPostMapSize",
      "outputs": [
        {
          "internalType": "uint256",
          "name": "",
          "type": "uint256"
        }
      ],
      "stateMutability": "view",
      "type": "function"
    },
    {
      "inputs": [],
      "name": "returnRecentAveragePriceforSell",
      "outputs": [
        {
          "internalType": "string",
          "name": "",
          "type": "string"
        }
      ],
      "stateMutability": "view",
      "type": "function"
    }
  ],
  "bytecode": "0x6080604052606467ffffffffffffffff811115620000225762000021620001da565b5b604051908082528060200260200182016040528015620000515781602001602082028036833780820191505090505b50600590805190602001906200006992919062000169565b503480156200007757600080fd5b50604051620053483803806200534883398181016040528101906200009d919062000311565b82600760016101000a81548173ffffffffffffffffffffffffffffffffffffffff021916908373ffffffffffffffffffffffffffffffffffffffff16021790555081600860006101000a81548173ffffffffffffffffffffffffffffffffffffffff021916908373ffffffffffffffffffffffffffffffffffffffff16021790555080600960006101000a81548173ffffffffffffffffffffffffffffffffffffffff021916908373ffffffffffffffffffffffffffffffffffffffff1602179055505050506200036d565b828054828255906000526020600020908101928215620001a8579160200282015b82811115620001a75782518255916020019190600101906200018a565b5b509050620001b79190620001bb565b5090565b5b80821115620001d6576000816000905550600101620001bc565b5090565b7f4e487b7100000000000000000000000000000000000000000000000000000000600052604160045260246000fd5b600080fd5b600073ffffffffffffffffffffffffffffffffffffffff82169050919050565b60006200023b826200020e565b9050919050565b60006200024f826200022e565b9050919050565b620002618162000242565b81146200026d57600080fd5b50565b600081519050620002818162000256565b92915050565b600062000294826200022e565b9050919050565b620002a68162000287565b8114620002b257600080fd5b50565b600081519050620002c6816200029b565b92915050565b6000620002d9826200022e565b9050919050565b620002eb81620002cc565b8114620002f757600080fd5b50565b6000815190506200030b81620002e0565b92915050565b6000806000606084860312156200032d576200032c62000209565b5b60006200033d8682870162000270565b93505060206200035086828701620002b5565b92505060406200036386828701620002fa565b9150509250925092565b614fcb806200037d6000396000f3fe608060405260043610620000d45760003560e01c80636fc1a2c3116200008b578063b4d2a0c41162000061578063b4d2a0c4146200029b578063ba5e27ba14620002cb578063d364094814620002fb578063da02c9de146200032b57620000d4565b80636fc1a2c314620001f9578063906eb21c1462000229578063ae87ca7c146200025757620000d4565b80630876290a14620000d957806335bef43714620000f957806335df3509146200013d5780634cb3a345146200016d5780636627cbd6146200019b57806367e8ada714620001df575b600080fd5b620000f76004803603810190620000f19190620020fd565b6200036f565b005b3480156200010657600080fd5b506200012560048036038101906200011f919062002144565b6200120a565b60405162000134919062002187565b60405180910390f35b3480156200014a57600080fd5b50620001556200122f565b60405162000164919062002187565b60405180910390f35b3480156200017a57600080fd5b5062000199600480360381019062000193919062002209565b62001239565b005b348015620001a857600080fd5b50620001c76004803603810190620001c1919062002144565b6200155d565b604051620001d69190620023a3565b60405180910390f35b348015620001ec57600080fd5b50620001f762001649565b005b3480156200020657600080fd5b506200021162001856565b60405162000220919062002187565b60405180910390f35b3480156200023657600080fd5b506200025560048036038101906200024f9190620023c7565b6200185c565b005b3480156200026457600080fd5b506200028360048036038101906200027d919062002423565b62001b00565b60405162000292919062002689565b60405180910390f35b348015620002a857600080fd5b50620002b362001dbe565b604051620002c2919062002747565b60405180910390f35b348015620002d857600080fd5b50620002e362001e58565b604051620002f2919062002747565b60405180910390f35b3480156200030857600080fd5b506200031362001eee565b60405162000322919062002187565b60405180910390f35b3480156200033857600080fd5b5062000357600480360381019062000351919062002144565b62001ef4565b60405162000366919062002815565b60405180910390f35b600080600084815260200190815260200160002060050182815481106200039b576200039a62002839565b5b9060005260206000200160009054906101000a900473ffffffffffffffffffffffffffffffffffffffff1690503373ffffffffffffffffffffffffffffffffffffffff168173ffffffffffffffffffffffffffffffffffffffff161462000439576040517f08c379a00000000000000000000000000000000000000000000000000000000081526004016200043090620028de565b60405180910390fd5b600042905060008273ffffffffffffffffffffffffffffffffffffffff1663d67bdd256040518163ffffffff1660e01b8152600401602060405180830381865afa1580156200048c573d6000803e3d6000fd5b505050506040513d601f19601f82011682018060405250810190620004b2919062002917565b9050600860009054906101000a900473ffffffffffffffffffffffffffffffffffffffff1673ffffffffffffffffffffffffffffffffffffffff1663e2670971828573ffffffffffffffffffffffffffffffffffffffff1663aa8c217c6040518163ffffffff1660e01b8152600401602060405180830381865afa1580156200053f573d6000803e3d6000fd5b505050506040513d601f19601f8201168201806040525081019062000565919062002960565b600860009054906101000a900473ffffffffffffffffffffffffffffffffffffffff1673ffffffffffffffffffffffffffffffffffffffff1663cb8ab15b866040518263ffffffff1660e01b8152600401620005c29190620029a3565b602060405180830381865afa158015620005e0573d6000803e3d6000fd5b505050506040513d601f19601f8201168201806040525081019062000606919062002960565b620006129190620029ef565b6040518363ffffffff1660e01b81526004016200063192919062002a2a565b600060405180830381600087803b1580156200064c57600080fd5b505af115801562000661573d6000803e3d6000fd5b50505050600760019054906101000a900473ffffffffffffffffffffffffffffffffffffffff1673ffffffffffffffffffffffffffffffffffffffff16633f9b696c828573ffffffffffffffffffffffffffffffffffffffff1663aa8c217c6040518163ffffffff1660e01b8152600401602060405180830381865afa158015620006f0573d6000803e3d6000fd5b505050506040513d601f19601f8201168201806040525081019062000716919062002960565b6040518363ffffffff1660e01b81526004016200073592919062002a2a565b600060405180830381600087803b1580156200075057600080fd5b505af115801562000765573d6000803e3d6000fd5b50505050600760019054906101000a900473ffffffffffffffffffffffffffffffffffffffff1673ffffffffffffffffffffffffffffffffffffffff16632f0a323e82848673ffffffffffffffffffffffffffffffffffffffff1663aa8c217c6040518163ffffffff1660e01b8152600401602060405180830381865afa158015620007f5573d6000803e3d6000fd5b505050506040513d601f19601f820116820180604052508101906200081b919062002960565b6040518463ffffffff1660e01b81526004016200083b9392919062002a57565b600060405180830381600087803b1580156200085657600080fd5b505af11580156200086b573d6000803e3d6000fd5b50505050600760019054906101000a900473ffffffffffffffffffffffffffffffffffffffff1673ffffffffffffffffffffffffffffffffffffffff1663e6b02333826000856040518463ffffffff1660e01b8152600401620008d19392919062002ad7565b600060405180830381600087803b158015620008ec57600080fd5b505af115801562000901573d6000803e3d6000fd5b50505050600080600087815260200190815260200160002060030160009054906101000a900473ffffffffffffffffffffffffffffffffffffffff1690508373ffffffffffffffffffffffffffffffffffffffff1663aa8c217c6040518163ffffffff1660e01b8152600401602060405180830381865afa1580156200098b573d6000803e3d6000fd5b505050506040513d601f19601f82011682018060405250810190620009b1919062002960565b600860009054906101000a900473ffffffffffffffffffffffffffffffffffffffff1673ffffffffffffffffffffffffffffffffffffffff1663cb8ab15b836040518263ffffffff1660e01b815260040162000a0e9190620029a3565b602060405180830381865afa15801562000a2c573d6000803e3d6000fd5b505050506040513d601f19601f8201168201806040525081019062000a52919062002960565b101562000a96576040517f08c379a000000000000000000000000000000000000000000000000000000000815260040162000a8d9062002b8a565b60405180910390fd5b600860009054906101000a900473ffffffffffffffffffffffffffffffffffffffff1673ffffffffffffffffffffffffffffffffffffffff1663e2670971828673ffffffffffffffffffffffffffffffffffffffff1663aa8c217c6040518163ffffffff1660e01b8152600401602060405180830381865afa15801562000b21573d6000803e3d6000fd5b505050506040513d601f19601f8201168201806040525081019062000b47919062002960565b600860009054906101000a900473ffffffffffffffffffffffffffffffffffffffff1673ffffffffffffffffffffffffffffffffffffffff1663cb8ab15b866040518263ffffffff1660e01b815260040162000ba49190620029a3565b602060405180830381865afa15801562000bc2573d6000803e3d6000fd5b505050506040513d601f19601f8201168201806040525081019062000be8919062002960565b62000bf4919062002bac565b6040518363ffffffff1660e01b815260040162000c1392919062002a2a565b600060405180830381600087803b15801562000c2e57600080fd5b505af115801562000c43573d6000803e3d6000fd5b50505050600760019054906101000a900473ffffffffffffffffffffffffffffffffffffffff1673ffffffffffffffffffffffffffffffffffffffff1663e8b8530f828673ffffffffffffffffffffffffffffffffffffffff1663aa8c217c6040518163ffffffff1660e01b8152600401602060405180830381865afa15801562000cd2573d6000803e3d6000fd5b505050506040513d601f19601f8201168201806040525081019062000cf8919062002960565b6040518363ffffffff1660e01b815260040162000d1792919062002a2a565b600060405180830381600087803b15801562000d3257600080fd5b505af115801562000d47573d6000803e3d6000fd5b50505050600760019054906101000a900473ffffffffffffffffffffffffffffffffffffffff1673ffffffffffffffffffffffffffffffffffffffff16631e7ba9cd82858773ffffffffffffffffffffffffffffffffffffffff1663aa8c217c6040518163ffffffff1660e01b8152600401602060405180830381865afa15801562000dd7573d6000803e3d6000fd5b505050506040513d601f19601f8201168201806040525081019062000dfd919062002960565b6040518463ffffffff1660e01b815260040162000e1d9392919062002a57565b600060405180830381600087803b15801562000e3857600080fd5b505af115801562000e4d573d6000803e3d6000fd5b50505050600760019054906101000a900473ffffffffffffffffffffffffffffffffffffffff1673ffffffffffffffffffffffffffffffffffffffff1663e6b02333826001866040518463ffffffff1660e01b815260040162000eb39392919062002c2a565b600060405180830381600087803b15801562000ece57600080fd5b505af115801562000ee3573d6000803e3d6000fd5b505050508373ffffffffffffffffffffffffffffffffffffffff1663aa8c217c6040518163ffffffff1660e01b8152600401602060405180830381865afa15801562000f33573d6000803e3d6000fd5b505050506040513d601f19601f8201168201806040525081019062000f59919062002960565b60008088815260200190815260200160002060020154101562000fb3576040517f08c379a000000000000000000000000000000000000000000000000000000000815260040162000faa9062002cdd565b60405180910390fd5b8373ffffffffffffffffffffffffffffffffffffffff1663aa8c217c6040518163ffffffff1660e01b8152600401602060405180830381865afa15801562000fff573d6000803e3d6000fd5b505050506040513d601f19601f8201168201806040525081019062001025919062002960565b60008088815260200190815260200160002060020160008282546200104b919062002bac565b92505081905550600080600088815260200190815260200160002060020154036200109f57600080600088815260200190815260200160002060030160146101000a81548160ff0219169083151502179055505b606460065403620010ce576001600760006101000a81548160ff02191690831515021790555060006006819055505b8373ffffffffffffffffffffffffffffffffffffffff1663a03a202e6040518163ffffffff1660e01b8152600401602060405180830381865afa1580156200111a573d6000803e3d6000fd5b505050506040513d601f19601f8201168201806040525081019062001140919062002960565b600560066000815480929190620011579062002cff565b91905055815481106200116f576200116e62002839565b5b90600052602060002001819055508073ffffffffffffffffffffffffffffffffffffffff166108fc349081150290604051600060405180830381858888f19350505050158015620011c4573d6000803e3d6000fd5b507f58e40951e480e0eb47a55e7fe3d9efbfcf47e2513825240c24a81843b2fb6c7b348786604051620011fa9392919062002d4c565b60405180910390a1505050505050565b600581815481106200121b57600080fd5b906000526020600020016000915090505481565b6000600354905090565b600084116200127f576040517f08c379a0000000000000000000000000000000000000000000000000000000008152600401620012769062002dd9565b60405180910390fd5b60008311620012c5576040517f08c379a0000000000000000000000000000000000000000000000000000000008152600401620012bc9062002e4b565b60405180910390fd5b60008210156200130c576040517f08c379a0000000000000000000000000000000000000000000000000000000008152600401620013039062002ebd565b60405180910390fd5b60008083815260200190815260200160002060030160009054906101000a900473ffffffffffffffffffffffffffffffffffffffff1673ffffffffffffffffffffffffffffffffffffffff168173ffffffffffffffffffffffffffffffffffffffff1603620013b2576040517f08c379a0000000000000000000000000000000000000000000000000000000008152600401620013a99062002f55565b60405180910390fd5b600080600084815260200190815260200160002060050180549050905060003083878760018887604051620013e7906200204b565b620013f9979695949392919062002fbd565b604051809103906000f08015801562001416573d6000803e3d6000fd5b50905080600080868152602001908152602001600020600501600181600181540180825580915050039060005260206000200160006101000a81548173ffffffffffffffffffffffffffffffffffffffff021916908373ffffffffffffffffffffffffffffffffffffffff160217905550600860009054906101000a900473ffffffffffffffffffffffffffffffffffffffff1673ffffffffffffffffffffffffffffffffffffffff166384dc965a84836040518363ffffffff1660e01b8152600401620014e69291906200304b565b600060405180830381600087803b1580156200150157600080fd5b505af115801562001516573d6000803e3d6000fd5b505050507fc7f10d7197fb2a9693c302afe34b2b61de0f7048c4a33a39923e281c0c93ee2283826040516200154d92919062003078565b60405180910390a1505050505050565b60606000821015620015a6576040517f08c379a00000000000000000000000000000000000000000000000000000000081526004016200159d9062002ebd565b60405180910390fd5b6000808381526020019081526020016000206005018054806020026020016040519081016040528092919081815260200182805480156200163d57602002820191906000526020600020905b8160009054906101000a900473ffffffffffffffffffffffffffffffffffffffff1673ffffffffffffffffffffffffffffffffffffffff1681526020019060010190808311620015f2575b50505050509050919050565b6000805b600580549050811015620016a2576005818154811062001672576200167162002839565b5b9060005260206000200154826200168a9190620029ef565b91508080620016999062002cff565b9150506200164d565b50600760009054906101000a900460ff16156200178857600960009054906101000a900473ffffffffffffffffffffffffffffffffffffffff1673ffffffffffffffffffffffffffffffffffffffff16632336b59160038360646040518463ffffffff1660e01b81526004016200171c939291906200312b565b600060405180830381865afa1580156200173a573d6000803e3d6000fd5b505050506040513d6000823e3d601f19601f82011682018060405250810190620017659190620032aa565b90915090506004600082919050908162001780919062003551565b505062001853565b600960009054906101000a900473ffffffffffffffffffffffffffffffffffffffff1673ffffffffffffffffffffffffffffffffffffffff16632336b5916003836006546040518463ffffffff1660e01b8152600401620017ec9392919062003638565b600060405180830381865afa1580156200180a573d6000803e3d6000fd5b505050506040513d6000823e3d601f19601f82011682018060405250810190620018359190620032aa565b90915090506004600082919050908162001850919062003551565b50505b50565b60035481565b60008311620018a2576040517f08c379a00000000000000000000000000000000000000000000000000000000081526004016200189990620036eb565b60405180910390fd5b60008211620018e8576040517f08c379a0000000000000000000000000000000000000000000000000000000008152600401620018df9062003783565b60405180910390fd5b82600080600354815260200190815260200160002060000181905550816000806003548152602001908152602001600020600101819055508160008060035481526020019081526020016000206002018190555080600080600354815260200190815260200160002060030160006101000a81548173ffffffffffffffffffffffffffffffffffffffff021916908373ffffffffffffffffffffffffffffffffffffffff1602179055506001600080600354815260200190815260200160002060030160146101000a81548160ff021916908315150217905550426000806003548152602001908152602001600020600401819055506001806000600354815260200190815260200160002060006101000a81548160ff021916908315150217905550600860009054906101000a900473ffffffffffffffffffffffffffffffffffffffff1673ffffffffffffffffffffffffffffffffffffffff1663c331d842826003546040518363ffffffff1660e01b815260040162001a6c92919062002a2a565b600060405180830381600087803b15801562001a8757600080fd5b505af115801562001a9c573d6000803e3d6000fd5b505050507f70d4f73f8dc596f6b7f1d3996153d2ae6e391837c8ad344b8f32ffe96fbbed9c81600354858560405162001ad99493929190620037a5565b60405180910390a16003600081548092919062001af69062002cff565b9190505550505050565b60606000600860009054906101000a900473ffffffffffffffffffffffffffffffffffffffff1673ffffffffffffffffffffffffffffffffffffffff16631d036d7d846040518263ffffffff1660e01b815260040162001b619190620029a3565b600060405180830381865afa15801562001b7f573d6000803e3d6000fd5b505050506040513d6000823e3d601f19601f8201168201806040525081019062001baa9190620038cd565b90506000815167ffffffffffffffff81111562001bcc5762001bcb62003172565b5b60405190808252806020026020018201604052801562001c0957816020015b62001bf562002059565b81526020019060019003908162001beb5790505b50905060005b825181101562001db35760008084838151811062001c325762001c3162002839565b5b602002602001015181526020019081526020016000206040518060e00160405290816000820154815260200160018201548152602001600282015481526020016003820160009054906101000a900473ffffffffffffffffffffffffffffffffffffffff1673ffffffffffffffffffffffffffffffffffffffff1673ffffffffffffffffffffffffffffffffffffffff1681526020016003820160149054906101000a900460ff16151515158152602001600482015481526020016005820180548060200260200160405190810160405280929190818152602001828054801562001d7357602002820191906000526020600020905b8160009054906101000a900473ffffffffffffffffffffffffffffffffffffffff1673ffffffffffffffffffffffffffffffffffffffff168152602001906001019080831162001d28575b50505050508152505082828151811062001d925762001d9162002839565b5b6020026020010181905250808062001daa9062002cff565b91505062001c0f565b508092505050919050565b60606004805462001dcf9062003354565b80601f016020809104026020016040519081016040528092919081815260200182805462001dfd9062003354565b801562001e4e5780601f1062001e225761010080835404028352916020019162001e4e565b820191906000526020600020905b81548152906001019060200180831162001e3057829003601f168201915b5050505050905090565b6004805462001e679062003354565b80601f016020809104026020016040519081016040528092919081815260200182805462001e959062003354565b801562001ee65780601f1062001eba5761010080835404028352916020019162001ee6565b820191906000526020600020905b81548152906001019060200180831162001ec857829003601f168201915b505050505081565b60065481565b62001efe62002059565b6000808381526020019081526020016000206040518060e00160405290816000820154815260200160018201548152602001600282015481526020016003820160009054906101000a900473ffffffffffffffffffffffffffffffffffffffff1673ffffffffffffffffffffffffffffffffffffffff1673ffffffffffffffffffffffffffffffffffffffff1681526020016003820160149054906101000a900460ff1615151515815260200160048201548152602001600582018054806020026020016040519081016040528092919081815260200182805480156200203b57602002820191906000526020600020905b8160009054906101000a900473ffffffffffffffffffffffffffffffffffffffff1673ffffffffffffffffffffffffffffffffffffffff168152602001906001019080831162001ff0575b5050505050815250509050919050565b611677806200391f83390190565b6040518060e00160405280600081526020016000815260200160008152602001600073ffffffffffffffffffffffffffffffffffffffff16815260200160001515815260200160008152602001606081525090565b6000604051905090565b600080fd5b600080fd5b6000819050919050565b620020d781620020c2565b8114620020e357600080fd5b50565b600081359050620020f781620020cc565b92915050565b60008060408385031215620021175762002116620020b8565b5b60006200212785828601620020e6565b92505060206200213a85828601620020e6565b9150509250929050565b6000602082840312156200215d576200215c620020b8565b5b60006200216d84828501620020e6565b91505092915050565b6200218181620020c2565b82525050565b60006020820190506200219e600083018462002176565b92915050565b600073ffffffffffffffffffffffffffffffffffffffff82169050919050565b6000620021d182620021a4565b9050919050565b620021e381620021c4565b8114620021ef57600080fd5b50565b6000813590506200220381620021d8565b92915050565b60008060008060808587031215620022265762002225620020b8565b5b60006200223687828801620020e6565b94505060206200224987828801620020e6565b93505060406200225c87828801620020e6565b92505060606200226f87828801620021f2565b91505092959194509250565b600081519050919050565b600082825260208201905092915050565b6000819050602082019050919050565b6000819050919050565b6000620022d2620022cc620022c684620021a4565b620022a7565b620021a4565b9050919050565b6000620022e682620022b1565b9050919050565b6000620022fa82620022d9565b9050919050565b6200230c81620022ed565b82525050565b600062002320838362002301565b60208301905092915050565b6000602082019050919050565b600062002346826200227b565b62002352818562002286565b93506200235f8362002297565b8060005b83811015620023965781516200237a888262002312565b975062002387836200232c565b92505060018101905062002363565b5085935050505092915050565b60006020820190508181036000830152620023bf818462002339565b905092915050565b600080600060608486031215620023e357620023e2620020b8565b5b6000620023f386828701620020e6565b93505060206200240686828701620020e6565b92505060406200241986828701620021f2565b9150509250925092565b6000602082840312156200243c576200243b620020b8565b5b60006200244c84828501620021f2565b91505092915050565b600081519050919050565b600082825260208201905092915050565b6000819050602082019050919050565b6200248c81620020c2565b82525050565b6200249d81620021c4565b82525050565b60008115159050919050565b620024ba81620024a3565b82525050565b600082825260208201905092915050565b6000620024de826200227b565b620024ea8185620024c0565b9350620024f78362002297565b8060005b838110156200252e57815162002512888262002312565b97506200251f836200232c565b925050600181019050620024fb565b5085935050505092915050565b600060e08301600083015162002555600086018262002481565b5060208301516200256a602086018262002481565b5060408301516200257f604086018262002481565b50606083015162002594606086018262002492565b506080830151620025a96080860182620024af565b5060a0830151620025be60a086018262002481565b5060c083015184820360c0860152620025d88282620024d1565b9150508091505092915050565b6000620025f383836200253b565b905092915050565b6000602082019050919050565b6000620026158262002455565b62002621818562002460565b935083602082028501620026358562002471565b8060005b85811015620026775784840389528151620026558582620025e5565b94506200266283620025fb565b925060208a0199505060018101905062002639565b50829750879550505050505092915050565b60006020820190508181036000830152620026a5818462002608565b905092915050565b600081519050919050565b600082825260208201905092915050565b60005b83811015620026e9578082015181840152602081019050620026cc565b60008484015250505050565b6000601f19601f8301169050919050565b60006200271382620026ad565b6200271f8185620026b8565b935062002731818560208601620026c9565b6200273c81620026f5565b840191505092915050565b6000602082019050818103600083015262002763818462002706565b905092915050565b600060e08301600083015162002785600086018262002481565b5060208301516200279a602086018262002481565b506040830151620027af604086018262002481565b506060830151620027c4606086018262002492565b506080830151620027d96080860182620024af565b5060a0830151620027ee60a086018262002481565b5060c083015184820360c0860152620028088282620024d1565b9150508091505092915050565b600060208201905081810360008301526200283181846200276b565b905092915050565b7f4e487b7100000000000000000000000000000000000000000000000000000000600052603260045260246000fd5b7f4f6e6c7920726573706f6e7365206d657373616765732061726520616c6c6f7760008201527f656420746f2074726967676572207061796d656e742070726f63657373000000602082015250565b6000620028c6603d83620026b8565b9150620028d38262002868565b604082019050919050565b60006020820190508181036000830152620028f981620028b7565b9050919050565b6000815190506200291181620021d8565b92915050565b60006020828403121562002930576200292f620020b8565b5b6000620029408482850162002900565b91505092915050565b6000815190506200295a81620020cc565b92915050565b600060208284031215620029795762002978620020b8565b5b6000620029898482850162002949565b91505092915050565b6200299d81620021c4565b82525050565b6000602082019050620029ba600083018462002992565b92915050565b7f4e487b7100000000000000000000000000000000000000000000000000000000600052601160045260246000fd5b6000620029fc82620020c2565b915062002a0983620020c2565b925082820190508082111562002a245762002a23620029c0565b5b92915050565b600060408201905062002a41600083018562002992565b62002a50602083018462002176565b9392505050565b600060608201905062002a6e600083018662002992565b62002a7d602083018562002176565b62002a8c604083018462002176565b949350505050565b6000819050919050565b600062002abf62002ab962002ab38462002a94565b620022a7565b620020c2565b9050919050565b62002ad18162002a9e565b82525050565b600060608201905062002aee600083018662002992565b62002afd602083018562002ac6565b62002b0c604083018462002176565b949350505050565b7f496e73756666696369656e7420656c65637472696369747920756e697473206960008201527f6e2073656c6c65722773206163636f756e740000000000000000000000000000602082015250565b600062002b72603283620026b8565b915062002b7f8262002b14565b604082019050919050565b6000602082019050818103600083015262002ba58162002b63565b9050919050565b600062002bb982620020c2565b915062002bc683620020c2565b925082820390508181111562002be15762002be0620029c0565b5b92915050565b6000819050919050565b600062002c1262002c0c62002c068462002be7565b620022a7565b620020c2565b9050919050565b62002c248162002bf1565b82525050565b600060608201905062002c41600083018662002992565b62002c50602083018562002c19565b62002c5f604083018462002176565b949350505050565b7f496e73756666696369656e742073656c6c696e6720756e69747320696e20736560008201527f6c6c696e6720706f737400000000000000000000000000000000000000000000602082015250565b600062002cc5602a83620026b8565b915062002cd28262002c67565b604082019050919050565b6000602082019050818103600083015262002cf88162002cb6565b9050919050565b600062002d0c82620020c2565b91507fffffffffffffffffffffffffffffffffffffffffffffffffffffffffffffffff820362002d415762002d40620029c0565b5b600182019050919050565b600060608201905062002d63600083018662002176565b62002d72602083018562002176565b62002d81604083018462002992565b949350505050565b7f616d6f756e74206d7573742062652067726561746572207468616e2030000000600082015250565b600062002dc1601d83620026b8565b915062002dce8262002d89565b602082019050919050565b6000602082019050818103600083015262002df48162002db2565b9050919050565b7f71756f746174696f6e206d7573742062652067726561746572207468616e2030600082015250565b600062002e33602083620026b8565b915062002e408262002dfb565b602082019050919050565b6000602082019050818103600083015262002e668162002e24565b9050919050565b7f706f7374206b6579207374617274732066726f6d203000000000000000000000600082015250565b600062002ea5601683620026b8565b915062002eb28262002e6d565b602082019050919050565b6000602082019050818103600083015262002ed88162002e96565b9050919050565b7f596f752063616e6e6f74207265706c7920746f20796f7572206f776e2073656c60008201527f6c696e6720706f73740000000000000000000000000000000000000000000000602082015250565b600062002f3d602983620026b8565b915062002f4a8262002edf565b604082019050919050565b6000602082019050818103600083015262002f708162002f2e565b9050919050565b600060ff82169050919050565b600062002fa562002f9f62002f998462002be7565b620022a7565b62002f77565b9050919050565b62002fb78162002f84565b82525050565b600060e08201905062002fd4600083018a62002992565b62002fe3602083018962002992565b62002ff2604083018862002176565b62003001606083018762002176565b62003010608083018662002fac565b6200301f60a083018562002176565b6200302e60c083018462002176565b98975050505050505050565b6200304581620022ed565b82525050565b600060408201905062003062600083018562002992565b6200307160208301846200303a565b9392505050565b60006040820190506200308f600083018562002992565b6200309e602083018462002992565b9392505050565b6000819050919050565b6000620030d0620030ca620030c484620030a5565b620022a7565b620020c2565b9050919050565b620030e281620030af565b82525050565b6000819050919050565b6000620031136200310d6200310784620030e8565b620022a7565b620020c2565b9050919050565b6200312581620030f2565b82525050565b6000606082019050620031426000830186620030d7565b62003151602083018562002176565b6200316060408301846200311a565b949350505050565b600080fd5b600080fd5b7f4e487b7100000000000000000000000000000000000000000000000000000000600052604160045260246000fd5b620031ac82620026f5565b810181811067ffffffffffffffff82111715620031ce57620031cd62003172565b5b80604052505050565b6000620031e3620020ae565b9050620031f18282620031a1565b919050565b600067ffffffffffffffff82111562003214576200321362003172565b5b6200321f82620026f5565b9050602081019050919050565b6000620032436200323d84620031f6565b620031d7565b9050828152602081018484840111156200326257620032616200316d565b5b6200326f848285620026c9565b509392505050565b600082601f8301126200328f576200328e62003168565b5b8151620032a18482602086016200322c565b91505092915050565b600080600060608486031215620032c657620032c5620020b8565b5b6000620032d68682870162002949565b9350506020620032e98682870162002949565b925050604084015167ffffffffffffffff8111156200330d576200330c620020bd565b5b6200331b8682870162003277565b9150509250925092565b7f4e487b7100000000000000000000000000000000000000000000000000000000600052602260045260246000fd5b600060028204905060018216806200336d57607f821691505b60208210810362003383576200338262003325565b5b50919050565b60008190508160005260206000209050919050565b60006020601f8301049050919050565b600082821b905092915050565b600060088302620033ed7fffffffffffffffffffffffffffffffffffffffffffffffffffffffffffffffff82620033ae565b620033f98683620033ae565b95508019841693508086168417925050509392505050565b6000620034326200342c6200342684620020c2565b620022a7565b620020c2565b9050919050565b6000819050919050565b6200344e8362003411565b620034666200345d8262003439565b848454620033bb565b825550505050565b600090565b6200347d6200346e565b6200348a81848462003443565b505050565b5b81811015620034b257620034a660008262003473565b60018101905062003490565b5050565b601f8211156200350157620034cb8162003389565b620034d6846200339e565b81016020851015620034e6578190505b620034fe620034f5856200339e565b8301826200348f565b50505b505050565b600082821c905092915050565b6000620035266000198460080262003506565b1980831691505092915050565b600062003541838362003513565b9150826002028217905092915050565b6200355c82620026ad565b67ffffffffffffffff81111562003578576200357762003172565b5b62003584825462003354565b62003591828285620034b6565b600060209050601f831160018114620035c95760008415620035b4578287015190505b620035c0858262003533565b86555062003630565b601f198416620035d98662003389565b60005b828110156200360357848901518255600182019150602085019450602081019050620035dc565b868310156200362357848901516200361f601f89168262003513565b8355505b6001600288020188555050505b505050505050565b60006060820190506200364f6000830186620030d7565b6200365e602083018562002176565b6200366d604083018462002176565b949350505050565b7f7075726368617365207072696365206d7573742062652067726561746572207460008201527f68616e2030000000000000000000000000000000000000000000000000000000602082015250565b6000620036d3602583620026b8565b9150620036e08262003675565b604082019050919050565b600060208201905081810360008301526200370681620036c4565b9050919050565b7f616d6f756e7420746f20627579206d757374206265206772656174657220746860008201527f616e203000000000000000000000000000000000000000000000000000000000602082015250565b60006200376b602483620026b8565b915062003778826200370d565b604082019050919050565b600060208201905081810360008301526200379e816200375c565b9050919050565b6000608082019050620037bc600083018762002992565b620037cb602083018662002176565b620037da604083018562002176565b620037e9606083018462002176565b95945050505050565b600067ffffffffffffffff82111562003810576200380f62003172565b5b602082029050602081019050919050565b600080fd5b60006200383d6200383784620037f2565b620031d7565b9050808382526020820190506020840283018581111562003863576200386262003821565b5b835b818110156200389057806200387b888262002949565b84526020840193505060208101905062003865565b5050509392505050565b600082601f830112620038b257620038b162003168565b5b8151620038c484826020860162003826565b91505092915050565b600060208284031215620038e657620038e5620020b8565b5b600082015167ffffffffffffffff811115620039075762003906620020bd565b5b62003915848285016200389a565b9150509291505056fe60806040523480156200001157600080fd5b506040516200167738038062001677833981810160405281019062000037919062000225565b86600960006101000a81548173ffffffffffffffffffffffffffffffffffffffff021916908373ffffffffffffffffffffffffffffffffffffffff160217905550856000806101000a81548173ffffffffffffffffffffffffffffffffffffffff021916908373ffffffffffffffffffffffffffffffffffffffff160217905550846002819055506002546001819055508360038190555082600460006101000a81548160ff021916908360ff16021790555081600581905550806006819055506000600760006101000a81548160ff0219169083151502179055506000600760016101000a81548160ff0219169083151502179055504260088190555050505050505050620002d8565b600080fd5b600073ffffffffffffffffffffffffffffffffffffffff82169050919050565b6000620001748262000147565b9050919050565b620001868162000167565b81146200019257600080fd5b50565b600081519050620001a6816200017b565b92915050565b6000819050919050565b620001c181620001ac565b8114620001cd57600080fd5b50565b600081519050620001e181620001b6565b92915050565b600060ff82169050919050565b620001ff81620001e7565b81146200020b57600080fd5b50565b6000815190506200021f81620001f4565b92915050565b600080600080600080600060e0888a03121562000247576200024662000142565b5b6000620002578a828b0162000195565b97505060206200026a8a828b0162000195565b96505060406200027d8a828b01620001d0565b9550506060620002908a828b01620001d0565b9450506080620002a38a828b016200020e565b93505060a0620002b68a828b01620001d0565b92505060c0620002c98a828b01620001d0565b91505092959891949750929550565b61138f80620002e86000396000f3fe6080604052600436106100e15760003560e01c8063a03a202e1161007f578063c32b9b5311610059578063c32b9b5314610449578063cf09e0d014610453578063d67bdd251461047e578063fc1ed437146104a9576102b9565b8063a03a202e146103e9578063aa8c217c14610414578063abf4d6c41461043f576102b9565b80633d855485116100bb5780633d8554851461033d5780633e784e63146103685780635051a5ec1461039357806382fa096a146103be576102b9565b806304dc4cda146102be578063209ebc08146102e95780633013aa2514610314576102b9565b366102b95760003411610129576040517f08c379a000000000000000000000000000000000000000000000000000000000815260040161012090610baf565b60405180910390fd5b60011515600760009054906101000a900460ff1615151461017f576040517f08c379a000000000000000000000000000000000000000000000000000000000815260040161017690610c41565b60405180910390fd5b346003546002546101909190610c9a565b146101d0576040517f08c379a00000000000000000000000000000000000000000000000000000000081526004016101c790610d28565b60405180910390fd5b60001515600760019054906101000a900460ff16151514610226576040517f08c379a000000000000000000000000000000000000000000000000000000000815260040161021d90610d94565b60405180910390fd5b6000600460009054906101000a900460ff1660ff160361024d576102486104d4565b6102b7565b6001600460009054906101000a900460ff1660ff16036102745761026f6106e3565b6102b6565b60006102b5576040517f08c379a00000000000000000000000000000000000000000000000000000000081526004016102ac90610e00565b60405180910390fd5b5b5b005b600080fd5b3480156102ca57600080fd5b506102d36108f2565b6040516102e09190610e3c565b60405180910390f35b3480156102f557600080fd5b506102fe610905565b60405161030b9190610e72565b60405180910390f35b34801561032057600080fd5b5061033b60048036038101906103369190610ebe565b610918565b005b34801561034957600080fd5b50610352610983565b60405161035f9190610efa565b60405180910390f35b34801561037457600080fd5b5061037d610989565b60405161038a9190610efa565b60405180910390f35b34801561039f57600080fd5b506103a861098f565b6040516103b59190610e72565b60405180910390f35b3480156103ca57600080fd5b506103d36109a2565b6040516103e0919061103a565b60405180910390f35b3480156103f557600080fd5b506103fe610aad565b60405161040b9190610efa565b60405180910390f35b34801561042057600080fd5b50610429610ab3565b6040516104369190610efa565b60405180910390f35b6104476104d4565b005b6104516106e3565b005b34801561045f57600080fd5b50610468610ab9565b6040516104759190610efa565b60405180910390f35b34801561048a57600080fd5b50610493610abf565b6040516104a09190611065565b60405180910390f35b3480156104b557600080fd5b506104be610ae3565b6040516104cb9190610efa565b60405180910390f35b60008054906101000a900473ffffffffffffffffffffffffffffffffffffffff1673ffffffffffffffffffffffffffffffffffffffff163373ffffffffffffffffffffffffffffffffffffffff1603610562576040517f08c379a0000000000000000000000000000000000000000000000000000000008152600401610559906110f2565b60405180910390fd5b6000600960009054906101000a900473ffffffffffffffffffffffffffffffffffffffff1673ffffffffffffffffffffffffffffffffffffffff16346005546006546040516024016105b5929190611112565b6040516020818303038152906040527f3d480db5000000000000000000000000000000000000000000000000000000007bffffffffffffffffffffffffffffffffffffffffffffffffffffffff19166020820180517bffffffffffffffffffffffffffffffffffffffffffffffffffffffff838183161783525050505060405161063f91906111ac565b60006040518083038185875af1925050503d806000811461067c576040519150601f19603f3d011682016040523d82523d6000602084013e610681565b606091505b50509050806106c5576040517f08c379a00000000000000000000000000000000000000000000000000000000081526004016106bc9061120f565b60405180910390fd5b6001600760016101000a81548160ff02191690831515021790555050565b60008054906101000a900473ffffffffffffffffffffffffffffffffffffffff1673ffffffffffffffffffffffffffffffffffffffff163373ffffffffffffffffffffffffffffffffffffffff1614610771576040517f08c379a0000000000000000000000000000000000000000000000000000000008152600401610768906112c7565b60405180910390fd5b6000600960009054906101000a900473ffffffffffffffffffffffffffffffffffffffff1673ffffffffffffffffffffffffffffffffffffffff16346005546006546040516024016107c4929190611112565b6040516020818303038152906040527f0876290a000000000000000000000000000000000000000000000000000000007bffffffffffffffffffffffffffffffffffffffffffffffffffffffff19166020820180517bffffffffffffffffffffffffffffffffffffffffffffffffffffffff838183161783525050505060405161084e91906111ac565b60006040518083038185875af1925050503d806000811461088b576040519150601f19603f3d011682016040523d82523d6000602084013e610890565b606091505b50509050806108d4576040517f08c379a00000000000000000000000000000000000000000000000000000000081526004016108cb9061120f565b60405180910390fd5b6001600760016101000a81548160ff02191690831515021790555050565b600460009054906101000a900460ff1681565b600760019054906101000a900460ff1681565b80600760006101000a81548160ff0219169083151502179055507f9161e5ec70df4a8ef9f6085e3435135f3da64c7ec32c271912e1ca8d4afbd7c3600460009054906101000a900460ff1660055460065460405161097893929190611322565b60405180910390a150565b60055481565b60065481565b600760009054906101000a900460ff1681565b6109aa610ae9565b6109b2610ae9565b60008054906101000a900473ffffffffffffffffffffffffffffffffffffffff16816000019073ffffffffffffffffffffffffffffffffffffffff16908173ffffffffffffffffffffffffffffffffffffffff1681525050600254816020018181525050600354816040018181525050600460009054906101000a900460ff16816060019060ff16908160ff16815250506005548160800181815250506006548160a0018181525050600760009054906101000a900460ff168160c0019015159081151581525050600760019054906101000a900460ff168160e0019015159081151581525050600854816101000181815250508091505090565b60035481565b60025481565b60085481565b60008054906101000a900473ffffffffffffffffffffffffffffffffffffffff1681565b60015481565b604051806101200160405280600073ffffffffffffffffffffffffffffffffffffffff1681526020016000815260200160008152602001600060ff1681526020016000815260200160008152602001600015158152602001600015158152602001600081525090565b600082825260208201905092915050565b7f696e76616c6964207061796d656e740000000000000000000000000000000000600082015250565b6000610b99600f83610b52565b9150610ba482610b63565b602082019050919050565b60006020820190508181036000830152610bc881610b8c565b9050919050565b7f796f757220726573706f6e736520686173206e6f74206265656e20616363657060008201527f7465642062792073656c6c657220796574000000000000000000000000000000602082015250565b6000610c2b603183610b52565b9150610c3682610bcf565b604082019050919050565b60006020820190508181036000830152610c5a81610c1e565b9050919050565b6000819050919050565b7f4e487b7100000000000000000000000000000000000000000000000000000000600052601160045260246000fd5b6000610ca582610c61565b9150610cb083610c61565b9250828202610cbe81610c61565b91508282048414831517610cd557610cd4610c6b565b5b5092915050565b7f4e6f742066756c6c792070616964207965740000000000000000000000000000600082015250565b6000610d12601283610b52565b9150610d1d82610cdc565b602082019050919050565b60006020820190508181036000830152610d4181610d05565b9050919050565b7f4f7264657220697320616c726561647920706169642100000000000000000000600082015250565b6000610d7e601683610b52565b9150610d8982610d48565b602082019050919050565b60006020820190508181036000830152610dad81610d71565b9050919050565b7f696e76616c696420726573706f6e7365206d6573736167652074797065000000600082015250565b6000610dea601d83610b52565b9150610df582610db4565b602082019050919050565b60006020820190508181036000830152610e1981610ddd565b9050919050565b600060ff82169050919050565b610e3681610e20565b82525050565b6000602082019050610e516000830184610e2d565b92915050565b60008115159050919050565b610e6c81610e57565b82525050565b6000602082019050610e876000830184610e63565b92915050565b600080fd5b610e9b81610e57565b8114610ea657600080fd5b50565b600081359050610eb881610e92565b92915050565b600060208284031215610ed457610ed3610e8d565b5b6000610ee284828501610ea9565b91505092915050565b610ef481610c61565b82525050565b6000602082019050610f0f6000830184610eeb565b92915050565b600073ffffffffffffffffffffffffffffffffffffffff82169050919050565b6000610f4082610f15565b9050919050565b610f5081610f35565b82525050565b610f5f81610c61565b82525050565b610f6e81610e20565b82525050565b610f7d81610e57565b82525050565b61012082016000820151610f9a6000850182610f47565b506020820151610fad6020850182610f56565b506040820151610fc06040850182610f56565b506060820151610fd36060850182610f65565b506080820151610fe66080850182610f56565b5060a0820151610ff960a0850182610f56565b5060c082015161100c60c0850182610f74565b5060e082015161101f60e0850182610f74565b50610100820151611034610100850182610f56565b50505050565b6000610120820190506110506000830184610f83565b92915050565b61105f81610f35565b82525050565b600060208201905061107a6000830184611056565b92915050565b7f596f752063616e6e6f74206d616b652061207061796d656e7420746f20796f7560008201527f72206f776e2073656c6c696e6720726573706f6e7365206d6573736167650000602082015250565b60006110dc603e83610b52565b91506110e782611080565b604082019050919050565b6000602082019050818103600083015261110b816110cf565b9050919050565b60006040820190506111276000830185610eeb565b6111346020830184610eeb565b9392505050565b600081519050919050565b600081905092915050565b60005b8381101561116f578082015181840152602081019050611154565b60008484015250505050565b60006111868261113b565b6111908185611146565b93506111a0818560208601611151565b80840191505092915050565b60006111b8828461117b565b915081905092915050565b7f7061796d656e74206661696c6564000000000000000000000000000000000000600082015250565b60006111f9600e83610b52565b9150611204826111c3565b602082019050919050565b60006020820190508181036000830152611228816111ec565b9050919050565b7f4f6e6c7920746865206d6573736167652073656e6465722077686f2073656e7460008201527f207468697320726573706f6e736520746f206163717569726520656c6563747260208201527f696369747920756e6974732063616e206d616b652061207061796d656e740000604082015250565b60006112b1605e83610b52565b91506112bc8261122f565b606082019050919050565b600060208201905081810360008301526112e0816112a4565b9050919050565b6000819050919050565b600061130c61130761130284610e20565b6112e7565b610c61565b9050919050565b61131c816112f1565b82525050565b60006060820190506113376000830186611313565b6113446020830185610eeb565b6113516040830184610eeb565b94935050505056fea26469706673582212200f309587aad133a1358204046cb852200eb39670dac388f1c7c6edf67659323564736f6c63430008110033a2646970667358221220cf2ecdea23c7789520201ff1f79829ec99abd203c54f1cc7a1e8bdcb16492b3064736f6c63430008110033",
  "immutableReferences": {},
  "source": "//SPDX-License-Identifier: MIT\n\npragma solidity ^0.8.0;\n\nimport \"./BeanStructs.sol\";\nimport \"./UserService.sol\";\nimport \"./StatisticsService.sol\";\nimport \"./Division.sol\";\n\ncontract SellerService is BeanStructs {\n\n    // ------------------------- seller side storage variables -------------------------\n    \n    // map each purchase post to an index\n    mapping(uint => SellingPost) sellingPostMap;\n    mapping(uint => bool) sellingPostStatus;       // label purchase post status\n    uint[]  sellingPostKeys;                        // array of keys of purchase posts \n    uint public sellingPostCounter;                  // count total number of purchase posts, start from 0\n    \n    string public recentAveragePriceforSell;               // string to store the float number\n    uint[] public averagePriceforSell = new uint[](100); //array to store the average transaction price, set length as 100\n    uint public averagePriceforSellKey;              // key of averagePrice array\n    bool private reachSizeLimit;                    // identify if the size limit of averagePrice array is reached\n    \n    // reference to statistics service\n    StatisticsService statisticsService;\n    UserService userService;\n    Division divisionUtils;\n    \n     constructor(StatisticsService _statisticsService, UserService _userService, Division _divisionUtils) {\n        statisticsService = _statisticsService;\n        userService = _userService;\n        divisionUtils = _divisionUtils;\n    }\n\n    // events\n    event SellingPostCreated(address creator, uint postKey, uint _priceToBuy, uint _amountToBuy);\n    event SellingPostResponseMessageCreated(address creator, address responseMessageAddress);\n    event SellingPostPaymentSuccess(uint paymentAmount, uint sellingPostKey, address responseMessageAddress);\n    \n\n    // ------------------------- seller side interaction -------------------------\n\n    // seller -  create a new selling post\n    function createSellingPost (uint _priceToSell, uint _amountToSell, address _msgSender) public {\n            \n            // 1. data validation\n            require(_priceToSell > 0, \"purchase price must be greater than 0\");\n            require(_amountToSell > 0, \"amount to buy must be greater than 0\");\n            \n            // 2. save information to the selling post map\n            sellingPostMap[sellingPostCounter].priceToSell = _priceToSell;\n            sellingPostMap[sellingPostCounter].initialAmountToSell = _amountToSell; \n            sellingPostMap[sellingPostCounter].amountToSell = _amountToSell;          \n            sellingPostMap[sellingPostCounter].seller = _msgSender;\n            sellingPostMap[sellingPostCounter].enabled = true;\n            sellingPostMap[sellingPostCounter].createdAt = block.timestamp;\n\n            // 3. set post status to true \n            sellingPostStatus[sellingPostCounter] = true;\n            \n            // 4. save post key to user struct\n            // userMap[msg.sender].sellingPostsKeys.push(sellingPostCounter);\n            userService.saveSellingPostKey(_msgSender, sellingPostCounter);\n           \n            // 5. emit event\n            emit SellingPostCreated( _msgSender, sellingPostCounter, _priceToSell, _amountToSell);\n\n            // 6. increment selling post counter by 1\n            sellingPostCounter++;\n    }\n\n    // buyer - create selling post response messages\n    // buyer creates response message and wait for confirmation from seller. buyer then pays for it once response is accepted\n    function createResponseMessageToSellingPost(uint _amountToBuy, uint _quotationInWei, uint _sellingPostKey, address _msgSender) public {\n        \n        // 1. data validation\n        require(_amountToBuy > 0, \"amount must be greater than 0\");\n        require(_quotationInWei > 0, \"quotation must be greater than 0\");\n        require(_sellingPostKey >= 0, \"post key starts from 0\");\n        require(_msgSender != sellingPostMap[_sellingPostKey].seller, \"You cannot reply to your own selling post\");\n\n        // 2. create a new response message\n        uint messageIndex = sellingPostMap[_sellingPostKey].responseMessages.length;\n        PostResponseMessage message = new PostResponseMessage(address(this), _msgSender, _amountToBuy, _quotationInWei, 1, _sellingPostKey, messageIndex );\n        \n        // 3. add the response message to the corresponding selling post \n        sellingPostMap[_sellingPostKey].responseMessages.push() = message;\n        userService.addResponse(_msgSender, message);\n\n        // 4. emit event\n        emit SellingPostResponseMessageCreated(_msgSender, address(message));\n\n    }\n\n    //  handle selling post payment process\n    function handleSellingPostPayment(uint _sellingPostKey, uint _responseMessageIndex) public payable {\n        \n        // 1.1 data validation & get response message contract reference\n        PostResponseMessage responseMessage = sellingPostMap[_sellingPostKey].responseMessages[_responseMessageIndex];\n        require(address(responseMessage) == msg.sender, \"Only response messages are allowed to trigger payment process\");\n        \n        // 1.2 get current time\n        uint transactionTime = block.timestamp;\n\n        // 2.1 update buyer's account information\n        address buyer = responseMessage.messageSender();\n        // userMap[buyer].availableElecUnits += responseMessage.amount();   \n        userService.setAvailableElecUnits(buyer, userService.getAvailableElecUnits(buyer) + responseMessage.amount() );\n\n        // 2.2.1 update buyer's statistics (statistics service required)\n        statisticsService.updateTotalBuy(buyer, responseMessage.amount());\n        statisticsService.addOneElectricBuyTransaction(buyer, transactionTime, responseMessage.amount());\n        // 2.2.2 update buyer's transaction sequence map (statistics service required)\n        statisticsService.addTransactionToSequenceMap(buyer, 0, transactionTime);\n        \n        \n        // 3.1 update seller's account information\n        address seller = sellingPostMap[_sellingPostKey].seller;\n        // require( userMap[seller].availableElecUnits >= responseMessage.amount(), \"Insufficient electricity units in seller's account\");\n        require( userService.getAvailableElecUnits(seller) >= responseMessage.amount(), \"Insufficient electricity units in seller's account\");\n        // userMap[seller].availableElecUnits -= responseMessage.amount();\n        userService.setAvailableElecUnits(seller, userService.getAvailableElecUnits(seller) - responseMessage.amount() );\n\n        // 3.2.1 update seller's statistics (statistics service required)\n        statisticsService.updateTotalSell(seller, responseMessage.amount());\n        statisticsService.addOneElectricSellTransaction(seller, transactionTime, responseMessage.amount());\n        // 3.2.2 update seller's transaction sequence map to record all transactions regardless of type in sequential order (statistics service required)\n        statisticsService.addTransactionToSequenceMap(seller, 1, transactionTime);\n        \n        \n        // 4. update selling post\n        // 1) decrease selling amount accordingly \n        require(sellingPostMap[_sellingPostKey].amountToSell >= responseMessage.amount(), \"Insufficient selling units in selling post\");\n        sellingPostMap[_sellingPostKey].amountToSell -= responseMessage.amount();\n        // 2) set post to disabled if available selling units in selling post are 0\n        if ( sellingPostMap[_sellingPostKey].amountToSell == 0) {\n            sellingPostMap[_sellingPostKey].enabled = false;\n        }\n\n        // 5. record unit transaction price\n        if (averagePriceforSellKey == 100){\n            reachSizeLimit = true;\n            averagePriceforSellKey = 0;\n        }\n        averagePriceforSell[averagePriceforSellKey++] = responseMessage.quotationInWei();\n        \n        // 6. transfer ether to seller's account\n        payable(seller).transfer(msg.value);\n\n        emit SellingPostPaymentSuccess(msg.value, _sellingPostKey, address(responseMessage));\n        \n    }\n\n    // update the unit transaction price into array\n    function updateRecentAveragePriceforSell() public {\n        uint recentTotalPriceforSell = 0;\n        for (uint i = 0; i < averagePriceforSell.length; i++) {\n            recentTotalPriceforSell += averagePriceforSell[i];\n        }\n        if (reachSizeLimit) {\n            (, , recentAveragePriceforSell) = divisionUtils.division(3, recentTotalPriceforSell, 100);\n        } else {\n            (, , recentAveragePriceforSell) = divisionUtils.division(3, recentTotalPriceforSell, averagePriceforSellKey);\n        }\n    }\n\n    // ------------------------- seller side utils -------------------------\n    \n    // returns all selling posts by user address\n    function returnAllSellingPostsByAddress(address _account) public view returns (SellingPost[] memory) {\n        // uint[] memory keys = userMap[_account].sellingPostsKeys;\n        uint[] memory keys = userService.getSellingPostKeys(_account);\n        SellingPost[] memory sellingPosts = new SellingPost[](keys.length);\n        for (uint i = 0; i < keys.length; i++) {\n            sellingPosts[i]  = sellingPostMap[keys[i]]; \n        }\n        return sellingPosts;\n    }\n\n    // return one selling post by post key\n    function getSellingPostByKey(uint _postKey) public view returns(SellingPost memory) {\n        return sellingPostMap[_postKey];\n    }\n\n    // return all response messages of one post by key\n    function returnSellingPostResponseMessagesByKey(uint _postKey) public view returns(PostResponseMessage[] memory){\n        require(_postKey >= 0, \"post key starts from 0\");\n        return sellingPostMap[_postKey].responseMessages;\n    }\n\n    //new\n    // return total number of sell posts in the system\n    function returnSellPostMapSize() public view returns(uint) {\n        return sellingPostCounter;\n    }\n    \n    // return the recent average price for sell transaction\n    function returnRecentAveragePriceforSell() public view returns (string memory) {\n        return recentAveragePriceforSell;\n    }\n\n}\n",
  "sourcePath": "/Users/richard/Doc//sydney_study/22s2/5703/vue-web3-5703/truffle/contracts/SellerService.sol",
  "compiler": {
    "name": "solc",
    "version": "0.8.17+commit.8df45f5f.Emscripten.clang"
  },
  "schemaVersion": "3.4.9",
  "updatedAt": "2022-11-11T11:27:33.505Z",
  "devdoc": {
    "kind": "dev",
    "methods": {},
    "version": 1
  },
  "userdoc": {
    "kind": "user",
    "methods": {},
    "version": 1
  }
}