{
  "contractName": "StatisticsService",
  "abi": [
    {
      "inputs": [],
      "stateMutability": "nonpayable",
      "type": "constructor"
    },
    {
      "inputs": [
        {
          "internalType": "address",
          "name": "",
          "type": "address"
        }
      ],
      "name": "userStatisticsMap",
      "outputs": [
        {
          "internalType": "uint256",
          "name": "totalBuy",
          "type": "uint256"
        },
        {
          "internalType": "uint256",
          "name": "totalSell",
          "type": "uint256"
        },
        {
          "internalType": "uint256",
          "name": "transactionCounter",
          "type": "uint256"
        }
      ],
      "stateMutability": "view",
      "type": "function"
    },
    {
      "inputs": [
        {
          "internalType": "address",
          "name": "_user",
          "type": "address"
        },
        {
          "internalType": "uint256",
          "name": "_addVal",
          "type": "uint256"
        }
      ],
      "name": "updateTotalBuy",
      "outputs": [],
      "stateMutability": "nonpayable",
      "type": "function"
    },
    {
      "inputs": [
        {
          "internalType": "address",
          "name": "_user",
          "type": "address"
        },
        {
          "internalType": "uint256",
          "name": "_addVal",
          "type": "uint256"
        }
      ],
      "name": "updateTotalSell",
      "outputs": [],
      "stateMutability": "nonpayable",
      "type": "function"
    },
    {
      "inputs": [
        {
          "internalType": "address",
          "name": "_user",
          "type": "address"
        },
        {
          "internalType": "uint256",
          "name": "_transactionTime",
          "type": "uint256"
        },
        {
          "internalType": "uint256",
          "name": "_transactionAmount",
          "type": "uint256"
        }
      ],
      "name": "addOneElectricBuyTransaction",
      "outputs": [],
      "stateMutability": "nonpayable",
      "type": "function"
    },
    {
      "inputs": [
        {
          "internalType": "address",
          "name": "_user",
          "type": "address"
        },
        {
          "internalType": "uint256",
          "name": "_transactionTime",
          "type": "uint256"
        },
        {
          "internalType": "uint256",
          "name": "_transactionAmount",
          "type": "uint256"
        }
      ],
      "name": "addOneElectricSellTransaction",
      "outputs": [],
      "stateMutability": "nonpayable",
      "type": "function"
    },
    {
      "inputs": [
        {
          "internalType": "address",
          "name": "_user",
          "type": "address"
        },
        {
          "internalType": "uint256",
          "name": "_transactionType",
          "type": "uint256"
        },
        {
          "internalType": "uint256",
          "name": "_transactionTime",
          "type": "uint256"
        }
      ],
      "name": "addTransactionToSequenceMap",
      "outputs": [],
      "stateMutability": "nonpayable",
      "type": "function"
    },
    {
      "inputs": [
        {
          "internalType": "address",
          "name": "_accountAdress",
          "type": "address"
        }
      ],
      "name": "returnTotalBuyByAddress",
      "outputs": [
        {
          "internalType": "uint256",
          "name": "",
          "type": "uint256"
        }
      ],
      "stateMutability": "view",
      "type": "function"
    },
    {
      "inputs": [
        {
          "internalType": "address",
          "name": "_accountAdress",
          "type": "address"
        }
      ],
      "name": "returnTotalSellByAddress",
      "outputs": [
        {
          "internalType": "uint256",
          "name": "",
          "type": "uint256"
        }
      ],
      "stateMutability": "view",
      "type": "function"
    },
    {
      "inputs": [
        {
          "internalType": "address",
          "name": "_account",
          "type": "address"
        }
      ],
      "name": "returnRecentTransactions",
      "outputs": [
        {
          "components": [
            {
              "internalType": "uint256",
              "name": "createdAt",
              "type": "uint256"
            },
            {
              "internalType": "uint256",
              "name": "transactionType",
              "type": "uint256"
            },
            {
              "internalType": "uint256",
              "name": "transactionValue",
              "type": "uint256"
            }
          ],
          "internalType": "struct BeanStructs.TransactionBean[]",
          "name": "",
          "type": "tuple[]"
        }
      ],
      "stateMutability": "view",
      "type": "function"
    }
  ],
  "bytecode": "0x608060405234801561001057600080fd5b50610e48806100206000396000f3fe608060405234801561001057600080fd5b50600436106100935760003560e01c806377c82cc91161006657806377c82cc91461011c5780638b5ccc6e1461014c578063b5387dc51461017e578063e6b02333146101ae578063e8b8530f146101ca57610093565b80631e7ba9cd146100985780632f0a323e146100b457806333bdb8f9146100d05780633f9b696c14610100575b600080fd5b6100b260048036038101906100ad9190610a69565b6101e6565b005b6100ce60048036038101906100c99190610a69565b6102aa565b005b6100ea60048036038101906100e59190610abc565b61036e565b6040516100f79190610af8565b60405180910390f35b61011a60048036038101906101159190610b13565b6103b9565b005b61013660048036038101906101319190610abc565b610415565b6040516101439190610c53565b60405180910390f35b61016660048036038101906101619190610abc565b61076b565b60405161017593929190610c75565b60405180910390f35b61019860048036038101906101939190610abc565b610795565b6040516101a59190610af8565b60405180910390f35b6101c860048036038101906101c39190610a69565b6107e0565b005b6101e460048036038101906101df9190610b13565b610937565b005b806000808573ffffffffffffffffffffffffffffffffffffffff1673ffffffffffffffffffffffffffffffffffffffff1681526020019081526020016000206005016000848152602001908152602001600020819055506000808473ffffffffffffffffffffffffffffffffffffffff1673ffffffffffffffffffffffffffffffffffffffff168152602001908152602001600020600601829080600181540180825580915050600190039060005260206000200160009091909190915055505050565b806000808573ffffffffffffffffffffffffffffffffffffffff1673ffffffffffffffffffffffffffffffffffffffff1681526020019081526020016000206003016000848152602001908152602001600020819055506000808473ffffffffffffffffffffffffffffffffffffffff1673ffffffffffffffffffffffffffffffffffffffff168152602001908152602001600020600401829080600181540180825580915050600190039060005260206000200160009091909190915055505050565b60008060008373ffffffffffffffffffffffffffffffffffffffff1673ffffffffffffffffffffffffffffffffffffffff168152602001908152602001600020600101549050919050565b806000808473ffffffffffffffffffffffffffffffffffffffff1673ffffffffffffffffffffffffffffffffffffffff168152602001908152602001600020600001600082825461040a9190610cdb565b925050819055505050565b606060008060008473ffffffffffffffffffffffffffffffffffffffff1673ffffffffffffffffffffffffffffffffffffffff168152602001908152602001600020600201549050600080821115610477576001826104749190610d0f565b90505b600061048483600a610993565b67ffffffffffffffff81111561049d5761049c610d43565b5b6040519080825280602002602001820160405280156104d657816020015b6104c36109af565b8152602001906001900390816104bb5790505b50905060005b6104e784600a610993565b81101561075f576000808773ffffffffffffffffffffffffffffffffffffffff1673ffffffffffffffffffffffffffffffffffffffff16815260200190815260200160002060070160008481526020019081526020016000206001015482828151811061055757610556610d72565b5b602002602001015160000181815250506000808773ffffffffffffffffffffffffffffffffffffffff1673ffffffffffffffffffffffffffffffffffffffff1681526020019081526020016000206007016000848152602001908152602001600020600001548282815181106105d0576105cf610d72565b5b6020026020010151602001818152505060008282815181106105f5576105f4610d72565b5b6020026020010151602001510361069f576000808773ffffffffffffffffffffffffffffffffffffffff1673ffffffffffffffffffffffffffffffffffffffff168152602001908152602001600020600301600083838151811061065c5761065b610d72565b5b60200260200101516000015181526020019081526020016000205482828151811061068a57610689610d72565b5b60200260200101516040018181525050610734565b6000808773ffffffffffffffffffffffffffffffffffffffff1673ffffffffffffffffffffffffffffffffffffffff16815260200190815260200160002060050160008383815181106106f5576106f4610d72565b5b60200260200101516000015181526020019081526020016000205482828151811061072357610722610d72565b5b602002602001015160400181815250505b600083111561074c57828061074890610da1565b9350505b808061075790610dca565b9150506104dc565b50809350505050919050565b60006020528060005260406000206000915090508060000154908060010154908060020154905083565b60008060008373ffffffffffffffffffffffffffffffffffffffff1673ffffffffffffffffffffffffffffffffffffffff168152602001908152602001600020600001549050919050565b60008060008573ffffffffffffffffffffffffffffffffffffffff1673ffffffffffffffffffffffffffffffffffffffff168152602001908152602001600020600201549050826000808673ffffffffffffffffffffffffffffffffffffffff1673ffffffffffffffffffffffffffffffffffffffff168152602001908152602001600020600701600083815260200190815260200160002060000181905550816000808673ffffffffffffffffffffffffffffffffffffffff1673ffffffffffffffffffffffffffffffffffffffff1681526020019081526020016000206007016000838152602001908152602001600020600101819055506000808573ffffffffffffffffffffffffffffffffffffffff1673ffffffffffffffffffffffffffffffffffffffff168152602001908152602001600020600201600081548092919061092c90610dca565b919050555050505050565b806000808473ffffffffffffffffffffffffffffffffffffffff1673ffffffffffffffffffffffffffffffffffffffff16815260200190815260200160002060010160008282546109889190610cdb565b925050819055505050565b6000818310156109a5578290506109a9565b8190505b92915050565b60405180606001604052806000815260200160008152602001600081525090565b600080fd5b600073ffffffffffffffffffffffffffffffffffffffff82169050919050565b6000610a00826109d5565b9050919050565b610a10816109f5565b8114610a1b57600080fd5b50565b600081359050610a2d81610a07565b92915050565b6000819050919050565b610a4681610a33565b8114610a5157600080fd5b50565b600081359050610a6381610a3d565b92915050565b600080600060608486031215610a8257610a816109d0565b5b6000610a9086828701610a1e565b9350506020610aa186828701610a54565b9250506040610ab286828701610a54565b9150509250925092565b600060208284031215610ad257610ad16109d0565b5b6000610ae084828501610a1e565b91505092915050565b610af281610a33565b82525050565b6000602082019050610b0d6000830184610ae9565b92915050565b60008060408385031215610b2a57610b296109d0565b5b6000610b3885828601610a1e565b9250506020610b4985828601610a54565b9150509250929050565b600081519050919050565b600082825260208201905092915050565b6000819050602082019050919050565b610b8881610a33565b82525050565b606082016000820151610ba46000850182610b7f565b506020820151610bb76020850182610b7f565b506040820151610bca6040850182610b7f565b50505050565b6000610bdc8383610b8e565b60608301905092915050565b6000602082019050919050565b6000610c0082610b53565b610c0a8185610b5e565b9350610c1583610b6f565b8060005b83811015610c46578151610c2d8882610bd0565b9750610c3883610be8565b925050600181019050610c19565b5085935050505092915050565b60006020820190508181036000830152610c6d8184610bf5565b905092915050565b6000606082019050610c8a6000830186610ae9565b610c976020830185610ae9565b610ca46040830184610ae9565b949350505050565b7f4e487b7100000000000000000000000000000000000000000000000000000000600052601160045260246000fd5b6000610ce682610a33565b9150610cf183610a33565b9250828201905080821115610d0957610d08610cac565b5b92915050565b6000610d1a82610a33565b9150610d2583610a33565b9250828203905081811115610d3d57610d3c610cac565b5b92915050565b7f4e487b7100000000000000000000000000000000000000000000000000000000600052604160045260246000fd5b7f4e487b7100000000000000000000000000000000000000000000000000000000600052603260045260246000fd5b6000610dac82610a33565b915060008203610dbf57610dbe610cac565b5b600182039050919050565b6000610dd582610a33565b91507fffffffffffffffffffffffffffffffffffffffffffffffffffffffffffffffff8203610e0757610e06610cac565b5b60018201905091905056fea264697066735822122027f9d130447467db2ab3e655d2324b1ab565adfac7fc001f34f4d9bd7026d16f64736f6c63430008110033",
  "immutableReferences": {},
  "source": "//SPDX-License-Identifier: MIT\n\npragma solidity ^0.8.0;\n\n// import \"https://github.com/bokkypoobah/BokkyPooBahsDateTimeLibrary/blob/master/contracts/BokkyPooBahsDateTimeLibrary.sol\";\nimport \"./BeanStructs.sol\";\n\ncontract StatisticsService is BeanStructs{\n\n    mapping(address => Statistics) public userStatisticsMap;\n\n    struct Statistics {\n     \n        uint totalBuy;           // storing total buy amount\n        uint totalSell;          // storing total sell amount\n        uint transactionCounter; // storing total transaction number\n        \n        // transaction creation time => transaction ETH value\n        mapping(uint => uint)  electricityBuyTransactions; \n        uint[] electricityBuyKeys;\n\n        // transaction creation time => transaction ETH value\n        mapping(uint => uint)  electricitySellTransactions; \n        uint[] electricitySellKeys;\n\n        // storing all transactions in sequence\n        mapping(uint => TxSequenceUnit)  transactionSequenceMap; \n\n    }\n\n    struct TxSequenceUnit {\n        uint transactionType; // buyTransaction - 0; sellTransaction - 1\n        uint transactionTime;  // key to transaction mappings\n    }\n\n\n    // ------------------------- constructor -------------------------\n    constructor() {\n        //TO-DO: insert dummy data for test purpose\n    }\n    \n\n    // ------------------------- utils to update statistics -------------------------\n\n    function updateTotalBuy(address _user, uint _addVal) public {\n        // require(msg.sender == mainSystem, \"access denied\");\n        userStatisticsMap[_user].totalBuy += _addVal;\n    }\n\n    function updateTotalSell(address _user, uint _addVal) public {\n        // require(msg.sender == mainSystem, \"access denied\");\n        userStatisticsMap[_user].totalSell += _addVal;\n    }\n\n    function addOneElectricBuyTransaction(address _user, uint _transactionTime, uint _transactionAmount) public {\n        // require(msg.sender == mainSystem, \"access denied\");\n        userStatisticsMap[_user].electricityBuyTransactions[_transactionTime] = _transactionAmount;\n        userStatisticsMap[_user].electricityBuyKeys.push(_transactionTime);\n    }\n\n    function addOneElectricSellTransaction(address _user, uint _transactionTime, uint _transactionAmount) public {\n        // require(msg.sender == mainSystem, \"access denied\");\n        userStatisticsMap[_user].electricitySellTransactions[_transactionTime] = _transactionAmount;\n        userStatisticsMap[_user].electricitySellKeys.push(_transactionTime);\n    }\n\n    function addTransactionToSequenceMap(address _user, uint _transactionType, uint _transactionTime) public {\n        uint count = userStatisticsMap[_user].transactionCounter;\n        userStatisticsMap[_user].transactionSequenceMap[count].transactionType = _transactionType;\n        userStatisticsMap[_user].transactionSequenceMap[count].transactionTime = _transactionTime;\n        userStatisticsMap[_user].transactionCounter++;\n    }\n\n    // ------------------------- utils to return statistics -------------------------\n\n\n    function returnTotalBuyByAddress(address _accountAdress) public view returns (uint) {\n        return userStatisticsMap[_accountAdress].totalBuy;\n    }\n\n    function returnTotalSellByAddress(address _accountAdress) public view returns (uint) {\n        return userStatisticsMap[_accountAdress].totalSell;\n    }\n\n    // return 10 recent transactions (return all if transactions if total amount is less than 10)\n    function returnRecentTransactions(address _account) public view returns (TransactionBean[] memory)  {\n        uint _size = userStatisticsMap[_account].transactionCounter;\n        uint j = 0;\n        if (_size > 0) {\n            j = _size - 1;\n        }\n        TransactionBean[] memory transactionBeans = new TransactionBean[](min(_size, 10));\n        // transactionBeans[0].createdAt = 1;\n        // transactionBeans[0].transactionType = 1;\n        // transactionBeans[0].transactionValue = 1;\n        for (uint i = 0; i < min(_size, 10); i++) {\n            transactionBeans[i].createdAt = userStatisticsMap[_account].transactionSequenceMap[j].transactionTime;\n            transactionBeans[i].transactionType = userStatisticsMap[_account].transactionSequenceMap[j].transactionType;\n            if (transactionBeans[i].transactionType == 0) {\n                transactionBeans[i].transactionValue =  userStatisticsMap[_account].electricityBuyTransactions[transactionBeans[i].createdAt];\n            } else {\n                transactionBeans[i].transactionValue =  userStatisticsMap[_account].electricitySellTransactions[transactionBeans[i].createdAt];\n            }\n            if (j > 0) {\n                j--;\n            }\n        }\n\n        return transactionBeans;\n    }\n\n    function min(uint a, uint b) internal pure returns(uint) {\n        if (a < b) {\n            return a;\n        }\n        return b;\n    }\n\n    // TO-DO\n    // function returnWeeklyBuy() public view returns (WeeklyBuyBean[] memory) {\n\n    // }\n\n    // TO-DO\n    // function returnWeeklySell() public view returns () {\n\n    // }\n\n    \n}",
  "sourcePath": "/Users/richard/Doc//sydney_study/22s2/5703/vue-web3-5703/truffle/contracts/StatisticsService.sol",
  "compiler": {
    "name": "solc",
    "version": "0.8.17+commit.8df45f5f.Emscripten.clang"
  },
  "schemaVersion": "3.4.9",
  "updatedAt": "2022-09-25T05:43:05.824Z",
  "devdoc": {
    "kind": "dev",
    "methods": {},
    "version": 1
  },
  "userdoc": {
    "kind": "user",
    "methods": {},
    "version": 1
  }
}