{
  "contractName": "StatisticsService",
  "abi": [
    {
      "inputs": [],
      "stateMutability": "nonpayable",
      "type": "constructor"
    },
    {
      "inputs": [
        {
          "internalType": "address",
          "name": "",
          "type": "address"
        }
      ],
      "name": "userStatisticsMap",
      "outputs": [
        {
          "internalType": "uint256",
          "name": "totalBuy",
          "type": "uint256"
        },
        {
          "internalType": "uint256",
          "name": "totalSell",
          "type": "uint256"
        },
        {
          "internalType": "uint256",
          "name": "transactionCounter",
          "type": "uint256"
        }
      ],
      "stateMutability": "view",
      "type": "function"
    },
    {
      "inputs": [
        {
          "internalType": "address",
          "name": "_user",
          "type": "address"
        },
        {
          "internalType": "uint256",
          "name": "_addVal",
          "type": "uint256"
        }
      ],
      "name": "updateTotalBuy",
      "outputs": [],
      "stateMutability": "nonpayable",
      "type": "function"
    },
    {
      "inputs": [
        {
          "internalType": "address",
          "name": "_user",
          "type": "address"
        },
        {
          "internalType": "uint256",
          "name": "_addVal",
          "type": "uint256"
        }
      ],
      "name": "updateTotalSell",
      "outputs": [],
      "stateMutability": "nonpayable",
      "type": "function"
    },
    {
      "inputs": [
        {
          "internalType": "address",
          "name": "_user",
          "type": "address"
        },
        {
          "internalType": "uint256",
          "name": "_transactionTime",
          "type": "uint256"
        },
        {
          "internalType": "uint256",
          "name": "_transactionAmount",
          "type": "uint256"
        }
      ],
      "name": "addOneElectricBuyTransaction",
      "outputs": [],
      "stateMutability": "nonpayable",
      "type": "function"
    },
    {
      "inputs": [
        {
          "internalType": "address",
          "name": "_user",
          "type": "address"
        },
        {
          "internalType": "uint256",
          "name": "_transactionTime",
          "type": "uint256"
        },
        {
          "internalType": "uint256",
          "name": "_transactionAmount",
          "type": "uint256"
        }
      ],
      "name": "addOneElectricSellTransaction",
      "outputs": [],
      "stateMutability": "nonpayable",
      "type": "function"
    },
    {
      "inputs": [
        {
          "internalType": "address",
          "name": "_user",
          "type": "address"
        },
        {
          "internalType": "uint256",
          "name": "_transactionType",
          "type": "uint256"
        },
        {
          "internalType": "uint256",
          "name": "_transactionTime",
          "type": "uint256"
        }
      ],
      "name": "addTransactionToSequenceMap",
      "outputs": [],
      "stateMutability": "nonpayable",
      "type": "function"
    },
    {
      "inputs": [
        {
          "internalType": "address",
          "name": "_accountAdress",
          "type": "address"
        }
      ],
      "name": "returnTotalBuyByAddress",
      "outputs": [
        {
          "internalType": "uint256",
          "name": "",
          "type": "uint256"
        }
      ],
      "stateMutability": "view",
      "type": "function"
    },
    {
      "inputs": [
        {
          "internalType": "address",
          "name": "_accountAdress",
          "type": "address"
        }
      ],
      "name": "returnTotalSellByAddress",
      "outputs": [
        {
          "internalType": "uint256",
          "name": "",
          "type": "uint256"
        }
      ],
      "stateMutability": "view",
      "type": "function"
    },
    {
      "inputs": [
        {
          "internalType": "address",
          "name": "_account",
          "type": "address"
        }
      ],
      "name": "returnRecentTransactions",
      "outputs": [
        {
          "components": [
            {
              "internalType": "uint256",
              "name": "createdAt",
              "type": "uint256"
            },
            {
              "internalType": "uint256",
              "name": "transactionType",
              "type": "uint256"
            },
            {
              "internalType": "uint256",
              "name": "transactionValue",
              "type": "uint256"
            }
          ],
          "internalType": "struct BeanStructs.TransactionBean[]",
          "name": "",
          "type": "tuple[]"
        }
      ],
      "stateMutability": "view",
      "type": "function"
    },
    {
      "inputs": [
        {
          "internalType": "address",
          "name": "_user",
          "type": "address"
        },
        {
          "internalType": "uint256",
          "name": "_prevWeekNum",
          "type": "uint256"
        },
        {
          "internalType": "uint8",
          "name": "_txType",
          "type": "uint8"
        }
      ],
      "name": "returnWeeklyStatistics",
      "outputs": [
        {
          "internalType": "uint256[]",
          "name": "",
          "type": "uint256[]"
        }
      ],
      "stateMutability": "view",
      "type": "function"
    },
    {
      "inputs": [
        {
          "internalType": "address",
          "name": "_user",
          "type": "address"
        },
        {
          "internalType": "uint256",
          "name": "_prevWeekNum",
          "type": "uint256"
        },
        {
          "internalType": "uint8",
          "name": "_txType",
          "type": "uint8"
        }
      ],
      "name": "returnWeeklyTotalBuyOrSell",
      "outputs": [
        {
          "internalType": "uint256",
          "name": "",
          "type": "uint256"
        }
      ],
      "stateMutability": "view",
      "type": "function"
    }
  ],
  "bytecode": "0x608060405234801561001057600080fd5b50600073ab8483f64d9c6d1ecf9b849ae677dd3315835cb29050600063631e76809050600063631e768a9050600063631fc800905060006363211980905060006363226b00905060006363226b0a905060006363226b1490506000636323bc80905060006363250e00905060006363265f80905060006363265f8a905060006363265f94905060056000808f73ffffffffffffffffffffffffffffffffffffffff1673ffffffffffffffffffffffffffffffffffffffff16815260200190815260200160002060030160008e81526020019081526020016000208190555060056000808f73ffffffffffffffffffffffffffffffffffffffff1673ffffffffffffffffffffffffffffffffffffffff16815260200190815260200160002060030160008d81526020019081526020016000208190555060146000808f73ffffffffffffffffffffffffffffffffffffffff1673ffffffffffffffffffffffffffffffffffffffff16815260200190815260200160002060030160008c815260200190815260200160002081905550601e6000808f73ffffffffffffffffffffffffffffffffffffffff1673ffffffffffffffffffffffffffffffffffffffff16815260200190815260200160002060030160008b81526020019081526020016000208190555060146000808f73ffffffffffffffffffffffffffffffffffffffff1673ffffffffffffffffffffffffffffffffffffffff16815260200190815260200160002060030160008a81526020019081526020016000208190555060286000808f73ffffffffffffffffffffffffffffffffffffffff1673ffffffffffffffffffffffffffffffffffffffff168152602001908152602001600020600301600089815260200190815260200160002081905550600a6000808f73ffffffffffffffffffffffffffffffffffffffff1673ffffffffffffffffffffffffffffffffffffffff16815260200190815260200160002060030160008881526020019081526020016000208190555060286000808f73ffffffffffffffffffffffffffffffffffffffff1673ffffffffffffffffffffffffffffffffffffffff16815260200190815260200160002060030160008781526020019081526020016000208190555060326000808f73ffffffffffffffffffffffffffffffffffffffff1673ffffffffffffffffffffffffffffffffffffffff16815260200190815260200160002060030160008681526020019081526020016000208190555060146000808f73ffffffffffffffffffffffffffffffffffffffff1673ffffffffffffffffffffffffffffffffffffffff16815260200190815260200160002060030160008581526020019081526020016000208190555060146000808f73ffffffffffffffffffffffffffffffffffffffff1673ffffffffffffffffffffffffffffffffffffffff16815260200190815260200160002060030160008481526020019081526020016000208190555060146000808f73ffffffffffffffffffffffffffffffffffffffff1673ffffffffffffffffffffffffffffffffffffffff1681526020019081526020016000206003016000838152602001908152602001600020819055506000808e73ffffffffffffffffffffffffffffffffffffffff1673ffffffffffffffffffffffffffffffffffffffff1681526020019081526020016000206004018c90806001815401808255809150506001900390600052602060002001600090919091909150556000808e73ffffffffffffffffffffffffffffffffffffffff1673ffffffffffffffffffffffffffffffffffffffff1681526020019081526020016000206004018b90806001815401808255809150506001900390600052602060002001600090919091909150556000808e73ffffffffffffffffffffffffffffffffffffffff1673ffffffffffffffffffffffffffffffffffffffff1681526020019081526020016000206004018a90806001815401808255809150506001900390600052602060002001600090919091909150556000808e73ffffffffffffffffffffffffffffffffffffffff1673ffffffffffffffffffffffffffffffffffffffff1681526020019081526020016000206004018990806001815401808255809150506001900390600052602060002001600090919091909150556000808e73ffffffffffffffffffffffffffffffffffffffff1673ffffffffffffffffffffffffffffffffffffffff1681526020019081526020016000206004018890806001815401808255809150506001900390600052602060002001600090919091909150556000808e73ffffffffffffffffffffffffffffffffffffffff1673ffffffffffffffffffffffffffffffffffffffff1681526020019081526020016000206004018790806001815401808255809150506001900390600052602060002001600090919091909150556000808e73ffffffffffffffffffffffffffffffffffffffff1673ffffffffffffffffffffffffffffffffffffffff1681526020019081526020016000206004018690806001815401808255809150506001900390600052602060002001600090919091909150556000808e73ffffffffffffffffffffffffffffffffffffffff1673ffffffffffffffffffffffffffffffffffffffff1681526020019081526020016000206004018590806001815401808255809150506001900390600052602060002001600090919091909150556000808e73ffffffffffffffffffffffffffffffffffffffff1673ffffffffffffffffffffffffffffffffffffffff1681526020019081526020016000206004018490806001815401808255809150506001900390600052602060002001600090919091909150556000808e73ffffffffffffffffffffffffffffffffffffffff1673ffffffffffffffffffffffffffffffffffffffff1681526020019081526020016000206004018390806001815401808255809150506001900390600052602060002001600090919091909150556000808e73ffffffffffffffffffffffffffffffffffffffff1673ffffffffffffffffffffffffffffffffffffffff1681526020019081526020016000206004018290806001815401808255809150506001900390600052602060002001600090919091909150556000808e73ffffffffffffffffffffffffffffffffffffffff1673ffffffffffffffffffffffffffffffffffffffff16815260200190815260200160002060040181908060018154018082558091505060019003906000526020600020016000909190919091505550505050505050505050505050611b94806109b26000396000f3fe608060405234801561001057600080fd5b50600436106100a95760003560e01c806377c82cc91161007157806377c82cc9146101625780638b5ccc6e14610192578063b5387dc5146101c4578063e6b02333146101f4578063e8b8530f14610210578063fc3698181461022c576100a9565b80631363b936146100ae5780631e7ba9cd146100de5780632f0a323e146100fa57806333bdb8f9146101165780633f9b696c14610146575b600080fd5b6100c860048036038101906100c39190611362565b61025c565b6040516100d591906113c4565b60405180910390f35b6100f860048036038101906100f391906113df565b6102c1565b005b610114600480360381019061010f91906113df565b610385565b005b610130600480360381019061012b9190611432565b610449565b60405161013d91906113c4565b60405180910390f35b610160600480360381019061015b919061145f565b610494565b005b61017c60048036038101906101779190611432565b6104f0565b604051610189919061159f565b60405180910390f35b6101ac60048036038101906101a79190611432565b610846565b6040516101bb939291906115c1565b60405180910390f35b6101de60048036038101906101d99190611432565b610870565b6040516101eb91906113c4565b60405180910390f35b61020e600480360381019061020991906113df565b6108bb565b005b61022a6004803603810190610225919061145f565b610a12565b005b61024660048036038101906102419190611362565b610a6e565b60405161025391906116a7565b60405180910390f35b60008061026a858585610a6e565b90506000805b82518110156102b45782818151811061028c5761028b6116c9565b5b60200260200101518261029f9190611727565b915080806102ac9061175b565b915050610270565b5080925050509392505050565b806000808573ffffffffffffffffffffffffffffffffffffffff1673ffffffffffffffffffffffffffffffffffffffff1681526020019081526020016000206005016000848152602001908152602001600020819055506000808473ffffffffffffffffffffffffffffffffffffffff1673ffffffffffffffffffffffffffffffffffffffff168152602001908152602001600020600601829080600181540180825580915050600190039060005260206000200160009091909190915055505050565b806000808573ffffffffffffffffffffffffffffffffffffffff1673ffffffffffffffffffffffffffffffffffffffff1681526020019081526020016000206003016000848152602001908152602001600020819055506000808473ffffffffffffffffffffffffffffffffffffffff1673ffffffffffffffffffffffffffffffffffffffff168152602001908152602001600020600401829080600181540180825580915050600190039060005260206000200160009091909190915055505050565b60008060008373ffffffffffffffffffffffffffffffffffffffff1673ffffffffffffffffffffffffffffffffffffffff168152602001908152602001600020600101549050919050565b806000808473ffffffffffffffffffffffffffffffffffffffff1673ffffffffffffffffffffffffffffffffffffffff16815260200190815260200160002060000160008282546104e59190611727565b925050819055505050565b606060008060008473ffffffffffffffffffffffffffffffffffffffff1673ffffffffffffffffffffffffffffffffffffffff1681526020019081526020016000206002015490506000808211156105525760018261054f91906117a3565b90505b600061055f83600a610e99565b67ffffffffffffffff811115610578576105776117d7565b5b6040519080825280602002602001820160405280156105b157816020015b61059e611247565b8152602001906001900390816105965790505b50905060005b6105c284600a610e99565b81101561083a576000808773ffffffffffffffffffffffffffffffffffffffff1673ffffffffffffffffffffffffffffffffffffffff168152602001908152602001600020600701600084815260200190815260200160002060010154828281518110610632576106316116c9565b5b602002602001015160000181815250506000808773ffffffffffffffffffffffffffffffffffffffff1673ffffffffffffffffffffffffffffffffffffffff1681526020019081526020016000206007016000848152602001908152602001600020600001548282815181106106ab576106aa6116c9565b5b6020026020010151602001818152505060008282815181106106d0576106cf6116c9565b5b6020026020010151602001510361077a576000808773ffffffffffffffffffffffffffffffffffffffff1673ffffffffffffffffffffffffffffffffffffffff1681526020019081526020016000206003016000838381518110610737576107366116c9565b5b602002602001015160000151815260200190815260200160002054828281518110610765576107646116c9565b5b6020026020010151604001818152505061080f565b6000808773ffffffffffffffffffffffffffffffffffffffff1673ffffffffffffffffffffffffffffffffffffffff16815260200190815260200160002060050160008383815181106107d0576107cf6116c9565b5b6020026020010151600001518152602001908152602001600020548282815181106107fe576107fd6116c9565b5b602002602001015160400181815250505b600083111561082757828061082390611806565b9350505b80806108329061175b565b9150506105b7565b50809350505050919050565b60006020528060005260406000206000915090508060000154908060010154908060020154905083565b60008060008373ffffffffffffffffffffffffffffffffffffffff1673ffffffffffffffffffffffffffffffffffffffff168152602001908152602001600020600001549050919050565b60008060008573ffffffffffffffffffffffffffffffffffffffff1673ffffffffffffffffffffffffffffffffffffffff168152602001908152602001600020600201549050826000808673ffffffffffffffffffffffffffffffffffffffff1673ffffffffffffffffffffffffffffffffffffffff168152602001908152602001600020600701600083815260200190815260200160002060000181905550816000808673ffffffffffffffffffffffffffffffffffffffff1673ffffffffffffffffffffffffffffffffffffffff1681526020019081526020016000206007016000838152602001908152602001600020600101819055506000808573ffffffffffffffffffffffffffffffffffffffff1673ffffffffffffffffffffffffffffffffffffffff1681526020019081526020016000206002016000815480929190610a079061175b565b919050555050505050565b806000808473ffffffffffffffffffffffffffffffffffffffff1673ffffffffffffffffffffffffffffffffffffffff1681526020019081526020016000206001016000828254610a639190611727565b925050819055505050565b60606000831015610ab4576040517f08c379a0000000000000000000000000000000000000000000000000000000008152600401610aab9061188c565b60405180910390fd5b610abc611268565b600767ffffffffffffffff811115610ad757610ad66117d7565b5b604051908082528060200260200182016040528015610b055781602001602082028036833780820191505090505b5081606001819052508362093a80610b1d91906118ac565b8160000181815250506000806000610b3442610eb5565b9250925092506000610b47848484610ee4565b90506000610b5442610f08565b9050600062015180600183610b6991906117a3565b610b7391906118ac565b83610b7e91906117a3565b9050866000015181610b9091906117a3565b87602001818152505062093a808760200151610bac9190611727565b876040018181525050606060008a60ff1603610c59576000808d73ffffffffffffffffffffffffffffffffffffffff1673ffffffffffffffffffffffffffffffffffffffff168152602001908152602001600020600401805480602002602001604051908101604052809291908181526020018280548015610c4d57602002820191906000526020600020905b815481526020019060010190808311610c39575b50505050509050610d3e565b60018a60ff1603610cfb576000808d73ffffffffffffffffffffffffffffffffffffffff1673ffffffffffffffffffffffffffffffffffffffff168152602001908152602001600020600601805480602002602001604051908101604052809291908181526020018280548015610cef57602002820191906000526020600020905b815481526020019060010190808311610cdb575b50505050509050610d3d565b6000610d3c576040517f08c379a0000000000000000000000000000000000000000000000000000000008152600401610d339061193a565b60405180910390fd5b5b5b60005b8151811015610e82578860200151828281518110610d6257610d616116c9565b5b602002602001015110158015610d9657508860400151828281518110610d8b57610d8a6116c9565b5b602002602001015111155b15610e6f576000610dc0838381518110610db357610db26116c9565b5b6020026020010151610f08565b90506000808f73ffffffffffffffffffffffffffffffffffffffff1673ffffffffffffffffffffffffffffffffffffffff1681526020019081526020016000206003016000848481518110610e1857610e176116c9565b5b60200260200101518152602001908152602001600020548a60600151600183610e4191906117a3565b81518110610e5257610e516116c9565b5b60200260200101818151610e669190611727565b91508181525050505b8080610e7a9061175b565b915050610d41565b508760600151985050505050505050509392505050565b600081831015610eab57829050610eaf565b8190505b92915050565b6000806000610ed16201518085610ecc9190611989565b610f49565b8093508194508295505050509193909250565b600062015180610ef58585856110e8565b610eff91906118ac565b90509392505050565b6000806201518083610f1a9190611989565b905060016007600383610f2d9190611727565b610f3791906119ba565b610f419190611727565b915050919050565b600080600080849050600062253d8c62010bd983610f6791906119f5565b610f7191906119f5565b9050600062023ab1826004610f869190611a39565b610f909190611ab1565b9050600460038262023ab1610fa59190611a39565b610faf91906119f5565b610fb99190611ab1565b82610fc49190611b1b565b9150600062164b09600184610fd991906119f5565b610fa0610fe69190611a39565b610ff09190611ab1565b9050601f6004826105b56110049190611a39565b61100e9190611ab1565b846110199190611b1b565b61102391906119f5565b9250600061098f8460506110379190611a39565b6110419190611ab1565b9050600060508261098f6110559190611a39565b61105f9190611ab1565b8561106a9190611b1b565b9050600b826110799190611ab1565b945084600c6110889190611a39565b60028361109591906119f5565b61109f9190611b1b565b915084836031866110b09190611b1b565b60646110bc9190611a39565b6110c691906119f5565b6110d091906119f5565b92508298508197508096505050505050509193909250565b60006107b28410156110f957600080fd5b600084905060008490506000849050600062253d8c60046064600c600e876111219190611b1b565b61112b9190611ab1565b6113248861113991906119f5565b61114391906119f5565b61114d9190611ab1565b60036111599190611a39565b6111639190611ab1565b600c80600c600e886111759190611b1b565b61117f9190611ab1565b6111899190611a39565b6002876111969190611b1b565b6111a09190611b1b565b61016f6111ad9190611a39565b6111b79190611ab1565b6004600c600e886111c89190611b1b565b6111d29190611ab1565b6112c0896111e091906119f5565b6111ea91906119f5565b6105b56111f79190611a39565b6112019190611ab1565b617d4b8661120f9190611b1b565b61121991906119f5565b61122391906119f5565b61122d9190611b1b565b6112379190611b1b565b9050809450505050509392505050565b60405180606001604052806000815260200160008152602001600081525090565b6040518060800160405280600081526020016000815260200160008152602001606081525090565b600080fd5b600073ffffffffffffffffffffffffffffffffffffffff82169050919050565b60006112c082611295565b9050919050565b6112d0816112b5565b81146112db57600080fd5b50565b6000813590506112ed816112c7565b92915050565b6000819050919050565b611306816112f3565b811461131157600080fd5b50565b600081359050611323816112fd565b92915050565b600060ff82169050919050565b61133f81611329565b811461134a57600080fd5b50565b60008135905061135c81611336565b92915050565b60008060006060848603121561137b5761137a611290565b5b6000611389868287016112de565b935050602061139a86828701611314565b92505060406113ab8682870161134d565b9150509250925092565b6113be816112f3565b82525050565b60006020820190506113d960008301846113b5565b92915050565b6000806000606084860312156113f8576113f7611290565b5b6000611406868287016112de565b935050602061141786828701611314565b925050604061142886828701611314565b9150509250925092565b60006020828403121561144857611447611290565b5b6000611456848285016112de565b91505092915050565b6000806040838503121561147657611475611290565b5b6000611484858286016112de565b925050602061149585828601611314565b9150509250929050565b600081519050919050565b600082825260208201905092915050565b6000819050602082019050919050565b6114d4816112f3565b82525050565b6060820160008201516114f060008501826114cb565b50602082015161150360208501826114cb565b50604082015161151660408501826114cb565b50505050565b600061152883836114da565b60608301905092915050565b6000602082019050919050565b600061154c8261149f565b61155681856114aa565b9350611561836114bb565b8060005b83811015611592578151611579888261151c565b975061158483611534565b925050600181019050611565565b5085935050505092915050565b600060208201905081810360008301526115b98184611541565b905092915050565b60006060820190506115d660008301866113b5565b6115e360208301856113b5565b6115f060408301846113b5565b949350505050565b600081519050919050565b600082825260208201905092915050565b6000819050602082019050919050565b600061163083836114cb565b60208301905092915050565b6000602082019050919050565b6000611654826115f8565b61165e8185611603565b935061166983611614565b8060005b8381101561169a5781516116818882611624565b975061168c8361163c565b92505060018101905061166d565b5085935050505092915050565b600060208201905081810360008301526116c18184611649565b905092915050565b7f4e487b7100000000000000000000000000000000000000000000000000000000600052603260045260246000fd5b7f4e487b7100000000000000000000000000000000000000000000000000000000600052601160045260246000fd5b6000611732826112f3565b915061173d836112f3565b9250828201905080821115611755576117546116f8565b5b92915050565b6000611766826112f3565b91507fffffffffffffffffffffffffffffffffffffffffffffffffffffffffffffffff8203611798576117976116f8565b5b600182019050919050565b60006117ae826112f3565b91506117b9836112f3565b92508282039050818111156117d1576117d06116f8565b5b92915050565b7f4e487b7100000000000000000000000000000000000000000000000000000000600052604160045260246000fd5b6000611811826112f3565b915060008203611824576118236116f8565b5b600182039050919050565b600082825260208201905092915050565b7f7765656b206e756d626572207374617274732066726f6d203000000000000000600082015250565b600061187660198361182f565b915061188182611840565b602082019050919050565b600060208201905081810360008301526118a581611869565b9050919050565b60006118b7826112f3565b91506118c2836112f3565b92508282026118d0816112f3565b915082820484148315176118e7576118e66116f8565b5b5092915050565b7f696e76616c6964207472616e73616374696f6e20747970650000000000000000600082015250565b600061192460188361182f565b915061192f826118ee565b602082019050919050565b6000602082019050818103600083015261195381611917565b9050919050565b7f4e487b7100000000000000000000000000000000000000000000000000000000600052601260045260246000fd5b6000611994826112f3565b915061199f836112f3565b9250826119af576119ae61195a565b5b828204905092915050565b60006119c5826112f3565b91506119d0836112f3565b9250826119e0576119df61195a565b5b828206905092915050565b6000819050919050565b6000611a00826119eb565b9150611a0b836119eb565b925082820190508281121560008312168382126000841215161715611a3357611a326116f8565b5b92915050565b6000611a44826119eb565b9150611a4f836119eb565b9250828202611a5d816119eb565b91507f80000000000000000000000000000000000000000000000000000000000000008414600084121615611a9557611a946116f8565b5b8282058414831517611aaa57611aa96116f8565b5b5092915050565b6000611abc826119eb565b9150611ac7836119eb565b925082611ad757611ad661195a565b5b600160000383147f800000000000000000000000000000000000000000000000000000000000000083141615611b1057611b0f6116f8565b5b828205905092915050565b6000611b26826119eb565b9150611b31836119eb565b9250828203905081811260008412168282136000851215161715611b5857611b576116f8565b5b9291505056fea2646970667358221220a4640cfaf043e92e0366e9ba7ef1da18c8bd1679c5465d4e5564a8b3ee31926764736f6c63430008110033",
  "immutableReferences": {},
  "source": "//SPDX-License-Identifier: MIT\r\n\r\npragma solidity ^0.8.0;\r\n\r\n// import \"https://github.com/bokkypoobah/BokkyPooBahsDateTimeLibrary/blob/master/contracts/BokkyPooBahsDateTimeLibrary.sol\";\r\nimport \"./BeanStructs.sol\";\r\nimport \"./BokkyPooBahsDateTimeLibrary.sol\";\r\n\r\ncontract StatisticsService is BeanStructs{\r\n\r\n    mapping(address => Statistics) public userStatisticsMap;\r\n\r\n    struct Statistics {\r\n     \r\n        uint totalBuy;           // storing total buy amount\r\n        uint totalSell;          // storing total sell amount\r\n        uint transactionCounter; // storing total transaction number\r\n        \r\n        // transaction creation time => transaction ETH value\r\n        mapping(uint => uint)  electricityBuyTransactions; \r\n        uint[] electricityBuyKeys; // keep tracks of buy transaction time\r\n\r\n        // transaction creation time => transaction ETH value\r\n        mapping(uint => uint)  electricitySellTransactions; \r\n        uint[] electricitySellKeys; // keep tracks of sell transaction time\r\n\r\n        // storing all transactions in sequence\r\n        mapping(uint => TxSequenceUnit)  transactionSequenceMap; \r\n\r\n    }\r\n\r\n    struct TxSequenceUnit {\r\n        uint transactionType; // buyTransaction - 0; sellTransaction - 1\r\n        uint transactionTime;  // key to transaction mappings\r\n    }\r\n\r\n\r\n    // ------------------------- constructor -------------------------\r\n    constructor() {\r\n        //TO-DO: insert dummy data for test purpose\r\n        address testAccount = 0xAb8483F64d9C6d1EcF9b849Ae677dD3315835cb2;\r\n        // uint current = block.timestamp;\r\n        uint Sep12 = 1662940800;\r\n        uint Sep12_random = 1662940810;\r\n        uint Sep13 = 1663027200;\r\n        uint Sep14 = 1663113600;\r\n        uint Sep15 = 1663200000;\r\n        uint Sep15_random1 = 1663200010;\r\n        uint Sep15_random2 = 1663200020;\r\n        // uint Sep16 = 1663250400;\r\n        uint Sep16_random = 1663286400;\r\n        uint Sep17_random = 1663372800;\r\n        uint Sep18_random1 = 1663459200;\r\n        uint Sep18_random2 = 1663459210;\r\n        uint Sep18_random3 = 1663459220;\r\n        \r\n        // expected weekly statistics startging from Sep 12: [10, 20, 30, 70, 40, 50, 60]\r\n        userStatisticsMap[testAccount].electricityBuyTransactions[Sep12] = 5;\r\n        userStatisticsMap[testAccount].electricityBuyTransactions[Sep12_random] = 5;\r\n        userStatisticsMap[testAccount].electricityBuyTransactions[Sep13] = 20;\r\n        userStatisticsMap[testAccount].electricityBuyTransactions[Sep14] = 30;\r\n        userStatisticsMap[testAccount].electricityBuyTransactions[Sep15] = 20;\r\n        userStatisticsMap[testAccount].electricityBuyTransactions[Sep15_random1] = 40;\r\n        userStatisticsMap[testAccount].electricityBuyTransactions[Sep15_random2] = 10;\r\n        userStatisticsMap[testAccount].electricityBuyTransactions[Sep16_random] = 40;\r\n        userStatisticsMap[testAccount].electricityBuyTransactions[Sep17_random] = 50;\r\n        userStatisticsMap[testAccount].electricityBuyTransactions[Sep18_random1] = 20;\r\n        userStatisticsMap[testAccount].electricityBuyTransactions[Sep18_random2] = 20;\r\n        userStatisticsMap[testAccount].electricityBuyTransactions[Sep18_random3] = 20;\r\n\r\n        userStatisticsMap[testAccount].electricityBuyKeys.push(Sep12);\r\n        userStatisticsMap[testAccount].electricityBuyKeys.push(Sep12_random);\r\n        userStatisticsMap[testAccount].electricityBuyKeys.push(Sep13);\r\n        userStatisticsMap[testAccount].electricityBuyKeys.push(Sep14);\r\n        userStatisticsMap[testAccount].electricityBuyKeys.push(Sep15);\r\n        userStatisticsMap[testAccount].electricityBuyKeys.push(Sep15_random1);\r\n        userStatisticsMap[testAccount].electricityBuyKeys.push(Sep15_random2);\r\n        userStatisticsMap[testAccount].electricityBuyKeys.push(Sep16_random);\r\n        userStatisticsMap[testAccount].electricityBuyKeys.push(Sep17_random);\r\n        userStatisticsMap[testAccount].electricityBuyKeys.push(Sep18_random1);\r\n        userStatisticsMap[testAccount].electricityBuyKeys.push(Sep18_random2);\r\n        userStatisticsMap[testAccount].electricityBuyKeys.push(Sep18_random3);\r\n\r\n    }\r\n    \r\n\r\n    // ------------------------- functions to update statistics -------------------------\r\n\r\n    function updateTotalBuy(address _user, uint _addVal) public {\r\n        // require(msg.sender == mainSystem, \"access denied\");\r\n        userStatisticsMap[_user].totalBuy += _addVal;\r\n    }\r\n\r\n    function updateTotalSell(address _user, uint _addVal) public {\r\n        // require(msg.sender == mainSystem, \"access denied\");\r\n        userStatisticsMap[_user].totalSell += _addVal;\r\n    }\r\n\r\n    function addOneElectricBuyTransaction(address _user, uint _transactionTime, uint _transactionAmount) public {\r\n        // require(msg.sender == mainSystem, \"access denied\");\r\n        userStatisticsMap[_user].electricityBuyTransactions[_transactionTime] = _transactionAmount;\r\n        userStatisticsMap[_user].electricityBuyKeys.push(_transactionTime);\r\n    }\r\n\r\n    function addOneElectricSellTransaction(address _user, uint _transactionTime, uint _transactionAmount) public {\r\n        // require(msg.sender == mainSystem, \"access denied\");\r\n        userStatisticsMap[_user].electricitySellTransactions[_transactionTime] = _transactionAmount;\r\n        userStatisticsMap[_user].electricitySellKeys.push(_transactionTime);\r\n    }\r\n\r\n    function addTransactionToSequenceMap(address _user, uint _transactionType, uint _transactionTime) public {\r\n        uint count = userStatisticsMap[_user].transactionCounter;\r\n        userStatisticsMap[_user].transactionSequenceMap[count].transactionType = _transactionType;\r\n        userStatisticsMap[_user].transactionSequenceMap[count].transactionTime = _transactionTime;\r\n        userStatisticsMap[_user].transactionCounter++;\r\n    }\r\n\r\n    // ------------------------- functions to return statistics -------------------------\r\n\r\n\r\n    function returnTotalBuyByAddress(address _accountAdress) public view returns (uint) {\r\n        return userStatisticsMap[_accountAdress].totalBuy;\r\n    }\r\n\r\n    function returnTotalSellByAddress(address _accountAdress) public view returns (uint) {\r\n        return userStatisticsMap[_accountAdress].totalSell;\r\n    }\r\n\r\n    // return 10 recent transactions (return all if transactions if total amount is less than 10)\r\n    function returnRecentTransactions(address _account) public view returns (TransactionBean[] memory)  {\r\n        uint _size = userStatisticsMap[_account].transactionCounter;\r\n        uint j = 0;\r\n        if (_size > 0) {\r\n            j = _size - 1;\r\n        }\r\n        TransactionBean[] memory transactionBeans = new TransactionBean[](min(_size, 10));\r\n        // transactionBeans[0].createdAt = 1;\r\n        // transactionBeans[0].transactionType = 1;\r\n        // transactionBeans[0].transactionValue = 1;\r\n        for (uint i = 0; i < min(_size, 10); i++) {\r\n            transactionBeans[i].createdAt = userStatisticsMap[_account].transactionSequenceMap[j].transactionTime;\r\n            transactionBeans[i].transactionType = userStatisticsMap[_account].transactionSequenceMap[j].transactionType;\r\n            if (transactionBeans[i].transactionType == 0) {\r\n                transactionBeans[i].transactionValue =  userStatisticsMap[_account].electricityBuyTransactions[transactionBeans[i].createdAt];\r\n            } else {\r\n                transactionBeans[i].transactionValue =  userStatisticsMap[_account].electricitySellTransactions[transactionBeans[i].createdAt];\r\n            }\r\n            if (j > 0) {\r\n                j--;\r\n            }\r\n        }\r\n\r\n        return transactionBeans;\r\n    }\r\n\r\n    function min(uint a, uint b) internal pure returns(uint) {\r\n        if (a < b) {\r\n            return a;\r\n        }\r\n        return b;\r\n    }\r\n\r\n    struct WeeklyBuyStatisticsInfo {\r\n        uint totalWeekSkip;\r\n        uint startDateTimestamp;\r\n        uint endDateTimestamp;\r\n        uint[] weeklyStatistics;\r\n    }\r\n    \r\n    /*\r\n        return weekly buy transactions statistics:\r\n            _user: identify target user\r\n            _txType:\r\n                0: buy transaction\r\n                1: sell transaction\r\n            _prevWeekNum: identify which week's statistics to retrieve. Value starts from 0\r\n                0: indicating current week\r\n                1: previous week\r\n                2: 2 weeks ago\r\n                ...  \r\n    */\r\n    function returnWeeklyStatistics(address _user, uint _prevWeekNum, uint8 _txType) public view returns (uint[] memory) {\r\n        require(_prevWeekNum >= 0, \"week number starts from 0\");\r\n        // _prevWeekNum = 1;\r\n        WeeklyBuyStatisticsInfo memory info;\r\n        info.weeklyStatistics = new uint[](7);\r\n        info.totalWeekSkip = 1 weeks * _prevWeekNum;\r\n        \r\n        // 2. get current day number of the week, and then convert it back to timestamp\r\n        (uint _year, uint _month, uint _day) = BokkyPooBahsDateTimeLibrary.timestampToDate(block.timestamp); // 2022, 09, 25\r\n        uint currentDateInTimestamp = BokkyPooBahsDateTimeLibrary.timestampFromDate(_year, _month, _day);    // current date in 00:00\r\n        \r\n        // 3. minus currentDateInTimestamp by (currentDayOfWeek - 1) to get the Monday timestamp of current week\r\n        uint currentDayOfWeek = BokkyPooBahsDateTimeLibrary.getDayOfWeek(block.timestamp);                   // 7\r\n        uint mondayOfCurrentWeekInTimestamp = currentDateInTimestamp - ((currentDayOfWeek - 1) * 1 days);    // Monday of current week\r\n        \r\n        // 4. minus mondayOfCurrentWeekInTimestamp by _totalWeekSkip to get the starting date of the weekly statistics in timestamp\r\n        // e.g.  _totalWeekSkip is one week, then we will get last week's Monday timestamp\r\n        info.startDateTimestamp = mondayOfCurrentWeekInTimestamp - info.totalWeekSkip;\r\n        info.endDateTimestamp = info.startDateTimestamp + 1 weeks;\r\n        \r\n        // 5. iterate all buy transactions happen between start date and end date and accumulate data of the same day \r\n        uint[] memory keys;\r\n        if (_txType == 0) {\r\n            keys = userStatisticsMap[_user].electricityBuyKeys;\r\n        } else if (_txType == 1) {\r\n            keys = userStatisticsMap[_user].electricitySellKeys;\r\n        } else {\r\n            require(false, \"invalid transaction type\");\r\n        }\r\n        \r\n        for (uint i = 0; i < keys.length; i++) {\r\n            if ( keys[i] >= info.startDateTimestamp && keys[i] <= info.endDateTimestamp ) {\r\n                uint _dayNum = BokkyPooBahsDateTimeLibrary.getDayOfWeek(keys[i]);\r\n                info.weeklyStatistics[_dayNum - 1] += userStatisticsMap[_user].electricityBuyTransactions[keys[i]];\r\n            }\r\n        }\r\n        return info.weeklyStatistics;\r\n    }\r\n\r\n    function returnWeeklyTotalBuyOrSell(address _user, uint _prevWeekNum, uint8 _txType) public view returns (uint) {\r\n        uint[] memory weeklyStatistics = returnWeeklyStatistics(_user, _prevWeekNum, _txType);\r\n        uint weeklyTotalSum = 0;\r\n        for (uint i = 0; i < weeklyStatistics.length; i++) {\r\n            weeklyTotalSum += weeklyStatistics[i];\r\n        }\r\n        return weeklyTotalSum;\r\n    }\r\n    \r\n\r\n    // utils\r\n    // function getDayOfWeek() public view returns (uint){\r\n    //     return BokkyPooBahsDateTimeLibrary.getDayOfWeek(block.timestamp);\r\n    // }\r\n\r\n    // function timestampFromDate(uint _year,uint _month,uint _day) public view returns (uint){\r\n    //     return BokkyPooBahsDateTimeLibrary.timestampFromDate(_year, _month, _day);\r\n    // }\r\n\r\n    \r\n}",
  "sourcePath": "E:\\5703_Repository\\truffle\\contracts\\StatisticsService.sol",
  "compiler": {
    "name": "solc",
    "version": "0.8.17+commit.8df45f5f.Emscripten.clang"
  },
  "schemaVersion": "3.4.10",
  "updatedAt": "2022-10-28T08:26:03.816Z",
  "devdoc": {
    "kind": "dev",
    "methods": {},
    "version": 1
  },
  "userdoc": {
    "kind": "user",
    "methods": {},
    "version": 1
  }
}