{
  "contractName": "StatisticsService",
  "abi": [
    {
      "inputs": [],
      "stateMutability": "nonpayable",
      "type": "constructor"
    },
    {
      "inputs": [
        {
          "internalType": "address",
          "name": "",
          "type": "address"
        }
      ],
      "name": "userStatisticsMap",
      "outputs": [
        {
          "internalType": "uint256",
          "name": "totalBuy",
          "type": "uint256"
        },
        {
          "internalType": "uint256",
          "name": "totalSell",
          "type": "uint256"
        },
        {
          "internalType": "uint256",
          "name": "transactionCounter",
          "type": "uint256"
        }
      ],
      "stateMutability": "view",
      "type": "function"
    },
    {
      "inputs": [
        {
          "internalType": "address",
          "name": "_user",
          "type": "address"
        },
        {
          "internalType": "uint256",
          "name": "_addVal",
          "type": "uint256"
        }
      ],
      "name": "updateTotalBuy",
      "outputs": [],
      "stateMutability": "nonpayable",
      "type": "function"
    },
    {
      "inputs": [
        {
          "internalType": "address",
          "name": "_user",
          "type": "address"
        },
        {
          "internalType": "uint256",
          "name": "_addVal",
          "type": "uint256"
        }
      ],
      "name": "updateTotalSell",
      "outputs": [],
      "stateMutability": "nonpayable",
      "type": "function"
    },
    {
      "inputs": [
        {
          "internalType": "address",
          "name": "_user",
          "type": "address"
        },
        {
          "internalType": "uint256",
          "name": "_transactionTime",
          "type": "uint256"
        },
        {
          "internalType": "uint256",
          "name": "_transactionAmount",
          "type": "uint256"
        }
      ],
      "name": "addOneElectricBuyTransaction",
      "outputs": [],
      "stateMutability": "nonpayable",
      "type": "function"
    },
    {
      "inputs": [
        {
          "internalType": "address",
          "name": "_user",
          "type": "address"
        },
        {
          "internalType": "uint256",
          "name": "_transactionTime",
          "type": "uint256"
        },
        {
          "internalType": "uint256",
          "name": "_transactionAmount",
          "type": "uint256"
        }
      ],
      "name": "addOneElectricSellTransaction",
      "outputs": [],
      "stateMutability": "nonpayable",
      "type": "function"
    },
    {
      "inputs": [
        {
          "internalType": "address",
          "name": "_user",
          "type": "address"
        },
        {
          "internalType": "uint256",
          "name": "_transactionType",
          "type": "uint256"
        },
        {
          "internalType": "uint256",
          "name": "_transactionTime",
          "type": "uint256"
        }
      ],
      "name": "addTransactionToSequenceMap",
      "outputs": [],
      "stateMutability": "nonpayable",
      "type": "function"
    },
    {
      "inputs": [
        {
          "internalType": "address",
          "name": "_accountAdress",
          "type": "address"
        }
      ],
      "name": "returnTotalBuyByAddress",
      "outputs": [
        {
          "internalType": "uint256",
          "name": "",
          "type": "uint256"
        }
      ],
      "stateMutability": "view",
      "type": "function"
    },
    {
      "inputs": [
        {
          "internalType": "address",
          "name": "_accountAdress",
          "type": "address"
        }
      ],
      "name": "returnTotalSellByAddress",
      "outputs": [
        {
          "internalType": "uint256",
          "name": "",
          "type": "uint256"
        }
      ],
      "stateMutability": "view",
      "type": "function"
    },
    {
      "inputs": [
        {
          "internalType": "address",
          "name": "_account",
          "type": "address"
        }
      ],
      "name": "returnRecentTransactions",
      "outputs": [
        {
          "components": [
            {
              "internalType": "uint256",
              "name": "createdAt",
              "type": "uint256"
            },
            {
              "internalType": "uint256",
              "name": "transactionType",
              "type": "uint256"
            },
            {
              "internalType": "uint256",
              "name": "transactionValue",
              "type": "uint256"
            }
          ],
          "internalType": "struct BeanStructs.TransactionBean[]",
          "name": "",
          "type": "tuple[]"
        }
      ],
      "stateMutability": "view",
      "type": "function"
    },
    {
      "inputs": [
        {
          "internalType": "address",
          "name": "_user",
          "type": "address"
        },
        {
          "internalType": "uint256",
          "name": "_prevWeekNum",
          "type": "uint256"
        },
        {
          "internalType": "uint8",
          "name": "_txType",
          "type": "uint8"
        }
      ],
      "name": "returnWeeklyStatistics",
      "outputs": [
        {
          "internalType": "uint256[]",
          "name": "",
          "type": "uint256[]"
        }
      ],
      "stateMutability": "view",
      "type": "function"
    }
  ],
  "bytecode": "0x608060405234801561001057600080fd5b50600073ab8483f64d9c6d1ecf9b849ae677dd3315835cb29050600063631e76809050600063631e768a9050600063631fc800905060006363211980905060006363226b00905060006363226b0a905060006363226b1490506000636323bc80905060006363250e00905060006363265f80905060006363265f8a905060006363265f94905060056000808f73ffffffffffffffffffffffffffffffffffffffff1673ffffffffffffffffffffffffffffffffffffffff16815260200190815260200160002060030160008e81526020019081526020016000208190555060056000808f73ffffffffffffffffffffffffffffffffffffffff1673ffffffffffffffffffffffffffffffffffffffff16815260200190815260200160002060030160008d81526020019081526020016000208190555060146000808f73ffffffffffffffffffffffffffffffffffffffff1673ffffffffffffffffffffffffffffffffffffffff16815260200190815260200160002060030160008c815260200190815260200160002081905550601e6000808f73ffffffffffffffffffffffffffffffffffffffff1673ffffffffffffffffffffffffffffffffffffffff16815260200190815260200160002060030160008b81526020019081526020016000208190555060146000808f73ffffffffffffffffffffffffffffffffffffffff1673ffffffffffffffffffffffffffffffffffffffff16815260200190815260200160002060030160008a81526020019081526020016000208190555060286000808f73ffffffffffffffffffffffffffffffffffffffff1673ffffffffffffffffffffffffffffffffffffffff168152602001908152602001600020600301600089815260200190815260200160002081905550600a6000808f73ffffffffffffffffffffffffffffffffffffffff1673ffffffffffffffffffffffffffffffffffffffff16815260200190815260200160002060030160008881526020019081526020016000208190555060286000808f73ffffffffffffffffffffffffffffffffffffffff1673ffffffffffffffffffffffffffffffffffffffff16815260200190815260200160002060030160008781526020019081526020016000208190555060326000808f73ffffffffffffffffffffffffffffffffffffffff1673ffffffffffffffffffffffffffffffffffffffff16815260200190815260200160002060030160008681526020019081526020016000208190555060146000808f73ffffffffffffffffffffffffffffffffffffffff1673ffffffffffffffffffffffffffffffffffffffff16815260200190815260200160002060030160008581526020019081526020016000208190555060146000808f73ffffffffffffffffffffffffffffffffffffffff1673ffffffffffffffffffffffffffffffffffffffff16815260200190815260200160002060030160008481526020019081526020016000208190555060146000808f73ffffffffffffffffffffffffffffffffffffffff1673ffffffffffffffffffffffffffffffffffffffff1681526020019081526020016000206003016000838152602001908152602001600020819055506000808e73ffffffffffffffffffffffffffffffffffffffff1673ffffffffffffffffffffffffffffffffffffffff1681526020019081526020016000206004018c90806001815401808255809150506001900390600052602060002001600090919091909150556000808e73ffffffffffffffffffffffffffffffffffffffff1673ffffffffffffffffffffffffffffffffffffffff1681526020019081526020016000206004018b90806001815401808255809150506001900390600052602060002001600090919091909150556000808e73ffffffffffffffffffffffffffffffffffffffff1673ffffffffffffffffffffffffffffffffffffffff1681526020019081526020016000206004018a90806001815401808255809150506001900390600052602060002001600090919091909150556000808e73ffffffffffffffffffffffffffffffffffffffff1673ffffffffffffffffffffffffffffffffffffffff1681526020019081526020016000206004018990806001815401808255809150506001900390600052602060002001600090919091909150556000808e73ffffffffffffffffffffffffffffffffffffffff1673ffffffffffffffffffffffffffffffffffffffff1681526020019081526020016000206004018890806001815401808255809150506001900390600052602060002001600090919091909150556000808e73ffffffffffffffffffffffffffffffffffffffff1673ffffffffffffffffffffffffffffffffffffffff1681526020019081526020016000206004018790806001815401808255809150506001900390600052602060002001600090919091909150556000808e73ffffffffffffffffffffffffffffffffffffffff1673ffffffffffffffffffffffffffffffffffffffff1681526020019081526020016000206004018690806001815401808255809150506001900390600052602060002001600090919091909150556000808e73ffffffffffffffffffffffffffffffffffffffff1673ffffffffffffffffffffffffffffffffffffffff1681526020019081526020016000206004018590806001815401808255809150506001900390600052602060002001600090919091909150556000808e73ffffffffffffffffffffffffffffffffffffffff1673ffffffffffffffffffffffffffffffffffffffff1681526020019081526020016000206004018490806001815401808255809150506001900390600052602060002001600090919091909150556000808e73ffffffffffffffffffffffffffffffffffffffff1673ffffffffffffffffffffffffffffffffffffffff1681526020019081526020016000206004018390806001815401808255809150506001900390600052602060002001600090919091909150556000808e73ffffffffffffffffffffffffffffffffffffffff1673ffffffffffffffffffffffffffffffffffffffff1681526020019081526020016000206004018290806001815401808255809150506001900390600052602060002001600090919091909150556000808e73ffffffffffffffffffffffffffffffffffffffff1673ffffffffffffffffffffffffffffffffffffffff16815260200190815260200160002060040181908060018154018082558091505060019003906000526020600020016000909190919091505550505050505050505050505050611af4806109b26000396000f3fe608060405234801561001057600080fd5b506004361061009e5760003560e01c80638b5ccc6e116100665780638b5ccc6e14610157578063b5387dc514610189578063e6b02333146101b9578063e8b8530f146101d5578063fc369818146101f15761009e565b80631e7ba9cd146100a35780632f0a323e146100bf57806333bdb8f9146100db5780633f9b696c1461010b57806377c82cc914610127575b600080fd5b6100bd60048036038101906100b89190611289565b610221565b005b6100d960048036038101906100d49190611289565b6102e5565b005b6100f560048036038101906100f091906112dc565b6103a9565b6040516101029190611318565b60405180910390f35b61012560048036038101906101209190611333565b6103f4565b005b610141600480360381019061013c91906112dc565b610450565b60405161014e9190611473565b60405180910390f35b610171600480360381019061016c91906112dc565b6107a6565b60405161018093929190611495565b60405180910390f35b6101a3600480360381019061019e91906112dc565b6107d0565b6040516101b09190611318565b60405180910390f35b6101d360048036038101906101ce9190611289565b61081b565b005b6101ef60048036038101906101ea9190611333565b610972565b005b61020b60048036038101906102069190611505565b6109ce565b6040516102189190611607565b60405180910390f35b806000808573ffffffffffffffffffffffffffffffffffffffff1673ffffffffffffffffffffffffffffffffffffffff1681526020019081526020016000206005016000848152602001908152602001600020819055506000808473ffffffffffffffffffffffffffffffffffffffff1673ffffffffffffffffffffffffffffffffffffffff168152602001908152602001600020600601829080600181540180825580915050600190039060005260206000200160009091909190915055505050565b806000808573ffffffffffffffffffffffffffffffffffffffff1673ffffffffffffffffffffffffffffffffffffffff1681526020019081526020016000206003016000848152602001908152602001600020819055506000808473ffffffffffffffffffffffffffffffffffffffff1673ffffffffffffffffffffffffffffffffffffffff168152602001908152602001600020600401829080600181540180825580915050600190039060005260206000200160009091909190915055505050565b60008060008373ffffffffffffffffffffffffffffffffffffffff1673ffffffffffffffffffffffffffffffffffffffff168152602001908152602001600020600101549050919050565b806000808473ffffffffffffffffffffffffffffffffffffffff1673ffffffffffffffffffffffffffffffffffffffff16815260200190815260200160002060000160008282546104459190611658565b925050819055505050565b606060008060008473ffffffffffffffffffffffffffffffffffffffff1673ffffffffffffffffffffffffffffffffffffffff1681526020019081526020016000206002015490506000808211156104b2576001826104af919061168c565b90505b60006104bf83600a610df9565b67ffffffffffffffff8111156104d8576104d76116c0565b5b60405190808252806020026020018201604052801561051157816020015b6104fe6111a7565b8152602001906001900390816104f65790505b50905060005b61052284600a610df9565b81101561079a576000808773ffffffffffffffffffffffffffffffffffffffff1673ffffffffffffffffffffffffffffffffffffffff168152602001908152602001600020600701600084815260200190815260200160002060010154828281518110610592576105916116ef565b5b602002602001015160000181815250506000808773ffffffffffffffffffffffffffffffffffffffff1673ffffffffffffffffffffffffffffffffffffffff16815260200190815260200160002060070160008481526020019081526020016000206000015482828151811061060b5761060a6116ef565b5b6020026020010151602001818152505060008282815181106106305761062f6116ef565b5b602002602001015160200151036106da576000808773ffffffffffffffffffffffffffffffffffffffff1673ffffffffffffffffffffffffffffffffffffffff1681526020019081526020016000206003016000838381518110610697576106966116ef565b5b6020026020010151600001518152602001908152602001600020548282815181106106c5576106c46116ef565b5b6020026020010151604001818152505061076f565b6000808773ffffffffffffffffffffffffffffffffffffffff1673ffffffffffffffffffffffffffffffffffffffff16815260200190815260200160002060050160008383815181106107305761072f6116ef565b5b60200260200101516000015181526020019081526020016000205482828151811061075e5761075d6116ef565b5b602002602001015160400181815250505b60008311156107875782806107839061171e565b9350505b808061079290611747565b915050610517565b50809350505050919050565b60006020528060005260406000206000915090508060000154908060010154908060020154905083565b60008060008373ffffffffffffffffffffffffffffffffffffffff1673ffffffffffffffffffffffffffffffffffffffff168152602001908152602001600020600001549050919050565b60008060008573ffffffffffffffffffffffffffffffffffffffff1673ffffffffffffffffffffffffffffffffffffffff168152602001908152602001600020600201549050826000808673ffffffffffffffffffffffffffffffffffffffff1673ffffffffffffffffffffffffffffffffffffffff168152602001908152602001600020600701600083815260200190815260200160002060000181905550816000808673ffffffffffffffffffffffffffffffffffffffff1673ffffffffffffffffffffffffffffffffffffffff1681526020019081526020016000206007016000838152602001908152602001600020600101819055506000808573ffffffffffffffffffffffffffffffffffffffff1673ffffffffffffffffffffffffffffffffffffffff168152602001908152602001600020600201600081548092919061096790611747565b919050555050505050565b806000808473ffffffffffffffffffffffffffffffffffffffff1673ffffffffffffffffffffffffffffffffffffffff16815260200190815260200160002060010160008282546109c39190611658565b925050819055505050565b60606000831015610a14576040517f08c379a0000000000000000000000000000000000000000000000000000000008152600401610a0b906117ec565b60405180910390fd5b610a1c6111c8565b600767ffffffffffffffff811115610a3757610a366116c0565b5b604051908082528060200260200182016040528015610a655781602001602082028036833780820191505090505b5081606001819052508362093a80610a7d919061180c565b8160000181815250506000806000610a9442610e15565b9250925092506000610aa7848484610e44565b90506000610ab442610e68565b9050600062015180600183610ac9919061168c565b610ad3919061180c565b83610ade919061168c565b9050866000015181610af0919061168c565b87602001818152505062093a808760200151610b0c9190611658565b876040018181525050606060008a60ff1603610bb9576000808d73ffffffffffffffffffffffffffffffffffffffff1673ffffffffffffffffffffffffffffffffffffffff168152602001908152602001600020600401805480602002602001604051908101604052809291908181526020018280548015610bad57602002820191906000526020600020905b815481526020019060010190808311610b99575b50505050509050610c9e565b60018a60ff1603610c5b576000808d73ffffffffffffffffffffffffffffffffffffffff1673ffffffffffffffffffffffffffffffffffffffff168152602001908152602001600020600601805480602002602001604051908101604052809291908181526020018280548015610c4f57602002820191906000526020600020905b815481526020019060010190808311610c3b575b50505050509050610c9d565b6000610c9c576040517f08c379a0000000000000000000000000000000000000000000000000000000008152600401610c939061189a565b60405180910390fd5b5b5b60005b8151811015610de2578860200151828281518110610cc257610cc16116ef565b5b602002602001015110158015610cf657508860400151828281518110610ceb57610cea6116ef565b5b602002602001015111155b15610dcf576000610d20838381518110610d1357610d126116ef565b5b6020026020010151610e68565b90506000808f73ffffffffffffffffffffffffffffffffffffffff1673ffffffffffffffffffffffffffffffffffffffff1681526020019081526020016000206003016000848481518110610d7857610d776116ef565b5b60200260200101518152602001908152602001600020548a60600151600183610da1919061168c565b81518110610db257610db16116ef565b5b60200260200101818151610dc69190611658565b91508181525050505b8080610dda90611747565b915050610ca1565b508760600151985050505050505050509392505050565b600081831015610e0b57829050610e0f565b8190505b92915050565b6000806000610e316201518085610e2c91906118e9565b610ea9565b8093508194508295505050509193909250565b600062015180610e55858585611048565b610e5f919061180c565b90509392505050565b6000806201518083610e7a91906118e9565b905060016007600383610e8d9190611658565b610e97919061191a565b610ea19190611658565b915050919050565b600080600080849050600062253d8c62010bd983610ec79190611955565b610ed19190611955565b9050600062023ab1826004610ee69190611999565b610ef09190611a11565b9050600460038262023ab1610f059190611999565b610f0f9190611955565b610f199190611a11565b82610f249190611a7b565b9150600062164b09600184610f399190611955565b610fa0610f469190611999565b610f509190611a11565b9050601f6004826105b5610f649190611999565b610f6e9190611a11565b84610f799190611a7b565b610f839190611955565b9250600061098f846050610f979190611999565b610fa19190611a11565b9050600060508261098f610fb59190611999565b610fbf9190611a11565b85610fca9190611a7b565b9050600b82610fd99190611a11565b945084600c610fe89190611999565b600283610ff59190611955565b610fff9190611a7b565b915084836031866110109190611a7b565b606461101c9190611999565b6110269190611955565b6110309190611955565b92508298508197508096505050505050509193909250565b60006107b284101561105957600080fd5b600084905060008490506000849050600062253d8c60046064600c600e876110819190611a7b565b61108b9190611a11565b611324886110999190611955565b6110a39190611955565b6110ad9190611a11565b60036110b99190611999565b6110c39190611a11565b600c80600c600e886110d59190611a7b565b6110df9190611a11565b6110e99190611999565b6002876110f69190611a7b565b6111009190611a7b565b61016f61110d9190611999565b6111179190611a11565b6004600c600e886111289190611a7b565b6111329190611a11565b6112c0896111409190611955565b61114a9190611955565b6105b56111579190611999565b6111619190611a11565b617d4b8661116f9190611a7b565b6111799190611955565b6111839190611955565b61118d9190611a7b565b6111979190611a7b565b9050809450505050509392505050565b60405180606001604052806000815260200160008152602001600081525090565b6040518060800160405280600081526020016000815260200160008152602001606081525090565b600080fd5b600073ffffffffffffffffffffffffffffffffffffffff82169050919050565b6000611220826111f5565b9050919050565b61123081611215565b811461123b57600080fd5b50565b60008135905061124d81611227565b92915050565b6000819050919050565b61126681611253565b811461127157600080fd5b50565b6000813590506112838161125d565b92915050565b6000806000606084860312156112a2576112a16111f0565b5b60006112b08682870161123e565b93505060206112c186828701611274565b92505060406112d286828701611274565b9150509250925092565b6000602082840312156112f2576112f16111f0565b5b60006113008482850161123e565b91505092915050565b61131281611253565b82525050565b600060208201905061132d6000830184611309565b92915050565b6000806040838503121561134a576113496111f0565b5b60006113588582860161123e565b925050602061136985828601611274565b9150509250929050565b600081519050919050565b600082825260208201905092915050565b6000819050602082019050919050565b6113a881611253565b82525050565b6060820160008201516113c4600085018261139f565b5060208201516113d7602085018261139f565b5060408201516113ea604085018261139f565b50505050565b60006113fc83836113ae565b60608301905092915050565b6000602082019050919050565b600061142082611373565b61142a818561137e565b93506114358361138f565b8060005b8381101561146657815161144d88826113f0565b975061145883611408565b925050600181019050611439565b5085935050505092915050565b6000602082019050818103600083015261148d8184611415565b905092915050565b60006060820190506114aa6000830186611309565b6114b76020830185611309565b6114c46040830184611309565b949350505050565b600060ff82169050919050565b6114e2816114cc565b81146114ed57600080fd5b50565b6000813590506114ff816114d9565b92915050565b60008060006060848603121561151e5761151d6111f0565b5b600061152c8682870161123e565b935050602061153d86828701611274565b925050604061154e868287016114f0565b9150509250925092565b600081519050919050565b600082825260208201905092915050565b6000819050602082019050919050565b6000611590838361139f565b60208301905092915050565b6000602082019050919050565b60006115b482611558565b6115be8185611563565b93506115c983611574565b8060005b838110156115fa5781516115e18882611584565b97506115ec8361159c565b9250506001810190506115cd565b5085935050505092915050565b6000602082019050818103600083015261162181846115a9565b905092915050565b7f4e487b7100000000000000000000000000000000000000000000000000000000600052601160045260246000fd5b600061166382611253565b915061166e83611253565b925082820190508082111561168657611685611629565b5b92915050565b600061169782611253565b91506116a283611253565b92508282039050818111156116ba576116b9611629565b5b92915050565b7f4e487b7100000000000000000000000000000000000000000000000000000000600052604160045260246000fd5b7f4e487b7100000000000000000000000000000000000000000000000000000000600052603260045260246000fd5b600061172982611253565b91506000820361173c5761173b611629565b5b600182039050919050565b600061175282611253565b91507fffffffffffffffffffffffffffffffffffffffffffffffffffffffffffffffff820361178457611783611629565b5b600182019050919050565b600082825260208201905092915050565b7f7765656b206e756d626572207374617274732066726f6d203000000000000000600082015250565b60006117d660198361178f565b91506117e1826117a0565b602082019050919050565b60006020820190508181036000830152611805816117c9565b9050919050565b600061181782611253565b915061182283611253565b925082820261183081611253565b9150828204841483151761184757611846611629565b5b5092915050565b7f696e76616c6964207472616e73616374696f6e20747970650000000000000000600082015250565b600061188460188361178f565b915061188f8261184e565b602082019050919050565b600060208201905081810360008301526118b381611877565b9050919050565b7f4e487b7100000000000000000000000000000000000000000000000000000000600052601260045260246000fd5b60006118f482611253565b91506118ff83611253565b92508261190f5761190e6118ba565b5b828204905092915050565b600061192582611253565b915061193083611253565b9250826119405761193f6118ba565b5b828206905092915050565b6000819050919050565b60006119608261194b565b915061196b8361194b565b92508282019050828112156000831216838212600084121516171561199357611992611629565b5b92915050565b60006119a48261194b565b91506119af8361194b565b92508282026119bd8161194b565b91507f800000000000000000000000000000000000000000000000000000000000000084146000841216156119f5576119f4611629565b5b8282058414831517611a0a57611a09611629565b5b5092915050565b6000611a1c8261194b565b9150611a278361194b565b925082611a3757611a366118ba565b5b600160000383147f800000000000000000000000000000000000000000000000000000000000000083141615611a7057611a6f611629565b5b828205905092915050565b6000611a868261194b565b9150611a918361194b565b9250828203905081811260008412168282136000851215161715611ab857611ab7611629565b5b9291505056fea26469706673582212209df2b91551d9cd145f106aba93b73e4dc7b02e8e72d713e09b080a6cac4ea06e64736f6c63430008110033",
  "immutableReferences": {},
  "source": "//SPDX-License-Identifier: MIT\n\npragma solidity ^0.8.0;\n\n// import \"https://github.com/bokkypoobah/BokkyPooBahsDateTimeLibrary/blob/master/contracts/BokkyPooBahsDateTimeLibrary.sol\";\nimport \"./BeanStructs.sol\";\nimport \"./BokkyPooBahsDateTimeLibrary.sol\";\n\ncontract StatisticsService is BeanStructs{\n\n    mapping(address => Statistics) public userStatisticsMap;\n\n    struct Statistics {\n     \n        uint totalBuy;           // storing total buy amount\n        uint totalSell;          // storing total sell amount\n        uint transactionCounter; // storing total transaction number\n        \n        // transaction creation time => transaction ETH value\n        mapping(uint => uint)  electricityBuyTransactions; \n        uint[] electricityBuyKeys; // keep tracks of buy transaction time\n\n        // transaction creation time => transaction ETH value\n        mapping(uint => uint)  electricitySellTransactions; \n        uint[] electricitySellKeys; // keep tracks of sell transaction time\n\n        // storing all transactions in sequence\n        mapping(uint => TxSequenceUnit)  transactionSequenceMap; \n\n    }\n\n    struct TxSequenceUnit {\n        uint transactionType; // buyTransaction - 0; sellTransaction - 1\n        uint transactionTime;  // key to transaction mappings\n    }\n\n\n    // ------------------------- constructor -------------------------\n    constructor() {\n        //TO-DO: insert dummy data for test purpose\n        address testAccount = 0xAb8483F64d9C6d1EcF9b849Ae677dD3315835cb2;\n        // uint current = block.timestamp;\n        uint Sep12 = 1662940800;\n        uint Sep12_random = 1662940810;\n        uint Sep13 = 1663027200;\n        uint Sep14 = 1663113600;\n        uint Sep15 = 1663200000;\n        uint Sep15_random1 = 1663200010;\n        uint Sep15_random2 = 1663200020;\n        // uint Sep16 = 1663250400;\n        uint Sep16_random = 1663286400;\n        uint Sep17_random = 1663372800;\n        uint Sep18_random1 = 1663459200;\n        uint Sep18_random2 = 1663459210;\n        uint Sep18_random3 = 1663459220;\n        \n        // expected weekly statistics startging from Sep 12: [10, 20, 30, 70, 40, 50, 60]\n        userStatisticsMap[testAccount].electricityBuyTransactions[Sep12] = 5;\n        userStatisticsMap[testAccount].electricityBuyTransactions[Sep12_random] = 5;\n        userStatisticsMap[testAccount].electricityBuyTransactions[Sep13] = 20;\n        userStatisticsMap[testAccount].electricityBuyTransactions[Sep14] = 30;\n        userStatisticsMap[testAccount].electricityBuyTransactions[Sep15] = 20;\n        userStatisticsMap[testAccount].electricityBuyTransactions[Sep15_random1] = 40;\n        userStatisticsMap[testAccount].electricityBuyTransactions[Sep15_random2] = 10;\n        userStatisticsMap[testAccount].electricityBuyTransactions[Sep16_random] = 40;\n        userStatisticsMap[testAccount].electricityBuyTransactions[Sep17_random] = 50;\n        userStatisticsMap[testAccount].electricityBuyTransactions[Sep18_random1] = 20;\n        userStatisticsMap[testAccount].electricityBuyTransactions[Sep18_random2] = 20;\n        userStatisticsMap[testAccount].electricityBuyTransactions[Sep18_random3] = 20;\n\n        userStatisticsMap[testAccount].electricityBuyKeys.push(Sep12);\n        userStatisticsMap[testAccount].electricityBuyKeys.push(Sep12_random);\n        userStatisticsMap[testAccount].electricityBuyKeys.push(Sep13);\n        userStatisticsMap[testAccount].electricityBuyKeys.push(Sep14);\n        userStatisticsMap[testAccount].electricityBuyKeys.push(Sep15);\n        userStatisticsMap[testAccount].electricityBuyKeys.push(Sep15_random1);\n        userStatisticsMap[testAccount].electricityBuyKeys.push(Sep15_random2);\n        userStatisticsMap[testAccount].electricityBuyKeys.push(Sep16_random);\n        userStatisticsMap[testAccount].electricityBuyKeys.push(Sep17_random);\n        userStatisticsMap[testAccount].electricityBuyKeys.push(Sep18_random1);\n        userStatisticsMap[testAccount].electricityBuyKeys.push(Sep18_random2);\n        userStatisticsMap[testAccount].electricityBuyKeys.push(Sep18_random3);\n\n    }\n    \n\n    // ------------------------- functions to update statistics -------------------------\n\n    function updateTotalBuy(address _user, uint _addVal) public {\n        // require(msg.sender == mainSystem, \"access denied\");\n        userStatisticsMap[_user].totalBuy += _addVal;\n    }\n\n    function updateTotalSell(address _user, uint _addVal) public {\n        // require(msg.sender == mainSystem, \"access denied\");\n        userStatisticsMap[_user].totalSell += _addVal;\n    }\n\n    function addOneElectricBuyTransaction(address _user, uint _transactionTime, uint _transactionAmount) public {\n        // require(msg.sender == mainSystem, \"access denied\");\n        userStatisticsMap[_user].electricityBuyTransactions[_transactionTime] = _transactionAmount;\n        userStatisticsMap[_user].electricityBuyKeys.push(_transactionTime);\n    }\n\n    function addOneElectricSellTransaction(address _user, uint _transactionTime, uint _transactionAmount) public {\n        // require(msg.sender == mainSystem, \"access denied\");\n        userStatisticsMap[_user].electricitySellTransactions[_transactionTime] = _transactionAmount;\n        userStatisticsMap[_user].electricitySellKeys.push(_transactionTime);\n    }\n\n    function addTransactionToSequenceMap(address _user, uint _transactionType, uint _transactionTime) public {\n        uint count = userStatisticsMap[_user].transactionCounter;\n        userStatisticsMap[_user].transactionSequenceMap[count].transactionType = _transactionType;\n        userStatisticsMap[_user].transactionSequenceMap[count].transactionTime = _transactionTime;\n        userStatisticsMap[_user].transactionCounter++;\n    }\n\n    // ------------------------- functions to return statistics -------------------------\n\n\n    function returnTotalBuyByAddress(address _accountAdress) public view returns (uint) {\n        return userStatisticsMap[_accountAdress].totalBuy;\n    }\n\n    function returnTotalSellByAddress(address _accountAdress) public view returns (uint) {\n        return userStatisticsMap[_accountAdress].totalSell;\n    }\n\n    // return 10 recent transactions (return all if transactions if total amount is less than 10)\n    function returnRecentTransactions(address _account) public view returns (TransactionBean[] memory)  {\n        uint _size = userStatisticsMap[_account].transactionCounter;\n        uint j = 0;\n        if (_size > 0) {\n            j = _size - 1;\n        }\n        TransactionBean[] memory transactionBeans = new TransactionBean[](min(_size, 10));\n        // transactionBeans[0].createdAt = 1;\n        // transactionBeans[0].transactionType = 1;\n        // transactionBeans[0].transactionValue = 1;\n        for (uint i = 0; i < min(_size, 10); i++) {\n            transactionBeans[i].createdAt = userStatisticsMap[_account].transactionSequenceMap[j].transactionTime;\n            transactionBeans[i].transactionType = userStatisticsMap[_account].transactionSequenceMap[j].transactionType;\n            if (transactionBeans[i].transactionType == 0) {\n                transactionBeans[i].transactionValue =  userStatisticsMap[_account].electricityBuyTransactions[transactionBeans[i].createdAt];\n            } else {\n                transactionBeans[i].transactionValue =  userStatisticsMap[_account].electricitySellTransactions[transactionBeans[i].createdAt];\n            }\n            if (j > 0) {\n                j--;\n            }\n        }\n\n        return transactionBeans;\n    }\n\n    function min(uint a, uint b) internal pure returns(uint) {\n        if (a < b) {\n            return a;\n        }\n        return b;\n    }\n\n    struct WeeklyBuyStatisticsInfo {\n        uint totalWeekSkip;\n        uint startDateTimestamp;\n        uint endDateTimestamp;\n        uint[] weeklyStatistics;\n    }\n    \n    /*\n        return weekly buy transactions statistics:\n            _user: identify target user\n            _txType:\n                0: buy transaction\n                1: sell transaction\n            _prevWeekNum: identify which week's statistics to retrieve. Value starts from 0\n                0: indicating current week\n                1: previous week\n                2: 2 weeks ago\n                ...  \n    */\n    function returnWeeklyStatistics(address _user, uint _prevWeekNum, uint8 _txType) public view returns (uint[] memory) {\n        require(_prevWeekNum >= 0, \"week number starts from 0\");\n        // _prevWeekNum = 1;\n        WeeklyBuyStatisticsInfo memory info;\n        info.weeklyStatistics = new uint[](7);\n        info.totalWeekSkip = 1 weeks * _prevWeekNum;\n        \n        // 2. get current day number of the week, and then convert it back to timestamp\n        (uint _year, uint _month, uint _day) = BokkyPooBahsDateTimeLibrary.timestampToDate(block.timestamp); // 2022, 09, 25\n        uint currentDateInTimestamp = BokkyPooBahsDateTimeLibrary.timestampFromDate(_year, _month, _day);    // current date in 00:00\n        \n        // 3. minus currentDateInTimestamp by (currentDayOfWeek - 1) to get the Monday timestamp of current week\n        uint currentDayOfWeek = BokkyPooBahsDateTimeLibrary.getDayOfWeek(block.timestamp);                   // 7\n        uint mondayOfCurrentWeekInTimestamp = currentDateInTimestamp - ((currentDayOfWeek - 1) * 1 days);    // Monday of current week\n        \n        // 4. minus mondayOfCurrentWeekInTimestamp by _totalWeekSkip to get the starting date of the weekly statistics in timestamp\n        // e.g.  _totalWeekSkip is one week, then we will get last week's Monday timestamp\n        info.startDateTimestamp = mondayOfCurrentWeekInTimestamp - info.totalWeekSkip;\n        info.endDateTimestamp = info.startDateTimestamp + 1 weeks;\n        \n        // 5. iterate all buy transactions happen between start date and end date and accumulate data of the same day \n        uint[] memory keys;\n        if (_txType == 0) {\n            keys = userStatisticsMap[_user].electricityBuyKeys;\n        } else if (_txType == 1) {\n            keys = userStatisticsMap[_user].electricitySellKeys;\n        } else {\n            require(false, \"invalid transaction type\");\n        }\n        \n        for (uint i = 0; i < keys.length; i++) {\n            if ( keys[i] >= info.startDateTimestamp && keys[i] <= info.endDateTimestamp ) {\n                uint _dayNum = BokkyPooBahsDateTimeLibrary.getDayOfWeek(keys[i]);\n                info.weeklyStatistics[_dayNum - 1] += userStatisticsMap[_user].electricityBuyTransactions[keys[i]];\n            }\n        }\n        return info.weeklyStatistics;\n    }\n    \n\n    // utils\n    // function getDayOfWeek() public view returns (uint){\n    //     return BokkyPooBahsDateTimeLibrary.getDayOfWeek(block.timestamp);\n    // }\n\n    // function timestampFromDate(uint _year,uint _month,uint _day) public view returns (uint){\n    //     return BokkyPooBahsDateTimeLibrary.timestampFromDate(_year, _month, _day);\n    // }\n\n    \n}",
  "sourcePath": "/Users/richard/Doc//sydney_study/22s2/5703/vue-web3-5703/truffle/contracts/StatisticsService.sol",
  "compiler": {
    "name": "solc",
    "version": "0.8.17+commit.8df45f5f.Emscripten.clang"
  },
  "schemaVersion": "3.4.9",
  "updatedAt": "2022-09-27T05:41:22.867Z",
  "devdoc": {
    "kind": "dev",
    "methods": {},
    "version": 1
  },
  "userdoc": {
    "kind": "user",
    "methods": {},
    "version": 1
  }
}