{
  "contractName": "UserService",
  "abi": [
    {
      "inputs": [
        {
          "internalType": "address",
          "name": "_mainSystemAddress",
          "type": "address"
        }
      ],
      "stateMutability": "nonpayable",
      "type": "constructor"
    },
    {
      "inputs": [
        {
          "internalType": "address",
          "name": "_buyerServiceAddress",
          "type": "address"
        },
        {
          "internalType": "address",
          "name": "_sellerServiceAddress",
          "type": "address"
        }
      ],
      "name": "initializeContractAddresses",
      "outputs": [],
      "stateMutability": "nonpayable",
      "type": "function"
    },
    {
      "inputs": [
        {
          "internalType": "address",
          "name": "_user",
          "type": "address"
        }
      ],
      "name": "getUsername",
      "outputs": [
        {
          "internalType": "string",
          "name": "",
          "type": "string"
        }
      ],
      "stateMutability": "view",
      "type": "function"
    },
    {
      "inputs": [
        {
          "internalType": "address",
          "name": "_user",
          "type": "address"
        }
      ],
      "name": "getAvailableElecUnits",
      "outputs": [
        {
          "internalType": "uint256",
          "name": "",
          "type": "uint256"
        }
      ],
      "stateMutability": "view",
      "type": "function"
    },
    {
      "inputs": [
        {
          "internalType": "address",
          "name": "_user",
          "type": "address"
        }
      ],
      "name": "getPurchasePostKeys",
      "outputs": [
        {
          "internalType": "uint256[]",
          "name": "",
          "type": "uint256[]"
        }
      ],
      "stateMutability": "view",
      "type": "function"
    },
    {
      "inputs": [
        {
          "internalType": "address",
          "name": "_user",
          "type": "address"
        }
      ],
      "name": "getSellingPostKeys",
      "outputs": [
        {
          "internalType": "uint256[]",
          "name": "",
          "type": "uint256[]"
        }
      ],
      "stateMutability": "view",
      "type": "function"
    },
    {
      "inputs": [
        {
          "internalType": "address",
          "name": "_user",
          "type": "address"
        },
        {
          "internalType": "string",
          "name": "_username",
          "type": "string"
        }
      ],
      "name": "setUsername",
      "outputs": [],
      "stateMutability": "nonpayable",
      "type": "function"
    },
    {
      "inputs": [
        {
          "internalType": "address",
          "name": "_user",
          "type": "address"
        },
        {
          "internalType": "uint256",
          "name": "_units",
          "type": "uint256"
        }
      ],
      "name": "setAvailableElecUnits",
      "outputs": [],
      "stateMutability": "nonpayable",
      "type": "function"
    },
    {
      "inputs": [
        {
          "internalType": "address",
          "name": "_user",
          "type": "address"
        },
        {
          "internalType": "uint256",
          "name": "_purchasePostKey",
          "type": "uint256"
        }
      ],
      "name": "savePurchasePostKey",
      "outputs": [],
      "stateMutability": "nonpayable",
      "type": "function"
    },
    {
      "inputs": [
        {
          "internalType": "address",
          "name": "_user",
          "type": "address"
        },
        {
          "internalType": "uint256",
          "name": "_sellingPostKey",
          "type": "uint256"
        }
      ],
      "name": "saveSellingPostKey",
      "outputs": [],
      "stateMutability": "nonpayable",
      "type": "function"
    },
    {
      "inputs": [
        {
          "internalType": "address",
          "name": "_user",
          "type": "address"
        },
        {
          "internalType": "contract PostResponseMessage",
          "name": "message",
          "type": "address"
        }
      ],
      "name": "addResponse",
      "outputs": [],
      "stateMutability": "nonpayable",
      "type": "function"
    },
    {
      "inputs": [
        {
          "internalType": "address",
          "name": "_user",
          "type": "address"
        }
      ],
      "name": "returnAllResponses",
      "outputs": [
        {
          "internalType": "contract PostResponseMessage[]",
          "name": "",
          "type": "address[]"
        }
      ],
      "stateMutability": "view",
      "type": "function"
    }
  ],
  "bytecode": "0x60806040523480156200001157600080fd5b50604051620018263803806200182683398181016040528101906200003791906200014a565b80600160006101000a81548173ffffffffffffffffffffffffffffffffffffffff021916908373ffffffffffffffffffffffffffffffffffffffff160217905550600073ab8483f64d9c6d1ecf9b849ae677dd3315835cb2905060646000808373ffffffffffffffffffffffffffffffffffffffff1673ffffffffffffffffffffffffffffffffffffffff1681526020019081526020016000206001018190555050506200017c565b600080fd5b600073ffffffffffffffffffffffffffffffffffffffff82169050919050565b60006200011282620000e5565b9050919050565b620001248162000105565b81146200013057600080fd5b50565b600081519050620001448162000119565b92915050565b600060208284031215620001635762000162620000e0565b5b6000620001738482850162000133565b91505092915050565b61169a806200018c6000396000f3fe608060405234801561001057600080fd5b50600436106100a95760003560e01c8063cb8ab15b11610071578063cb8ab15b14610162578063ce43c03214610192578063e2045452146101c2578063e2670971146101de578063ebe0b877146101fa578063f03b5e9d1461022a576100a9565b80631d036d7d146100ae5780631fe43704146100de578063317d72681461010e57806384dc965a1461012a578063c331d84214610146575b600080fd5b6100c860048036038101906100c39190610b7e565b610246565b6040516100d59190610c73565b60405180910390f35b6100f860048036038101906100f39190610b7e565b6102df565b6040516101059190610da3565b60405180910390f35b61012860048036038101906101239190610dc5565b6103ae565b005b610144600480360381019061013f9190610e55565b6104c4565b005b610160600480360381019061015b9190610ec1565b61056a565b005b61017c60048036038101906101779190610b7e565b610666565b6040516101899190610f10565b60405180910390f35b6101ac60048036038101906101a79190610b7e565b6106b1565b6040516101b99190610fbb565b60405180910390f35b6101dc60048036038101906101d79190611112565b610784565b005b6101f860048036038101906101f39190610ec1565b610845565b005b610214600480360381019061020f9190610b7e565b610977565b6040516102219190610c73565b60405180910390f35b610244600480360381019061023f9190610ec1565b610a10565b005b60606000808373ffffffffffffffffffffffffffffffffffffffff1673ffffffffffffffffffffffffffffffffffffffff1681526020019081526020016000206003018054806020026020016040519081016040528092919081815260200182805480156102d357602002820191906000526020600020905b8154815260200190600101908083116102bf575b50505050509050919050565b60606000808373ffffffffffffffffffffffffffffffffffffffff1673ffffffffffffffffffffffffffffffffffffffff1681526020019081526020016000206004018054806020026020016040519081016040528092919081815260200182805480156103a257602002820191906000526020600020905b8160009054906101000a900473ffffffffffffffffffffffffffffffffffffffff1673ffffffffffffffffffffffffffffffffffffffff1681526020019060010190808311610358575b50505050509050919050565b600160009054906101000a900473ffffffffffffffffffffffffffffffffffffffff1673ffffffffffffffffffffffffffffffffffffffff163373ffffffffffffffffffffffffffffffffffffffff161461043e576040517f08c379a0000000000000000000000000000000000000000000000000000000008152600401610435906111e0565b60405180910390fd5b81600260006101000a81548173ffffffffffffffffffffffffffffffffffffffff021916908373ffffffffffffffffffffffffffffffffffffffff16021790555080600360006101000a81548173ffffffffffffffffffffffffffffffffffffffff021916908373ffffffffffffffffffffffffffffffffffffffff1602179055505050565b6000808373ffffffffffffffffffffffffffffffffffffffff1673ffffffffffffffffffffffffffffffffffffffff168152602001908152602001600020600401819080600181540180825580915050600190039060005260206000200160009091909190916101000a81548173ffffffffffffffffffffffffffffffffffffffff021916908373ffffffffffffffffffffffffffffffffffffffff1602179055505050565b600360009054906101000a900473ffffffffffffffffffffffffffffffffffffffff1673ffffffffffffffffffffffffffffffffffffffff163373ffffffffffffffffffffffffffffffffffffffff16146105fa576040517f08c379a00000000000000000000000000000000000000000000000000000000081526004016105f19061124c565b60405180910390fd5b6000808373ffffffffffffffffffffffffffffffffffffffff1673ffffffffffffffffffffffffffffffffffffffff1681526020019081526020016000206003018190806001815401808255809150506001900390600052602060002001600090919091909150555050565b60008060008373ffffffffffffffffffffffffffffffffffffffff1673ffffffffffffffffffffffffffffffffffffffff168152602001908152602001600020600101549050919050565b60606000808373ffffffffffffffffffffffffffffffffffffffff1673ffffffffffffffffffffffffffffffffffffffff16815260200190815260200160002060000180546106ff9061129b565b80601f016020809104026020016040519081016040528092919081815260200182805461072b9061129b565b80156107785780601f1061074d57610100808354040283529160200191610778565b820191906000526020600020905b81548152906001019060200180831161075b57829003601f168201915b50505050509050919050565b8173ffffffffffffffffffffffffffffffffffffffff163273ffffffffffffffffffffffffffffffffffffffff16146107f2576040517f08c379a00000000000000000000000000000000000000000000000000000000081526004016107e99061133e565b60405180910390fd5b806000808473ffffffffffffffffffffffffffffffffffffffff1673ffffffffffffffffffffffffffffffffffffffff16815260200190815260200160002060000190816108409190611500565b505050565b600260009054906101000a900473ffffffffffffffffffffffffffffffffffffffff1673ffffffffffffffffffffffffffffffffffffffff163373ffffffffffffffffffffffffffffffffffffffff1614806108ee5750600360009054906101000a900473ffffffffffffffffffffffffffffffffffffffff1673ffffffffffffffffffffffffffffffffffffffff163373ffffffffffffffffffffffffffffffffffffffff16145b61092d576040517f08c379a000000000000000000000000000000000000000000000000000000000815260040161092490611644565b60405180910390fd5b806000808473ffffffffffffffffffffffffffffffffffffffff1673ffffffffffffffffffffffffffffffffffffffff168152602001908152602001600020600101819055505050565b60606000808373ffffffffffffffffffffffffffffffffffffffff1673ffffffffffffffffffffffffffffffffffffffff168152602001908152602001600020600201805480602002602001604051908101604052809291908181526020018280548015610a0457602002820191906000526020600020905b8154815260200190600101908083116109f0575b50505050509050919050565b600260009054906101000a900473ffffffffffffffffffffffffffffffffffffffff1673ffffffffffffffffffffffffffffffffffffffff163373ffffffffffffffffffffffffffffffffffffffff1614610aa0576040517f08c379a0000000000000000000000000000000000000000000000000000000008152600401610a979061124c565b60405180910390fd5b6000808373ffffffffffffffffffffffffffffffffffffffff1673ffffffffffffffffffffffffffffffffffffffff1681526020019081526020016000206002018190806001815401808255809150506001900390600052602060002001600090919091909150555050565b6000604051905090565b600080fd5b600080fd5b600073ffffffffffffffffffffffffffffffffffffffff82169050919050565b6000610b4b82610b20565b9050919050565b610b5b81610b40565b8114610b6657600080fd5b50565b600081359050610b7881610b52565b92915050565b600060208284031215610b9457610b93610b16565b5b6000610ba284828501610b69565b91505092915050565b600081519050919050565b600082825260208201905092915050565b6000819050602082019050919050565b6000819050919050565b610bea81610bd7565b82525050565b6000610bfc8383610be1565b60208301905092915050565b6000602082019050919050565b6000610c2082610bab565b610c2a8185610bb6565b9350610c3583610bc7565b8060005b83811015610c66578151610c4d8882610bf0565b9750610c5883610c08565b925050600181019050610c39565b5085935050505092915050565b60006020820190508181036000830152610c8d8184610c15565b905092915050565b600081519050919050565b600082825260208201905092915050565b6000819050602082019050919050565b6000819050919050565b6000610ce6610ce1610cdc84610b20565b610cc1565b610b20565b9050919050565b6000610cf882610ccb565b9050919050565b6000610d0a82610ced565b9050919050565b610d1a81610cff565b82525050565b6000610d2c8383610d11565b60208301905092915050565b6000602082019050919050565b6000610d5082610c95565b610d5a8185610ca0565b9350610d6583610cb1565b8060005b83811015610d96578151610d7d8882610d20565b9750610d8883610d38565b925050600181019050610d69565b5085935050505092915050565b60006020820190508181036000830152610dbd8184610d45565b905092915050565b60008060408385031215610ddc57610ddb610b16565b5b6000610dea85828601610b69565b9250506020610dfb85828601610b69565b9150509250929050565b6000610e1082610b20565b9050919050565b6000610e2282610e05565b9050919050565b610e3281610e17565b8114610e3d57600080fd5b50565b600081359050610e4f81610e29565b92915050565b60008060408385031215610e6c57610e6b610b16565b5b6000610e7a85828601610b69565b9250506020610e8b85828601610e40565b9150509250929050565b610e9e81610bd7565b8114610ea957600080fd5b50565b600081359050610ebb81610e95565b92915050565b60008060408385031215610ed857610ed7610b16565b5b6000610ee685828601610b69565b9250506020610ef785828601610eac565b9150509250929050565b610f0a81610bd7565b82525050565b6000602082019050610f256000830184610f01565b92915050565b600081519050919050565b600082825260208201905092915050565b60005b83811015610f65578082015181840152602081019050610f4a565b60008484015250505050565b6000601f19601f8301169050919050565b6000610f8d82610f2b565b610f978185610f36565b9350610fa7818560208601610f47565b610fb081610f71565b840191505092915050565b60006020820190508181036000830152610fd58184610f82565b905092915050565b600080fd5b600080fd5b7f4e487b7100000000000000000000000000000000000000000000000000000000600052604160045260246000fd5b61101f82610f71565b810181811067ffffffffffffffff8211171561103e5761103d610fe7565b5b80604052505050565b6000611051610b0c565b905061105d8282611016565b919050565b600067ffffffffffffffff82111561107d5761107c610fe7565b5b61108682610f71565b9050602081019050919050565b82818337600083830152505050565b60006110b56110b084611062565b611047565b9050828152602081018484840111156110d1576110d0610fe2565b5b6110dc848285611093565b509392505050565b600082601f8301126110f9576110f8610fdd565b5b81356111098482602086016110a2565b91505092915050565b6000806040838503121561112957611128610b16565b5b600061113785828601610b69565b925050602083013567ffffffffffffffff81111561115857611157610b1b565b5b611164858286016110e4565b9150509250929050565b7f696e7465726e616c20696e697469616c697a6174696f6e2066756e6374696f6e60008201527f2c206163636573732064656e6965640000000000000000000000000000000000602082015250565b60006111ca602f83610f36565b91506111d58261116e565b604082019050919050565b600060208201905081810360008301526111f9816111bd565b9050919050565b7f6163636573732064656e69656400000000000000000000000000000000000000600082015250565b6000611236600d83610f36565b915061124182611200565b602082019050919050565b6000602082019050818103600083015261126581611229565b9050919050565b7f4e487b7100000000000000000000000000000000000000000000000000000000600052602260045260246000fd5b600060028204905060018216806112b357607f821691505b6020821081036112c6576112c561126c565b5b50919050565b7f596f752063616e6e6f74206368616e6765206f7468657220757365722773206960008201527f6e666f726d6174696f6e00000000000000000000000000000000000000000000602082015250565b6000611328602a83610f36565b9150611333826112cc565b604082019050919050565b600060208201905081810360008301526113578161131b565b9050919050565b60008190508160005260206000209050919050565b60006020601f8301049050919050565b600082821b905092915050565b6000600883026113c07fffffffffffffffffffffffffffffffffffffffffffffffffffffffffffffffff82611383565b6113ca8683611383565b95508019841693508086168417925050509392505050565b60006113fd6113f86113f384610bd7565b610cc1565b610bd7565b9050919050565b6000819050919050565b611417836113e2565b61142b61142382611404565b848454611390565b825550505050565b600090565b611440611433565b61144b81848461140e565b505050565b5b8181101561146f57611464600082611438565b600181019050611451565b5050565b601f8211156114b4576114858161135e565b61148e84611373565b8101602085101561149d578190505b6114b16114a985611373565b830182611450565b50505b505050565b600082821c905092915050565b60006114d7600019846008026114b9565b1980831691505092915050565b60006114f083836114c6565b9150826002028217905092915050565b61150982610f2b565b67ffffffffffffffff81111561152257611521610fe7565b5b61152c825461129b565b611537828285611473565b600060209050601f83116001811461156a5760008415611558578287015190505b61156285826114e4565b8655506115ca565b601f1984166115788661135e565b60005b828110156115a05784890151825560018201915060208501945060208101905061157b565b868310156115bd57848901516115b9601f8916826114c6565b8355505b6001600288020188555050505b505050505050565b7f616363657373207265737472696374656420746f2062757965722f73656c6c6560008201527f7220736572766963652c206163636573732064656e6965640000000000000000602082015250565b600061162e603883610f36565b9150611639826115d2565b604082019050919050565b6000602082019050818103600083015261165d81611621565b905091905056fea264697066735822122012f5e44185b7182cb67d251a79fd36596a815f50dc0e55adf3bcf5fb8c1906a964736f6c63430008110033",
  "immutableReferences": {},
  "source": "//SPDX-License-Identifier: MIT\n\npragma solidity ^0.8.0;\n\nimport \"./PostResponseMessage.sol\";\n\ncontract UserService {\n\n    // To-do\n    // uint public suggestedPriceInWei = 1000; \n\n    // map account address to the user information in the system\n    mapping(address => User) private userMap;\n    address mainSystemAddress;\n    address buyerServiceAddress;\n    address sellerServiceAddress;\n\n    struct User{\n        string username;      // nickname\n        uint availableElecUnits; // units of electricity available\n        uint[] purchasePostKeys; // indexes of purchase posts published by user\n        uint[] sellingPostsKeys;  // indexes of selling posts published by user\n        PostResponseMessage[] responses; // all response messages belong to user\n    }\n\n    //constructor\n    constructor(address _mainSystemAddress) {\n        // initilize main system contract address\n        mainSystemAddress = _mainSystemAddress;\n        // initialize user testing data, allocate 100 units of electricity to test account\n        address testAccount = 0xAb8483F64d9C6d1EcF9b849Ae677dD3315835cb2;\n        userMap[testAccount].availableElecUnits = 100;\n\n    }\n\n    function initializeContractAddresses(address _buyerServiceAddress, address _sellerServiceAddress) public {\n        require(msg.sender == mainSystemAddress, \"internal initialization function, access denied\");\n        // initilize buyer and seller service's contract address\n        buyerServiceAddress = _buyerServiceAddress;\n        sellerServiceAddress = _sellerServiceAddress;\n    }\n\n    \n    // getters \n    function getUsername(address _user) public view returns (string memory) {\n        return userMap[_user].username;\n    }\n\n    function getAvailableElecUnits(address _user) public view returns (uint) {\n        return userMap[_user].availableElecUnits;\n    }\n\n    function getPurchasePostKeys(address _user) public view returns (uint[] memory) {\n        return userMap[_user].purchasePostKeys;\n    }\n\n    function getSellingPostKeys(address _user) public view returns (uint[] memory) {\n        return userMap[_user].sellingPostsKeys;\n    }\n\n    // setters\n    function setUsername(address _user, string memory _username) public {\n        require(tx.origin == _user, \"You cannot change other user's information\");\n        userMap[_user].username = _username;\n    }   \n\n    function setAvailableElecUnits(address _user, uint  _units) public {\n        require(msg.sender == buyerServiceAddress || msg.sender == sellerServiceAddress, \"access restricted to buyer/seller service, access denied\");\n        userMap[_user].availableElecUnits = _units;\n    }\n\n    function savePurchasePostKey(address _user, uint _purchasePostKey) public {\n        require(msg.sender == buyerServiceAddress, \"access denied\");\n        userMap[_user].purchasePostKeys.push(_purchasePostKey);\n    }\n\n    function saveSellingPostKey(address _user, uint _sellingPostKey) public {\n        require(msg.sender == sellerServiceAddress, \"access denied\");\n        userMap[_user].sellingPostsKeys.push(_sellingPostKey);\n    }\n\n    // update response messages\n    function addResponse(address _user, PostResponseMessage message) public {\n        userMap[_user].responses.push(message);\n    }\n\n    function returnAllResponses(address _user) public view returns (PostResponseMessage[] memory) {\n        return userMap[_user].responses;\n    }\n\n\n}\n",
  "sourcePath": "/Users/richard/Doc//sydney_study/22s2/5703/vue-web3-5703/truffle/contracts/UserService.sol",
  "compiler": {
    "name": "solc",
    "version": "0.8.17+commit.8df45f5f.Emscripten.clang"
  },
  "schemaVersion": "3.4.9",
  "updatedAt": "2022-10-04T10:06:06.739Z",
  "devdoc": {
    "kind": "dev",
    "methods": {},
    "version": 1
  },
  "userdoc": {
    "kind": "user",
    "methods": {},
    "version": 1
  }
}