{
  "contractName": "UserService",
  "abi": [
    {
      "inputs": [
        {
          "internalType": "address",
          "name": "_mainSystemAddress",
          "type": "address"
        }
      ],
      "stateMutability": "nonpayable",
      "type": "constructor"
    },
    {
      "inputs": [
        {
          "internalType": "address",
          "name": "_buyerServiceAddress",
          "type": "address"
        },
        {
          "internalType": "address",
          "name": "_sellerServiceAddress",
          "type": "address"
        }
      ],
      "name": "initializeContractAddresses",
      "outputs": [],
      "stateMutability": "nonpayable",
      "type": "function"
    },
    {
      "inputs": [
        {
          "internalType": "address",
          "name": "_user",
          "type": "address"
        }
      ],
      "name": "getUsername",
      "outputs": [
        {
          "internalType": "string",
          "name": "",
          "type": "string"
        }
      ],
      "stateMutability": "view",
      "type": "function"
    },
    {
      "inputs": [
        {
          "internalType": "address",
          "name": "_user",
          "type": "address"
        }
      ],
      "name": "getAvailableElecUnits",
      "outputs": [
        {
          "internalType": "uint256",
          "name": "",
          "type": "uint256"
        }
      ],
      "stateMutability": "view",
      "type": "function"
    },
    {
      "inputs": [
        {
          "internalType": "address",
          "name": "_user",
          "type": "address"
        }
      ],
      "name": "getPurchasePostKeys",
      "outputs": [
        {
          "internalType": "uint256[]",
          "name": "",
          "type": "uint256[]"
        }
      ],
      "stateMutability": "view",
      "type": "function"
    },
    {
      "inputs": [
        {
          "internalType": "address",
          "name": "_user",
          "type": "address"
        }
      ],
      "name": "getSellingPostKeys",
      "outputs": [
        {
          "internalType": "uint256[]",
          "name": "",
          "type": "uint256[]"
        }
      ],
      "stateMutability": "view",
      "type": "function"
    },
    {
      "inputs": [
        {
          "internalType": "address",
          "name": "_user",
          "type": "address"
        },
        {
          "internalType": "string",
          "name": "_username",
          "type": "string"
        }
      ],
      "name": "setUsername",
      "outputs": [],
      "stateMutability": "nonpayable",
      "type": "function"
    },
    {
      "inputs": [
        {
          "internalType": "address",
          "name": "_user",
          "type": "address"
        },
        {
          "internalType": "uint256",
          "name": "_units",
          "type": "uint256"
        }
      ],
      "name": "setAvailableElecUnits",
      "outputs": [],
      "stateMutability": "nonpayable",
      "type": "function"
    },
    {
      "inputs": [
        {
          "internalType": "address",
          "name": "_user",
          "type": "address"
        },
        {
          "internalType": "uint256",
          "name": "_purchasePostKey",
          "type": "uint256"
        }
      ],
      "name": "savePurchasePostKey",
      "outputs": [],
      "stateMutability": "nonpayable",
      "type": "function"
    },
    {
      "inputs": [
        {
          "internalType": "address",
          "name": "_user",
          "type": "address"
        },
        {
          "internalType": "uint256",
          "name": "_sellingPostKey",
          "type": "uint256"
        }
      ],
      "name": "saveSellingPostKey",
      "outputs": [],
      "stateMutability": "nonpayable",
      "type": "function"
    }
  ],
  "bytecode": "0x60806040523480156200001157600080fd5b50604051620014993803806200149983398181016040528101906200003791906200014a565b80600160006101000a81548173ffffffffffffffffffffffffffffffffffffffff021916908373ffffffffffffffffffffffffffffffffffffffff160217905550600073ab8483f64d9c6d1ecf9b849ae677dd3315835cb2905060646000808373ffffffffffffffffffffffffffffffffffffffff1673ffffffffffffffffffffffffffffffffffffffff1681526020019081526020016000206001018190555050506200017c565b600080fd5b600073ffffffffffffffffffffffffffffffffffffffff82169050919050565b60006200011282620000e5565b9050919050565b620001248162000105565b81146200013057600080fd5b50565b600081519050620001448162000119565b92915050565b600060208284031215620001635762000162620000e0565b5b6000620001738482850162000133565b91505092915050565b61130d806200018c6000396000f3fe608060405234801561001057600080fd5b50600436106100935760003560e01c8063ce43c03211610066578063ce43c03214610130578063e204545214610160578063e26709711461017c578063ebe0b87714610198578063f03b5e9d146101c857610093565b80631d036d7d14610098578063317d7268146100c8578063c331d842146100e4578063cb8ab15b14610100575b600080fd5b6100b260048036038101906100ad91906109a7565b6101e4565b6040516100bf9190610a9c565b60405180910390f35b6100e260048036038101906100dd9190610abe565b61027d565b005b6100fe60048036038101906100f99190610b2a565b610393565b005b61011a600480360381019061011591906109a7565b61048f565b6040516101279190610b79565b60405180910390f35b61014a600480360381019061014591906109a7565b6104da565b6040516101579190610c24565b60405180910390f35b61017a60048036038101906101759190610d7b565b6105ad565b005b61019660048036038101906101919190610b2a565b61066e565b005b6101b260048036038101906101ad91906109a7565b6107a0565b6040516101bf9190610a9c565b60405180910390f35b6101e260048036038101906101dd9190610b2a565b610839565b005b60606000808373ffffffffffffffffffffffffffffffffffffffff1673ffffffffffffffffffffffffffffffffffffffff16815260200190815260200160002060030180548060200260200160405190810160405280929190818152602001828054801561027157602002820191906000526020600020905b81548152602001906001019080831161025d575b50505050509050919050565b600160009054906101000a900473ffffffffffffffffffffffffffffffffffffffff1673ffffffffffffffffffffffffffffffffffffffff163373ffffffffffffffffffffffffffffffffffffffff161461030d576040517f08c379a000000000000000000000000000000000000000000000000000000000815260040161030490610e49565b60405180910390fd5b81600260006101000a81548173ffffffffffffffffffffffffffffffffffffffff021916908373ffffffffffffffffffffffffffffffffffffffff16021790555080600360006101000a81548173ffffffffffffffffffffffffffffffffffffffff021916908373ffffffffffffffffffffffffffffffffffffffff1602179055505050565b600360009054906101000a900473ffffffffffffffffffffffffffffffffffffffff1673ffffffffffffffffffffffffffffffffffffffff163373ffffffffffffffffffffffffffffffffffffffff1614610423576040517f08c379a000000000000000000000000000000000000000000000000000000000815260040161041a90610eb5565b60405180910390fd5b6000808373ffffffffffffffffffffffffffffffffffffffff1673ffffffffffffffffffffffffffffffffffffffff1681526020019081526020016000206003018190806001815401808255809150506001900390600052602060002001600090919091909150555050565b60008060008373ffffffffffffffffffffffffffffffffffffffff1673ffffffffffffffffffffffffffffffffffffffff168152602001908152602001600020600101549050919050565b60606000808373ffffffffffffffffffffffffffffffffffffffff1673ffffffffffffffffffffffffffffffffffffffff168152602001908152602001600020600001805461052890610f04565b80601f016020809104026020016040519081016040528092919081815260200182805461055490610f04565b80156105a15780601f10610576576101008083540402835291602001916105a1565b820191906000526020600020905b81548152906001019060200180831161058457829003601f168201915b50505050509050919050565b8173ffffffffffffffffffffffffffffffffffffffff163273ffffffffffffffffffffffffffffffffffffffff161461061b576040517f08c379a000000000000000000000000000000000000000000000000000000000815260040161061290610fa7565b60405180910390fd5b806000808473ffffffffffffffffffffffffffffffffffffffff1673ffffffffffffffffffffffffffffffffffffffff16815260200190815260200160002060000190816106699190611173565b505050565b600260009054906101000a900473ffffffffffffffffffffffffffffffffffffffff1673ffffffffffffffffffffffffffffffffffffffff163373ffffffffffffffffffffffffffffffffffffffff1614806107175750600360009054906101000a900473ffffffffffffffffffffffffffffffffffffffff1673ffffffffffffffffffffffffffffffffffffffff163373ffffffffffffffffffffffffffffffffffffffff16145b610756576040517f08c379a000000000000000000000000000000000000000000000000000000000815260040161074d906112b7565b60405180910390fd5b806000808473ffffffffffffffffffffffffffffffffffffffff1673ffffffffffffffffffffffffffffffffffffffff168152602001908152602001600020600101819055505050565b60606000808373ffffffffffffffffffffffffffffffffffffffff1673ffffffffffffffffffffffffffffffffffffffff16815260200190815260200160002060020180548060200260200160405190810160405280929190818152602001828054801561082d57602002820191906000526020600020905b815481526020019060010190808311610819575b50505050509050919050565b600260009054906101000a900473ffffffffffffffffffffffffffffffffffffffff1673ffffffffffffffffffffffffffffffffffffffff163373ffffffffffffffffffffffffffffffffffffffff16146108c9576040517f08c379a00000000000000000000000000000000000000000000000000000000081526004016108c090610eb5565b60405180910390fd5b6000808373ffffffffffffffffffffffffffffffffffffffff1673ffffffffffffffffffffffffffffffffffffffff1681526020019081526020016000206002018190806001815401808255809150506001900390600052602060002001600090919091909150555050565b6000604051905090565b600080fd5b600080fd5b600073ffffffffffffffffffffffffffffffffffffffff82169050919050565b600061097482610949565b9050919050565b61098481610969565b811461098f57600080fd5b50565b6000813590506109a18161097b565b92915050565b6000602082840312156109bd576109bc61093f565b5b60006109cb84828501610992565b91505092915050565b600081519050919050565b600082825260208201905092915050565b6000819050602082019050919050565b6000819050919050565b610a1381610a00565b82525050565b6000610a258383610a0a565b60208301905092915050565b6000602082019050919050565b6000610a49826109d4565b610a5381856109df565b9350610a5e836109f0565b8060005b83811015610a8f578151610a768882610a19565b9750610a8183610a31565b925050600181019050610a62565b5085935050505092915050565b60006020820190508181036000830152610ab68184610a3e565b905092915050565b60008060408385031215610ad557610ad461093f565b5b6000610ae385828601610992565b9250506020610af485828601610992565b9150509250929050565b610b0781610a00565b8114610b1257600080fd5b50565b600081359050610b2481610afe565b92915050565b60008060408385031215610b4157610b4061093f565b5b6000610b4f85828601610992565b9250506020610b6085828601610b15565b9150509250929050565b610b7381610a00565b82525050565b6000602082019050610b8e6000830184610b6a565b92915050565b600081519050919050565b600082825260208201905092915050565b60005b83811015610bce578082015181840152602081019050610bb3565b60008484015250505050565b6000601f19601f8301169050919050565b6000610bf682610b94565b610c008185610b9f565b9350610c10818560208601610bb0565b610c1981610bda565b840191505092915050565b60006020820190508181036000830152610c3e8184610beb565b905092915050565b600080fd5b600080fd5b7f4e487b7100000000000000000000000000000000000000000000000000000000600052604160045260246000fd5b610c8882610bda565b810181811067ffffffffffffffff82111715610ca757610ca6610c50565b5b80604052505050565b6000610cba610935565b9050610cc68282610c7f565b919050565b600067ffffffffffffffff821115610ce657610ce5610c50565b5b610cef82610bda565b9050602081019050919050565b82818337600083830152505050565b6000610d1e610d1984610ccb565b610cb0565b905082815260208101848484011115610d3a57610d39610c4b565b5b610d45848285610cfc565b509392505050565b600082601f830112610d6257610d61610c46565b5b8135610d72848260208601610d0b565b91505092915050565b60008060408385031215610d9257610d9161093f565b5b6000610da085828601610992565b925050602083013567ffffffffffffffff811115610dc157610dc0610944565b5b610dcd85828601610d4d565b9150509250929050565b7f696e7465726e616c20696e697469616c697a6174696f6e2066756e6374696f6e60008201527f2c206163636573732064656e6965640000000000000000000000000000000000602082015250565b6000610e33602f83610b9f565b9150610e3e82610dd7565b604082019050919050565b60006020820190508181036000830152610e6281610e26565b9050919050565b7f6163636573732064656e69656400000000000000000000000000000000000000600082015250565b6000610e9f600d83610b9f565b9150610eaa82610e69565b602082019050919050565b60006020820190508181036000830152610ece81610e92565b9050919050565b7f4e487b7100000000000000000000000000000000000000000000000000000000600052602260045260246000fd5b60006002820490506001821680610f1c57607f821691505b602082108103610f2f57610f2e610ed5565b5b50919050565b7f596f752063616e6e6f74206368616e6765206f7468657220757365722773206960008201527f6e666f726d6174696f6e00000000000000000000000000000000000000000000602082015250565b6000610f91602a83610b9f565b9150610f9c82610f35565b604082019050919050565b60006020820190508181036000830152610fc081610f84565b9050919050565b60008190508160005260206000209050919050565b60006020601f8301049050919050565b600082821b905092915050565b6000600883026110297fffffffffffffffffffffffffffffffffffffffffffffffffffffffffffffffff82610fec565b6110338683610fec565b95508019841693508086168417925050509392505050565b6000819050919050565b600061107061106b61106684610a00565b61104b565b610a00565b9050919050565b6000819050919050565b61108a83611055565b61109e61109682611077565b848454610ff9565b825550505050565b600090565b6110b36110a6565b6110be818484611081565b505050565b5b818110156110e2576110d76000826110ab565b6001810190506110c4565b5050565b601f821115611127576110f881610fc7565b61110184610fdc565b81016020851015611110578190505b61112461111c85610fdc565b8301826110c3565b50505b505050565b600082821c905092915050565b600061114a6000198460080261112c565b1980831691505092915050565b60006111638383611139565b9150826002028217905092915050565b61117c82610b94565b67ffffffffffffffff81111561119557611194610c50565b5b61119f8254610f04565b6111aa8282856110e6565b600060209050601f8311600181146111dd57600084156111cb578287015190505b6111d58582611157565b86555061123d565b601f1984166111eb86610fc7565b60005b82811015611213578489015182556001820191506020850194506020810190506111ee565b86831015611230578489015161122c601f891682611139565b8355505b6001600288020188555050505b505050505050565b7f616363657373207265737472696374656420746f2062757965722f73656c6c6560008201527f7220736572766963652c206163636573732064656e6965640000000000000000602082015250565b60006112a1603883610b9f565b91506112ac82611245565b604082019050919050565b600060208201905081810360008301526112d081611294565b905091905056fea264697066735822122032d4e0450175f1d5300ace2177e83779e19f8057c12694a12e6ec4ae7378639164736f6c63430008110033",
  "immutableReferences": {},
  "source": "//SPDX-License-Identifier: MIT\n\npragma solidity ^0.8.0;\n\n\ncontract UserService {\n\n    // To-do\n    // uint public suggestedPriceInWei = 1000; \n\n    // map account address to the user information in the system\n    mapping(address => User) private userMap;\n    address mainSystemAddress;\n    address buyerServiceAddress;\n    address sellerServiceAddress;\n\n    struct User{\n        string username;      // nickname\n        uint availableElecUnits; // units of electricity available\n        uint[] purchasePostKeys; // indexes of purchase posts published by user\n        uint[] sellingPostsKeys;  // indexes of selling posts published by user\n    }\n\n    //constructor\n    constructor(address _mainSystemAddress) {\n        // initilize main system contract address\n        mainSystemAddress = _mainSystemAddress;\n        // initialize user testing data, allocate 100 units of electricity to test account\n        address testAccount = 0xAb8483F64d9C6d1EcF9b849Ae677dD3315835cb2;\n        userMap[testAccount].availableElecUnits = 100;\n\n    }\n\n    function initializeContractAddresses(address _buyerServiceAddress, address _sellerServiceAddress) public {\n        require(msg.sender == mainSystemAddress, \"internal initialization function, access denied\");\n        // initilize buyer and seller service's contract address\n        buyerServiceAddress = _buyerServiceAddress;\n        sellerServiceAddress = _sellerServiceAddress;\n    }\n\n    \n    // getters \n    function getUsername(address _user) public view returns (string memory) {\n        return userMap[_user].username;\n    }\n\n    function getAvailableElecUnits(address _user) public view returns (uint) {\n        return userMap[_user].availableElecUnits;\n    }\n\n    function getPurchasePostKeys(address _user) public view returns (uint[] memory) {\n        return userMap[_user].purchasePostKeys;\n    }\n\n    function getSellingPostKeys(address _user) public view returns (uint[] memory) {\n        return userMap[_user].sellingPostsKeys;\n    }\n\n    // setters\n    function setUsername(address _user, string memory _username) public {\n        require(tx.origin == _user, \"You cannot change other user's information\");\n        userMap[_user].username = _username;\n    }   \n\n    function setAvailableElecUnits(address _user, uint  _units) public {\n        require(msg.sender == buyerServiceAddress || msg.sender == sellerServiceAddress, \"access restricted to buyer/seller service, access denied\");\n        userMap[_user].availableElecUnits = _units;\n    }\n\n    function savePurchasePostKey(address _user, uint _purchasePostKey) public {\n        require(msg.sender == buyerServiceAddress, \"access denied\");\n        userMap[_user].purchasePostKeys.push(_purchasePostKey);\n    }\n\n    function saveSellingPostKey(address _user, uint _sellingPostKey) public {\n        require(msg.sender == sellerServiceAddress, \"access denied\");\n        userMap[_user].sellingPostsKeys.push(_sellingPostKey);\n    }\n\n\n\n}",
  "sourcePath": "/Users/richard/Doc//sydney_study/22s2/5703/vue-web3-5703/truffle/contracts/UserService.sol",
  "compiler": {
    "name": "solc",
    "version": "0.8.17+commit.8df45f5f.Emscripten.clang"
  },
  "schemaVersion": "3.4.9",
  "updatedAt": "2022-09-27T05:41:22.877Z",
  "devdoc": {
    "kind": "dev",
    "methods": {},
    "version": 1
  },
  "userdoc": {
    "kind": "user",
    "methods": {},
    "version": 1
  }
}